:020000040800F2
:1000000000000110A1580308474A0008431A0208DB
:100010005D5903085D5903085D590308000000009D
:10002000000000000000000000000000454A000839
:10003000434A000800000000414A00081715030861
:100040005D5903085D5903085D5903085D590308AC
:100050005D5903085D590308B1170308C117030868
:100060005D590308BD170308B9170308094F0008B5
:10007000F54E0008E14E0008CD4E0008B94E0008CC
:10008000A54E0008914E00085D5903085D5903080C
:100090005D5903085D5903085D590308B517030846
:1000A0004950000821500008F94F0008715000081D
:1000B000E54F0008D14F0008BD4F00085D59030807
:1000C0005D5903085D5903085D5903085D5903082C
:1000D0005D5903083D5A00085D590308315A00086C
:1000E000AD1703085D590308496500086D4F000806
:1000F000454F00081D4F0008954F00087D4E000831
:100100005D5903085D590308A94F00085D590308AC
:100110005D5903085D5903085D5903085D590308DB
:10012000694E0008554E0008414E00082D4E00084B
:10013000194E00085D5903085D5903085D5903080D
:100140005D5903085D5903085D59030859440008C7
:10015000054E0008F14D0008DD4D0008275A000843
:100160005D5903085D5903085D5903085D5903088B
:100170005D5903085D5903085D5903085D5903087B
:080180005D5903085D590308F5
:1001880030B5002301385A1C845C64B9DBB20A4AD2
:1001980001335B000B80137003235370022310F8A4
:1001A800015F15B930BD1346EDE7591CC9B2D554E6
:1001B8000233DBB25454F2E7C01500202DE9F04FAA
:1001C8002DED108BDFEDAF5A8DB002230090039117
:1001D8000B9201910293B0EE655A019B009AD908DF
:1001E8004FEA411902EB090CCA00182008926FF077
:1001F80017024A4300FB01F428200CEB0207049481
:1002080000FB01F4079430200C0107EB0906B51830
:10021800069400FB01F43820059400FB01FB05EB74
:10022800090400982244DB0002EB090800F1040EDF
:100238004FF0000ADCED007A1EED017AD7ED003AA6
:10024800D5ED004A98ED003AD2ED002A77EE276AFC
:1002580037EE677AD6ED007A33EEA76A73EEE73A9F
:10026800D4ED007A34EEA74A74EEE77A72EE834A48
:1002780036EEC48A36EE640A76EE846A36EE246A6E
:1002880072EEC32A76EE864A76EEC66A4EED014ACB
:10029800CCED006ADEED004A9CED016A97ED014A5B
:1002A80095ED013AD8ED011A74EE866A34EEC66A05
:1002B800D6ED014A34EE242A34EE644AD4ED014ADC
:1002C80033EE241A73EE644A92ED013A73EE210A72
:1002D80033EE613A76EEC11A76EE816A32EE601A32
:1002E80032EE202A76EE820A76EEC26ACEED000A57
:1002F800CCED016A78EE016A38EE412AC5ED006A54
:1003080071EEC06A84ED002AC5ED016A70EE216ABB
:1003180034EE432AC4ED016A73EEA26A73EEE21A60
:1003280034EE034AF0EE673AE6EEE53A9C441D44A3
:10033800E6EEA57A1C449E44F0EE462AF0EE466AA4
:10034800B0EE646AB0EE473AA4EE256AA1EEA57A4B
:10035800E2EE652AE2EE256AB0EE642AA1EEE53AFD
:10036800A4EE652A77EE064A37EE467AC7ED004ACC
:1003780088ED007A33EE027A33EE423A86ED007A5F
:1003880036EEE77A77EEA67A82ED003A87ED017AC3
:10039800C8ED017A72EEE37A73EEA23AC6ED017AFD
:1003A800C2ED013A01988244039850451F441E4407
:1003B8001A4498443FF63EAF072940F26881009AF4
:1003C80000984A440A92089A02440992079A0244F9
:1003D8000892069A02440792059A02440692049AE1
:1003E800024405920BEB000204924FF001094FF012
:1003F800000A029A92440B9A4FEACA042244D2EDA8
:10040800001A224492ED008A2244D2ED004A224486
:1004180092ED009A2244D2ED003A22446FF02F0068
:10042800D2ED000A2244D2ED002A00FB0A2292ED06
:10043800011A00982244D2ED018A224492ED014A21
:100448002244D2ED019A224492ED013A224492EDDF
:10045800010A224492ED012A4FEAC90200EB020880
:100468000A9800EB020E099800EB020C089887180E
:100478000798861806988518059884180498CB4616
:10048800024401E0F304353FDEED007ADCED006A5A
:1004980097ED007A98ED00AA96ED00BA94ED00EA7F
:1004A8003AEE276A36EEC7DA3AEE67AA76EE877A28
:1004B800D5ED006A3BEE267A3BEE66BAD2ED006ACD
:1004C8007EEE26AA36EE47FA77EEEAEA36EE076AB5
:1004D80077EEAA7A3EEE66EA36EE277A76EE67AAD5
:1004E80088ED007A98ED016ADEED017ADCED01CA4B
:1004F800D6ED016AD4ED01FAD2ED01DA36EE277AAB
:1005080076EE67BAD7ED017A3CEEA76A7CEEE7CAC9
:10051800D5ED017A36EEA7CA76EEE77A7FEEAD6AB8
:100528007FEEEDDA77EE4CFA37EE0CCA36EE667AE5
:1005380036EE266A7FEE076A3FEE477A3CEE06FA09
:100548003CEE46CA88ED01FA29EE8C6A3FEEEEFAD7
:10055800A9EE2A6A98447EEEAFEA8EED006A2AEE8A
:10056800E96A7DEE4EAAA9EE0C6AB0EE4ACA8EED93
:10057800016A28EE8F6AAAEEC5CA9E44A8EE266ACA
:1005880066EEE86A86ED006AE8EE0F6A3CEEED6A10
:10059800C6ED016A60EE2E6AAAEE85AA1E44E0EE58
:1005A800876A27EE407AC5ED006AA0EEAE7A7DEE46
:1005B8000E6A85ED017A3CEEAD7AF0EE6BCAE6EE96
:1005C80005BA1D44E6EE45CAB0EE6B6AF0EE67BAAE
:1005D800E7EE45BAE7EE057AF0EE4BAAA6EE85BA45
:1005E8003CEE2B7AE6EEC5AA7AEE276A7AEE677AAF
:1005F8003CEE6BAA36EE4BCA3BEE066A61EE0CBACD
:100608003CEEEABAE1EEA6BA66EEC16ACCED00BAF3
:10061800E1EE8C6A7AEEACAACCED016A62EE066A6B
:100628009C44E2EEA76AC2ED006A67EEC26A63EE16
:100638000B7AE2EE866AE3EE877AC2ED016A27EE6C
:10064800437AC7ED007A64EE2A7AA3EE8B7A1A44CD
:10065800E4EE8A7A87ED017AC4ED007A6AEE447A8C
:100668001F44E4EEAA7AC4ED017A01988344039802
:1006780058451C443FF608AF09F1010949457FF484
:10068800B8AE029BDB009BB2CDE90113A5E50DB026
:10069800BDEC108BBDE8F08FF0B59F083F010D460B
:1006A8001446C619B04205F1100504F1100408D12A
:1006B80003F0030339443A4406EB83039E4223D1F3
:1006C800F0BD84469CED006A15ED045AD0ED016A30
:1006D80055ED037A90ED027A55ED025A26EE056A39
:1006E80066EEA76AD0ED037A04ED046A15ED016A97
:1006F80044ED036A27EE257A67EE867A103004ED1A
:10070800027A44ED017ACDE7F6EC017AB1EC017A90
:1007180067EE877AE2EC017AD0E7012380F8493066
:100728007047044B586B18B1586B431F58425841D7
:10073800704700BFC0150020064AD2E90E138B424D
:10074800FDD0D1180133C3F30A03D36391F84000F5
:10075800704700BFC0150020044BD3E90E30984203
:1007680088BF03F50063181A704700BFC015002042
:100778000120704770477047704730B5104CD4E976
:100788000E329A4286BF03F50065AA1A9A1A0A44DD
:10079800B2F5006F11D801440022814203D102B1A1
:1007A800A363002030BDE21810F8015B82F84050C6
:1007B8000133C3F30A030122EFE70220F2E700BF87
:1007C800C0150020064AD2F84038D2F8442893428F
:1007D80094BF4FF400600020013B9B1A18447047F7
:1007E800C0150020EEE7212838B50C461BD022287A
:1007F8002BD0202815D1A1B1072A12D1194DD5F82F
:10080800483813B10968002098472368C5F84C3860
:10081800237985F85038637985F85138A37985F8B4
:100828005238002038BD0029FBD0072AF9D10D4BDA
:10083800D3F84C280A6093F850280A7193F8512885
:100848004A7193F852388B71EBE70029E9D0022AF4
:10085800E7D1044BD3F85438002BE2D009880020A4
:100868009847DEE7C0150020014B00205863704709
:10087800C0150020044B002005225A63C3F8540811
:10088800C3F84808704700BFC0150020704770477C
:100898007047704770477047704708B50248FFF7C0
:1008A8006FFC024808BD00BFA4E30308C015002080
:1008B80008B50248FFF764FC014808BDB2E3030825
:1008C800C015002008B50248FFF75AFC014808BDCA
:1008D800BDE30308C015002008B50248FFF750FC27
:1008E800014808BDC7E30308C015002008B5024841
:1008F800FFF746FC014808BDCCE30308C0150020FB
:1009080004230B80004870470000002012230B804E
:1009180000487047040000204378007840EA03202C
:10092800094B10FB01F1994208DBB1F5000F07DA1A
:100938000029B8BFFF31081200B270470348FBE72F
:1009480047F6FF70F8E700BF01FF7FFF0080FFFF59
:100958002DE9F04FDFF8708185B0CDE90212B8F8C3
:100968006628D8F85848B8F8626813024FEA126E39
:10097800B8F86428E41A6EEB4E0EA2FB040102FBE1
:100988000E11C209B8F8600842EA4162CD110104AB
:10099800030C5218A6FB040106FB0E11B8F85E689A
:1009A80043EB0505030AB8F8680843EA01634FEA10
:1009B800212C710CF6039B19A0FB04674CEB010C6E
:1009C80000FB0E77F10D41EA4721F81511F5FA6A97
:1009D80040F1000BBAF5FA6F01907BF1000053DA91
:1009E8000198A1FB0167484307EB40070520A6FBD8
:1009F800008900FB07994FEA580040EAC970121AAB
:100A08004FEA98004FEA690640EA897065EB0605E7
:100A18001B1A4FEAA9066CEB060C2A4E4FF0FF375B
:100A2800B2457BEB070024DA019E40F6AC5008186B
:100A38004FF0000146EB010800FB08F8A0FB00019D
:100A480001EB4801CE00C700C71B46EA507661EBB0
:100A580006064FF00B08D21946EB0505A0FB086700
:100A680008FB0177710841EAC77178105B1A6CEBD3
:100A7800000C04FB0EFEA4FB040101EB4E01C40FA5
:100A880044EA4104BAEB040A029999B10E49D1F833
:100A98006C48A4FB030104FB0C11430D43EAC1237A
:100AA8009A1A4FEA615464EB0505D20B029B42EA9D
:100AB80045421A60039B0BB1C3F800A0012005B0A2
:100AC800BDE8F08F24FAFFFFC01500202DE9F74F8D
:100AD800704D9146D5F87048B5F87428C2EB2413C8
:100AE8005200C2EBE402B5F976485B436243B5F9BC
:100AF80078481B135C43A41304EBE224B4F5FA3ED4
:100B08008846AEFB0E12CDE900124FEAE47343F1BA
:100B1800FF3C019AC5F88C480EFB0CF302EB43032B
:100B2800B5F97C28019302FB0CF1D3170EFB0311D6
:100B3800A2FB0E230B44190341EA12511003019E34
:100B4800B5F97E2802FB06FA009ED31706FB03AA16
:100B5800A2FB062353444FEA122A4AEA036AB5F86D
:100B68007A284FEA232B1AEB00004BEB010B0030DD
:100B78004BF5004BA0FB020102FB0B114A10CB17EF
:100B880052EA030100F08480B5F98408019E00FB55
:100B980006F7009EC11706FB0177A0FB0601B5F911
:100BA8008268394406FB0CFCF7170EFB07CCA6FB42
:100BB8000E6767444FEA474E4FEA464C1CEB000C61
:100BC8004EEAD63E4EEB010ED5F89018B5F980687E
:100BD800C1F58011CF174FEAC77A4AEA510AC80708
:100BE800002111EB0C014FEAC60747EB0E0E40F649
:100BF8003546401A6AEB0E0AA0FB060106FB0A11ED
:100C080034F064FCB5F98A284E13470B47EAC1470C
:100C180002FB06FCD31707FB03CCA2FB07236344A4
:100C2800564307FB0366A2FB07233344560E46EAE6
:100C3800C316B5F9882836184FEA636741EB0707EA
:100C4800D317514300FB0311A2FB00230B44D10C23
:100C580041EA4331D814761840EB0707B5F98608FE
:100C6800320A42EA076203011344B8F1000F02D0C6
:100C78001B0AC8F80030B9F1000F05D004EB840452
:100C880080342412C9F80040012003B0BDE8F08F79
:100C98000023EAE7C01500200120704701207047B3
:100CA8002DE9F041344DB5F8A248B5F89438B5F9B6
:100CB800AC08B5F99C68B5F99AC8B5F9A6E8B5F9CC
:100CC800B4781B1BB5F8A0485C43E313B5F9AA48F0
:100CD8001844E40294FBF0F41C44A4F57A6303FB83
:100CE80003F003FB0CFC7343B5F9A468C5F8B048DE
:100CF800001300FB0EFE7043001400EB633002305B
:100D08004FEAEC2606EBEE268010B5F89E38B5F9CA
:100D180098E800F50040434306EB8E064FEAD338C7
:100D2800BE40D5F8B83802364CF25030A3EBA606D0
:100D380040FA07F3734355BF5B00B3FBF8F3B3FB0B
:100D4800F8F35B0079B1181200FB00F540F6DE30CD
:100D580068430A4D00145D4300EB254000F6CF6060
:100D680003EB20130B6022B10A235C4308342411DF
:100D780014600120BDE8F081C015002043E3FFFFA7
:100D88004FF40063838170474FF400638381704799
:100D9800036941681F2B4FF0200230B585BFA3F1CE
:100DA80020054C680C68AA4098BF9A40224214BF9C
:100DB80001220022EAB1826900201074D068846898
:100DC800206820F001002060546820686579094C8B
:100DD800828934F815401F2B22EA0402828188BFD9
:100DE800203B4FF020028BBF9A4002FA03F3CA60FF
:100DF8008B6030BDE0840308BFF34F8F0549064B75
:100E0800CA6802F4E0621343CB60BFF34F8F00BFA0
:100E1800FDE700BF00ED00E00400FA05436B998987
:100E28001A88890610B592B2044606D5900604D5EC
:100E3800E26A1AB39888216B9047636B99891A887C
:100E4800090692B20FD510060DD5D4E909128A42C7
:100E580022D0A1692069895C99800132B2FBF0F146
:100E680000FB1122A262998A1A88C90592B204D598
:100E7800D20744BF4FF6F7721A8010BD9B88E2690B
:100E88006169DBB28B54E369E1680133B3FBF1F2CA
:100E980001FB1233E361D0E7DA6822F08002DA60FE
:100EA800E1E7D0E90920131A5842584170474171C7
:100EB800704743799B070AD5436A8269D154436ACC
:100EC80001690133B3FBF1F201FB1233436270474E
:100ED800437913F002031FBF0369D0E9092003F126
:100EE800FF33101A1DBF1840C0B2181A18467047B1
:100EF800437913F001031FBFD0E90732C0689B1A7A
:100F080000F1FF3014BF18401846704710B54379F8
:100F180013F0010301460ED0FFF7EAFF50B10B6A48
:100F28004A69CC68D05C0133B3FBF4F204FB12339A
:100F3800C0B20B6210BD1846FCE790F85F3230B5BE
:100F48003BB990F85D1290F85E320124DAB2914212
:100F580000D830BDB0F8665204FA03F22A43A0F86C
:100F680066220133F2E790F83420034602F0FF00CE
:100F780012B1002283F8342070470123037750F818
:100F8800043C0BB11838184770470C4B93F8BC2831
:100F98007AB1D3F8C81888420DD3D3F8CC18884250
:100FA80009D8D3F8C418C3F8E40841F00101C3F81C
:100FB800C418104670470022FBE700BFC015002088
:100FC80008B50846FFF7E1FF18B1024B012283F884
:100FD800D82808BDC015002028B1044BD3F8200933
:100FE80008B193F8BC0800F001007047C015002054
:100FF80008B5FFF7F1FF18B1024BD3F8E4380B80BE
:1010080008BD00BFC015002008B5FFF7E5FF08B10F
:1010180000230B7008BD08B5FFF7DEFF18B1024BBF
:10102800D3F8EC380B7008BDC015002010B5FFF7D9
:10103800D3FF48B1064B93F8D84834B993F8DC4845
:101048000C70D3F8E038137010BD0024F8E700BF27
:10105800C01500200520704730B1044B93F92409CE
:101068000028D4BF00200120704700BFC015002011
:1010780008B5FFF7F1FF18B1024BB3F82C390B8014
:1010880008BD00BFC015002008B5FFF7E5FF18B17F
:10109800024B93F832390B7008BD00BFC015002011
:1010A80008B5FFF7D9FF80B10B4BB3F82E3963B100
:1010B800192B0BD9642B0BD9C82B0BD9B3F5C87FC7
:1010C80094BF0323042301330B7008BD0023FAE700
:1010D8000123F8E70223F6E7C015002010B5FFF753
:1010E800BBFF48B1064B93F8264934B993F8274912
:1010F8000C7093F82839137010BD0024F8E700BF6E
:10110800C01500200420704728B1034B93F916003E
:10111800003018BF012070470000002008B5FFF715
:10112800F3FF48B1054B93F91620022A03BF5B7EF3
:10113800C3F340030B70002008BD00BF000000206F
:1011480008B5FFF7E1FF80B10C4A92F9183092F91F
:101158001620012A0ED1272B08DC182B08DC0F2BB0
:10116800D4BF0023012301330B7008BD0323FAE722
:101178000223F8E70133DBB2F6E700BF00000020E6
:1011880010B5FFF7C1FFB8B10D4C637EDB0714D46F
:1011980094F91730002BB8BF0733DB100133DBB2EB
:1011A8000B7094F91730594201F0070103F0070357
:1011B80058BF4B420133137010BD0023F0E700BF46
:1011C800000000200320704770B50B4A92F83439AC
:1011D80006255E1CB6FBF5F405FB146492F8355938
:1011E800AC421FBF02EBC30382F83449C3F8380985
:1011F800C3F83C1970BD00BFC015002010B500220F
:101208001346914201DC184610BD845C63400824F3
:1012180013F0800F4FEA430318BF83F0D503013C56
:10122800DBB2F5D10132ECE7F0B5114C114B246873
:10123800B3F8687993F86A19B3F86C69B3F86E591A
:1012480093F8702914F0040F0AD193F878393BB950
:10125800012A0BD0022A03D114F0080F08BF01217C
:10126800078081708680C5800272F0BD1146F7E75D
:1012780000000010C015002007B532238DF800309B
:101288000368CDF801308388ADF80530034B684614
:10129800D3F8A839984703B05DF804FBC0150020BF
:1012A800074B586810F0800009D09A68920705D457
:1012B800186880F00800C0F3C0007047012070472C
:1012C8000000001007B510238DF80030054BADF86D
:1012D8000100CDF80310D3F8A8396846984703B041
:1012E8005DF804FBC01500200C4AD2F8C03910B5CF
:1012F800198100219981D2F8B819596019684C1CD4
:101308001C600870D2F8C039D2F8B8294FF6F671C7
:1013180099811968C3E9002110BD00BFC0150020DC
:101328000A88504080EA0010C0B2030983EA1223F9
:1013380043EA002383EAC00008807047064B93F80D
:10134800D729012A03D1054AC3F8042A7047022A7B
:101358000CBF034A034AF7E7C01500201E0000200F
:101368002800002032000020054991F80B2A0023AC
:10137800042A036028BF042201F5216134F05EBD10
:10138800C015002010B4074991F80B2A00240480E6
:10139800022A28BF022201F521615DF8044B34F0CE
:1013A8004DBD00BFC0150020124A90F90C3070B531
:1013B8000C46142101FB03230546DE6B83689A075C
:1013C80003D4006930F056F900BFD4E9012321683D
:1013D800304630F069FAD4E90423E168304630F049
:1013E80063FAAB689B0703D400BF286930F047F95C
:1013F800012070BD00000020104B70B51E4693F808
:10140800182B002AFBD104464518AC4201D1002014
:1014180070BDD6F8443814F8011BF2180133C3F331
:101428000A0382F8191BC6F84438FFF7CBF90028DD
:10143800EBD1012030F05FF8F7E700BFC0150020BE
:1014480010B590F84810002380F8483069B10A4C6C
:10145800626B62B1626B052A0BD1084C3430D4F848
:101468002432FFF7C9FFD4F82432012010BD1046FA
:10147800FCE71846FAE700BFC0150020B826002090
:10148800002280F84920DBE790F84820531C0244EA
:10149800DBB280F8483082F8341090F849200AB15D
:1014A800132B00D9CCE7704738B50D46FFF739F94B
:1014B80050B1064C002AD4F8243205DD11462846DE
:1014C800FFF79AFFD4F8243238BD00BFB8260020B1
:1014D800F8B5134C0746D4F8280203791E3B012BB4
:1014E80002D9002130F053F80E4E0025BD42D4F841
:1014F80028020FDB002130F04AF8D4F82432C4F86F
:1015080050320023C4F85432B4F858320133A4F8E6
:101518005832F8BD16F8011B30F039F80135E5E707
:10152800B8260020E428002038B5154C94F8353941
:1015380094F834299A421CD004EBC303114AD3F817
:101548003819D3F83C090023984213DC8B780E4AEB
:101558005B0882F86C32C2F86802FFF7B9FF94F8AA
:10156800353906210133B3FBF1F201FB123384F85C
:10157800353938BDCD5C02F8015B0133E4E700BFC3
:10158800C0150020E4280020B8260020F0B5234A22
:10159800034687B0154614460027012095F806E053
:1015A800A3EB0E0605F1060C002EA3EB0705B8BF4A
:1015B8007642002DB8BF6D42AE4200F10100BCBFBB
:1015C8004FFA8EF7644610286546E7D10020157853
:1015D800BD420CD1668855888E1B4D1B002EB8BFA6
:1015E8007642002DB8BF6D42AE42C8BF14460130E6
:1015F800102802F10602EAD1627904922279039254
:101608006288029222780120CDE90012044A03215F
:1016180031F0F4FB204607B0F0BD00BFE8840308B2
:10162800E2E3030838B50C460B46134A04210920A7
:10163800013C31F0E3FBE3B2032B1BD80F4D95F9C6
:101648001630BBB1012B0E4B0E484FEAC4041C44A4
:101658004FF005010CBF94F86C3094F86E3085F8A3
:101668009030FFF7CBFD062185F891000548BDE8CD
:101678003840A9E538BD00BF1BE40308000000207E
:10168800E08403088C00002010B5044600222121C4
:10169800006830F027FAFC222021206830F022FA76
:1016A80040222421206830F01DFA0C2223212068D2
:1016B80030F018FA00222221206830F013FA0120B5
:1016C80010BD10B5242204464121006830F00AFA02
:1016D80080B120223021206830F004FA50B106226F
:1016E8003121206830F0FEF920B100223421206831
:1016F80030F0F8F905202FF0FEFE012010BD10B5DE
:10170800072204460A21006830F0ECF905202FF082
:10171800F2FE24224121206830F0E4F905202FF060
:10172800EAFEC0224221206830F0DCF905202FF0C3
:10173800E2FE012010BD10B5012204460B2100680D
:1017480030F0D0F920B11D220921206830F0CAF903
:1017580000F0010010BD10B50122044610210068F8
:1017680030F0C0F948B114202FF0C5FE2068A0223F
:101778001121BDE8104030F0B5B910BD10B5782280
:1017880004460021006830F0ADF905202FF0B3FEC3
:1017980020220121206830F0A5F905202FF0ABFEAA
:1017A80000220221206830F09DF964202FF0A3FE6A
:1017B800012010BD01224821006830F093B90122B0
:1017C8005821006830F08EB908B53122F42100683C
:1017D80030F088F9012008BD054B006893F8B4285B
:1017E8009201343202F0FC02F42130F07BB900BFE0
:1017F800C01500202E22F421006830F073B91FB5FF
:10180800044600230DF10702272100688DF80730F0
:1018180030F004F968B19DF8070010F0080008D00E
:10182800062302AA2821206830F028F918B9E08692
:10183800A06304B010BD9DF809209DF8083043EA64
:1018480002231BB2002BB8BF03339B109DF80B205B
:10185800E3869DF80A3043EA02231BB2002BB8BF87
:1018680003339B1023879DF80D209DF80C3043EA25
:1018780002231BB2002BB8BF03339B106387D8E742
:1018880013B5062304466A461121006830F0F6F8BD
:1018980018B9E086A06302B010BD9DF801209DF83C
:1018A800003043EA02231BB207EE103AB8EEC77ABB
:1018B800F7EE086A27EE267A9DF80320BDEEC77A70
:1018C80017EE103AE3869DF8023043EA02231BB272
:1018D80007EE103AB8EEC77A9DF8052027EE267A6B
:1018E800BDEEC77A17EE103A23879DF8043043EA15
:1018F80002231BB207EE903AF8EEE77A67EEA67A73
:10190800FDEEE77A17EE903A6387C4E713B5002334
:10191800C3868363044606236A460321006830F0C1
:10192800ADF8E0B19DF801209DF8003043EA0223AC
:1019380003EB43039DF80320E3869DF8023043EA56
:1019480002231BB25B4203EB430323879DF8052068
:101958009DF8043043EA022303EB4303638702B094
:1019680010BD30B5002585B00446C58685630DF1E8
:1019780007020621006830F051F800B39DF807000F
:1019880010F004001BD0062302AA2946206830F074
:1019980075F8A0B19DF809209DF8083043EA0223A4
:1019A800E3869DF80B209DF80A3043EA022323873B
:1019B8009DF80D209DF80C3043EA0223638705B09B
:1019C80030BD1FB500210446C18681630DF10702B1
:1019D800006830F023F800B39DF8070010F0080005
:1019E8001BD0062302AA0121206830F047F8A0B1D5
:1019F8009DF808209DF8093043EA0223E3869DF804
:101A08000A209DF80B3043EA022323879DF80C2017
:101A18009DF80D3043EA0223638704B010BD13B567
:101A2800044600680379022B0CBF432103210623D7
:101A38006A4630F023F818B9E086A06302B010BDFA
:101A48009DF800209DF8013043EA0223E3869DF8C3
:101A580002209DF8033043EA022363879DF804209F
:101A68009DF8053043EA02232387E7E730B50023D2
:101A780085B00446C38683630DF10702022100681E
:101A88002FF0CCFF18B90025284605B030BD9DF8C9
:101A98000730DB07F7D5062302AA032120682FF0B9
:101AA800EDFF0DF10702092120682FF0B7FF054669
:101AB8000028E8D09DF8073013F00C0FE3D19DF80B
:101AC80009209DF80830206843EA0223C3EB8333DA
:101AD8009B009DF80B20E3869DF80A3043EA022319
:101AE8009B009DF80D2023879DF80C3043EA0223C4
:101AF800C3EB83339B00638701220A212FF0F2FF97
:101B0800C2E713B5002204460A2100682FF0EAFF55
:101B180014202FF0F0FC0F220A2120682FF0E2FF9A
:101B28000A202FF0E8FC032301AA102120682FF0D7
:101B3800A5FF0A202FF0DFFC00220A2120682FF0E1
:101B4800D1FF0A202FF0D7FC0DF1030202212068F3
:101B58002FF064FF0DF10302092120682FF05EFFCA
:101B680001220A2120682FF0BDFF012002B010BD1C
:101B780037B504466A46022100682FF04FFF18B9AE
:101B88000025284603B030BD9DF80030DA07F7D5A8
:101B980007236A46032120682FF070FF05460028B6
:101BA800EED011220A2120682FF09CFF9DF8063004
:101BB8001B07E5D40B4A6846B2F96E12FEF7ACFE75
:101BC8004042B2F97012E0860DF10200FEF7A4FE61
:101BD8002087B2F9721201A8FEF79EFE4042608784
:101BE800CFE700BFB826002013B5002204460A211B
:101BF80000682FF077FF14202FF07DFC0F220A21B8
:101C080020682FF06FFF0A202FF075FC01AA03232C
:101C1800102120682FF032FF0A202FF06CFC9DF86D
:101C28000420154B20688032A3F86E229DF8052009
:101C38008032A3F870229DF806208032A3F8722221
:101C48000A2100222FF04EFF0A202FF054FC0DF13C
:101C58000302022120682FF0E1FE0DF103020921A1
:101C680020682FF0DBFE11220A2120682FF03AFFAE
:101C7800012002B010BD00BFB826002007B503231D
:101C880001AA00212FF0FAFE9DF805309DF8040006
:101C98001B0243EA00439DF80600184303B05DF8B1
:101CA80004FB08B50068FFF7E9FF024BC3F86C08AE
:101CB800012008BDC015002008B50068FFF7DEFF49
:101CC800024BC3F85808012008BD00BFC01500200A
:101CD80037B50623F7216A460068164C2FF0CEFE6A
:101CE8001549E8B19DF801209DF800309DF8035092
:101CF800120142EA03329DF8023042EA13129DF8BB
:101D08000430C1F890281B0143EA05339DF80550BB
:101D180043EA1513C4E99D23C1F8703803B030BDF8
:101D2800D4F87432C1F89038D4F87832C1F87038E1
:101D3800F4E700BFB8260020C015002007B503232C
:101D480001AAF62100682FF099FE88B19DF80530A8
:101D58009DF8042008491B0243EA02439DF8062027
:101D68001343B1F9B428C2F10802D340C1F8B83816
:101D780003B05DF804FB00BFC015002007B50223BF
:101D880001AAF62100682FF079FE40B19DF80420E1
:101D98009DF8053043EA0223024AA2F8943803B0BA
:101DA8005DF804FBC01500202DE9F347038A8689F6
:101DB80005460C461E404FF0004901F14C0701F161
:101DC800340816B902B0BDE8F087B6FA86F329FAE6
:101DD80003F2D24391B2298216401B3B002C40D01B
:101DE800042BEED8DFE803F039342E280300E3682B
:101DF800D5F82CA02BB19B681BB11FFA8AF1201DC6
:101E08009847636A33B19B6823B11FFA8AF104F1DA
:101E18001C009847E36B2BB19B681BB11FFA8AF132
:101E280040469847636D002BCBD09B68002BC8D0E9
:101E38001FFA8AF1384603E0E368696B5B68201D86
:101E48009847BEE7636AA96B5B6804F11C00F7E773
:101E5800E36BE96B5B684046F2E7636D296C5B688E
:101E6800E8E7042B06D8DFE803F00D0B09070300A9
:101E7800EB6A0193019BA4E76B6BFAE7AB6BF8E79E
:101E8800EB6BF6E72B6CF4E710B500680C4631F005
:101E98009BF8837863B1827AC37A43EA02231BB240
:101EA800222293FBF2F303F26D132380012010BD6D
:101EB8001846FCE710B50446006831F085F88378C9
:101EC80083B10279437943EA0223E3818279C379B2
:101ED80043EA02232382027A437A43EA0223638293
:101EE800012010BD1846FCE770B506680546304667
:101EF80031F06AF80E230446021D3B2130462FF0CC
:101F0800BDFDA07070B1227B637B43EA02232B8462
:101F1800A27BE37B43EA02236B84227C637C43EA53
:101F28000223AB8470BD03682DE9F7430546586961
:101F380098B140F615030021C380017231F09CFF6F
:101F48003B4BAB612B685C6920462FF016FC0028E0
:101F580006DA2B68586900285FD103B0BDE8F08322
:101F6800DFF8D880334F08EB000307EB800093F8C5
:101F7800886005F11803C0F87C3220462FF007FC72
:101F8800814620462FF0F9FBC2B202F0030002F0AE
:101F9800FC0202F1804303F59C3381009A680F200C
:101FA800884022EA00029A609A685FFA89F08840BD
:101FB8001043986024B120462FF0DFFB01248440B1
:101FC8001D4B5C611968E243114019605968114062
:101FD8005960196821431960996811409960D96856
:101FE8000A40DA60986820439860BB1993F8BC22CD
:101FF800F02AAED9B044F02283F8BC2298F8983081
:102008008DF8043003238DF8053001A84FF4807350
:10201800ADF8063031F090FC9BE72FF0AEFB0123C2
:1020280013FA00F01FBF044A13680343136094E7D0
:10203800830F0008B8260020003C0140E084030814
:10204800F7B50468016B514EB6FBF1F1054689B24C
:1020580090F82D00FFF79AFA4388B6FBF3F6074687
:10206800AE632846FFF75FFF002120462FF002FEEF
:1020780080226B2120462FF035FD96202FF03BFA69
:102088000322682120462FF02DFD96202FF033FAE9
:1020980003226B2120462FF025FD0F2000212FF071
:1020A80017FA10226A2120462FF01CFD0F2000216C
:1020B8002FF00EFA00226C2120462FF013FD0F207E
:1020C80000212FF005FA7A79192120462FF00AFD10
:1020D8000F2000212FF0FCF918221B2120462FF099
:1020E80001FD0F2000212FF0F3F918221C212046B2
:1020F8002FF0F8FC0F2000212FF0EAF910223721E9
:1021080020462FF0EFFC0F2000212FF0E1F90122EB
:10211800382120462FF0E6FC0F2000212FF0D8F9B7
:102128003A791A2120462FF0DDFC012000212FF0FA
:10213800CFF9032120462FF09DFD06236A4643214F
:1021480028682FF09BFCA0B19DF800209DF8013075
:1021580043EA02232B849DF802209DF8033043EACA
:1021680002236B849DF804209DF8053043EA02237E
:10217800AB8495F92230013306D195F9203001332B
:1021880002D106202FF0C0FA03B0F0BD40420F0084
:10219800F8B5016B0468354EB6FBF1F1054689B216
:1021A80090F82D00FFF7F2F94388B6FBF3F60746DF
:1021B800AE632846FFF7B7FE204600212FF05AFDF0
:1021C80080226B2120462FF08DFC64202FF093F99C
:1021D8000722682120462FF085FC64202FF08BF918
:1021E80000226B2120462FF07DFC64202FF083F91C
:1021F80001226B2120462FF075FC0F202FF07BF970
:1022080018221B2120462FF06DFC0F202FF073F9A8
:1022180018221C2120462FF065FC0F202FF06BF9A7
:102228003A791A2120462FF05DFC0F202FF063F930
:102238007A79192120462FF055FC64202FF05BF99C
:102248001222372120462FF04DFC0F202FF053F992
:102258003821012220462FF045FC0F202FF04BF9A2
:1022680020460321BDE8F8402FF004BD40420F008E
:10227800F8B5284C2546D4F820092FF085F9002810
:1022880047D094F81C390BB1002042E0D4F820095B
:102298002FF074F9D4F818393BB90F28EBD1012382
:1022A800C4F8183984F80809E5E70F2B9FBF5A1CB2
:1022B8001B19C4F8182983F80809D5F81839102B00
:1022C800D9D195F808390F2B15D195F8093995F812
:1022D800F9289A420FD195F8172962B90E4995F84D
:1022E8001669084611F8017B01323B440C2ADBB21F
:1022F800F8D19E4205D0002385F81C39C5F8183955
:10230800B9E7064933F05EFF0028F4D0012085F8CC
:102318001C09F8BDC0150020CA1E0020BA1E0020E6
:1023280038B5174C0F2384F8F83884F8F90804F600
:10233800FA02F9B10B68C4F8FA384B6853608B6835
:102348009360104A002312F8011B013308440C2B38
:10235800C0B2F8D1002584F8060910220A49D4F839
:10236800200984F807592FF015F984F81C59C4F886
:10237800185938BDC4F8FA1851609160E1E700BFF8
:10238800C0150020BA1E0020B81E00207FB5924C50
:10239800D4F8C832B3F5857F75D00BDCC3B3F82BFE
:1023A80048D0D4F8C832002BBCBF0023C4E9B233EC
:1023B80004B070BDB3F5887F00F0BB80B3F58F7FA4
:1023C800EFD1864D95F81C39002B00F0E6800021EE
:1023D800B5F80A39C5F8C018D5F8E418B5F80C29C5
:1023E800C5F8F0388B42C5F8F42840F0EE80D5F8EF
:1023F800E8389A4205D0D5F8C43843F00203C5F846
:10240800C438764B93F8BC38002B00F0A5802DE03B
:10241800724A82F8BC3800217220FFF781FFD4F895
:102428002432C4F8D0320026FA23C4E9B563F8236D
:10243800C4F8C832694D95F81C39002B40D0B5F85E
:102448000A39C5F8C838B5F80C39C5F8CC380023AE
:10245800C5F8D038B5F80E39C5F8D438012385F851
:10246800BC380023C5F8C038C5F8C438D4F82432BD
:10247800C4F8D03200254FF47A73C4E9B5534FF449
:102488008573C4F8C832554ED6F8C45875BBD4F80D
:10249800D022D4F824329B1AD4F8D822934280DD73
:1024A80029467620FFF73CFFD4F82432C4E9B43536
:1024B800FA23C4F8D8324FF48F73C4F8C83280E7CF
:1024C800FFF7D6FE48B9D4F8D022D4F824329B1AA4
:1024D800D4F8D82293427FF764AF95F81C39002BC3
:1024E800ADD195F8BC38002BBBD194E715F00103AA
:1024F80038D00025B6F8E438ADF8043001A94620F4
:10250800CDF80650CDF80A50ADF80E50FFF708FF89
:10251800D6F8C43823F00103C6F8C438D4F82432F6
:10252800C4E9B435FA23C4F8D8324FF48873C4F830
:10253800C832D4F8D022D4F824329B1AD4F8D8223E
:1025480093427FF72EAF254BD3F8C028022A7FF796
:1025580058AF002283F8BC284FF0FF330022C4E9AB
:10256800B2321EE715F0020514D0B6F8E828CDF807
:10257800063001A95020CDF80A30ADF80E30ADF87C
:102588000420FFF7CDFED6F8C43823F00203C6F8BE
:10259800C438D8E7C6F8C458D5E7FFF769FE48B984
:1025A800D4F8D022D4F824329B1AD4F8D8229342F3
:1025B8007FF7F7AE95F81C39002B7FF408AFD5F8F4
:1025C800C0380133C5F8C038BDE7D5F8C43843F082
:1025D8000103C5F8C4380AE7B8260020C015002052
:1025E8002DE9F04F6C4E96F8E0328DB08046894662
:1025F800002B40D1D6F8E452002D3CD096F8E8B232
:10260800DFF898A106AF96F8E832032B00F2848031
:10261800DFE803F002347D9B394628460FF088FF37
:10262800044680B109A8FEF7FFFD9DF826109DF825
:1026380018308B4270D0AB798B4204D32B681B695E
:102648000BB12846984796F8E832013303F00303A4
:1026580086F8E832002C40F09C809B45D3D14F4B44
:102668001B685B0700D534B12B68196819B142465D
:102678004B46284688470DB0BDE8F08F03A8FEF703
:10268800D3FDDAF800309DF80C4003F0040334B3AE
:10269800002B41D13A460DF10B0128460FF04FFFB0
:1026A8000446002838D009A8FEF7BEFD9DF824107E
:1026B8009DF80B309DF825208B4203D19DF81830EA
:1026C800934229D02B798B42BDD36B799342BAD3ED
:1026D8002B68DB68002BB6D028469847B3E7002B59
:1026E800B1D1394628460FF015FF0446A0B109A814
:1026F800FEF79AFDBDF82810BDF818308B420BD0B4
:102708002B689B69002B9ED0284698479BE7DAF8F0
:10271800001011F0040301D0002494E709A9284609
:1027280001930FF0FEFE0028F6D096F8E942002C3F
:10273800F2D09DF82420019B86F8E932002AEBD0DC
:10274800194628460FF002FF7DE73846FEF76CFD74
:1027580097E8070009AB03C31A809DF818309BB1AE
:102768000DF1250209A928460FF0E9FE0DF1260111
:1027780028460FF0DDFE0A2209A9384633F022FD6B
:10278800041C18BF01245EE70AA928460FF0C2FE00
:10279800ECE7012463E700BFB82600200000001022
:1027A800022803D0431E584258417047054B93F8FE
:1027B800CC3913B110201AF0A3BD034B1868C0F32D
:1027C80080007047C015002000000010CA680B6820
:1027D80010B513430468114A224013434A6913434E
:1027E8008A691343CA6913430A6A13434A6A13433B
:1027F8004A6B13438A6B134343F400330360D1E9F4
:102808000B344269234322F00702134343610B69E7
:1028180043604B6883608B68C36010BD3F801CF0C9
:1028280082B000230193019B43F020030193019B95
:1028380060F38A130193084BD3F8F822019B1361C4
:10284800064B11690191013B02D001998906F8D420
:10285800002002B0704700BFB8260020410D0300D9
:1028680010B58021044630F083FD2046002130F069
:102878007FFD2046BDE8104030F0C0BD420900F0A1
:102888001F03032A4FF0010000FA03F008D0042ABE
:102898000BD0022A0DD1074B5A6C1043586470476D
:1028A800044B1A6C104318647047024B1A6B1043A0
:1028B80018637047003802404268034B9A420CBFC5
:1028C80095209620DAE700BF006002402DE9F04726
:1028D80090B0DDE9184A0E460746904600213A2294
:1028E8000DF1060099461A9D33F094FC344B02937F
:1028F8008DF80460CDF834A0002E55D0022E55D0A6
:10290800032E55D0042E55D103232E4A02EB430340
:1029180093F8A0308DF805302B4B0394D3F824227C
:10292800069714440122CDE904458DF831201D464F
:10293800B8F1000F06D04A46414607A833F07EFAA0
:102948008DF8309095F822E90023BEF1010F0E931F
:102958001FD80DF1040ABAE80F0095F821C93C24E4
:1029680004FB0C5404F624140FC4BAE80F000FC477
:10297800BAE80F000FC49AE80700BCFA8CFC0EF105
:10298800010E4FEA5C1C84E8070085F822E985F807
:1029980021C93B6883B14B4642463146384610B0A0
:1029A800BDE8F04714F013BF3346AEE70123ACE7A8
:1029B8000223AAE70023ADE710B0BDE8F08700BF07
:1029C800982F0020E0840308B826002013B50123BF
:1029D8008DF805304FF48073ADF8063003681B6836
:1029E8005B79044623B101A88DF8043030F0CAFFA2
:1029F80023681B689B7923B101A88DF8043030F057
:102A0800C1FF02B010BD031EB8BF2D2210B5B8BF5C
:102A180058420C46AEBF0A2201F8012B0A222FF0B9
:102A28001DFC00230370204610BD2DE9F04F89B02E
:102A380080468B4615461C4600270DF11409297857
:102A480069B3252907D0B8F1FF3F01D04046D847E0
:102A580001350137F3E76A782D2A05BFAA78EE1CFD
:102A6800AE1C012518BF0025302A06BF16F8012B19
:102A7800012300230293A2F13003092B4FF0000A2F
:102A880016D96C2A40F09B80354615F8012B642A2C
:102A98004BD026D8252A7ED016D8002ACFD1384642
:102AA80009B0BDE8F08F0A2316F8012B03FB0A0AC8
:102AB800104603922FF0E6FB0A28039AF3D9002D5B
:102AC800DFD0CAF1000ADCE7582A19D0632AB6D148
:102AD800B8F1FF3FBDD054F8041BC9B24046D847EF
:102AE800B7E7732A48D007D8662A5BD06E2AA6D1E2
:102AF80054F8043B1F60A2E7752A08D0782A9ED1B3
:102B0800A2F1580042424B464241102102E04B4696
:102B180000220A2154F8040B15E04B4600220A2132
:102B280054F8040B2FF0E0FB20E054F8040B0028C5
:102B3800BFBF2D238DF8143040420DF11503A8BFF7
:102B48004B4600220A212FF0CFFB10E054F8040B6B
:102B58000028BFBF2D238DF8143040420DF1150316
:102B6800A8BF4B4600220A212FF0BEFB3546CDF800
:102B78000490029B04E0354654F8043B019300237B
:102B880000935A4653464FF0FF3140462FF0BEFDA2
:102B9800074454E73546B8F1FF3F3FF45AAF2521C3
:102BA8009CE73546073424F00704F4E8020132F0C4
:102BB8002FFB00EE100A48462FF0ECFAD7E7642AFC
:102BC800C4D00DD8252AE5D004D8002A3FF467AF31
:102BD800354634E7582A10D0632AF9D1354677E7C5
:102BE800732AC8D005D8662ADBD06E2AF0D13546BC
:102BF8007EE7752A91D0782AEAD1A2F158014A4293
:102C08004A414B4610218BE710B5084A002311466C
:102C18001479844203D1142000FB031010BD013342
:102C28000D2B02F11402F3D10020F7E78885030881
:102C3800054BB3F8A02AD3F89C3A59690A4214BF45
:102C48005A831A83704700BFB826002080F001011C
:102C580001482EF043BD00BF5431002070B50B4B26
:102C68000B4CA34202D30022104670BD5A7982420F
:102C78000AD11A7A8A4207D11A681E791579AE42A2
:102C880002D11568AB42EFD00C33EAE7E024040820
:102C98003C26040873B50C4E052400250A202EF0A6
:102CA8002AFC0DF107020021D6F8A00C8DF8075078
:102CB8002EF0B4FE18B19DF80730482B02D0013C25
:102CC800ECD1204602B070BDB8260020642828BF89
:102CD800642000EB800070B5450064240026B5FB35
:102CE800F4F4E4B2F3B29C4212D80A2C0BD01420AC
:102CF800B5FBF0F0C4EB84156638C4EB85052844B1
:102D0800C0B20FF06FFD0134E4B2092C05D970BDD3
:102D18009F200FF067FD0136E4E79A20F1E7F0B550
:102D2800174B93F8E82C03F6EC4102EB420401EB55
:102D3800840103F62C5600240C27042A04D90CB16C
:102D480083F8E82C0020F0BD0C680132E507D2B208
:102D58000DD520420BD091F904C0002407FB04F5DF
:102D680015F906E0E64505D00134052CF6D10C31FD
:102D78000124E2E783F8E82C2B44D3F8300DE2E78E
:102D8800B8260020024B002283F8E82CC7E700BFD2
:102D9800B826002030B5264B10201D78A5F130014B
:102DA80009291A4603F1010329D9214C0021131BD3
:102DB800022B27DC0023A2422ED82E2D36D1501C00
:102DC80004240022057802EB8202303D5200092DCE
:102DD80092B298BF521904F1FF349CBF013092B2ED
:102DE80014F0FF04EED164205043124A02FB0300A2
:102DF8000623B0FBF3F0104B03FB010001E00138A0
:102E0800CBD130BD01EB8101490014F8010B3039F9
:102E1800014401F0FF01CAE703EB83035B0014F8E8
:102E2800010B303B034403F0FF03C4E70022DAE759
:102E38002034002040420F008096980030B50023CF
:102E480051F8234052F82350641B40F823400133C3
:102E5800032BF5D130BD2DE9F04180468CB00846F2
:102E680015462FF058FB4FF47A72002306460F469A
:102E780032F02CFB3C2405FB0404394630464FF461
:102E88007A72002332F022FB002796B24FF47A734D
:102E9800C3FB04673B46324609A82FF0B7FA684BD4
:102EA80093F87A3D012B62D0022B00F08E803246D7
:102EB8003B4609A82FF0AAFA3C2195FBF1F31AB278
:102EC80001FB13531BB2BDF82410002BB8BF5B42A3
:102ED800B1F5FA6F1BD39DF8261001390B2916D8C6
:102EE8009DF8271001391E2911D89DF82810172997
:102EF8000DD89DF829103B2909D89DF82A103B299F
:102F080005D8BDF82C10B1F57A7FC0F09780002065
:102F18004C490991ADF828008DF82A00ADF82C002D
:102F2800044615F13B0F9DF828009DF829609DF88F
:102F38002A70BDF82CC09DF827100793B4BF2D2523
:102F48002B25002AB8BF5242CDE90552CDE901062A
:102F58000091CDE9037C9DF82630BDF824203A493C
:102F680040462FF09EFB20460CB0BDE8F0819DF84E
:102F78002640E31E072B9AD8231F052B0DD921467F
:102F8800BDF824002FF0F0F99DF8273098420DD0B5
:102F9800E11E18BF0121002989D02C4B3C35F618B9
:102FA8004FF000032DB243EB070780E7032C03D152
:102FB8009DF828100031ECE70A2C7FF478AF9DF8D3
:102FC8002810B1FA81F14909E5E79DF82640E31E8A
:102FD800082B3FF66CAF231F062BDED92146BDF820
:102FE80024002FF0C1F9032C12D10E280ADC9DF819
:102FF8002730984208D19DF82810012994BF002154
:103008000121C8E70738F0E7B4BF01210021C2E772
:103018000B2C7FF44CAF07280ADC9DF82730984228
:1030280008D19DF8281001298CBF00210121B2E7A1
:103038000738F0E7CCBF01210021ACE7012470E795
:10304800B82600200000010137E4030880EE3600AE
:1030580008B5074826F034F8064828F015FB064B53
:1030680093F87C2D12B1012283F87D2D08BD00BF95
:1030780065E4030871E40308B82600202DE9F04F41
:1030880041F27C63364C374ADFF8E4B08846E15CAD
:10309800354B002908BF1A4641F27D6387B0E156D7
:1030A8008146324826F0DAFB04F558644646002784
:1030B800B8F1000F52D096F800A094F85C03F168BC
:1030C800B6F910C096F816E05045D6E9013243D15A
:1030D800D4F8600398423FD1D4F8640390423BD1BE
:1030E800D4F86803884237D1B4F96C03604533D10A
:1030F80094F87253A5EB0E0045424541CDE90221F3
:10310800CDE900A3CDE904CE3B465A4629464846B8
:1031180026F07CFF94F872330593B4F96C3304936A
:10312800D4F868330393D4F864330293D4F8603343
:10313800019394F85C3300935A463B462946484627
:10314800013726F079FF3C2F04F1180406F1180620
:10315800AED107B0BDE8F08F0025CFE74546D9E7E7
:10316800B82600209D0204087EE4030881E40308D1
:1031780090E4030870B541F26803204DEB5C2DED37
:10318800028B04460E4693B341F27003EB5803607A
:1031980041F27403EB58436041F27803EB588360C3
:1031A80005F5586393EDBB8ADFED158A96ED000AA5
:1031B80080EE280A33F078F923681844206028EE56
:1031C800288A96ED010A80EE080A33F06DF96368E3
:1031D8001844606096ED020A33F066F9BDEC028B84
:1031E800A368184441F26803A060E85C70BDC0E9B8
:1031F80000338360B7EE008AD6E700BFB826002008
:103208002C7D8E3F70B541F268031D4CE55C95B38B
:1032180041F270060B68A659DFED1A6A9B1B07EE90
:10322800103A41F274064B68A659B8EEC77A9B1B50
:1032380027EE267A07EE903A04F55863012A80EDC6
:10324800007A93EDBB7A8B6818BF41F27802F8EEEA
:10325800E77A27EE267A18BFA25867EE877A18BF52
:103268009B1AC0ED017A07EE903AF8EEE77AC0EDC6
:10327800027A284670BD0023036043608360F8E744
:10328800B82600202C7D8E3FF0B505460C4689B047
:1032980014220021204632F0BDFF2A681D4E04A9E1
:1032A800C2F3855000230D4640FA03F7FF0744BFD9
:1032B8009F5D01F8017B0133062BF5D116480023E9
:1032C8000B70C2F303210144C2F3053691F8B21121
:1032D8008DF8181000F2B9100DF1190146FA03F72C
:1032E800FF0744BF1F5C01F8017B0133062BF5D1B2
:1032F80000230B70C2F38343029306ABCDE900535E
:10330800064902F00F032046C2F303122FF0C9F951
:1033180009B0F0BD8C860308E0840308A8E403081C
:103328001FB5324901A891F82120643113F085FCBA
:103338000398019A80EAE073A3EBE07307EE903AF2
:10334800F8EEE77AF7EE086AC7EEA65A82EAE27361
:10335800A3EBE27307EE103AB8EEC77A029BF4EEDD
:10336800C75AF1EE10FA13DD83EAE371A1EBE371BA
:1033780006EE101AB8EEC66AF4EEC65AF1EE10FA66
:1033880006DD0028CCBF0020012005B05DF804FB55
:10339800C7EE265A83EAE371A1EBE37106EE101A31
:1033A800B8EEC66AF4EEC65AF1EE10FA09DDF4EE8C
:1033B800E57AF1EE10FA04D5002ACCBF02200320EA
:1033C800E3E7C6EE265AB4EEE57AF1EE10FA09D52F
:1033D800F4EEE57AF1EE10FA04D5002BCCBF042008
:1033E8000520D2E74FF0FF30CFE700BF0000001004
:1033F80030B52A4A92F8A8358B424DD192F8A915D2
:10340800DFED276AD2F8CC5502EB4104013101F017
:103418000F0182F8A91592F8E815B4F8AA35A4F8AE
:10342800AA0507EE101AB8EEC77A92F8E91527EE42
:10343800267AC31AFDEEC77A2B4417EE900A07EED8
:10344800901AF8EEE77AC2F8CC3567EEA67A1B092F
:10345800FDEEE77AA2F8D03517EE901A88420FDD14
:103468009BB29942D4BF5B1A00239842A6BFC31AE5
:103478009BB20023A2F8D035034617EE900A1946EE
:10348800B2F8D0351B1AC3EB8323091A93FBF1F169
:1034980081F30A01A2F8D01530BD00BFB037002073
:1034A80014AE23412DE9F04FEB4D2DED028B95F82D
:1034B800FC35172B83B018D12DF0BAFF0746E74C1F
:1034C80095F8FC8594F80932B8F1170F08BFC5F8CC
:1034D8000036062B00F29982DFE813F00900C700D6
:1034E800DC0032019301A70237030027E7E7B4F8AD
:1034F8000CA2DB48D4F810224FEA5A0100EB8A09E3
:103508008B004FEADA0A00EB030CCE464B44A0F5D9
:10351800DA7602EB0A1A9346D3450EF1100E0CF137
:10352800100C03F1100306F1100613D18EB23146C8
:10353800FCF744FED4F8102231464846FCF73EFE1C
:10354800B8F1170F40F061822DF072FFC01BC5F86B
:1035580004065AE21EED040A96ED696A5EED030A56
:1035680096ED6A4A53ED046A53ED034A1EED027A5A
:103578001EED015A5CED032A1CED023A5CED013A9E
:1035880053ED027A53ED015A96ED6B1A1CED042A9D
:10359800D6ED6C1A36EE008A36EE406A86ED698AF8
:1035A80034EE208A34EE604A86ED6A8A31EE078A64
:1035B8000BF1100B86ED6B8A31EE858A31EEC55A18
:1035C80072EE261A86ED6C8A4CED041A72EEA41A75
:1035D80074EEE24A4CED031A73EE271A77EEC37ABB
:1035E8004CED021A73EEA51A75EEE35A4CED011A6A
:1035F8005BED033A1BED043A64EE232A76EEC26AC9
:10360800E6EE032A23EEC66A4EED042AA4EE036A08
:1036180031EE477A0EED036A23EE646AA6EEA36ADA
:1036280066EE836A03ED046AE4EEA36A43ED036A77
:103638001BED026A5BED016A65EE264AE7EE064A73
:1036480026EEC77A4EED024AA5EE067A0EED017A0D
:1036580026EE657AA7EEA67A67EE867A03ED027AF9
:10366800E5EEA67A43ED017A56E7D4F81422B4F8C9
:1036780018127B4831F0E4F895F8FC35172B04D183
:103688002DF0D6FEC01BC5F8040694F809320133A4
:1036980084F80932D4ED8A7AD4ED895AB4F80C2228
:1036A8006F4BD4F8200277EEA77AB0EE006AF0EEFE
:1036B800676AE5EE866A013A03EBC201D5EE867ABF
:1036C80010300839B6EE007A66EE876A67EE877AB8
:1036D800C4EDA96AC4EDAA7AA3F5DA73F0EE476AD5
:1036E80091ED034A91ED027AD3ED6F3AD3ED707AFA
:1036F80050ED025A50ED014A37EE635A34EE276A0C
:1037080037EE237A77EEC47AA5EE857A013A00F18E
:103718000800E4EE857AA1F1080103F10803A4EE9C
:10372800867AE5EEC67A27EE267A67EEA67A83EDE4
:103738008D7AC3ED8E7AD3D195F8FC35172B01E736
:10374800484E4FF0000BB0464FF00409DA4696EDAC
:103758008E0AD6ED8D7A20EE000AA7EEA70AB5EEFE
:10376800C00AF1EE10FAC0F2838033F033F988ED25
:103778006D0A96ED900AD6ED8F7A20EE000AA7EE34
:10378800A70AB5EEC00AF1EE10FA74DB33F022F99D
:1037980088ED6E0A96ED920AD6ED917A20EE000A2F
:1037A800A7EEA70AB5EEC00AF1EE10FA66DB33F011
:1037B80011F988ED6F0A96ED940AD6ED937A20EE0A
:1037C800000AA7EEA70AB5EEC00AF1EE10FA58DB18
:1037D80033F000F988ED700AB9F1010906F1200605
:1037E80008F11008B3D195F8FC35172B04D12DF04A
:1037F8001FFEC01BC5F8080694F80932013384F887
:10380800093294F89C23174E9FED187A002302F191
:103818006D0106EB81019C4618460F2A34DD04EB46
:10382800830292ED897A67EE077A5A1C67EE877AE7
:1038380007EE102AB8EEC77A03F16E0227EE277A50
:10384800194606EB820218460F2834D106EB83038B
:103858000CF1010263E000BFB03700200000001047
:1038680024020010700000100000C8420000000090
:10387800C8F8B4B17DE7C8F8B8A18BE7C8F8BCA10F
:1038880099E7C8F8C0A1A7E7F1EC017A40B951ED72
:10389800026AF4EEE76AF1EE10FA0AD55FFA82FCE2
:1038A800B4EEE77AF1EE10FA44BFD3B2B0EE677A1D
:1038B80001200132B1E712ED016AD2ED006AB4EEDF
:1038C800E66AF1EE10FA00F1010002F10402BDDD32
:1038D80066EE066A66EE866A06EE100AB8EEC66AF4
:1038E80077EEA67AA6EE867AAEE793ED6D6A043B8C
:1038F800D3ED6D6AB4EEE66AF1EE10FA01F1FF302D
:103908000FDD66EE066A013166EE866A06EE101A6B
:10391800B8EEC66A77EEA67AA6EE867A0146914296
:10392800E3DCF5EEC07AF1EE10FA94F80A825ADD7B
:10393800C7EE278AF7EE007A78EEE78A94EDE88AF0
:1039480028EE888AB4F8A40331F02EF9CDE90001F5
:1039580018EE100A31F04AF99DED001B41EC100BEE
:1039680032F0F2FC51EC100B31F052FC242303FB33
:10397800086600EE100A06F52D702CF0CAFE94F8C1
:103988000A1201F5C87304EB4303BCEEC00AB3F88E
:103998007020A3F8762010EE102A92B2A3F87020B7
:1039A800B4F8A8339A4238BF1A46A4F8A82359B9DC
:1039B80095F8FC35162B21D11FED550A28EE800A03
:1039C80032F072FDC5F80C0694F80A32012B7FF428
:1039D800B3AE95F8FC35182B7FF4AEAEB4F892333D
:1039E800C5F8043611E004EB48035FED608AB3F8CC
:1039F800963308EE103AB8EE488AA3E7182B7FF4FE
:103A08009BAEB4F89033C5F8003694F80932072213
:103A18000133B3FBF2F2C2EBC2029B1A84F80932FB
:103A280003B0BDEC028BBDE8F08F94F80A6206F58E
:103A3800C87304EB4303B3F87010B3F876308B42C5
:103A48006AD0B8F1180F08BF05EB8603DFF850817C
:103A580008BFC3F8141606EBC60608EB860694F8EA
:103A68002C3498ED1B0AD6ED058A96ED068AD6F811
:103A78001CB0D6F820A0D4F81C2408F16C09002B3F
:103A880000F08B8007EE901A98ED217AF8EEE77A2D
:103A9800012367EE877A3046FCEEE77A17EE901A34
:103AA80089B22FF09CFA94F80A3298ED3D7AC6ED67
:103AB800058A03EBC30204EB430386ED068AB3F8D9
:103AC8009033C6F81CB007EE903AF8EEE77AC6F8DD
:103AD80020A067EE877A08F18806FCEEE77A06EB05
:103AE800820617EE901AD6ED058A96ED068AD6F864
:103AF8001CB0D6F820A099ED000AD4F81C240123A4
:103B080089B230462FF06BFAC6ED058A86ED068A33
:103B1800C6F81CB0C6F820A095F8FC35172B04D1C0
:103B28002DF086FCC01BC5F8040694F80A3203225F
:103B38000133B3FBF2F202EB42029B1A84F80A3219
:103B480094F80932013384F8093294F88430DFF8A4
:103B5800548094F80A02C3F12006063303EB4010A0
:103B6800F6B208F23449334608F5DA72494608EBEA
:103B78008000FCF791FD94F88430002B3FF4DCAD15
:103B880094F80A02B10001F5DA7208EBC010424459
:103B980049441830FCF780FDCEE50123B1E700BFAA
:103BA800AC0300107000001030B5194CD4ED017A48
:103BB80089B0F1EE677ACDED057AD4ED027A00236B
:103BC8000093F1EE677A0B680193CDED067A4B68A6
:103BD800D4ED037A02938B68039305462368049314
:103BE800F1EE677A6A4604A96846CDED077A18F0BF
:103BF80067FC69462246084618F062FC019B2B6068
:103C0800029B6B60039BAB60284609B030BD00BFC8
:103C18002405001038B502782DED088B30EE608A47
:103C2800D0ED01AA0446B0EE40AAF0EE419AB0EEFB
:103C3800619AB0EE42BA0D4668EE2AAA01F0010375
:103C48004AB1002B0CBFF0EE607AF0EE487A002201
:103C5800C0ED0B7A0270D4ED0B7A002B60D078EEB1
:103C6800677AF0EE480A87EEA90AC4ED0B0AD4ED8C
:103C7800090AD4ED038AF5EEC00AF1EE10FA05DD63
:103C8800B0EE691A04F118002FF051FAD4ED057A54
:103C980094ED0A7A2AEE27AA20EE280A7AEE877A85
:103CA80077EE807A77EE8A7AF4EEC97AF1EE10FA36
:103CB80008D4F4EECB7AF1EE10FAD4BFB0EE679ADE
:103CC800B0EE4B9AD4ED026A94ED046AC4ED0DAAE5
:103CD80028EE268AF0EE476AE9EE886A6B0779EEE5
:103CE800677A84ED0C7A67EE867A84ED0E0AE9EE3F
:103CF800A76A84ED0FAA84ED109AF0EE667A08D5CB
:103D0800F0EEE66AB0EEC77AF4EEC76AF1EE10FAA2
:103D180001D5C4ED0A7AB0EE490ABDEC088B38BD6E
:103D280070EEE77AF1EE677A87EEA90A9DE72DE94A
:103D3800F0412DED068B09EE100A07F077FAA44D35
:103D4800D0ED047A95EDB58A90ED037AD5EDB48A75
:103D5800A04F38EE678A78EEC78A28EE080AA8EEE0
:103D6800A80A32F037FEDFED9C7A9C4B97ED006A8B
:103D7800D3F80880B4EEE70AF1EE10FAC9BFDFED18
:103D8800987ADFED987AC7EE806AB0EEE87AC2BF1B
:103D9800F0EEC87A27EE267A67EEA67AB8EEC98AD8
:103DA800DFED916A28EE268ADFED906A68EE266AD2
:103DB800D8BFB0EE677A18F4006F18BF76EEA66A1F
:103DC800B1EE47AA36EE669AB4EECA9AF1EE10FA48
:103DD80000F1F280B4EE479AF1EE10FAC8BFB0EEE7
:103DE800479A36EE266AB4EEC6AAF1EE10FA08DC57
:103DF800B4EEC67AF1EE10FA54BFB0EE46AAB0EEB1
:103E080047AA7B4E96ED007A77EE668AF1EE679ABE
:103E1800F4EEE98AF1EE10FA00F1D180F4EE678A47
:103E2800F1EE10FAC8BFF0EE678A76EE876AF4EE14
:103E3800E69AF1EE10FA08DCF4EEE67AF1EE10FA02
:103E480054BFF0EE669AF0EE679A07F0EFF9D5EDF9
:103E5800B4AAD0ED030A6748B0EE4A2AF0EE491A30
:103E68000021B0EE481AB0EE6A0AFFF7D3FEB0EEB2
:103E7800409A07F0DBF995EDB5AAD0ED040A5E4843
:103E88000021B0EE692AF0EE681AB0EE481AB0EEDA
:103E98004A0AFFF7BFFE594B93F8524618F4805F61
:103EA80004EB84044FEA44043DD093F85E26D2B371
:103EB80007EE902ADFED526AB3F8622695EDB06AF4
:103EC800B8EE677AC7EE267A06EE902AB3F83C2653
:103ED800B8EE667A06EE902A36EE476AF8EE666A1B
:103EE80026EE276A76EEC76A86EE267ADFED456A01
:103EF80037EE267AB4EEE67AF1EE10FA62D4F4EEF2
:103F0800C77AF1EE10FA58BFF0EE477AB7EE007AAA
:103F180077EE877A93F8664629EE279A04EB8404AD
:103F280020EE270A6400D5EDAE7A95EDAD7A86EDE0
:103F3800000A60EE278A20EE070ADFED330A87EDD4
:103F4800009AA9EE270AE9EE478A2EF09FFDB0EE07
:103F5800408A2EF06FFEDFED2C0A28EE800A2EF044
:103F680095FDF2EE046A20EE260A9FED287AC0EE4F
:103F7800077A6242FDEEE77A17EE903A934224DB25
:103F8800A342A8BF234668EE266A2149C6EE877A6F
:103F980041F292600B52FDEEE77A17EE903A9A42A0
:103FA80003DC9C422246A8BF1A46BDEC068B41F2B0
:103FB8009463CA52BDE8F081B0EE4A9A11E7F0EE78
:103FC800698A32E7F0EE667AA0E71346DBE700BFBE
:103FD80038340020D03D0020CDCCCC3D000000106E
:103FE80000007544C23D2D44BD3786350080D44459
:103FF800D43D0020183500205C350020B037002063
:104008000000C842000000008F2A754435FA8E3C33
:10401800B826002010B588B0002300930B680193E0
:104028004B6802938B6814490393D1ED017A0B68AE
:104038000493F1EE677ACDED057AD1ED027AF1EECF
:10404800677ACDED067AD1ED037A0446F1EE677A08
:104058006A466846CDED077A18F032FA694604AA2E
:10406800084618F02DFA019B2360029B6360039BAE
:10407800A360204608B010BD2405001010B51E4CE2
:1040880094ED010AD4ED006A94ED027AD4ED037A36
:1040980020EE000AA6EEA60AA7EE070AA7EEA70AD0
:1040A80032F098FCDFED157AB4EEE70AF1EE10FA7B
:1040B80008D54FF07E53236000236360A360E3605C
:1040C8000D4810BD94ED007AC7EE007A94ED017AA0
:1040D800C4ED007AC7EE007A94ED027AC4ED017A55
:1040E800C7EE007A94ED037AC4ED027AC7EE007A3F
:1040F800C4ED037AE4E700BF24050010BD37863518
:1041080030B5ADF5815D87B0D0F8D0100DF581538D
:1041180000F10A021833039306924FF6FF730A441C
:10412800ADF8103007920023B0F8D6208DF8123081
:10413800ADF81430ADF82020ADF8243090F8D52033
:10414800019306AB04460AAD8DF8222002A901AA04
:10415800184602951BF0A2F940B1029B94F8D420AE
:1041680002A92046CDE9025313F024FA019800234E
:1041780063720DF5815D07B030BD2DE9F347294C19
:104188001646FE2284F8962694F8AA2784F89826DC
:10419800013284F8AA274FF6FF721F4684F8976603
:1041A80084F8990684F89A16ADF80620062504F2D4
:1041B8009768013DADB23DBBDFF87080BDF80630B1
:1041C80094F89756A4F894364FF6FF79A8F1080AA0
:1041D800013DADB24D451ED138461349FDF7A0F853
:1041E80094F89736B4F89426234406F1080083F827
:1041F8009C2694F89736B4F894262344120A83F838
:104208009D2602B0BDE8F0870DF1060118F8010BF4
:10421800FDF786F8CDE7514618F8010BFDF780F851
:10422800D6E700BFB0370020443E00204C3E0020B7
:1042380017B48DF805308DF804200A4BBDF804201A
:104248009DF81040A3F89C262F2283F89B2683F81C
:104258009E46032299238DF8064003B05DF8044B6F
:104268008BE700BFB0370020F8B5204C1D250F465E
:10427800064684F8D45713F0AFFD002013F038FD3C
:10428800082013F035FD0E2013F032FD284613F0F8
:104298002FFD042013F02CFD042013F029FD00202D
:1042A80013F026FD302013F023FD002013F020FD2D
:1042B800384613F01DFD002013F01AFD13F06CFDB5
:1042C80004F2D57013F07CFC234670B194F8D5271E
:1042D80052B994F8D627302A00D02AB993F8D727AC
:1042E80012B993F8D83733700120F8BDB0370020E1
:1042F800011D0023884201D11846704710F8012B90
:104308005340082213F0800F4FEA430318BF83F08D
:104318003103013ADBB2F5D1ECE7094A0023104634
:10432800117831B19178802903D1682202FB03000A
:1043380070470133102B02F16802F1D10020704759
:10434800983F00202DE9F743104B93F8E0420746C9
:104358008846C4B90E4DA14605F52576286858B19A
:104368002DF0F2F840B1CDF800902B464246394680
:10437800B62013F009FA0446DC35B542EED12046E2
:1043880003B0BDE8F0830024F9E700BFB826002099
:10439800184600200B4B062230B49A712422DA7199
:1043A8001A7200225A72084A03F10A0102F124041F
:1043B80052F8045B41F8045BA242F9D130BC18738F
:1043C80009F046BEA84800209F8603081349002329
:1043D800F0B51A460D461E460A278C1894F8684D03
:1043E8000CB91846F0BD2E2C06D101320028F8D0A1
:1043F8008C18044484F8686DAC187B4394F8684DB5
:10440800A4F1300CBCF1090F9CBF303B1B190E2ADC
:1044180001D80132E1E70023E3E700BFB826002016
:1044280010B50A4C04F5B45007F0D4FB41F28C6384
:10443800E358C01A2EF018FB0028B8BF404242F2D9
:1044480010739842D4BF0020012010BDB826002068
:104458002DE9F04FB64CD4F8F8325E6916F0010633
:104468008BB040F085825A699B691340019300F034
:104478007F82C3F30743180700930ED5D4F8FC32A4
:10448800DFF8B4929F69DB6904F53B7B1F403F0C62
:10449800DA46D846002F40F00581009B590711D510
:1044A800D4F8FC22A34F9369D26903EA02081FFAE1
:1044B80088F83E464FF0000AA7F53B7BB8F1000F9D
:1044C80040F040819DF80450A90741BF984BD3F8AC
:1044D800F83202225A61019B002B1BDA944B93F8A5
:1044E800F6223AB1D3F8F823136823F0030161F3F5
:1044F80007031360D4F8FC228E48536823F00103A5
:1045080053608D4BD3F8AC309847D4F8F8324FF05D
:1045180000425A61019BC3F3072632072FD50023B7
:104528008DF8173094F8FE338DF81730824B814898
:10453800D3F8A8309847D4F8F822D4F8FC324FF4CE
:1045480000619B68516194F8F622C2B1DB0716D569
:1045580094F80134012B12D19DF81730032B0ED19A
:10456800D4F8F8331A6842F001021A601A6842F067
:1045780003021A60714A136943F0060313612F0797
:104588000AD56B4F6C4B07F53B70D3F8A0309847B2
:10459800D7F8F83208225A61ED0614D5D4F8F80293
:1045A800836923F010038361036AC3F3434102293B
:1045B80003F00F0200F06C81062900F091818369F5
:1045C80043F010038361F00635D5594DD5F8FC2228
:1045D8005368002723F0010353603846FEF720F99B
:1045E800B84695F8ED023B4605F54175FF21834233
:1045F800C0F08481D4F8FC324E484FF0FF329A6103
:104608004FF00112DA610B2262F3070762F3070821
:104618005F61C3F810801A686FF30A121A602EF0EF
:10462800EDFED4F8F83243484FF480525A61424BB9
:10463800D3F8A4309847B10640F17C813C4AD2F8BF
:10464800FC32D2F8040399680268C1F341010229D7
:1046580006BF032161F30A026FF30A0202605A6877
:1046680042F480725A6006A82FF048FAD4F8F8127B
:10467800D4F8FC02CB68079A6FF38D23CB6085686A
:104688002F48C5F34105284490F8E301032840F07A
:104698003C81002284F8EE224FF40072A4F8F02244
:1046A800092241E1F9073BD5F1B204EB8103D3F8C4
:1046B80040339D68D4F8FC325B691D40EA071FD57A
:1046C80094F8EF02DBF854300125A8429D6007D129
:1046D8001869DAF87C33C0F312001B1ACAF88C3355
:1046E800D9F894304046984794F8EF32012B07D117
:1046F80036B994F8FD33052B02D140462EF07EFEE4
:10470800AB0742BFDBF8543002259D60280707D568
:10471800D9F89C3040469847DBF8543008229A6014
:1047280001367F080BF1040B0AF1280AB2E600BF34
:10473800B8260020A42900200000002000ED00E099
:10474800E084030818F0010F61D0D4F8FC325FFA56
:104758008AF919695D6B04EB890225FA09F5D2F823
:104768000423ED019268EDB20D431540EA071CD50C
:104778005A6BA048012505FA0AF122EA01025A6398
:10478800BB699D609C4B4946D3F89830984794F88C
:10479800EF32AB4209D1BAF1000F06D194F8FD33DC
:1047A800042B02D193482EF029FE280742BFBB698B
:1047B80008259D60E90642BFBB6910259D606A0611
:1047C80042BFBB6940259D60AB0742BFBB6902255C
:1047D8009D6028061BD5D6E94C329B1AD6F82421B1
:1047E800D7F818C0DBF8FCE2DCF81850934228BF71
:1047F8001346033309F132099B080BEB8909ADB263
:104808009D4204D9D6E94C02904200D930B90AF148
:10481800010A4FEA5808043728364FE6D6F82431FB
:10482800801A984228BF18469BF8EF22C31C9B08A1
:10483800DAB1D6F82811D6F83421DCF8185001443A
:10484800C6F82811D6F8301102448A42C6F8342135
:10485800D5D196F81C11DEF83420012000FA01F1B8
:1048680022EA0102CEF83420C9E7D6F828110291CD
:1048780081B2033189100391D9F8F4120D460399D6
:104888009142D6D0029951F8221029600132F6E7F8
:1048980047F6F07119423FF492AE282101FB02411C
:1048A800C3F30A13DD1CD4F8BCC3D1F86C76AD1081
:1048B80000218D420ED1514D282101FB0252D2F820
:1048C8006C161944C2F86C16D2F878160B44C2F864
:1048D800783674E6DCF800E047F821E00131E8E7D3
:1048E800D4F8BC130D68C4F8B8580968C4F8BC18E3
:1048F800282101FB0242C3F30A13E5E755F8042B0C
:104908009160AA6B0133916071E6012084F8EE0290
:104918004020A4F8F002A0F56400A0F56240384CED
:104928001044A04227D80E2262F38D23CB604FF4A7
:1049380000534B61009BDA060BD5304C2E4B04F527
:104948003B70D3F8B0309847D4F8F8324FF480125F
:104958005A61009B9B060BD5284C274B04F53B70EE
:10496800D3F8B4309847D4F8F8324FF400125A61AB
:104978000BB0BDE8F08FA2F57400224CA0F51050E2
:10498800A04201D80D22CFE71F48204C1044A04276
:1049980001D80C22C8E7A2F18C701D4CA0F5434049
:1049A800A04201D80B22BFE71A481B4C1044A04272
:1049B80001D80A22B8E71948194C1044A0427FF6DA
:1049C8006FAEA2F1B770174CA0F55850A04201D8AD
:1049D8000822A9E71448154C1044A04201D8072220
:1049E800A2E713481044134A904294BF06220522B6
:1049F8009AE700BFA429002000000020B826002064
:104A08003F420F00DFC810002013FBFE1FD6130023
:104A1800FF69180000D3CEFE3F771B00C05BB3FED2
:104A2800BF9121003FAC2700C01D6AFE3FE1330063
:104A3800803C36FEDF9C41007047704770477047E6
:104A48000A4B93F846201044C0B2020648BF80388B
:104A580083F8460093F8472093F84610914202BF26
:104A6800002283F8472083F846207047A848002092
:104A780030B50B4A92F8463002F14804E518C0E90F
:104A8800005492F8472093429BBFD31A0B60C3F19E
:104A98008003002394BF4B60C1E9003230BD00BFE2
:104AA800A84800201FB502A86946FFF7E1FF054B9B
:104AB8000098D3F8C8301844019B184405B05DF835
:104AC80004FB00BFA8480020054B93F8470093F863
:104AD8004630984236BFC3F18003C01AC0187047E9
:104AE800A848002013B50C4C94F8CC0068B10523F5
:104AF800ADF800306A46022301A9D4F8D0002CF0A2
:104B08006BFF9DF8050000F0010084F8CC0080F0F0
:104B1800010002B010BD00BFA848002070B5064CC7
:104B2800D4F824520646FFF7DDFF20B9D4F8243222
:104B38005B1BB342F7D970BDB826002030B51A4CBC
:104B480089B000231546032200938DF8002094F8BD
:104B5800D4208DF804309A420293CDE906351BBF64
:104B6800030E8DF801300DF101030DF1020314BF9E
:104B780005220422CDE90421020C1A70020A987059
:104B88005A700620CDF80CD0FFF7C8FF50B1D4F802
:104B9800D0000379022B02D102A9FCF705FC2846B4
:104BA80009B030BD0546FAE7A848002007B58DF8DA
:104BB8000700064801230DF107020021D0F8D000B4
:104BC8002CF00AFF03B05DF804FB00BFA8480020E2
:104BD80070B51C4D88B000231646022200938DF84C
:104BE800002095F8D4208DF804309A4214BF05228D
:104BF8000422CDE9042302931BBF030E8DF8013074
:104C08000DF101030DF10203020C1A70020A9870EB
:104C18005A7004460620CDE90616CDF80CD0FFF7E9
:104C28007DFF0620FFF7C2FFD5F8D000012385F8E5
:104C3800CC300379022B02D102A9FCF7B5FB30195D
:104C480008B070BDA84800202DE9F04F85B08B460C
:104C5800009301EB8203019302900B464FF0000A88
:104C680053F8042B9244019A9A42F9D1009B002BE5
:104C780050D1FFF737FF00284CD1009805B0BDE8A8
:104C8800F08F029D5F46A0463B4657F8042B002A4A
:104C98003AD0424529682BD342460393FFF798FF41
:104CA8002A68039B42442A601A68A2EB08021A6029
:104CB800D9F8C830361B1C44009BC9F8C840A3B1BA
:104CC8009EB1D9F8C800C4B2A319B3F5807F134BBD
:104CD800D3F8CC308CBFC4F5807434469842D0D316
:104CE800002389F8473089F84630AAEB0600C5E763
:104CF800FFF76EFF57F8042C2B6813442B60002332
:104D0800A8EB020847F8043C019BBB4205F10405E7
:104D1800BAD1CDE75646DFF80890D1E70000002069
:104D2800A84800201FB50C4C94F8462094F847304A
:104D38009A420ED002A96846FFF79AFE0123022282
:104D480002A96846FFF780FF002384F8473084F8FB
:104D5800463004B010BD00BFA84800201FB50F4C56
:104D680094F8462094F847309A4214D002A968462D
:104D7800FFF77EFE0023022202A96846FFF764FFC0
:104D8800FFF75EFE94F8460094F84730C31A58427D
:104D9800584104B010BD0120FBE700BFA84800201F
:104DA80010B545F208200A4CFFF7B8FE0620FFF7B9
:104DB800FDFE0123C72084F8CC30FFF7F7FE00235F
:104DC80084F8473084F84630C4F8C83010BD00BFB6
:104DD800A84800200348D0F8BC3213B100F52C7065
:104DE80018477047000000200348D0F89C3213B1E0
:104DF80000F5247018477047000000200348D0F8D9
:104E08007C3213B100F51C70184770470000002071
:104E18000348D0F85C3213B100F514701847704796
:104E2800000000200348D0F83C3213B100F50C70A4
:104E380018477047000000200348D0F81C3213B10F
:104E480000F5047018477047000000200348D0F8A8
:104E5800FC3113B100F5F8701847704700000020C6
:104E68000348D0F8DC3113B100F5E87018477047F3
:104E7800000000200348D0F8BC3113B100F5D87009
:104E880018477047000000200348D0F89C3113B140
:104E980000F5C87018477047000000200348D0F894
:104EA8007C3113B100F5B870184770470000002036
:104EB8000348D0F85C3113B100F5A8701847704763
:104EC800000000200348D0F83C3113B100F5987079
:104ED80018477047000000200348D0F81C3113B170
:104EE80000F5887018477047000000200348D0F884
:104EF800FC300BB1F0301847704700BF00000020AD
:104F08000348D0F8DC300BB1D0301847704700BFE9
:104F18000000002010B5064C0648D4F8F410FCF741
:104F280043FFD4F80C110448BDE81040FCF73CBF1F
:104F3800A8480020000401400020004010B5064C9D
:104F48000648D4F8F410FCF72FFFD4F808110448E9
:104F5800BDE81040FCF728BFA84800200004014025
:104F6800001C004010B5064C0648D4F8F410FCF7B5
:104F78001BFFD4F804110448BDE81040FCF714BF27
:104F8800A84800200004014000180040024B0348D4
:104F9800D3F8F410FCF708BFA8480020000401402B
:104FA800024B0348D3F8E810FCF7FEBEA8480020DF
:104FB800000C0040024B0348D3F8E410FCF7F4BEA1
:104FC800A848002000080040024B0348D3F8E0102E
:104FD800FCF7EABEA848002000040040034B4FF04D
:104FE8008040D3F8DC10FCF7DFBE00BFA8480020E3
:104FF80010B5064C0648D4F8D810FCF7D5FED4F8FE
:1050080000110448BDE81040FCF7CEBEA8480020B7
:10501800000001400048014010B5064C0648D4F88D
:10502800D810FCF7C1FED4F8FC100448BDE81040C5
:10503800FCF7BABEA8480020000001400044014027
:1050480010B5064C0648D4F8D810FCF7ADFED4F8D5
:10505800F8100448BDE81040FCF7A6BEA848002098
:105068000000014000400140024B0348D3F8D8102B
:10507800FCF79ABEA8480020000001400B4B98425C
:1050880012D003F5806398420ED003F5705398420E
:105098000AD003F58063984206D003F580639842EE
:1050A8000CBF01200220704701207047000001401A
:1050B8000268137D012B04BF0223137592F82C108C
:1050C8000CBF4FF400730023012904BF022182F8AA
:1050D8002C1092F8441008BF43F48063012904BFE0
:1050E800022182F8441092F85C1008BF43F4006370
:1050F80001290CD1022182F85C1043F480534268E4
:1051080012680021516291890B43938101E0002BC1
:10511800F5D17047F0B5EFF31184102383F31288AB
:10512800C36846689D682A6822F001022A60777978
:105138003568104EAA8936F8176022EA0602AA8155
:105148001A695D681F2A4FF0200385BF203A9340F3
:105158009340EB6098BFAB60E3B283F31188C368F8
:105168009B6859601A6842F001021A6001230374AF
:10517800F0BD00BFE08403082DE9F74F714FD7F861
:10518800103100931B7C03F0FF01002B40F08B8053
:1051980097F8162197F8170197F81841A7F81411EE
:1051A80007F58D7A8E46884689463C2501979AF8F8
:1051B80002309AF80360C3F1FF039BB2002B00F0A2
:1051C800B280C3F1FF037343BAF800C04FF03C0B41
:1051D8001B12BCFBFBFBBBF1050F22D8DFE80BF071
:1051E800030D66738592DCB2F01A0CFB00F0B0FB7D
:1051F800F5F02044C0B2324610E0BCFBF5F205FBE6
:1052080012CC1FFA8CF2C2F13C0CDCB2F21A02FB8F
:105218000CF2B2FBF5F22244D2B2304601218E469E
:1052280088464FEA022B4BEA004B4BEA040B00235B
:1052380009EB0306B7B2C3F1170C012606FA0CFCFA
:105248001CEA0B0F08BFB446019E03F1010306EBED
:10525800870618BF4FF0020C182BC6F89CC1E7D17F
:1052680009F118091FFA89F9B9F5407F0AF1040A0A
:105278009DD1019BA3F8449EB8F1000F01D083F89B
:105288001621BEF1000F02D02E4B83F8170111B181
:105298002C4B83F818412B4A2023A2F8143192F89A
:1052A800463E002B43D103B0BDE8F08FBCFBF5F4BC
:1052B80005FB14C4DAB2A4B2F31A5C43B4FBF5F4E8
:1052C8001444E4B2A9E7BCFBF5F005FB10CC1FFAC7
:1052D8008CF0C0F13C0CDAB2F01A00FB0CF0B0FB19
:1052E800F5F01044C0B2344698E7BCFBF5F205FB74
:1052F80012C2D8B292B2F31A5A43B2FBF5F2024480
:10530800D2B2F0E7BCFBF5F405FB14CC1FFA8CF421
:10531800C4F13C0CD8B2F41A04FB0CF4B4FBF5F459
:105328000444E4B267E734463046324676E70098EC
:1053380040F22A31FFF7EEFE009803B0BDE8F04FC7
:10534800B6E600BFA848002010B543681A68587927
:10535800074B0344012493F8E731108C9C4020EA62
:1053680004001084108C9940014389B2118410BD47
:10537800E084030843685A79032A0FD8DFE802F06B
:105388000205080B186834307047186838307047C1
:1053980018683C30704718684030704700207047E4
:1053A8002DE9F04706464068544D048A036889464B
:1053B8004FEAD41E90B09246240900214FEA411CBE
:1053C8003CF805208EEAD21784EA121207F0030788
:1053D80002F007023A4340F089806544F560002DE9
:1053E80000F08A802C7F002C40F08680B3F844209F
:1053F800434F42F40042A3F844201A8842F0800246
:105408001A8042793A444FF0010892F8E7011A8C61
:1054180008FA00F080B222EA00021A841A8C1043BB
:1054280018841A8842EA08021A802846FDF744FAC6
:105438000A23AB83F1680846FDF73EFA314BCB608F
:105448000B7D8E6101A88DF804304FF48073ADF8A0
:1054580006308DF805802EF06FFAF36898682EF004
:10546800C6FAF3689868036823F0010303602EF016
:10547800BEFA3046CDE90144CDE90344CDE90544FF
:10548800CDE90744CDE90944CDE90B44CDE90D4404
:105498000F94FFF76FFF4FF4806307934FF4804139
:1054A8004FF48053CDE90831736802901B8ACDF818
:1054B80014A003F00F0307EB830701A9D7F8EC3119
:1054C8000193402304934FF400330B93F368CDF812
:1054D8000C909868FDF77AF9F3689A68136843F0B6
:1054E80010031360404610B0BDE8F0870131102961
:1054F8007FF464AF002571E70020F4E7D0000020B6
:10550800E0840308990D00082DE9F0434568A8795F
:1055180010F0040300F002020BD00020174680466A
:10552800042406466B79032B49D8DFE803F0094ABF
:1055380089C990464FF480701F461C460126F1E742
:105548002D682B8C23F001031B041B0C2B84B5F84E
:1055580020C0B5F804902B8B23F073031B041B0C9D
:1055680043F0600E2CF0020C6E4B4FEA0C4C4FEAE5
:105578001C4C48EA06069D421FFA89F94CEA060CBB
:1055880003D003F580639D420AD14FF6F3730CEA0A
:1055980003033B4329F4407943EA040C40EA090930
:1055A800A5F80490A5F818E06963A5F820C02B8B2E
:1055B80023F008031B041B0C43F008032B83BDE8EE
:1055C800F0832D682B8C23F010031B041B0C2B84F9
:1055D8002A8CB5F804E0B5F818C0524B2CF4E64C08
:1055E80022F020024FEA0C4C12044FEA1C4C120C19
:1055F80048EA06069D421FFA8EFE4CF4C04C42EA69
:10560800061203D003F580639D420BD122F080027D
:1056180042EA071222F040022EF4406E42EA0412D7
:105628004EEA800EA5F804E0A5F818C0A9632A84FC
:105638002B8B23F400631B041B0C43F40063BDE7AE
:105648002D682B8C23F480731B041B0C2B842A8C51
:10565800B5F804E0B5F81CC022F400732CF0730C04
:10566800304A4FEA0C4C1B044FEA1C4C1B0C48EA0E
:10567800060695421FFA8EFE4CF0600C43EA06239C
:1056880003D002F5806295420BD123F4006343EA0C
:10569800072323F480632EF4405E43EA04234EEA92
:1056A800001EA5F804E0A5F81CC0E9632B84AB8BA9
:1056B80023F008031B041B0C43F00803AB837EE7AD
:1056C8002C68238C23F480531B041B0C2384258C07
:1056D800A288A38B25F400552D0448EA06062D0C54
:1056E80023F4E64345EA06350E4E1B041B0CB44270
:1056F80092B243F4C04303D006F58066B44203D1A6
:1057080022F4804242EA8012A280A3832164258485
:10571800A38B23F400631B041B0C43F40063A383D3
:105728004DE700BF0000014070B546684D4C7379E5
:105738002344002993F8E75114BF002002200123D5
:1057480004F5037454F823108A4225D25A1E33688C
:1057580092B2198C2DBB21F001010904090C19849E
:10576800198B1C8C89B221F0F301A4B241EA021210
:1057780024F00A0192B2084342F0010240F001000D
:105788001A8318841A8B22F00C021204120C1A8342
:105798001A8B92B21A8370BD0133102BD2D10F220B
:1057A800D5E7042D1CD121F010010904090C198436
:1057B8001C8B198C24F44074240589B2240D44EA06
:1057C800023221F0A00192B241EA001042F4807244
:1057D80040F010001A8318841A8B22F44062D4E730
:1057E800082D21D121F480710904090C1984998BA1
:1057F8001C8C89B221F0F301A4B241EA021224F40C
:10580800206192B241EA002042F0010240F4807027
:105818009A8318849A8B22F00C021204120C9A8331
:105828009A8B92B29A83B6E721F480510904090C45
:105838001984998B1C8C21F440710905090D41EAE2
:10584800023245F6FF71214092B241EA003042F43B
:10585800807240F480509A8318849A8B22F44062B4
:10586800DBE700BFE084030838B583681C68637908
:10587800DB0723D594F85C32A57903B3E06B436862
:105888001A68D36AC3F34E03536294F86D32012B3E
:1058980007D094F8613223B1B4F868320133A4F820
:1058A8006832E943002201F00101FFF73DFF0023C0
:1058B800A4F866324FF08073C4F85C3238BD94F8AF
:1058C8005F32012B04BF94F85D3284F85E322046C3
:1058D800FBF733FB94F85F2242B90123E94384F8CC
:1058E8005F321940E06BBDE838401DE7002284F8BC
:1058F8005F2205F00101F5E738B503681B681C68ED
:10590800284B07EE102AD3F8D022436801391868CB
:105918008DB2FFF7B3FBB2FBF0F007EE900AB8EEDA
:10592800477AF8EE677A87EE870ADFED1F7A30EE5E
:10593800270A30F0B9FD1D4A23880138944280B205
:105948009BB212D002F5806294420ED0B4F1804F1F
:105958000BD0A2F58032944207D002F580629442BF
:1059680003D002F58062944202D123F070039BB207
:105978000F4A944206D002F5806294421CBF23F479
:1059880040739BB22380094BE5629C42208503D07B
:1059980003F580639C4201D1002323860123A3825F
:1059A80038BD00BF000000200AD7233C000001409A
:1059B80000100040024B586FC0F30070704700BFE2
:1059C8000038024008B572B600224FF0FF3193004C
:1059D80003F1604303F561430132082AC3F88010DC
:1059E800C3F88011F3D1024B024A1A60FBF704FA9C
:1059F800FCFF0120EFBEADDE08B572B600224FF005
:105A0800FF31930003F1604303F561430132082A33
:105A1800C3F88010C3F88011F3D1FBF7EDF9014802
:105A2800FBF7FCB9D80200200148FBF7F7B900BF23
:105A3800240500200148FBF7F1B900BF70070020DA
:105A48002DE9F34799463E4B904603EB8002054605
:105A5800D2F84C42002C71D003F51B73636004F13B
:105A68003E03A36104F59F73E3614FF48073C4E9B7
:105A780004332368E160A36394F83D002BF0D4FD60
:105A8800064694F8440294F83CA0271D08B1FCF798
:105A9800F5FE94F8450208B1FCF7F0FED4F8403260
:105AA8001BB1284A116B0B43136319F0080F24D05C
:105AB8000135EDB21EB14FF4E163F380357219F090
:105AC800100F94F8462214BF0221122130462EF0FE
