:020000040800F2
:1000000000200010E9DE0208B5330008550302089D
:10001000B3330008B1330008AF330008000000001C
:10002000000000000000000000000000AD330008E8
:10003000AB33000800000000A93300083F7C020831
:1000400085DF020885DF020885DF020885DF0208F8
:1000500085DF020885DF0208C37F0208CD7F020822
:10006000CB7F0208C97F0208C77F0208E958000851
:10007000D5580008C1580008AD5800089958000824
:10008000855800087158000885DF020885DF0208DE
:10009000AD5C000885DF020885DF0208C57F020825
:1000A000C14F000829500008AD4F0008515000080A
:1000B0001550000801500008ED4F000885DF0208C8
:1000C00085DF020885DF020885DF020885DF020878
:1000D00085DF0208ED570008E1570008D5570008F2
:1000E000C17F020885DF02089933000885DF020816
:1000F000E94F000885DF0208D54F000885DF0208B8
:1001000000000000000000000000000085DF020881
:1001100085DF020885DF020885DF020885DF020827
:100120005D58000849580008355800082158000853
:100130000D58000885DF02080000000000000000E4
:1001400085DF020885DF020885DF02080000000065
:10015000000000000000000000000000000000009F
:10016000000000000000000085DF020885DF0208B3
:1001700085DF020800000000000000000000000011
:080180000000000085DF020809
:1001880030B50D4B00F00704C0081D181B5CA340D8
:10019800DBB20020C4F108028A4228BF0A46C2F135
:1001A800080423419040891A40EA03004FF00004F4
:1001B80015F8013FEED130BD880A002020B9034B65
:1001C8009B6D08221A82704701487047480A002030
:1001D80000000020F2E721B901288CBF022000208E
:1001E8007047022070470A4B996DCA78042A10B5E7
:1001F8000BD8084B4C8AD200134418B99B891B1B97
:100208000B8210BD98682044FBE70020F9E700BF87
:10021800480A002000000020054B996D054B4A8ACA
:1002280018B99B8D9B1A0B827047986A10447047C7
:10023800480A002000000020054B996D054B4A8AAA
:1002480018B99B8E9B1A0B827047186B1044704725
:10025800480A002000000020074B9B6D1B7803F024
:100268007F03212B06D100F0DF00022814BF0220F3
:100278000020704702207047480A0020212810B546
:1002880008D1104B9B6D1B7803F07F03212B16D0F0
:10029800022013E02028FBD10A4B9A6D83F85C00FA
:1002A800127802F07F02212AF2D1074B054A926D9B
:1002B80000249361548220469847204610BD034B82
:1002C800F4E700BF480A0020DD010008C501000866
:1002D8007047044B93F85C20202A04BF002283F85F
:1002E8005C207047480A0020014B04221A667047B8
:1002F800480A0020034B93F86E200AB105221A66BB
:10030800704700BF480A00200E4B0F491A680F4B70
:1003180092B222F0070213445B000D4A1B68C3F334
:100328000903C1F8C030D1F8C0309BB201335B106B
:10033800803103B9704752F8040B21F8020B013BD6
:10034800F7E700BF505C0040480A00201E3000203C
:1003580020620040024B0022C3F8C420704700BF4F
:10036800480A00200023F0B54E1C1F46050FECB2CA
:10037800092D94BF3034373401F8134006F8137050
:100388000133DCB2A2424FEA0010EFD8F0BD134BA4
:100398001868083310B51B68C0180AD0104B1149EB
:1003A8001C680822FFF7DEFF04220F492046FFF7EA
:1003B800D9FF0E498A6D002393720D4A01201060FF
:1003C8000C4813604FF4E0540360146003604FF46A
:1003D8001640A1F8C80010600B6610BDACF7FF1FEF
:1003E800B0F7FF1F3A0000204A000020480A00200A
:1003F800405C0040445C0040044B41F2B4110122CF
:10040800585C00B95A545A70704700BF682B0020D6
:100418000378022B08D10E4B1A684368B3EB422FBE
:100428002CBF012000207047006970B1094B1B7870
:10043800032B0EBF084B80B24FF6F773984294BF58
:100448000020012000F0010070470120FAE700BFFA
:10045800883D0020682B0020F7FFFF0F074B1B7813
:10046800022B0BBF030AC0F3D413C0B200F07F0005
:100478000CBF0B600B601060704700BF682B00203A
:1004880010B5037841680F4A022B0AD141F20423C0
:10049800D35802F59052106800EB430000EB51204E
:1004A80010BD036941F21020023B145841F2182094
:1004B80010580840400A04FB030041F20C23D358AB
:1004C8001844EDE7682B0020837B042B0DD0074BE5
:1004D80041F298015A5801325A50426041F29C0147
:1004E800042282735A5801325A507047682B0020F0
:1004F80008B5064BC01A48BF00F2FF104012072883
:1005080003D9FFF779FF4FF0FF3008BD802B00209B
:1005180000487047700A0020034B93F82400032812
:1005280094BF002001207047480A0020034B93F82D
:100538002400003018BF0120704700BF480A00207F
:10054800FF207047012380F849307047034B186E2D
:1005580018B1186E431F584258417047480A002086
:10056800014BD3F8C0007047480A002001207047AB
:10057800704770477047D0E90920131A584258410C
:1005880070474171704743799B070AD5436A82696E
:10059800D154436A01690133B3FBF1F201FB123311
:1005A80043627047437913F002031FBF0369D0E920
:1005B800092003F1FF33101A1DBF1840C0B2181AE2
:1005C80018467047437913F001031FBFD0E907327B
:1005D800C0689B1A00F1FF3014BF184018467047D6
:1005E80010B5437913F0010301460ED0FFF7EAFF77
:1005F80050B10B6A4A69CC68D05C0133B3FBF4F2A2
:1006080004FB1233C0B20B6210BD1846FCE790F829
:100618005F3230B53BB990F85D1290F85E32012434
:10062800DAB2914200D830BDB0F8665204FA03F24B
:100638002A43A0F866220133F2E74378007840EABB
:100648000320094B10FB01F1994208DBB1F5000FBB
:1006580007DA0029B8BFFF31081200B27047034813
:10066800FBE747F6FF70F8E701FF7FFF0080FFFF19
:100678002DE9F74F704D9146D5F8CC40B5F8D0200C
:10068800C2EB24135200C2EBE402B5F9D2405B433B
:100698006243B5F9D4401B135C43A41304EBE22472
:1006A800B4F5FA3E8846AEFB0E12CDE900124FEAC9
:1006B800E47343F1FF3C019AC5F8E8400EFB0CF3E4
:1006C80002EB4303B5F9D820019302FB0CF1D317D1
:1006D8000EFB0311A2FB0E230B44190341EA12512E
:1006E8001003019EB5F9DA2002FB06FA009ED31723
:1006F80006FB03AAA2FB062353444FEA122A4AEA3E
:10070800036AB5F8D6204FEA232B1AEB00004BEB0F
:10071800010B00304BF5004BA0FB020102FB0B1153
:100728004A10CB1752EA030100F08480B5F9E000C3
:10073800019E00FB06F7009EC11706FB0177A0FB90
:100748000601B5F9DE60394406FB0CFCF7170EFB11
:1007580007CCA6FB0E6767444FEA474E4FEA464C64
:100768001CEB000C4EEAD63E4EEB010ED5F8EC1011
:10077800B5F9DC60C1F58011CF174FEAC77A4AEAAC
:10078800510AC807002111EB0C014FEAC60747EBD5
:100798000E0E40F63546401A6AEB0E0AA0FB06011B
:1007A80006FB0A112DF0B6F9B5F9E6204E13470BF2
:1007B80047EAC14702FB06FCD31707FB03CCA2FBA1
:1007C80007236344564307FB0366A2FB072333440E
:1007D800560E46EAC316B5F9E42036184FEA6367A1
:1007E80041EB0707D317514300FB0311A2FB00237A
:1007F8000B44D10C41EA4331D814761840EB070773
:10080800B5F9E200320A42EA076203011344B8F17B
:10081800000F02D01B0AC8F80030B9F1000F05D04C
:1008280004EB840480342412C9F80040012003B08A
:10083800BDE8F08F0023EAE7480A0020012070474E
:10084800012070474FF40063838170474FF40063C1
:10085800838170470123037750F8043C0BB11838A3
:100868001847704730B5446802692368022101FAC5
:1008780002F2134216D0836900211974D968886876
:10088800016821F001010904090C01605868064B50
:1008980001684079CD6833F81030DB439BB22B40B8
:1008A800CB60626030BD00BFB0F90208426B70B522
:1008B800D569A906044604D5C36ACBB1908C216BCF
:1008C80098472A060ED5A26A616A636B8A421CD0D1
:1008D800511CA069A162825C1A852369994201D3DF
:1008E8000023A3622B0742BF636B08221A6270BD04
:1008F800E169928C40694E1CD2B2E6614254E169CA
:10090800E268914228BFE361DBE71A6822F08002BF
:100918001A60E7E790F83420034602F0FF0012B1AE
:10092800002283F8342070470B4B93F8F0207AB1FB
:10093800D3F8FC1088420DD3D3F80011884209D8A7
:10094800D3F8F810C3F8180141F00101C3F8F81002
:10095800104670470022FBE7480A002008B5084601
:10096800FFF7E2FF18B1024B012283F80C2108BD02
:10097800480A002028B1044BD3F8540108B193F871
:10098800F00000F001007047480A002008B5FFF7A2
:10099800F1FF18B1024BD3F818310B8008BD00BF26
:1009A800480A002008B5FFF7E5FF08B100230B70DF
:1009B80008BD08B5FFF7DEFF18B1024BD3F82031A8
:1009C8000B7008BD480A002010B5FFF7D3FF48B1E7
:1009D800064B93F80C4134B993F810410C70D3F8D6
:1009E8001431137010BD0024F8E700BF480A002036
:1009F8000520704730B1044B93F958010028D4BF43
:100A080000200120704700BF480A002008B5FFF702
:100A1800F1FF18B1024BB3F860310B8008BD00BF7D
:100A2800480A002008B5FFF7E5FF18B1024B93F814
:100A380066310B7008BD00BF480A002008B5FFF7F3
:100A4800D9FF80B10B4BB3F8623163B1192B0BD9C5
:100A5800642B0BD9C82B0BD9B3F5C87F94BF0323DC
:100A6800042301330B7008BD0023FAE70123F8E7DC
:100A78000223F6E7480A002010B5FFF7BBFF48B18C
:100A8800064B93F85A4134B993F85B410C7093F8CC
:100A98005C31137010BD0024F8E700BF480A00203D
:100AA8000420704728B1034B93F95200003018BF57
:100AB800012070470000002008B5FFF7F3FF50B190
:100AC800054B93F95220022A03BF93F85530C3F31C
:100AD80040030B70002008BD0000002008B5FFF798
:100AE800E1FF80B10C4A92F9543092F95220012A60
:100AF8000ED1272B08DC182B08DC0F2BD4BF0023C2
:100B0800012301330B7008BD0323FAE70223F8E73A
:100B18000133DBB2F6E700BF0000002010B5FFF795
:100B2800C1FFC0B10D4C94F85530DB0714D494F9CB
:100B38005330002BB8BF0733DB100133DBB20B7027
:100B480094F95330594201F0070103F0070358BFE5
:100B58004B420133137010BD0023F0E70000002062
:100B68000320704770B50A4A92F8683106255E1C62
:100B7800B6FBF5F405FB146492F86951AC421EBF4C
:100B880002EBC30382F86841C3E95B0170BD00BF93
:100B9800480A002010B500221346914201DC18468D
:100BA80010BD845C6340082413F0800F4FEA4303B0
:100BB80018BF83F0D503013CDBB2F5D10132ECE775
:100BC8000139CBB2032B10B519D80D4C94F952301A
:100BD800ABB1012B0B4B0C484FEAC1010B444FF052
:100BE80005010CBF1B7B9B7B84F85E30FFF7D2FFAF
:100BF800062184F85F000448BDE81040B2E710BD44
:100C080000000020B0F902085A000020F0B5114B8E
:100C1800D3F8A841B3F89C7193F89E11B3F8A0617A
:100C2800B3F8A25193F8A42114F0040F0AD193F851
:100C3800B0313BB9012A0BD0022A03D114F0080FB6
:100C480008BF0121078081708680C5800272F0BDCF
:100C58001146F7E7480A002007B532238DF800301F
:100C68000368CDF801308388ADF80530034B68463A
:100C7800D3F8E031984703B05DF804FB480A002038
:100C8800094BD3F8E40110F080000BD0D3F8E82129
:100C9800920706D4D3F8A80180F00800C0F3C0007A
:100CA80070470120704700BF480A002007B510238D
:100CB8008DF80030054BADF80100CDF80310D3F8DE
:100CC800E0316846984703B05DF804FB480A002005
:100CD8000C4AD2F8003210B5198100219981D2F856
:100CE800F811596019684C1C1C600870D2F8003261
:100CF800D2F8F8214FF6F67199811968C3E90021F5
:100D080010BD00BF480A0020064B93F81722012A9D
:100D180003D1054AC3F844227047022A0CBF034A8C
:100D2800034AF7E7480A0020600000206A00002014
:100D3800740000202DE9FF4180460846154629F039
:100D4800B4FB4FF47A72002306460F462CF0E2FEFD
:100D5800B5F900303C2403FB0404394630464FF40F
:100D68007A7200232CF0D6FE002796B24FF47A73DD
:100D7800C3FB04673B46324601A829F011FB3A4BF6
:100D880093F84A32012B09D0022B35D032463B4624
:100D9800404629F005FB04B0BDE8F0819DF8064007
:100DA800E31E072BF2D8231F052B0DD92146BDF8CA
:100DB800040029F0A3FA9DF8073098420ED0E11EEE
:100DC80018BF01210029E1D02B883C332B80274B09
:100DD800F6184FF0000343EB0707D7E7032C03D1BE
:100DE8009DF808100031EBE70A2CCFD19DF80810C8
:100DF800B1FA81F14909E5E79DF80640E31E082BA1
:100E0800C4D8231F062BDFD92146BDF8040029F0DA
:100E180075FA032C12D10E280ADC9DF80730984287
:100E280008D19DF80810012994BF00210121C9E7C4
:100E38000738F0E7B4BF01210021C3E70B2CA5D187
:100E480007280ADC9DF80730984208D19DF8081059
:100E580001298CBF00210121B4E70738F0E7CCBF96
:100E680001210021AEE700BF480A002080EE3600CD
:100E780008B5064B5B6D1A79022A06D19A68920763
:100E880003D5186926F0CAFF00BF08BD480A00202C
:100E98002DE9F3470669C36805460C461E404FF026
:100EA800004901F14C0701F1340816B902B0BDE858
:100EB800F087B6FA86F329FA03F2D2432A6116407C
:100EC8001B3B002C40D0042BEFD8DFE803F039346B
:100ED8002E280300E368D5F82CA02BB19B681BB122
:100EE8001FFA8AF1201D9847636A33B19B6823B1C2
:100EF8001FFA8AF104F11C009847E36B2BB19B6839
:100F08001BB11FFA8AF140469847636D002BCCD07D
:100F18009B68002BC9D01FFA8AF1384603E0E368C2
:100F2800696B5B68201D9847BFE7636AA96B5B68BC
:100F380004F11C00F7E7E36BE96B5B684046F2E7F6
:100F4800636D296C5B68E8E7042B06D8DFE803F0DB
:100F58000D0B09070300EB6A0193019BA5E76B6B77
:100F6800FAE7AB6BF8E7EB6BF6E72B6CF4E7F8B551
:100F7800134C0746D4F84C0203791E3B012B02D9C7
:100F8800002126F0B5FE0F4E0025BD42D4F84C02D4
:100F98000FDB002126F0ACFED4F87032C4F87832AA
:100FA8000023C4F87C32B4F880320133A4F88032CC
:100FB800F8BD16F8011B26F09BFE0135E5E700BFDA
:100FC800480A0020980C002038B5144C94F8693170
:100FD80094F868219A421AD004EBC303D3E95B2042
:100FE80004F514710023984212DC9378C4F8900237
:100FF8005B0884F89432FFF7BAFF94F86931062148
:101008000133B3FBF1F201FB123384F8693138BDC7
:10101800D55C01F8015B0133E5E700BF480A002011
:1010280037B50A4D0824012300220DF10701686D28
:1010380027F016F99DF80730FF2B02D1012003B0E5
:1010480030BD013CEFD12046F9E700BF480A002037
:1010580073B5094E451C0024012300220DF1070138
:10106800706D27F0FDF89DF80700FF2802D10134C4
:10107800AC42F1D102B070BD480A002037B5104B20
:10108800104D1B88ADF804300024022301AA214624
:10109800686D2C6227F0E4F80120FFF7D9FFFF28DC
:1010A8001FBF092385F82430D5F870326B6105BF5E
:1010B80004230220204685F8243003B030BD00BF49
:1010C800D8F90208480A002070B5054608200E46DF
:1010D800FFF7BEFFFF2810D0FE2810D1094C334679
:1010E80000222946606D27F0BBF800220223114632
:1010F800606D27F0B5F8002070BD0120FCE70220E4
:10110800FAE700BF480A002013B540F040038DF805
:1011180000300B0E8DF801300B0C8DF802300B0AE5
:101128008DF80330952304468DF804108DF80530AA
:10113800FFF776FF00B95CB9064806236A46002126
:10114800406D27F08DF80820FFF782FF02B010BD30
:10115800FF20FBE7480A00202DE9F84FDFF888A1B7
:10116800584EDAF85830584DDFF880B1DFF88081F2
:10117800DFF880910027C0225A725F8137602B68A0
:1011880003EA0B0343F400739BB22B602B6803EA5A
:1011980008039BB248F2800483F0100323432B60BA
:1011A80031684A4B89B221F007010B4459004023AA
:1011B8000B60316889B221F0070101F1005101F596
:1011C8004051490080200860296821F4F871090518
:1011D800090D214329603E49384691F8AC102AF0A0
:1011E800D3FC296801EA090189B281F440512143FD
:1011F80029603849086800EA0B0080B20860356841
:101208003548ADB225F0070528444000C0220260E9
:101218000A68324D02EA080292B282F020022243A2
:101228000A600A6802EA0902224392B20A604A681E
:1012380002EA0B0242F4C06292B24A603068284A5D
:1012480080B220F00700024452004FF48070106012
:101258004A6802EA0902224392B24A604A6802EAEC
:10126800080292B282F0200222434A602A6802EA07
:101278000B0B1FFA8BF22A6031681A4A89B221F0E7
:1012880007010A44520040234FF48871116003207B
:1012980019462AF079FC2B6803EA09039BB283F408
:1012A800405323432B602B6803EA080844EA0804E8
:1012B800A4B22C6038462AF04DFC0123CAF86030ED
:1012C800BDE8F88F505C0040005C0040043000200E
:1012D80000000020045C0040083000200C5C004046
:1012E800103000201C300020480A00208F89FFFFA2
:1012F800BF8FFFFF8FBFFFFF2DE9F341214E224F24
:101308003446D6F8C0308BBBD6F8C05094F8951246
:1013180000226018D3B29D4202F1010228D8D4F805
:10132800C0305B1BC4F8C030D4F8C080294484F8AE
:101338009512B8F1000F12D1402103202AF024FCA5
:101348003B6823F4804323F070039BB283F440533B
:1013580043F4004343F080033B6084F89582002DFA
:10136800CFD09DF8040002B0BDE8F0810125CDE79B
:101378000DF1080C9C44034493F880300CF8043CAD
:10138800C8E700BF480A00200C5C0040202938B597
:101398000C4623D801B3631C114AA1B25B1030F884
:1013A800025B22F8045B013BF9D101202AF0AAFC78
:1013B8000C4AD2F8C4302344C2F8C4300A4A13682D
:1013C80023F4E04323F040039BB283F0300343F45B
:1013D800004343F080031360204638BD2024DAE739
:1013E80080610040480A0020045C0040F8B590F88D
:1013F8004860002380F8483006B3134D2A6EFAB1CE
:101408002A6E052A1ED1D5F8707200F13404D5F879
:10141800C4308BB931462046FFF7B8FFD5F8703293
:10142800DB1B322BA6EB0006044401D8002EEED1BC
:10143800B6FA86F04009F8BD0020EFE70120FAE788
:101448001046F8E71846F6E7480A0020002280F818
:101458004920CBE790F84820531C0244DBB280F8BF
:10146800483082F8341090F849200AB1132B00D97B
:10147800BCE77047F8B50E461546FFF767F898B110
:101488000B4CD4F87072002D0EDDD4F8C43063B95B
:1014980029463046FFF77AFFD4F87032DB1B322B2F
:1014A800A5EB00050644EED9F8BD0020F4E700BF1F
:1014B800480A002038B5084C2546606D0379022B90
:1014C80004D0686DBDE8384026F0CCBD26F0B8FDE4
:1014D8000028F6D000BFF0E7480A00202DE9F041C7
:1014E800164C1E4694F82430042B054688461746A9
:1014F80015D1FFF7BDFCA37ED3B969021120FFF710
:1015080003FEB8B90523C4E90085C4E9037684F865
:101518002430D4F8703263610120BDE8F081082BD3
:1015280001D00020F9E7FFF7A9FD0228F9D1E0E78B
:101538002946E3E7FFF7BEFFF3E700BF480A0020AC
:1015480038B500220F232E2102202AF0FAFE1A4B6A
:1015580058651C4610B983F8240038BD002126F0D0
:10156800C9FE4FF47A7026F05AFB606D134D26F0D1
:1015780079FD00220A231146606D26F071FE606D28
:101588000379022B07D0D4F870326361012384F801
:10159800243000230DE026F053FD0028F3D0013D50
:1015A800EDD1606D2AF0C0FE237E656584F8245075
:1015B80001332376D1E700BF480A0020A186010045
:1015C80010B5044600222121006826F0B9FDFC224E
:1015D8002021206826F0B4FD40222421206826F02E
:1015E800AFFD0C222321206826F0AAFD002222212B
:1015F800206826F0A5FD012010BD10B50122044683
:101608001021006826F09CFD48B1142026F007FB45
:101618002068A0221121BDE8104026F091BD10BD20
:1016280010B5242204464121006826F089FD80B1C6
:1016380020223021206826F083FD50B10622312176
:10164800206826F07DFD20B100223421206826F094
:1016580077FD052026F0E3FA012010BD10B507221A
:1016680004460A21006826F06BFD052026F0D7FA0B
:1016780024224121206826F063FD052026F0CFFAB8
:10168800C0224221206826F05BFD052026F0C7FA1B
:10169800012010BD10B5012204460B21006826F078
:1016A8004FFD20B11D220921206826F049FD00F0D8
:1016B800010010BD10B5782204460021006826F00C
:1016C8003FFD052026F0ABFA20220121206826F0F4
:1016D80037FD052026F0A3FA00220221206826F013
:1016E8002FFD642026F09BFA012010BD08B5312299
:1016F800F421006826F024FD012008BD1FB504462A
:1017080000230DF10702272100688DF8073026F025
:10171800B3FC68B19DF8070010F0080008D0062354
:1017280002AA2821206826F0D7FC18B9E086A06311
:1017380004B010BD9DF809209DF8083043EA022343
:101748001BB2002BB8BF03339B109DF80B20E38618
:101758009DF80A3043EA02231BB2002BB8BF0333BB
:101768009B1023879DF80D209DF80C3043EA022337
:101778001BB2002BB8BF03339B106387D8E71FB594
:1017880000210446C18681630DF10702006826F036
:1017980073FC00B39DF8070010F008001BD0062367
:1017A80002AA0121206826F097FCA0B19DF8082024
:1017B8009DF8093043EA0223E3869DF80A209DF844
:1017C8000B3043EA022323879DF80C209DF80D3047
:1017D80043EA0223638704B010BD13B50623044609
:1017E8006A461121006826F077FC18B9E086A063E4
:1017F80002B010BD9DF801209DF8003043EA022395
:101808001BB207EE103AB8EEC77AF7EE086A27EE71
:10181800267A9DF80320BDEEC77A17EE103AE386C4
:101828009DF8023043EA02231BB207EE103AB8EEE5
:10183800C77A9DF8052027EE267ABDEEC77A17EEFF
:10184800103A23879DF8043043EA02231BB207EEBF
:10185800903AF8EEE77A67EEA67AFDEEE77A17EEA9
:10186800903A6387C4E713B50023C38683630446AD
:1018780006236A460321006826F02EFCE0B19DF895
:1018880001209DF8003043EA022303EB43039DF84F
:101898000320E3869DF8023043EA02231BB25B4231
:1018A80003EB430323879DF805209DF8043043EAA2
:1018B800022303EB4303638702B010BD30B5002554
:1018C80085B00446C58685630DF1070206210068C8
:1018D80026F0D2FB00B39DF8070010F004001BD0DF
:1018E800062302AA2946206826F0F6FBA0B19DF837
:1018F80009209DF8083043EA0223E3869DF80B206F
:101908009DF80A3043EA022323879DF80D209DF8AD
:101918000C3043EA0223638705B030BD13B5044693
:1019280000680379022B0CBF4321032106236A4672
:1019380026F0D2FB18B9E086A06302B010BD9DF86E
:1019480000209DF8013043EA0223E3869DF8022037
:101958009DF8033043EA022363879DF804209DF82D
:10196800053043EA02232387E7E737B504466A468A
:101978000221006826F080FB18B90025284603B02C
:1019880030BD9DF80030DA07F7D507236A460321F2
:10199800206826F0A1FB05460028EED011220A2176
:1019A800206826F0CDFB9DF806301B07E5D40B4ACE
:1019B8006846B2F99612FEF740FE4042B2F9981214
:1019C800E0860DF10200FEF738FE2087B2F99A1280
:1019D80001A8FEF732FE40426087CFE7480A0020A0
:1019E80013B5002204460A21006826F0A9FB14203A
:1019F80026F015F90F220A21206826F0A1FB0A20FB
:101A080026F00DF901AA03231021206826F064FBB3
:101A18000A2026F004F99DF80420154B206880322E
:101A2800A3F896229DF805208032A3F898229DF805
:101A380006208032A3F89A220A21002226F080FB91
:101A48000A2026F0ECF80DF103020221206826F0A6
:101A580013FB0DF103020921206826F00DFB11226A
:101A68000A21206826F06CFB012002B010BD00BFDF
:101A7800480A002013B506236A46F721006826F0B5
:101A88002BFB144BE8B19DF801109DF800209DF840
:101A98000340090141EA02319DF8022041EA12118E
:101AA8009DF80420C3F8EC10120142EA04329DF8B4
:101AB800054042EA1412C3E9A712C3F8CC2002B0C9
:101AC80010BDD3F89C22C3F8EC20D3F8A022C3F8A9
:101AD800CC20F4E7480A002010B500680C4626F030
:101AE800E1FB837863B1827AC37A43EA02231BB2AB
:101AF800222293FBF2F303F26D132380012010BD21
:101B08001846FCE710B50446006826F0CBFB83783E
:101B180083B10279437943EA0223E3818279C37965
:101B280043EA02232382027A437A43EA0223638246
:101B3800012010BD1846FCE770B50668054630461A
:101B480026F0B0FB0E230446021D3B21304626F04A
:101B5800C3FAA07070B1227B637B43EA02232B8413
:101B6800A27BE37B43EA02236B84227C637C43EA07
:101B78000223AB8470BDF8B5284C2546D4F854012F
:101B880026F0B3F8002847D094F850310BB1002064
:101B980042E0D4F8540126F0A2F8D4F84C313BB90D
:101BA8000F28EBD10123C4F84C3184F83C01E5E758
:101BB8000F2B9FBF5A1C1B19C4F84C2183F83C01FA
:101BC800D5F84C31102BD9D195F83C310F2B15D1C4
:101BD80095F83D3195F82D219A420FD195F84B2172
:101BE80062B90F4995F84A61084611F8017B01323C
:101BF8003B440C2ADBB2F8D19E4205D0002385F87D
:101C08005031C5F84C31B9E706492CF06FFE002871
:101C1800F4D0012085F85001F8BD00BF480A002023
:101C2800860B0020760B002038B5174C0F2384F85C
:101C38002C3184F82D0104F59772F9B10B68C4F8BA
:101C48002E314B6853608B689360104A002312F85A
:101C5800011B013308440C2BC0B2F8D1002584F8CD
:101C68003A0110220A49D4F8540184F83B5126F06D
:101C78007BF884F85051C4F84C5138BDC4F82E1183
:101C880051609160E1E700BF480A0020760B002010
:101C9800740B002030B58F4CD4F8A832B3F5857F8B
:101CA80085B06FD00BDCB3B3F82B46D0D4F8A8328C
:101CB800002BBCBF0023C4E9AA3305B030BDB3F57F
:101CC800887F00F0B480B3F58F7FEFD194F850315E
:101CD800002B00F0DF800021B4F83E31C4F8F41086
:101CE800D4F81811B4F84021C4F824318B42C4F850
:101CF800282140F0E780D4F81C319A4205D0D4F866
:101D0800F83043F00203C4F8F83094F8F030002BB0
:101D180000F09F8029E084F8F03000217220FFF75E
:101D280083FFD4F87032C4F8B0324FF0000CFA23B5
:101D3800C4E9ADC3F823C4F8A83294F85031EBB322
:101D4800B4F83E31C4F8FC30B4F84031C4F800317E
:101D58000023C4F80431B4F84231C4F8083101232F
:101D680084F8F0300023C4E93D33D4F87032C4F865
:101D7800B03200254FF47A73C4E9AD534FF485733C
:101D8800C4F8A832D4F8F85075BBD4F8B022D4F807
:101D980070329B1AD4F8B822934287DD2946762000
:101DA800FFF742FFD4F87032C4E9AC35FA23C4F81F
:101DB800B8324FF48F73C4F8A83287E7FFF7DBFE19
:101DC80048B9D4F8B022D4F870329B1AD4F8B822A3
:101DD80093427FF76BAF94F85031002BB0D194F851
:101DE800F030002BBED198E715F0010337D000255D
:101DF800B4F81831ADF8043001A94620CDF80650E2
:101E0800CDF80A50ADF80E50FFF70EFFD4F8F830B1
:101E180023F00103C4F8F830D4F87032C4E9AC35C3
:101E2800FA23C4F8B8324FF48873C4F8A832D4F847
:101E3800B022D4F870329B1AD4F8B82293427FF7B4
:101E480035AFD4F8F430022B7FF75FAF002384F866
:101E5800F0304FF0FF330022C4E9AA3226E715F02C
:101E6800020514D0B4F81C21CDF8063001A9502081
:101E7800CDF80A30ADF80E30ADF80420FFF7D4FEE7
:101E8800D4F8F83023F00203C4F8F830D9E7C4F8DE
:101E9800F850D6E7FFF76FFE48B9D4F8B022D4F867
:101EA80070329B1AD4F8B82293427FF7FFAE94F8A9
:101EB8005031002B7FF40FAFD4F8F4300133C4F85D
:101EC800F430BEE7D4F8F83043F00103C4F8F83032
:101ED80011E700BF480A00202DE9F04F6A4E96F836
:101EE800C0328BB080468946002B3ED1D6F8C4520A
:101EF800002D3AD096F8C8A204AF96F8C832032B42
:101F080000F28480DFE803F002347D9939462846E0
:101F18000CF058FD044680B107A8FEF777FE9DF83F
:101F28001E109DF810308B4270D0AB798B4204D3D1
:101F38002B681B690BB12846984796F8C8320133BD
:101F480003F0030386F8C832002C40F09A809A45C3
:101F5800D3D1D6F8A8315B0700D534B12B681968FE
:101F680019B142464B46284688470BB0BDE8F08F6A
:101F780001A8FEF74BFED6F8A8319DF8044003F0FF
:101F8800040334B3002B41D13A460DF1030128462E
:101F98000CF01FFD0446002838D007A8FEF736FECF
:101FA8009DF81C109DF803309DF81D208B4203D12D
:101FB8009DF81030934229D02B798B42BDD36B7991
:101FC8009342BAD32B68DB68002BB6D028469847D3
:101FD800B3E7002BB1D1394628460CF0E5FC04469E
:101FE800A0B107A8FEF712FEBDF82010BDF810300A
:101FF8008B420BD02B689B69002B9ED028469847B4
:102008009BE7D6F8A81111F0040B01D0002494E73F
:1020180007A928460CF0CFFC0028F7D096F8C9424B
:10202800002CF3D09DF81C3086F8C9B2002BEDD0F7
:10203800594628460CF0D4FC7FE73846FEF7E6FD03
:1020480097E8070007AB03C31A809DF810309BB1CF
:102058000DF11D0207A928460CF0BBFC0DF11E016D
:1020680028460CF0AFFC0A2207A938462CF03EFCA3
:10207800041C18BF012460E708A928460CF094FC4A
:10208800ECE7012465E700BF480A0020022803D0D6
:10209800431E584258417047054B93F80C2212B121
:1020A800102015F0E5BDD3F8A801C0F380007047F3
:1020B800480A002010B529F09FFE4FF4302401286B
:1020C80006D10CB9052010BD29F096FE013CF6E7B3
:1020D800002C08BF0520F6E7016821F01F0202F175
:1020E800804202F5823270B50123146801F01F01A5
:1020F80003FA01F124EA0101116002682A4C22F076
:102108001F0502F01F02295903FA02F221EA02020E
:102118002A510179026801F1804122F01F0401F57A
:10212800823102F01F02655803FA02F22A43625014
:1021380002681E4D22F01F0402F01F02615903FAC3
:1021480002F221EA020262510268194C22F01F06CB
:1021580002F01F02315903FA02F221EA0202325157
:1021680041790268102912D122F01F0102F01F02E2
:102178004E5903FA02F232434A51026822F01F0113
:1021880002F01F020859934003430B5170BD01F13F
:10219800804122F01F0001F5823102F01F024458ED
:1021A800934023434350F1E70404014008040140ED
:1021B8000C0401402DE9F04790B0DDE9184A0E46BD
:1021C8000746904600213A220DF1060099461A9DCD
:1021D8002CF0B4FB344B02938DF80460CDF834A096
:1021E800002E55D0022E55D0032E55D0042E55D191
:1021F80003232E4A02EB430393F82B308DF8053066
:102208002B4B0394D3F87022069714440122CDE98E
:1022180004458DF831201D46B8F1000F06D04A4616
:10222800414607A82CF09EF98DF8309095F80EE3FA
:102238000023BEF1010F0E931FD80DF1040ABAE86E
:102248000F0095F80DC33C2404FB0C5404F54474AA
:102258000FC4BAE80F000FC4BAE80F000FC49AE819
:102268000700BCFA8CFC0EF1010E4FEA5C1C84E8F6
:10227800070085F80EE385F80DC33B6883B14B462C
:1022880042463146384610B0BDE8F04712F02ABE43
:102298003346AEE70123ACE70223AAE70023ADE704
:1022A80010B0BDE8F08700BF120D0020B0F9020899
:1022B800480A0020420900F01F03022A4FF00100DB
:1022C80000FA03F008D0032A0BD0012A0DD1074BDE
:1022D8005A69104358617047044B9A6910439861D2
:1022E8007047024BDA691043D8617047001002400A
:1022F80013B501238DF805304FF48073ADF806301F
:1023080003681B685B79044623B101A88DF8043083
:1023180029F024FE23681B689B7923B101A88DF856
:10232800043029F01BFE02B010BD031EB8BF2D22D9
:1023380010B5B8BF58420C46AEBF0A2201F8012BAF
:102348000A2227F0FDF900230370204610BD2DE96D
:10235800F04F89B080468B4615461C4600270DF184
:102368001409297869B3252907D0B8F1FF3F01D0AE
:102378004046D84701350137F3E76A782D2A05BF6B
:10238800AA78EE1CAE1C012518BF0025302A06BF0E
:1023980016F8012B012300230293A2F13003092B25
:1023A8004FF0000A16D96C2A40F09B80354615F884
:1023B800012B642A4BD026D8252A7ED016D8002A8D
:1023C800CFD1384609B0BDE8F08F0A2316F8012BA3
:1023D80003FB0A0A1046039227F0C6F90A28039A53
:1023E800F3D9002DDFD0CAF1000ADCE7582A19D04A
:1023F800632AB6D1B8F1FF3FBDD054F8041BC9B267
:102408004046D847B7E7732A48D007D8662A5BD032
:102418006E2AA6D154F8043B1F60A2E7752A08D09B
:10242800782A9ED1A2F1580042424B4642411021DF
:1024380002E04B4600220A2154F8040B15E04B46F3
:1024480000220A2154F8040B27F018FF20E054F862
:10245800040B0028BFBF2D238DF8143040420DF126
:102468001503A8BF4B4600220A2127F007FF10E0FA
:1024780054F8040B0028BFBF2D238DF814304042B8
:102488000DF11503A8BF4B4600220A2127F0F6FEDE
:102498003546CDF80490029B04E0354654F8043BD9
:1024A8000193002300935A4653464FF0FF314046AC
:1024B80028F096FE074454E73546B8F1FF3F3FF44D
:1024C8005AAF25219CE73546073424F00704F4E881
:1024D80002012BF0C1F900EE100A484626F0B4FEBE
:1024E800D7E7642AC4D00DD8252AE5D004D8002A15
:1024F8003FF467AF354634E7582A10D0632AF9D13C
:10250800354677E7732AC8D005D8662ADBD06E2A05
:10251800F0D135467EE7752A91D0782AEAD1A2F122
:1025280058014A424A414B4610218BE70CB470B51A
:102538002C4CD4F88C33ADF5267D13B9D4F89033F0
:1025480063B3D4F870124FF47A7306A8B1FBF3F2B0
:1025580003FB1213244928F02EFE06AB0344009314
:10256800AA9A2249ABAB064668460193FFF7EFFEED
:10257800009B5A1C00920A221A70009B5A1C009257
:1025880000221A70D4F88C3373B1184625F070FB0A
:1025980020B106A9D4F88C0325F006FC0DF5267D9C
:1025A800BDE8704002B07047D4F89043002CF5D0D5
:1025B800CDF81230ADF816303044A6AB26AD0393F3
:1025C800821CFD2306A902A8ADF81030029528F058
:1025D800CAFD029B022202A92046CDE9025311F04E
:1025E800D9FDDBE7480A0020A4460308FD77020866
:1025F80010B5084A002311461479844203D11420E7
:1026080000FB031010BD01330C2B02F11402F3D1AF
:102618000020F7E7E4F902082DE9F04190461A078F
:1026280004460D469DF8186003F0010714D503F021
:102638001103002B14BF4E213E2118B14FF4E16362
:10264800C38006720722204629F03DFD27BB20469D
:10265800BDE8F04125F0E2BB002F14BF4E272E271E
:1026680018F0020F09D018B14FF4A163C3800672A5
:1026780007223946204629F026FD18F0010F0BD015
:102688001DB14FF4C163EB802E72394628460722EC
:10269800BDE8F04129F017BDBDE8F081054AB2F860
:1026A8007C34D2F87824918A0B4218BF1B049361BA
:1026B800704700BF480A002080F00101014825F05A
:1026C80027BC00BFC00E002070B50B4B0B4CA342BB
:1026D80002D30022104670BD5A7982420AD11A7A72
:1026E8008A4207D11A681E791579AE4202D1156857
:1026F800AB42EFD00C33EAE7B07403084075030827
:1027080030B18088B0FA80F0C0F11F00431C06D0B9
:10271800034A0123116803FA00F008431060704768
:10272800000401402DE9F843036B046890F82D80FC
:1027380005465A48B0FBF3F0594B4FF0000C1946C8
:102748001E46012291F80690A8EB090701F1060E32
:10275800002FA8EB0C01B8BF7F420029B8BF49423F
:102768008F4202F10102BCBF4FFA89FC7646102A5B
:102778007146E7D1002780B21A7862450CD171887A
:102788005A88411A821A0029B8BF4942002AB8BF9C
:1027980052429142C8BF1E460137102F03F106036B
:1027A800EAD1606972883D4BB3FBF2F3AB63D8B1F1
:1027B80025F0F9FBC0B92B685B691BB140F615021F
:1027C800DA8018721846002129F0BCFC354BAB6141
:1027D8002946082351F8180BF022406929F0D0FB4C
:1027E8002B685869FFF78CFF2046002125F082FDF1
:1027F80080226B21204625F0A3FC642025F00FFAE7
:1028080007226821204625F09BFC642025F007FA62
:1028180000226B21204625F093FC642025F0FFF967
:1028280001226B21204625F08BFC0F2025F0F7F9BB
:1028380018221B21204625F083FC0F2025F0EFF9F4
:1028480018221C21204625F07BFC0F2025F0E7F9F3
:1028580032791A21204625F073FC0F2025F0DFF984
:1028680072791921204625F06BFC642025F0D7F9F0
:1028780012223721204625F063FC0F2025F0CFF9DE
:1028880038210122204625F05BFC0F2025F0C7F9EE
:1028980020460321BDE8F84325F02CBD40420F0037
:1028A800D4FA02085D0800083CE7F0B5174B93F826
:1028B8005C2503F5AC6102EB420401EB840103F5EE
:1028C800B46600240C27042A04D90CB183F85C25CB
:1028D8000020F0BD0C680132E507D2B20DD52042C8
:1028E8000BD091F904C0002407FB04F515F906E0A4
:1028F800E64505D00134052CF6D10C310124E2E778
:1029080083F85C252B44D3F8A405E2E7480A0020A5
:10291800024B002283F85C25C7E700BF480A002065
:1029280070B5202025F054FA294C94F8ED65C4F8C8
:10293800040620B140F21913C3800023037220213A
:1029480029F000FC0A20002125F056F9D4F80406E5
:1029580025F029FB38B9D4F8083613F0805502D190
:10296800013E092E00D970BD2B2025F031FAC4F89C
:102978000C0618B140F21923C3800572012129F011
:10298800E1FB0121D4F80C0625F0C2FA3C2025F021
:1029980046F9002594F8ED359D42E4DA0020FFF76A
:1029A8008BFE0021D4F80C0625F0B2FA002178201D
:1029B80025F022F90120FFF77FFE0121D4F80C064B
:1029C80025F0A6FA7820002125F016F90135E1E76F
:1029D800480A002030B5264B10201D78A5F130019B
:1029E80009291A4603F1010329D9214C0021131B97
:1029F800022B27DC0023A2422ED82E2D36D1501CC4
:102A080004240022057802EB8202303D5200092D91
:102A180092B298BF521904F1FF349CBF013092B2B0
:102A280014F0FF04EED164205043124A02FB030065
:102A38000623B0FBF3F0104B03FB010001E0013863
:102A4800CBD130BD01EB8101490014F8010B3039BD
:102A5800014401F0FF01CAE703EB83035B0014F8AC
:102A6800010B303B034403F0FF03C4E70022DAE71D
:102A78005810002040420F008096980030B500237F
:102A880051F8234052F82350641B40F82340013387
:102A9800032BF5D130BDF0B58FB00546ADF8262033
:102AA8000BA80DF12602FEF745F9BDF926103C20CA
:102AB80091FBF0F31AB200FB13131BB2BDF82C0004
:102AC800002BB8BF5B42B0F5FA6F1AD39DF82E0001
:102AD80001380B2815D89DF82F0001381E2810D86A
:102AE8009DF8300017280CD89DF831003B2808D8ED
:102AF8009DF832003B2804D8BDF83400B0F57A7F41
:102B08002ED318480B900020ADF830008DF8320015
:102B1800ADF83400044611F13B0F9DF830609DF884
:102B280031709DF832C0BDF834E09DF82F0007934E
:102B3800B4BF2D212B21002AB8BF5242CDE905127E
:102B48000090CDE903CECDE901679DF82E30BDF8A0
:102B58002C200549284628F02EFB20460FB0F0BD52
:102B68000124D8E700000101B046030808B504486D
:102B780025F04BFC0348BDE8084026F093B900BF98
:102B8800DE460308EA460308F0B505460C4689B058
:102B98001422002120462BF0D1FE2A681D4E04A9DC
:102BA800C2F3855000230D4640FA03F7FF0744BFE0
:102BB8009F5D01F8017B0133062BF5D116480023F0
:102BC8000B70C2F303210144C2F3053691F88A1150
:102BD8008DF8181000F291100DF1190146FA03F75B
:102BE800FF0744BF1F5C01F8017B0133062BF5D1B9
:102BF80000230B70C2F38343029306ABCDE9005365
:102C0800064902F00F032046C2F3031228F0D3FA54
:102C180009B0F0BD34FB0208B0F90208F746030812
:102C280070B51C4C94F8085975B3D4F810690B6842
:102C3800DFED196A9B1B07EE103AD4F814694B684C
:102C4800B8EEC77A9B1B27EE267A07EE903A04F572
:102C5800C46380ED007A93EDBB7A8B68012AF8EEA5
:102C6800E77A27EE267A18BFD4F8182967EE877A0C
:102C780018BF9B1AC0ED017A07EE903AF8EEE77A92
:102C8800C0ED027A284670BD00230360436083606C
:102C9800F8E700BF480A00202C7D8E3F1FB5314958
:102CA80001A84A7D583110F019F80398019A80EA72
:102CB800E073A3EBE07307EE903AF8EEE77AF7EEED
:102CC800086AC7EEA65A82EAE273A3EBE27307EE3C
:102CD800103AB8EEC77A029BF4EEC75AF1EE10FA32
:102CE80013DD83EAE371A1EBE37106EE101AB8EE87
:102CF800C66AF4EEC65AF1EE10FA06DD0028CCBF1B
:102D08000020012005B05DF804FBC7EE265A83EACF
:102D1800E371A1EBE37106EE101AB8EEC66AF4EEA1
:102D2800C65AF1EE10FA09DDF4EEE57AF1EE10FA82
:102D380004D5002ACCBF02200320E3E7C6EE265ABA
:102D4800B4EEE57AF1EE10FA09D5F4EEE57AF1EE93
:102D580010FA04D5002BCCBF04200520D2E74FF091
:102D6800FF30CFE70000001070B51E4D95F8083908
:102D78002DED028B04460E4673B3D5F81039036067
:102D8800D5F814394360D5F81839836005F5C4635C
:102D980093EDBB8ADFED148A96ED000A80EE280ACF
:102DA8002BF046FE23681844206028EE288A96ED0A
:102DB800010A80EE080A2BF03BFE63681844606045
:102DC80096ED020A2BF034FEBDEC028BA368184482
:102DD800A06095F8080970BDC0E900338360B7EEBC
:102DE800008AD7E7480A00202C7D8E3F30B52A4A52
:102DF80092F8403F8B424DD192F8411FDFED276A90
:102E0800D2F8645F02EB4104013101F00F0182F84E
:102E1800411F92F8F015B4F8423FA4F8420F07EEAC
:102E2800101AB8EEC77A92F8F11527EE267AC31A67
:102E3800FDEEC77A2B4417EE900A07EE901AF8EECB
:102E4800E77AC2F8643F67EEA67A1B09FDEEE77AD7
:102E5800A2F8683F17EE901A88420FDD9BB299429C
:102E6800D4BF5B1A00239842A6BFC31A9BB20023A3
:102E7800A2F8683F034617EE900A1946B2F8683F71
:102E88001B1AC3EB8323091A93FBF1F181F30A019F
:102E9800A2F8681F30BD00BF480A002014AE2341C5
:102EA80030B5194CD4ED1A7A89B0F1EE677ACDEDC8
:102EB800057AD4ED1B7A00230093F1EE677A0B684C
:102EC8000193CDED067A4B68D4ED1C7A02938B689A
:102ED80003930546636E0493F1EE677A6A4604A984
:102EE8006846CDED077A13F0FDFF694604F16402E8
:102EF800084613F0F7FF019B2B60029B6B60039B56
:102F0800AB60284609B030BD0000001038B5027823
:102F18002DED088B30EE608AD0ED01AA0446B0EEA4
:102F280040AAF0EE419AB0EE619AB0EE42BA0D4670
:102F380068EE2AAA01F001034AB1002B0CBFF0EE9B
:102F4800607AF0EE487A0022C0ED0B7A0270D4ED78
:102F58000B7A002B60D078EE677AF0EE480A87EE9D
:102F6800A90AC4ED0B0AD4ED090AD4ED038AF5EEDB
:102F7800C00AF1EE10FA05DDB0EE691A04F1180086
:102F880028F0C7FCD4ED057A94ED0A7A2AEE27AA30
:102F980020EE280A7AEE877A77EE807A77EE8A7AB8
:102FA800F4EEC97AF1EE10FA08D4F4EECB7AF1EE29
:102FB80010FAD4BFB0EE679AB0EE4B9AD4ED026A1D
:102FC80094ED046AC4ED0DAA28EE268AF0EE476A4D
:102FD800E9EE886A6B0779EE677A84ED0C7A67EE1A
:102FE800867A84ED0E0AE9EEA76A84ED0FAA84EDCD
:102FF800109AF0EE667A08D5F0EEE66AB0EEC77A77
:10300800F4EEC76AF1EE10FA01D5C4ED0A7AB0EE13
:10301800490ABDEC088B38BD70EEE77AF1EE677AA5
:1030280087EEA90A9DE710B588B0002300930B68C6
:1030380001934B6802938B6814490393D1ED1A7A74
:103048004B6E0493F1EE677ACDED057AD1ED1B7ADC
:10305800F1EE677ACDED067AD1ED1C7A0446F1EEF1
:10306800677A6A4664316846CDED077A13F03AFF0D
:10307800694604AA084613F035FF019B2360029BAA
:103088006360039BA360204608B010BD00000010D9
:1030980010B51E4C94ED1A0AD4ED196A94ED1B7AFA
:1030A800D4ED1C7A20EE000AA6EEA60AA7EE070ABF
:1030B800A7EEA70A2BF0A6FEDFED157AB4EEE70A15
:1030C800F1EE10FA08D54FF07E5363660023A3662D
:1030D800E36623670F4810BD94ED197AC7EE007AAE
:1030E80094ED1A7AC4ED197AC7EE007A94ED1B7A3A
:1030F800C4ED1A7AC7EE007A94ED1C7AC4ED1B7AF7
:10310800C7EE007AC4ED1C7AE4E700BF00000010A7
:10311800BD3786356400001030B5D0F8D010ADF555
:103128000B7D00F10A0206920A448AAB0792B0F8B6
:10313800D6200393ADF820204FF6FF7390F8D520E2
:10314800ADF81030044600230AAD8DF8222002A9FC
:1031580001AA06A802958DF81230ADF81430ADF822
:103168002430019315F09AFF40B1029B94F8D420C3
:1031780002A92046CDE9025311F00CF8019800236A
:1031880063720DF50B7D30BD054991F86D2F002355
:10319800042A036028BF042201F672712BF0E2B9F9
:1031A800480A002010B4074991F86D2F00240480C4
:1031B800022A28BF022201F672715DF8044B2BF037
:1031C800D1B900BF480A0020F8B5204C1D250F468C
:1031D800064604F87E5C12F08FFD002012F01EFDFA
:1031E800082012F01BFD0E2012F018FD284612F0E0
:1031F80015FD042012F012FD042012F00FFD00202E
:1032080012F00CFD302012F009FD002012F006FD2E
:10321800384612F003FD002012F000FD12F04EFDBA
:10322800A4F17D0012F065FC234670B114F87D2CE2
:1032380052B914F87C2C302A00D02AB913F87B2C08
:1032480012B913F87A3C33700120F8BD401B0020F6
:10325800011D0023884201D11846704710F8012B40
:103268005340082213F0800F4FEA430318BF83F03E
:103278003103013ADBB2F5D1ECE72DE9F743104B06
:1032880093F8C04207468846C4B90E4DA14605F5D5
:103298002576286858B124F0EBFC40B1CDF80090B1
:1032A8002B4642463946B62011F05EF80446DC3516
:1032B800B542EED1204603B0BDE8F0830024F9E71B
:1032C800480A0020D41A00200E4B062230B483F896
:1032D8002A22242283F82B2283F82C22002283F826
:1032E8002D22094A03F22E2102F1240452F8045B2C
:1032F80041F8045BA242F9D130BC83F830020AF0ED
:10330800D3BA00BF401B002047FB02081349002323
:10331800F0B51A460D461E460A278C1894F8104632
:103328000CB91846F0BD2E2C06D101320028F8D071
:103338008C18044484F81066AC187B4394F8104643
:10334800A4F1300CBCF1090F9CBF303B1B190E2AAD
:1033580001D80132E1E70023E3E700BF480A002073
:1033680010B50A4C04F5726008F086F8D4F82C3FC2
:10337800C01A28F0E3F80028B8BF404242F21073A0
:103388009842D4BF0020012010BD00BF480A002089
:10339800024B4FF480221A60704700BF14040140AA
:1033A800704770477047FEE7FEE7FEE77047F8B5DD
:1033B8004FF0FF312E4A2F4C0D460023907A0428F7
:1033C8000BD103F5817004EB0010C079C70704D452
:1033D8006E1C10682FD088422DD30133082B02F1C0
:1033E8001002EBD16B1C40D0224C234F05F581769F
:1033F80004EB0613998849B1D7F86C3233B104EB62
:10340800051041F218029B6880589847D7F86C322B
:10341800A3B104EB051C1949DF68194A41F21800E9
:10342800002301EB45215CF80000B84730B10228C1
:1034380011D00020F8BD1D460146CEE741F29C029E
:10344800A358013BA35004EB06140323A3710D4BAF
:1034580001221A70EDE741F29C02A358013BA350E8
:1034680004EB06140123A371E3E70120E2E700BFA0
:10347800843B0020682B0020401B0020802B00206C
:10348800CB3C0008083C002090F91A305A1C0AD09E
:1034980003F58172124B03EB0213DA796FF3000222
:1034A800DA71FF23837690F91B104B1C16D00C4A57
:1034B80001F5817102EB011302EB0112DB79D1797D
:1034C800C3F34503012B86BF03F1FF3303F03F032A
:1034D800002363F34601FF23D171C376704700BF11
:1034E800682B002012F0020C2DE9F84F8846174689
:1034F8009B4600F0C080002840F0BD80FCF77CFFB0
:1035080002209CE04FF0FF32DFF8A8E19146154613
:1035180092460026DEF800309EF80E10984218D128
:10352800002900F0908041F2980135466258013236
:10353800625006F581710901625005F5817604EB48
:1035480006129279042AD9D8DFE802F02B56AA5637
:10355800600011B3012911D106F5817104EB011145
:10356800C979CB070AD411F07E0F07D1CB0916D140
:10357800DEF80810514501D2B1468A460136082EB8
:103588000EF1100EC6D1561C73D1691C5CD1B9F16D
:10359800FF3F00F085804D4656E03246EEE735465F
:1035A800ECE717F0010212D03E4BD3F86C32002B37
:1035B80076D03D495F683D4A002301EB4521B84775
:1035C80000286DD004EB06140223A37168E004EB15
:1035D8000611F81091F807E0BBF1030F60F3C71E5E
:1035E80081F807E02DD94FF6FF7293455B4628BF57
:1035F800134604EB06129380BCF1000F06D004EBCF
:10360800051000F580501830FCF75EFF7A0741BFBF
:1036180004EB0612D37943F00103D371FB0608D5F6
:1036280004EB0614E379C3F34502013262F346035F
:10363800E3711D4901EB4521C8F800100120BDE8E0
:10364800F88F1346D5E7354604EB051141F2980685
:1036580041F218028850A2590132A25141F21C06C7
:103668008A5105F58171090166186250002272605D
:1036780063E71546E8E70E4941F208220C468A58E6
:10368800002A3FF43FAF41F2102541F20C264D5974
:10369800895905FB02129042FFF434AFFCF7ACFEE7
:1036A8000020CCE7401B0020802B00206547000845
:1036B800682B0020803B00207FB5104D02AA0C46E5
:1036C80001A9FCF7CBFE05F59053019E186801226D
:1036D800002303A93044FFF705FF01280BD1DDE9DA
:1036E80002232978022916BF53F8223033F8123002
:1036F80023F07043236004B070BD00BF682B002026
:1037080037B50446C0690D4698B10023032201A9C4
:10371800FFF7E8FE012806D1B4F92020002A0ADACA
:10372800FCF76AFE022003B030BDE5258D54A2687F
:103738000AE00120F7E701995201012D01EB02038C
:10374800F5D0022DF1D0E268DA612278032A04D19B
:1037580000221A775A779A77DA77626A5A83C2F31D
:103768000F419982DFE77FB50E4D01AA0C4602A9E9
:10377800FCF774FE05F59053029E18680322002397
:1037880003A93044FFF7AEFE012808D12978039B2E
:10379800019A02290CBF23F8124043F8224004B0D2
:1037A80070BD00BF682B0020034B1B78032B0CBF98
:1037B80080204FF480707047682B002008B50B4AB2
:1037C80068B1816811B10723937008BDFFF7ECFF5A
:1037D8000423C2E90100C2E903111175F4E741F2BB
:1037E800B411012353545370EFE700BF682B002036
:1037F80008B5FFF7D9FF034A41F21023D3585843BD
:10380800400208BD682B00202DE9F04F0E4685B018
:10381800174602A901AA80463068FCF71FFE374AFE
:103828000299136801EB0309019B013BDD19FFF7BE
:10383800BBFF3368ED1A0544A2F5905AB5FBF0F5C5
:103848004D443368BB42A5EB090103D3012005B001
:10385800BDE8F08FDDF804B00BEB0702D21AFFF7D2
:10386800A3FF8242044643D214460B220B46484625
:1038780003A9FFF737FE0128E9D19AF8000032685A
:103888000399019B022802F101022ED1A34223D3FE
:103898003368019A9B1A2344B8F1010F336016D19B
:1038A800BB4214D19AF80030022B0BBF04F100443C
:1038B80004F1804404F1FF3404F1FF340BBF4FF6E8
:1038C800FF734FF0FF3321F8143041F82430002300
:1038D80009F101090193B4E721F8132001330132FA
:1038E800D4E741F8232001330132A342F9D3CFE7CB
:1038F800BBF1000F14BF0B220A22B7E7683D002076
:103908002DE9F7430029DFF808813F4E044614BF2C
:103918000227002794F83C30042B66D8DFE803F030
:103928002403313B5A00DFF8EC9098F80030206B04
:10393800032B4AD1484594BF00250125002D42D1CB
:1039480001A9FFF7B9FE01285AD12946206BFFF7D4
:103958000AFF012854D1019B23633268013B93423B
:1039680094BF33603260E0E739462046FFF7C8FE6F
:10397800012803463BD1626B02B1022384F83C3034
:10398800C8E7626B04F130010020FFF73DFF012812
:103998002DD10323F2E71D48E26A036802609A1AF0
:1039A800C36F534350F81C2C5B021A4440F81C2C7C
:1039B80050F8182C134440F8183C00212438FFF71D
:1039C8009FFE012813D10423D8E785B24FF6F77379
:1039D8009D42B0E794F82830042B04BF002384F8F4
:1039E8002830A36B0BB120469847012008E0022835
:1039F80006D194F82830042B02D1002384F828300B
:103A080003B0BDE8F08300BF7C3D0020FC3C0020F3
:103A1800682B0020F7FFFF0F2DE9F0412C4E0446DC
:103A280000F1300806F1240794F83830032B4CD8FD
:103A3800DFE803F00229313A39682161FFF7D8FE3F
:103A4800E368244D1844E060FFF7AEFE0844386090
:103A5800FFF7CEFE2B68181A2860FFF7C9FE6B68BF
:103A6800181A68602163FFF79FFEE36A08446063E1
:103A780023B96162012384F83830D5E7FFF794FE53
:103A8800081A2063F6E700213046FFF739FE0128BF
:103A98000ED10223EFE7626B41460120FFF7B4FE27
:103AA800012805D10323E6E700212046FFF728FE79
:103AB800431EDBB2012B06D894F82830062B04BF2E
:103AC800002384F82830BDE8F0810120F0E700BF2A
:103AD800D83C0020E03C00202DE9F04F85B00C4692
:103AE80081461646FFF760FE01AA804602A92068B3
:103AF800FCF7B4FC09F1FF33012B66D9019B2BB904
:103B08004546DFF8DCB00BF5905A1BE0FCF774FC77
:103B1800022005B0BDE8F08F2F4A1268B2B12F49D4
:103B28000868984212D1C96F531E49020B44B3FB6F
:103B3800F1F30344B3FBF5F205FB12320AB12B444F
:103B48009B1A23602368B342E6D32EE0DAF80030EC
:103B580002981F4607440023092203A93846FFF7A5
:103B6800C1FC012804D043B28BB30228EAD1CFE7C5
:103B7800039A9BF80030022B07D0032BC8D1019B76
:103B880052F8233023F0704302E0019B32F81330DF
:103B98002168B9F1010FB3FA83F38CBF002001202B
:103BA8005B09984204D18E4213D826600320B0E7FF
:103BB800019B2B442944434521600193D9D3029B9F
:103BC8000133029300230193BCE7012599E71846C6
:103BD8009FE701209DE700BFE03C0020FC3C00205F
:103BE800682B002070B5304D044605F10C0694F89A
:103BF8003430052B12D8DFE803F00325303840496C
:103C08002A6804F1300102320120FFF765FF01281C
:103C180006D010F0FF0F01D0032811D9002070BD85
:103C2800224A236B1168E268336002EB4122E260AA
:103C3800E26A236102B96362012384F83430D6E76B
:103C48000523FAE74FF0FF31206BFFF78CFD0128C1
:103C5800E4D1E36A3BB10223EFE7D4E90B01FFF7B4
:103C680082FD0128DAD10323E7E700212046FFF788
:103C780047FD0128D2D10423DFE794F82830082B28
:103C880002D1002384F828300120C8E794F82830AE
:103C9800074A082B04BF002384F8283041F2B513E3
:103CA8000121D1540220BAE7703D0020783D002060
:103CB800682B002010B5044608B9FCF79DFB204688
:103CC80010BD38B5164C002304F87A3954F80E0C98
:103CD80088421ED1207803281BD1124C03F5817528
:103CE8004AB941F29C0204EB05150423AB71A358B1
:103CF8000133A35038BD04F1180101EB4323D31A53
:103D08005842584104EB0514FFF7D4FF0123A3716F
:103D1800F0E70133082B04F11004D7D1EAE700BF1C
:103D2800083C0020682B0020030770B50C46154698
:103D380011D541F294130A4AD6580134A64234BF29
:103D480000200120FFF7B6FFA64206BF00232B6024
:103D58002C60012070BD20461146BDE87040ABE4E0
:103D6800682B00204368F7B5C3F308020A44B2F58C
:103D7800007F04460D4603D21D44656001202EE0F5
:103D8800FFF782FB0378022B01D16368F4E7164B37
:103D980041F210229E587602AE4222DB41F21822EE
:103DA80047689B581F407B42AB421ADCEB19B34271
:103DB80010D30169007E01AAFFF7B6FF012810D1D0
:103DC80023696361019B236163683344DB1BAD1B7B
:103DD80063603D442046FCF71BFB0028D5D003B0A8
:103DE800F0BD0020FBE700BF682B002070B504463B
:103DF8000E461546FFF7B6FF20B10DB12046A8477D
:103E0800012008E094F82830022023B9C4E90B56B1
:103E180084F82800184670BDD0E9013210B59A42DE
:103E28002CBF82608360FFF72FFB0022436A426148
:103E3800036142601146BDE81040D7E710B51A4C3F
:103E480004F58F530146187860BB49B191F82820D2
:103E58002AB94422A3F128002AF084FB012010BDCE
:103E6800442212482AF06AFD41F2D2134FF6FF723B
:103E7800E25241F2D0130322E25423780B48022B7A
:103E880041F2B81308BF0222E25441F21C23E2585F
:103E980041F2DC13E25041F2D1131022E254FFF751
:103EA800BBFFDBE70020DAE7682B0020203D00207D
:103EB8002DE9F04F4668DFF894A185B0044689469D
:103EC8001746C6F308064FF00008BFB1C6F50075DF
:103ED80094F91AB0BD4228BF3D46BBF1FF3F2046CA
:103EE80010D0FCF7CDFA544B41F2180203EB0B113A
:103EF8008A58904200F09A80FCF77EFA404605B056
:103F0800BDE8F08FFCF784FA20B3237E94F82810DC
:103F18001A0771D50629F1D0FFF76AFC474B1B68D1
:103F2800984205D9444A41F2B5130121D154E5E735
:103F3800434B1B78002BE1D10029DFD1062384F8FD
:103F48002830636984F83810E3622046FFF764FD7F
:103F58000128D3D12046FCF793FA6368C3F308021B
:103F68008346002A5ED123F4FF7121F00101A26883
:103F780001F5007191422CBF06210721227E02F033
:103F88000C020C2A50D10193FFF732FC019B013837
:103F980000EA0302FFF708FCDAF800304343A3EB1A
:103FA80052230A46584603A9FFF79CFA0128A5D1CF
:103FB8000398FCF79DFAA076039800289ED02A461D
:103FC800494630442AF0CEFA002229462046A84421
:103FD800FFF70CFF002891D0237E1B0708D5194B4B
:103FE80020691B6898422CBF00200120FFF762FE61
:103FF8007F1BA944002668E7114B1B78002B7FF430
:104008007DAF00297FF47AAF082384F828306369EC
:10401800E3620D4B84F834101B6823632046FFF7D6
:10402800E1FD95E70721A9E70023BAE7183303EB79
:104038004B230393C0E700BF682B0020E03C00201F
:104048001D3D0020FC3C00207C3D0020783D0020E8
:1040580070B50378023B012B04461CD8237E9906D1
:1040680023D42046FFF710FA237E1A070AD51F4EDD
:1040780041F29815705DC31F58425841FFF71AFE68
:10408800002373550023237084F82830E36A5BB15A
:10409800BDE870401847037E13F0060FDED00121FB
:1040A800FFF72EFB0128D9D070BDE2691049002323
:1040B80018014058824211D10C4903F5817201EB75
:1040C8000213DB79C3F34503012B0BD8002301EB63
:1040D8000212D17963F34601D171C2E70133082B8B
:1040E800E6D1BEE7013B03F03F03F0E7682B002071
:1040F800803B002010B580B1027872B190F828207A
:104108006AB9D0E9012494422CBF846082600322FA
:1041180080F82820C162FFF79BFF012010BD002016
:10412800FCE72DE9F743DFF82081044608F1080988
:1041380094F83830032B00F28280DFE803F0021095
:104148006F782046FFF74EFD012802D184F8380029
:10415800EEE7022873D1032384F83830E8E72378A0
:104168006568022B18BFD9F80030204618BF1D40DB
:10417800FCF786F9C5F34F2506462D1A00230222BF
:1041880001A93046FFF7AEF9AF190128BFB257D1E0
:104198004FF40072002101982AF0D0FBE3691BB3A9
:1041A80063680BBB019B4FF020322E211A605A60C6
:1041B8001970C3F80720606A5883C0F30F4C1020A9
:1041C80083F8201083F82110D872C3F82220C3F88E
:1041D800262083F82A20E26BA3F814C0C2F30F410B
:1041E80099865A8783F82B00D8F800104B1E9F42F7
:1041F80008D24FF400712046FFF7B4FDFFF75AFDCF
:104208000136BBE7C1EBC151490201F500712046F7
:10421800FFF7A8FDFFF74EFD02239DE7002384F872
:104228002830236C0BB120469847012008E0236C06
:10423800002084F8280003B19847022000E00020FD
:1042480003B0BDE8F08300BF783D0020B1F9043029
:104258000F2B2DE9F34104460D4616460BD14FF4BA
:104268000071FFF77FFD18B9002002B0BDE8F081AA
:104278004FF6FF73AB802046FCF702F994F91B2038
:10428800531C074611D01F4B41F2180103EB0210D3
:1042980041588F4230D0FCF7AFF82046FCF7B8F809
:1042A8000028E1D00023336024E02046FCF7B0F872
:1042B80080460028F1D1381C18BF0120FFF7FAFC0E
:1042C8004346112201A93846FFF70CF90128E4D129
:1042D8000198FCF70DF9E076019A002ADDD0AB8849
:1042E80001331BB2AB8002EB431333602046FCF76B
:1042F800C7F828600120B8E7183303EB422301937D
:10430800EAE700BF682B00202DE9F041994D86B0FF
:10431800044605F1280694F83030042B11D8DFE85C
:1043280013F0130005005400DE00240104F11C08FA
:1043380001AA41462846FFF789FF01280ED0022826
:104348003ED006B0BDE8F0812846FFF765FD4FF680
:10435800FF732384012384F83030DCE7019F0FB119
:104368003B7863B92846FFF78FF8237ED9062AD50C
:10437800FFF752FD4FF6FF7323840223EBE70B226E
:1043880004F1310138462AF006FB0028D0D1BA8A58
:104398007B8B43EA0243784A63621268FB69A36035
:1043A8005202B3FBF2F102FB113109B113445B1A5B
:1043B800E360FB7A63762846FFF766F80323CAE7CB
:1043C8002846FFF761F80423C5E73378002BB8D1F6
:1043D8006A4FA7F1380801AA04F11C016548FFF7E4
:1043E80035FF01286ED10198002851D00378E52BBC
:1043F80001D0002BEFD1FCF77BF8614F07EB0010E1
:10440800FCF762F807F5D070FFF73EF8202200218C
:1044180001982AF093FA2346019A53F8311F116044
:1044280059685160198911819B7A9372019B627E48
:10443800DA7203A826F022F8002847D0514B03A9C6
:10444800B3F84832ADF8083002AA0846FCF772FC07
:104458009DF80E209DF80F30019943EA4213BDF8EC
:104468000C20A2F2BC7243EA42230B829DF8103062
:104478009DF81120DB0243EA42139DF8122043EA1B
:104488005203CB81019B1A8A1A83DA89DA8295E76B
:104498002B78022B97D03278002A94D109233370D5
:1044A800394B3A70C3E9002253F8281C03F8082C4A
:1044B8001A6A43F8101C43F80C2C4046FFF731FEEB
:1044C800012888D002283FF47EAF3AE7019B6FF0BD
:1044D8007E021A7447225A749873D873D2E7237EDF
:1044E8009A0608D50023112202A9E069FEF7FAFF0F
:1044F80001287FF426AF2046FFF78EFC2269237E31
:104508008AB91B0708D5214A41F29813D15C0029C2
:104518007FF417AF0721D154002384F82830E36AC9
:10452800204698470DE703F0F70113F004032176BE
:10453800E26A07D0002384F82830A1682046FFF7F4
:1045480055FCFEE61229E7D1A263626A84F83C3082
:10455800042184F82810C4E90B2263636362C4E968
:1045680002332046FFF758FCEBE600202070E36A90
:10457800D7E700BF203D0020783D0020583D0020AF
:10458800803B0020480A00205C3D0020682B00206A
:104598002DE9F341037804466BB190F82830013BCC
:1045A800082B08D8DFE803F0050A48584B5C075F7A
:1045B8006200FFF7A9FE02B0BDE8F0812D4B456807
:1045C80041F210229E5841F2182276029B581D4053
:1045D800216B204605EB0108FBF71AFF4645074605
:1045E80024D870B1D4E901329A422CBFA260A360EA
:1045F800002384F82830E36A002BDCD02046984753
:10460800D9E701AA2169207EFFF78EFB0128D2D1C4
:1046180023696361019B2361636833445B1B6360A7
:10462800236B9B1B1D4425633D46D1E76368002827
:10463800D8D10B446360D5E7FFF70AFDBBE701213A
:10464800FFF75EF90128B6D1002384F82830216CE1
:104658002046FFF74FFDAEE70021FFF751F9AAE723
:10466800FFF7DAF9A7E7FFF7BDFAA4E7FFF759FD67
:10467800A1E700BF682B0020F8B504460D46164692
:10468800002144221F462AF059F94FF6FF7363832D
:10469800012384F8283027762E49284628F054FC30
:1046A80028BB2D4B41F2DC129A58626241F2C412C7
:1046B8009A58E26003F58E521268A26041F2D11254
:1046C8009A5C627641F2B8129B5C2370069BE362A7
:1046D8002049284628F038FC00280CBF0323002373
:1046E800204684F83030FFF70FFE2046F8BD04F16D
:1046F800310304F139002A462027117809B12E29FF
:1047080016D11F7001338342F7D111782E2908BFC3
:10471800013204F13C002027117891B91F70013350
:104728009842F9D1F30666764CBF03230123CCE700
:10473800A1F1610CBCF1190F98BF20391970013231
:10474800E0E7A1F1610CBCF1190F98BF203919708D
:104758000132E4E79D490308682B002038B5134C63
:104768000023A07BE0B125688D4219D1104C03F5D8
:1047780081751AB904EB0514A27138BD04F118014A
:1047880001EB43239A4209D1831E5842584104EB56
:104798000514FFF78FFA0123A371EEE70020F6E76F
:1047A8000133082B04F11004DBD1E6E7803B00203D
:1047B800682B0020034BD3F86C0208B1C369184773
:1047C800704700BF401B0020034BD3F86C0208B1B0
:1047D80083691847704700BF401B002008B5054B88
:1047E800186D28B123F0DFFB80F00100C0B208BDCE
:1047F8000120FCE7480A002010B5FFF7EFFF0C4C3A
:1048080018B9002384F8243010BD94F82430032B01
:1048180003D90021606D23F06DFD237E0133DBB2E7
:10482800072B2376EDD8D4F8703263610123E9E7CA
:10483800480A002070B51A4C94F82430042B054619
:104848000E4610D1FCF714FB00213720FCF75CFC66
:1048580031461720FCF758FC88B1FCF72BFEFFF710
:10486800CBFF032002E0082B01D0012070BDE369D3
:10487800834211D0FCF702FC0228F6D1E2E7A37EBE
:1048880063B969021920FCF73FFC0028E5D1C4E9A7
:104898000756082384F824300220E7E72946F1E781
:1048A800480A00202DE9F743244E05460F46914655
:1048B8009846344696F82430042B0AD0082B06D1A3
:1048C800F369AB4218D0FCF7D9FB0228F2D00120DB
:1048D8000DE0FCF7CDFAB37E63B969021820FCF746
:1048E80013FC48B1FCF7E6FDFFF786FF032003B091
:1048F800BDE8F0832946F1E794F82430606D082B71
:104908000CBFFC23FE23FF228DF804208DF8053010
:1049180001AA0223002123F0A3FC80233A460021A8
:10492800606D23F09DFC012323720623C4E9007502
:10493800C4E9039884F824300020D8E7480A002006
:104948002DE9F043C44C606D85B0002800F08081EB
:10495800C24D04F1400694F82430013B082B00F2C4
:104968006281DFE813F009003C00C00060018101AA
:104978000D0148016001AE01FCF77AFA00210846F2
:10498800FCF7C2FB8046FCF795FDB8F1010F40F03B
:104998004A8100276776FCF76BFA40F2AB110820D2
:1049A800FCF7B2FB05280BD184F81980FCF782FDCF
:1049B800637E002B00F02E81022384F82430CAE79E
:1049C8000128F3D104233A466946606D23F048FC78
:1049D8009DF80330AB2B04BF02236376E6E7FCF7B0
:1049E80047FA637E022B0CBF4FF080470027002157
:1049F8003720FCF789FB39462920FCF785FB074659
:104A0800FCF758FD002F40F00E81637E022B37D152
:104A1800FCF72EFA39463A20FCF776FB0423804649
:104A28003A466946606D23F01BFCFCF743FDB8F17C
:104A3800000F02D0FFF7E0FE8DE7009B1BBAC3F31F
:104A48008073A376FCF714FA00210920FCF75CFBBD
:104A580098B910213046FCF737FB804668B9012128
:104A68007F20FBF78DFB0128074606D1022140462F
:104A7800FBF786FB30B101282AD0FCF71BFDD2E0FA
:104A8800A776DFE704212C20FBF77AFB0321814678
:104A98004E20FBF775FB0C2180463620FBF770FB98
:104AA80008F10208013000FA08F007FA09F7A0FB3C
:104AB8000701430A43EAC153A362FCF7FBFCFCF776
:104AC800D7F900210A20FCF71FFB48B9032374E734
:104AD80016213A20FBF754FB01308002A062ECE774
:104AE800FCF7E8FCA6E710216846FCF7EDFA002879
:104AF80040F099809DF800309DF8012084F82E3010
:104B08009DF8023043EA0223A3859DF8033084F818
:104B18002F30019B23639DF808301A0903F00F0317
:104B280084F83930DDF8093084F838201BBA63631B
:104B38009DF80D309DF80E201B01DBB243EA1213DD
:104B480003F5FA6302F00F02638784F83C20FCF750
:104B5800B1FCA37E63B9FCF78BF94FF40071102008
:104B6800FCF7D2FA0746FCF7A5FC002F7FF462AFEA
:104B78000221606D23F0BEFB0023236204231CE79F
:104B8800217A2268606D802302EBC112002123F094
:104B980067FB237A0133DBB2042B237243D1022350
:104BA8002A460021606D23F05BFB01230022694641
:104BB800606D23F055FB9DF8003003F01F03052BB3
:104BC8000DD10723E56884F82430D4F87032636186
:104BD8004DB3D4E9002123690120A84723E0FFF75A
:104BE8000BFEE768002F3FF4B6AE23696168002228
:104BF8000120B847AFE6FCF713FA002868D0002375
:104C08002376236A012B08D9013B2362E369013328
:104C1800E361082384F8243005E021D1FCF72EFA5B
:104C280002283FF42AAF94F82430013B022B07D81E
:104C3800D4F8703262699B1AC82B01D9FFF7DCFDE2
:104C480094F8240004284BD0A0F108035842584196
:104C580005B0BDE8F08300BF480A00206BFB0208DE
:104C6800042384F8243008E74FF400712068FCF727
:104C78002BFA01281ED047B277B10228D3D1FCF70E
:104C880019FCFFF7B9FDE768002F3FF464AE002276
:104C9800236961681046ACE7FCF70CFCE5682776E9
:104CA800042384F82430002DBDD02369D4E90021E1
:104CB800384692E76369D4F8702264339342DED3AE
:104CC800B1E7FCF7ADF918B1FCF7F4FB0423A1E751
:104CD8006369D4F87022FA339342FFF4ABAEA2E7CB
:104CE8000120B5E7036C806B23B15B6801211A7A58
:104CF80027F0E9B9012127F025BA8379806BDB0712
:104D080048BF81F0010109B123F08DB823F086B8BE
:104D18002DE9F74FA14BD3F8709299F8102002F0C3
:104D2800FF06002A40F0368103F27A2493F87622AF
:104D380093F8771293F878020094A3F87462B04657
:104D48003446B6463C250193009BDF789B78C3F137
:104D5800FF031FFA83FABAF1000F00F01581009BD8
:104D6800B3F800C0CAF1FF037B434FF03C0B1B12A2
:104D7800BCFBFBFBBBF1050F25D8DFE81BF00600E9
:104D88001000C800D500E700F400D8B2F91A0CFBEF
:104D980001F1B1FBF5F10144C9B23A4610E0BCFBA0
:104DA800F5F205FB12CC1FFA8CF2C2F13C0CD8B21A
:104DB800FA1A02FB0CF2B2FBF5F20244D2B23946FF
:104DC80001242646A6464FEA022B4BEA014B4BEA42
:104DD800000B002308EB03071FFA87FAC3F1170C2F
:104DE800012707FA0CFC1CEA0B0F08BFBC46019F01
:104DF80003F1010307EB4A0718BF4FF0020C182B09
:104E0800A7F8FAC2E6D1009B08F118081FFA88F83B
:104E18000433B8F5407F009396D1019BA3F84E89DF
:104E2800BEF1000F01D083F8762216B15B4B83F8F0
:104E3800771214B1594B83F87802584A2023A2F804
:104E4800743292F85039002B00F0A480EFF31182ED
:104E5800102383F31288D9F80C10D9F80440886815
:104E6800036823F001031B041B0C036020684C4BF0
:104E78006479C56833F814304C68DB439BB22B4027
:104E8800C3600B69022000FA03F36360D3B283F3B3
:104E98001188D9F80C309B6840F22A325A601A6897
:104EA80042F001021A60012389F810303B4BD3F815
:104EB80070120A68137D012B08BF107592F82C0038
:104EC8000CBF4FF400730023012804BF022082F8AE
:104ED8002C0092F8440008BF43F48063012804BF03
:104EE800022082F8440092F85C0008BF43F4006393
:104EF80001284DD1022082F85C0043F480534A68AF
:104F0800126800215162D1680B43D36042E0BCFBB8
:104F1800F5F005FB10C0DAB280B2FB1A5843B0FBBB
:104F2800F5F01044C0B24AE7BCFBF5F105FB11CC23
:104F38001FFA8CF1C1F13C0CDAB2F91A01FB0CF141
:104F4800B1FBF5F11144C9B2384639E7BCFBF5F2BB
:104F580005FB12C2D9B292B2FB1A5A43B2FBF5F260
:104F68000A44D2B2F0E7BCFBF5F005FB10CC1FFAFF
:104F78008CF0C0F13C0CD9B2F81A00FB0CF0B0FB75
:104F8800F5F00844C0B208E7384639463A4617E70C
:104F9800002BB4D103B0BDE8F08F00BF401B002048
:104FA800B0F90208024B0348D3F89419FBF770BF15
:104FB800401B002000480140024B0348D3F88C19DD
:104FC800FBF766BF401B002000400140024B03482E
:104FD800D3F87019FBF75CBF401B00200034014078
:104FE800FFF7F4BF024B0348D3F86019FBF750BF33
:104FF800401B002000080040024B0348D3F85C190E
:10500800FBF746BF401B002000040040034B4FF055
:105018008040D3F85819FBF73BBF00BF401B002066
:1050280010B5064C0648D4F85419FBF731FFD4F8EC
:1050380090190448BDE81040FBF72ABF401B002028
:10504800002C014000440140024B0348D3F8541996
:10505800FBF71EBF401B0020002C014010B5436821
:105068001A685879074B0344012493F8BD31106A34
:105078009C4020EA04001062106A994001431162C2
:1050880010BD00BFB0F9020810B5837913F0010F05
:1050980003F020020446C36B11D05B68002A1A7A19
:1050A80014BF02214221606B27F00DF8012184F81A
:1050B8006012A4F85C12E06BBDE81040CEE75B68B4
:1050C800002A18BF02211A7A08BF2221EBE7436899
:1050D8005A79032A0FD8DFE802F00205080B18688E
:1050E8003430704718683830704718683C3070475B
:1050F80018684030704700207047F0B542689479CE
:1051080014F0040004F002030BD000241E46A64647
:10511800042523465079032842D8DFE800F00942E5
:1051280073A39E464FF48074064605460123F1E7B3
:105138001268106A20F001001062106AD2F804C0E8
:1051480097694EEA030320F002001843584B27F4EE
:10515800803727F073079A4247F060070FD003F5AE
:1051680000639A420BD003F540639A4207D003F5D7
:1051780080639A4203D003F580639A4207D120F0F6
:105188000C0030432CF4407C284344EA0C0CC2F851
:1051980004C0976151631062936943F008039361F7
:1051A800F0BD1268106A20F010001062106AD2F880
:1051B80004C097694EEA030320F0200040EA031078
:1051C8003B4B27F0807727F4E6479A4247F4C047DD
:1051D80003D003F500639A420BD120F0800040EA27
:1051E800061020F040002CF4406C40EA05104CEA10
:1051F800840CC2F804C0976191631062936943F408
:105208000063CCE71268106A20F480701062106A9C
:10521800D2F804C0D76920F400704EEA030340EACC
:105228000323234827F07307824247F0600703D01F
:1052380000F5006082420BD123F4006343EA0623A1
:1052480023F480632CF4405C43EA05234CEA041CF5
:10525800C2F804C0D761D1631362D36943F008036D
:10526800D3619DE71268106A20F480501062166AB4
:105278005568D06926F400564EEA030346EA03331C
:105288000B4E20F4E640B24240F4C04003D006F58D
:105298000066B24203D125F4804545EA841555607D
:1052A800D06111641362D36943F40063D8E700BF87
:1052B800002C0140F0B54768494B7879184400291B
:1052C80090F8BD614FF0010414BF0020022003F5DF
:1052D800E27353F824108A421CD2651E3B68F6B963
:1052E8001A6A22F001021A629C691A6A24F0F3040D
:1052F80022F00A0244EA051440F00101114344F087
:1053080001049C6119629A6922F00C029A619A69F7
:105318009A61F0BD0134102CDBD10F25DEE7042E95
:105328001BD11A6A22F010021204120C1A629A692E
:10533800196A21F0A001090422F47342090C42EA17
:10534800053241EA001142F4807241F010019A617D
:1053580019629A6922F44062D8E7082EACB21A6A38
:1053680020D122F480721204120C1A62DA69196AC6
:1053780092B289B222F0F30242EA041221F42061C7
:1053880092B241EA002142F0010241F48071DA61EF
:105398001962DA6922F00C021204120CDA61DA6975
:1053A800DA61B6E722F480521204120C1A62DA6942
:1053B800196A22F44072120521F40051120D4904B1
:1053C80042EA0432490C92B241EA003142F4807256
:1053D80041F48051DA611962DA6922F44062DBE74C
:1053E800B0F9020838B583681C686379DB0723D5F0
:1053F80094F85C32A57903B3E06B43681A68D36A02
:10540800C3F34E03536294F86D32012B07D094F81E
:10541800613223B1B4F868320133A4F86832E94341
:10542800002201F00101FFF745FF0023A4F86632CE
:105438004FF08073C4F85C3238BD94F85F32012BAA
:1054480004BF94F85D3284F85E322046FBF7DFF83B
:1054580094F85F2242B90123E94384F85F32194086
:10546800E06BBDE8384025E7002284F85F2205F0AC
:105478000101F5E738B583681C6863799B0717D580
:1054880094F86152002D57D1A36A626A94F86012A9
:105498009A4227D161B9A3791D0709D5236CA06B5E
:1054A800E3B15B681A7A26F00EFE2046FFF7ECFDA2
:1054B8006379D90740F1938094F85C32002B40F06F
:1054C8008E8094F85D320133DBB2092B84F85D32AB
:1054D80048D12046BDE83840FBF799B8194626F070
:1054E80031FEE2E75A1CA069A262C35C20695B0036
:1054F80043F40073A4F864320A23824228BF2A4680
:1055080084F862320123A26284F861320029CFD084
:10551800A3791807CCD52946E06BFFF79FFDE36B0D
:10552800606B5B6829461A7A26F0CDFD84F86052D4
:105538002046FFF7D7FBBBE794F962327BB1B4F89A
:1055480064124B08A4F8643201F001012046FFF709
:10555800D4FB94F86232013B84F86232A8E784F8FD
:105568006132A5E70A2B3AD194F85F322BB9B4F827
:10557800663243F00103A4F86632B4F86602820585
:1055880001D4C30718D4B4F86A320133A4F86A32D4
:1055980094F85F5201239D42A4F85C321FD1A1798F
:1055A800E06B0022194084F85F22FFF783FE29464A
:1055B800E06BBDE8384051E5E36AC0F3470013B13A
:1055C800216B9847E4E7E3696269D054E369E168CD
:1055D8000133B3FBF1F201FB1233E361D8E738BDC5
:1055E80038B503681B681C68284B07EE102AD3EDF2
:1055F8002C7AB8EE477AF8EE677A013987EE870A8F
:105608008DB2DFED237A30EE270A29F011FA214A0C
:1056180023880138944280B29BB20ED002F5006212
:1056280094420AD0B4F1804F07D0A2F59832944240
:1056380003D002F58062944202D123F070039BB23A
:10564800154A944206D002F5806294421CBF23F4A6
:1056580040739BB223800F4BE5629C4220850FD09C
:1056680003F500639C420BD003F540639C4207D0CE
:1056780003F580639C4203D003F580639C4201D10B
:10568800002323860123636138BD00BF000000208A
:105698000AD7233C002C0140001000400E4BD3F8E1
:1056A800B02010B513460446B3FBF1F0B0F5803FC7
:1056B80003D3012BFAD95B08F6E781B22046FFF73E
:1056C8008FFF2046FCF714FE63681A68138843F0BE
:1056D8000103138010BD00BF000000208160C06B73
:1056E800DCE700B5A9B0684626F0BEFF14A826F08E
:1056F800BBFF144A149B1449B3FBF1F30021C2F811
:105708009839C2F89C19114AD36843F08073D36062
:105718000F4A136843F001031360009B4FF47A7239
:10572800B3FBF2F3013BB3F1807F08D2094A53601F
:10573800094BF02083F8230007239160136029B0F8
:105748005DF804FB401B002040420F00F0ED00E034
:10575800001000E010E000E000ED00E072B600226A
:105768004FF0FF31930003F1604303F561430132C9
:10577800082AC3F88010C3F88011F3D1034B044AF8
:105788001A60044B044ADA60704700BFFC9F00208F
:10579800EFBEADDE00ED00E00400FA0572B60022AF
:1057A8004FF0FF31930003F1604303F56143013289
:1057B800082AC3F88010C3F88011F3D1014B024ABC
:1057C800DA60704700ED00E00400FA050148FBF7D5
:1057D8006DB800BFE02400200148FBF767B800BFA0
:1057E800182500200148FBF761B800BF50250020AC
:1057F8004268034B9A420CBF20202120FCF75ABD77
:10580800000002400348D0F8203213B100F50570BB
:1058180018477047000000200348D0F8003213B141
:1058280000F5FA7018477047000000200348D0F8C8
:10583800E03113B100F5EA70184770470000002006
:105848000348D0F8C03113B100F5DA701847704733
:10585800000000200348D0F8A03113B100F5CA7049
:1058680018477047000000200348D0F8803113B172
:1058780000F5BA7018477047000000200348D0F8B8
:10588800603113B100F5AA70184770470000002076
:105898000348D0F8403113B100F59A7018477047A3
:1058A800000000200348D0F8203113B100F58A70B9
:1058B80018477047000000200348D0F800310BB1AA
:1058C800F4301847704700BF000000200348D0F8A4
:1058D800E0300BB1D4301847704700BF00000020FB
:1058E8000348D0F8C0300BB1B4301847704700BF38
:1058F800000000202DE9F047BE4FDFF80883182686
:1059080006FB00FA07EB0A04B9462546D8F80C301E
:1059180043F08073C8F80C3007EB0A02B64B92F9D3
:10592800481A5868B54B92F84A2A03EBC103013A62
:10593800D3F83432102A00F2EB80DFE812F01B00B3
:10594800230028004B005F006A0072008C00A8004A
:10595800C50006010C0114011F013901460111009F
:10596800B9F8903A01339BB2A9F8903A002384F829
:105978004A3ACDE0996911F0200100F08C8020228C
:10598800DA61F3E70322C5F84C0A85F84A2A9B69CD
:10599800190404D494F8523A8BB10A23E7E7984BD8
:1059A800D4F84C1AD3E90023401A002128F002F950
:1059B80042F20F73984240F3AB801123D7E794F873
:1059C800533AFF2B04D194F8503A0BB10823CEE791
:1059D8000423CCE75A6894F8511A22F07F7222F413
:1059E800593222F47F7222F003020A4342F49032C1
:1059F8005A60052284F84A2AC4F84C0A9A69920720
:105A080005D4996911F0100145D01023AFE706239A
:105A1800ADE795F8532A9A62072285F84A2AC5F80D
:105A28004C0A9A695606ECD5D4F8542A002ACDD1E6
:105A38005A6894F8511A22F07F7222F4593222F4EB
:105A48007F7222F003020A4342F0007242F480425D
:105A58005A6001238BE75A6894F8511A22F07F7232
:105A680022F4593222F47F7222F003020A43D4F856
:105A7800541A090401F47F010A4342F0007242F407
:105A880010525A60092284F84A2AC4F84C0A9969C3
:105A980011F0040106D15A4BD4F84C6AD3E900231B
:105AA800801B83E7D4F8582A5B6A511CC4F8581A3B
:105AB8001370D4F8543A013BC4F8543A002B41D13E
:105AC800012384F85C3A3BE095F8532A95F851CACB
