:020000040800F2
:1000000000000110A1E9030873400008D5A402080C
:100010005DEA03085DEA03085DEA030800000000EA
:100020000000000000000000000000007140000817
:100030006F400008000000006D40000853A0030856
:100040005DEA03085DEA03085DEA03085DEA030868
:100050005DEA03085DEA0308BDA30308CDA3030816
:100060005DEA0308C9A30308C5A30308E15E00080D
:10007000CD5E0008B95E0008A55E0008915E00082C
:100080007D5E0008695E00085DEA03085DEA03081A
:100090005DEA03085DEA03085DEA0308C1A30308FB
:1000A00021600008F95F0008D15F0008496000087E
:1000B000BD5F0008A95F0008955F00085DEA0308BE
:1000C0005DEA03085DEA03085DEA03085DEA0308E8
:1000D0005DEA03080D6A00085DEA0308016A00088A
:1000E000B9A303085DEA0308296F0008455F00080B
:1000F0001D5F0008F55E00086D5F0008555E000892
:100100005DEA03085DEA0308815F00085DEA030811
:100110005DEA03085DEA03085DEA03085DEA030897
:10012000415E00082D5E0008195E0008055E0008AB
:10013000F15D00085DEA03085DEA03085DEA030873
:100140005DEA03085DEA03085DEA0308C13A0008B6
:10015000DD5D0008C95D0008B55D0008F7690008AD
:100160005DEA03085DEA03085DEA03085DEA030847
:100170005DEA03085DEA03085DEA03085DEA030837
:080180005DEA03085DEA0308D3
:1001880030B5002301385A1C845C64B9DBB20A4AD2
:1001980001335B000B80137003235370022310F8A4
:1001A800015F15B930BD1346EDE7591CC9B2D554E6
:1001B8000233DBB25454F2E7481600202DE9F04F21
:1001C8002DED108BDFEDAF5A8DB002230090039117
:1001D8000B9201910293B0EE655A019B009AD908DF
:1001E8004FEA411902EB090CCA00182008926FF077
:1001F80017024A4300FB01F428200CEB0207049481
:1002080000FB01F4079430200C0107EB0906B51830
:10021800069400FB01F43820059400FB01FB05EB74
:10022800090400982244DB0002EB090800F1040EDF
:100238004FF0000ADCED007A1EED017AD7ED003AA6
:10024800D5ED004A98ED003AD2ED002A77EE276AFC
:1002580037EE677AD6ED007A33EEA76A73EEE73A9F
:10026800D4ED007A34EEA74A74EEE77A72EE834A48
:1002780036EEC48A36EE640A76EE846A36EE246A6E
:1002880072EEC32A76EE864A76EEC66A4EED014ACB
:10029800CCED006ADEED004A9CED016A97ED014A5B
:1002A80095ED013AD8ED011A74EE866A34EEC66A05
:1002B800D6ED014A34EE242A34EE644AD4ED014ADC
:1002C80033EE241A73EE644A92ED013A73EE210A72
:1002D80033EE613A76EEC11A76EE816A32EE601A32
:1002E80032EE202A76EE820A76EEC26ACEED000A57
:1002F800CCED016A78EE016A38EE412AC5ED006A54
:1003080071EEC06A84ED002AC5ED016A70EE216ABB
:1003180034EE432AC4ED016A73EEA26A73EEE21A60
:1003280034EE034AF0EE673AE6EEE53A9C441D44A3
:10033800E6EEA57A1C449E44F0EE462AF0EE466AA4
:10034800B0EE646AB0EE473AA4EE256AA1EEA57A4B
:10035800E2EE652AE2EE256AB0EE642AA1EEE53AFD
:10036800A4EE652A77EE064A37EE467AC7ED004ACC
:1003780088ED007A33EE027A33EE423A86ED007A5F
:1003880036EEE77A77EEA67A82ED003A87ED017AC3
:10039800C8ED017A72EEE37A73EEA23AC6ED017AFD
:1003A800C2ED013A01988244039850451F441E4407
:1003B8001A4498443FF63EAF072940F26881009AF4
:1003C80000984A440A92089A02440992079A0244F9
:1003D8000892069A02440792059A02440692049AE1
:1003E800024405920BEB000204924FF001094FF012
:1003F800000A029A92440B9A4FEACA042244D2EDA8
:10040800001A224492ED008A2244D2ED004A224486
:1004180092ED009A2244D2ED003A22446FF02F0068
:10042800D2ED000A2244D2ED002A00FB0A2292ED06
:10043800011A00982244D2ED018A224492ED014A21
:100448002244D2ED019A224492ED013A224492EDDF
:10045800010A224492ED012A4FEAC90200EB020880
:100468000A9800EB020E099800EB020C089887180E
:100478000798861806988518059884180498CB4616
:10048800024401E0F304353FDEED007ADCED006A5A
:1004980097ED007A98ED00AA96ED00BA94ED00EA7F
:1004A8003AEE276A36EEC7DA3AEE67AA76EE877A28
:1004B800D5ED006A3BEE267A3BEE66BAD2ED006ACD
:1004C8007EEE26AA36EE47FA77EEEAEA36EE076AB5
:1004D80077EEAA7A3EEE66EA36EE277A76EE67AAD5
:1004E80088ED007A98ED016ADEED017ADCED01CA4B
:1004F800D6ED016AD4ED01FAD2ED01DA36EE277AAB
:1005080076EE67BAD7ED017A3CEEA76A7CEEE7CAC9
:10051800D5ED017A36EEA7CA76EEE77A7FEEAD6AB8
:100528007FEEEDDA77EE4CFA37EE0CCA36EE667AE5
:1005380036EE266A7FEE076A3FEE477A3CEE06FA09
:100548003CEE46CA88ED01FA29EE8C6A3FEEEEFAD7
:10055800A9EE2A6A98447EEEAFEA8EED006A2AEE8A
:10056800E96A7DEE4EAAA9EE0C6AB0EE4ACA8EED93
:10057800016A28EE8F6AAAEEC5CA9E44A8EE266ACA
:1005880066EEE86A86ED006AE8EE0F6A3CEEED6A10
:10059800C6ED016A60EE2E6AAAEE85AA1E44E0EE58
:1005A800876A27EE407AC5ED006AA0EEAE7A7DEE46
:1005B8000E6A85ED017A3CEEAD7AF0EE6BCAE6EE96
:1005C80005BA1D44E6EE45CAB0EE6B6AF0EE67BAAE
:1005D800E7EE45BAE7EE057AF0EE4BAAA6EE85BA45
:1005E8003CEE2B7AE6EEC5AA7AEE276A7AEE677AAF
:1005F8003CEE6BAA36EE4BCA3BEE066A61EE0CBACD
:100608003CEEEABAE1EEA6BA66EEC16ACCED00BAF3
:10061800E1EE8C6A7AEEACAACCED016A62EE066A6B
:100628009C44E2EEA76AC2ED006A67EEC26A63EE16
:100638000B7AE2EE866AE3EE877AC2ED016A27EE6C
:10064800437AC7ED007A64EE2A7AA3EE8B7A1A44CD
:10065800E4EE8A7A87ED017AC4ED007A6AEE447A8C
:100668001F44E4EEAA7AC4ED017A01988344039802
:1006780058451C443FF608AF09F1010949457FF484
:10068800B8AE029BDB009BB2CDE90113A5E50DB026
:10069800BDEC108BBDE8F08F30B50D4B00F00704B2
:1006A800C0081D181B5CA340DBB20020C4F108027F
:1006B8008A4228BF0A46C2F1080423419040891A99
:1006C80040EA03004FF0000415F8013FEED130BDB9
:1006D800BC160020F0B59F083F010D461446C61908
:1006E800B04205F1100504F1100408D103F003032A
:1006F80039443A4406EB83039E4223D1F0BD844635
:100708009CED006A15ED045AD0ED016A55ED037AA7
:1007180090ED027A55ED025A26EE056A66EEA76A52
:10072800D0ED037A04ED046A15ED016A44ED036A1D
:1007380027EE257A67EE867A103004ED027A44EDCA
:10074800017ACDE7F6EC017AB1EC017A67EE877AA7
:10075800E2EC017AD0E7012380F849307047054B75
:10076800D3F88C0020B1D3F88C00431F584258416D
:10077800704700BF48160020064AD2E924138B426E
:10078800FDD0D1180133C3F30A03C2F8943091F8AD
:100798009800704748160020044BD3E9243098424B
:1007A80088BF03F50063181A704700BF4816002079
:1007B800012070477047704730B5114CD4E9243296
:1007C8009A4286BF03F50065AA1A9A1A0A44B2F536
:1007D800006F12D801440022814204D10AB1C4F842
:1007E8009030002030BDE21810F8015B82F8985074
:1007F8000133C3F30A030122EEE70220F2E700BF48
:1008080048160020064AD2F89838D2F89C28934215
:1008180094BF4FF400600020013B9B1A18447047B6
:1008280048160020EEE7212838B50C461BD02228B0
:100838002BD0202815D1A1B1072A12D1194DD5F8EE
:10084800A03813B10968002098472368C5F8A43870
:10085800237985F8A838637985F8A938A37985F8C4
:10086800AA38002038BD0029FBD0072AF9D10D4B42
:10087800D3F8A4280A6093F8A8280A7193F8A9283D
:100888004A7193F8AA388B71EBE70029E9D0022A5C
:10089800E7D1044BD3F8AC38002BE2D0098800200C
:1008A8009847DEE748160020024B0020C3F88C006A
:1008B800704700BF48160020044B00200522C3F8EB
:1008C8008C20C3F8AC08C3F8A0087047481600206D
:1008D800704770477047704770477047704708B552
:1008E8000248FFF74DFC024808BD00BF408F0408CE
:1008F8004816002008B50248FFF742FC014808BD29
:100908004E8F04084816002008B50248FFF738FC47
:10091800014808BD598F04084816002008B5024848
:10092800FFF72EFC014808BD638F04084816002015
:1009380008B50248FFF724FC014808BD688F040881
:100948004816002004230B80004870470000002050
:1009580012230B800048704704000020044B41F22A
:10096800B4110122585C00B95A545A70704700BF3C
:10097800E06100200378022B08D10E4B1A68436807
:10098800B3EB422F2CBF012000207047006970B1E3
:10099800094B1B78032B0EBF084B80B24FF6F77339
:1009A800984294BF0020012000F001007047012008
:1009B800FAE700BF00740020E0610020F7FFFF0F96
:1009C800074B1B78022B0BBF030AC0F3D413C0B22A
:1009D80000F07F000CBF0B600B601060704700BF19
:1009E800E061002010B5037841680F4A022B0AD154
:1009F80041F20423D35802F59052106800EB4300EB
:100A080000EB512010BD036941F21020023B14583D
:100A180041F2182010580840400A04FB030041F234
:100A28000C23D3581844EDE7E0610020837B042BA6
:100A38000DD0074B41F298015A5801325A50426082
:100A480041F29C01042282735A5801325A5070476D
:100A5800E061002008B5064BC01A48BF00F2FF103D
:100A68004012072803D9FFF779FF4FF0FF3008BD80
:100A7800F861002000487047A4160020034B93F843
:100A88005800032894BF0020012070474816002012
:100A9800034B93F85800003018BF0120704700BF7F
:100AA800481600202DE9F04FDFF8708185B0CDE9B8
:100AB8000212B8F8BE28D8F8B048B8F8BA681302D5
:100AC8004FEA126EB8F8BC28E41A6EEB4E0EA2FB81
:100AD800040102FB0E11C209B8F8B80842EA4162E3
:100AE800CD110104030C5218A6FB040106FB0E11DC
:100AF800B8F8B66843EB0505030AB8F8C00843EA36
:100B080001634FEA212C710CF6039B19A0FB0467C3
:100B18004CEB010C00FB0E77F10D41EA4721F8156B
:100B280011F5FA6A40F1000BBAF5FA6F01907BF102
:100B3800000053DA0198A1FB0167484307EB40071F
:100B48000520A6FB008900FB07994FEA580040EAF8
:100B5800C970121A4FEA98004FEA690640EA89708C
:100B680065EB06051B1A4FEAA9066CEB060C2A4E24
:100B78004FF0FF37B2457BEB070024DA019E40F6C1
:100B8800AC5008184FF0000146EB010800FB08F8CC
:100B9800A0FB000101EB4801CE00C700C71B46EAD5
:100BA800507661EB06064FF00B08D21946EB0505A7
:100BB800A0FB086708FB0177710841EAC771781044
:100BC8005B1A6CEB000C04FB0EFEA4FB040101EBAA
:100BD8004E01C40F44EA4104BAEB040A029999B1E0
:100BE8000E49D1F8C448A4FB030104FB0C11430DC2
:100BF80043EAC1239A1A4FEA615464EB0505D20B04
:100C0800029B42EA45421A60039B0BB1C3F800A05D
:100C1800012005B0BDE8F08F24FAFFFF4816002038
:100C28002DE9F041344DB5F8D648B5F8C838B5F9CE
:100C3800E008B5F9D068B5F9CEC8B5F9DAE8B5F97C
:100C4800E8781B1BB5F8D4485C43E313B5F9DE48D4
:100C58001844E40294FBF0F41C44A4F57A6303FB03
:100C680003F003FB0CFC7343B5F9D868C5F8E448F6
:100C7800001300FB0EFE7043001400EB63300230DB
:100C88004FEAEC2606EBEE268010B5F8D238B5F917
:100C9800CCE800F50040434306EB8E064FEAD33814
:100CA800BE40D5F8EC3802364CF25030A3EBA6061D
:100CB80040FA07F3734355BF5B00B3FBF8F3B3FB8C
:100CC800F8F35B0079B1181200FB00F540F6DE304E
:100CD80068430A4D00145D4300EB254000F6CF60E1
:100CE80003EB20130B6022B10A235C430834241160
:100CF80014600120BDE8F0814816002043E3FFFF9F
:100D08002DE9F74F704D9146D5F8F048B5F8F4281D
:100D1800C2EB24135200C2EBE402B5F9F6485B4378
:100D28006243B5F9F8481B135C43A41304EBE224AF
:100D3800B4F5FA3E8846AEFB0E12CDE900124FEA32
:100D4800E47343F1FF3C019AC5F80C490EFB0CF320
:100D580002EB4303B5F9FC28019302FB0CF1D3170E
:100D68000EFB0311A2FB0E230B44190341EA125197
:100D78001003019EB5F9FE2802FB06FA009ED31760
:100D880006FB03AAA2FB062353444FEA122A4AEAA7
:100D9800036AB5F8FA284FEA232B1AEB00004BEB4D
:100DA800010B00304BF5004BA0FB020102FB0B11BD
:100DB8004A10CB1752EA030100F08480B5F9040900
:100DC800019E00FB06F7009EC11706FB0177A0FBFA
:100DD8000601B5F90269394406FB0CFCF7170EFB4E
:100DE80007CCA6FB0E6767444FEA474E4FEA464CCE
:100DF8001CEB000C4EEAD63E4EEB010ED5F810194E
:100E0800B5F90069C1F58011CF174FEAC77A4AEAE8
:100E1800510AC807002111EB0C014FEAC60747EB3E
:100E28000E0E40F63546401A6AEB0E0AA0FB060184
:100E380006FB0A113DF0CAFBB5F90A294E13470B08
:100E480047EAC14702FB06FCD31707FB03CCA2FB0A
:100E580007236344564307FB0366A2FB0723334477
:100E6800560E46EAC316B5F9082936184FEA6367DD
:100E780041EB0707D317514300FB0311A2FB0023E3
:100E88000B44D10C41EA4331D814761840EB0707DC
:100E9800B5F90609320A42EA076203011344B8F1B8
:100EA800000F02D01B0AC8F80030B9F1000F05D0B6
:100EB80004EB840480342412C9F80040012003B0F4
:100EC800BDE8F08F0023EAE74816002001207047AC
:100ED800012070474FF40063838170474FF400632B
:100EE80083817047036941681F2B4FF0200230B59A
:100EF80085BFA3F120054C680C68AA4098BF9A40AA
:100F0800224214BF01220022EAB182690020107433
:100F1800D0688468206820F0010020605468206848
:100F28006579094C828934F815401F2B22EA04029E
:100F3800828188BF203B4FF020028BBF9A4002FA83
:100F480003F3CA608B6030BD08200408BFF34F8FDD
:100F58000549064BCA6802F4E0621343CB60BFF34D
:100F68004F8F00BFFDE700BF00ED00E00400FA0569
:100F7800436B99891A88890610B592B2044606D53A
:100F8800900604D5E26A1AB39888216B9047636B80
:100F980099891A88090692B20FD510060DD5D4E999
:100FA80009128A4222D0A1692069895C998001329C
:100FB800B2FBF0F100FB1122A262998A1A88C905D6
:100FC80092B204D5D20744BF4FF6F7721A8010BD0B
:100FD8009B88E2696169DBB28B54E369E16801339C
:100FE800B3FBF1F201FB1233E361D0E7DA6822F0D8
:100FF8008002DA60E1E7D0E90920131A5842584123
:1010080070474171704743799B070AD5436A8269E3
:10101800D154436A01690133B3FBF1F201FB123386
:1010280043627047437913F002031FBF0369D0E995
:10103800092003F1FF33101A1DBF1840C0B2181A57
:1010480018467047437913F001031FBFD0E90732F0
:10105800C0689B1A00F1FF3014BF1840184670474B
:1010680010B5437913F0010301460ED0FFF7EAFFEC
:1010780050B10B6A4A69CC68D05C0133B3FBF4F217
:1010880004FB1233C0B20B6210BD1846FCE790F89F
:101098005F3230B53BB990F85D1290F85E320124AA
:1010A800DAB2914200D830BDB0F8665204FA03F2C1
:1010B8002A43A0F866220133F2E7F0B5224A034634
:1010C80087B0154614460027012095F806E0A3EBE3
:1010D8000E0605F1060C002EA3EB0705B8BF7642F5
:1010E800002DB8BF6D42AE4200F10100BCBF4FFAFF
:1010F8008EF7644610286546E7D100201578BD4272
:101108000CD1668855888E1B4D1B002EB8BF7642C1
:10111800002DB8BF6D42AE42C8BF1446013010283A
:1011280002F10602EAD16279049222790392628876
:10113800029222780120CDE90012044A03213AF0F4
:10114800F5FE204607B0F0BD10200408738F040890
:1011580037B50A4D0824012300220DF10701D5F8FF
:10116800880039F0A3FB9DF80730FF2B02D101203E
:1011780003B030BD013CEED12046F9E74816002007
:1011880073B50A4E451C0024012300220DF1070106
:10119800D6F8880039F08AFB9DF80700FF2802D1AD
:1011A8000134AC42F0D102B070BD00BF4816002037
:1011B80037B5104B104D1B88ADF8043000240223BE
:1011C80001AA2146D5F888006C6539F06FFB01202B
:1011D800FFF7D6FFFF281FBF092385F85830D5F839
:1011E8001439AB6405BF04230220204685F8583023
:1011F80003B030BD702004084816002070B50546BD
:1012080008200E46FFF7BCFFFF2812D0FE2812D197
:101218000A4C334600222946D4F8880039F046FBA8
:10122800002202231146D4F8880039F03FFB002041
:1012380070BD0120FCE70220FAE700BF4816002035
:1012480013B540F040038DF800300B0E8DF80130D7
:101258000B0C8DF802300B0A8DF8033095230446E9
:101268008DF804108DF80530FFF772FF00B964B9E6
:10127800074806236A460021D0F8880039F016FB93
:101288000820FFF77DFF02B010BDFF20FBE700BF7D
:1012980048160020104B70B51E4693F81829002AEE
:1012A800FBD104464518AC4201D1002070BDD6F8E8
:1012B8009C3814F8011BF2180133C3F30A0382F8AF
:1012C8001919C6F89C38FFF79DFA0028EBD10120C0
:1012D80038F0AFFEF7E700BF4816002038B50D46D6
:1012E800FFF73DFA50B1064C002AD4F8143905DD51
:1012F80011462846FFF7CEFFD4F8143938BD00BF91
:101308004816002010B590F84810002380F848309F
:1013180071B10A4CD4F88C2062B1D4F88C20052A1B
:101328000AD13430D4F81439FFF7B4FFD4F814399B
:10133800012010BD1046FCE71846FAE748160020C1
:10134800002280F84920DDE790F84820531C024429
:10135800DBB280F8483082F8341090F849200AB19E
:10136800132B00D9CEE7704770B50D4C0D4E2546AE
:10137800D4F888301A79022A05D0D5F88800BDE853
:10138800704039F05DB993F90C30142202FB036305
:10139800986939F04DF90028EFD000BFE8E700BFA1
:1013A8004816002000000020F8B500220F232E2147
:1013B80002203CF00CF9214BC3F888001C4610B9F8
:1013C80083F85800F8BD002139F092FA4FF47A708A
:1013D80038F02FFED4F88800194D1A4E39F030F93C
:1013E80000220A231146D4F8880039F05FFA14273E
:1013F800D4F888301A79022A07D0D4F81439A364AB
:10140800012384F85830002315E093F90C3007FBCA
:101418000363986939F00CF90028EED0013DE7D153
:10142800D4F888003CF0C6F894F84C30C4F88850DA
:1014380084F85850013384F84C30C3E7481600202C
:10144800A18601000000002008B5074BD3F88830BA
:101458001A79022A06D19A68920703D5186938F0D2
:10146800EBFE00BF08BD00BF481600202DE9F04183
:10147800164C1E4694F85830042B054688461746E5
:1014880016D1FFF7E1FF94F84E30D3B96902112065
:10149800FFF7D6FEB8B90523C4E90D85C4E910766F
:1014A80084F85830D4F81439A3640120BDE8F081D9
:1014B800082B01D00020F9E7FFF77AFE0228F9D1BE
:1014C800DFE72946E3E7FFF74FFFF3E74816002079
:1014D800054B93F82B20586A02F0F702002183F895
:1014E8002B2039F01BB900BF4027002010B5044657
:1014F80000222121006839F011F9FC2220212068FE
:1015080039F00CF940222421206839F007F90C221F
:101518002321206839F002F900222221206839F0BD
:10152800FDF8012010BD10B5012204461021006805
:1015380039F0F4F848B1142038F07BFD2068A02277
:101548001121BDE8104039F0E9B810BD10B52422CA
:1015580004464121006839F0E1F880B120223021A9
:10156800206839F0DBF850B106223121206839F0C3
:10157800D5F820B100223421206839F0CFF80520B1
:1015880038F057FD012010BD10B5072204460A2186
:10159800006839F0C3F8052038F04BFD24224121BA
:1015A800206839F0BBF8052038F043FDC0224221FD
:1015B800206839F0B3F8052038F03BFD012010BD54
:1015C80010B5012204460B21006839F0A7F820B1B4
:1015D8001D220921206839F0A1F800F0010010BD92
:1015E80010B5782204460021006839F097F80520E4
:1015F80038F01FFD20220121206839F08FF80520DE
:1016080038F017FD00220221206839F087F864209D
:1016180038F00FFD012010BD01224821006839F083
:101628007DB801225821006839F078B8054B006868
:1016380093F8E8289201343202F0FC02F42139F0E0
:101648006DB800BF481600202E22F421006839F03A
:1016580065B808B53122F421006839F05FF8012037
:1016680008BD30B5002385B00446C38683630DF1F9
:1016780007020221006838F0EDFF18B90025284656
:1016880005B030BD9DF80730DB07F7D5062302AA61
:101698000321206839F00EF80DF1070209212068AE
:1016A80038F0D8FF05460028E8D09DF8073013F039
:1016B8000C0FE3D19DF809209DF80830206843EA13
:1016C8000223C3EB83339B009DF80B20E3869DF830
:1016D8000A3043EA02239B009DF80D2023879DF8DA
:1016E8000C3043EA0223C3EB83339B006387012258
:1016F8000A2139F013F8C2E713B5002204460A217B
:10170800006839F00BF8142038F093FC0F220A21F6
:10171800206839F003F80A2038F08BFC032301AA6B
:101728001021206838F0C6FF0A2038F082FC002219
:101738000A21206838F0F2FF0A2038F07AFC0DF10F
:1017480003020221206838F085FF0DF10302092108
:10175800206838F07FFF01220A21206838F0DEFF78
:10176800012002B010BD1FB5044600230DF1070289
:10177800272100688DF8073038F06CFF68B19DF8B4
:10178800070010F0080008D0062302AA28212068C4
:1017980038F090FF18B9E086A06304B010BD9DF83A
:1017A80009209DF8083043EA02231BB2002BB8BF7A
:1017B80003339B109DF80B20E3869DF80A3043EA1B
:1017C80002231BB2002BB8BF03339B1023879DF85D
:1017D8000D209DF80C3043EA02231BB2002BB8BF42
:1017E80003339B106387D8E71FB500210446C186E1
:1017F80081630DF10702006838F02CFF00B39DF8F3
:10180800070010F008001BD0062302AA0121206857
:1018180038F050FFA0B19DF808209DF8093043EA40
:101828000223E3869DF80A209DF80B3043EA022341
:1018380023879DF80C209DF80D3043EA0223638727
:1018480004B010BD13B5062304466A46112100688A
:1018580038F030FF18B9E086A06302B010BD9DF8DB
:1018680001209DF8003043EA02231BB207EE103A2C
:10187800B8EEC77AF7EE086A27EE267A9DF80320B5
:10188800BDEEC77A17EE103AE3869DF8023043EAB8
:1018980002231BB207EE103AB8EEC77A9DF805206E
:1018A80027EE267ABDEEC77A17EE103A23879DF801
:1018B800043043EA02231BB207EE903AF8EEE77AC7
:1018C80067EEA67AFDEEE77A17EE903A6387C4E7EB
:1018D80013B50023C3868363044606236A4603219F
:1018E800006838F0E7FEE0B19DF801209DF800306F
:1018F80043EA022303EB43039DF80320E3869DF8A4
:10190800023043EA02231BB25B4203EB4303238703
:101918009DF805209DF8043043EA022303EB4303B6
:10192800638702B010BD30B5002585B00446C58672
:1019380085630DF107020621006838F08BFE00B3BD
:101948009DF8070010F004001BD0062302AA2946C0
:10195800206838F0AFFEA0B19DF809209DF8083046
:1019680043EA0223E3869DF80B209DF80A3043EAF8
:10197800022323879DF80D209DF80C3043EA0223AB
:10198800638705B030BD13B5044600680379022BA0
:101998000CBF4321032106236A4638F08BFE18B991
:1019A800E086A06302B010BD9DF800209DF80130CC
:1019B80043EA0223E3869DF802209DF8033043EAB8
:1019C800022363879DF804209DF8053043EA02232B
:1019D8002387E7E707B5032301AA002138F06AFE49
:1019E8009DF805309DF804001B0243EA00439DF86A
:1019F8000600184303B05DF804FB08B50068FFF75C
:101A0800E9FF024BC3F8C408012008BD48160020AE
:101A180008B50068FFF7DEFF024BC3F8B0080120E5
:101A280008BD00BF4816002007B5032301AAF62108
:101A3800006838F03FFE88B19DF805309DF8042015
:101A480008491B0243EA02439DF806201343B1F9F3
:101A5800E828C2F10802D340C1F8EC3803B05DF8B9
:101A680004FB00BF4816002007B5022301AAF6218F
:101A7800006838F01FFE40B19DF804209DF805303D
:101A880043EA0223024AA2F8C83803B05DF804FB0F
:101A98004816002037B50623F7216A460068154C1A
:101AA80038F008FE1449E8B19DF801209DF800308F
:101AB8009DF80350120142EA03329DF8023042EACF
:101AC80013129DF80430C1F810291B0143EA0533AD
:101AD8009DF8055043EA1513C4E90C23C1F8F03802
:101AE80003B030BD236BC1F81039636BC1F8F0380F
:101AF800F6E700BF4027002048160020F8B5016B24
:101B08000468354EB6FBF1F1054689B290F82D0010
:101B1800FFF7D3FA4388B6FBF3F60746AE632846C9
:101B280006F094FD2046002138F0E2FE80226B2169
:101B3800204638F0F3FD642038F07BFA072268214C
:101B4800204638F0EBFD642038F073FA00226B2150
:101B5800204638F0E3FD642038F06BFA01226B214F
:101B6800204638F0DBFD0F2038F063FA18221B21DD
:101B7800204638F0D3FD0F2038F05BFA18221C21DC
:101B8800204638F0CBFD0F2038F053FA3A791A2165
:101B9800204638F0C3FD0F2038F04BFA7A79192126
:101BA800204638F0BBFD642038F043FA1222372172
:101BB800204638F0B3FD0F2038F03BFA38210122D7
:101BC800204638F0ABFD0F2038F033FA20460321C9
:101BD800BDE8F84038F08CBE40420F00F7B5046805
:101BE800016B514EB6FBF1F1054689B290F82D0014
:101BF800FFF763FA4388B6FBF3F60746AE63284659
:101C080006F024FD0021204638F072FE80226B2168
:101C1800204638F083FD962038F00BFA032268211D
:101C2800204638F07BFD962038F003FA03226B211A
:101C3800204638F073FD0F20002138F0E7F9102214
:101C48006A21204638F06AFD0F20002138F0DEF9BD
:101C580000226C21204638F061FD0F20002138F069
:101C6800D5F97A791921204638F058FD0F2000213E
:101C780038F0CCF918221B21204638F04FFD0F20F0
:101C8800002138F0C3F918221C21204638F046FDFF
:101C98000F20002138F0BAF910223721204638F0F9
:101CA8003DFD0F20002138F0B1F9012238212046EE
:101CB80038F034FD0F20002138F0A8F93A791A21BC
:101CC800204638F02BFD0120002138F09FF9032130
:101CD800204638F00DFE06236A464321286838F06E
:101CE800E9FCA0B19DF800209DF8013043EA0223E9
:101CF8002B849DF802209DF8033043EA02236B846D
:101D08009DF804209DF8053043EA0223AB8495F939
:101D18002230013306D195F92030013302D1062053
:101D280038F0C4F903B0F0BD40420F002DE9F34785
:101D3800038A868905460C461E404FF0004901F18A
:101D48004C0701F1340816B902B0BDE8F087B6FABD
:101D580086F329FA03F2D24391B2298216401B3B3B
:101D6800002C40D0042BEED8DFE803F039342E28BD
:101D78000300E368D5F82CA02BB19B681BB11FFAB0
:101D88008AF1201D9847636A33B19B6823B11FFA13
:101D98008AF104F11C009847E36B2BB19B681BB1D7
:101DA8001FFA8AF140469847636D002BCBD09B6899
:101DB800002BC8D01FFA8AF1384603E0E368696B44
:101DC8005B68201D9847BEE7636AA96B5B6804F1EE
:101DD8001C00F7E7E36BE96B5B684046F2E7636D6D
:101DE800296C5B68E8E7042B06D8DFE803F00D0BE5
:101DF80009070300EB6A0193019BA4E76B6BFAE701
:101E0800AB6BF8E7EB6BF6E72B6CF4E7CA680B688B
:101E180010B513430468114A224013434A69134317
:101E28008A691343CA6913430A6A13434A6A134304
:101E38004A6B13438A6B134343F400330360D1E9BD
:101E48000B344269234322F00702134343610B69B1
:101E580043604B6883608B68C36010BD3F801CF093
:101E680082B000230193019B43F020030193019B5F
:101E780060F38A130193074B5A6C019B1361064B5D
:101E880011690191013B02D001998906F8D400201B
:101E980002B0704740270020410D030010B5802193
:101EA80004463AF013FB204600213AF00FFB204687
:101EB800BDE810403AF050BB420900F01F03032A66
:101EC8004FF0010000FA03F008D0042A0BD0022AD0
:101ED8000DD1074B5A6C104358647047044B1A6C69
:101EE800104318647047024B1A6B1043186370470D
:101EF800003802404268034B9A420CBF9520962056
:101F0800DAE700BF006002402DE9FF41804608463D
:101F1800154639F051F94FF47A72002306460F46F8
:101F28003CF054FBB5F900303C2403FB040439466B
:101F380030464FF47A7200233CF048FB002796B2F3
:101F48004FF47A73C3FB04673B46324601A839F065
:101F580099F83A4B93F82E36012B09D0022B35D03D
:101F680032463B46404639F08DF804B0BDE8F08172
:101F78009DF80640E31E072BF2D8231F052B0DD929
:101F88002146BDF8040039F02BF89DF80730984237
:101F98000ED0E11E18BF01210029E1D02B883C3367
:101FA8002B80274BF6184FF0000343EB0707D7E7C2
:101FB800032C03D19DF808100031EBE70A2CCFD190
:101FC8009DF80810B1FA81F14909E5E79DF8064046
:101FD800E31E082BC4D8231F062BDFD92146BDF8E2
:101FE800040038F0FDFF032C12D10E280ADC9DF8FE
:101FF8000730984208D19DF80810012994BF0021A4
:102008000121C9E70738F0E7B4BF01210021C3E780
:102018000B2CA5D107280ADC9DF80730984208D177
:102028009DF8081001298CBF00210121B4E7073869
:10203800F0E7CCBF01210021AEE700BF4027002018
:1020480080EE36002DE9F04790B0DDE9184A0D46DC
:102058000746904600213A220DF1060099461A9E3D
:102068003DF070FA344B02938DF80450CDF834A04B
:10207800002D55D0022D55D0032D55D0042D55D106
:1020880003232E4A02EB430393F86B308DF8053097
:102098002B4B0394D3F8143906971C440123CDE93C
:1020A80004468DF83130B8F1000F06D04A46414653
:1020B80007A83DF04FF88DF83090DFF888C09CF8FD
:1020C80072E60023BEF1010F0E931ED80DF1040A2B
:1020D800BAE80F009CF871663C2404FB06C404F2BD
:1020E80074640FC4BAE80F000FC4BAE80F000FC435
:1020F8009AE80700B6FA86F60EF1010E760984E82A
:1021080007008CF872E68CF871663B6883B14B4621
:1021180042462946384610B0BDE8F0471DF08EBD4E
:102128002B46AEE70123ACE70223AAE70023ADE77D
:1021380010B0BDE8F08700BF702D0020082004080B
:10214800481600204027002013B501238DF80530DC
:102158004FF48073ADF8063003681B685B7904465A
:1021680023B101A88DF804303AF0BAFC23681B6843
:102178009B7923B101A88DF804303AF0B1FC02B084
:1021880010BD031EB8BF2D2210B5B8BF58420C466B
:10219800AEBF0A2201F8012B0A2238F0CDFE002337
:1021A8000370204610BD10B5084A00231146147963
:1021B800844203D1142000FB031010BD01330C2B03
:1021C80002F11402F3D10020F7E700BF7C200408D5
:1021D800054BB3F8F027D3F8EC3759690A4214BF16
:1021E8005A831A83704700BF4027002013B5084C54
:1021F800606A0DF10702A02138F02CFA18B19DF899
:1022080007309B0602D5FFF7E3FFF1E702B010BDE8
:1022180040270020044AD2F8EC37B2F8F02708B17A
:102228005A8370471A8370474027002070B50B4BBC
:102238000B4CA34202D30022104670BD5A79824249
:102248000AD11A7A8A4207D11A681E791579AE42DC
:1022580002D11568AB42EFD00C33EAE7C8DF0408B7
:1022680024E10408642828BF642000EB800070B5CE
:10227800450064240026B5FBF4F4E4B2F3B29C42B2
:1022880012D80A2C0BD01420B5FBF0F0C4EB84153F
:102298006638C4EB85052844C0B217F0BDFD01348B
:1022A800E4B2092C05D970BD9F2017F0B5FD0136A1
:1022B800E4E79A20F1E7F0B5174B93F8F02903F615
:1022C800F41102EB420401EB840103F634260024E6
:1022D8000C27042A04D90CB183F8F0290020F0BD9A
:1022E8000C680132E507D2B20DD520420BD091F926
:1022F80004C0002407FB04F515F906E0E64505D0FF
:102308000134052CF6D10C310124E2E783F8F029D9
:102318002B44D3F8380AE2E740270020024B00227A
:1023280083F8F029C7E700BF4027002030B5264BC7
:1023380010201D78A5F1300109291A4603F101037F
:1023480029D9214C0021131B022B27DC0023A24290
:102358002ED82E2D36D1501C04240022057802EBED
:102368008202303D5200092D92B298BF521904F1F1
:10237800FF349CBF013092B214F0FF04EED1642008
:102388005043124A02FB03000623B0FBF3F0104B44
:1023980003FB010001E00138CBD130BD01EB810125
:1023A800490014F8010B3039014401F0FF01CAE774
:1023B80003EB83035B0014F8010B303B034403F089
:1023C800FF03C4E70022DAE7B031002040420F00E3
:1023D8008096980030B5002351F8234052F82350D6
:1023E800641B40F823400133032BF5D130BD0CB4F6
:1023F8001FB50C2107ABCDE902300093064A074B05
:102408000DEB010038F09DFF039B00221A7005B008
:102418005DF804EB02B0704789910308C69404087C
:1024280030B50468E46985B02CB10DF10F0500954D
:10243800A04705B030BD2046FBE708B506482FF099
:10244800B9FA064831F0E4FD054B93F8802A12B139
:10245800012283F8812A08BDAC8F0408B88F0408CC
:10246800402700202DE9F04F87B0DFF8ACA0059198
:102478000746904699460025B8F1000F07DBA845A6
:1024880005D00135042DF7D107B0BDE8F08F059AC6
:10249800D6236B4302EB030B1E4AD3180493002484
:1024A800B9F1000F01DBA1452FD1049B3BF8146063
:1024B80033F81430F21A5642564113F4006F03F001
:1024C8001F02C3F3441114BF56234823CDE9021356
:1024D800CDE900422B4652463146384630F05AFA8A
:1024E8003BF8143013F4006F03F01F02C3F34411D8
:1024F80014BF56234823CDE90213CDE900422B46E9
:1025080052463146384630F05BFA01346B2CC7D15D
:10251800B7E700BFC4310020C58F04082DE9F04F8C
:1025280041F21873364C374ADFF8E4B08846E15C6C
:10253800354B002908BF1A4641F2197387B0E15696
:10254800814632482FF06CFE04F61C64464600278C
:10255800B8F1000F52D096F800A094F85C03F16827
:10256800B6F910C096F816E05045D6E9013243D1C5
:10257800D4F8600398423FD1D4F8640390423BD129
:10258800D4F86803884237D1B4F96C03604533D175
:1025980094F87253A5EB0E0045424541CDE902215E
:1025A800CDE900A3CDE904CE3B465A462946484624
:1025B80030F0F0F994F872330593B4F96C3304935E
:1025C800D4F868330393D4F864330293D4F86033AF
:1025D800019394F85C3300935A463B462946484693
:1025E800013730F0EDF93C2F04F1180406F1180614
:1025F800AED107B0BDE8F08F0025CFE74546D9E753
:1026080040270020A7BC0408DF8F0408E28F0408D5
:10261800F18F040870B541F20413204DEB5C2DEDE9
:10262800028B04460E4693B341F20C13EB58036039
:1026380041F21013EB58436041F21413EB588360D6
:1026480005F61C6393EDBB8ADFED158A96ED000A4B
:1026580080EE280A3DF004F923681844206028EE2B
:10266800288A96ED010A80EE080A3DF0F9F86368B9
:102678001844606096ED020A3DF0F2F8BDEC028B5A
:10268800A368184441F20413A060E85C70BDC0E977
:1026980000338360B7EE008AD6E700BF40270020EA
:1026A8002C7D8E3F70B541F204131D4CE55C95B34B
:1026B80041F20C160B68A659DFED1A6A9B1B07EE50
:1026C800103A41F210164B68A659B8EEC77A9B1B10
:1026D80027EE267A07EE903A04F61C63012A80ED6D
:1026E800007A93EDBB7A8B6818BF41F21412F8EEAA
:1026F800E77A27EE267A18BFA25867EE877A18BFBE
:102708009B1AC0ED017A07EE903AF8EEE77AC0ED31
:10271800027A284670BD0023036043608360F8E7AF
:10272800402700202C7D8E3FF0B505460C4689B029
:102738001422002120463CF005FF2A681D4E04A9FA
:10274800C2F3855000230D4640FA03F7FF0744BF44
:102758009F5D01F8017B0133062BF5D11648002354
:102768000B70C2F303210144C2F3053691F86A11D4
:102778008DF8181000F271100DF1190146FA03F7DF
:10278800FF0744BF1F5C01F8017B0133062BF5D11D
:1027980000230B70C2F38343029306ABCDE90053C9
:1027A800064902F00F032046C2F3031238F0BCFEBC
:1027B80009B0F0BD6C210408082004080990040839
:1027C8001FB5314901A84A7D583118F096FC039885
:1027D800019A80EAE073A3EBE07307EE903AF8EE13
:1027E800E77AF7EE086AC7EEA65A82EAE273A3EB25
:1027F800E27307EE103AB8EEC77A029BF4EEC75AB6
:10280800F1EE10FA13DD83EAE371A1EBE37106EE52
:10281800101AB8EEC66AF4EEC65AF1EE10FA06DDE2
:102828000028CCBF0020012005B05DF804FBC7EEEE
:10283800265A83EAE371A1EBE37106EE101AB8EEAB
:10284800C66AF4EEC65AF1EE10FA09DDF4EEE57A3E
:10285800F1EE10FA04D5002ACCBF02200320E3E7EA
:10286800C6EE265AB4EEE57AF1EE10FA09D5F4EE82
:10287800E57AF1EE10FA04D5002BCCBF0420052030
:10288800D2E74FF0FF30CFE70000001030B52A4AFA
:1028980092F844368B424DD192F84516DFED276AFF
:1028A800D2F8685602EB4104013101F00F0182F8B9
:1028B800451692F88416B4F84636A4F8460607EE8C
:1028C800101AB8EEC77A92F8851627EE267AC31A38
:1028D800FDEEC77A2B4417EE900A07EE901AF8EE31
:1028E800E77AC2F8683667EEA67A1B09FDEEE77A42
:1028F800A2F86C3617EE901A88420FDD9BB2994207
:10290800D4BF5B1A00239842A6BFC31A9BB2002308
:10291800A2F86C36034617EE900A1946B2F86C36E0
:102928001B1AC3EB8323091A93FBF1F181F30A0104
:10293800A2F86C1630BD00BF3838002014AE234111
:102948002DE9F04FEB4D2DED028B95F89836172BAE
:1029580083B018D137F00AFB0746E74C95F89886FC
:1029680094F8FD31B8F1170F08BFC5F89C36062B4F
:1029780000F29982DFE813F00900C700DC00320199
:102988009301A70237030027E7E7B4F800A2DB4862
:10299800D4F804224FEA5A0100EB8A098B004FEA67
:1029A800DA0A00EB030CCE464B44A0F5DA7602EBCC
:1029B8000A1A9346D3450EF1100E0CF1100C03F1D0
:1029C800100306F1100613D18EB23146FDF7F6FB5F
:1029D800D4F8042231464846FDF7F0FBB8F1170F4A
:1029E80040F0618237F0C2FAC01BC5F8A0065AE26F
:1029F8001EED040A96ED696A5EED030A96ED6A4AD1
:102A080053ED046A53ED034A1EED027A1EED015A96
:102A18005CED032A1CED023A5CED013A53ED027AB3
:102A280053ED015A96ED6B1A1CED042AD6ED6C1A7B
:102A380036EE008A36EE406A86ED698A34EE208AE0
:102A480034EE604A86ED6A8A31EE078A0BF1100B84
:102A580086ED6B8A31EE858A31EEC55A72EE261AFA
:102A680086ED6C8A4CED041A72EEA41A74EEE24AF2
:102A78004CED031A73EE271A77EEC37A4CED021A5F
:102A880073EEA51A75EEE35A4CED011A5BED033AA5
:102A98001BED043A64EE232A76EEC26AE6EE032AB8
:102AA80023EEC66A4EED042AA4EE036A31EE477A95
:102AB8000EED036A23EE646AA6EEA36A66EE836AE5
:102AC80003ED046AE4EEA36A43ED036A1BED026AB0
:102AD8005BED016A65EE264AE7EE064A26EEC77AFE
:102AE8004EED024AA5EE067A0EED017A26EE657ADB
:102AF800A7EEA67A67EE867A03ED027AE5EEA67A65
:102B080043ED017A56E7D4F80822B4F80C127B4852
:102B18003AF000FF95F89836172B04D137F026FACB
:102B2800C01BC5F8A00694F8FD31013384F8FD31C7
:102B3800D4ED877AD4ED865AB4F800226F4BD4F8D6
:102B4800140277EEA77AB0EE006AF0EE676AE5EE57
:102B5800866A013A03EBC201D5EE867A103008394D
:102B6800B6EE007A66EE876A67EE877AC4EDA66AE3
:102B7800C4EDA77AA3F5DA73F0EE476A91ED034A3C
:102B880091ED027AD3ED6F3AD3ED707A50ED025A97
:102B980050ED014A37EE635A34EE276A37EE237A4E
:102BA80077EEC47AA5EE857A013A00F10800E4EEE2
:102BB800857AA1F1080103F10803A4EE867AE5EE0F
:102BC800C67A27EE267A67EEA67A83ED8D7AC3ED6C
:102BD8008E7AD3D195F89836172B01E7484E4FF0E7
:102BE800000BB0464FF00409DA4696ED8E0AD6ED92
:102BF8008D7A20EE000AA7EEA70AB5EEC00AF1EE1C
:102C080010FAC0F283803DF051F988ED6D0A96ED17
:102C1800900AD6ED8F7A20EE000AA7EEA70AB5EE45
:102C2800C00AF1EE10FA74DB3DF040F988ED6E0A47
:102C380096ED920AD6ED917A20EE000AA7EEA70A41
:102C4800B5EEC00AF1EE10FA66DB3DF02FF988ED1B
:102C58006F0A96ED940AD6ED937A20EE000AA7EE55
:102C6800A70AB5EEC00AF1EE10FA58DB3DF01EF9DE
:102C780088ED700AB9F1010906F1200608F110087B
:102C8800B3D195F89836172B04D137F06FF9C01BDC
:102C9800C5F8A40694F8FD31013384F8FD3194F8A1
:102CA8009023174E9FED187A002302F16D0106EB71
:102CB80081019C4618460F2A34DD04EB830292ED0D
:102CC800867A67EE077A5A1C67EE877A07EE102A2B
:102CD800B8EEC77A03F16E0227EE277A194606EB9B
:102CE800820218460F2834D106EB83030CF1010247
:102CF80063E000BF38380020000000101802001000
:102D0800640000100000C84200000000C8F8B4B118
:102D18007DE7C8F8B8A18BE7C8F8BCA199E7C8F85F
:102D2800C0A1A7E7F1EC017A40B951ED026AF4EECF
:102D3800E76AF1EE10FA0AD55FFA82FCB4EEE77A98
:102D4800F1EE10FA44BFD3B2B0EE677A0120013237
:102D5800B1E712ED016AD2ED006AB4EEE66AF1EE6F
:102D680010FA00F1010002F10402BDDD66EE066A08
:102D780066EE866A06EE100AB8EEC66A77EEA67A9E
:102D8800A6EE867AAEE793ED6D6A043BD3ED6D6AE5
:102D9800B4EEE66AF1EE10FA01F1FF300FDD66EEEF
:102DA800066A013166EE866A06EE101AB8EEC66A41
:102DB80077EEA67AA6EE867A01469142E3DCF5EE36
:102DC800C07AF1EE10FA94F8FE815ADDC7EE278A30
:102DD800F7EE007A78EEE78A94EDE58A28EE888A9D
:102DE800B4F898033AF04AFFCDE9000118EE100A4A
:102DF8003AF066FF9DED001B41EC100B3CF03CFCEB
:102E080051EC100B3BF084FA242303FB086600EE18
:102E1800100A06F52D7036F02DFA94F8FE1101F51A
:102E2800C87304EB4303BCEEC00AB3F86420A3F8EC
:102E38006A2010EE102A92B2A3F86420B4F89C33EA
:102E48009A4238BF1A46A4F89C2359B995F898367F
:102E5800162B21D11FED550A28EE800A3CF000FD03
:102E6800C5F8A80694F8FE31012B7FF4B3AE95F8A7
:102E78009836182B7FF4AEAEB4F88633C5F8A03672
:102E880011E004EB48035FED608AB3F88A3308EE7B
:102E9800103AB8EE488AA3E7182B7FF49BAEB4F833
:102EA8008433C5F89C3694F8FD3107220133B3FB0F
:102EB800F2F2C2EBC2029B1A84F8FD3103B0BDECFA
:102EC800028BBDE8F08F94F8FE6106F5C87304EB39
:102ED8004303B3F86410B3F86A308B426AD0B8F190
:102EE800180F08BF05EB8603DFF8508108BFC3F849
:102EF800B01606EBC60608EB860694F8203498ED63
:102F08001B0AD6ED058A96ED068AD6F81CB0D6F8C7
:102F180020A0D4F8102408F16C09002B00F08B8055
:102F280007EE901A98ED217AF8EEE77A012367EE1A
:102F3800877A3046FCEEE77A17EE901A89B239F0B4
:102F4800FCF894F8FE3198ED3D7AC6ED058A03EB5E
:102F5800C30204EB430386ED068AB3F88433C6F84C
:102F68001CB007EE903AF8EEE77AC6F820A067EEB4
:102F7800877A08F18806FCEEE77A06EB820617EEF8
:102F8800901AD6ED058A96ED068AD6F81CB0D6F8C2
:102F980020A099ED000AD4F81024012389B2304604
:102FA80039F0CBF8C6ED058A86ED068AC6F81CB05E
:102FB800C6F820A095F89836172B04D136F0D6FF1E
:102FC800C01BC5F8A00694F8FE3103220133B3FBF9
:102FD800F2F202EB42029B1A84F8FE3194F8FD31BA
:102FE800013384F8FD3194F87830DFF8548094F890
:102FF800FE01C3F12006063303EB4010F6B208F2D7
:103008003449334608F5DA72494608EB8000FDF783
:1030180061FB94F87830002B3FF4DCAD94F8FE01A6
:10302800B10001F5DA7208EBC01042444944183087
:10303800FDF750FBCEE50123B1E700BFA003001068
:103048006400001030B5194CD4ED017A89B0F1EE66
:10305800677ACDED057AD4ED027A00230093F1EE7C
:10306800677A0B680193CDED067A4B68D4ED037A45
:1030780002938B680393054623680493F1EE677AFD
:103088006A4604A96846CDED077A1FF02FFB69460A
:10309800224608461FF02AFB019B2B60029B6B60AF
:1030A800039BAB60284609B030BD00BF180500106F
:1030B80038B502782DED088B30EE608AD0ED01AA84
:1030C8000446B0EE40AAF0EE419AB0EE619AB0EE36
:1030D80042BA0D4668EE2AAA01F001034AB1002B54
:1030E8000CBFF0EE607AF0EE487A0022C0ED0B7A61
:1030F8000270D4ED0B7A002B60D078EE677AF0EE90
:10310800480A87EEA90AC4ED0B0AD4ED090AD4EDE2
:10311800038AF5EEC00AF1EE10FA05DDB0EE691A81
:1031280004F1180039F0B1F8D4ED057A94ED0A7A73
:103138002AEE27AA20EE280A7AEE877A77EE807A96
:1031480077EE8A7AF4EEC97AF1EE10FA08D4F4EE42
:10315800CB7AF1EE10FAD4BFB0EE679AB0EE4B9A84
:10316800D4ED026A94ED046AC4ED0DAA28EE268A0D
:10317800F0EE476AE9EE886A6B0779EE677A84EDC4
:103188000C7A67EE867A84ED0E0AE9EEA76A84ED7A
:103198000FAA84ED109AF0EE667A08D5F0EEE66A8A
:1031A800B0EEC77AF4EEC76AF1EE10FA01D5C4EDB5
:1031B8000A7AB0EE490ABDEC088B38BD70EEE77AA2
:1031C800F1EE677A87EEA90A9DE72DE9F0412DED2A
:1031D800068B09EE100A08F047FCA44DD0ED047ADE
:1031E80095EDB58A90ED037AD5EDB48AA04F38EE07
:1031F800678A78EEC78A28EE080AA8EEA80A3CF083
:1032080055FEDFED9C7A9C4B97ED006AD3F8288534
:10321800B4EEE70AF1EE10FAC9BFDFED987ADFEDF8
:10322800987AC7EE806AB0EEE87AC2BFF0EEC87A44
:1032380027EE267A67EEA67AB8EEC98ADFED916A9C
:1032480028EE268ADFED906A68EE266AD8BFB0EECF
:10325800677A18F4006F18BF76EEA66AB1EE47AA2F
:1032680036EE669AB4EECA9AF1EE10FA00F1F280E0
:10327800B4EE479AF1EE10FAC8BFB0EE479A36EEB0
:10328800266AB4EEC6AAF1EE10FA08DCB4EEC67AE5
:10329800F1EE10FA54BFB0EE46AAB0EE47AA7B4E44
:1032A80096ED007A77EE668AF1EE679AF4EEE98A8F
:1032B800F1EE10FA00F1D180F4EE678AF1EE10FA1F
:1032C800C8BFF0EE678A76EE876AF4EEE69AF1EE0A
:1032D80010FA08DCF4EEE67AF1EE10FA54BFF0EEDC
:1032E800669AF0EE679A08F0BFFBD5EDB4AAD0ED68
:1032F800030A6748B0EE4A2AF0EE491A0021B0EEF8
:10330800481AB0EE6A0AFFF7D3FEB0EE409A08F00A
:10331800ABFB95EDB5AAD0ED040A5E480021B0EEEE
:10332800692AF0EE681AB0EE481AB0EE4A0AFFF7BA
:10333800BFFE594B93F8EE4618F4805F04EB840403
:103348004FEA44043DD093F8FA26D2B307EE902A08
:10335800DFED526AB3F8FE2695EDB06AB8EE677AEB
:10336800C7EE267A06EE902AB3F8D826B8EE667A23
:1033780006EE902A36EE476AF8EE666A26EE276A67
:1033880076EEC76A86EE267ADFED456A37EE267A4C
:10339800B4EEE67AF1EE10FA62D4F4EEC77AF1EE02
:1033A80010FA58BFF0EE477AB7EE007A77EE877AD0
:1033B80093F8024729EE279A04EB840420EE270AA3
:1033C8006400D5EDAE7A95EDAD7A86ED000A60EE33
:1033D800278A20EE070ADFED330A87ED009AA9EE67
:1033E800270AE9EE478A38F011FCB0EE408A38F037
:1033F800E1FCDFED2C0A28EE800A38F007FCF2EE3B
:10340800046A20EE260A9FED287AC0EE077A624207
:10341800FDEEE77A17EE903A934224DBA342A8BF69
:10342800234668EE266A2149C6EE877A41F22E7055
:103438000B52FDEEE77A17EE903A9A4203DC9C4273
:103448002246A8BF1A46BDEC068B41F23073CA5219
:10345800BDE8F081B0EE4A9A11E7F0EE698A32E7EA
:10346800F0EE667AA0E71346DBE700BF5C35002084
:10347800F43E0020CDCCCC3D000000100000754487
:10348800C23D2D44BD3786350080D444F83E002027
:103498003C36002080360020383800200000C84222
:1034A800000000008F2A754435FA8E3C4027002022
:1034B80010B588B0002300930B6801934B68029302
:1034C8008B6814490393D1ED017A0B680493F1EEEC
:1034D800677ACDED057AD1ED027AF1EE677ACDED16
:1034E800067AD1ED037A0446F1EE677A6A466846B1
:1034F800CDED077A1FF0FAF8694604AA08461FF0CE
:10350800F5F8019B2360029B6360039BA360204640
:1035180008B010BD1805001010B51E4C94ED010A36
:10352800D4ED006A94ED027AD4ED037A20EE000A15
:10353800A6EEA60AA7EE070AA7EEA70A3CF0B6FC75
:10354800DFED157AB4EEE70AF1EE10FA08D54FF080
:103558007E53236000236360A360E3600D4810BDC1
:1035680094ED007AC7EE007A94ED017AC4ED007A02
:10357800C7EE007A94ED027AC4ED017AC7EE007ABC
:1035880094ED037AC4ED027AC7EE007AC4ED037AAB
:10359800E4E700BF18050010BD37863530B5D0F810
:1035A800D010ADF50B7D00F10A0206920A448AABF1
:1035B8000792B0F8D6200393ADF820204FF6FF739A
:1035C80090F8D520ADF81030044600230AAD8DF8E8
:1035D800222002A901AA06A802958DF81230ADF89A
:1035E8001430ADF82430019323F0E4FC40B1029B81
:1035F80094F8D42002A92046CDE902531CF018FA09
:103608000198002363720DF50B7D30BD30B51C7831
:1036180014B1012C05D030BD9A780270DB780B709C
:10362800F9E7B3F9024052B1157B94FBF5F4047045
:10363800B3F904302AB1527B93FBF2F3EFE70C2580
:10364800F3E71222F8E730B51C7814B1012C0FD03B
:1036580030BD9D7842B1147B6C430460D8782AB1A0
:10366800537B43430B60F3E70C24F5E71223F8E799
:10367800B3F902200260B3F90430F3E72DE9F04111
:103688002DED028B1B4D84B004460E461746984616
:1036980013460A460146D5F83007B0EE408A36F0A0
:1036A8001FFF9FED150A9DF83030CDF8048028EEF5
:1036B800000A0022FDEEC07A009217EE901A02A8C6
:1036C80010F05FFF9DF8340020F082F980463846FC
:1036D8003AF08AF9611C0144CDF8008002AB324609
:1036E800C9B2D5F8300736F0BFFE04B0BDEC028B86
:1036F800BDE8F081383800200000C84270B50D4C94
:1037080006460D4613460A460146D4F8300736F0F9
:103718006FFF94F9343704EB430201335BB2272B74
:10372800C8BF002382F8356782F8365784F83437E3
:10373800012070BD383800202DE9F347284C164683
:10374800FE2284F8872794F89C2884F88927013278
:1037580084F89C284FF6FF721F4684F8886784F81F
:103768008A0784F88B17ADF80620062504F5F1685A
:10377800013DADB23DBBDFF87080BDF8063094F86E
:103788008857A4F885374FF6FF79A8F1080A013D54
:10379800ADB24D451ED13846124906F08DFA94F85F
:1037A8008837B4F88527234406F1080083F88D2765
:1037B80094F88837B4F885272344120A83F88E27AB
:1037C80002B0BDE8F0870DF1060118F8010B06F00C
:1037D80073FACDE7514618F8010B06F06DFAD6E7F3
:1037E80038380020BD3F0020C53F002017B48DF8B1
:1037F80005308DF804200A4BBDF804209DF81040D0
:10380800A3F88D272F2283F88C2783F88F4703226C
:1038180099238DF8064003B05DF8044B8CE700BF90
:1038280038380020054991F8C9280023042A036084
:1038380028BF042201F6CE013BF08CBC38380020AA
:1038480010B4074991F8C92800240480022A28BF27
:10385800022201F6CE015DF8044B3BF07BBC00BFB1
:1038680038380020F8B5204C1D250F46064684F848
:10387800D6591CF035FB00201CF0BEFA08201CF0BD
:10388800BBFA0E201CF0B8FA28461CF0B5FA042042
:103898001CF0B2FA04201CF0AFFA00201CF0ACFABD
:1038A80030201CF0A9FA00201CF0A6FA38461CF0BB
:1038B800A3FA00201CF0A0FA1CF0F2FA04F6D710C4
:1038C8001CF002FA234670B194F8D72952B994F83B
:1038D800D829302A00D02AB993F8D92912B993F8EF
:1038E800DA3933700120F8BD38380020011D002373
:1038F800884201D11846704710F8012B534008221E
:1039080013F0800F4FEA430318BF83F03103013AE5
:10391800DBB2F5D1ECE7094A00231046117831B142
:103928009178802903D1682202FB03007047013394
:10393800102B02F16802F1D10020704720420020CC
:103948002DE9F743104D15F8904C07468846CCB939
:10395800A5F18C06A14605F50275306858B136F018
:10396800D5FB40B1CDF80090334642463946B620E3
:103978001CF046F90446DC36AE42EED1204603B0D0
:10398800BDE8F0830024F9E7304900200E4B0622F9
:1039980030B483F80A22242283F80B2283F80C22FD
:1039A800002283F80D22094A03F20E2102F12404B1
:1039B80052F8045B41F8045BA242F9D130BC83F8A9
:1039C80010020FF0C3B800BF304900207F2104085F
:1039D80013490023F0B51A460D461E460A278C18CF
:1039E80094F8704A0CB91846F0BD2E2C06D1013255
:1039F8000028F8D08C18044484F8706AAC187B430B
:103A080094F8704AA4F1300CBCF1090F9CBF303B0C
:103A18001B190E2A01D80132E1E70023E3E700BFB2
:103A28004027002010B50B4C04F5B8501C3008F0A6
:103A3800A1FE41F22873E358C01A38F0A1F8002813
:103A4800B8BF404242F210739842D4BF0020012010
:103A580010BD00BF40270020F8B5144C0746D4F825
:103A68004C0203791E3B012B02D9002136F071FB71
:103A78000F4E0025BD42D4F84C0210DB002136F071
:103A880068FB0C4BD3F81439C4F870320023C4F81F
:103A98007432B4F878320133A4F87832F8BD16F8E5
:103AA800011B36F056FB0135E4E700BF3049002022
:103AB800804B0020481600202DE9F04FAA4C636C7B
:103AC8005E6916F001068BB040F068825A699B69FE
:103AD8001340019300F06282C3F307431807009371
:103AE8000DD5A36CDFF888929F69DB6904F1380B68
:103AF8001F403F0CDA46D846002F40F0F180009B6B
:103B0800590710D5A26C994F9369D26903EA020844
:103B18001FFA88F83E464FF0000AA7F1380BB8F1B3
:103B2800000F40F02B819DF80450A90741BF8E4B30
:103B38005B6C02225A61019B002B19DA8A4B93F8BD
:103B480042203AB1D3F84421136823F0030161F30A
:103B580007031360A26C8548536823F00103536080
:103B6800834BD3F880309847636C4FF000425A611A
:103B7800019BC3F3072632072CD500238DF8173095
:103B880094F84A318DF81730794B7848DB6F9847AD
:103B9800626CA36C4FF400619B68516194F84220F9
:103BA800C2B1DB0716D594F84D31012B12D19DF81F
:103BB8001730032B0ED1D4F844311A6842F00102B1
:103BC8001A601A6842F003021A606A4A136943F0DD
:103BD800060313612F0708D5634F654B07F13800BB
:103BE8005B6F98477B6C08225A61ED0613D5606CB1
:103BF800836923F010038361036AC3F343410229F5
:103C080003F00F0200F05D81062900F082818369CC
:103C180043F010038361F00630D5534DAA6C536806
:103C2800002723F0010353603846FEF719F9B84618
:103C380095F839003B465035FF218342C0F0778123
:103C4800A36C4A484FF0FF329A614FF00112DA61D3
:103C58000B2262F3070762F307085F61C3F810805D
:103C68001A686FF30A121A6038F076FC636C3F48E2
:103C78004FF480525A613E4B9B6F9847B10640F112
:103C88007181394A936C106D99680268C1F34101DA
:103C9800022906BF032161F30A026FF30A020260D8
:103CA8005A6842F480725A6006A838F0D5FF616CF1
:103CB800A06CCB68079A6FF38D23CB6085682E487C
:103CC800C5F34105284490F89B01032840F036814C
:103CD800002284F83A204FF40072A28709223BE1BF
:103CE800F9073AD5F1B204EB8103D3F88C309D681B
:103CF800A36C5B691D40EA071FD594F83B00DBF80D
:103D080054300125A8429D6007D11869DAF87C3340
:103D1800C0F312001B1ACAF88C33D9F86830404631
:103D2800984794F83B30012B07D136B994F84931BC
:103D3800052B02D1404638F00FFCAB0742BFDBF839
:103D4800543002259D60280707D5D9F870304046C1
:103D58009847DBF8543008229A6001367F080BF147
:103D6800040B0AF1280AC7E640270020782700201C
:103D78000000002000ED00E00820040818F0010F02
:103D88005ED0A36C5FFA8AF919695D6B04EB89024E
:103D980025FA09F5126DED019268EDB20D43154053
:103DA800EA071BD55A6B9E48012505FA0AF122EA53
:103DB80001025A63BB699D609A4B4946DB6E98477E
:103DC80094F83B30AB4209D1BAF1000F06D194F810
:103DD8004931042B02D1924838F0BEFB280742BF74
:103DE800BB6908259D60E90642BFBB6910259D6037
:103DF8006A0642BFBB6940259D60AB0742BFBB69ED
:103E080002259D6028061BD5D6E94C329B1AD6F8A8
:103E18002421D7F818C0DBF848E0DCF818509342A2
:103E280028BF1346033309F132099B080BEB8909B4
:103E3800ADB29D4204D9D6E94C02904200D930B9BE
:103E48000AF1010A4FEA58080437283667E6D6F817
:103E58002431801A984228BF18469BF83B20C31C7F
:103E68009B08DAB1D6F82811D6F83421DCF81850B6
:103E78000144C6F82811D6F8301102448A42C6F81F
:103E88003421D5D196F81C11DEF83420012000FA2F
:103E980001F122EA0102CEF83420C9E7D6F8281148
:103EA800029181B2033189100391D9F840100D466F
:103EB80003999142D6D0029951F822102960013213
:103EC800F6E747F6F07119423FF4A1AE282101FB4D
:103ED8000241C3F30A13DD1CD4F808C1D1F8B87342
:103EE800AD1000218D420ED14F4D282101FB025209
:103EF800D2F8B8131944C2F8B813D2F8C4130B4453
:103F0800C2F8C43383E6DCF800E047F821E0013169
:103F1800E8E7D4F808110D68C4F804560968C4F82D
:103F28000816282101FB0242C3F30A13E5E755F8F6
:103F3800042B9160AA6B013391607EE6012084F81E
:103F48003A004020A087A0F56400A0F56240374CF5
:103F58001044A04225D80E2262F38D23CB604FF483
:103F680000534B61009BDA060AD52F4C2D4B04F108
:103F78003800D3F884309847636C4FF480125A6144
:103F8800009B9B060AD5284C264B04F13800D3F831
:103F980088309847636C4FF400125A610BB0BDE843
:103FA800F08FA2F57400224CA0F51050A04201D861
:103FB8000D22D1E71F48204C1044A04201D80C2202
:103FC800CAE7A2F18C701D4CA0F54340A04201D86D
:103FD8000B22C1E71A481B4C1044A04201D80A2200
:103FE800BAE71948194C1044A0427FF677AEA2F1FF
:103FF800B770174CA0F55850A04201D80822ABE77B
:104008001448154C1044A04201D80722A4E71348CD
:104018001044134A904294BF062205229CE700BF31
:104028007827002000000020402700203F420F0092
:10403800DFC810002013FBFE1FD61300FF6918000D
:1040480000D3CEFE3F771B00C05BB3FEBF912100BB
:104058003FAC2700C01D6AFE3FE13300803C36FEBE
:10406800DF9C41007047704770477047F8B54FF0C4
:10407800FF312E4A2E4C0D460023907A04280BD18E
:1040880003F5817004EB0010C079C70704D46E1CD7
:1040980010682FD088422DD30133082B02F110026B
:1040A800EBD16B1C40D0224C224F05F5817604EBF6
:1040B8000613998849B1D7F8883233B104EB051053
:1040C80041F218029B6880589847D7F88832A3B104
:1040D80004EB051C1849DF68184A41F21800002350
:1040E80001EB45215CF80000B84730B1022811D037
:1040F8000020F8BD1D460146CEE741F29C02A358B8
:10410800013BA35004EB06140323A3710C4B0122BB
:104118001A70EDE741F29C02A358013BA35004EB4F
:1041280006140123A371E3E70120E2E7FC710020F4
:10413800E061002030490020F8610020874900082C
:104148008072002090F91A305A1C0AD003F5817247
:10415800124B03EB0213DA796FF30002DA71FF23D3
:10416800837690F91B104B1C16D00C4A01F581710F
:1041780002EB011302EB0112DB79D179C3F345039A
:10418800012B86BF03F1FF3303F03F03002363F3E2
:104198004601FF23D171C376704700BFE06100205C
:1041A80012F0020C2DE9F84F884617469B4600F09E
:1041B800C080002840F0BD80FCF7D0FB02209CE0C6
:1041C8004FF0FF32DFF8A8E19146154692460026E7
:1041D800DEF800309EF80E10984218D1002900F041
:1041E800908041F29801354662580132625006F5D6
:1041F80081710901625005F5817604EB0612927906
:10420800042AD9D8DFE802F02B56AA56600011B369
:10421800012911D106F5817104EB0111C979CB0788
:104228000AD411F07E0F07D1CB0916D1DEF8081099
:10423800514501D2B1468A460136082E0EF1100EBC
:10424800C6D1561C73D1691C5CD1B9F1FF3F00F08F
:1042580085804D4656E03246EEE73546ECE717F0E6
:10426800010212D03E4BD3F88832002B76D03D495C
:104278005F683D4A002301EB4521B84700286DD00F
:1042880004EB06140223A37168E004EB0611F8108E
:1042980091F807E0BBF1030F60F3C71E81F807E050
:1042A8002DD94FF6FF7293455B4628BF134604EBA2
:1042B80006129380BCF1000F06D004EB051000F540
:1042C80080501830FCF7B2FB7A0741BF04EB0612A6
:1042D800D37943F00103D371FB0608D504EB061428
:1042E800E379C3F34502013262F34603E3711D49E2
:1042F80001EB4521C8F800100120BDE8F88F1346EE
:10430800D5E7354604EB051141F2980641F218024B
:104318008850A2590132A25141F21C068A5105F572
:1043280081710901661862500022726063E71546C0
:10433800E8E70E4941F208220C468A58002A3FF461
:104348003FAF41F2102541F20C264D59895905FB22
:1043580002129042FFF434AFFCF700FB0020CCE7D8
:1043680030490020F8610020FD530008E06100207A
:10437800F87100207FB5104D02AA0C4601A9FCF780
:104388001FFB05F59053019E18680122002303A91D
:104398003044FFF705FF01280BD1DDE90223297816
:1043A800022916BF53F8223033F8123023F0704335
:1043B800236004B070BD00BFE061002037B504463B
:1043C800C0690D4698B10023032201A9FFF7E8FE52
:1043D800012806D1B4F92020002A0ADAFCF7BEFA2F
:1043E800022003B030BDE5258D54A2680AE0012003
:1043F800F7E701995201012D01EB0203F5D0022DD7
:10440800F1D0E268DA612278032A04D100221A770F
:104418005A779A77DA77626A5A83C2F30F41998298
:10442800DFE77FB50E4D01AA0C4602A9FCF7C8FAD2
:1044380005F59053029E18680322002303A930440F
:10444800FFF7AEFE012808D12978039B019A0229BB
:104458000CBF23F8124043F8224004B070BD00BFDF
:10446800E0610020034B1B78032B0CBF80204FF426
:1044780080707047E061002008B50B4A68B1816818
:1044880011B10723937008BDFFF7ECFF0423C2E9BD
:104498000100C2E903111175F4E741F2B4110123D7
:1044A80053545370EFE700BFE061002008B5FFF7F1
:1044B800D9FF034A41F21023D3585843400208BD9C
:1044C800E06100202DE9F04F0E4685B0174602A99D
:1044D80001AA80463068FCF773FA374A02991368D4
:1044E80001EB0309019B013BDD19FFF7BBFF3368B3
:1044F800ED1A0544A2F5905AB5FBF0F54D44336822
:10450800BB42A5EB090103D3012005B0BDE8F08F3C
:10451800DDF804B00BEB0702D21AFFF7A3FF8242C3
:10452800044643D214460B220B46484603A9FFF71C
:1045380037FE0128E9D19AF8000032680399019BF7
:10454800022802F101022ED1A34223D33368019A33
:104558009B1A2344B8F1010F336016D1BB4214D122
:104568009AF80030022B0BBF04F1004404F1804498
:1045780004F1FF3404F1FF340BBF4FF6FF734FF023
:10458800FF3321F8143041F82430002309F10109E0
:104598000193B4E721F8132001330132D4E741F83D
:1045A800232001330132A342F9D3CFE7BBF1000F37
:1045B80014BF0B220A22B7E7E07300202DE9F74366
:1045C8000029DFF808813F4E044614BF0227002760
:1045D80094F83C30042B66D8DFE803F02403313B21
:1045E8005A00DFF8EC9098F80030206B032B4AD182
:1045F800484594BF00250125002D42D101A9FFF7A8
:10460800B9FE01285AD12946206BFFF70AFF012875
:1046180054D1019B23633268013B934294BF3360BA
:104628003260E0E739462046FFF7C8FE0128034616
:104638003BD1626B02B1022384F83C30C8E7626B5D
:1046480004F130010020FFF73DFF01282DD103239D
:10465800F2E71D48E26A036802609A1AC36F53437F
:1046680050F81C2C5B021A4440F81C2C50F8182CEB
:10467800134440F8183C00212438FFF79FFE012816
:1046880013D10423D8E785B24FF6F7739D42B0E7FC
:1046980094F82830042B04BF002384F82830A36B37
:1046A8000BB120469847012008E0022806D194F86B
:1046B8002830042B02D1002384F8283003B0BDE849
:1046C800F08300BFF473002074730020E0610020C1
:1046D800F7FFFF0F2DE9F0412C4E044600F130089A
:1046E80006F1240794F83830032B4CD8DFE803F0A0
:1046F8000229313A39682161FFF7D8FEE368244D71
:104708001844E060FFF7AEFE08443860FFF7CEFEBD
:104718002B68181A2860FFF7C9FE6B68181A6860BA
:104728002163FFF79FFEE36A0844606323B961626F
:10473800012384F83830D5E7FFF794FE081A206380
:10474800F6E700213046FFF739FE01280ED1022393
:10475800EFE7626B41460120FFF7B4FE012805D15F
:104768000323E6E700212046FFF728FE431EDBB2BD
:10477800012B06D894F82830062B04BF002384F8B0
:104788002830BDE8F0810120F0E700BF5073002019
:10479800587300202DE9F04F85B00C468146164627
:1047A800FFF760FE01AA804602A92068FCF708F915
:1047B80009F1FF33012B66D9019B2BB94546DFF878
:1047C800DCB00BF5905A1BE0FCF7C8F8022005B0E6
:1047D800BDE8F08F2F4A1268B2B12F490868984295
:1047E80012D1C96F531E49020B44B3FBF1F30344C2
:1047F800B3FBF5F205FB12320AB12B449B1A236076
:104808002368B342E6D32EE0DAF8003002981F4658
:1048180007440023092203A93846FFF7C1FC0128F1
:1048280004D043B28BB30228EAD1CFE7039A9BF8AE
:104838000030022B07D0032BC8D1019B52F823303C
:1048480023F0704302E0019B32F813302168B9F17C
:10485800010FB3FA83F38CBF002001205B09984253
:1048680004D18E4213D826600320B0E7019B2B4465
:104878002944434521600193D9D3029B0133029314
:1048880000230193BCE7012599E718469FE701201B
:104898009DE700BF5873002074730020E06100207A
:1048A80070B5304D044605F10C0694F83430052BEC
:1048B80012D8DFE803F00325303840492A6804F1AC
:1048C800300102320120FFF765FF012806D010F001
:1048D800FF0F01D0032811D9002070BD224A236B95
:1048E8001168E268336002EB4122E260E26A236108
:1048F80002B96362012384F83430D6E70523FAE766
:104908004FF0FF31206BFFF78CFD0128E4D1E36AFB
:104918003BB10223EFE7D4E90B01FFF782FD012841
:10492800DAD10323E7E700212046FFF747FD0128F6
:10493800D2D10423DFE794F82830082B02D10023D2
:1049480084F828300120C8E794F82830074A082B53
:1049580004BF002384F8283041F2B5130121D15453
:104968000220BAE7E8730020F0730020E06100201D
:1049780010B5044608B9FBF7F1FF204610BD38B55D
:10498800164C002304F87A3954F80E0C88421ED1CC
:10499800207803281BD1124C03F581754AB941F2DE
:1049A8009C0204EB05150423AB71A3580133A350F3
:1049B80038BD04F1180101EB4323D31A584258417A
:1049C80004EB0514FFF7D4FF0123A371F0E70133CB
:1049D800082B04F11004D7D1EAE700BF8072002049
:1049E800E0610020030770B50C46154611D541F269
:1049F80094130A4AD6580134A64234BF0020012035
:104A0800FFF7B6FFA64206BF00232B602C600120EB
:104A180070BD20461146BDE87040ABE4E06100205F
:104A28004368F7B5C3F308020A44B2F5007F0446A9
:104A38000D4603D21D44656001202EE0FFF782FB7E
:104A48000378022B01D16368F4E7164B41F2102278
:104A58009E587602AE4222DB41F2182247689B58E4
:104A68001F407B42AB421ADCEB19B34210D30169F9
:104A7800007E01AAFFF7B6FF012810D12369636100
:104A8800019B236163683344DB1BAD1B63603D44BA
:104A98002046FBF76FFF0028D5D003B0F0BD0020FB
:104AA800FBE700BFE061002070B504460E461546DE
:104AB800FFF7B6FF20B10DB12046A847012008E056
:104AC80094F82830022023B9C4E90B5684F828004A
:104AD800184670BDD0E9013210B59A422CBF8260E9
:104AE8008360FFF72FFB0022436A42610361426043
:104AF8001146BDE81040D7E710B51A4C04F58F539E
:104B08000146187860BB49B191F828202AB9442297
:104B1800A3F128003AF01EFB012010BD44221248E0
:104B28003AF010FD41F2D2134FF6FF72E25241F211
:104B3800D0130322E25423780B48022B41F2B81316
:104B480008BF0222E25441F21C23E25841F2DC136E
:104B5800E25041F2D1131022E254FFF7BBFFDBE72A
:104B68000020DAE7E0610020987300202DE9F04F7B
:104B78004668DFF894A185B0044689461746C6F30F
:104B880008064FF00008BFB1C6F5007594F91AB0D1
:104B9800BD4228BF3D46BBF1FF3F204610D0FBF782
:104BA80021FF544B41F2180203EB0B118A58904233
:104BB80000F09A80FBF7D2FE404605B0BDE8F08FC2
:104BC800FBF7D8FE20B3237E94F828101A0771D576
:104BD8000629F1D0FFF76AFC474B1B68984205D9B4
:104BE800444A41F2B5130121D154E5E7434B1B7800
:104BF800002BE1D10029DFD1062384F8283063692E
:104C080084F83810E3622046FFF764FD0128D3D109
:104C18002046FBF7E7FE6368C3F308028346002AD1
:104C28005ED123F4FF7121F00101A26801F5007142
:104C380091422CBF06210721227E02F00C020C2A89
:104C480050D10193FFF732FC019B013800EA0302BF
:104C5800FFF708FCDAF800304343A3EB52230A4677
:104C6800584603A9FFF79CFA0128A5D10398FBF73A
:104C7800F1FEA076039800289ED02A464946304483
:104C88003AF068FA002229462046A844FFF70CFFAC
:104C9800002891D0237E1B0708D5194B20691B6873
:104CA80098422CBF00200120FFF762FE7F1BA94419
:104CB800002668E7114B1B78002B7FF47DAF002995
:104CC8007FF47AAF082384F828306369E3620D4BD8
:104CD80084F834101B6823632046FFF7E1FD95E74D
:104CE8000721A9E70023BAE7183303EB4B23039303
:104CF800C0E700BFE06100205873002095730020D2
:104D080074730020F4730020F073002070B50378EA
:104D1800023B012B04461CD8237E990623D4204647
:104D2800FFF710FA237E1A070AD51F4E41F298158D
:104D3800705DC31F58425841FFF71AFE0023735590
:104D48000023237084F82830E36A5BB1BDE8704023
:104D58001847037E13F0060FDED00121FFF72EFB64
:104D68000128D9D070BDE2691049002318014058C4
:104D7800824211D10C4903F5817201EB0213DB79F0
:104D8800C3F34503012B0BD8002301EB0212D179A1
:104D980063F34601D171C2E70133082BE6D1BEE7C0
:104DA800013B03F03F03F0E7E0610020F8710020C9
:104DB80010B580B1027872B190F828206AB9D0E9AC
:104DC800012494422CBF84608260032280F828204A
:104DD800C162FFF79BFF012010BD0020FCE72DE911
:104DE800F743DFF82081044608F1080994F83830C1
:104DF800032B00F28280DFE803F002106F78204670
:104E0800FFF74EFD012802D184F83800EEE70228AA
:104E180073D1032384F83830E8E723786568022BD8
:104E280018BFD9F80030204618BF1D40FBF7DAFD3F
:104E3800C5F34F2506462D1A0023022201A9304644
:104E4800FFF7AEF9AF190128BFB257D14FF400727E
:104E5800002101983AF076FBE3691BB363680BBB4A
:104E6800019B4FF020322E211A605A601970C3F846
:104E78000720606A5883C0F30F4C102083F8201075
:104E880083F82110D872C3F82220C3F8262083F8AB
:104E98002A20E26BA3F814C0C2F30F4199865A87FF
:104EA80083F82B00D8F800104B1E9F4208D24FF40D
:104EB80000712046FFF7B4FDFFF75AFD0136BBE746
:104EC800C1EBC151490201F500712046FFF7A8FD69
:104ED800FFF74EFD02239DE7002384F82830236C5A
:104EE8000BB120469847012008E0236C002084F885
:104EF800280003B19847022000E0002003B0BDE875
:104F0800F08300BFF0730020B1F904300F2B2DE9B6
:104F1800F34104460D4616460BD14FF40071FFF7D6
:104F28007FFD18B9002002B0BDE8F0814FF6FF738D
:104F3800AB802046FBF756FD94F91B20531C07460F
:104F480011D01F4B41F2180103EB021041588F4258
:104F580030D0FBF703FD2046FBF70CFD0028E1D01D
:104F68000023336024E02046FBF704FD8046002838
:104F7800F1D1381C18BF0120FFF7FAFC4346112273
:104F880001A93846FFF70CF90128E4D10198FBF78D
:104F980061FDE076019A002ADDD0AB8801331BB2AF
:104FA800AB8002EB431333602046FBF71BFD286000
:104FB8000120B8E7183303EB42230193EAE700BF67
:104FC800E06100202DE9F041914D86B0044605F1DD
:104FD800280694F83030042B11D8DFE813F01300BA
:104FE80005005400CF00150104F11C0801AA414630
:104FF8002846FFF789FF01280ED002283ED006B0C8
:10500800BDE8F0812846FFF765FD4FF6FF7323845E
:10501800012384F83030DCE7019F0FB13B7863B996
:105028002846FFF78FF8237ED9062AD5FFF752FDC9
:105038004FF6FF7323840223EBE70B2204F13101BF
:1050480038463AF0CDFA0028D0D1BA8A7B8B43EAA9
:105058000243704A63621268FB69A3605202B3FBA1
:10506800F2F102FB113109B113445B1AE360FB7AD8
:1050780063762846FFF766F80323CAE72846FFF752
:1050880061F80423C5E73378002BB8D1624FA7F144
:10509800380801AA04F11C015D48FFF735FF012813
:1050A8004BD1019878B30378E52B01D0002BF0D1D0
:1050B800FBF7D0FC594F07EB0010FBF7B7FC07F5DF
:1050C800D070FFF73FF82022002101983AF03AFA11
:1050D8002346019A53F8311F1160596851601989A4
:1050E80011819B7A9372019B627EDA7203A836F073
:1050F8004EF8019B20BB6FF07E021A7447225A7447
:105108009873D87335E02B78022BBAD03278002AFE
:10511800B7D109233370424B3A70C3E9002253F8E0
:10512800281C03F8082C1A6A43F8101C43F80C2CA6
:105138004046FFF754FE0128ABD00228A1D05EE715
:105148009DF80E109DF80F2042EA4112BDF80C1090
:10515800A1F2BC7142EA41221A829DF810209DF802
:105168001110D20242EA41129DF8121042EA51028D
:10517800DA811A8A1A83DA89DA827DE7237E9A0627
:1051880008D50023112202A9E069FFF709F80128D0
:105198007FF435AF2046FFF79DFC2269237E8AB94C
:1051A8001B0708D51F4A41F29813D15C00297FF4E8
:1051B80026AF0721D154002384F82830E36A20461B
:1051C80098471CE703F0F70113F004032176E26A1D
:1051D80007D0002384F82830A1682046FFF764FC34
:1051E8000DE71229E7D1A263626A84F83C300421F2
:1051F80084F82810C4E90B2263636362C4E90233AC
:105208002046FFF767FCFAE600202070E36AD7E73C
:1052180098730020F0730020D0730020F8710020EC
:10522800D4730020E06100202DE9F341037804469F
:105238006BB190F82830013B082B08D8DFE803F061
:10524800050A48584B5C075F6200FFF7BBFE02B0D7
:10525800BDE8F0812D4B456841F210229E5841F27D
:10526800182276029B581D40216B204605EB010849
:10527800FBF780FB4645074624D870B1D4E90132D4
:105288009A422CBFA260A360002384F82830E36A06
:10529800002BDCD020469847D9E701AA2169207E57
:1052A800FFF7A0FB0128D2D123696361019B236129
:1052B800636833445B1B6360236B9B1B1D4425633E
:1052C8003D46D1E763680028D8D10B446360D5E731
:1052D800FFF71CFDBBE70121FFF770F90128B6D1E4
:1052E800002384F82830216C2046FFF761FDAEE7E3
:1052F8000021FFF763F9AAE7FFF7ECF9A7E7FFF743
:10530800CFFAA4E7FFF76BFDA1E700BFE06100203B
:10531800F8B504460D461646002144221F463AF0C9
:1053280011F94FF6FF736383012384F82830277639
:105338002E49284638F04EFB28BB2D4B41F2DC1293
:105348009A58626241F2C4129A58E26003F58E528A
:105358001268A26041F2D1129A5C627641F2B812E8
:105368009B5C2370069BE3622049284638F032FB99
:1053780000280CBF03230023204684F83030FFF7B1
:1053880021FE2046F8BD04F1310304F139002A4614
:105398002027117809B12E2916D11F7001338342B5
:1053A800F7D111782E2908BF013204F13C002027DB
:1053B800117891B91F7001339842F9D1F3066676D6
:1053C8004CBF03230123CCE7A1F1610CBCF1190FF9
:1053D80098BF203919700132E0E7A1F1610CBCF1E6
:1053E800190F98BF203919700132E4E7EB9A0408C5
:1053F800E061002038B5134C0023A07BE0B125689C
:105408008D4219D1104C03F581751AB904EB0514B6
:10541800A27138BD04F1180101EB43239A4209D166
:10542800831E5842584104EB0514FFF7A1FA0123E3
:10543800A371EEE70020F6E70133082B04F110040E
:10544800DBD1E6E7F8710020E0610020034BD3F8D8
:10545800880208B1C3691847704700BF3049002067
:10546800034BD3F8880208B183691847704700BF17
:105478003049002008B5064BD3F8840028B134F031
:1054880079FF80F00100C0B208BD0120FCE700BF31
:105498004816002010B5FFF7EDFF0E4C18B9002391
:1054A80084F8583010BD94F85830032B04D90021E3
:1054B800D4F8880035F01CFA94F84C300133DBB28C
:1054C800072B84F84C30EAD8D4F81439A3640123A4
:1054D800E6E700BF4816002070B51B4C94F858301A
:1054E800042B05460E4610D1FBF7AEFF00213720EE
:1054F800FBF7A6FE31461720FBF7A2FE88B1FBF7A3
:1055080033FFFFF7C7FF032002E0082B01D001207B
:1055180070BD236D834212D0FBF74AFE0228F6D1F4
:10552800E2E794F84E3063B969021920FBF788FE68
:105538000028E4D1C4E91456082384F8583002201E
:10554800E6E72946F1E700BF481600202DE9F743B2
:10555800264E05460F4691469846344696F85830EA
:10556800042B0AD0082B06D1336DAB4219D0FBF7B8
:105578001FFE0228F2D001200EE0FBF765FF96F827
:105588004E3063B969021820FBF75AFE48B1FBF7A1
:10559800EBFEFFF77FFF032003B0BDE8F083294649
:1055A800F1E794F85830D4F88800082B0CBFFC2396
:1055B800FE23FF228DF804208DF8053001AA02236E
:1055C800002135F073F980233A460021D4F8880089
:1055D80035F06CF9012384F83C300623C4E90D75D5
:1055E800C4E9109884F858300020D5E74816002000
:1055F8002DE9F043BF4CD4F8880085B0002800F0AE
:105608009881BD4D04F1740694F85830013B082B7D
:1056180000F27A81DFE813F009004000C900780140
:1056280094011A015B017801C201FBF70DFF00210B
:105638000846FBF705FE8046FBF796FEB8F1010F1A
:1056480040F06281002784F84D70FBF7FDFE40F2C0
:10565800AB110820FBF7F4FD05280CD184F84D8028
:10566800FBF782FE94F84D30002B00F040810223B6
:1056780084F85830C8E70128F2D104233A4669462D
:10568800D4F8880035F012F99DF80330AB2B04BF2D
:10569800022384F84D30E3E7FBF7D6FE94F84D304B
:1056A800022B0CBF4FF08047002700213720FBF763
:1056B800C7FD39462920FBF7C3FD0746FBF754FE13
:1056C800002F40F0218194F84D30022B39D1FBF79F
:1056D800BBFE39463A20FBF7B3FD042380463A4621
:1056E8006946D4F8880035F0E1F8FBF73DFEB8F1DB
:1056F800000F02D0FFF7CEFE86E7009B1BBAC3F36C
:10570800807384F84E30FBF79FFE00210920FBF7D9
:1057180097FD98B910213046FBF770FD804668B9AF
:1057280001217F20FAF7B8FF0128074606D1022198
:105738004046FAF7B1FF38B101282BD0FBF714FE29
:10574800E2E084F84E70DEE704212C20FAF7A4FF8B
:10575800032181464E20FAF79FFF0C218046362010
:10576800FAF79AFF08F10208013000FA08F007FA80
:1057780009F7A0FB0701430A43EAC153E365FBF7B6
:10578800F3FDFBF761FE00210A20FBF759FD48B93C
:1057980003236DE716213A20FAF77EFF01308002D5
:1057A800E065ECE7FBF7E0FDA4E710216846FBF7AE
:1057B80025FD002840F0A8809DF800309DF80120C4
:1057C80084F862309DF8023043EA0223A4F860307E
:1057D8009DF8033084F86330019B63669DF80830B8
:1057E8001A0903F00F0384F86D30DDF8093084F8E6
:1057F8006C201BBAA3669DF80D309DF80E201B0186
:10580800DBB243EA121303F5FA6302F00F02A4F8BD
:105818006E3084F87020FBF7A7FD94F84E3063B91A
:10582800FBF712FE4FF400711020FBF709FD074645
:10583800FBF79AFD002F7FF45DAF0221D4F88800B2
:1058480035F056F800236365042311E794F83C10FB
:10585800626BD4F88800802302EBC112002135F076
:1058680025F894F83C300133DBB2042B84F83C3043
:105878004AD102232A460021D4F8880035F016F8C8
:10588800012300226946D4F8880035F00FF89DF806
:10589800003003F01F03052B0DD10723256C84F876
:1058A8005830D4F81439A36475B3D4E90D21636C66
:1058B8000120A84728E0FFF7EDFD276C002F3FF4F3
:1058C800A3AE636CA16B00220120B8479CE6FBF7EE
:1058D8003FFC002869D0002384F84C30636D012B0D
:1058E8000CD9013B6365236D01332365082384F8D4
:1058F800583009E048160020A72104081CD1FBF7FE
:1059080057FC02283FF41AAF94F85830013B022B99
:1059180007D8D4F81439A26C9B1AC82B01D9FFF701
:10592800B9FD94F85800042847D0A0F1080358425C
:10593800584105B0BDE8F083042384F85830FDE6EB
:105948004FF40071606BFBF759FC01281FD047B278
:1059580077B10228D8D1FBF707FDFFF79BFD276C2D
:10596800002F3FF451AE0022636CA16B1046ACE7E8
:10597800FBF7FAFC256C84F84C70042384F8583043
:10598800002DC1D0636CD4E90D21384691E7A36C92
:10599800D4F8142964339342DDD3B5E7FBF7D8FB79
:1059A80018B1FBF7E1FC0423A1E7A36CD4F8142990
:1059B800FA339342FFF49EAEA6E70120B9E7F0B5AB
:1059C8001D4C94F82A50C3B006460F46002DFDD151
:1059D800012384F82A30FBF77BFDFF2E4FF00903E3
:1059E80088BFB5088DF804308DF8056088BF05F0CC
:1059F800C00501AB00224FF00A0C0B2645EA020154
:105A0800B85C83F802C00132362AD9701E71587109
:105A180003F10403F2D14AF20803ADF8DE3001AA1B
:105A2800DC230021606A34F041FFFCF7DFFB002330
:105A380084F82A3043B0F0BD40270020F8B51B4C4D
:105A480094F82A3005460F46002BFDD1012384F82F
:105A58002A30FBF73DFDEAB206460921606A34F0B8
:105A68005DFEB5F5807F04D140220A21606A34F0DA
:105A780055FE50220821606A34F050FEFCF7B6FB50
:105A88000025EAB20A21606A34F048FE7A19C0217A
:105A9800606A013534F0DEFD362DF2D10EB9FBF720
:105AA80017FD002384F82A30F8BD00BF40270020E6
:105AB8002DE9F04F6D4B6E4E93F82C10A9B00A23C8
:105AC80000200293024603460DF114094FF0050A1F
