:020000040800F2
:1000000000000110890B05080D5E0008B14F0308C0
:10001000290C0508290C0508290C0508000000001A
:10002000000000000000000000000000095E000861
:10003000055E000800000000015E0008AD900408A5
:10004000290C0508290C0508290C0508290C0508A8
:10005000290C0508290C0508399904084999040850
:10006000290C050845990408419904085D650008B4
:100070004965000835650008216500080D65000820
:10008000F9640008E5640008290C0508290C050836
:10009000290C0508290C0508290C05083D990408B8
:1000A0009D660008756600084D660008C566000874
:1000B000396600082566000811660008290C050845
:1000C000290C0508290C0508290C0508290C050828
:1000D000290C0508316A0008256A0008196A000819
:1000E00035990408290C0508FD790008C165000848
:1000F0009965000871650008E9650008D164000889
:10010000290C0508290C0508FD650008290C0508BF
:100110000D6A0008290C0508290C0508290C05089A
:10012000BD640008A96400089564000881640008A3
:100130006D640008290C0508290C0508290C050820
:10014000290C0508290C0508290C050899570008F1
:10015000596400084564000831640008016A000819
:10016000290C0508290C0508290C0508290C050887
:10017000290C0508290C0508290C0508290C050877
:08018000290C0508290C0508F3
:10018800037830B403B30246C0F10105531912F8DD
:10019800014FDBB2002CF9D101335B00DAB20C4C11
:1001A8000B80032322706370017859B10223002564
:1001B8005A1CD2B2E154A55410F8011F0233DBB225
:1001C8000029F5D130BC704702221346E7E700BF8B
:1001D800781B002009284FF0010307D903EB83039C
:1001E8005B00B0FBF3F2092AF8D883B3F0B4DFF868
:1001F80064C000250EE00A2A1E460F462346B4BFF7
:10020800302457242244092E01F1010105F101058A
:100218003A700FD9ACFB0324E408B0FBF3F203FBFC
:100228001200002DE7D1002AE5DC092B06D8303270
:1002380001F8012B0023F0BC0B707047ACFB0436AF
:10024800B0FBF4F2234604FB1200F408EBE70023AA
:100258000B707047CDCCCCCCF0B40D6800240CE00A
:10026800BCF1050F18D8A0F137030A2B14D104EB01
:10027800840415F8010B03EB4404A0F13003DEB24B
:10028800092EA0F16107A0F1410CF0D9052FE7D89C
:10029800A0F157030A2BEAD00D601460F0BC704738
:1002A800054AD2E94032581E801A934294BF4FF44F
:1002B8000063002318447047781B0020012380F84E
:1002C80049307047064BD3F8080100B97047D3F896
:1002D8000801A0F10500B0FA80F04009704700BF9E
:1002E800781B00200649D1E943329342FDD05A1CBD
:1002F8000B44C2F30A0293F81401C1F80C217047A9
:10030800781B0020044BD3E94303984288BF03F5C8
:100318000063181A704700BF781B0020012070473F
:10032800704700BF704700BF704700BF30B4134D1F
:10033800D5E943239A4286BF03F50064A21A9A1AA4
:100348000A44B2F5006F13D8A9B101444A1E013816
:1003580010F8014FE918824203F1010381F81441B2
:10036800C3F30A03F4D1C5F81031002030BC70473C
:10037800022030BC70470846F8E700BF781B002011
:10038800212838B50C4605D022282DD0202813D096
:10039800002038BD0029FBD0072AF9D1194BD3F822
:1003A800180993F81C1993F81D2993F81E39206031
:1003B80021716271A371EBE70029E9D0072AE7D11F
:1003C800104DD5F8143913B10968002098472068F2
:1003D80021796279A379C5F8180985F81C1985F877
:1003E8001D2985F81E39D3E70029D1D0022ACFD19B
:1003F800044BD3F82039002BCAD00988002098472D
:10040800C6E700BF781B0020024B0020C3F8080194
:10041800704700BF781B0020044B00200522C3F85A
:100428000821C3F82009C3F814097047781B002075
:10043800704700BF704700BF704700BF704700BFDC
:10044800704700BF704700BF704700BF08B502483B
:10045800FFF796FE014808BDC4DC0508781B00209C
:1004680008B50248FFF78CFE014808BDD4DC050832
:10047800781B002008B50248FFF782FE014808BD36
:10048800E0DC0508781B002008B50248FFF778FE75
:10049800014808BDECDC0508781B002008B50248B7
:1004A800FFF76EFE014808BDF4DC0508781B002044
:1004B800042301480B8070470000002012230148E4
:1004C8000B8070470400002038B504460D460C2206
:1004D8002521006849F03AFD20680A22262149F0C2
:1004E80035FD2A462068632149F030FD20688122C5
:1004F800272149F02BFD012038BD00BF2DE9F04F21
:10050800874DD5F82479B5F82839B5F92C49B5F9C6
:100518002A69B5F930A9C3EB271000FB00F00013D6
:100528005B00C3EBE70304FB00F406FB03F3A4132F
:1005380004EBE324B4F5FA334FEAE47747F1FF30EC
:10054800A3FB038903FB00F609EB4609B5F93269F9
:10055800C5F84049F71706FB09FE83B008FB07EE0C
:10056800A6FB0867CDE900673E46764401964FEA48
:10057800EA7B009E019F0AFB00FC03FB0BCCAAFB55
:1005880003ABE344360A46EA07664FEA0A3E4FEAF7
:100598000B3C16EB0E0E4FEA2727B5F82E694CEAEE
:1005A8001A5C47EB0C0C0027CDE90067009E00920F
:1005B8001EF1000A4CF50047AAFB06AB06FB07BB79
:1005C8004FEA6B064FEAEB7756EA07028A4600F0D5
:1005D800A480B5F93619B5F938B9CA1701FB00F086
:1005E80003FB02004FEAEB7CA1FB03230BFB09F1A1
:1005F800034408FB0C10D5F84419ABFB08894FEAF3
:10060800434C4FEA424EC1F580111EEB080E81445F
:100618004CEAD23CB5F934294CEB090C00204FEADE
:10062800E17910EB0E004FEAC9734FEAC17E4FEA39
:10063800C20242EB0C0243EA5103BEEB000063EB3B
:10064800020C03184CEB0C011B1841EB0C014FEA90
:10065800831E8A0142EA936213EB0E0342EB010107
:1006680089009A0041EA9371131841EB0C019A0032
:100678008900101841EA937132463B4641EB0C0160
:1006880050F09EF8B5F93E294E134FEA503C4CEA1B
:10069800C14C02FB06F7D3170CFB0377A2FB0C2314
:1006A80002FB06FEB5F93C693B44A2FB0C89F7172F
:1006B8000CFB03EE06FB01FCA6FB002300FB07CCAA
:1006C800F144164663444FEA58621F4642EAC9128B
:1006D800F60C10184FEA696346EA473643EB010106
:1006E800B5F93A2980194FEAE74343EB0101000ABB
:1006F80040EA016012011044BAF1000F02D0000A6A
:10070800CAF80000009B23B104EB8404803424124F
:100718001C60012003B0BDE8F08F0020ECE700BFAB
:10072800781B002008B53122F421006849F00EFC3E
:10073800012008BD012070470120704750F8043C93
:10074800012202770BB11838184770474FF400633D
:100758008381704703691F2B30B40CD94268A3F119
:10076800200451682022A2400A4214BF012200221C
:100778005AB930BC70474168202209689A400A4239
:1007880014BF01220022002AF3D08269114DD168DA
:1007980000241474896854680A6822F001020A6007
:1007A800216864798A8935F8144092B222EA0402F1
:1007B8001F2B8A8107D9A3F12001426820238B408F
:1007C80030BCD36070474168202202FA03F330BC82
:1007D8008B607047406E050838B5436B99891A8855
:1007E800890604460AD592B2920607D5C26A002A3B
:1007F80029D09888216B80B29047636B99891A88B1
:100808000D0692B20FD510060DD5D4E909128A4209
:1008180014D0A1692569885C98800132B2FBF5F192
:1008280005FB1122A262998A1A88C90592B204D5D9
:10083800D20744BF4FF6F7721A8038BDDA6822F043
:100848008002DA60EFE79B884169C269DBB28B54AA
:10085800C269C068636B0132B2FBF0F100FB112280
:10086800E261CBE790F83420034602F0FF0012B1B2
:10087800002283F83420704748B3154BD3F8480951
:1008880028B393F84C0910B3F0B5124AD3F8684965
:10089800D3F86C69104FD3F878590C6002EB840CCC
:1008A80002EB8602DCF808E0D2F814C0E25DD3F867
:1008B8007079D3F874390B6105F13004C1E906EC9D
:1008C800C1E902754E6081F820400A75F0BD704795
:1008D800781B0020406E050804DD050880B1094B2F
:1008E800D3F8480960B193F84C0948B110B4D3F86B
:1008F80078490C70D3F874395DF8044B138070474D
:10090800704700BF781B002048B1054BD3F8480951
:1009180028B193F84C0910B1D3F870390B8070479F
:10092800781B002040B1054BD3F8480920B193F853
:100938004C0908B100230B70704700BF781B0020DA
:1009480048B1054BD3F8480928B193F84C0910B1C0
:10095800D3F878390B707047781B002080B1094BA9
:10096800D3F8480960B193F84C0948B110B4D3F8EA
:1009780068490C70D3F86C395DF8044B13707047F4
:10098800704700BF781B00204A1E93B2032B1DD866
:100998000F4B93F84C09C8B10E4800EB820210B413
:1009A800926BD3F86049A2420DD3D3F8640982420E
:1009B80009D8D3F85409C3F8742940F00200C3F8E1
:1009C8007819C3F854095DF8044B7047704700BFA5
:1009D800781B0020406E05084B1ED8B2012825D888
:1009E800501E30B4C4B2072C1ED8114C94F84C5980
:1009F800D5B1104D00EBC30305EB4303D4F85809F8
:100A0800B3F8483083420FD3D4F85C0983420BD83B
:100A1800D4F85409C4F8703940F00100C4F86819D2
:100A2800C4F86C29C4F8540930BC7047704700BF3B
:100A3800781B0020406E050828B1034BD3F84809FD
:100A480008B193F84C097047781B002005207047BF
:100A580048B1164BD3F81C0A28B193F8AC29022ADE
:100A680002D800207047704770B4114AD3F8D059A3
:100A7800D3F8CC49D3F8D8690C6002EB850002EBB7
:100A88008404D3F8D429D3F8DC39A46E4D60C1E9C5
:100A980002620B61D0F88030207808753032C1E9E5
:100AA8000643012070BC81F820207047781B002085
:100AB800406E050880B1094BD3F81C0A60B193F861
:100AC800AC09022801D800207047D3F8D40908706F
:100AD800D3F8DC3913800120704700BF781B002051
:100AE80068B1074BD3F81C0A48B193F8AC29022A1D
:100AF80001D800207047D3F8D8390B8001207047FF
:100B0800781B002068B1074BD3F81C0A48B193F84A
:100B1800AC29022A01D80020704793F8EC390B70F1
:100B280001207047781B002068B1074BD3F81C0AD6
:100B380048B193F8AC29022A01D800207047D3F8AD
:100B4800D4390B7001207047781B002080B1094B05
:100B5800D3F81C0A60B193F8AC09022801D8002028
:100B68007047D3F8CC090870D3F8D0391370012036
:100B7800704700BF781B002031B9044AD2F8BC394D
:100B880043F00403C2F8BC39704700BF781B00204B
:100B980040B1154BD3F81C2A22B193F8AC29022A8C
:100BA80001D870477047E9B1D3F8F0299142F9DCD0
:100BB80001F10042013AD3F8F40910B430F81200F8
:100BC800D3F8C849D3F8BC29C3F8D419A04228BF20
:100BD800204642F002025DF8044BC3F8DC09C3F872
:100BE800BC297047704700BF781B002040B11A4BE2
:100BF800D3F81C0A20B193F8AC09022801D8704731
:100C08007047481E30B4C4B2042C03D8541EE5B251
:100C1800072D10D9D3F8C00958B9D3F8BC49C3F87F
:100C2800CC1944F00104C3F8D029C3F8D809C3F893
:100C3800BC4930BC7047094D04EBC00005EB4000CF
:100C4800D3F8C049B0F8A400A042F2D3D3F8C449FD
:100C5800A042E2D930BC7047781B0020406E0508DE
:100C680048B1054BD3F81C0A28B193F8AC090228FF
:100C780094BF002001207047781B00200420704793
:100C8800304B93F8092A722A14D0762A10D193F897
:100C98000F2AB3F80A0AB3F80C1AC3F8E009003AA5
:100CA80018BF012283F8EC29C3F8E4190220704721
:100CB80000207047B3F80A0AB3F80C2AB3F80E1AE2
:100CC800C3F8C009C3F8C429C3F8C8190028F0D06C
:100CD8009042EDD2B3F8282A12B1C3F8C8291146B8
:100CE800B1F5487F11D2B1F5167F1AD2B1F5C87F98
:100CF80019D3154A1548C3F8F42904210C32826225
:100D08008177C3F8F01901207047114A0F48C3F8DA
:100D1800F42905210C3282628177C3F8F019012089
:100D280070470C4AF2E7C729FBD90B4A0748C3F8B2
:100D3800F42903210C3282628177C3F8F01901206B
:100D4800704700BF781B00207C6F0508000000205A
:100D5800346F0508586F0508A06F0508134A92F804
:100D68003030012B04D092F83230037001207047E4
:100D780010B492F83A1092F932404B1E79B13C32D5
:100D880001E0013B0BD302EBC301B1F904108C4223
:100D9800F7DBDBB203705DF8044B012070470023DA
:100DA80003705DF8044B0120704700BF000000206D
:100DB800164B93F83320D20703D59B8E038001206E
:100DC800704793F93130002B1A46B8BFDA1DC2F3C9
:100DD800C702042A09D8594201F0070103F00703A2
:100DE80058BF4B42DBB2072B03D9002303800120F5
:100DF8007047013201330649D2B2DBB203EBC203BA
:100E080001EB4303B3F89230D8E700BF000000209D
:100E1800406E0508D0B170B50D4E96F9323082B0EB
:100E280013B9002002B070BD0DF107000C4615463D
:100E3800FFF794FF0028F4D09DF80730237013B112
:100E480006EBC3039B8E2B8002B070BD0020704759
:100E580000000020002841D0294B93F93220002AB5
:100E68003CD0F0B593F8332093F93170D30783B0B1
:100E78000D46044634D501A80026FFF799FF00283F
:100E88003AD020460DF106020DF10301FFF7C2FF2B
:100E9800002831D07B4203F007031A4ABDF804400A
:100EA8002E6007F0070758BF5F4201379DF80330EF
:100EB80002EB8606FFB2C5E902436F6002EB8707C3
:100EC800B16EBDF806202A61D7F880200C782C7501
:100ED8003033C5E9061285F820300EE0002070474F
:100EE800002F3E46B8BFFE1DF610013601A8F6B227
:100EF800FFF75EFF0028C4D1002003B0F0BD00BF9B
:100F080000000020406E050828B1044B93F93230E8
:100F18000BB108464CE70020704700BF00000020D6
:100F280070B1094B93F9320058B193F83020012A77
:100F380008D893F83330C3F340030B70012070478F
:100F480070477047002070470000002028B1044B0C
:100F580093F932300BB1084600E70020704700BF14
:100F68000000002010B310B4114C94F9320088B17D
:100F780094F83330DB0710D500230B7094F9313027
:100F8800594201F0070103F0070358BF4B420133F0
:100F9800137001205DF8044B704794F93130002B31
:100FA800B8BF0733DB100133DBB2E6E7704700BF99
:100FB8000000002028B1034B93F93200003818BF15
:100FC80001207047000000200320704700B583B05F
:100FD8000268084B8188CDF801203222D3F82C3AD8
:100FE800ADF805108DF800206846984703B05DF805
:100FF80004FB00BF781B002070B5164DD5F8303AB9
:101008001A791E3A012A064605D91846002148F0E1
:10101800EFF8D5F8303A002E0ADD0F4C264414F8C4
:10102800011B184648F0E4F8A642D5F8303AF6D144
:101038001846002148F0DCF8B5F8603AD5F8541A9B
:10104800064AC5F8581A01330021A5F8603A5160DC
:1010580070BD00BF781B0020AC250020D0250020E3
:1010680070B5184C94F86E3A94F86F2A9A4227D0C3
:1010780004EBC303D3F8740AD3F8705A00280ADDC6
:101088002A18013A6B1E04F6342113F8016F01F88F
:10109800016B9342F9D1AB78C4F8A00A5B0884F8D5
:1010A800A43AFFF7A9FF94F86E2A074B0132A3FB75
:1010B80002139B0803EB4303A2EB430384F86E3A45
:1010C80070BD00BF781B0020ABAAAAAA214B2DE94E
:1010D800F041D3F8A85A064600F10708002406E0B4
:1010E8001B68394698473C444645A4B215D016F8C3
:1010F800017BA7F17D03012B28462B684FF07D016A
:10110800EED81B6898472B6887F020011B68284693
:101118009847E8E7E3B203EB1424FF2CFAD8C4F1AC
:10112800FF04E4B2A4F17D03012B2B6805D9214605
:1011380028461B68BDE8F041184728461B687D21F2
:1011480098472B6884F0200128461B68BDE8F041C9
:10115800184700BF781B00200C4AD2F8C03A30B4B8
:101168001C68D2F8B85A5D6019810025611C1960A5
:101178009D812070D2F8C03AD2F8B81A1A685A601D
:101188004FF6F67230BC19609A817047781B0020C0
:1011980070B590F91030134D03EB83030446806853
:1011A80005EB8305134682076D6E82B00E460AD59D
:1011B80032462846002148F0F1FCA3689B0709D570
:1011C800012002B070BD6069019348F0CDF800BFFE
:1011D800019BEDE700BF606948F070F9012002B09B
:1011E80070BD00BF000000202DE9F04FDFF890C26D
:1011F800A7B000230CF6C4240A259CF8081B019309
:1012080027461E469E4618460095A4E003EBCE0EE0
:101218000CEB4E03CEF30726B3F80C2B55075FFAF9
:101228008EF7D3B24FEA122A40F1CE804A0615D47F
:1012380000F10208B8F18C0F41F0400100F214816E
:1012480026AD05EB0009421C2A444FF0040509F8B5
:101258008C5C01254046019502F88C1C00F10209BE
:10126800B9F18C0F46F0020B00F2038126AA024462
:1012780000F104084FF00505B8F18C0F02F88C5CFA
:1012880002F88BBC00F2F58026AD05EB090B00F1E6
:1012980006099B004FF00605B9F18C0F0BF88C5C22
:1012A800DBB202F8897C00F2E4800DF1980BC344AC
:1012B80000F108084FF00705B8F18C0F0BF88C5CAB
:1012C80002F8873C00F2D58026AB994400F10A0366
:1012D8004FF005058C2B09F88C5C02F8856C00F240
:1012E800C88026AEB04400F10C064FF006058C2EDF
:1012F80008F88C5C02F8837C00F2BB800B3026AACD
:10130800024426A803444FF0070503F88C5C3046D6
:1013180002F88CAC4FEA5E160EF01F0254F8263025
:10132800012505FA02F223EA020344F82630009B5D
:10133800013B009300F08A800EF10106B6F5F07FBC
:1013480080F084804FEA561E4B4B04EB8E079F4279
:101358004FEA8E0E7AD23A6806F01F034FF0FF3537
:1013680005FA03F3134093FAA3F3B3FA83F3DBB25A
:10137800202B7FF44BAF404B3A1D9A421BD23F4B78
:10138800009DDB1B23F0030308371F4401E0BA422A
:1013980011D016460432336893FAA3F3B3FA83F3F1
:1013A8005FFA83FEBEF1200FF1D0361B1EEBC60E8E
:1013B80000957FF52DAF019B0BB18CF8081B002819
:1013C80048D127B0BDE8F08F4D0603D401F03808A6
:1013D800984514D021F078011143821C8C2AC9B297
:1013E80042D826AD431C05EB00082B4410464FF0AD
:1013F800040208F88C2C0122019203F88C1C831C2F
:101408008C2B36D826AA02EB0008021D4FF00505E2
:101418008C2A08F88C5C08F88B6C2AD826AD2B44EB
:10142800861D4FF006058C2E03F88C5C08F8897C25
:101438001FD8053026AB034426A802444FF0070501
:1014480002F88C5C304603F88CAC63E7019B0BB167
:101458008CF8081B024603A9DCF8000BFFF798FE7E
:10146800012027B0BDE8F08F012301936FF0004001
:1014780050E76FF000404DE77826002073260020E3
:10148800781B00202DE9F04F3F4F97F8066BC3B04B
:1014980006B1FEE797F8072BDFF8F0B0044602F034
:1014A800F7020123D7F8000B87F8072B8846314647
:1014B80087F8063B48F04AFDFF2C4FF009038DF8EA
:1014C800054088BFA40801A988BF04F0C00602220D
:1014D80000204FF00A0A0DF105094FF00B0E0DF12F
:1014E800070C0B7012E0B4F5827F01F802A009F82E
:1014F800023018F8003012D80130362801F805E01B
:101508000CF8023002F1060522460FD0951C46EA77
:101518000003B5F5827F02F10404DBB2E3D90130A0
:101528006FF00044362822465D46EFD1B5F5827F3C
:1015380026D808200DF105030855A020985402323A
:10154800D7F8000BFFF724FED7F8000B0DF10302C4
:10155800A02148F031FC48B9D7F8C83FB7F8CC2FDC
:1015680059690A4214BF5A831A83EDE79DF803307C
:1015780013F02003F0D187F8063B43B0BDE8F08FA5
:101588006FF00042DCE700BF781B002001000080FC
:10159800F8B5184D95F82030002BFBD141B3014424
:1015A800154F4E1E441ED7E94012531CC3F30A03BD
:1015B8008B422CBF4FF400600020C91A2A44014412
:1015C80014F801CF82F824C00129C7F804310DD1DD
:1015D800012047F059FDD7E940318B4294BF4FF4C1
:1015E800006200225B1A1344012BF1D0B442DAD115
:1015F8000020F8BD702C0020781B002038B5FEF7BD
:1016080061FE00B938BD064D002A0C46D5F8543A9B
:101618001146F7DD2046FFF7BBFFD5F8543A38BD31
:10162800781B002090F84810002280F8482009B95B
:101638000120704710B50A4CD4F8083173B1D4F8BA
:101648000831052B01D0104610BD3430D4F8543A77
:10165800FFF79EFFD4F8543A012010BD184610BD7C
:10166800781B0020002280F84920DBE790F84830FA
:10167800C2180133DBB280F8483082F8341090F891
:1016880049200AB1132B00D9CCE7704770B582B056
:10169800006806236A46F72148F0F8FB08B39DF86E
:1016A80001209DF800409DF804309DF802109DF837
:1016B80003609DF80550120142EA04321B0142EA18
:1016C80011120E4C0E49C4F8442943EA063343EA82
:1016D8001513C1F82428C4F82439C1F8283802B0F1
:1016E80070BD074A054BD2F82418D2F82828C3F849
:1016F8004419C3F8242902B070BD00BF781B00202C
:10170800702C0020F8B5104E044615460F468C2262
:101718002521006886F8325848F018FC3A462068B7
:10172800262148F013FC45F080022068272148F064
:101738000DFC47F041FC012306F50362C2E90201F2
:1017480086F831381846F8BD702C002008B547F0E7
:1017580033FC044B9B68C01AC0F5FA5020EAE070CD
:1017680008BD00BFA034002030B50F4C94F83138C4
:1017780083B005460A465BB9286894F832380025D4
:10178800492184F8315848F081FB012003B030BD6D
:101798000191FFF7DBFF0028019AEDDDC11747F043
:1017A8005FFC019AE8E700BF702C00202DE9F041AA
:1017B800644C054694F83038D4F84008C5F836002B
:1017C800B4F844286A87012B82B00BD0022B32D0A0
:1017D80023B3002684F8306884F84668304602B09F
:1017E800BDE8F08194F83138002B40F08A806946D2
:1017F8002846FFF7B9FF002800F094809DF80030D4
:101808009A0700F08F8094F83138002B00F093800D
:10181800022394F8466884F83038DFE794F83138C2
:10182800002B74D0012394F8466884F83038304689
:1018380002B0BDE8F08194F8313805F1360704F5B7
:101848000468002B58D169462846FFF78DFF9DF89C
:10185800063006460028BCD01B07BAD49DF80120E4
:101868009DF80030B4F84808374943EA022310FBD2
:1018780003F00028B8BFFF3047F6FF7200124BF0A4
:10188800E3F89DF803109DF80220B4F84A3842EABC
:10189800012213FB02F3002BB8BFFF334042E88656
:1018A8002949181247F6FF724BF0CEF89DF805103B
:1018B8009DF80420B4F84C38288742EA012013FB2D
:1018C80000F00028B8BFFF301F4947F6FF7200122A
:1018D8004BF0BAF8404268873868C4F84008BB88BB
:1018E800A8F8043000220123304684F8302884F810
:1018F800463802B0BDE8F081FFF728FF0028A2D0E3
:1019080013E0FFF723FF00283FF471AF0DE02846EE
:1019180001220221FFF7F6FE012394F8466884F8B5
:10192800303884E7002384F8303894F84668304625
:1019380002B0BDE8F081284607220321FFF7E2FE46
:1019480066E700BF702C00200080FFFF2DE9F047FC
:10195800038A8489A4B21C4082B045D08146884657
:101968004FF0004501F14C0701F13406B4FA84F355
:1019780025FA03F2D24391B21440A9F810101B3B88
:10198800B8F1000F5DD0042B2CD8DFE803F05046E7
:101998003B300300D8F80C30D9F82CA033B19B6841
:1019A80023B11FFA8AF108F104009847D8F82430C7
:1019B80033B19B6823B11FFA8AF108F11C009847DC
:1019C800D8F83C302BB19B681BB11FFA8AF130461E
:1019D8009847D8F854302BB19B681BB11FFA8AF18D
:1019E80038469847002CC1D102B0BDE8F087D8F836
:1019F8000C30D9F834105B6808F104009847002CC3
:101A0800B4D1F1E7D8F82430D9F838105B6808F178
:101A18001C009847002CA9D1E6E7D8F83C30D9F843
:101A28003C105B6830469847002C9FD1DCE7D8F81B
:101A38005430D9F840105B6838469847002C95D147
:101A4800D2E7042B07D8DFE803F00319140F0A00C4
:101A5800D9F840300193019B002C87D1C4E7D9F80D
:101A68002C300193019BF7E7D9F834300193019B9F
:101A7800F2E7D9F838300193019BEDE7D9F83C300B
:101A88000193019BE8E700BF2DE9F047A949026BE4
:101A9800046890F82D30054686B0A748B0FBF2F2EE
:101AA8000F46881D01F1600A0E464FF0000E90F8AF
:101AB8000090A3EB0908A3EB0E0CB8F1000FB8BF18
:101AC800C8F10008BCF1000FB8BFCCF1000CE0452C
:101AD800B8BF064600F10600B8BF4FFA89FE824536
:101AE800E5D1708892B25A314FF0000C04E082467A
:101AF800B9421BD017F806CFF445F8D1B7F80290D1
:101B0800A2EB0908A2EB000CB8F1000FB8BFC8F1AE
:101B18000008BCF1000FB8BFCCF1000CC4458246E8
:101B2800E6DDB9424846CA463E46E3D13079777980
:101B3800CDF808A031780191CDE903070092012082
:101B48007E4A03214BF08EFD2B68728898697A4B88
:101B5800B3FBF2F3AB63002800F08A8040F615036C
:101B68000021C380017247F0D3FB2A68744B916946
:101B7800AB6100297CD08B88B3FA83F3202BC3F1A7
:101B88001F0C68D00CF0FC0000F1804000F59C3080
:101B98000CF00308D0F808E06A4F0A686A494FEA6F
:101BA80088084FF00F0909FA08F92EEA090E07EB21
:101BB8008C0902F13F4205F1180AC9F850A802F54C
:101BC8007E02C0F808E0D0F80890DFF88CE1C2F394
:101BD800872202FA08F24FF0004828FA03F342EA93
:101BE800090282604B610A68584822EA03020A60C7
:101BF8004A6822EA03024A600A681A430A608A6845
:101C080022EA03028A60CA68F44422EA0302CA602C
:101C180001689CF8E4210B431744036097F8903857
:101C2800042B16D9964404219EF9F4319EF8F42128
:101C380087F89018002B76DB45480121C71802F079
:101C48001F025B0901FA02F2402187F8001340F8ED
:101C580023202B68996959B18B884FF00042B3FA59
:101C680083F332FA03F303D037490A6813430B604E
:101C78002046002148F018FC80226B21204648F0BD
:101C880065F9642047F000FA07226821204648F0E9
:101C98005DF9642047F0F8F900226B21204648F0EE
:101CA80055F9642047F0F0F901226B21204648F0ED
:101CB8004DF90F2047F0E8F918221B21204648F07B
:101CC80045F90F2047F0E0F918221C21204648F07A
:101CD8003DF90F2047F0D8F932791A21204648F00B
:101CE80035F90F2047F0D0F972791921204648F0CC
:101CF8002DF9642047F0C8F912223721204648F010
:101D080025F90F2047F0C0F901223821204648F074
:101D18001DF90F2047F0B8F92046032106B0BDE8A9
:101D2800F04748F0C1BB0B4B02F00F0213444022AE
:101D38001A768EE7C46F050840420F0008DD0508D3
:101D480045070008702C0020003C0140083C014079
:101D580000E100E0FCEC00E0406E0508002853D0EC
:101D680070B5384C94F9323082B0002B4AD00D4609
:101D7800002952D094F83A30AB4246D394F8B830A0
:101D88000093314A2B46042109204BF06BFC94F850
:101D98003030013D022BEDB241D0032B49D0012B4D
:101DA80040D02A4D002228466E1D10F8013B08211C
:101DB8005A40530012F0800F08BF520083F0D50339
:101DC80014BFDAB2D2B20139F3D1B042EDD1204812
:101DD800204B90F86F1A84F8B9204A1CA3FB0243E1
:101DE8009B0890F86E4A03EB4303A2EB4303A3421C
:101DF80008D000EBC1010622C1F8705A80F86F3A8A
:101E0800C1F8742A02B070BD7047134A0421092032
:101E180002B0BDE870404BF025BC104AF6E784F8E4
:101E2800B850BEE704EBC505B5F8403084F8B830C3
:101E3800B7E704EBC50595F8403063F07F0384F8F5
:101E4800B830AEE70000002080DD0508B4000020AF
:101E5800781B0020ABAAAAAA6CDD050844DD05089A
:101E68000139CBB2042B48D8013AD1B2072945D859
:101E7800F0B5DFF898C001EBC3070CF1BC05FFB261
:101E880083B02E468CF8C0700CF1C10E002016F8F5
:101E9800012B08245040420010F0800F08BF40007A
:101EA80082F0D50214BFD0B2C0B2013CF3D1B6451E
:101EB800EDD1CDE90017124A8CF8C10004210920A0
:101EC8004BF0D0FB0F49104B91F86F2A91F86E4AEE
:101ED800501CA3FB00639B0803EB4303A0EB4303E5
:101EE800A34208D001EBC2020620C2F8705A81F85A
:101EF8006F3AC2F8740A03B0F0BD7047704700BF6C
:101F0800A8DD0508781B0020ABAAAAAA00000020BB
:101F180070B5314C94F8303040F00802022B84B090
:101F280084F8C8204ED800F004062C4B2C4A2D49C2
:101F3800039110F0010F14BF15461D4610F0020F53
:101F48000CBF194611460095002E08BF1A46264DAB
:101F5800CDE901120346254A092004214BF082FBF2
:101F68006E1D0022284610F8013B08215A405300F4
:101F780012F0800F08BF520083F0D50314BFDAB205
:101F8800D2B20139F3D18642EDD11948194B90F8F4
:101F98006F1A84F8C9204A1CA3FB02439B0890F8D7
:101FA8006E4A03EB4303A2EB4303A34208D000EBC2
:101FB800C1010622C1F8705A80F86F3AC1F8742A34
:101FC80004B070BD10F00406AFD083071CBF012316
:101FD80084F83830A9E700BF00000020F4DD0508C8
:101FE800F0DD050828DE0508C4000020F8DD050836
:101FF800781B0020ABAAAAAA00286BD0534890F9F6
:102008003230002B4BD090F83030002B48D070B5D0
:1020180084B0002947D0022B43D990F83820002AF1
:1020280040F08680802300F1CC0580F8D0302C4623
:1020380000F1D10614F8013B08215A40530012F070
:10204800800F08BF520083F0D50314BFDAB2D2B2B2
:102058000139F3D1B442EDD13D4C3E4B94F86F1A9F
:1020680080F8D1204A1CA3FB02039B0894F86E0A4F
:1020780003EB4303A2EB4303834208D004EBC10103
:102088000622C1F8705A84F86F3AC1F8742A324AA5
:102098000421092004B0BDE870404BF0E3BA704752
:1020A800704704B070BD022B15D8042490F9332072
:1020B80012F00800D3B218BF44F002045B0713D42F
:1020C80039B3002C32D1002834D0244924480B4697
:1020D800012410E0704790F83830002BE5D1042037
:1020E800FFF716FF1F4AD3E744F00104B1B150B31C
:1020F8001A490B460846CDE90021CDE902041A4ADF
:10210800042109204BF0AEFA204604B0BDE8704027
:10211800FEE6134B38B111491148ECE778B910497C
:102128000E480B46E7E70E490846E4E70B4BF1E794
:102138000024BBE70A49094B08460124DBE7084BA2
:1021480006490648D7E7054B0549FAE7000000208D
:10215800781B0020ABAAAAAA34DE050808120608D4
:10216800F4DD05085CDE050888DE050810B5104AB0
:10217800042109204BF076FA0E490F4B91F86F2A8B
:1021880091F86E4A501CA3FB00C39B0803EB430362
:10219800A0EB4303A34209D001EBC202074881F830
:1021A8006F3A0523C2F8700AC2F8743A10BD00BF2E
:1021B800D0DE0508781B0020ABAAAAAAD40000200C
:1021C80010B500680C464CF09FF883780BB9184698
:1021D80010BD817AC37A074A43EA01231BB282FB06
:1021E8000312DB17C3EB221303F26D1323800120C4
:1021F80010BD00BF7978787810B5044600684CF0B7
:1022080083F80346807800B910BD19795A7942EAF3
:102218000122E2819979DA7942EA012222821A7A44
:102228005B7A43EA02236382012010BD70B505681A
:10223800064628464CF068F80446221D28460E2318
:102248003B2147F023FEA07000B970BD227B637B61
:1022580043EA02233384A27BE37B43EA02237384A9
:10226800227C637C43EA0223B38470BDF8B52D4C0D
:10227800002504F69616D4F8480946F093FFB8B13D
:1022880094F8A839002B4BD1D4F8480946F082FFBE
:10229800D4F8A4396BB90F28EDD1012384F8940937
:1022A800D4F84809C4F8A43946F07CFF0028E7D1DF
:1022B800F8BD0F2B07D8E2180133C4F8A43982F807
:1022C8009409D4F8A439102BD5D194F894390F2B4C
:1022D80004D084F8A859C4F8A459CCE794F89539DF
:1022E80094F885299A42F4D194F8A329002AF0D1C8
:1022F8000D4A94F8A27902F10C0012F8011F0B4460
:102308008242DBB2F9D19F42E3D108490C22304620
:1023180054F0C1FC0028DCD0012084F8A809F8BDDD
:102328000020F8BD781B00200D250020FE24002089
:10233800F8B5334C002602270125D4F81C0A46F0CC
:1023480031FF90B1D4F81C0A46F024FFD4F8183AAB
:1023580063B90F28F1D184F8080AD4F81C0AC4F824
:10236800185A46F01FFF0028ECD1F8BD012B1CD0ED
:102378000F2B07D8E2180133C4F8183A82F8080A74
:10238800D4F8183A102BD8D11E4A94F816CA02F17C
:102398000D00002312F8011B0B448242DBB2F9D175
:1023A8009C450ED0C4F8186AC7E7A0F17203DBB2E7
:1023B800012B01D97628F5D1C4F8187A84F8090ACE
:1023C800BBE794F8173A002BECD1D4F8082AD4F8D4
:1023D800F8399A4201D00120F8BDD4F80C2AD4F873
:1023E800FC399A42F7D1D4F8102AD4F8003A9A4224
:1023F800F1D1D4F8142AD4F8043A9A42EBD1D1E7AF
:10240800781B00208125002070B51B4D0F23044642
:1024180085F8850985F8843929B308688B684A687E
:10242800C5F8860995F88619C5F88E39C5F88A2938
:1024380005F6861303F10B0201E013F8011F60187B
:102448009342C4B2F9D100260C49D5F8480985F859
:102458009249102285F8936946F0A8FE85F8A86984
:10246800C5F8A46970BDC5F88619C5F88A19C5F8F4
:102478008E1905F68613DDE7781B0020FC24002062
:1024880070B5A14DD5F8983840F20712934284B040
:1024980000F0E680B3F5847F27DB40F20D1293420B
:1024A80000F0BB8040F21B1293421CD1974C94F869
:1024B800A839002B61D1FFF7D9FE002800F0D4809D
:1024C80094F8A839002B58D1D4F850390133C4F8FE
:1024D8005039022B70DD002384F84C390023C5F8ED
:1024E8009C38C5F8983804B070BD002B00F0A38064
:1024F800F52B3ED1854C05F6980694F8A8395BB9BA
:10250800FFF7B4FE002800F0BA8094F8A8391BB988
:1025180094F84C3993B993E0B4F89619B4F898390B
:10252800B4F89A29C4F85819C4F85C390021012371
:10253800C4F86019C4F8642984F84C390023D4F825
:10254800541AC4F850394FF47A72C4F85439F36005
:1025580040F20713B160C5F8A828C5F89838D4F830
:10256800543AB168D5F8A8285B1A934244DCD5F8E8
:102578009838002BB2DB04B070BDB4F89629D4F8B3
:102588007019B4F89839C4F87C2900208A42C4F834
:102598008039C4F8500905D0D4F8542942F0010212
:1025A800C4F85429D4F87429934205D0D4F854397E
:1025B80043F00203C4F8543994F84C39002B8DD0F9
:1025C800534ED4F8543AB36040F2071300214FF445
:1025D8007A72C5F89838D4F85439F160C5F8A82843
:1025E800002B00F08E8013F0010252D113F0020389
:1025F80073D1C4F854391BE000217620FFF704FF9B
:10260800D4F8543AB3600021FA2240F21B13F16067
:10261800C5F8A828C5F8983849E73C4CD5F8A0185B
:10262800D4F8543AD5F8A8285B1A93427FF75BAFE1
:10263800D4F850394DE7354C05F6980684F84C39EE
:1026480000217220FFF7E0FED4F8543AB36000216D
:10265800FA22F523F160C5F8A828C5F898384CE7A0
:102668002A4CD4F85439BBE7294AD4F8543A91682B
:10267800D5F8A8285B1A93423FF722AF77E7D4F83A
:10268800543AB168D5F8A8285B1A93423FF73DAF92
:102698006DE7B4F87039002601A946200196CDE906
:1026A8000266ADF80430FFF7AFFED4F8540A1849B3
:1026B800D4F8543AD4F8542988601B1AFA20CE600A
:1026C80022F0010240F20D118342C4F85429C5F8E2
:1026D800A808C5F89818ABDC05E7B4F87439019276
:1026E80001A95020CDE90222ADF80430FFF78CFE95
:1026F800D4F85429D4F8503922F00202C4F85429E5
:10270800E7E6034E2BE700BF702C0020781B002063
:102718000835002038B5134C00230F25A4F8FA1902
:1027280084F8F90984F8F859C4F8003AC4F8043A66
:10273800C4F8FC3904F6F91204F6052101E012F890
:10274800010F03448A42DBB2F9D10749D4F81C0AC5
:1027580084F8063A102246F029FD0023C4F8183AF6
:1027680038BD00BF781B00207025002010B5774CBD
:10277800D4F81C3AB3B394F8AC39062B32D8DFE856
:1027880003F0323F4B5B76860400FFF7D1FD00284B
:1027980000F09C800023C4F8B839FEF771FA0228CB
:1027A8006DD1D4F8BC39D90709D4D4F8E019D4F8D4
:1027B800D82991421CBF43F00103C4F8BC399A07D9
:1027C80009D4D4F8E419D4F8DC2991421CBF43F0A9
:1027D8000203C4F8BC39D4F8543AC4F8B039032316
:1027E80084F8AC3910BD0023D4F8541AC4F8B839A9
:1027F8000122C4F8BC39C4F8B01984F8AC2910BD5A
:1028080000217220FFF786FFD4F8543AC4F8B03993
:10281800022384F8AC3910BDFFF78AFD002846D0A2
:10282800FEF72EFA01286ED0D4F8543AC4F8B0391D
:10283800002384F8AC3910BDD4F8BC39002B6DD016
:10284800590759D4DA0772D49807CBD523F0020375
:10285800B4F8DC19C4F8BC395020FFF75BFFD4F892
:10286800543AC4F8B039042384F8AC3910BDD4F80C
:10287800543AD4F8B0299B1AB3F57A7FB2D9D4F870
:10288800543AC4F8B039052384F8AC3910BD002196
:102898007620FFF73FFFD4F8543AC4F8B439D4F897
:1028A800542AC4F8B029062384F8AC3910BDD4F8EA
:1028B800543AD4F8B0299B1AB3F57A7F92D9D4F850
:1028C800543A84F8AC09C4F8B03910BDD4F8543A75
:1028D800D4F8B0299B1AB3F57A7F83D9D4F8B839DC
:1028E8000133032BC4F8B839D4F8543A27DD84F8F7
:1028F800AC09C4F8B03910BD23F0040300217320DB
:10290800C4F8BC39A9E70023D4F8542AC4F8B83964
:102918000523C4F8B02984F8AC3910BDD4F8543A6A
:10292800D4F8B4299B1AB3F5FA6FA8D810BD23F0D0
:102938000103B4F8D819C4F8BC3946208DE7C4F8A7
:10294800B039052384F8AC3910BD00BF781B0020CE
:102958002DE9F0414E4C94F8B05882B015B102B050
:10296800BDE8F081D4F8B458002DF8D0494B4A4A54
:1029780007460E4693F8220A116884F8BA08B3F895
:10298800202AB3F8240AA4F8B828A4F8BC0893F8B5
:10299800262A93F8200A84F8BE284B0734D594F8E1
:1029A800F838012B3ED0022B18D0002B5BD02B68B7
:1029B800196819B13A4633462846884794F8F838D2
:1029C800364A0133A2FB031202F4FF7101EB5202F3
:1029D8009B1A84F8F83802B0BDE8F0810DF10701C0
:1029E80028461DF03DFB0028E1D094F8F938002B6B
:1029F800DDD09DF80730002184F8F918002BD6D0D7
:102A080028461DF035FBD2E794F8C838002BC6D10C
:102A1800012A03D0022AC2D10B07C0D4012384F8AB
:102A2800BA38BCE72B680028C2D0D3F81880B8F1B0
:102A3800000FBDD00DF107020DF106012846C04771
:102A48000028B4D094F8B8189DF8063094F8B9283E
:102A58008B4203D19DF807309342A8D028461DF039
:102A680035FB2B68A4E72B68DA69002AA0D00DF1A2
:102A7800070128469047002899D094F8BA189DF87D
:102A880007308B4293D028461DF010FB2B688FE748
:102A9800702C0020781B002000000010ABAAAAAA06
:102AA800022805D0A0F10100B0FA80F04009704773
:102AB800054B93F8043923B9044B1868C0F3800018
:102AC800704710202BF088BA702C002000000010EE
:102AD80070B53A4C94F83C39012B84B001D004B05D
:102AE80070BD94F83D09022829D0A0F10100B0FA80
:102AF80080F04009324DD5F8A83A40B3002BEED10A
:102B0800D4F84029002AEAD094F80C6994F80519F9
:102B180092F90400002E14BF08220022002908BFE1
:102B280042F0010203244FF46141CDE901420091D2
:102B38001A46202129F0E4F9C5F8A80ACFE794F845
:102B4800043913BB1F4B1868C0F38000D2E7002B71
:102B5800C5D0D4F848299A421CD0D4F854299342B5
:102B680017D0D4F8602993421FD0D4F86C29934227
:102B78001DD0D4F8782993421BD0D4F884299342E5
:102B880019D00023C5F8A83AA9E710202BF024FA99
:102B9800B0E7012000EB400004EB80040022DA6279
:102BA800C4F84C29C4F84829EBE70220F2E70320CF
:102BB800F0E70420EEE70520ECE700BF702C0020CA
:102BC800781B0020000000100B68144A30B4056818
:102BD800CC682A402343D1E9054513432343D1E96F
:102BE80007242B4313434A6A4D6B234313438C6BCF
:102BF800CA6A2B43234343F40033036044690B6BD5
:102C08000D6924F0070413432343D1E901424361CA
:102C18004560846030BCC260704700BF3F801CF0D4
:102C280082B000230193019A0C490D4BD1F89819F1
:102C380042F020020192019A60F38A120192019AED
:102C48000A610A69019203E00A690192013B02D014
:102C5800019A9206F8D4002002B07047702C002028
:102C6800400D030010B5802104464CF091FA20462F
:102C780000214CF08DFA2046BDE810404CF0BCBA5B
:102C8800704700BF804BB3FBF2F399420DD300238A
:102C98004FF07E5243608360C3600361026000238B
:102CA800836143610362C361704707EE902A9FED19
:102CB800777AF8EE676A07EE901A66EE876AF8EE9A
:102CC800677A66EEA76AFDEEE67A17EE903A203349
:102CD800402B00F2CA80DFED6E7AF4EEE76AF1EE7F
:102CE80010FAF0EE667A0CDDDFED6A5A9FED6A6A3B
:102CF800B0EE677AB4EEC67AF1EE10FA77EEE57ABE
:102D0800F6DC9FED667AF4EEC77AF1EE10FA0CD590
:102D1800DFED605A9FED626AB0EE677AB4EEC67A6C
:102D2800F1EE10FA77EEA57AF6D49FED5E7AF4EE1E
:102D3800C77AF1EE10FA00F390809FED5B7AF4EE1B
:102D4800C77AF1EE10FA44BF9FED547A77EE677AAE
:102D580027EEA76ADFED554A9FED557A9FED555A44
:102D6800DFED555AA6EE247A67EE864AA6EE075A94
:102D7800B6EE007AE6EE055AE4EEA57A27EE877AF3
:102D88009FED486A76EE867AFDEEE75A15EE903AA0
:102D98002033402B66D8F4EEC66AF1EE10FA0CDD4B
:102DA800DFED3C5A9FED3C6AF0EE676AF4EEC66AC6
:102DB800F1EE10FA77EEE57AF6DCDFED386AF4EE3C
:102DC800E67AF1EE10FA0CD5DFED325A9FED346A4F
:102DD800F0EE676AF4EEC66AF1EE10FA77EEA57ABD
:102DE800F6D4DFED306AF4EEE67AF1EE10FA3FDD64
:102DF800DFED276A76EEE77A67EEA76ADFED2B4A02
:102E08009FED2B5ADFED2B5A9FED2B6AA6EEA45AA5
:102E180067EEA64AE6EE855AB8EE005AA6EEA56A0F
:102E2800E4EE867A67EE857AC7EE006AB7EE006A46
:102E380076EE865A76EE666A86EE257A67EE277A09
:102E480066EE876AC0ED017AC0ED037A80ED007AFC
:102E580080ED027AC0ED046A21E79FED0D7A77EEE6
:102E6800677A75E7DFED157ADEE79FED147A87E775
:102E7800DFED0D6AF4EEE67AF1EE10FA44BFDFED0D
:102E8800076A76EEE77AB7E720A1070027D4D2369B
:102E9800DB0F4940DB0FC940E4CB1641DB0F49C0CB
:102EA800E4CB16C1DB0FC93FDB0FC9BF9A7C2E36B6
:102EB800FAAF4FB93587083CA4AA2ABE0000000023
:102EC8000023024A426003608360704783F9223E10
:102ED800034A044B4260002101608360704700BFD1
:102EE8005B128B3A6F12033B034B6428B8BF642014
:102EF800C3F89404704700BF00000020034B642807
:102F08005B68B8BF6420D860704700BF000000103D
:102F18002DE9F04790B0DDE9184A0E46074690467D
:102F280001A83C22002199461A9D53F0DCFE2F4B44
:102F38008DF80460CDF834A00293002E51D0B31E52
:102F4800012B50D9042E14BF00220322284B0394CE
:102F5800D3F8543A8DF805201C440123CDE90557D0
:102F680004948DF83130B8F1000F06D04A46414636
:102F780007A853F0CDFC8DF83090DFF878E09EF884
:102F8800C2AF0023BAF1010F0E931CD801AC0FCCCD
:102F98009EF8C1CFCCEB0C150EEB850505F6C47574
:102FA8000FC50FCC0FC50FCC0FC594E80700BCFAAE
:102FB8008CFC0AF1010A4FEA5C1C85E807008EF8D0
:102FC800C2AF8EF8C1CF3B6843B14B46424631464B
:102FD800384610B0BDE8F04727F04EBD10B0BDE848
:102FE800F0870522B2E70222B0E700BFF03B0020DD
:102FF800781B0020702C002000F01F0240090123DC
:10300800032803FA02F304D0042807D002280AD0C0
:103018007047074A116C0B4313647047044A116BDD
:103028000B4313637047024A516C0B435364704758
:10303800003802402DE9F047041E0D4612DB092C2A
:1030480026DC824A0B468248A0FB0410C00800EB2D
:103058008000A4EB40000021125C1A7059702846C9
:10306800BDE8F08764422D23092C01F8013B24D8E0
:10307800764A774BA3FB0403DB0803EB8303A4EB3B
:1030880043030020D35C48700B702846BDE8F087E6
:103098006F4B632CA3FB04264FEAD60621DC6B4A50
:1030A8000B466B49A1FB0601C90801EB8101A6EBA0
:1030B8004101515C03F8011BC5E7654A632CA2FB7B
:1030C80004364FEAD60637D8604A614BA3FB06039D
:1030D800DB0803EB8303A6EB4303D35C01F8013B56
:1030E800C7E7A3FB0627B4F57A7F4FEAD7070DD2C7
:1030F800564A0B465649A1FB0701C90801EB810155
:10310800A7EB4101515C03F8011BCAE7A3FB0728A1
:1031180042F20F7294424FEAD80836D84B4A0B460F
:103128004B49A1FB0801C90801EB8101A8EB41014A
:10313800515C03F8011BDDE7A2FB0637B4F57A7F83
:103148004FEAD7070CD2414A414BA3FB0703DB08E0
:1031580003EB8303A7EB4303D35C01F8013BB4E71C
:10316800A2FB073842F20F739C424FEAD80821D8D5
:10317800364A374BA3FB0803DB0803EB8303A8EBB2
:103188004303D35C01F8013BDEE7324AA3FB08099D
:1031980094424FEAD90921D82C4A0B462C49A1FB65
:1031A8000901C90801EB8101A9EB4101515C03F850
:1031B800011BB5E7274BA2FB08099C424FEAD90936
:1031C80021D8224A224BA3FB0903DB0803EB830324
:1031D800A9EB4303D35C01F8013BCAE71E4AA3FBF2
:1031E800090394424FEAD30A21D80B461849174AD3
:1031F800A1FB0A01C90801EB8101AAEB4101515C5D
:1032080003F8011BCAE7144BA2FB09029C424FEAD0
:10321800D20A13D80E4B0D4AA3FB0A03DB0803EBB3
:103228008303AAEB4303D35C01F8013BCAE70A22F4
:10323800BAFBF2F048F022F90346D7E70A22BAFBB4
:10324800F2F048F01BF90146E4E700BFE8DE0508A4
:10325800CDCCCCCC9F8601003F420F002DE9F04F2A
:10326800BD4D2DED028BD5F8300A8DB0002800F049
:10327800A580BA4CDFF80C839FEDB58BCDE904AB84
:10328800A4F1900945F08EFF002847D0D5F8300A00
:1032980045F080FF14F8B83C052B39D8DFE803F077
:1032A800939F99AB2D0354F8986C02364FFA86FC1D
:1032B800BCF1000F40F37E82A94F0023BC4417F8ED
:1032C800012B082153405A0013F0800F08BF5B0000
:1032D80082F0D50214BFD3B2DBB20139F3D1BC45B9
:1032E800EDD1984200F0508114F8B43CD90740F170
:1032F8009D80002304F8B83C0AE054E92623E1182D
:103308000133934201F8B20C44F8943C00F08180F8
:10331800D5F8300A45F046FF0028B7D1B5F8602A3D
:10332800092A0BD9B5F8621A642303FB01F3B3FB2E
:10333800F2F3452B40F38C80C5F8600A14F84A3C38
:10334800012B00F0B480022B00F0DB80002B00F092
:10335800D28095F8A43AD5F8546A7BB1814AD2E96B
:103368000031B6EB030A4FF0000363EB010BBBF12E
:10337800000F08BFBAF1790F80F0CC8095F86F2A5A
:1033880095F86E3A9A425AD154F8403CF31AB3F57C
:103398007A7F13D2734AD2E90032F31A06934FF0B8
:1033A800000363EB02030793DDE90634002C08BF32
:1033B800962B03D3FEF7DAFEFDF752FE0DB0BDECF7
:1033C800028BBDE8F08FAA28A2D1012304F8B83CEB
:1033D8009EE7032304F8B40C04F8B83C98E7552892
:1033E80000F08580B5F8643A00220133A5F8643A04
:1033F80004F8B82C8CE7132804F8B30C44F8980C9C
:103408000BDC30B10022042344F8942C04F8B83CB7
:103418007EE7052304F8B83C7AE7B5F8663A002257
:103428000133A5F8663A04F8B82C71E7B5F8683A9C
:103438000133A5F8683A002304F8B83C68E7FDF7BB
:103448000FFE44F8406C0DB0BDEC028BBDE8F08F68
:10345800454E464A042109204AF004F9D6F818389E
:10346800B6F81C18012B60D05A1C03D1B1F5965F31
:1034780000F07F8203EB830303EB830301EB430339
:103488009BB23B4AA6F81C38042109204AF0EAF806
:10349800D5F8300AB6F81C1803681B69984700234A
:1034A800C5F8603A14F84A3C012B7FF44CAF2E4E15
:1034B80096F83030002B3FF44CAF022B00F010820E
:1034C800032204F84A2C012B7FF643AF96F8330009
:1034D8002849294B294AC0F34000002818BF0B4649
:1034E80086F83800042109204AF0BCF831E70223A5
:1034F80004F8B83C0CE7FEF739FE012304F84A3C0F
:1035080027E7194BDB8E002B3FF423AF032304F886
:103518004A3C1EE7D5F8A00AFDF76EFD44F8406C5A
:103528000DB0BDEC028BBDE8F08F41F256329142EE
:10353800A0D1134A4FF0FF3304210920C6F81838E8
:103548004AF090F8D6F81838B6F81C1892E700BF79
:103558000000000000002440781B0020683D002087
:10356800B43C0020D025002000000020B8E1050868
:1035780000E2050818DF050810DF05082CE2050839
:10358800CCE105083000002014F8B47C95F8A43A82
:103598009F4200F01481092F00F00E81112F00F0D6
:1035A8000B81B5F86A1AB04A00970131A5F86A1A72
:1035B800092004214AF056F8013F102F00F20F812C
:1035C800DFE817F0110067006700390113010D01EA
:1035D8000D010D0111000D010D010D010D010D0170
:1035E8000D010D011100062E53DD14F8B42C012A2B
:1035F80003D0092A0CBF0222032214F8AF0C14F8D6
:10360800AE1C9A4F14F8B03C14F8B1BC87F83020BF
:1036180041EA0021B98614F8B20C87F831009907FD
:1036280087F8333018D513F00C0397F8381014BF07
:1036380001200020814282460CD08D488D498E4A57
:10364800002B0CBF03460B46042109204AF00AF858
:1036580097F8302087F838A0032A00F08D810BF105
:10366800010387F8323014F8773C0C2B11D197F905
:10367800332097F9311097F8303044F8701C6421E2
:1036880001FB0323B98E97F9322044F8743C44E9CE
:103698001B127A4BD8F800101A68914200F09380F8
:1036A800724F774A97F83030764EDFF830B20421FF
:1036B800092049F0D7FF97F9333073487349744AA2
:1036C80013F0010F08BF014600910920042149F0B9
:1036D800C9FF97F833306F4A13F0020F14BF5B46E7
:1036E80033460421092049F0BDFF97F833306A4A70
:1036F80013F0040F14BF5B4633460421092049F038
:10370800B1FF97F83330654A13F0080F14BF5B46D2
:1037180033460421092049F0A5FF97F83300604992
:10372800604B614A10F0100F18BF0B4609200421A6
:1037380049F098FF97F833105C4B5D4A11F0200F61
:1037480008BF33460421092049F08CFF97F931302E
:10375800584A0421092049F085FFBB8E564A0421A6
:10376800092049F07FFF97F93230544A0421092093
:1037780049F078FFFB8E524A0421092049F072FF74
:1037880097F838004F49504B504A002808BF0B465D
:103798000421092049F066FF98E80700374B03C366
:1037A8001A80B5F8623A0133A5F8623A002304F8A2
:1037B800B83CADE5002394E5012B7FF4F2AE00237D
:1037C80085F8A43AF8E6424A5968106888427FF4B6
:1037D80067AF92881B899A427FF462AFDCE7B5F83D
:1037E8006C3A0133A5F86C3ADBE714F8B23C2F4A7F
:1037F800244914F8B17C14F8B06C13F0010F14BF0D
:103808001046084613F0020F009014BF10460846F1
:10381800019017F0040F234808BF0A4616F0080F56
:103828001F49029208BF014603912A4A0421092030
:1038380049F018FF2DE7042E7FF72BAF14F8B23CA0
:1038480014F8B12C42EA03221346580412B200F1CC
:103858009B80002AC0F2A28004491F4A8B86092057
:10386800042149F0FFFE14E740DF050800000020AE
:1038780010DF050818DF050868DF0508143D00207B
:10388800FCE00508F4DD050830DF050828DF050839
:1038980018E1050830E105083CE1050844E10508A0
:1038A80028DE050820DF050850E10508081206088B
:1038B8005CE105086CE105087CE1050888E105087C
:1038C80094E105083CDF050838DF0508A4E1050890
:1038D80034000020B4E0050890E00508F0DD050894
:1038E800A04A0920042149F0BDFE06F502674023DD
:1038F800A6F82438384606F6260C002210F8013BB4
:1039080008215A40530012F0800F08BF520083F07C
:10391800D50314BFDAB2D2B20139F3D18445EDD15F
:1039280096F8333086F8262813F0010203D1B38EB7
:10393800B3F5804F3CD095F86E1A95F86F3A8A4ADD
:10394800581CA2FB00C2920802EB4202A0EB420202
:103958008A4208D005EBC3030721C3F8707A85F8BB
:103968006F2AC3F8741A022304F84A3C96F83030D8
:10397800A9E57E4A0123DFE5092E56DC7C4A0421AD
:10398800092049F06FFE84E67A497B4AC3F30D03A8
:10399800CB860920042149F065FE7AE67549774A05
:1039A800C3F30D03CB860920042149F05BFE70E6C2
:1039B80097E80300DFF8D4C144F8480C090C4FF429
:1039C800A07304F8421C60460CF1060E24F8443C2F
:1039D80010F8013B08215A40530012F0800F08BF2D
:1039E800520083F0D50314BFDAB2D2B20139F3D151
:1039F8008645EDD195F86F0A5B4B04F8422C421CC2
:103A0800A3FB02E39B0895F86E1A03EB4303A2EBB2
:103A180043038B42A7D005EBC0020720C2F870CA47
:103A280085F86F3AC2F8740A89E714F9AC0C0522D4
:103A3800002149F009F8C3B2099387F83A3087F8AA
:103A4800EE37002B4ED04FF0000B5E46BA4605E02D
:103A5800099B013676B29E42B34642DAA1190AEBB7
:103A6800CB0311F8AA7CA3F8407007EE907AB8EE61
:103A7800E77AF2EE047AC7EE277A17EE900A4CF04E
:103A880019FAB0EE480AF0EE680A41EC110B4FF053
:103A9800DFFC51EC100B4CF065FD394A80B200F1A7
:103AA8001903A2FB03231B094FEACB010E2F514434
:103AB80003EB830303D903EB83035B0098B2052E62
:103AC800C863C5DC0AA9FFF7B5FA0BEB8B034B44B7
:103AD8000AA9184653F02BF90AEB8B0BCBF804080C
:103AE800B6E75746B7F95000B7F94810B7F9583054
:103AF800B7F940200092CDE90110224A039304212E
:103B0800099B092049F0AEFD14F8AD6C14F8B13CDE
:103B180000934FF0000B33461B4A87F832B004215C
:103B2800092049F09FFD97F83A30002B3FF49BADF0
:103B380097F93200DC465946012207EBC10E51B213
:103B4800BEF940E0764504BF08464FF0010C01324B
:103B58009942D2B2F1DBBCF1000F3FF484AD87F893
:103B6800320080E510E20508ABAAAAAAE8E1050838
:103B78009CDF05080000002048E005086CE0050807
:103B88001F85EB51D8DF05080CE00508203D002013
:103B98002DE9F04788B0541C03941478002C00F0E9
:103BA80040810025074688461E46A9460BE0791C39
:103BB80002D021463846C047039A0135531C039367
:103BC8001478002C58D0252CF1D1931CCDE9033959
:103BD80050782D2800F0C8804FF0000A302800F0F7
:103BE800AB80A0F13003DBB2092B4FF0000440F2A8
:103BF800AF806C284ED0782838D8572840D9A0F103
:103C08005803202B32D8DFE813F0F40031003100DC
:103C18003100310031003100310031003100310014
:103C2800DA0000013100C1003100310031003100FB
:103C3800310031003100E300310031003100310042
:103C4800BB003100210031003100F40056F8040BAC
:103C580005A9FCF7BFFA05ABCDE90043049B424632
:103C68004FF0FF31384647F089FF0544039A531C4B
:103C780003931478002CA6D1284608B0BDE8F08735
:103C88000028F9D02528F1D17B1C95D0252138466C
:103C9800C04791E7039B5A1C0392197878298DD85D
:103CA800572967D9A1F15803202B87D801A050F8CC
:103CB80023F000BFE33D0008C53B0008C53B0008F2
:103CC800C53B0008C53B0008C53B0008C53B0008CC
:103CD800C53B0008C53B0008C53B0008C53B0008BC
:103CE800C73D00081F3E0008C53B0008953D000879
:103CF800C53B0008C53B0008C53B0008C53B00089C
:103D0800C53B0008C53B0008C53B0008DB3D000873
:103D1800C53B0008C53B0008C53B0008C53B00087B
:103D2800893D0008C53B0008553C0008C53B000814
:103D3800C53B0008E33D0008039B5A1C0392187812
:103D4800A0F13003DBB2092B4FF001043FF651AF6D
:103D580004AA03A9FCF780FABAF1000F3FF449AFAF
:103D6800049B5B42049344E7D31C039390784FF081
:103D7800010A33E700293FF47FAF252984D01DE7E6
:103D880056F8042B049BCDE9009268E7073626F025
:103D98000706F6E802014CF095FB00EE100A05A8AC
:103DA80047F002FB05ABCDE900434246049B4FF0C8
:103DB800FF31384647F0E2FE039A0544FEE67A1CD6
:103DC8003FF4FAAE56F8041B3846C9B2C047F3E6CA
:103DD800039A56F8043B1D60F0E6A1F15802B2FAC6
:103DE80082F256F8040B520905AB102147F0A2FBEA
:103DF80031E7A0F15802B2FA82F256F8040B5209E0
:103E080005AB102147F096FB25E756F8040B05A9EA
:103E180047F04CFB1FE756F8040B05A947F046FB93
:103E280019E7254628E700BF00230360704700BF55
:103E3800F0B5284C284B2949294A2A4D44F80C4CFE
:103E4800122085B004F8380C42F6F82600274020E6
:103E580044E90C6744E90612C4E90033C4E90233B3
:103E6800C4E90433C4E9063344F81C5C236228F02F
:103E78000FF920B394F82B3094F82A1090F9040025
:103E8800194A002B14BF08230023002918BF43F048
:103E9800010303254FF4E131CDE9015300910023DB
:103EA800402128F02DF8E06430B1104B93F83C29FC
:103EB8003AB1002384F85030003818BF012005B00B
:103EC800F0BD0B4A0B49C2F82C1A022283F83C2990
:103ED8000123EFE7683D0020E003E0031D510208DD
:103EE800555B0208C93C0208E1550208702C002005
:103EF800781B00204D40020830B5224C224B44F874
:103F08001C3C4FF4787341F60B22C4F89830002318
:103F180044E90C231D4944F8181C4FF478724FF4F7
:103F2800787385B011254020C4E91623C4E9182305
:103F3800C4E91A23C4E91C23C4E91E23C4E92023C5
:103F4800C4E92223C4E9242304F8385C28F0A0F843
:103F5800A8B194F82B300E4A90F904000092002B77
:103F680018BF08230322CDE901234021094A002371
:103F780027F0C6FFC4F89C00003818BF012005B020
:103F880030BD00BF683D0020F94002081941020811
:103F9800A06806007957020880F00101014845F041
:103FA80093BA00BF402B0020054BD3F8C82FB3F8B5
:103FB800CC3F51690B4214BF53831383704700BF32
:103FC800781B002070B40F4B0F4CA34203D315E0AD
:103FD8000C33A34212D25A790D2AF9D11A798242A6
:103FE80001D00028F4D1DD798D42F1D11D682E79F8
:103FF8009642EDD12A689A42EAD100E00025284687
:1040080070BC7047083A0608B03A0608F8B5044686
:104018000F46164625218C2200681D4645F096FF5E
:104028003A462068262145F091FF45F08002272175
:10403800206845F08BFF0A2045F026F820682B46BB
:104048003246492145F022FF0120F8BD70B5002114
:1040580082B00446006846F027FA00212046FCF7A3
:1040680033FA142045F010F80F212046FCF72CFAFB
:104078000A2045F009F801AA032310212046FFF77A
:10408800C5FF0A2045F000F89DF804609DF805502A
:104098009DF80620144B803200212046803680355A
:1040A800A3F84868A3F84A58A3F84C28FCF70CFA78
:1040B8000A2044F0E9FF0DF1030220460123022102
:1040C800FFF7A4FF0DF10302012320460921FFF7A2
:1040D8009DFF20461221FCF7F7F92068032146F0DE
:1040E800E3F9012002B070BD702C0020642828BFBD
:1040F80064201C4B00EB800070B54500A3FB052332
:104108005E095B0918BF002422D001349F201CF0EF
:1041180037FAE3B29E42F8D80A2E00D170BD124891
:10412800A0FB05300009C6EB8613C6EB830366388F
:104138001844C0B21CF024FA092E06F10104EDD08F
:1041480001349A20E4B21CF01BFA0A2CF8D170BD95
:104158000548A0FB053000096638C0B21CF010FA0B
:104168000124EDE71F85EB51CDCCCCCCF0B41A4F30
:1041780097F8A030052B2CD80C2202FB0372A8322A
:1041880052F8041C0133CC07DBB20ED501420CD027
:1041980092F90060114C002194F90050B54204F1E5
:1041A8000C040BD001310629F6D1062B02F10C02C2
:1041B800E6D187F8A0300020F0BC7047084A87F89D
:1041C800A03001EB410102EB8101F0BCD1F84809B4
:1041D80070470020F0E700BF683D0020B43500209C
:1041E800702C0020D0ED017AF5EE407AF1EE10FA4D
:1041F80005D19FED0B7AF0EE477A80ED017A30EE2B
:10420800A77AD0ED007AC0ED020AC0EE876A30EED8
:10421800670AE6EE807AB0EE670AC0ED007A70476A
:1042280083F9223EBCEEC00A7F4AB2FBF1F210EEDF
:10423800103A9BB2934208D300234FF07E5243605A
:104248008360C36003610260704707EE901A9FEDB8
:10425800777AF8EE676A07EE903A66EE876AF8EEC4
:10426800677A66EEA76AFDEEE67A17EE903A203393
:10427800402B00F2CA80DFED6E7AF4EEE76AF1EEC9
:1042880010FAF0EE667A0CDDDFED6A5A9FED6A6A85
:10429800B0EE677AB4EEC67AF1EE10FA77EEE57A08
:1042A800F6DC9FED667AF4EEC77AF1EE10FA0CD5DB
:1042B800DFED605A9FED626AB0EE677AB4EEC67AB7
:1042C800F1EE10FA77EEA57AF6D49FED5E7AF4EE69
:1042D800C77AF1EE10FA00F390809FED5B7AF4EE66
:1042E800C77AF1EE10FA44BF9FED547A77EE677AF9
:1042F80027EEA76ADFED554A9FED557A9FED555A8F
:10430800DFED555AA6EE247A67EE864AA6EE075ADE
:10431800B6EE007AE6EE055AE4EEA57A27EE877A3D
:104328009FED486A76EE867AFDEEE75A15EE903AEA
:104338002033402B66D8F4EEC66AF1EE10FA0CDD95
:10434800DFED3C5A9FED3C6AF0EE676AF4EEC66A10
:10435800F1EE10FA77EEE57AF6DCDFED386AF4EE86
:10436800E67AF1EE10FA0CD5DFED325A9FED346A99
:10437800F0EE676AF4EEC66AF1EE10FA77EEA57A07
:10438800F6D4DFED306AF4EEE67AF1EE10FA3FDDAE
:10439800DFED276A76EEE77A67EEA76ADFED2B4A4C
:1043A8009FED2B5ADFED2B5A9FED2B6AA6EEA45AF0
:1043B80067EEA64AE6EE855AB8EE005AA6EEA56A5A
:1043C800E4EE867A67EE857AC7EE206AB7EE006A71
:1043D80076EE865A76EE666A86EE257A67EE277A54
:1043E80066EE876AC0ED017AC0ED037A80ED007A47
:1043F80080ED027AC0ED046A70479FED0D7A77EE82
:10440800677A75E7DFED157ADEE79FED147A87E7BF
:10441800DFED0D6AF4EEE67AF1EE10FA44BFDFED57
:10442800076A76EEE77AB7E720A1070027D4D236E5
:10443800DB0F4940DB0FC940E4CB1641DB0F49C015
:10444800E4CB16C1DB0FC93FDB0FC9BF9A7C2E3600
:10445800FAAF4FB93587083CA4AA2ABE000000006D
:1044680070B4334890F8F030A3F13001092956D8D8
:1044780000F1F0042246FF3012F8015FA5F1300187
:10448800092904D88242F7D1002070BC7047141B58
:10449800022C4ADD2748002101E010F8013B01EB1E
:1044A800810103EB4103161A303B022E044603F048
:1044B800FF01F2DC204B03FB01F1A2424FF00003A5
:1044C8000DD903EB830314F8016B5B00303B3344D5
:1044D800A24203F0FF03F4D1184800FB03F32E2D8A
:1044E80006D01748A0FB032301EB930070BC70476C
:1044F800013204200024157804EB8404303D640064
:10450800092D00F1FF30A4B202D82C44A4B2013224
:1045180010F0FF00EFD1642202FB0433E1E7002131
:104528001D4600F1F0020B46D9E7064C0021C4E70E
:10453800683D0020593E00208096980040420F00B8
:10454800ABAAAAAA583E0020064B93F8111103F50E
:10455800777203F57173002918BF134693ED050AA6
:10456800704700BF683D0020064B93F8111103F512
:10457800777203F57173002918BF134693ED020A89
:10458800704700BF683D00209B1A00FB03F090FBBA
:10459800F1F01044704700BF094BD3F8740AD3F800
:1045A800782AD3F87C3A824202DB11460246084652
:1045B800984204DD9A42B8BF1A46104670477047C1
:1045C800683D002030B4124A02F5286019C88342B9
:1045D800D2F88C1AD2F8902A02DB1D4603462846E8
:1045E8008A4202DB15460A4629468842A8BF084681
:1045F8009342B8BF1346A04202DC22460446104646
:10460800834203DAA342B8BF2346184630BC70473A
:10461800683D00200B6810B414681B1B03605468C5
:104628004B681B1B43608B6892685DF8044B9B1AB0
:10463800836070472DE9F041804684B008461646ED
:1046480047F0FEF84FF47A72002304460D464CF00A
:10465800B7F8B6F900C00746294620464FF47A72E3
:104668003C2400230CFB04774CF0AAF8002594B2F4
:104678004FF47A73C3FB07452B46224601A847F03F
:1046880029F8404B93F8963A012B2FD0022B10D1E2
:104698009DF80670FB1E082B0BD83B1F062B1BD959
:1046A800BDF80400394646F0ABFF032F36D00B2F78
:1046B80041D022462B46404647F00CF804B0BDE8EE
:1046C800F081032F55D00A2FF3D19DF80870B7FA5F
:1046D80087F77F09002FECD033882B4A3C33A41886
:1046E8004FF00002338042EB0505E2E79DF80670C3
:1046F800FB1E072BDDD83B1F052BEDD9BDF80400A9
:10470800394646F07DFF9DF807309842D9D0033FDF
:1047180018BF0127002FDFD1CBE707380E28FCDCB4
:104728009DF80730834212D0CCBF01270027002F05
:10473800D2D1BEE707380728FCDC9DF80730834252
:104748000ED0B4BF01270027002FC5D1B1E79DF8CF
:104758000870012F94BF00270127002FBCD1A8E7BC
:104768009DF80870012F8CBF00270127002FB3D1B7
:104778009FE79DF80870003F18BF0127002FABD1B5
:1047880097E700BF683D002080EE360030B504682A
:10479800E46985B02CB10DF10F050095A04705B06F
:1047A80030BD204605B030BD38B50A4C0A4D23212E
:1047B800D5F8980A46F0C2F814F8011F0029F7D175
:1047C800064846F0F5F895F89C3A13B1012385F8A8
:1047D8009D3A38BD50E20508683D00205CE20508B6
:1047E8002DE9F04F89B0CDE90621DFF8B080074602
:1047F80099460026069B002B07DBB34205D00136FD
:10480800042EF7D109B0BDE8F08FD82303FB06FBCF
:10481800079B03EB0B0A204B00249B44B9F1000FC4
:1048280033464246384601DBA14530D13BF81450A7
:104838003AF81410009415F4006FA1EB050114BFA9
:104848004FF0560E4FF0480E05F01F0CB1FA81F1EB
:10485800C5F344154909CDE901C5CDF80CE005912A
:1048680041F086FE3AF814300599009413F4006F6D
:1048780003F01F0214BF56204820C3F34413CDE9A8
:104888000123039033464246384641F08DFE0134F9
:104898006C2CC3D1B3E700BF084800206CE20508C0
:1048A8002DE9F04F3B4C3C4B94F8405A3B4ADFF81B
:1048B800F4808946002D08BF1A4694F9411A8BB036
:1048C8000746374840F0FAFC04F594644D46002644
:1048D800B9F1000F3ED022782B789A426A683BD013
:1048E800D5E902CE0021A87D0790B5F914000690FD
:1048F800B5F912000590B5F910000093CDE903E071
:10490800CDE9012C334642463846099141F030FE44
:104918000999A37D6268B4F914B0B4F912A0B4F986
:1049280010E0D4E9020C079314F8183B0093CDE982
:1049380001203346CDE905ABCDE903CE4246013629
:10494800384641F031FE3C2E05F11805C0D10BB0B8
:10495800BDE8F08F4946DCE76168D5F808C09142A8
:1049680002D0D5F80CE0BDE7A168D5F80CE06145A8
:10497800B8D1E1687145B5D1206929698842B1D1BA
:104988006069696920F07F4021F07F418842A9D1A0
:104998000121A8E7683D002088E20508F8E005083D
:1049A8008CE205089CE2050870B51F4E96F82C3479
:1049B8002DED028B04460D467BB3D6F83814D6F895
:1049C8003C24D6F834340360C0E9011206F5866346
:1049D80093ED008ADFED158A95ED000A80EE280A2E
:1049E8004EF078FC23681844206028EE288A95ED5C
:1049F800010A80EE080A4EF06DFC63681844606096
:104A080095ED020A4EF066FCBDEC028BA3680246E7
:104A1800134496F82C04A36070BDC0E9003383608A
:104A2800B7EE008AD6E700BF683D00202C7D8E3F98
:104A3800F0B4244B93F82C5482B03DB900230360A2
:104A480043608360284602B0F0BC70474C68D3F8D6
:104A5800347401940C68D3F838649FED1B6AE71B23
:104A6800019CA41B07EE904A03F58664D4ED006A06
:104A780007EE107A66EE866AB8EEC77AF8EEE77A3D
:104A880027EE067A67EEA67A012A80ED007AC0ED55
:104A9800017A0DD08A68D3F83C34D21A07EE902AEE
:104AA800F8EEE77AC0ED027A284602B0F0BC70470B
:104AB800D1ED027AF8EEE77AC0ED027A284602B024
:104AC800F0BC7047683D00202C7D8E3F1D4A2DE9C3
:104AD800700394681C4E002CD6F8883403600EDDF1
:104AE8000C32002306F5916501E09C4207D052F88C
:104AF800041BA94203F10103F7D1012200E00022BF
:104B0800D6F8943483600271104A96F89834437149
:104B18001346F3E80289D3E90045D6F8B83452F8C9
:104B2800042CD6F8B01481625B0943EAC2635209C7
:104B3800C0E90489C0E90645C0E90832BDE8700348
:104B4800704700BF0000001000000020C0040020D3
:104B5800014BD3F80801704700000020014BD3F83F
:104B68009801704700000020014BD3F850017047AE
:104B7800000000200C4608B5054626F0E3FF204655
:104B880026F0E0FF0020FFF707FA284644F00AFB6A
:104B9800B0B9204644F006FB0028F6D00120FFF704
:104BA800FBF9204644F0F6FA0146284644F020FB7B
:104BB8000020FFF7F1F9284644F0F4FA0028E8D07D
:104BC8000120FFF7E9F9284644F0E4FA01462046B7
:104BD80044F00EFB0020FFF7DFF9DAE7F0B5002319
:104BE8000B604B608B60CB600B610268DFF88CC098
:104BF80089B004ADC2F385572E4647FA03F0C007C3
:104C0800344604D513F80C0004F8010B264601338A
:104C1800062BF2D11748C2F303240444002394F866
:104C2800044233708DF8184000F5037CC2F3053751
:104C38000DF1190647FA03F0C007344604D513F8F6
:104C48000C0004F8010B26460133062BF2D1002391
:104C58003370C2F3834406ABCDE90134084602F051
:104C68000F0305490095C2F3031246F0D7FE09B0B9
:104C7800F0BD00BF406E0508BCE205083C700508A1
:104C880010B4414A92F89530D06F023BD2E91D1416
:104C9800062B74D8DFE803F05A5C60500655040010
:104CA80064424942404280EAE073A3EBE07306EEB7
:104CB800903A84EAE473A3EBE47307EE103AF8EE53
:104CC800E66A9FED326AB8EEC77A26EE866A81EA0E
:104CD800E173A3EBE17307EE903AB4EEC76AF1EE25
:104CE80010FAF8EEE77A04DDB4EEE76AF1EE10FAAE
:104CF80034DC9FED266A27EE066AB4EEE76AF1EE29
:104D080010FA04DDF4EEC66AF1EE10FA2DD49FED28
:104D18001F6A67EE867AB4EEE77AF1EE10FA2BD5C1
:104D2800F4EEE76AF1EE10FA26D50029CCBF04208C
:104D380005205DF8044B70474B42404221461C4613
:104D4800B1E7634240420C461946ACE74942AAE73C
:104D58004B4261421C46A6E76442A4E70028CCBF48
:104D6800002001205DF8044B7047002CCCBF0220C6
:104D780003205DF8044B70474FF0FF30D9E7234616
:104D88000C4619468FE700BF00000010ABAA2A3F67
:104D980070B5284CDFED286A94F8383094F8482E1E
:104DA800D4F86C5E07EE103A94F8393007EE903A72
:104DB800B8EEC77AF8EEE77A27EE267A67EEA67A93
:104DC80004EB4206BDEEC77A0132FDEEE77A02F047
:104DD8000F01B6F84C3E84F8481E17EE102A17EE5D
:104DE800901AC31A2B448A42C4F86C3E82B0A6F8C3
:104DF8004C0E4FEA131312DC17EE101A17EE902A16
:104E080098B240F2FF350023009547F0FBFD2A4693
:104E1800002147F019FEA4F8700E02B070BD9BB2D5
:104E28009942D4BF581A00208242A6BF101A80B2F5
:104E38000020E6E7683D002014AE23412DE9F04F3D
:104E48002DED108B034693B004331193DFEDC1AA07
:104E5800109002230F928B460E938946109C4FEABE
:104E6800DB0504EB451202EB0511A5EB85034FEAC0
:104E7800C5084FEA051E05EB850A009101EBC3033F
:104E880008F104000EF104012E46204405EB450507
:104E980021444FEACA040D9602942C01C6EBC60CB5
:104EA8000394EC000D9D04944FEACC0405946C0126
:104EB8000194119D009C03EB46174FEACB0A02EBC5
:104EC800C6064FF0000C55ED011A11ED012AD6ED7A
:104ED800005AD7ED004A92ED003AD4ED003A10EDB1
:104EE800015A93ED004A72EE238A34EE248A71EE59
:104EF800836A35EE257A36EEA86A77EE087A35EEBB
:104F0800655A76EE275A36EE676A45ED015A82ED04
:104F1800006A90ED00AAD6ED012A93ED016AD7ED5B
:104F2800019A94ED010AD1ED005AD5ED007A92ED7F
:104F3800019A34EE644A76EE690A7AEE624A35EEF0
:104F4800C01A31EEC33A72EE633A34EEA02A77EE15
:104F5800C91A74EEE04A75EE805A75EE440AB0EE4E
:104F6800410A35EE045AA2EE2A0ADC44E145A2EED3
:104F78006A1AB0EE434AB0EE432AA0EEAA2AA0EE7F
:104F8800EA4AB0EE613AF0EE610AE4EEAA0AA4EE4B
:104F9800EA3AF0EE634AE5EE6A3AE5EE2A4A7AEE34
:104FA800222A36EE296A77EE897A72EE861A37EE69
:104FB800487A32EEC66A76EEE86AB0EE635A77EE61
:104FC800A53A77EEE57A73EEA18A36EE868A73EE15
:104FD800E13A76EEC66A77EEC71A72EE002A77EEE5
:104FE800277A74EE015A30EEE46A33EE457A32EEEF
:104FF800402A34EE414A74EEA04A35EE035AC5ED14
:10500800008AC2ED013A554401ED018A5244C4EDCB
:10501800006AC1ED001AC4ED017A514440ED012A3D
:10502800544487ED002AC6ED005A83ED004A80ED0E
:10503800006AC7ED014A504486ED017A574483ED72
:10504800015A564453443FF63EAF0D9B072B40F29E
:10505800A3810198109D059B049A0399029C08302E
:10506800281808330A902846C3180832821805936E
:10507800034608F108080EF10C0E0C330834083109
:1050880006920246454472440419411804934B465B
:105098000995D1460894079103924FF001084FF003
:1050A800000E9A460E9B9E440F9B03EBCE0303EB28
:1050B800CE0202EBCE0000EBCE0404EBCE0505EBEE
:1050C800CE060C9306EBCE07AEEB8E030B9207EBE6
:1050D800031202EBCE0C0CEBCE03029203EBCE02D2
:1050E80001931346D3ED01DA019BD0ED007A93EDDD
:1050F80001DA029BCDED027A93ED01CA0B9BDCED40
:1051080001CAD3ED007A0C9BCDED017A02EBCE02F9
:1051180002EBCE01009201EBCE02D3ED007A92EDC4
:1051280001FA009AD1ED01EA92ED01EAD7ED00BA51
:1051380096ED00BA95ED00AAD4ED009ACDED007A6F
:10514800DDE90376DDE90554DDE90701DDE9092339
:10515800C44601E0F304353F91ED006A56ED01FACB
:10516800D0ED002AD4ED005AD5ED006A93ED007A0F
:1051780057ED017A92ED002A96ED008A7FEE870AB4
:1051880032EE061A37EEA24A75EEA64A70EE841A77
:1051980031EE245A32EE462A31EE856A75EEE65A29
:1051A80006ED016AD4ED018A92ED019A91ED013A7A
:1051B80095ED016A97ED000AD0ED016AD3ED013A49
:1051C8003FEEC77A77EEE27A78EEC6FA79EE432AAE
:1051D80039EE033A30EE669A38EE866A70EE266A41
:1051E80078EE638A32EEEF0A72EEAF2A78EE233A4F
:1051F80030EEC44A32EE258AF0EE490A72EE655A5C
:10520800E2EEAA0ADC44E245A2EEEA9AB0EE682A87
:10521800F0EE472AE5EEAA2AA5EEEA7AA0EE2A2AB7
:1052280073EE065AE0EE6A8AF0EE67FA33EEA60AE3
:10523800E8EE6A7A71EE644A31EEC55A33EE463AC0
:1052480070EE651A73EEE63A34EE036A72EEA06AFF
:1052580034EE434A72EEE00A33EEE43AE8EE2AFA14
:1052680074EEA33A65EE6D2A77EE094A37EE499A4D
:1052780038EEE77A77EEA88A6DEEA17A9DED018A7D
:10528800E9EE857AE9EEA12A26EE6C5A6CEE831ACD
:1052980032EE6F1AA8EE035AE8EE061A2EEEA33A7B
:1052A80024EE6E6A9DED008A3FEE822AABEE043A48
:1052B800ABEE236A2CEE014A66EECC3AA8EE264AFB
:1052C800E8EE013A6FEE026A20EECF1AEBEEA06A22
:1052D800ABEE821A64EECE0A2EEE072A9DED028A04
:1052E800EAEE070AAAEE242A2DEE287A69EE4D4A3C
:1052F800A8EE097AE8EE284A70EE255AC6ED005A5B
:10530800C3ED007AC3ED012A4E4447ED011A87ED3B
:10531800005A4B4480ED003A80ED016A4F4482ED1B
:10532800004AC2ED013A4844C5ED006A85ED011A0C
:105338004A4481ED002A4D44C1ED010A84ED007A0A
:10534800C4ED014A49444C443FF606AF0A9B083372
:105358000A93099B08330993089B08330893079B12
:1053680008330793069B08330693059B0833059378
:10537800049B08330493039B083303930D9B08F1A4
:10538800010843457FF48EAE0E9BDDF834B0DB0098
:105398009BB2D1460E9361E513B0BDEC108BBDE80E
:1053A800F08F00BF38B503782DED0A8BD0ED01AA38
:1053B80030EE609A044669EE2AAAF0EE408AF0EED2
:1053C800607A0D46F0EE419AF0EE61BAB0EE42CA4C
:1053D800002B5DD190ED0B7A01F00103002B50D02A
:1053E80039EE477AF0EE497A87EE290AD4ED090AB0
:1053F800C4ED0B7AF5EEC00AF1EE10FA53DC94ED29
:1054080003AA20EE0AAA94ED0ABA94ED050A3AEE28
:105418008B8A68EE808A38EE0A8AB0EE4C1A38EE2B
:10542800288AF0EE6B0AB0EE480A47F0FDFAD4ED90
:10543800027A94ED047AC4ED0F8A29EE279AF0EEE9
:105448004B7AE9EE897A6B0730EE488A84ED0CBA1C
:1054580028EE078AC4ED0DAAE9EE887A84ED0EAA33
:1054680084ED100A08D5B0EECBBAB0EEE77AB4EE08
:10547800CB7AF1EE10FA01D5C4ED0A7ABDEC0A8BAD
:1054880038BD37EEC77AB1EE477A87EE290AADE71D
:1054980011F001034FF000020CBFB0EE607AB0EEDD
:1054A800497A02709AE7B0EE691A04F1180094ED8F
:1054B80003AA43F019FC2AEE00AAA4E730B41C782A
:1054C80084B1012C0CD1B3F902408AB1157B94FB4D
:1054D800F5F40470B3F90430527B93FBF2F30B70CC
:1054E80030BC70479A780270DB780B7030BC70471C
:1054F800054A82FB0452E417C4EB62040470B3F952
:1055080004301222E9E700BFABAAAA2A30B41C78FB
:105518004CB1012C05D1B3F90220B3F90430026073
:105528000B6030BC70479C7852B1157BDB7815FB5B
:1055380004F40460527B03FB02F330BC0B60704739
:1055480004EB4404A400DB7804601222F3E700BFF4
:105558002DE9F04F2DED028B87B00446324D0393B1
:1055680010460E46B0EE408A17464AF037FBD5F88B
:1055780074BE9DF848A0DBF800308BF80B604FF044
:10558800000820448BF80A00CDF8008058463246BF
:10559800D3F814B09DF84C903B462146D8479FED70
:1055A800230A039B019328EE000A5346FDEEC07AB6
:1055B800CDF8008017EE901A424604A80EF09EFC23
:1055C800D5F8783E13B11B784B452AD0D5F8843EE0
:1055D80013B11B784B4524D0D5F8903E13B11B78F6
:1055E8004B451ED0D5F89C3ECBB11B78A3EB0909DF
:1055F800B9FA89F94FEA591938464AF0EFFA0134ED
:105608000444E1B2D5F8740ECDF8009004AB3246EC
:1056180044F0ECF907B0BDEC028BBDE8F08F994679
:10562800EAE74FF00109E7E7683D00200000C842BB
:1056380030B583B00C46054601920EF015FC019B6F
:105648002246294644F088FA094A92F9A83E02EB14
:10565800430101335BB2352BC8BF0023012081F819
:10566800AC5E81F8AD4E82F8A83E03B030BD00BFF5
:10567800683D0020F8B5214D1D260C46074685F8E3
:10568800186F25F0ABFD002025F02CFD082025F033
:1056980029FD0E2025F026FD304625F023FD0420A7
:1056A80025F020FD042025F01DFD002025F01AFD21
:1056B800302025F017FD002025F014FD204625F0A8
:1056C80011FD002025F00EFD25F068FD05F61C7083
:1056D80025F06AFC00B9F8BD95F81C3F63B995F848
:1056E8001D3F302B00D03BB995F81E3F23B995F8E4
:1056F8001F3F3B700120F8BD0120F8BD683D002028
:10570800164991F8F02032B3F0B40646002003465B
:10571800074602E092F8F020DAB100EB80002E2A6A
:105728004FEA400004D10133CA18324482F8F070BD
:10573800CA18A0F1300592F8F020A2F13004092C23
:1057480098BF50190E2B03F1010301EB0302E1D9B5
:105758000020F0BC70470020704700BF683D002063
:1057680010B50A4C04F6442008F092FFD4F8503AD9
:10577800C01A47F0A3F90028B8BF404242F210739C
:105788009842D4BF0020012010BD00BF683D002012
:105798002DE9F04FB34CD4F898395A69D2078BB039
:1057A80002D50BB0BDE8F08F5A699B6912EA030A6B
:1057B800F7D0CAF307431AF4002F009340F0028190
:1057C800009B5D0743D41AF0020F5FFA8AF503D0F5
:1057D800D4F8983902225A61BAF1000FC0F20F8248
:1057E8001AF4006FCAF3072640F084812F0708D502
:1057F8009D4B9E48D3F834389847D4F898390822F6
:105808005A61ED0600F1E781F00600F1A981B106C1
:1058180000F12E81009BDA0609D5934B9348D3F803
:1058280044389847D4F898394FF480125A61009B4D
:105838009B06B6D58C4B8D48D3F848389847D4F892
:1058480098394FF400125A610BB0BDE8F08FD4F8C4
:105858009C299369D26913401FFA83FBBBF1000F9F
:10586800B1D0DFF80882CDF80CA045464FF000090A
:1058780009E05FEA5B0B09F1010908F1040805F189
:10588800280500F0D8811BF0010FF2D0D4F89C193C
:105898005FFA89F708694A6B04EB8703FA40D3F883
:1058A800A439D2019B68D2B202431A40D007D3B2BE
:1058B80016D54B6BD8F81820012000FA09F023EA16
:1058C80000034B63684B6948D3F82C380121916079
:1058D8003946984794F88F69012E00F0FA81012320
:1058E8001A0703D5D8F8182008239360DE0603D5D5
:1058F800D8F8182010239360580603D5D8F8182034
:1059080040239360990703D5D8F8182002239360A1
:105918001A06AED5D5E94C60D5F82431D8F818C0A8
:10592800311A8B42DCF8182028BF0B46033392B299
:10593800B2EB930F9DD9D4F89C29323704EB870337
:10594800CDE9019890469946B04238D2BEB3D5F811
:10595800241194F88F39D5F82821371AB94228BF6D
:10596800394601F1030E4FEA9E0E83B98FB2033711
:10597800BF10D9F894A90AD0013352F8040BCAF819
:1059880000009F42F8D1D5E94C60D5F82821DCF811
:10599800183008440A44B042C5F82821C5F8340133
:1059A8000AD195F81C11D8F83420012707FA01F11B
:1059B80022EA0102C8F834209BB29E45C4D3DDE92F
:1059C800019856E7D4F89C399D69DB691D402D0C78
:1059D8003FF4F6AE04F68C16DFF88CB0B046B1464C
:1059E800002708E06D0807F1010706F1040608F131
:1059F80028083FF4E5AEEB07F4D5F9B204EB8102D1
:105A0800D4F89C39D2F8E02992685B691A40D0072B
:105A1800D3B218D594F88F09726D01239842936018
:105A280007D11269D8F87C33C2F312029B1AC8F85E
:105A38008C33DBF828384846984794F88F39012B7F
:105A480000F0558101239A0702D5726D02239360F5
:105A58001B07C7D5DBF8303848469847736D0822CE
:105A68009A60BFE7702C002000000020FC35002061
:105A7800D4F89C39D4F8A4199A680868C2F341028A
:105A8800022A08BF03224FF0000514BF65F30A007D
:105A980062F30A0008605A6842F480725A6006A8E5
:105AA80049F094FFD4F89829D4F89C09D368BE49E2
:105AB800079D6FF38D23D3608068C0F341000144D4
:105AC80091F81412032900F0CD80B849B84801268E
