:020000040800F2
:1000000000000120F1AB050879AC0508ED050408F6
:1000100079AC050879AC050879AC0508000000004A
:1000200000000000000000000000000079AC05089E
:1000300079AC05080000000079AC05084DE404081F
:1000400079AC050879AC050879AC050879AC0508E8
:1000500079AC050879AC050879AC050879AC0508D8
:1000600079AC050879AC050879AC05084533010879
:10007000313301081D33010809330108F532010845
:10008000E1320108CD32010879AC050879AC0508E8
:1000900079AC050879AC050879AC050879AC050898
:1000A00009FB0008D1FB0008F5FA0008F9FB00087D
:1000B000BDFB0008A9FB000895FB0008B53F01083F
:1000C000C13F01089D3F0108A93F010879AC05081F
:1000D00079AC0508E1F90008D5F90008C9F900086C
:1000E00079AC050879AC050879AC0508E1FA000897
:1000F00045FB00081DFB00086DFB0008B932010834
:1001000079AC050879AC050881FB000879AC0508D5
:10011000BDF9000879AC050879AC0508EDD90008EF
:10012000A5320108913201087D32010869320108C7
:10013000553201080000000000000000000000002F
:10014000000000000000000000000000ADDD00081D
:10015000413201082D32010819320108B1F90008B5
:10016000853F0108913F010879AC050879AC050885
:1001700079AC050879AC050800000000000000001B
:1001800079AC050879AC050879AC050879AC0508A7
:1001900079AC050879AC05080000000079AC0508C9
:1001A00000000000000000000000000079AC05081D
:1001B00079AC050879AC05080000000000000000DB
:1001C000000000000000000000000000000000002F
:1001D00000000000000000000000000079AC0508ED
:0801E00048A705000100000022
:1001E800F8EB01200208000003002C0018EC0120A5
:1001F800020A00010200180038EC01200212000077
:1002080000011A0058EC01200115000000001E0032
:1002180078EC0120011B000000000D0098EC012083
:10022800011C000000000E00B8EC0120011D0000B8
:1002380000001E00D8EC01200118000000000C008E
:10024800F8EC01200119000000000E0018ED012053
:10025800012601000000180038ED0120011E0000F1
:100268000000480058ED0120011F0000000049006F
:1002780078ED01200120000000004A0098ED0120DF
:100288000121000000004B00B8ED01200122000010
:1002980000004C00D8ED01200123000000004D00B3
:1002A800F8ED01200124000000004E0018EE0120A6
:1002B8000125000000004F0038EE01200129000050
:1002C8000000140058EE0120012A00000000290057
:1002D80078EE0120012B01000000280098EE012093
:1002E8000227010000011F00B8EE0120022D0000C6
:1002F80000013E00D8EE0120012E000000003C0065
:0C030800F8EE0120012C00000000400075
:10800000037830B403B30246C0F10105531912F8E6
:10801000014FDBB2002CF9D101335B00DAB20C4C1A
:1080200003250B8022706570017859B10223002569
:108030005A1CE1540233D2B2DBB2A55410F8011F2E
:108040000029F5D130BC704702221346E7E700BF94
:108050000021012009284FF00103F0B407D903EBF8
:1080600083035B00B0FBF3F2092AF8D84BB3002678
:10807000DFF858C0ACFB03720D46B0FBF3F4002CE4
:1080800003FB14004FEAD202D4BF0027012756B9E0
:108090004FB9092B3E4612D8303405F8014B002366
:1080A0002B70F0BC7047092C06F10106CCBF57219C
:1080B0003021092B0C4405F8014B2946EFD9134612
:1080C000D8E70D4600232B70F0BC7047CDCCCCCC4C
:1080D000F0B500230E680DE0BCF1050F17D9BEF115
:1080E000050F18D80A2C16D103EB830316F8010BE1
:1080F00004EB4303A0F13005A0F1610CA0F1410EA7
:10810000A0F13704EFB2092FE6D82C46ECE7A0F136
:1081100057040A2CE8D00E601360F0BD0369426872
:108120001F2BF0B430D9A3F1200520215468A940B9
:10813000214214BF0121002121B38469217C02293D
:1081400030D060681F2BE768058A1849C5F3021410
:10815000174E7F6851F824400568365DBC5924F0FD
:108160000104BC514479E86801EB4401098C01F435
:10817000F05120EA0101E9600ED9A3F1200120238A
:108180008B40D360F0BC7047202114689940214295
:1081900014BF01210021CFE7202101FA03F3F0BC35
:1081A00093607047002222744268CAE7280E0608CE
:1081B000880F06082DE9F04F02238A468B462DEDE5
:1081C000108B93B0DFEDBB8A0E93034610900433FF
:1081D0000F9211934FEADA06109DDDF844C04FEA82
:1081E000CA0305EB46110D96F0004FF0000E01EBAF
:1081F000061437010390A6EB86020094029706EB63
:10820000460804EBC202041D381D06EB86072C4409
:10821000C6EBC60901972844019D02EB46174FEAB9
:10822000C909ED0001EBC60601954FEA0815049552
:108230004FEAC80505950D9D4FEA4518009DD1ED03
:10824000006AD64495ED007A96ED003AF34597ED35
:10825000004A1CED015A50ED017A14ED016A75EEE9
:10826000262AD2ED005A35EE665A76EE033A77EEBC
:10827000876A36EE436A77EEC77A35EE847A75EE12
:10828000C45A72EEA64A72EEE62A76EE656A33EEBC
:10829000874AF0EE451AA6EEE85A34EE843A74EEB8
:1082A000C44A36EE256A0CED013AB0EE672AC1EDFC
:1082B000004AE6EEA81AD7ED015AB0EE453AD5EDE0
:1082C000010AA6EE282A96ED015AE6EE687AD4ED68
:1082D000006A33EEC76A92ED014AD0ED004A76EEAD
:1082E000C53A34EE658A91ED010A76EE856A9CED19
:1082F000007A34EEE05A34EE254A33EE881A77EEEF
:10830000405A74EEA04AF0EE450A73EEC83AA1EE68
:10831000685AE1EE280A37EE007AB0EE651AE3EE0D
:10832000E85AA3EEA81A76EE843A76EEC46A37EEDF
:10833000244A37EE647A32EEA60A74EE234A72EECD
:10834000E66A34EE634A77EE462ACCED004A36EE12
:10835000077A9C4481ED014A71EEA03A00ED010AD2
:1083600033EE054AC5ED006A71EEE04AC0ED002A21
:1083700033EE455A85ED017A31EE426A35EEE77A01
:1083800044ED013A72EE016AC7ED004A77EEA57A34
:1083900086ED004A194482ED005A1D4484ED006ABE
:1083A0001844C7ED016A1C4486ED017A1F44C2EDF2
:1083B000017A1E441A443FF642AF0D9A072A40F252
:1083C000A081039A08F10808109F09F108000832FB
:1083D000019E049D94463A460836059C4244083561
:1083E000083402990A9207EB0C020C314FF0000896
:1083F0000992BA1908927A1907923A1906923A180C
:1084000005927A18039207F10C020492012202925B
:108410000E9ADDF80CC090440F9A049F02EBC8023C
:10842000059EA8EB880E069D02EBC80192ED00DACE
:10843000079C01EBC802D1ED00CA089802EBC80105
:1084400092ED00CA01EBC802D1ED00BA02EBC801FF
:1084500092ED00BA01EBC802D1ED00AA099902EB36
:108460000E1E92ED00AA0A9A0EEBC809DEED019AE3
:108470000B9209EBC80299ED019A0C9102EBC80925
:1084800092ED018ADDF808E009EBC80299ED010AD6
:1084900002EBC809D2ED010AD9ED017A09EBC80255
:1084A000CDED007AD2ED017ADDE90B21CDED017A37
:1084B00002E000BFF304353FD0ED003AD64492ED20
:1084C000007AD4ED007AF34595ED006AD6ED006AA6
:1084D00057ED014A1CED015A91ED004A34EE872A0E
:1084E00074EEC74A97ED00FA35EE277A74EE232A28
:1084F00035EE675A76EE267A72EE07EA36EE666A4F
:1085000032EEA73A34EE634A32EE472A7EEE836AB1
:1085100034EE067AB0EE45EA47ED016A34EE464A9B
:10852000D0ED016AA7EE685A91ED016AA7EE28EA3C
:10853000D6ED013AF0EE64DA95ED017A76EE66FA60
:1085400092ED011A76EE266A37EE636A7FEE415AA3
:10855000E4EE28DA72EEE72ADCED007AE4EE684A0F
:1085600094ED014A37EE237A77EEC41A7FEEC63ACD
:1085700077EE847A3FEE866AB0EE654AE3EEE85A1B
:108580003FEE01FAA3EEA84AF0EE613AE6EE681A71
:1085900036EE871AE6EE283A36EEC77A3EEEC33A52
:1085A00074EE4EEAB0EE616A7FEE271A7FEE677ACC
:1085B00072EE076A31EEC1FA32EE477A37EEE22AFE
:1085C00072EEA77A7DEEA32A7DEEE33A75EEC5DA68
:1085D00035EE255A60EE0F5A63EE40FA3EEE044A3D
:1085E000EBEE835A34EE86EA74EEC64A26EEC96A8A
:1085F000EBEE8FFA9DED00FA71EE811AB0EE653A5E
:1086000069EE025AACEE826A9DED002A2FEE27FA3F
:10861000C7ED001AECEEA65A82ED003A27EE422A88
:10862000C2ED01FA69EEAE6A1F44AAEE87FA1A4457
:1086300022EEE97A8CED006AAAEEA72ADDED017A36
:10864000EDEE226ADDED012AADEE2E7A4CED015AF7
:1086500067EE847A9C4463EEE22A84ED00FA6EEEC3
:1086600060EAEAEE237A84ED012AEAEE042AC1EDFB
:10867000006AEBEE2DEA81ED017A60EEAD3A1C4422
:1086800028EE054A194464EEC8DAEBEE0E3AC6ED60
:10869000007AACEE244AC6ED012AECEE05DA1E445F
:1086A000C0ED003AC0ED01EA184485ED004AC5ED81
:1086B00001DA1D443FF600AF0A99029A08310132EF
:1086C0000A91099902920831099108990831089193
:1086D00007990831079106990831069105990831E3
:1086E00005910499083104910399083103910D997A
:1086F00091427FF48DAE0E9B8A46DB009BB20E93B7
:1087000068E513B0BDEC108BBDE8F08F99B10A6B32
:10871000824216D9154BD3F82C21914221D34C39E2
:1087200091421ED30B6B9842F9D38B6B9842F6D8CB
:108730000B46184670470D4BD3F82C110A6B90422C
:1087400012D30B680BB9F4E70A6B90420B4602D3C5
:108750008A6B9042EDD951F84C3F002BF4D118466A
:1087600070470023184670470A46D8E700210120C9
:108770002DE9F047CC0143D1034622494FF0FF32A7
:10878000022443F8081B7E2642601846DFF87880F2
:108790002644051D6FF07047D8F830914FF0010A5C
:1087A000013E494608E0A3421CD0631C45F8043C46
:1087B000321B1C460435CAB10B6BA34202D88B6B2B
:1087C000A34204D22046FFF7A1FF014690B10A79E7
:1087D0004B6B002AE7D1A34204D0E6D2631C45F8D4
:1087E000042CE5E7631C45F8047CE1E7C8F8301188
:1087F000BDE8F087321B631C494645F804ACD8E756
:108800008026C3E7F8FFFF0F00210120054BD3E9C5
:108810004E02431E904294BF4FF4805000209B1A9A
:108820001844704700210120012380F84930704727
:10883000044B93F83C03A0F10300B0FA80F0400928
:10884000704700BF00210120014BD3F8740370472B
:108850000021012001207047704700BF704700BF12
:10886000212838B505D0222828D0202810D0002073
:1088700038BD0029FBD0072AF9D1174B18791C689D
:108880005A799B79087100200C604A718B7138BD50
:108890000029ECD0072AEAD1104B08680D794C79F1
:1088A000D3F8782389790C4B18601D715C7199712C
:1088B000002ADCD0014600209047D8E70029D6D016
:1088C000022AD4D1054BD3F87C33002BCFD00988B2
:1088D00000209847CBE700BF0000012000210120C5
:1088E0000020704700207047F0B4002452004E1C56
:1088F0002746030FB0F1204F4FEA001003F1300577
:1089000003F1370334BF0D550B5537550234A242DE
:10891000EFD1F0BC704700BF024808B5FFF770FB0D
:10892000014808BD0C8A060800210120024808B54C
:10893000FFF766FB014808BD1C8A060800210120DC
:108940000B481A220B4B00681B680A80C01801D123
:1089500009487047094B0822094910B51C68FFF700
:10896000C3FF042207492046FFF7BEFF024810BD9F
:10897000107AF01F187AF01F08000120147AF01FF7
:108980000A0001201A000120024808B5FFF738FB51
:10899000014808BD288A06080021012008B520B931
:1089A0000448FFF72DFB044808BD0448FFF728FBE7
:1089B000014808BD308A060800210120548A0608B3
:1089C000042301480B8070472400012030B4144672
:1089D0001A69A24209D30D199B69AA4238BF111B1B
:1089E0000A46E11830BC57F06BBE30BC704700BF80
:1089F000012070470120704700207047054B002080
:108A0000D3F8083110B44FF4007414805DF8044BAF
:108A10000B6070470021012010B50446002221217F
:108A2000006846F029FC2068FC22202146F024FC46
:108A300020684022242146F01FFC20680C222321BC
:108A400046F01AFC20680022222146F015FC012085
:108A500010BD00BF10B5012204460B21006846F08E
:108A60000BFC30B120681D220921BDE8104046F002
:108A700003BC10BD59B112486423D0F8800303FB36
:108A800000F3002BB8BF03F6FF731B130B60AAB1F2
:108A900064210C4B41F29A0010B4094CD4F8844381
:108AA00001FB04F183FB0143CC170B44C4EB2323EC
:108AB0005DF8044B18441060012070470120704796
:108AC0000021012089888888012070470120704793
:108AD0004FF40063838170474FF4006383817047D4
:108AE000436A826910B4D154436A416B046901330B
:108AF0000A68A34228BF00235DF8044B42F08002BD
:108B000043620A60704700BF016A034610B44A1C02
:108B1000C4684069A24228BF00225DF8044B405C53
:108B20001A627047D0E90902101AB0FA80F04009C1
:108B3000704700BFD0E909239A4204D30069D31AD1
:108B40000138C01A7047006902440138D31AC01AAC
:108B5000704700BFD0E907239A4201D3D01A70476B
:108B6000C0681044C01A7047D0E90920101AB0FA42
:108B700080F04009704700BF4171704743799B07FF
:108B80000AD5436A8269D154436A01690133B3FB50
:108B9000F1F201FB12334362704700BF437913F0D7
:108BA000010313D0C268D0E9073130B45B1A541EF8
:108BB000234008D04D1C4369B5FBF2F45B5C02FB1B
:108BC0001452DBB20262184630BC70471846704738
:108BD000437913F0020308D00369D0E90921581E34
:108BE000531A0340DBB2C01A70471846704700BFE3
:108BF000437913F0010306D0C268D0E90731581A4F
:108C0000531E184070471846704700BF0F4B9842DC
:108C100016D0A3F57843984214D003F580639842A8
:108C200012D003F57843984209D1032303EB830361
:108C3000074A02EB8302138F01339BB213877047FD
:108C40000023F3E70123F1E70223EFE700300140BF
:108C5000000001202DE9F04F2B4B12252B4C42F642
:108C6000F82ADFF8B4C04FF0000B04F5707EC4F8AA
:108C7000A83304F57A79264B85B08046402084F8E5
:108C800088530F461646C4F8B4E3C4F8A4C3C4F826
:108C9000B893C4F8E033C4E9F033C4E9F233C4E96B
:108CA000F433C4E9F633C4E9E4AB2FF055F90546D3
:108CB00020B30BF043FB98F800C0B0F100083F78F8
:108CC00095F904004B4614BF03220122BCF1000FAA
:108CD000009601924FF040010CBF07250625002F9A
:108CE0000C4A14BF08260026354302952EF07AFF61
:108CF000B8F1000F05D1003818BF012005B0BDE85C
:108D0000F08FC4F82804F6E789F902080021012051
:108D1000E003E003590A030861F902082DE9F04372
:108D2000DFF8A49087B04FF0000C884609F10604E4
:108D30004E4609F160034F46A0EB0C0294F800E0A8
:108D4000002AA0EB0E05B8BF5242002DB8BF6D42FD
:108D5000954202DA4FFA8EFC27460634A342EBD145
:108D600009F15A017B88002203E0B14217D016F8BE
:108D7000062F62451C46F8D1A8EB0302B6F802E0C4
:108D8000002AA8EB0E05B8BF5242002DB8BF6D42B5
:108D9000AA42EADDB142734637467446E7D17A7992
:108DA00003463D79032102940120CDF8008004920E
:108DB0003A7803950192034A4EF05AFA384607B0C2
:108DC000BDE8F083788A0608500E06082DE9F84FB2
:108DD0000A9C8A46904600212022994606460B9D11
:108DE00057F06AFE5CB16189D4E900237182C2F355
:108DF0000F40F281C3F30F42F38230823283504638
:108E000050F024FF18F0100F18D1431EB0B10AEB38
:108E1000000401E0013B11D314F8017D2E2FF9D19C
:108E2000C41A082B03F1010B04F1FF34A8BF082377
:108E3000D344032C1A46A8BF032406E008280246A0
:108E4000D3464FF00004A8BF08224FF0203306F1AC
:108E500008075146304673603360C6F8073057F054
:108E60002FFC22465946384657F02AFC741EF21D44
:108E700014F8011FA1F161032039192B98BF21704B
:108E8000A242F5D106F10B0117F8013BA3F16102F3
:108E9000203B192A98BF07F8013C8F42F4D1C9F34F
:108EA0000F42182386F80B80A6F81A90B282F5615B
:108EB0003373BDE8F88F00BF2DE9F041DFF868801B
:108EC0000F46D8F85823D2F81432002BFBD137B311
:108ED000C519441E134E013D14F8010FD8E94E2167
:108EE0004B1C7054C3F30B0393422CBF4FF48051BF
:108EF0000021D21AC8F83C310A44012A0DD10120C0
:108F000045F096FAD8E94E318B4294BF4FF4805227
:108F100000225B1A1344012BF1D0AC42DCD138465D
:108F2000BDE8F081C468012000210120F8B50021CE
:108F300090F8485080F848100DB90120F8BD0E4E49
:108F400096F83C33032B01D00846F8BD00F13404F9
:108F5000D6F82C7401E0002DEFD029462046FFF70B
:108F6000ABFFD6F82C342D1A0444DB1B322BF2D97C
:108F7000B5FA85F04009F8BD00210120002280F8F3
:108F80004920D3E790F848305A1C0344D2B280F805
:108F9000482083F8341090F84930012B02D1132A6D
:108FA00000D87047C2E700BFF8B5FFF741FC00B931
:108FB000F8BD0A4E0D461446D6F82C7408E0FFF7AB
:108FC0007BFFD6F82C34241A0544DB1B322BEFD858
:108FD000002C21462846F2DCF8BD00BF002101200C
:108FE00010B5012204461021006846F045F900B989
:108FF00010BD142045F01CFA2068A0221121BDE804
:10900000104046F039B900BF10B5072204460A21C6
:10901000006846F031F9052045F00AFA2422412182
:10902000206846F029F9052045F002FAC0224221C5
:10903000206846F021F9052045F0FAF9012010BD1D
:1090400010B5782204460021006846F015F9052085
:1090500045F0EEF920220121206846F00DF90520A7
:1090600045F0E6F900220221206846F005F9642067
:1090700045F0DEF9012010BD0023DFF8A0C22DE984
:10908000F04F1A46A7B00A250CF5866101931646E3
:109090009CF874340F46964610460095A6E002EB05
:1090A000CE0E0CEB4E02CEF307265FFA8EF7B2F827
:1090B00078446507E2B24FEA142A40F1D0805C069A
:1090C00016D400F1020943F04003B9F18C0F00F20D
:1090D000198126AD441C05EB000801254846019581
:1090E00026AD2C444FF0040508F88C5C04F88C3C49
:1090F00000F1020946F0020BB9F18C0F00F2078172
:1091000026AC00F104084FF005050444B8F18C0FBB
:1091100004F88C5C04F88BBC00F2F98026AD920058
:1091200005EB090B00F106094FF00605D2B2B9F1C3
:109130008C0F0BF88C5C04F8897C00F2E8800DF150
:10914000980B4FF00705C34400F10808B8F18C0FE5
:109150000BF88C5C04F8872C00F2D98026AA4FF01B
:109160000505914400F10A028C2A09F88C5C04F888
:10917000856C00F2CC8026AE4FF00605B04400F1BD
:109180000C068C2E08F88C5C04F8837C00F2BF80FF
:1091900000F10B0426A84FF007050244304626AE26
:1091A00002F88C5C344404F88CAC4FEA5E160EF086
:1091B0001F04012551F8262005FA04F422EA0402CE
:1091C00041F82620009A013A009200F08C800EF1BE
:1091D0000106B6F5F07F80F086804FEA561E4D4AB4
:1091E00001EB8E074FEA8E0E97427CD206F01F02EB
:1091F0004FF0FF353C6805FA02F2224092FAA2F2E3
:10920000B2FA82F2D2B2202A7FF449AF3C1D414A21
:1092100094421BD2404A009DD21B083722F0030221
:10922000174401E0BC4211D026460434326892FA59
:10923000A2F2B2FA82F25FFA82FEBEF1200FF1D002
:10924000761A00951EEBC60E7FF52BAF019A0AB178
:109250008CF8743400284AD127B0BDE8F08F5D0641
:1092600003D403F03808904516D023F0780300F1BA
:1092700002082343B8F18C0FDBB243D80125421C0E
:1092800026AC019526AD044440462A444FF004051F
:1092900004F88C5C02F88C3C821C8C2A37D826ACF3
:1092A0004FF0050504EB0008041D8C2C08F88C5CBD
:1092B00008F88B6C2BD826AD861D2A448C2E4FF0D7
:1092C000060502F88C5C08F8897C20D8421D26AD82
:1092D00026A82A444FF007050444304604F88C5C65
:1092E00002F88CAC61E7019A0AB18CF87434034639
:1092F00003AADCF86C04002145F0DEFE012027B053
:10930000BDE8F08F01226FF0004001924DE76FF051
:1093100000404AE76C25012067250120002101203B
:10932000F8B5016B0546304F90F82D002C68B7FB5F
:10933000F1F189B2FFF7F2FC06460021204673885E
:10934000B7FBF3F7AF6346F0D5FA80226B212046D6
:1093500045F092FF642045F06BF807226821204613
:1093600045F08AFF642045F063F800226B21204617
:1093700045F082FF642045F05BF801226B21204616
:1093800045F07AFF0F2045F053F818221B212046A4
:1093900045F072FF0F2045F04BF818221C212046A3
:1093A00045F06AFF0F2045F043F832791A21204634
:1093B00045F062FF0F2045F03BF8727919212046F5
:1093C00045F05AFF642045F033F837212046122239
:1093D00045F052FF0F2045F02BF820460321BDE851
:1093E000F84046F087BA00BF40420F00644B2DE9B9
:1093F000F04F93F87264C7B006B1FEE7604A0123EC
:109400008846044692F87354D2F86C1405F0F705B8
:1094100082F87234039182F873540B79012B00F0B7
:109420009280022B7FD18B6808462A4605AF13F045
:10943000010118BF314645F011FE514BFF2C7C70E5
:10944000D3F86C3403934FF009033B7071D84FF09D
:10945000000C022200204FF00A0B0DF1150A4FF00C
:109460000B090DF1170E10E0B5F5827F07F802B079
:109470000AF8023018F8003011D8013007F80490CB
:109480000EF802302A46362810D0941C4CEA00030D
:10949000151D911DB4F5827FDBB22E46E4D9013053
:1094A0006FF00046374936283246EED1B1F5827F5B
:1094B00062D808230DF11501A020BB55931C8854D8
:1094C0003A46039800210DF1130445F0F5FD2C4BAD
:1094D000D3F86C040379012B19D0022B0CD122464E
:1094E000A02145F095FD18B1237813F0200324D076
:1094F000234BD3F86C040379214A012BD2F81019BD
:10950000B2F814294D6982EA05024A61E5D18568FD
:10951000A022417C05F0010590F91000CDE900453D
:109520000AF088F8DFE70923FF2C05AF7C703B7059
:109530008DD9A40804F0C00C8BE7114A82F872346C
:1095400047B0BDE8F08F8A6805AF91F9100002F0CE
:10955000010C497C3246CDE9007C3D700AF0D2FA1C
:10956000074BFF2C7C70D3F86C3403934FF0090346
:109570003B707FF66CAFDCE76FF00043A0E700BF05
:10958000002101200100008010B584B000230446B2
:1095900027210DF1070200688DF8073045F0CAFD5C
:1095A00028B19DF8073013F0080302D1184604B023
:1095B00010BD062302AA2821206845F013FE30B30F
:1095C0009DF809209DF808309DF80B1043EA02230E
:1095D0009DF80A201BB242EA01229DF80D10002BD3
:1095E00012B2B8BF0333002A4FEAA303B8BF033255
:1095F000E3869DF80C30921043EA012322871BB2C8
:10960000002BB8BF03339B10638704B010BDE08606
:10961000A06304B010BD00BF30B5002185B0044682
:10962000C1860DF107028163006845F083FD28B112
:109630009DF8073013F0080302D1184605B030BD7D
:10964000062302AA0121206845F0CCFD0028F5D0B0
:109650009DF80C109DF80D309DF8082043EA012379
:109660009DF809109DF80A5041EA02215B429DF8DD
:109670000B20638742EA0523E186238705B030BDCE
:1096800070B5002582B004460623C5866A46856308
:109690000321006845F0A6FDE0B19DF803209DF888
:1096A00002309DF8016043EA02239DF800109DF806
:1096B00005501BB29DF8042041EA06215B4242EAB4
:1096C000052201EB410103EB430302EB4202E18679
:1096D0002387628702B070BD30B5002585B004468F
:1096E0000621C5860DF107028563006845F022FD5D
:1096F00028B19DF8073013F0040302D1184605B0D5
:1097000030BD2946062302AA206845F06BFD0028DB
:10971000F5D09DF809509DF80B309DF808109DF884
:109720000A2041EA05219DF80D5042EA03229DF8E6
:109730000C30E18643EA05232287638705B030BDFC
:1097400030B50446006883B003796A46022B4FF0B7
:1097500006030CBF4321032145F044FDB0B19DF841
:1097600000509DF802309DF801109DF8032041EA59
:1097700005219DF8045042EA03229DF80530E18658
:1097800043EA05236287238703B030BDE086A063E8
:1097900003B030BD10B582B00023044627210DF17F
:1097A00003020068ADF804308DF8033045F0C2FCC8
:1097B000B0B19DF80330DB0712D520680379022B86
:1097C00011D0022301AAAB2145F00CFD9DF8051034
:1097D0009DF80430064A43EA01231BB2C2F88433E1
:1097E000012002B010BD01AA6B2145F0FBFCEDE7A2
:1097F000002101201949002330B583B0B1F8885009
:10980000044627210DF1030200688DF80630ADF8FB
:1098100004508DF8033045F08DFCD8B19DF803302D
:109820009B0717D5206801AA0379022B4FF0030389
:109830000CBF6821A82145F0D5FC9DF805309DF8A6
:1098400006001B029DF80410054A43EA00430B433F
:10985000C2F88033012003B030BD00BF280E0608D7
:1098600000210120F0B5016B05464E4F83B090F802
:109870002D002C68B7FBF1F189B2FFF74FFA0646CD
:10988000002120467388B7FBF3F7AF6346F032F848
:1098900080226B21204645F0EFFC962044F0C8FD65
:1098A00003226821204645F0E7FC962044F0C0FDE5
:1098B00003226B21204645F0DFFC0F20002144F0FD
:1098C000A3FD10226A21204645F0D6FC0F2000217E
:1098D00044F09AFD00226C21204645F0CDFC0F207B
:1098E000002144F091FD72791921204645F0C4FC15
:1098F0000F20002144F088FD18221B21204645F04E
:10990000BBFC0F20002144F07FFD18221C212046C3
:1099100045F0B2FC0F20002144F076FD10223721E3
:10992000204645F0A9FC0F20002144F06DFD32795E
:109930001A21204645F0A0FC0120002144F064FDDE
:109940002046032145F0D6FF286806236A464321B6
:1099500045F048FCD0B19DF802209DF803309DF8F9
:10996000004043EA02239DF801109DF804001BB259
:109970009DF8052041EA04216B845BB242EA002293
:1099800029840133AA8406D003B0F0BDB5F9223092
:109990005BB20133F8D195F920300133F4D10620C0
:1099A00045F0C8F940420F00436BDA69910670B583
:1099B000044614D5586AE36AC0B2002B00F0BA809E
:1099C000216B9847636B1A6822F480721A609A6858
:1099D00022F001029A609A6942F008029A61DA69FB
:1099E000D20701D501221A62DA69960701D502224F
:1099F0001A62DA69550701D504221A62DA6910077A
:109A000001D508221A62DA69110613D594F89D204F
:109A1000212A0FD0D4E909128A4200F09780A16967
:109A2000895C0132C9B299622069B2FBF0F100FB96
:109A30001122A262DA69520600D470BDDA6904F11B
:109A400034001D681607996815D1960602D5A90637
:109A500000F1A780160602D5280600F19080510675
:109A6000EBD56A06E9D51A68202122F040021A6077
:109A700084F89D1070BD01F0010105F490760E434D
:109A8000E8D0D60709D5EE0507D501261E62D4F821
:109A9000A06046F00106C4F8A060960762D456079D
:109AA00008D539B104261E62D4F8A06046F002063B
:109AB000C4F8A06016070BD505F02006314307D087
:109AC00008211962D4F8A01041F00801C4F8A010D0
:109AD000D4F8A0100029B0D0960601D5AD0679D4EF
:109AE000D4F8A020110703D49A6812F040026ED077
:109AF0001A68202122F490721A609A6822F00102FA
:109B00009A6084F89E109A68520696D59A68D4F89E
:109B1000980022F040029A6000288ED0364B0365F0
:109B20004FF060FD002888D0D4F89800BDE8704060
:109B3000036D1847E3696269D054E369E168013352
:109B4000B3FBF1F201FB1233E3613BE70022A4F81F
:109B500086201A6822F080021A60DA6952067FF5C0
:109B60006CAF6BE70029A5D002261E62D4F8A06076
:109B700046F00406C4F8A06056079BD592E794F817
:109B80009D20212A7FF459AFB4F8862092B262B9A1
:109B90001A6822F080021A601A6842F040021A60C5
:109BA00070BDBDE870404EF065B8E26BB2F5805F05
:109BB00014D0D4F88020511CC4F8801012789A6216
:109BC000B4F88630013B9BB2A4F8863070BDC4F86F
:109BD000A02070BD4EF04EF8636B81E7626C002AE6
:109BE000E7D1D4F8802032F8021BC1F30801996252
:109BF000C4F88020E4E700BFBD4605082DE9F04722
:109C0000046982B0C3681C403FD081460D464FF0C6
:109C1000004601F1500801F13807B4FA84F326FA3E
:109C200003F21B3BD2431440C9F81020002D55D03D
:109C3000042B28D8DFE803F04940362C03002B69B9
:109C4000D9F82CA033B19B6823B11FFA8AF105F132
:109C500008009847AB6A33B19B6823B11FFA8AF1B9
:109C600005F1200098472B6C2BB19B681BB11FFAA4
:109C70008AF138469847AB6D2BB19B681BB11FFA30
:109C80008AF140469847002CC7D102B0BDE8F08762
:109C90002B6905F10800D9F834105B689847002C4F
:109CA000BBD1F2E7AB6A05F12000D9F838105B6848
:109CB0009847002CB1D1E8E72B6C3846D9F83C1016
:109CC0005B689847002CA8D1DFE7AB6D4046D9F818
:109CD00040105B689847002C9FD1D6E7042B07D82B
:109CE000DFE803F00319140F0A00D9F8403001939C
:109CF000019B002C91D1C8E7D9F82C300193019B2E
:109D0000F7E7D9F834300193019BF2E7D9F83830FE
:109D10000193019BEDE7D9F83C300193019BE8E703
:109D2000334A0023334910B4C2F8503B4CF250344C
:109D3000D2F8540B04E0D2F8543B1B1AA34210D8BB
:109D4000CB68DB03F7D4CC6814F4F9740DD1C86880
:109D500010F0010002D001232046CB605DF8044BD7
:109D6000704703205DF8044B7047CB68990705D511
:109D7000D2F8503B43F02003C2F8503B1D4BDB6848
:109D8000DB0605D5D2F8503B43F01003C2F8503B38
:109D9000184BDB689C0605D5D2F8503B43F008030E
:109DA000C2F8503B134BDB68580605D5D2F8503B40
:109DB00043F00403C2F8503B0E4BDB68190605D58F
:109DC000D2F8503B43F00203C2F8503B094BDB682A
:109DD000DB0505D5D2F8503B43F04003C2F8503BB9
:109DE000044B4FF4F97201205DF8044BDA607047C0
:109DF00000210120003C024070B40D4D064604686D
:109E000004E0D5F8543B9B1A0A2B06D8A36931EA23
:109E10000303F6D1002070BC7047002320220320EA
:109E200086F8412086F8403086F8423070BC704792
:109E30000021012070B41C4D0646046804E0D5F8EA
:109E4000542B521A0A2A25D8A36913F02003F6D0FE
:109E500010222023E261E361A3699A0701D5002360
:109E6000A362A369DB0710D5636804250F4A20218C
:109E70000120134000226360756486F8402086F854
:109E8000411086F8422070BC7047A36943F001037B
:109E9000A361E9E72022032086F8403086F84120BC
:109EA00086F8423070BC70470021012000E800FEB7
:109EB00070B5134E04460D460AE09B69DB0602D5D9
:109EC000FFF7B8FFC8B9D6F8543B5B1B0A2B07D87D
:109ED0002368294620469A699207EED5002070BD76
:109EE000636C2021002203200B4384F8402063642C
:109EF00084F8411084F8422070BD012070BD00BF7D
:109F00000021012070B5134E04460D460AE09B69FE
:109F1000DB0602D5FFF78EFFC8B9D6F8543B5B1BB2
:109F20000A2B07D82368294620469A699206EED55F
:109F3000002070BD636C2021002203200B4384F8B5
:109F40004020636484F8411084F8422070BD0120F1
:109F500070BD00BF00210120154BDB68C3F3022355
:109F600010B4C3F107041A1D042C28BF0424062AC8
:109F70004FF0FF328CBF033B0023A240002821EAB0
:109F8000020101FA03F108DB09010A4BC9B20344DB
:109F900083F800135DF8044B704700F00F000901CF
:109FA000054BC9B2034419765DF8044B704700BFF6
:109FB00000ED00E000E100E0FCEC00E02A4B42F2A2
:109FC0000F722A4800219B6FA0FB0303284830B57D
:109FD000DB0C284C83B0013BC4F8642B94F8952B20
:109FE000C4F8580BC4F8681BC4F85C3BC4F8601B89
:109FF000002A34D0022320491D4884F8953B4FF0B5
:10A00000FDFC1E4B01220621372084F8952B1A6C8B
:10A010001B4D42F020021A641B6C03F020030193D5
:10A02000019BFFF799FFD4F8583B4FF40001154A04
:10A0300000205160D968D4F8582341F00101C4F8D8
:10A040007C03C4F87803D96019680F4C41F0010112
:10A050001960C2F81002C2E9814503B030BD02F0B8
:10A06000FF0084F8940BC5E70000012083DE1B434A
:10A0700000140040002101205C2C01200038024027
:10A08000C468012000E100E0C458012038B50D4B40
:10A090000D4A9B6FA2FB03239B09013BB3F1807F19
:10A0A00009D20A4AF0250A4C00200721536084F89F
:10A0B00023509060116000214FF0FF30FFF74CFFFC
:10A0C000002038BD00000120D34D621010E000E0F8
:10A0D00000ED00E02DE9F047BF4B0321BF4C4FF0EE
:10A0E000A04088B0402584F8511F1A6BC4F8980B23
:10A0F000042042F00102C4F89C0B04F5A0701A631E
:10A100001A6B04F69833C4F8940F4FF4C05002F061
:10A110000102C4F870330223C4F8AC5B029200253C
:10A120000A220691029903A9C4F8B03BC4F8A43BE3
:10A13000C4F8C85BC4F8A85BC4F8B85BC4F8B45BE7
:10A14000C4F8C45BC4F8BC5B05950792CDE9030372
:10A15000A3484DF0C3FBD4F8C43B012B00F094811D
:10A160009D4B062143205A6B42F080025A635A6B82
:10A1700002F080020092009A5A6C42F480425A64C3
:10A180005B6C03F480430193019BFFF7E5FED4F879
:10A19000985B0822934B9A60AB68D4F8B02B23F0FD
:10A1A0000103D4F8A86B012AAB6040F03981AA6B97
:10A1B0008D4B22F48032D4F8CC1BAA630129EA68C3
:10A1C00003EA0203EB60EB6823F44013EB6000F05A
:10A1D000568128464DF08EFD012E07D1AB6843F025
:10A1E0000603AB60AB6843F02003AB60D4F8983B48
:10A1F00032200125DA6822F0C042DA60DA6842F0E3
:10A200008042DA604DF07CFC784A00211346084613
:10A2100083F83810D987013183F839500F2983F832
:10A220003B00D864C3E9100003F11C03F0D1002106
:10A23000D4F8983B084682F8F81101F14005D1871F
:10A24000013103EB850582F8F9010F2982F8FB0142
:10A25000C2F80C02C2E9800002F11C026860EAD177
:10A260009A6BD4F8C46B42F40012D4F89C5BD4F817
:10A27000A4EBD4F8A8CBD4F8B01BD4F8B47B9A6381
:10A280005EB99A6B22F400129A631A6842F0400297
:10A290001A601A6842F080021A600020012903F552
:10A2A0000062C3F8000ED3F80008C3F8000800F0FD
:10A2B000D1800329D3F8001838D041F00301C3F846
:10A2C00000184FF484604A49186101E0013902D056
:10A2D00018698006FAD410204549186101E0013957
:10A2E00002D01869C006FAD400214FF0FF30116186
:10A2F00051619061D1610DB303F510604FF0904A48
:10A300004FF0FF098E4609E0C0F800E00131C0F8C7
:10A3100010E0C0F808902030A94253D0D0F8008057
:10A32000B8F1000FF0DAC0F800A0EFE7BEF1000FBF
:10A33000C5D041F00101C3F80018C2E71169BCF1B2
:10A34000010F21F48071116175D000206FF0804100
:10A3500098615961BCF1000F03D1996941F0100176
:10A36000996198692349014399611FB1996941F045
:10A3700008019961012E03D198691F490143996130
:10A380000120D4F8BC1B814284F8510F69D0536876
:10A39000032043F0020353604DF0B2FBD4F8983B26
:10A3A000802200205A625A6A42F480029A625A6AF3
:10A3B000996A02EB114242F40002C3F8042108B08A
:10A3C000BDE8F087002003F530614FF0904A4FF070
:10A3D000FF0986461CE000BF003802400021012032
:10A3E0000000024000E100E0BFFFBDFF982C01200B
:10A3F000400D030000383C8004000040C1F800E03C
:10A400000130C1F810E0C1F808902031A84295D081
:10A41000D1F80080B8F1000FF0DAC1F800A0EFE742
:10A42000EB68284643F04003EB604DF063FC4FF4CB
:10A430008033AB63D0E619480025194910636FF0EB
:10A440008040D2F830C04CEA01011163116B9D616C
:10A45000586186E7D3F80018BEF1000F7FF469AFAA
:10A460002DE70020C4F88C1F0E4984F8840F9869EA
:10A4700040F000609861586D0143596587E7EB68CB
:10A4800043F48013EB60A4E64FF4007303A906487D
:10A490000393CDE904554DF021FA61E600018000F7
:10A4A000030001000300001000000240014B58604F
:10A4B000704700BF50280040804BB3FBF2F3994235
:10A4C0000DD300234FF07E52436002608360C3606F
:10A4D00003610023836143610362C361704707EE38
:10A4E000902A9FED777AF8EE676A07EE901AF8EEF9
:10A4F000677A66EE876A66EEA76AFDEEE67A17EE81
:10A50000903A2033402B00F2CA80DFED6E7AF4EEF1
:10A51000E76AF0EE667AF1EE10FA0CDDDFED6A5ACA
:10A520009FED6A6AB0EE677A77EEE57AB4EEC67AA6
:10A53000F1EE10FAF6DC9FED667AF4EEC77AF1EEF2
:10A5400010FA0CD5DFED605A9FED626AB0EE677AC3
:10A5500077EEA57AB4EEC67AF1EE10FAF6D49FED56
:10A560005E7AF4EEC77AF1EE10FA00F390809FED78
:10A570005B7AF4EEC77AF1EE10FA03D59FED547AC8
:10A5800077EE677A27EEA76ADFED555ADFED554A79
:10A59000B6EE007A9FED545AE6EE254ADFED535AA7
:10A5A00027EE864AA6EE245AE6EE055AE4EE257A10
:10A5B00027EE877A9FED486A76EE867AFDEEE75AB7
:10A5C00015EE903A2033402B66D8F4EEC66AF1EED1
:10A5D00010FA0CDDDFED3C5A9FED3C6AF0EE676A45
:10A5E00077EEE57AF4EEC66AF1EE10FAF6DCDFED0E
:10A5F000386AF4EEE67AF1EE10FA0CD5DFED325A55
:10A600009FED346AF0EE676A77EEA57AF4EEC66ADB
:10A61000F1EE10FAF6D4DFED306AF4EEE67AF1EE00
:10A6200010FA3FDDDFED276A76EEE77A67EEA76A7C
:10A630009FED2B6A9FED2B5AF8EE004ADFED2A5A68
:10A64000A6EE865A9FED296A27EEA64AE6EE855ABF
:10A65000A6EEA56AE4EE067A67EEA47AC7EE006A73
:10A66000B7EE006A76EE865A76EE666A86EE257A50
:10A6700067EE277A80ED007A66EE876A80ED027ACF
:10A68000C0ED017AC0ED037AC0ED046A21E79FEDC9
:10A690000D7A77EE677A75E7DFED157ADEE79FEDE5
:10A6A000147A87E7DFED0D6AF4EEE67AF1EE10FA40
:10A6B000BCD5DFED076A76EEE77AB7E720A10700A1
:10A6C00027D4D236DB0F4940DB0FC940E4CB16411B
:10A6D000DB0F49C0E4CB16C1DB0FC93FDB0FC9BF9D
:10A6E0009A7C2E36FAAF4FB93587083CA4AA2ABE09
:10A6F000000000000023024A03604260836070474C
:10A7000083F9223E0021034A034B016042608360CB
:10A71000704700BF5B128B3A6F12033B6428034BF8
:10A72000B8BF6420C3F83404704700BF00000120A4
:10A73000034B64281B68B8BF6420D860704700BF13
:10A74000000000202DE9F04790B00E4607469146E4
:10A7500001A83C2200219A461A9DDDE9184856F0CE
:10A76000ABF92E4B8DF80460CDF834800293002EA7
:10A770004FD0B31E012B4ED9042E14BF002203224A
:10A78000DFF89C8001238DF80520D8F82C24039451
:10A7900014448DF83130CDE905570494B9F1000F18
:10A7A0002CD198F8DA3F0022012B0E921BD898F892
:10A7B000D9CF013301ACCCEB0C1588F8DA3FBCFAE9
:10A7C0008CFC08EB85054FEA5C1C05F6DC750FCCAC
:10A7D0000FC50FCC0FC50FCC0FC594E8070085E857
:10A7E000070088F8D9CF3B6883B153464A463146C3
:10A7F000384610B0BDE8F0472BF010BB5246494632
:10A8000007A855F05DFF8DF830A0CAE710B0BDE88D
:10A81000F0870522B4E70222B2E700BF983001209A
:10A820000021012000F01F0240090123032803FA40
:10A8300002F304D0042807D002280AD07047074A40
:10A84000116C0B4313647047044A116B0B43136381
:10A850007047024A516C0B43536470470038024002
:10A86000034B42689A4201D09620DBE79520D9E756
:10A870000060024003681B6810B50446587910B99F
:10A88000987978B910BD40B20321FFF765FB2368C2
:10A890001B6893F905004EF08FFE23681B689879BA
:10A8A0000028EFD040B20321FFF756FB23681B6856
:10A8B000BDE8104093F906004EF07EBEF0B5ADF550
:10A8C000815D00230F46014681B0FD2614463A46BD
:10A8D0000DF5815004AD03930095CDE90103684661
:10A8E000ADF808604AF0C2FE009B6946022220468D
:10A8F000CDE900532BF0F2F80DF5815D01B0F0BD0C
:10A900002DE9F047041E0D4612DB092C26DC0B4610
:10A91000814A82480021A0FB04605970C00800EB06
:10A920008000A4EB4000125C28461A70BDE8F08756
:10A9300064422D23092C01F8013B24D8764A774B39
:10A940000020A3FB046348702846DB0803EB830365
:10A95000A4EB4303D35C0B70BDE8F0876F4B632C13
:10A96000A3FB04264FEAD60621DC0B466A4A6B4954
:10A97000A1FB0601C90801EB8101A6EB4101515C75
:10A9800003F8011BC5E7654A632CA2FB04364FEAB6
:10A99000D60637D8604A614BA3FB0603DB0803EBFE
:10A9A0008303A6EB4303D35C01F8013BC7E7A3FB9A
:10A9B0000627B4F57A7F4FEAD7070DD20B46564AE1
:10A9C0005649A1FB0701C90801EB8101A7EB410131
:10A9D000515C03F8011BCAE7A3FB072842F20F7280
:10A9E00094424FEAD80836D80B464B4A4B49A1FB54
:10A9F0000801C90801EB8101A8EB4101515C03F892
:10AA0000011BDDE7A2FB0637B4F57A7F4FEAD707D3
:10AA10000CD2414A414BA3FB0703DB0803EB830342
:10AA2000A7EB4303D35C01F8013BB4E7A2FB073972
:10AA300042F20F739C424FEAD90921D8364A374B6C
:10AA4000A3FB0903DB0803EB8303A9EB4303D35CFC
:10AA500001F8013BDEE7A3FB0829314A94424FEAA3
:10AA6000D90921D80B462C4A2C49A1FB0901C90858
:10AA700001EB8101A9EB4101515C03F8011BB5E732
:10AA8000A2FB093A264B9C424FEADA0A21D8224A15
:10AA9000224BA3FB0A03DB0803EB8303AAEB43036C
:10AAA000D35C01F8013BCAE7A3FB09231D4A94428A
:10AAB0004FEAD30A21D80B461849174AA1FB0A01CD
:10AAC000C90801EB8101AAEB4101515C03F8011BAC
:10AAD000CAE7A2FB0A38134B9C424FEAD80813D8A6
:10AAE0000E4B0D4AA3FB0803DB0803EB8303A8EB23
:10AAF0004303D35C01F8013BCAE70A22BAFBF2F038
:10AB00004AF00AFB0346D7E70A22B8FBF2F04AF004
:10AB100003FB0146E4E700BFB48A0608CDCCCCCCE9
:10AB20009F8601003F420F002DE9F0471D4688B087
:10AB3000531C0F4603931178002900F0D2800024A3
:10AB40000646A0460BE0701C01D03046B8470134E1
:10AB5000039A531C03931178002900F0C380252920
:10AB6000F1D1931CCDE9033850782D2800F0AF8047
:10AB70004FF0000A302800F09180A0F130034FF030
:10AB80000009DBB2092B40F296806C2835D078287A
:10AB900000F2F480572827D9A0F15803202B00F2A7
:10ABA000ED80DFE813F00501EB00EB00EB00EB00BC
:10ABB000EB00EB00EB00EB00EB00EB00DD00ED0049
:10ABC000EB00C400EB00EB00EB00EB00EB00EB0054
:10ABD000EB00E600EB00EB00EB00EB00B600EB0057
:10ABE000A300EB00EB00050100287BD0252840F0F6
:10ABF000C580731CABD02521A7E7039B5A1C039289
:10AC000019787829A5D8572967D9A1F15803202B9D
:10AC10009FD801A050F823F08DAD000853AB000879
:10AC200053AB000853AB000853AB000853AB00080C
:10AC300053AB000853AB000853AB000853AB0008FC
:10AC400053AB000861AD0008A5AD000853AB000888
:10AC50002FAD000853AB000853AB000853AB0008FE
:10AC600053AB000853AB000853AB000853AB0008CC
:10AC700075AD000853AB000853AB000853AB000898
:10AC800053AB000813AD000853AB0008EDAC00084F
:10AC900053AB000853AB00088DAD0008039B4FF089
:10ACA000010903EB090203921878A0F13003DBB22B
:10ACB000092B3FF66AAF04AA03A9FDF709FABAF116
:10ACC000000F3FF462AF049B5B4204935DE7D31C2B
:10ACD0004FF0010A039390784CE719B1252988D0E9
:10ACE00037E70C46204608B0BDE8F08705A955F8BF
:10ACF000040BFDF7AFF905AB3A464FF0FF31304694
:10AD00000193CDF80090049B4AF092FD039A04440D
:10AD10001FE755F804CB3A46049B4FF0FF3130460D
:10AD2000CDE9008C4AF084FD039A044411E707350D
:10AD300025F00705F5E802014FF0FCFB00EE100AD4
:10AD400005A84AF077F905AB3A464FF0FF31304697
:10AD5000CDE90093049B4AF06BFD039A0444F8E6A6
:10AD6000721C3FF4F4AE55F8041B3046C9B2B84724
:10AD7000EDE6039A55F8043B1C60EAE6039AE8E620
:10AD800005A955F8040B4AF0DFF9B4E7A1F1580220
:10AD900005AB102155F8040BB2FA82F252094AF0C1
:10ADA00019FAA8E705A955F8040B4AF0CDF9A2E76E
:10ADB000A0F1580205AB102155F8040BB2FA82F24B
:10ADC00052094AF007FA96E7084A00230133143281
:10ADD000092B09D012F8141C8142F7D103EB83032D
:10ADE000034800EB8300704700207047CC0E060834
:10ADF000B40E06082DE9F84F064640689146A94F63
:10AE0000028A8846D6F80CB002F00F01C2F3021293
:10AE1000DBF8043057F8224007EB810114F5803F3E
:10AE2000D1F840A100F09D803A19B4F1000C9E4980
:10AE300092F8605118BF4FF0010C591A5A5918BFB7
:10AE4000012122F001025A5100297BD1BCF1000FEF
:10AE500078D1964A00214FF0210C11605160916029
:10AE6000D1601161C2F814C05A5922F0F0525A51FF
:10AE70003F229A604379032B00F2BA81DFE803F0A6
:10AE80005F5C59020568403558463C44FFF7E8FCD2
:10AE90000A23ABF81C30D6F80CB05846FFF7E0FC9C
:10AEA000834B03219BF91400CBF80C30CBF81860CE
:10AEB000FFF752F89BF914004EF07EFBF26894F80D
:10AEC000603152687B48D458D11820407A4C0443F2
:10AED0007A48D4504C6944F0070C7468C1F814C027
:10AEE00052F803C02CF0C07C42F803C052F803C0F3
:10AEF0002CF4C00C42F803C0C1F80C808D604D6882
:10AF0000284040EA09004860D15821F0F05141EA58
:10AF10000A01D150A379326813F0040F63795068A5
:10AF20001F4497F8681117D04EF010FE0120BDE8BD
:10AF3000F88F05683C35A7E705683835A4E705684C
:10AF40003435A1E75E4A9A1A18BF0122BCF1000FFE
:10AF500017D1B2B95B4A7DE74EF0D4FD0120BDE8C0
:10AF6000F88F514A934228D0554A934282D1564B8A
:10AF70001A6942F480021A611A6922F480021A6185
:10AF800078E7B4F1010C18BF4FF0010CF9B9BCF12E
:10AF9000000F1CD14D4A00214FF0210C116051606F
:10AFA0009160D1601161C2F814C05A5922F0F05278
:10AFB0005A514FF474629A605CE7434B1A6942F449
:10AFC00000121A611A6922F400121A6152E722B9BA
:10AFD000BCF1000F01D13E4ADDE7B4F1020C18BF0D
:10AFE0004FF0010CA9B9BCF1000F12D1394A002170
:10AFF0004FF0210C116051609160D1601161C2F875
:10B0000014C05A5922F0F0525A514FF47C129A60EF
:10B0100030E722B9BCF1000F01D12F4AE7E7B4F1C4
:10B02000030C18BF4FF0010CA9B9BCF1000F12D1ED
:10B030002A4A00214FF0210C116051609160D160CB
:10B040001161C2F814C05A5922F0F0525A514FF00F
:10B0500074629A600EE722B9BCF1000F01D1204A58
:10B06000E7E7B4F1040C18BF4FF0010CA1B9BCF133
:10B07000000F11D11B4A00214FF0210C11605160CB
:10B080009160D1601161C2F814C05A5922F0F05297
:10B090005A513F22DA60EDE642BBBCF1000F25D1E8
:10B0A000114AE8E7280E06080060024010600240DE
:10B0B0001D8100081F80FCFF405402000000FFFFBC
:10B0C00000640240106402400038024028600240E0
:10B0D00028640240406002404064024058600240E0
:10B0E000586402407060024070640240B4F1050C84
:10B0F00018BF4FF0010CA9B9BCF1000F12D13D4AA5
:10B1000000214FF0210C116051609160D1601161FC
:10B11000C2F814C05A5922F0F0525A514FF47462D6
:10B12000DA60A7E622B9BCF1000F01D1324AE7E7A5
:10B13000B4F1060C18BF4FF0010CA9B9BCF1000F17
:10B1400012D12E4A00214FF0210C11605160916004
:10B15000D1601161C2F814C05A5922F0F0525A510C
:10B160004FF47C12DA6085E622B9BCF1000F01D100
:10B17000234AE7E7234A934214D1072C12D1224AEB
:10B1800000214FF0210C116051609160D16011617C
:10B19000C2F814C05A5922F0F0525A514FF074625A
:10B1A000DA6067E6194A00214FF0210C1160516006
:10B1B0009160D1601161C2F814C05A5922F0F05266
:10B1C0005A51002C3FF454AE012C3FF4F2AE022C45
:10B1D0003FF41BAF032C3FF43AAF042C3FF459AFBC
:10B1E000052C9BD0062CBBD0072C7FF443AED5E7B3
:10B1F000002549E68860024088640240A060024061
:10B20000A064024000600240B8600240B86402409E
:10B2100000230360704700BFF0B52B4C12202B4A6F
:10B2200042F6F826A4F1A001294B002785B0C2F808
:10B23000B413C2F8A4332749274B82F8880340206F
:10B24000C2E9EA13254BC2E9E46744E9283344E93B
:10B25000263344E9243344E9223344F8803C2CF07B
:10B260007BFE30B314F8755C032390F904004FF4AF
:10B27000E131002D01934FF0000314F8762C18BF34
:10B280000825009108BF1D4640219A4218BF45F08D
:10B290000105134A02952CF0A5FC44F8540C28B182
:10B2A00014F8503C3BB1002304F8483C003818BF68
:10B2B000012005B0F0BD0B490222012344F84C1CCB
:10B2C00004F8502CF0E700BFF831012000210120E4
:10B2D00061F902082D0D030871170308E003E0036C
:10B2E000F1110308FDFC0208F0B54FF47870214C11
:10B2F0004FF478734FF478721F491125206041F69E
:10B300000B261E48002785B081F88853C1F8A40396
:10B31000402044E9102344E90E2344E90C2344E986
:10B320000A2344E9082344E9062344E9042344E9C1
:10B330000223134BC1E9E467C1F8A8332CF00CFEDB
:10B34000A8B114F8755C002303210E4A9D4290F9C0
:10B35000040001914FF0400118BF082500920A4AED
:10B3600002952CF03FFC6060003818BF012005B04A
:10B37000F0BD00BFF831012000210120A5FD020829
:10B38000C5FD0208A0680600911303080348044A9B
:10B39000A0F175017638FDF75DBC00BFF8310120E2
:10B3A000400D03000348044AA0F175017638FDF70B
:10B3B00051BC00BFF8310120A086010001460248BF
:10B3C00081F0010143F09EBC102A01202DE9F04FCD
:10B3D0001E4685B001200C461546FFF7EFFF002EF4
:10B3E00061D004EB4623D34FDFF864930293A4EBC0
:10B3F000452303931CE0002D65D0D7F81431AB42F0
:10B4000000F0D880D7F81031AB4200F00D81D7E9B9
:10B410004631AB424ED8A94200F2FB81691A204660
:10B42000FDF7A6F904F50074029B0135A3423AD05A
:10B43000D7F82021AA42DED8A5EB020AD7F830615E
:10B440004FEADA0B336B0AF0070A0BF1020B9B454C
:10B4500002D3B36B9B4509D931465846FDF756F9DF
:10B460000646002800F0F581C7F830013379002B3B
:10B4700040F07081D6F82880B8F1000F00F0E2812A
:10B48000316B3346F2682046ABEB010B4FF4007191
:10B4900004F5007401350AEBCB0B02EB4B22C047DD
:10B4A000029BA342C4D10020FFF788FF002005B013
:10B4B000BDE8F08FA942B1D94FF4007200212046B7
:10B4C00055F0FAFAAEE74FF400722946204655F0DF
:10B4D000F3FA80210C23984A84F8BE1184F8C23113
:10B4E000D7F81031D7F80811934284F8B85184F88E
:10B4F000B95184F8BA5184F8BB5184F8BC5184F82E
:10B50000BD51C4F8C631C4F8CA1100F387818B4A13
:10B510004FEAE37C89FB030682FB03028848CCEBFD
:10B5200026361A444FEAA60E84F8C161CCEB6212AB
:10B53000C2EB821C80FB02602EF03F06A3EB0C03E3
:10B5400010444FEAE27C0133CCEBE0103343024479
:10B5500084F8C03184F8BF214A1E774B9A4200F329
:10B560006981764BD61789FB021083FB021374495D
:10B57000C6EB203013444FEAA00C84F8C501C6EB9B
:10B580006313C3EB831681FB03012CF03F00921B76
:10B590001944DE170132C6EBE11102430B4484F873
:10B5A000C42184F8C3315522AA2384F8FE2184F8EB
:10B5B000FF3137E7722300264FF0FF3C4FF0520E69
:10B5C0006122412084F8E431314684F8E531D7F82E
:10B5D0002831A27084F8E7214FF4F072E07084F80B
:10B5E000E601201DC4F8E83184F800E084F801E0A9
:10B5F00084F8ECC184F8EDC184F8EEC184F8EFC1A1
:10B6000055F05AFA55226FF05503C4F8F061C4F8AA
:10B61000F461C4F8F86184F8FC6184F8FD6184F891
:10B62000FE2184F8FF31FDE64FF400720021204630
:10B63000022655F041FA5821EB20424A6170F82168
:10B6400020704FF0080C61753F21902326742176FD
:10B650004FF0FF3EA370002384F80DC04FF0800828
:10B6600084F81AE04FF03E0E2673A673E372E3737C
:10B670006374A374E3742375A375E3756376E3764B
:10B680006377A377E37784F81CE04FF0010E03CAD9
:10B69000C4F80300C4F80710D7F80821D7F8101130
:10B6A000501AD7F81C11284A2062D7F8180184F8DC
:10B6B0002C60091A942084F828306162292184F8CA
:10B6C000430084F842100E2184F8293084F8441095
:10B6D00084F82A3084F82B3084F82D3084F82E300A
:10B6E00084F82F3084F8313084F8323084F83330E5
:10B6F0000D23164E84F846C04FF0550C84F84530A3
:10B70000AA2384F830E084F8408003CAC4F84B10C0
:10B710001188C4F847009278A4F84F1084F851209B
:10B7200003CEC4F85200C4F8561084F8FEC184F861
:10B73000FF3177E600210120FF03FB008320088210
:10B7400081808080DC8A0608E88A0608F88A060874
:10B75000975545414FF400720021204655F0ACF951
:10B76000336CBAF1000F7DD1002B00F09180336B68
:10B77000112220465249CDF804A004F1200BCDF847
:10B7800000A0FDF723FB336C1A6C002A00F09080B8
:10B79000039A58461B6B02F14008CDF804A0CDF87F
:10B7A00000A008EB45284FF4E07A11224549FDF747
:10B7B0000DFB766C002E3FF435AEC2444FF0000B0B
:10B7C00008F1200810E05CF81C1B336BCDE900CBBE
:10B7D000FDF7FCFAAAEB0803B66C08F12008002E6E
:10B7E00018BF1F2B7FF61EAE3379B44606F11C0E30
:10B7F0001122A8F12000002BE5D17279D6F810C0F3
:10B80000336B42F021023168CDE900ECFDF7DEFA3E
:10B81000E0E7E91A2046FCF7ABFF03E6FF234A1EE8
:10B8200084F8BF3184F8C13184F8C031264B9A4284
:10B830007FF797AEFF2384F8C33184F8C53184F8CD
:10B84000C431B0E641464FF40072204655F034F959
:10B85000E8E5231F04F5FE721C4943F8041F9342D8
:10B86000FAD1DFE5002B766C0CBF01220222C2EB7D
:10B870000A1A002E3FF4D6AD0AF1FF3AB66CBAF1BF
:10B88000000F01DD002EF7D1A0464FF4007A91E7BA
:10B890005346CDF804A0CDF800A00822D7F80C112B
:10B8A000204604F120084FF4F07AFDF78FFA80E784
:10B8B000039B584603F140085346CDE900AA70E7C0
:10B8C00084A5060830D60608FF03FB00DEADBEEFF8
:10B8D000002008B5FFF772FD002008BD044BD3F827
:10B8E0001029B3F8143951694B405361704700BFB8
:10B8F000002101200D4B70B40D4CA34203D311E085
:10B900000C33A3420ED25A798242F9D1DA798A42B3
:10B91000F6D11A681E791579AE42F1D115689D42AB
:10B92000EED100E00022104670BC7047E80100082C
:10B930001403000830B50E4D83B0044620210DF1EC
:10B940000702A86843F0F6FB60B19DF8073003F0EA
:10B950007F034CB98DF807302021A8689DF8072097
:10B9600043F08AFC03B030BD63F07F03F2E700BF11
:10B97000F831012064281C4B28BF642000EB8000B4
:10B9800070B54600A3FB06235D095B0922D00024A5
:10B9900001349F2020F046FBE3B29D42F8D80A2DE7
:10B9A00000D170BD1148C5EB85136C1CA0FB0620AF
:10B9B000C5EB8303000966381844C0B220F032FB9F
:10B9C000092DEED001349A2020F02CFBE4B20A2C91
:10B9D000F8D170BD05480124A0FB06300009663887
:10B9E000C0B220F01FFBEDE71F85EB51CDCCCCCCD6
:10B9F00070B500200124FFF7E1FC0D4B4FF40676F3
:10BA00000C4D184601211BB1DE801C7242F070FE05
:10BA1000032C08D055F82430012101341846002B9E
:10BA2000F2D1032CF6D10020BDE87040C6E400BF7F
:10BA3000102A0120940F0608014B5868704700BF78
:10BA40005028004010B5FFF7F7FF054B122403F113
:10BA500014020C8002280CBF1846104610BD00BF0F
:10BA600088070120F0B41A4F97F83020062A2CD806
:10BA70000C21531C01FB0272DBB2383252F8044C29
:10BA8000E1070DD504420BD092F900600021114C62
:10BA900094F900500C34B5420DD001310729F7D18B
:10BAA00001330C32DBB2082BE8D10723002087F8E2
:10BAB0003030F0BC704701EB410187F8303007EBC4
:10BAC0008101F0BCD1F8900070470020F1E700BF81
:10BAD000F831012084320120344870B490F8E0300D
:10BAE000A3F13001092957D800F1E004EF302246D4
:10BAF00012F8015FA5F13001092904D88242F7D17B
:10BB0000002070BC7047141B022C4BDD284800211C
:10BB100001E010F8013B01EB8101161A044603EB2A
:10BB20004103022EA3F1300303F0FF01F1DC214BAE
:10BB300003FB01F1A2424FF000030ED903EB830394
:10BB400014F8016B5B00A242A3F13003334403F00D
:10BB5000FF03F3D1184800FB03F32E2D06D017483E
:10BB6000A0FB032370BC01EB930070470132042556
:10BB7000002404EB84041078013D30386400092867
:10BB8000A4B2204401D8013284B215F0FF05F0D1EF
:10BB9000642202FB0433E2E700211D4600F1E002CB
:10BBA0000B46DAE70021064CC4E700BFF83101205C
:10BBB000D93201208096980040420F00ABAAAAAA71
:10BBC000D8320120064B93F8011103F5737203F587
:10BBD0006D73002918BF134693ED050A704700BF27
:10BBE000F8310120064B93F8011103F5737203F548
:10BBF0006D73002918BF134693ED020A704700BF0A
:10BC0000F83101209B1A00FB03F393FBF1F1881834
:10BC1000704700BF094BD3F8640AD3F8682AD3F8F9
:10BC20006C3A824202DB114602460846984204DD25
:10BC30009A42B8BF1A46104670477047F831012043
:10BC4000124A02F5276030B419C88342D2F87C1A30
:10BC5000D2F8802A02DB1D46034628468A4202DBD0
:10BC600015460A4629468842A8BF08469342B8BFEF
:10BC70001346A04202DC224604461046834203DA01
:10BC8000A342B8BF2346184630BC7047F8310120A4
:10BC90000B6810B414681B1B036054684B681B1BB3
:10BCA0005DF8044B43608B6892689B1A8360704711
:10BCB0002DE9F043164685B08046084649F012FC4F
:10BCC0004FF47A720546002389463C244EF0B0FDBD
:10BCD000B6F900C00746494628464FF47A72002359
:10BCE0000CFB047700254EF0A3FD4FF47A7394B259
:10BCF00001A8C3FB07452B46224649F037FB404BC2
:10BD000093F8863A012B2FD0022B10D19DF80670A4
:10BD1000FB1E082B0BD83B1F062B1BD93946BDF841
:10BD2000040049F0B7FA032F36D00B2F41D022463A
:10BD30002B46404649F01AFB05B0BDE8F083032FBF
:10BD400055D00A2FF3D19DF80870B7FA87F77F090D
:10BD5000002FECD02B4B0022E418338803F13C0376
:10BD600042EB05053380E2E79DF80670FB1E072BCA
:10BD7000DDD83B1F052BEDD93946BDF8040049F04D
:10BD800089FA9DF807309842D9D0033F18BF0127A0
:10BD9000002FDFD1CBE707380E28FCDC9DF80730F9
:10BDA000834212D0CCBF01270027002FD2D1BEE79B
:10BDB00007380728FCDC9DF8073083420ED0B4BF5B
:10BDC00001270027002FC5D1B1E79DF80870012F8A
:10BDD00094BF00270127002FBCD1A8E79DF8087069
:10BDE000012F8CBF00270127002FB3D19FE79DF8BB
:10BDF0000870003F18BF0127002FABD197E700BFA5
:10BE0000F831012080EE360030B5046885B0E46971
:10BE10002CB10DF10F050095A04705B030BD2046AF
:10BE200005B030BD38B52321094C0A4DD5F8880A34
:10BE300043F0B2FF14F8011F0029F7D1064846F07D
:10BE400025FE95F88C3A13B1012385F88D3A38BD5B
:10BE5000048B0608F8310120108B06082DE9F04FFD
:10BE60009946D34389B006466FEA090BDB0F0025DC
:10BE700005924FEADB7B07910693059BAB4207D007
:10BE8000069B2BB10135042DF7D109B0BDE8F08F29
:10BE9000D823244A0799002403FB05F3224F01EB22
:10BEA000030802EB030AA1452B463A46304602D06E
:10BEB000BBF1000F31D13AF814C038F814100CF06F
:10BEC0001F0E1CF4006FA1EB0C01CCF3441CCDF849
:10BED00004E018BF4FF0560EB1FA81F108BF4FF0E1
:10BEE000480E00944909CDE902CE049145F0BCF812
:10BEF00038F81430049913F4006FC3F3441203F0BC
:10BF00001F0C009414BF562048202B460390304647
:10BF1000CDE901C23A4645F0C1F801346C2CC2D1DA
:10BF2000B0E700BF883C0120208B0608404B414A07
:10BF30002DE9F04F93F8306A89463F4D8BB0DFF81A
:10BF400000B18046002E08BF2A464D46002693F9D0
:10BF5000311A3A4803F5926444F064FCB9F1000FD9
:10BF600047D02F782378D5F804C0BB4243D0D5E919
:10BF700002E0002195F816A033465A460991CDF803
:10BF80001CA0B5F914A0CDF818A0B5F912A0CDF8F1
:10BF900014A0B5F910A00097CDE9030ACDE901CEB0
:10BFA000404645F061F80999A07D3346B4F914A0E4
:10BFB0000136B4F912E05A46B4F910C01835E768F2
:10BFC00007904046CDF818A0D4F808A0CDF814E0AA
:10BFD000D4F804E0CDF810C014F818CBCDE902A7CE
:10BFE000CDE900CE45F05AF83C2EB7D10BB0BDE8F4
:10BFF000F08F4946D8E76368D5F808E0634501D07B
:10C00000E868B6E7A368E8687345B2D1E36883429D
:10C01000AFD122692B699A42ABD162696B6922F078
:10C020007F4223F07F439A42A3D10121A2E700BFC0
:10C03000F8310120D48F06083C8B0608408B060897
:10C04000508B060870B51F4E04460D4696F81C34FA
:10C050002DED028B7BB3D6F8242406F58463D6F845
:10C06000281493ED008A0260D6F82C24C0E901124E
:10C07000DFED158A95ED000A80EE280A51F028F8C8
:10C08000236895ED010A184428EE288A206080EE86
:10C09000080A51F01DF8636895ED020A18446060C3
:10C0A00051F016F8A368024696F81C041344BDEC40
:10C0B000028BA36070BDB7EE008A8360C0E90033D5
:10C0C000D6E700BFF83101202C7D8E3FF0B4224C22
:10C0D00094F81C5435B900230360436083602846FC
:10C0E000F0BC70470B6804F58466D4F82474012A08
:10C0F000D6ED007AA3EB0703D4F828649FED176A06
:10C1000007EE103A4B6867EE866AA3EB0603B8EEBB
:10C11000C77A07EE903A27EE067AF8EEE77A80EDD6
:10C12000007A67EEA67AC0ED017A0CD0D4F82C2400
:10C130008B689B1A07EE903AF8EEE77AC0ED027A28
:10C140002846F0BC7047D1ED027AF8EEE77AC0EDF0
:10C15000027A2846F0BC7047F83101202C7D8E3FD2
:10C160001C4A2DE9F00354681B4E002CD6F82834E5
:10C1700003600DDD0832002306F5856501E09C4271
:10C1800006D052F8041B0133A942F8D1012200E085
:10C190000022D6F834340271836096F838240F4BAD
:10C1A0004271D6F8582453F8041C5209D6F850743A
:10C1B0004E0942EAC162F3E80289D3E90045C0E9C9
:10C1C00004898762C0E90826C0E90645BDE8F00396
:10C1D000704700BF00000020000001206004012023
:10C1E000014BD3F8A800704700000120014BD3F8A1
:10C1F0003801704700000120014BD3F8F000704770
:10C20000000001200C46054608B52AF089FE2046AC
:10C210002AF086FE0020FFF7D1F8284642F06EF99A
:10C22000B0B9204642F06AF90028F6D00120FFF7A5
:10C23000C5F8204642F05AF90146284642F084F9F2
:10C240000020FFF7BBF8284642F058F90028E8D054
:10C250000120FFF7B3F8284642F048F9014620468E
:10C2600042F072F90020FFF7A9F8DAE7F0B50022F2
:10C2700089B0DFF898C004AF13460A604A603E46B2
:10C280008A60CA600A610268C2F3855040FA03F40A
:10C290003546E40704D513F80C4005F8014B2E464B
:10C2A0000133062BF2D1174DC2F303240023C2F34E
:10C2B00005302C4405F5C47C33700DF1190694F853
:10C2C00080418DF8184040FA03F43546E40704D560
:10C2D00013F80C4005F8014B2E460133062BF2D122
:10C2E0000023C2F3834506AC0846337002F00F0307
:10C2F0000549C2F303120097CDE9014549F0E4F97D
:10C3000009B0F0BD280E0608708B0608A00F0608BD
:10C31000414A10B492F89130116F023BD2E91D40AE
:10C32000062B74D8DFE803F05A5C60500655040011
:10C3300064424942404280EAE0739FED386AA3EBD1
:10C34000E07307EE103A84EAE473A3EBE473B8EE0B
:10C35000C77A06EE903A81EAE17327EE066AF8EEB4
:10C36000E66AA3EBE17307EE903AB4EEE66AF8EE04
:10C37000E77AF1EE10FA04DDB4EEE76AF1EE10FAB6
:10C3800034DC9FED266A26EE866AB4EE467AF1EE3C
:10C3900010FA04D5B4EE676AF1EE10FA2DDC9FEDC9
:10C3A0001F6A67EE867AB4EE677AF1EE10FA2BD543
:10C3B000F4EE676AF1EE10FA26D50029CCBF04200E
:10C3C00005205DF8044B70474B42404221461C4615
:10C3D000B1E7634240420C461946ACE74942AAE73E
:10C3E0004B4261421C46A6E76442A4E700285DF880
:10C3F000044BCCBF002001207047002C5DF8044B9B
:10C40000CCBF0220032070474FF0FF30D9E723460E
:10C410000C4619468FE700BF00000020ABAA2A3F58
:10C4200030B5284C83B0DFED286A14F8683CD4F8A6
:10C430005C5E07EE903A14F8673CF8EEE77A07EE98
:10C44000103A94F8383EB8EEC77A67EEA67A04EB55
:10C450004302013327EE267AB2F83C1EFDEEE77A5E
:10C46000A2F83C0E401A03F00F0317EE902AFDEEDF
:10C47000C77A284484F8383E17EE901AC4F85C0E48
:10C4800000098A4211DC114680B217EE902A40F270
:10C49000FF35002300954AF01DF92A4600214AF095
:10C4A00035F9A4F8600E03B030BD80B28142D4BF2C
:10C4B000401A0020824202DB101A80B2E7E7002017
:10C4C000E5E700BFF831012014AE23412DE9F04724
:10C4D000084C94F86D322DED048B82B0062B00F2DF
:10C4E0000884DFE813F055056C0418040900CC003B
:10C4F00012067A040000002094EDC37A0423D4EDE0
:10C50000C57AD4EDC76A67EE072A27EEA73A94EDFD
:10C51000C97AD4EDCB7A66EEA63AD4EDC21A27EEEC
:10C52000074A94EDC42A67EEA74AD4EDCD6AE1EE3E
:10C53000A12A94EDCF7AA2EE023AD4EDD17A26EE7A
:10C54000A65A94EDC61A67EE075AD4EDC81A27EE1C
:10C55000A76A94EDCA2AE1EE013AD4EDD36AA1EEBE
:10C56000A14A94EDD57AE2EE024AD4EDD77A66EE8E
:10C57000A66A94EDCC1A27EE077AD4EDCE1A67EEB0
:10C58000A77A94EDD02AA1EE015AE1EEA15A94EDDA
:10C59000D21AA2EE026AD4EDD41A94EDD62AE1EEB4
:10C5A000016AA1EEA17AE2EE027AB1EEE22AF1EEA0
:10C5B000C32AB1EEE33AF1EEC43A84EDA22AB1EE19
:10C5C000E44AC4EDA32AF1EEC54A84EDA43AB1EEE3
:10C5D000E55AC4EDA53AF1EEC65A84EDA64AB1EE8D
:10C5E000E66AC4EDA74AF1EEC76A84EDA85AB1EE37
:10C5F000E77AC4EDA95A84EDAA6AC4EDAB6A84ED6A
:10C60000AC7A94EDD97AD4EDDB7A67EE075AD4EDA3
:10C61000DD6A27EEA76A94EDDF7AD4EDE17A66EE63
:10C62000A66AD4EDD84A27EE077A94EDDA5A67EE77
:10C63000A77AE4EEA45A94EDDC4AA5EE056AD4ED9F
:10C64000DE4A94EDE05AE4EE046AA4EEA47A84F89B
:10C650006D32E5EE057AB1EEE55AF1EEC65AB1EE6D
:10C66000E66AF1EEC76A84EDAD5AB1EEE77AC4ED41
:10C67000AE5A84EDAF6AC4EDB06A84EDB17A94F835
:10C6800006240F2A00F36E8500231B4D02F16D0175
:10C690009FED1A7A1E46184605EB8101D1ED007A0E
:10C6A00038B951ED016AF4EEE67AF1EE10FA09DDDF
:10C6B000D6B2B4EEE77A0120F1EE10FA02D5B0EE70
:10C6C000677AD3B201320431102AE7D104EB830236
:10C6D000591C0F2B06F10106D2EDA27A07EE101AB3
:10C6E00067EEA76AB8EEC77A66EEA77A27EE277AD2
:10C6F00000F0698104E000BFD400002000000000C9
:10C7000004EB8301581C91EDA26A0A46D1EDA36A9D
:10C71000F4EEC66AF1EE10FA40F1558166EE065A63
:10C7200005EE100A0F28B8EEC55A25EE866AA5EE6A
:10C73000067A77EE867A00F0278592EDA46A991C36
:10C74000B4EEE66AF1EE10FA40F13D8166EEA65ACB
:10C7500005EE101A0F29B8EEC55A65EEA66AA5EEC9
:10C76000267A77EEA67A00F01185D2EDA56AD91C5B
:10C77000F4EEC66AF1EE10FA40F1258166EE065A33
:10C7800005EE101A0F29B8EEC55A25EE866AA5EEF9
:10C79000067A77EE867A00F0FB8492EDA66A191D80
:10C7A000B4EEE66AF1EE10FA40F10D8166EEA65A9B
:10C7B00005EE101A0F29B8EEC55A65EEA66AA5EE69
:10C7C000267A77EEA67A00F0E584D2EDA76A591DA5
:10C7D000F4EEC66AF1EE10FA40F1F58066EE065A04
:10C7E00005EE101A0F29B8EEC55A25EE866AA5EE99
:10C7F000067A77EE867A00F0E68092EDA86A991DB7
:10C80000B4EEE66AF1EE10FA40F1DD8066EEA65A6B
:10C8100005EE101A0F29B8EEC55A65EEA66AA5EE08
:10C82000267A77EEA67A00F0CE80D2EDA96AD91DDD
:10C83000F4EEC66AF1EE10FA40F1C58066EE065AD3
:10C8400005EE101A0F29B8EEC55A25EE866AA5EE38
:10C85000067A77EE867A00F0B68092EDAA6A03F146
:10C860000801B4EEE66AF1EE10FA40F1AC8066EE33
:10C87000A65A05EE101A0F29B8EEC55A65EEA66A3B
:10C88000A5EE267A77EEA67A00F09D80D2EDAB6A0F
:10C8900003F10901B4EEE66AF1EE10FA40F3938079
:10C8A00066EE065A05EE101A0F29B8EEC55A25EEA7
:10C8B000866AA6EE057A77EE867A00F0848092ED9D
:10C8C000AC6A03F10A01F4EEC66AF1EE10FA7ADD01
:10C8D00066EEA65A05EE101A0F29B8EEC55A65EE97
:10C8E000A66AA6EE857A77EEA67A6CD0D2EDAD6A0E
:10C8F00003F10B01B4EEE66AF1EE10FA63DD66EEC9
:10C90000065A05EE101A0F29B8EEC55A25EE866AAA
:10C91000A6EE057A77EE867A55D092EDAE6A03F1EF
:10C920000C01F4EEC66AF1EE10FA4CDD66EEA65A82
:10C9300005EE101A0F29B8EEC55A65EEA66AA6EEE6
:10C94000857A77EEA67A3ED0D2EDAF6A03F10D017B
:10C95000B4EEE66AF1EE10FA35DD66EE065A05EE43
:10C96000101A0F29B8EEC55A25EE866AA6EE057A8A
:10C9700077EE867A27D092EDB06A03F10E01F4EEDD
:10C98000C66AF1EE10FA1EDD66EEA65A05EE101A22
:10C990000F29B8EEC55A65EEA66AA6EE857A77EE3F
:10C9A000A67A10D0D4EDB16AF4EEC66AF1EE10FAB0
:10C9B00009D566EE066AF2EE0E5A26EE866AA6EEF5
:10C9C000257A77EE867AB34240F34B8104EB8300FD
:10C9D0005A1E90EDA26AD0EDA16AF4EEC66AF1EE9D
:10C9E00010FA40F13E81591C66EE065AB24205EE3D
:10C9F000101A25EE866AB8EEC55A77EE867AA5EE4D
:10CA0000067A40F32E8190EDA06A991EB4EEE66A94
:10CA1000F1EE10FA40F1258166EEA65AB14265EEBC
:10CA2000A66A05EE903AF8EEE55A77EEA67AA5EEFC
:10CA3000A67A40F316810746D81ED7ED9F6AF4EE1A
:10CA4000C66AF1EE10FA40F10C8126EE065A05EEA8
:10CA5000902AB042F8EEE55A25EE066AA5EE867AEF
:10CA600077EE867A40F3FD8097ED9E6A1A1FB4EE4A
:10CA7000E66AF1EE10FA40F1F48026EEA65A05EED1
:10CA8000901AB242F8EEE55A65EE266AA5EEA67A4D
:10CA900077EEA67A40F3E580D7ED9D6A591FF4EE54
:10CAA000C66AF1EE10FA40F1DC8026EE065A05EE79
:10CAB000900AB142F8EEE55A25EE066AA5EE867AAE
:10CAC00077EE867A40F3CD8097ED9C6A981FB4EE9E
:10CAD000E66AF1EE10FA40F1C48026EEA65A05EEA1
:10CAE000902AB042F8EEE55A65EE266AA5EEA67ADF
:10CAF00077EEA67A40F3B580D7ED9B6ADA1FF4EEA5
:10CB0000C66AF1EE10FA40F1AC8026EE065A05EE48
:10CB1000901AB242F8EEE55A25EE066AA5EE867A3C
:10CB200077EE867A40F39D8097ED9A6AA3F108012B
:10CB3000B4EEE66AF1EE10FA40F1938026EEA65AC2
:10CB400005EE900AB142F8EEE55A65EE266AA5EECA
:10CB5000A67A77EEA67A40F38480D7ED996AA3F19E
:10CB60000900F4EEC66AF1EE10FA7AD526EE065AFE
:10CB700005EE902AB042F8EEE55A25EE066AA5EEDB
:10CB8000867A77EE867A6CDD97ED986AA3F10A02D1
:10CB9000B4EEE66AF1EE10FA63D526EEA65A05EE7B
:10CBA000901AB242F8EEE55A65EE266AA5EEA67A2C
:10CBB00077EEA67A55DDD7ED976AA3F10B01F4EE77
:10CBC000C66AF1EE10FA4CD526EE065A05EE900A2A
:10CBD000B142F8EEE55A25EE066AA5EE867A77EEC2
:10CBE000867A3EDD3846A3F10C0790ED966AB4EEE6
:10CBF000E66AF1EE10FA34D526EEA65A05EE902A32
:10CC0000B742F8EEE55A65EE266AA5EEA67A77EE0B
:10CC1000A67A26DDD0ED956A0D3BF4EEC66AF1EEFC
:10CC200010FA1ED526EE065A05EE901AB342F8EE1B
:10CC3000E55A25EE066AA5EE867A77EE867A10DD4D
:10CC400094EDA36AB4EEE66AF1EE10FA09D526EE89
:10CC5000A66AF0EE085A66EE266AA6EEA57A77EE88
:10CC6000A67AF5EEC07AF1EE10FA40F3708287EE04
:10CC7000278AC24B94F86EA2D3ED007AB7EE007A01
:10CC800038EE478A28EE278AB4F80C044DF028F9CC
:10CC9000064618EE100A0F464DF044F980468946C4
:10CCA0003046394642464B464DF01AFC08B94646D6
:10CCB0004F46394630464DF03DFC00EE100A0AEB77
:10CCC000CA0305EB830000F52D7054F095F894F835
:10CCD0006E22BCEEC00A94F86D3202F5C87204EB05
:10CCE000420210EE100AB2F8D410A2F8D400A2F852
:10CCF000DA105A1CA24BA3FB0213D11A03EB510307
:10CD00009B08C3EBC303D31A84F86D3202B0BDECA9
:10CD1000048BBDE8F0879B4DD4EDA37AB0EE006A9A
:10CD2000D4EDA25AF6EE006A77EEA77AB4F8701244
:10CD3000D4F884220139B0EE664AB0EE677A103238
:10CD4000D5EE867A05EBC1008F4BA5EE867A0838C2
:10CD500067EEA67A27EE267AC4EDC37A84EDC27A0E
:10CD6000D0ED036A0139D0ED027A02F10802D3ED69
:10CD7000705AA0F10800D3ED6F4A03F1080335EEB5
:10CD8000E67A12ED036A37EEE45A77EEA47A76EE8D
:10CD9000A56A52ED045AA6EE057AE5EE857AA5EE6F
:10CDA000E67AE6EE267A27EE047A67EE847A83ED59
:10CDB0008E7AC3ED8D7AD3D194F86D3299E7714DA7
:10CDC000D4F878222846B4F87C124CF0D5FE94F8BA
:10CDD0006D32013384F86D329EE794F86E2294F838
:10CDE000E830694D9E1DC3F1200306EB421213F09B
:10CDF000FC0FC3F38501DFB205EB820600F0BF81B3
:10CE0000013106F110022B46080106EB011112ED6B
:10CE1000026A103293EDD17A103352ED076A52ED67
:10CE2000057A26EE076AD3EDCC4A12ED087A8A42DB
:10CE300093EDCB5A66EEA46AD3EDCE5A27EE057A6F
:10CE400083ED6B6A67EEA57AC3ED6A6A83ED697A52
:10CE5000C3ED6C7ADBD14D4BA0F11001A3F5C47288
:10CE60000E440B44114417F003021BD0D6ED007A98
:10CE7000013A93ED007A67EE877AC1ED007A11D01E
:10CE8000D6ED017A012A93ED017A67EE877AC1ED3A
:10CE9000017A07D0D6ED027A93ED027A67EE877AAF
:10CEA000C1ED027A94F8E860002E85D0CF3794F86F
:10CEB0006E32B00805EB870C05EBC313ACF5C47CF0
:10CEC00005EB870503F1180734D0013007F1100393
:10CED00005F110010CF110024FEA001E07EB0010E3
:10CEE00013ED046A103351ED047A103253ED066AE3
:10CEF000103126EE276A51ED067A13ED077A51EDCF
:10CF0000075A66EEA76A53ED057A834202ED086A76
:10CF100027EE257A11ED056A42ED066A67EE867AFC
:10CF200002ED077A42ED057ADAD1AEF110031F4423
:10CF30001D449C4416F003033FF43EAFD7ED007A46
:10CF4000013B95ED007A67EE877ACCED007A3FF4ED
:10CF500033AFD7ED017A012B95ED017A67EE877A31
:10CF6000CCED017A3FF428AFD7ED027A95ED027A45
:10CF700067EE877ACCED027A1EE700BF0804002036
:10CF80002549922488020020D400002010040020AB
:10CF9000B4F87032804D5908D4F8742205EB830838
:10CFA000DB084FEA810005EB810E00F0A0805E1CDB
:10CFB00010300EF1100302F1100C0EEB061E40446F
:10CFC00008F11007A5F5DA7657ED047A103396EDDF
:10CFD0006D1A0CF1100C50ED041A103613ED086A9E
:10CFE00071EE278A57ED032A31EE671A10ED032AF6
:10CFF00036EE218A57ED013A71EEC61A13ED064A54
:10D00000103753ED054A103057ED066A53ED075AB5
:10D0100050ED067A10ED057A35EE820A96ED6B3A00
:10D0200072EE655A96ED6A5A74EE270A96ED6C6AAE
:10D0300077EEC47AC6ED698A35EE229A36EE232A57
:10D0400035EE625A73EE268A86ED6A9A74EE872A66
:10D0500086ED6C2A37EE647AC6ED6B8A73EE666AEB
:10D0600043ED052A36EE636A03ED088A03ED070AED
:10D0700043ED060A73455CED074A1CED084A24EEB1
:10D08000C12A24EE653A65EE242AA5EE042A61EE53
:10D09000843AB0EE435AE1EE042AE5EEA43AA1EE5A
:10D0A000A45A07ED072A47ED082A40ED073A00ED9C
:10D0B000085A5CED055A1CED065A26EE253A65EE37
:10D0C000E63A27EE854A65EE474AE6EE053AA6EED1
:10D0D000853AA7EE254AE7EEA54A07ED063A47ED61
:10D0E000053A00ED054A40ED064A7FF46DAF89B27E
:10D0F00028460191FBF75EF801994046D4F8742266
:10D10000FBF758F894F86D32F3E594F86E2202F5C7
:10D11000C87304EB4303B3F8D410B3F8DA308B428E
:10D1200006D0012384F80124A4F8021484F8003402
:10D1300001321A4B0621A3FB020384F86D1203F49B
:10D14000FF7101EB5303D21A84F86E2247E694F87C
:10D150006EA204EB4A03B3F8FA3308EE103AB8EEC5
:10D16000488A91E5D4EDA27A012600230C4D27EEE2
:10D17000A77A67EE277AB0EE677AFFF7C1BA05F5AE
:10D18000DA7105F54F736EE60E231CE40D231AE4E5
:10D190000C2318E40B2316E488020020ABAAAAAAE9
:10D1A000D4000020DA49D1F8043513F4003030B44B
:10D1B00040F0B28001F5A16201F22453D54C93ED09
:10D1C000907AD2ED013A92ED023A67EE232AD2ED3F
:10D1D000034A92ED004A23EE472A64EE871A93ED44
:10D1E000066A64EEA26AD4F81C1F24EE077A8A7AD3
:10D1F000B2EE041AE1EEA36A64EE075A554261EEFC
:10D20000837A05EE105AE4EEA15AB8EEC55A76EECE
:10D21000266A67EE231A25EE015AE4EE026AB0EEA2
:10D22000656A64EE824A24EE224AA2EE036AE7EEC1
:10D23000436AB0EE667AF0EE466AB4EEC57AE2EE84
:10D24000E36AF1EE10FA07D406EE102AB8EEC65AD9
:10D2500025EE015A85FE475A77EE847A83ED065A09
:10D26000CA7AB2EE046A93ED4B7A554277EE877A2A
:10D2700007EE105A77EEA17AB8EEC77A77EEE47A25
:10D2800027EE067AF4EEC77AF1EE10FA07D407EE2D
:10D29000102AB8EEC77A27EE067A87FE677A83ED02
:10D2A0004B7A0A7BC8B95142B2EE047A07EE901A63
:10D2B000F8EEE77A67EE877AF4EEE67AF1EE10FAA6
:10D2C00007DC07EE902AF8EEE77A67EE877AC7FE6A
:10D2D000E67AC3ED907A30BC7047D4F8181F5042FC
:10D2E00093ED907AB2EE046A07EE900AD1ED225ADD
:10D2F000F8EEE77AA5EEA67A67EE867AB4EEE77ADC
:10D30000F1EE10FAE5D407EE902AF8EEE77A67EE30
:10D31000867AC7FEC77ADCE701F5A1629FED7E7AC7
:10D3200092ED023AD2ED013A63EE037AE3EEA37A8C
:10D33000F4EEC77AF1EE10FACDD8D1F818359B0685
:10D3400040F1C080754C94ED056AA4F6A864B1F96B
:10D350001C15DFED734A07EE901A9FED727ADFED30
:10D36000726AF8EEE77A86FE666A86FE076A67EEFC
:10D37000A44AB1EE647AFDEEC77A17EE903A2033F4
:10D38000402B00F2A88011F5E16F0CDA9FED675A8F
:10D39000DFED675AF0EE476A37EE457AF4EEE56A5C
:10D3A000F1EE10FAF6DCDFED637AB4EEE77AF1EE37
:10D3B00010FA0CD59FED5D5ADFED5F5AF0EE476A2B
:10D3C00037EE057AF4EEE56AF1EE10FAF6D4DFED09
:10D3D0005B7AB4EEE77AF1EE10FA7FDDDFED587A92
:10D3E00037EEC77A67EE077ADFED566A9FED565A39
:10D3F000DFED565AA7EEA65ADFED556A27EE274A0B
:10D40000E7EE855AE7EEA56AA4EE267ADFED4B7AC1
:10D4100077EEE47AFDEEE76A16EE903A2033402B81
:10D4200056D811F5617F0CDA9FED405ADFED405A76
:10D43000F0EE676A77EEC57AF4EEE56AF1EE10FA7F
:10D44000F6DCDFED3C6AF4EEE67AF1EE10FA0CD58C
:10D450009FED365ADFED385AF0EE676A77EE857A3F
:10D46000F4EEE56AF1EE10FAF6D4DFED346AF4EE8C
:10D47000E67AF1EE10FA3EDDDFED316A76EEE77A1C
:10D4800067EEA76ADFED2F5ADFED2F4A9FED2F5A87
:10D49000E6EEA54ADFED2E5A27EEA64AA6EEA45ADE
:10D4A000E6EE855AE4EE257AC7EE276ADFED297AA3
:10D4B000DFED295A294B66EEA77A87EE867A27EEAA
:10D4C000257A82E6134CD4F8183F93ED216A3EE7A3
:10D4D000DFED237AE8E79FED227A97E7DFED217A07
:10D4E000B4EEE77AF1EE10FA7FF57CAFDFED117A5A
:10D4F00037EEC77A76E7DFED1B6AF4EEE67AF1EEF7
:10D5000010FABDD5DFED0B6A76EEE77AB8E700BF1B
:10D5100000000020F8310120CE8BD33EA040012036
:10D5200088C3E43A000096430080BB45DB0FC94046
:10D53000E4CB1641DB0F49C0E4CB16C1DB0FC93F7A
:10D54000DB0F49409A7C2E36FAAF4FB93587083C3D
:10D55000A4AA2ABE8F2A7544E12E65422405002024
:10D5600000000000DB0FC9BF38B52DED0A8B30EE8F
:10D57000609AD0ED01AA0378F0EE408AF0EE607A6E
:10D58000044669EE2AAA0D46F0EE419AF0EE61BA21
:10D59000B0EE42CA002B5DD101F0010390ED0B7A91
:10D5A000002B50D039EE477AF0EE497A87EE290AFF
:10D5B000D4ED090AC4ED0B7AF5EEC00AF1EE10FACB
:10D5C00050DC94ED03AA20EE0AAA94ED0ABAB0EE5C
:10D5D0004C1A94ED050AF0EE6B0A3AEE8B8A68EE6F
:10D5E000808A38EE0A8A38EE288AB0EE480A49F076
:10D5F00081F8D4ED027A30EE488A94ED047A29EE6F
:10D60000279A6B07F0EE4B7AC4ED0F8A28EE078A53
:10D6100084ED0CBAC4ED0DAAE9EE897A84ED0EAA68
:10D6200084ED100AE9EE887A08D5B0EECBBAB0EEF8
:10D63000E77AB4EECB7AF1EE10FA01D5C4ED0A7AAE
:10D64000BDEC0A8B38BD37EEC77AB1EE477A87EE6C
:10D65000290AADE711F001034FF0000200FE897ABC
:10D6600002709DE794ED03AAB0EE691A04F1180068
:10D6700053F0D2FB2AEE00AAA7E700BF30B41C7813
:10D6800084B1012C0CD1B3F902408AB1157B94FB13
:10D69000F5F40470B3F90430527B93FBF2F30B7092
:10D6A00030BC70479A780270DB7830BC0B707047E2
:10D6B000054AE51782FB04241222C5EB64040470BA
:10D6C000B3F90430E9E700BFABAAAA2A30B41C784A
:10D6D0004CB1012C05D1B3F90220B3F9043002603A
:10D6E0000B6030BC70479C7852B1157BDB7815FB22
:10D6F00004F40460527B03FB02F330BC0B60704700
:10D7000004EB4404DB781222A4000460F3E700BFBA
:10D710002DE9F04F2DED028B87B0354D0446B0EE6C
:10D72000408A03901046D5F8209F0E4617469B4628
:10D730004CF08CFA0146D9F800C04FF000082144A3
:10D7400089F80B6048463B4689F80A103246214664
:10D75000CDF80080DCF814409DF848A09DF84C906E
:10D76000A0479FED240A5346424604A828EE000A2B
:10D77000CDF804B0CDF80080FDEEC07A17EE901A17
:10D7800016F01EF8D5F8243F13B11B784B452BD06B
:10D79000D5F8303F13B11B784B4525D0D5F83C3F29
:10D7A00013B11B784B451FD0D5F8483FD3B11B7838
:10D7B000A3EB0909B9FA89F94FEA591938464CF02F
