:020000040800F2
:1000000000000110A11E050855570008D17703080C
:10001000411F0508411F0508411F05080000000099
:100020000000000000000000000000005157000820
:100030004D5700080000000049570008E168040817
:10004000411F0508411F0508411F0508411F0508FC
:10005000411F0508411F0508217404083174040874
:10006000411F05082D74040829740408596A000802
:10007000456A0008316A00081D6A0008096A00081C
:10008000F5690008E1690008411F0508411F0508DE
:10009000411F0508411F0508411F05082574040874
:1000A000996B0008716B0008496B0008C16B000870
:1000B000356B0008216B00080D6B0008411F050817
:1000C000411F0508411F0508411F0508411F05087C
:1000D000411F0508216F0008156F0008096F00080F
:1000E0001D740408411F0508B9720008BD6A0008A4
:1000F000956A00086D6A0008E56A0008CD69000885
:10010000411F0508411F0508F96A0008411F05083D
:10011000411F0508FD6E0008411F0508411F050825
:10012000B9690008A5690008916900087D6900089F
:1001300069690008411F0508411F0508411F05089E
:10014000411F0508411F0508411F0508DD50000833
:1001500055690008416900082D690008411F05081C
:10016000411F0508411F0508411F0508411F0508DB
:10017000411F0508411F0508411F0508411F0508CB
:08018000411F0508411F05089D
:1001880009284FF0010307D903EB83035B00B0FB99
:10019800F3F2092AF8D883B3F0B4DFF864C0002575
:1001A8000EE00A2A1E460F462346B4BF30245724C1
:1001B8002244092E01F1010105F101053A700FD918
:1001C800ACFB0324E408B0FBF3F203FB1200002DA0
:1001D800E7D1002AE5DC092B06D8303201F8012BDB
:1001E8000023F0BC0B707047ACFB0436B0FBF4F294
:1001F800234604FB1200F408EBE700230B7070475A
:10020800CDCCCCCCF0B40D6800240CE0BCF1050FCB
:1002180018D8A0F137030A2B14D104EB840415F87D
:10022800010B03EB4404A0F13003DEB2092EA0F168
:100238006107A0F1410CF0D9052FE7D8A0F15703C9
:100248000A2BEAD00D601460F0BC704791B10A6BBC
:10025800824214D9144BDA6A914220D34C39914224
:100268001DD30B6B9842F9D38B6B9842F6D80B468B
:10027800184670470C4BD96A0A6B904212D30B6828
:100288000BB9F5E70A6B90420B4602D38A6B904292
:10029800EED951F84C3F002BF4D118467047002393
:1002A800184670470A46D9E7B01900202DE9F047EB
:1002B800CC0143D10346224A43F8082B4FF0FF32C2
:1002C8004260022418467E26DFF87880D8F83090FD
:1002D8002644013E051D49466FF070474FF0010A5C
:1002E80008E0A3421CD0631C45F8043C321B1C46A2
:1002F8000435CAB10B6BA34202D88B6BA34204D25C
:100308002046FFF7A3FF014690B10A794B6B002AFC
:10031800E7D1A34204D0E6D245F8042C631CE5E7F4
:1003280045F8047C631CE1E7C8F83010BDE8F087A5
:1003380045F804AC321B631C4946D8E78026C3E75E
:10034800F8FFFF0FB0190020054AD2E90E32581EF7
:10035800801A934294BF4FF40063002318447047F7
:10036800B0190020012380F849307047054B186CFC
:1003780000B97047186CA0F10500B0FA80F0400988
:10038800704700BFB01900200649D1E911329342E5
:10039800FDD05A1C0B44C2F30A0293F84C004A647D
:1003A800704700BFB0190020044BD3E911039842ED
:1003B80088BF03F50063181A704700BFB019002002
:1003C80001207047704700BF704700BF30B4124D1E
:1003D800D5E911239A4286BF03F50064A21A9A1A36
:1003E8000A44B2F5006F12D8A1B101444A1E01387F
:1003F80010F8014FE918824203F1010381F84C40DB
:10040800C3F30A03F4D1AB64002030BC7047022068
:1004180030BC70470846F8E7B0190020212838B5E5
:100428000C4605D022282DD0202813D0002038BD16
:100438000029FBD0072AF9D1194BD3F8500893F8B3
:10044800541893F8552893F8563820602171627132
:10045800A371EBE70029E9D0072AE7D1104DD5F8B9
:100468004C3813B1096800209847206821796279CF
:10047800A379C5F8500885F8541885F8552885F8E3
:100488005638D3E70029D1D0022ACFD1044BD3F86C
:100498005838002BCAD0098800209847C6E700BF03
:1004A800B0190020014B002018647047B0190020D3
:1004B800044B002005221A64C3F85808C3F84C08F6
:1004C800704700BFB0190020704700BF704700BFD9
:1004D800704700BF704700BF704700BF704700BF3C
:1004E800704700BF042301480B80704700000020BC
:1004F800122301480B8070470400002030B41D69A6
:1005080095420AD314468A1895429B6938BF291B1D
:100518000A46E11830BC57F0EBBB30BC704700BF4F
:100528000020704701207047012070470020704765
:100538004FF40070024B10609B680B6000207047FE
:10054800B01900200023F0B452004F1C1E46B0F131
:10055800204F4FEA107404F130052ABF3734CD54C8
:10056800CC54FE5402339A424FEA0010EFD1F0BC4B
:10057800704700BF0B4A0C4B10681B681A22C01842
:100588000A8001D10948704710B5094B09491C6810
:100598000822FFF7D7FF204607490422FFF7D2FFBA
:1005A800024810BDE8F7FF1FECF7FF1F18000020F6
:1005B800EAF7FF1F1A0000202A0000200423014840
:1005C8000B80704734000020122301480B807047CD
:1005D8003800002010B5044600222121006847F0A9
:1005E8005BFA2068FC22202147F056FA2068402256
:1005F800242147F051FA20680C22232147F04CFAB5
:1006080020680022222147F047FA012010BD00BFD0
:1006180010B5012204460B21006847F03DFA30B1BD
:1006280020681D22BDE81040092147F035BA10BDE9
:100638007C4B2DE9F04FB3F86AC8D3F85C08B3F8DF
:100648006868B3F86CA84FEA0C2CB0EB0C0C4FF0B0
:10065800000464EB0400B3F8664889B00025CDE9CE
:100668000445A6FB0C8906FB009907900498079E91
:10067800A0FB0C45CDE902452C46049D05FB06442C
:100688000394B3F864484FEA044EAAFB0C45CDE93D
:1006980004450AFB06540594029C260A039C46EA74
:1006A8000466049C4FEAD810B3F8628840EA4960AF
:1006B8004FEAE91A4FEAD459039C10EB0E004FEAAF
:1006C800C8384FF0000E4AEB0E0A271216EB080442
:1006D800059E029449EA4629744644EB07074FEA07
:1006E800E65E19F5FA6400944EF100040194DDE920
:1006F8000045B4F5FA6F934675F1000206976EDA75
:10070800A9FB095609FB0EF206EB4206B2004FEAB6
:10071800850818EB050442EA957246EB0202650863
:1007280045EAC275401B4FEA62056AEB050AA40850
:10073800029D44EA82742C1B4FEAA20267EB020274
:10074800DDE900670294384C06924FF0FF35A64267
:1007580077EB050236DA40F6AC5419EB04044FF097
:1007680000024EEB020E04FB0EFEA4FB044505EB53
:100778004E05EA004FEAC40EB4EB0E0E42EA54727C
:1007880065EB020210EB0E004AEB020A221945EB58
:10079800050E12194EEB050E4FEA8E0E4FEA82082F
:1007A8004EEA927EB8EB04026EEB050E029C5208EC
:1007B80042EACE72A41A069A02944FEA6E0E62EBCF
:1007C8000E020692079AACFB0C450CFB02F205EBF5
:1007D8004205E20F009C42EA4502A21A0092B1B11A
:1007E800D3F87038029AA3FB0289069A4FEA585E3A
:1007F80003FB02994EEAC92EBEEB00004FEA695E80
:100808004FEAD0306EEB0A0A40EA4A400860BBF172
:10081800000F02D0009BCBF80030012009B0BDE8E2
:10082800F08F00BFB019002024FAFFFF00680122F2
:10083800482147F031B900BF00680122582147F02C
:100848002BB900BF2DE9F04F874DD5F87478B5F86E
:100858007838B5F97C48B5F97A68B5F980A8C3EB5A
:10086800271000FB00F000135B00C3EBE70304FB59
:1008780000F406FB03F3A41304EBE324B4F5FA3302
:100888004FEAE47747F1FF30A3FB038903FB00F647
:1008980009EB4609B5F98268C5F89048F71706FBD1
:1008A80009FE83B008FB07EEA6FB0867CDE90067E1
:1008B8003E46764401964FEAEA7B009E019F0AFB7A
:1008C80000FC03FB0BCCAAFB03ABE344360A46EA65
:1008D80007664FEA0A3E4FEA0B3C16EB0E0E4FEA4C
:1008E8002727B5F87E684CEA1A5C47EB0C0C002702
:1008F800CDE90067009E00921EF1000A4CF5004702
:10090800AAFB06AB06FB07BB4FEA6B064FEAEB7781
:1009180056EA07028A4600F0A480B5F98618B5F9A8
:1009280088B8CA1701FB00F003FB02004FEAEB7C12
:10093800A1FB03230BFB09F1034408FB0C10D5F8BA
:100948009418ABFB08894FEA434C4FEA424EC1F575
:1009580080111EEB080E81444CEAD23CB5F984287C
:100968004CEB090C00204FEAE17910EB0E004FEA3E
:10097800C9734FEAC17E4FEAC20242EB0C0243EA56
:100988005103BEEB000063EB020C03184CEB0C01A7
:100998001B1841EB0C014FEA831E8A0142EA93625D
:1009A80013EB0E0342EB010189009A0041EA9371AF
:1009B800131841EB0C019A008900101841EA937151
:1009C80032463B4641EB0C0151F086F8B5F98E28CA
:1009D8004E134FEA503C4CEAC14C02FB06F7D317C2
:1009E8000CFB0377A2FB0C2302FB06FEB5F98C680F
:1009F8003B44A2FB0C89F7170CFB03EE06FB01FC3A
:100A0800A6FB002300FB07CCF144164663444FEADB
:100A180058621F4642EAC912F60C10184FEA696379
:100A280046EA473643EB0101B5F98A2880194FEAAF
:100A3800E74343EB0101000A40EA01601201104458
:100A4800BAF1000F02D0000ACAF80000009B23B1D7
:100A580004EB8404803424121C60012003B0BDE838
:100A6800F08F0020ECE700BFB019002008B5312254
:100A7800F421006847F010F8012008BD01207047F4
:100A8800012070473A48F0B5B0F8A6C8B0F8987891
:100A9800B0F8A448B0F9B068B0F9AE38B0F99E58CB
:100AA800B0F9AAE8A7EB0C0704FB07F406EBE43659
:100AB800DB0293FBF6F303EBE433A3F57A66B0F9B4
:100AC800A848B0F9A078C0F8B43806FB06FC4FEA8D
:100AD8002C3C06FB05F50CFB04F4ED120CFB0EFC9C
:100AE800B0F99CE806FB07F705EBEC25B0F9B86808
:100AF800D0F8BCC8241404EB673405EB8E05023427
:100B0800B540B0F8A278A010AC1C4CF25035ACEB54
:100B1800A40C00F5004045FA06F404FB0CF407FBAE
:100B280000F0002C4FEAD030ABBF6400B4FBF0F00B
:100B3800B4FBF0F0400089B1041204FB04F50D4E3B
:100B480040F6DE3404FB05F4241406FB00F504EB40
:100B5800254404F6CF6400EB241008602AB103EBA7
:100B680083035B0008331B1113600120F0BD00BF35
:100B7800B019002043E3FFFF054B006893F8B8283D
:100B88009201343202F0FC02F42146F085BF00BF26
:100B9800B019002000682E22F42146F07DBF00BF66
:100BA8004FF40063838170474FF40063838170477B
:100BB80003691F2B30B40CD94268A3F12004516893
:100BC8002022A2400A4214BF012200225AB930BC96
:100BD80070474168202209689A400A4214BF0122DE
:100BE8000022002AF3D08269114DD16800241474C0
:100BF800896854680A6822F001020A6021686479E9
:100C08008A8935F8144092B222EA04021F2B8A819D
:100C180007D9A3F12001426820238B4030BCD36060
:100C280070474168202202FA03F330BC8B6070479A
:100C38002082050838B5436B99891A8889060446C5
:100C48000AD592B2920607D5C26A002A29D0988896
:100C5800216B80B29047636B99891A880D0692B20E
:100C68000FD510060DD5D4E909128A4214D0A1690E
:100C78002569885C98800132B2FBF5F105FB1122E9
:100C8800A262998A1A88C90592B204D5D20744BFCC
:100C98004FF6F7721A8038BDDA6822F08002DA60FF
:100CA800EFE79B884169C269DBB28B54C269C068AF
:100CB800636B0132B2FBF0F100FB1122E261CBE77A
:100CC80070B50546134895F91030AA6803EB8303FD
:100CD80000EB83039207DE6C0C4610D5D4E90123A0
:100CE8002168304646F0D2FCD4E90423E168304656
:100CF80046F0CCFCAB689B0706D5012070BD68693F
:100D080046F0FEF800BFE9E700BF686946F024FB3B
:100D1800012070BD000000202DE9F0432E4C2F4E1D
:100D28002F4B304DC4F8DC6804F6F80E4FF0120C67
:100D3800C4F8E03885B0002304F5126980460F46F0
:100D4800164604F50C6142F6F8224020C4F8F8581B
:100D5800C4F8FC58C4F80059C4F80459C4F8085930
:100D6800C4F80C59C4F81059C4F81459C4F81859DF
:100D7800C1E90223C4F8ECE884F8C0C8C4F8F098C4
:100D88002BF0EAFB054600B309F02EF998F800208D
:100D98003F78034695F9040000961D1E14BF0321F1
:100DA8000121002A0CBF07220622002F14BF0823A6
:100DB80000231A43CDE901124B460B4A40212BF080
:100DC8000BFB2DB9003818BF012005B0BDE8F08332
:100DD800C4F86009F6E700BFB01900207D5B02087F
:100DE800A15B0208E003E003E16C0208F8B5174CC8
:100DF80094F86439002BFBD131B301444E1E451ED3
:100E0800D4E90E12531CC3F30A038B422CBF4FF4D0
:100E180000600020C91A2244014415F8017F82F8B5
:100E280068790129E3630DD1012045F047FDD4E934
:100E38000E318B4294BF4FF4006200225B1A1344B8
:100E4800012BF1D0B542DBD10020F8BDB01900204C
:100E580038B5FFF78BFA00B938BD054D002A0C46A6
:100E68002B6F1146F8DD2046FFF7C0FF2B6F38BD0A
:100E7800A82A002090F84810002280F8482009B9D4
:100E88000120704710B5094C236C63B1236C052B06
:100E980001D0104610BD064C3430236FFFF7A6FF73
:100EA800236F012010BD184610BD00BFB0190020E7
:100EB800A82A0020002280F84920DBE790F8483073
:100EC800C2180133DBB280F8483082F8341090F849
:100ED80049200AB1132B00D9CCE7704710B501227D
:100EE80004461021006846F0D7FD00B910BD142053
:100EF80045F0E4FC2068A022BDE81040112146F02E
:100F0800CBBD00BF10B5072204460A21006846F091
:100F1800C3FD052045F0D2FC24224121206846F07B
:100F2800BBFD052045F0CAFCC0224221206846F0DE
:100F3800B3FD052045F0C2FC012010BD10B5782294
:100F480004460021006846F0A7FD052045F0B6FCE0
:100F580020220121206846F09FFD052045F0AEFCC7
:100F680000220221206846F097FD642045F0A6FC87
:100F7800012010BD2DE9F84FDDE90A458A46904663
:100F8800002120229946064657F09DF85CB1D4E925
:100F980000326189F381C3F30F433382C2F30F43F5
:100FA800F2823383718250464FF0A4FF18F0100F7D
:100FB8001BD1431EC8B10AEB000401E0013B14D366
:100FC80014F8017D2E2FF9D1A0EB030B0BF1FF3B99
:100FD800BBF1030FA8BF4FF0030B082B03F101046B
:100FE800A8BF082354441A4606E008280246544677
:100FF800A8BF08224FF0000B4FF020337360514612
:101008003360C6F80730304606F1080756F070FE20
:101018005A462146384656F06BFE711EF21D11F8ED
:10102800014FA4F16103192B9CBF203C0C708A422C
:10103800F5D106F10B0117F8013BA3F16102192A5A
:101048009CBF203B07F8013C8F42F4D11823C9F319
:101058000F4286F80B803373A6F81A90B282F561B6
:10106800BDE8F88F2DE9F041274B86B09C1D1E4640
:1010780003F160081F464FF0000C94F800E0A0EB65
:101088000E05A0EB0C02002DB8BF6D42002AB8BFB8
:1010980052429542B8BF274604F10604B8BF4FFA3A
:1010A8008EFCA045E9D17C8803F15A0E002204E0A9
:1010B8002546B64516D016F8062F6245F8D1B6F87B
:1010C8000280A1EB08020B1B002AB8BF5242002B7A
:1010D800B8BF5B4293422546EBDDB64544464546DC
:1010E8003746E8D17E793C7902953A7801920091A9
:1010F8000346CDE90346054A032101204EF0C0FA14
:10110800384606B0BDE8F0812882050810FD0508BC
:1011180010B5044C04480A4621464EF009FE204604
:1011280010BD00BF1C2B00204CFD050810B5044C59
:1011380004480A4621464EF0FBFD204610BD00BF7C
:101148001C2B00205CFD050810B5044C04480A4619
:1011580021464EF0EDFD204610BD00BF1C2B00209F
:1011680068FD050810B5044C04480A4621464EF0AF
:10117800DFFD204610BD00BF1C2B002074FD0508B4
:1011880010B5044C04480A4621464EF0D1FD2046CD
:1011980010BD00BF1C2B00207CFD050810B5044CB9
:1011A80004480A4621464EF0C3FD204610BD00BF44
:1011B8001C2C002088FD050810B5044C04480A467C
:1011C80021464EF0B5FD204610BD00BF1C2C002066
:1011D80098FD050810B5044C04480A4621464EF00F
:1011E800A7FD204610BD00BF1C2C0020A4FD05084B
:1011F8000A4608B5054920B905484EF099FD034847
:1012080008BD04484EF094FD004808BD1C2C002081
:10121800B8FD0508D0FD05082DE9F04F404F97F8B7
:101228007A52C3B005B1FEE797F87B22DFF8F4B035
:10123800044602F0F7020123D7F8740287F87B22EC
:101248008846294687F87A3246F026FCFF2C4FF06C
:1012580009038DF8054088BFA40801AA88BF04F0D7
:10126800C00C137098BFAC46022300244FF00A0A42
:101278000DF105094FF00B0E0DF1070111E0B5F561
:10128800827F02F803A009F8030018F8040011D8B7
:101298000134362C02F806E0C85403F106062B4642
:1012A8000FD09E1C4CEA0400B6F5827F03F10405BA
:1012B800C0B2E4D901346FF00045362C2B465E46A7
:1012C800EFD1B6F5827F27D808200DF105015055DA
:1012D800A020C8540233D7F87402002146F0D4FA8B
:1012E800D7F874020DF10302A02146F00BFB48B9B0
:1012F800D7F8A834B7F8AC2459690A4214BF5A83FE
:101308001A83EDE79DF8033013F02003F0D187F836
:101318007A3243B0BDE8F08F6FF00043DBE700BFDF
:10132800A82A0020010000802DE9F04FDFF894C2C0
:10133800A7B000230CF5B0640A259CF87C12019331
:1013480027461E469E4618460095A4E003EBCE0E9F
:101358000CEB4E03CEF30726B3F8BC2555075FFA0E
:101368008EF7D3B24FEA122A40F1CE804A0615D43E
:1013780000F10208B8F18C0F41F0400100F215812C
:1013880026AD05EB0009421C2A444FF0040509F874
:101398008C5C01254046019502F88C1C00F102097D
:1013A800B9F18C0F46F0020B00F2048126AA024420
:1013B80000F104084FF00505B8F18C0F02F88C5CB9
:1013C80002F88BBC00F2F68026AD05EB090B00F1A4
:1013D80006099B004FF00605B9F18C0F0BF88C5CE1
:1013E800DBB202F8897C00F2E5800DF1980BC3446A
:1013F80000F108084FF00705B8F18C0F0BF88C5C6A
:1014080002F8873C00F2D68026AB994400F10A0323
:101418004FF005058C2B09F88C5C02F8856C00F2FE
:10142800C98026AEB04400F10C064FF006058C2E9C
:1014380008F88C5C02F8837C00F2BC800B3026AA8A
:10144800024426A803444FF0070503F88C5C304695
:1014580002F88CAC4FEA5E160EF01F0254F82630E4
:10146800012505FA02F223EA020344F82630009B1C
:10147800013B009300F08A800EF10106B6F5F07F7B
:1014880080F084804FEA561E4C4B04EB8E079F4237
:101498004FEA8E0E7AD23A6806F01F034FF0FF35F6
:1014A80005FA03F3134093FAA3F3B3FA83F3DBB219
:1014B800202B7FF44BAF414B3A1D9A421BD2404B35
:1014C800009DDB1B23F0030308371F4401E0BA42E9
:1014D80011D016460432336893FAA3F3B3FA83F3B0
:1014E8005FFA83FEBEF1200FF1D0361B1EEBC60E4D
:1014F80000957FF52DAF019B0BB18CF87C1200286D
:1015080048D127B0BDE8F08F4D0603D401F0380864
:10151800984514D021F078011143821C8C2AC9B255
:1015280043D826AD431C05EB00082B4410464FF06A
:10153800040208F88C2C0122019203F88C1C831CED
:101548008C2B37D826AA02EB0008021D4FF00505A0
:101558008C2A08F88C5C08F88B6C2BD826AD2B44A9
:10156800861D4FF006058C2E03F88C5C08F8897CE4
:1015780020D8053026AB034426A802444FF00705BF
:1015880002F88C5C304603F88CAC63E7019B0BB126
:101598008CF87C12034603AADCF87402002146F09A
:1015A80073F9012027B0BDE8F08F012301936FF094
:1015B80000404FE76FF000404CE700BF6430002068
:1015C8005F300020A82A002010B584B0044600230C
:1015D80000688DF807300DF10702272146F092F9CF
:1015E80028B19DF8073013F0080302D1184604B05B
:1015F80010BD2068062302AA282146F0EDF928B379
:101608009DF809209DF808309DF80B1043EA022345
:101618001BB2002B9DF80A20B8BF03339B1042EA87
:101628000122E3869DF80D109DF80C3012B243EAB2
:101638000123002A1BB2B8BF0332002BB8BF033303
:1016480092109B102287638704B010BDE086A063C8
:1016580004B010BD70B5002184B00446C186816312
:101668000DF10702006846F04DF928B19DF80730E2
:1016780013F0080302D1184604B070BD2068062391
:1016880002AA012146F0A8F90028F5D09DF8082003
:101698009DF80C609DF80D309DF809109DF80A50D2
:1016A80041EA022143EA06239DF80B20E1865B42CA
:1016B800638742EA0523238704B070BD70B5002311
:1016C80082B0C38683630446062300686A46032102
:1016D80046F082F9E0B19DF803209DF802309DF8AC
:1016E80001609DF800109DF8055043EA02239DF81B
:1016F80004201BB25B4241EA062142EA052203EBC1
:10170800430301EB410102EB42022387E186628732
:1017180002B070BDF0B5002585B00446C586856366
:101728000DF107020068062146F0ECF828B19DF893
:10173800073013F0040302D1184605B0F0BD206845
:101748002946062302AA46F047F90028F5D09DF855
:1017580009709DF808109DF80B609DF80A209DF807
:101768000D509DF80C3041EA072142EA062243EA6F
:101778000523E1862287638705B0F0BDF0B50446EE
:101788000068037983B0022B0CBF43210321062391
:101798006A4646F021F9B0B19DF800709DF8011035
:1017A8009DF802609DF803209DF804509DF80530CF
:1017B80041EA072142EA062243EA0523E1866287D5
:1017C800238703B0F0BDE086A06303B0F0BD00BF7F
:1017D80070B5002384B00446C38683630DF1070205
:1017E8000068022146F08EF818B19DF80730DB0733
:1017F80003D40025284604B070BD062302AA03219D
:10180800206846F0E9F820680DF10702092146F042
:1018180079F805460028ECD09DF8073013F00C0F36
:10182800E7D19DF80D109DF80C309DF809609DF8E2
:1018380008209DF80B0043EA01239DF80A1042EAAC
:10184800062241EA0021C2EB8232C3EB83339B00BC
:1018580092008900E28621872068638701220A2195
:1018680046F01AF9284604B070BD00BF10B5002232
:1018780082B004460A21006846F00EF9142045F0AB
:101888001DF80F220A21206846F006F90A2045F0C3
:1018980015F8032301AA1021206846F09DF80A20B4
:1018A80045F00CF800220A21206846F0F5F80A20D5
:1018B80045F004F80DF103022068022146F022F8F1
:1018C8000DF103022068092146F01CF82068012266
:1018D8000A2146F0E1F8012002B010BD70B582B0CF
:1018E80004466A460068022146F00CF818B19DF8D3
:1018F8000030DA0703D40025284602B070BD2068FE
:101908006A460723032146F067F805460028F2D007
:10191800206811220A2146F0BFF89DF806301B07FF
:10192800E9D4204E9DF801209DF80030B6F87C09D6
:101938001D4943EA022310FB03F00028B8BFFF301B
:1019480047F6FF7200124DF0FBF89DF803109DF862
:101958000220B6F87E3942EA012213FB02F3002B7B
:10196800B8BFFF3340421049E08647F6FF721812AD
:101978004DF0E6F89DF805109DF80420B6F880397A
:10198800208742EA012013FB00F00028B8BFFF308F
:101998000549001247F6FF724DF0D2F840426087C1
:1019A800AAE700BFA82A00200080FFFF30B5002268
:1019B80083B004460A21006846F06EF8142044F00B
:1019C8007DFF0F220A21206846F066F80A2044F0BD
:1019D80075FF01AA03231021206845F0FDFF0A20A6
:1019E80044F06CFF9DF804209DF80510134B9DF8FA
:1019F8000650206880328031A3F87C29A3F87E192C
:101A080000220A218035A3F8805946F045F80A20BB
:101A180044F054FF0DF103022068022145F072FFE3
:101A28000DF103022068092145F06CFF206811229E
:101A38000A2146F031F8012003B030BDA82A002061
:101A480000B583B001AA0323002145F0C5FF9DF826
:101A580005309DF804209DF806001B0243EA024366
:101A6800184303B05DF804FB08B50068FFF7E8FF0A
:101A7800024B0246C3F87028012008BDB0190020A7
:101A880008B50068FFF7DCFF024B0246C3F85C2884
:101A9800012008BDB019002070B582B00068062387
:101AA8006A46F72145F098FF08B39DF801209DF894
:101AB80000409DF804309DF802109DF803609DF8E1
:101AC8000550120142EA04321B0142EA11120E4C7F
:101AD8000E49C4F8942843EA063343EA1513C1F8BB
:101AE8008429C4F87438C1F8883902B070BD074A2F
:101AF800054BD2F88419D2F88829C3F89418C3F88A
:101B0800742802B070BD00BFB0190020A82A0020B8
:101B180030B583B00068032301AAF62145F05CFFC5
:101B280088B10A499DF805309DF804509DF8064093
:101B3800B1F9B8281B0243EA05432343C2F108025E
:101B4800D340C1F8BC3803B030BD00BFB019002085
:101B580000B583B00068022301AAF62145F03CFFD6
:101B680040B19DF804109DF80530044A43EA01236A
:101B7800A2F8983803B05DF804FB00BFB019002044
:101B8800F0B5054683B0016B534F90F82D00B7FBB5
:101B9800F1F189B22C68FFF765FA06462846738882
:101BA800B7FBF3F7AF6308F04FF92046002146F082
:101BB800D1FA80226B21204645F06EFF962044F032
:101BC8007DFE03226821204645F066FF962044F0FA
:101BD80075FE03226B21204645F05EFF0F20002191
:101BE80044F058FE10226A21204645F055FF0F2088
:101BF800002144F04FFE00226C21204645F04CFFA6
:101C08000F20002144F046FE72791921204645F044
:101C180043FF0F20002144F03DFE18221B212046DF
:101C280045F03AFF0F20002144F034FE18221C2111
:101C3800204645F031FF0F20002144F02BFE1022F2
:101C48003721204645F028FF0F20002144F022FECE
:101C580001223821204645F01FFF0F20002144F0C3
:101C680019FE32791A21204645F016FF012000217D
:101C780044F010FE2046032146F06CFA286806233B
:101C88006A46432145F0A8FED0B19DF802609DF850
:101C980003309DF800409DF801109DF804009DF860
:101CA800052043EA06231BB26B845BB241EA042198
:101CB80042EA002201332984AA8406D003B0F0BD89
:101CC800B5F922305BB20133F8D195F920300133F0
:101CD800F4D1062045F05CFB40420F00F8B50546FC
:101CE800016B354F90F82D00B7FBF1F189B22C68E4
:101CF800FFF7B8F9064628467388B7FBF3F7AF63D2
:101D080008F0A2F82046002146F024FA80226B2130
:101D1800204645F0C1FE642044F0D0FD072268212A
:101D2800204645F0B9FE642044F0C8FD00226B212E
:101D3800204645F0B1FE642044F0C0FD01226B212D
:101D4800204645F0A9FE0F2044F0B8FD18221B21BB
:101D5800204645F0A1FE0F2044F0B0FD18221C21BA
:101D6800204645F099FE0F2044F0A8FD32791A214B
:101D7800204645F091FE0F2044F0A0FD727919210C
:101D8800204645F089FE642044F098FD1222372150
:101D9800204645F081FE0F2044F090FD3821204672
:101DA800012245F079FE0F2044F088FD20460321EA
:101DB800BDE8F84046F0CEB940420F002DE9F047A3
:101DC800038A8489A4B21C4082B045D081468846E3
:101DD8004FF0004501F14C0701F13406B4FA84F3E1
:101DE80025FA03F2D24391B21440A9F810101B3B14
:101DF800B8F1000F5DD0042B2CD8DFE803F0504673
:101E08003B300300D8F80C30D9F82CA033B19B68CC
:101E180023B11FFA8AF108F104009847D8F8243052
:101E280033B19B6823B11FFA8AF108F11C00984767
:101E3800D8F83C302BB19B681BB11FFA8AF13046A9
:101E48009847D8F854302BB19B681BB11FFA8AF118
:101E580038469847002CC1D102B0BDE8F087D8F8C1
:101E68000C30D9F834105B6808F104009847002C4E
:101E7800B4D1F1E7D8F82430D9F838105B6808F104
:101E88001C009847002CA9D1E6E7D8F83C30D9F8CF
:101E98003C105B6830469847002C9FD1DCE7D8F8A7
:101EA8005430D9F840105B6838469847002C95D1D3
:101EB800D2E7042B07D8DFE803F00319140F0A0050
:101EC800D9F840300193019B002C87D1C4E7D9F899
:101ED8002C300193019BF7E7D9F834300193019B2B
:101EE800F2E7D9F838300193019BEDE7D9F83C3097
:101EF8000193019BE8E700BF0B68144A30B40568FA
:101F0800CC682A402343D1E9054513432343D1E94B
:101F180007242B4313434A6A4D6B234313438C6BAB
:101F2800CA6A2B43234343F40033036044690B6BB1
:101F38000D6924F0070413432343D1E901424361A7
:101F48004560846030BCC260704700BF3F801CF0B1
:101F5800F8B5B44CB44DB54BC4F890590225B44A01
:101F6800B44FB54EB54984F894594FF0A045C4F81C
:101F78009859C4F8E43905F51465A3F5DC63C4F889
:101F88009C29C4F8A47902F550726037C4F8E06956
:101F9800C4F8A8196036A1F5A461C4F8AC59C4F80E
:101FA800583AA5F5886503F5B073C4F8E829C4F86C
:101FB800B079A2F5C462A7F58467C4F8EC69C4F8DF
:101FC800A019A6F5C06601F5C071C4F81C5AC4F87A
:101FD800303AC0359A4B9B48C4F8202AC4F8247A72
:101FE800C03207F52C67C4F8286AC4F82C1A06F51D
:101FF800D55601F52A51C4F8345A4FF05025C4F883
:102008008C09C4F8382A00208F4AC4F85C7AC4F8CE
:10201800606AC4F8641A06F5C0460121C4F8683A33
:10202800C4F86C5AA3F5485307F5C04704F68C1555
:10203800C4F8702AC4F8786A0246C4F8747A0E465E
:1020480084F89719C4F8983A84F89E1A84F8A00A74
:1020580001462B46402083F81C21A3F82221013297
:10206800042AC3E9490183F81D6183F81F11C3F8E5
:10207800301103F12803EED1002211462B464020EF
:1020880083F87423A3F87A230132042AC3E9DF0111
:1020980083F8751383F87713C3F8881303F12803BB
:1020A800EED14FF0A04369489A6822F001029A6085
:1020B800DA6842F04002DA604EF0F2F894F89539A6
:1020C8000022212161F317420BB142F4801294F8E7
:1020D8008F19D4F8983901299A6307D19A6822F0A0
:1020E8003E0141F02A0161F307029A60DA68D4F8E8
:1020F800986AD4F89C09C2F3076121F0600141F0A5
:10210800400161F31F620021DA603160026861F307
:10211800CC22026094F89729012A10D101684C4A10
:102128004C4E41F003010160802159629E62C3F860
:1021380004214FF4A072C3F80821C3F80C21102120
:1021480045484EF0FFFB44484EF0E2FBD4F89C694A
:1021580094F88D3900204FF0FF3230617061B26120
:10216800F06143B305F114073C4A07EB83074FEAD4
:10217800830E4FF0FF0C52F8043F19680029ACBFDA
:1021880000214FF09041BA4219601861C3F808C0A5
:10219800F1D15035324A75440027FF2052F8043FE8
:1021A80019680029ACBF00214FF090419542196091
:1021B8001F619860F2D1336994F88F1943F48073E2
:1021C800012933611ED0D4F89829264800294FF0F8
:1021D80000036FF080414FF0FF349361516108BFF5
:1021E800102354605161906143F47013916943F472
:1021F800605343F008030B439361936843F0010372
:102208009360F8BDD4F89829174B33636FF0804179
:10221800144800234FF0FF349361516154605161B9
:102228009061E1E7A82A002040004001200B0050FF
:102238000008005000090050000B00502009005011
:1022480000400050080401000060005040340020A5
:10225800C000800080004000343400204834002052
:1022680084340020000800800301810010B580211B
:1022780004464DF083FD204600214DF07FFD2046A9
:10228800BDE810404EF032B830B51C4B5021082242
:1022980083B083F84313C3F88820BFF34F8FBFF38D
:1022A8006F8F174D174C2B6B43F001032B634FF4C3
:1022B800C05240F2023369462046CDE900234EF071
:1022C8005FFD636A104A23F470436362636A43F4F0
:1022D80020436362636A23F470236362636A43F48E
:1022E800202363626B6C43F480436B646B6B012146
:1022F80043F080036B63516103B030BD00E100E03F
:102308000038024000000240003C01402DE9F04145
:10231800B24C94F8933FC4F8800F82B088465A2B89
:1023280000F2B980DFE813F0CC00B700B700DC009A
:10233800B700B700B700B700B700B700B700B700DD
:10234800B700B700B700B700B700B7001D01B70066
:10235800B700B700B700B700B700B7004101740075
:10236800B700B7007400B700B700B700B700BA01EC
:10237800B7006401B700B7007C00B700FE01B700E2
:10238800B700B700B7005B00B700B700B700B700E9
:10239800B700B700B700B700B700B700B700B7007D
:1023A800B700B700B700B700B700B700B700B7006D
:1023B800B700B700B700B700B700B700B700B7005D
:1023C800B700B700B700B700B700B700B700B7004D
:1023D800B700B700B700B700B700B700E60194F838
:1023E800943F9B0700F15082B4F89A3FD4F8952F98
:1023F800D4F8D41F5BBA9BB212BAD0188842C4F87A
:10240800E03FC4F8DC2F03D94DF078FC002854DBFA
:102418000020A4F8CC0F0546284602B0BDE8F0819C
:1024280094F8D83F002B40F0018194F9903F002B9D
:1024380031DAD4F8C83F08469B689847002840F02E
:102448000782B4F89A0FD4F8952FD4F8D43F40BA3D
:1024580080B212BA15189D42C4F8E00FC4F8DC2FF8
:1024680007D94DF04BFC002827DBD4F8DC2FD4F833
:10247800E00FD4F8D03FD4F88C6F00FB03F002FBD8
:1024880003F20225B042C4F8DC2FC4F8E00F84F848
:10249800D85F00F0D18094F8A43F5A1CD2B204EB64
:1024A800C30305204FF40051042A84F8A42F83F8AD
:1024B800A80FC3F8AC1F00F095814FF0FF35ABE7CC
:1024C800D4F88C3F002BE6D1D4F8C83F08469B6867
:1024D80098470546002840F0BB81A4F8CC0F9BE73D
:1024E8003F4B002203F1120103F8012F8B42FBD16D
:1024F8003C4994F8CE3F94F8A40F70250D7098428B
:102508004FF00C05CD7110D004EBC300013390F8E7
:10251800A85F8D70B0F8AC0FDBB2042B40BA88818D
:1025280014BF84F8CE3F84F8CE2F94F8973F122238
:102538009342A4F8CC2F0FD8A4F8CC3F00256BE722
:10254800B5F5805F28BF4FF48055D4F8800F254A31
:10255800ABB201214DF00AFD0025284602B0BDE8C6
:10256800F08194F8943FDA0700F12581D4F8C83F48
:1025780094F8970FDA6901EBC10102EB81010A793E
:10258800531D834228BF0346A4F8CC3F002BE3D059
:10259800013B14489BB201331944034411F8012D3F
:1025A80003F8012D8342F9D1D6E70F480F4E0146B3
:1025B80008230738C1F10705A4F8CC3F002202E040
:1025C80092F8702019460B46814203F8012905EB61
:1025D800030216FA82F2F3D1BEE700BFA82A002050
:1025E800D75E0020D85E0020DF5E0020208205082C
:1025F800D4F8C83FBB4A5B680846111D9847054692
:10260800002840F02581D4F8D43FB74AD4F8D01F29
:10261800013B180E1070180C09BAD37050701B0AC1
:10262800082093705160A4F8CC0FF5E6D4F8E06F59
:10263800D4F8DC2FD4F8D03FD4F8C85FB2FBF3F25B
:102648004FF48057BE4228BF3E462D69A649A4F8DC
:10265800CC7F4046B6FBF3F39BB2A8470028C0F2F4
:10266800AF803346A04AD4F8800F81214DF0BAFBE1
:10267800D4F8DC2FD4F8E00FD4F8EC3F3244851BB3
:102688009E1BC4F8DC2FC4F8E05FC4F8EC6F002D83
:102698007FF462AF032384F8D83FBDE6924F00264B
:1026A8003B4607F10C0203F8016B9A42FBD1D4F8C0
:1026B800C83F40465B686A4601A998470546002816
:1026C80040F0D080019BBDF80020013B190E52BAA2
:1026D800FB713971190C1B0A79710820BB71022131
:1026E8007A810C23BDF80220F87039727A72A4F846
:1026F800CC3F91E67D487E4E014608230738C1F15C
:102708000705A4F8CC3F002202E092F87820194689
:102718000B46884203F8012905EB030216FA82F2F8
:10272800F3D119E794F8D83F002B61D194F9903F81
:10273800002BFFF6B0AED4F8C83F08469B68984710
:10274800002840F08580D4F8C83F4046DB689847A9
:102758000546002840F0AC80B4F89A3FD4F8952F8D
:10276800D4F8D40F5BBA99B212BA53188342C4F89A
:10277800E01FC4F8DC2F00F29180D4F8D03FD4F8E1
:102788008C0F03FB02F203FB01F38342C4F8DC2F36
:10279800C4F8E03F7FF47FAEB3F5805F28BF4FF405
:1027A80080530121D4F8800F4F4A84F8D81F9BB278
:1027B8004DF0DCFB30E607234E49A4F8CC3FE7E6B2
:1027C80094F8A43F5A1CD2B204EBC30304204FF47C
:1027D8008851824284F8A42F83F8A80FC3F8AC1F4D
:1027E8007FF46BAE002384F8A43F4FF0FF3513E667
:1027F800D4F8E06FD4F8C80FD4F8D03FD4F8DC2F61
:102808004569B2FBF3F2B6F5805F28BF4FF48056F6
:102818000846B6FBF3F334499BB2A847002856DBB9
:10282800D4F8DC2FD4F8E05FD4F8EC3F3244AD1B89
:102838009B1BC4F8DC2FC4F8E05FC4F8EC3F002D04
:102848007FF47EAED4F8800F29464DF0E3FBE3E534
:1028580094F8A43F5A1CD2B204EBC30302204FF4ED
:10286800685121E694F8A43F04EBC3020133DBB2BC
:1028780002204FF46851042B82F8A80FC2F8AC1F4D
:1028880020D084F8A43F18E694F8A43F5A1CD2B28A
:1028980004EBC30305204FF4105105E64DF02EFA62
:1028A8000028FFF60AAED4F8DC2FD4F8E01F64E75E
:1028B80094F8A43F5A1CD2B204EBC30302204FF48D
:1028C8001C51F1E584F8A46F4FF0FF35A4E594F8A6
:1028D800A43F5A1CD2B204EBC30304204FF4407146
:1028E80077E700BF783A0020D85E0020DF5E00203E
:1028F8002082050888820508034B6428B8BF642035
:10290800C3F85404704700BF00000020034B64283C
:102918001B68B8BF6420D860704700BF0000001073
:102928002DE9F04790B0DDE9184A0E460746904673
:1029380001A83C22002199461A9D55F0C4FB2E4B54
:102948008DF80460CDF834A00293002E4FD0B31E4A
:10295800012B4ED9042E14BF00220322274B0394C7
:102968001B6F8DF805201C440123CDE905570494FD
:102978008DF83130B8F1000F06D04A46414607A815
:1029880055F0B6F98DF83090DFF874E01EF8C2AC57
:102998000023BAF1010F0E931BD801AC0FCC1EF81F
:1029A800C3CCCCEB0C150EEB8505C03D0FC50FCC89
:1029B8000FC50FCC0FC594E80700BCFA8CFC0AF1D0
:1029C800010A4FEA5C1C85E807000EF8C2AC0EF855
:1029D800C3CC3B6843B14B4642463146384610B0FB
:1029E800BDE8F04728F0B4BA10B0BDE8F08705227A
:1029F800B4E70222B2E700BF9C3A0020A82A0020D0
:102A0800A03B002000F01F0240090123032803FA1D
:102A180002F304D0042807D002280AD07047074AD6
:102A2800116C0B4313647047044A116B0B43136317
:102A38007047024A516C0B43536470470038024098
:102A480070B50B46ADF5815D014614460DF5815014
:102A58001A460023CDE9010304AD6846FD26039319
:102A6800ADF8086000954BF02FF8009B01932046C5
:102A780069460222009528F049F90DF5815D70BD7F
:102A88002DE9F047041E0D4612DB092C26DC824A8C
:102A98000B468248A0FB0410C00800EB8000A4EBA2
:102AA80040000021125C1A7059702846BDE8F08772
:102AB80064422D23092C01F8013B24D8764A774B30
:102AC800A3FB0403DB0803EB8303A4EB430300200D
:102AD800D35C48700B702846BDE8F0876F4B632CB9
:102AE800A3FB04264FEAD60621DC6B4A0B466B494A
:102AF800A1FB0601C90801EB8101A6EB4101515C6C
:102B080003F8011BC5E7654A632CA2FB04364FEAAC
:102B1800D60637D8604A614BA3FB0603DB0803EBF4
:102B28008303A6EB4303D35C01F8013BC7E7A3FB90
:102B38000627B4F57A7F4FEAD7070DD2564A0B46D7
:102B48005649A1FB0701C90801EB8101A7EB410127
:102B5800515C03F8011BCAE7A3FB072842F20F7276
:102B680094424FEAD80836D84B4A0B464B49A1FB4A
:102B78000801C90801EB8101A8EB4101515C03F888
:102B8800011BDDE7A2FB0637B4F57A7F4FEAD707CA
:102B98000CD2414A414BA3FB0703DB0803EB830339
:102BA800A7EB4303D35C01F8013BB4E7A2FB07386A
:102BB80042F20F739C424FEAD80821D8364A374B65
:102BC800A3FB0803DB0803EB8303A8EB4303D35CF5
:102BD80001F8013BDEE7324AA3FB080994424FEAB9
:102BE800D90921D82C4A0B462C49A1FB0901C9084F
:102BF80001EB8101A9EB4101515C03F8011BB5E729
:102C0800274BA2FB08099C424FEAD90921D8224A3E
:102C1800224BA3FB0903DB0803EB8303A9EB430364
:102C2800D35C01F8013BCAE71E4AA3FB090394429F
:102C38004FEAD30A21D80B461849174AA1FB0A01C3
:102C4800C90801EB8101AAEB4101515C03F8011BA2
:102C5800CAE7144BA2FB09029C424FEAD20A13D8D6
:102C68000E4B0D4AA3FB0A03DB0803EB8303AAEB15
:102C78004303D35C01F8013BCAE70A22BAFBF2F02E
:102C88004AF07EFC0346D7E70A22BAFBF2F04AF084
:102C980077FC0146E4E700BFE8FD0508CDCCCCCCC5
:102CA8009F8601003F420F002DE9F04788B0541C71
:102CB80003941478002C00F04081002507468846CC
:102CC8001E46A9460BE0791C02D021463846C0476B
:102CD800039A0135531C03931478002C58D0252CE3
:102CE800F1D1931CCDE9033950782D2800F0C88024
:102CF8004FF0000A302800F0AB80A0F13003DBB2BF
:102D0800092B4FF0000440F2AF806C284ED0782891
:102D180038D8572840D9A0F15803202B32D8DFE8FB
:102D280013F0F4003100310031003100310031007E
:102D38003100310031003100DA0000013100C100FA
:102D48003100310031003100310031003100E30041
:102D58003100310031003100BB0031002100310069
:102D68003100F40056F8040B05A9FDF709FA05AB84
:102D7800CDE90043049B42464FF0FF3138464AF004
:102D88007FFF0544039A531C03931478002CA6D1A3
:102D9800284608B0BDE8F0870028F9D02528F1D1E9
:102DA8007B1C95D025213846C04791E7039B5A1CC8
:102DB8000392197878298DD8572967D9A1F1580332
:102DC800202B87D801A050F823F000BFFB2E000865
:102DD800DD2C0008DD2C0008DD2C0008DD2C0008A7
:102DE800DD2C0008DD2C0008DD2C0008DD2C000897
:102DF800DD2C0008DD2C0008DF2E0008372F000826
:102E0800DD2C0008AD2E0008DD2C0008DD2C0008A4
:102E1800DD2C0008DD2C0008DD2C0008DD2C000866
:102E2800DD2C0008F32E0008DD2C0008DD2C00083E
:102E3800DD2C0008DD2C0008A12E0008DD2C000880
:102E48006D2D0008DD2C0008DD2C0008FB2E000885
:102E5800039B5A1C03921878A0F13003DBB2092BAC
:102E68004FF001043FF651AF04AA03A9FDF7CAF9D0
:102E7800BAF1000F3FF449AF049B5B42049344E767
:102E8800D31C039390784FF0010A33E700293FF4ED
:102E98007FAF252984D01DE756F8042B049BCDE984
:102EA800009268E7073626F00706F6E802014EF0BA
:102EB80095FC00EE100A05A84AF0F8FA05ABCDE932
:102EC80000434246049B4FF0FF3138464AF0D8FE93
:102ED800039A0544FEE67A1C3FF4FAAE56F8041B42
:102EE8003846C9B2C047F3E6039A56F8043B1D605A
:102EF800F0E6A1F15802B2FA82F256F8040B520930
:102F080005AB10214AF098FB31E7A0F15802B2FA5C
:102F180082F256F8040B520905AB10214AF08CFBDB
:102F280025E756F8040B05A94AF042FB1FE756F8B7
:102F3800040B05A94AF03CFB19E7254628E700BF22
:102F480000230360704700BFF0B52A4A2A4C2B4B78
:102F5800C2F8DC3812232A4882F8C038A4F14401A8
:102F6800284B294DC2F8EC1885B002F50C61C2F85F
:102F7800E00842F6F82600274020C1E9026744E944
:102F8800113344E90F3344E90D3344E90B33C2F8F4
:102F9800E45844F8243C29F0DFFA08B314F8193C43
:102FA80014F81A1C90F90400184A002B14BF0823BF
:102FB8000023002918BF43F0010303254FF4E13132
:102FC800CDE9015300910023402129F005FAA060C2
:102FD80018B1237B33B100232375003818BF0120B3
:102FE80005B0F0BD0A4B2361022323730123237527
:102FF800F3E700BFB0190020A03B00207D5B02086A
:10300800B16F0208E003E003E97902087574020869
:10301800015F0208F0B5224B224A234CC3F8DC2892
:10302800112003F50C62214D83F8C00841F60B26E8
:103038000027C2E9026785B04FF478724FF47871BF
:10304800C3F8E05840204FF47873C4E90623C4E974
:103058000823C4E90A23C4E90C23C4E90E23C4E9FC
:103068001023C4E91223C4E91423A16529F074FAD2
:10307800A0B114F8193C0E4A90F904000092002BF4
:1030880018BF08230322CDE901234021094A002360
:1030980029F0A2F9E065003818BF012005B0F0BD9D
:1030A800B0190020AD5F0208A03B0020CD5F0208E8
:1030B800A06806000D7602080348044AA0F1190129
:1030C8001A38FDF729BE00BFA03B0020400D0300C1
:1030D8000348044AA0F119011A38FDF71DBE00BFC4
:1030E800A03B0020A08601000023024A4260036042
:1030F8008360704783F9223E80F00101014844F063
:1031080031B900BF502F00202DE9F04F012085B0C4
:103118001E460C461546FFF7EFFF002E5BD004EB6A
:103128004623CA4FDFF840A302931BE0002D62D06C
:103138007B69AB4200F0D0803B69AB4200F0028172
:10314800D7E90631AB424DD8A94200F2BB81691AD2
:103158002046FDF7ABF8029B04F500749C4205F18C
:10316800010538D03A6AAA42E0D83E6BA5EB0208BE
:103178004FEAD80B336B0BF1020B9B4508F007089D
:1031880002D3B36B9B4508D931465846FDF75EF824
:103198000646002800F0B68138633379002B40F0EA
:1031A8006581D6F82890B9F1000F00F0A481336B3F
:1031B800F268ABEB030B08EBCB0B3346204602EB74
:1031C8004B224FF40071C847029B04F500749C42DF
:1031D80005F10105C6D10020FFF78EFF002005B0DC
:1031E800BDE8F08FA942B2D94FF400720021204601
:1031F80054F069FFAFE74FF400722946204654F0B7
:1032080062FF80220C2384F8C23184F8BE213A6917
:103218008F4BB96884F8B8519A4284F8B95184F848
:10322800BA5184F8BB5184F8BC5184F8BD51C4F834
:10323800C621C4F8CA1100F34A81864B83FB0203F6
:10324800D6171344C6EB63138AFB02EC8248C6EB1D
:103258002C36C3EB831E80FB030CA2EB0E02B010CE
:1032680020F03F00013202439C44D817C0EBEC1C0D
:10327800634484F8C021764A84F8BF314B1E9342D8
:1032880084F8C16100F32F81724A734E82FB0312E6
:10329800D8171A44C0EB62128AFB03C1C0EB213075
:1032A800C2EB82115B1A811086FB02C621F03F0136
:1032B800013316440B43D117C1EBE616324484F8A8
:1032C800C50184F8C43184F8C3215522AA2384F89F
:1032D800FE2184F8FF313EE7522261204123002677
:1032E80022706270A070722284F8E70184F8E631D7
:1032F800B86AE3704FF0FF3384F8E42184F8E521DD
:10330800C4F8E80184F8EC3184F8ED3184F8EE3142
:1033180084F8EF314FF4F0723146201D54F0D3FE9B
:1033280055226FF05503C4F8F061C4F8F461C4F88D
:10333800F86184F8FC6184F8FD6184F8FE2184F862
:10334800FF3108E74FF400720021204654F0BBFE1D
:10335800424B434A03CBEB23C4F8030023700220FB
:103368004FF0580C90264FF0080EF823A6702074E2
:10337800C4F8071084F801C084F80DE06375396952
:10338800BB68D7F81CC02073591A21624FF0FF316F
:1033980000233F26A1763E21A073E372E373637492
:1033A800A374E3742375A375E3756376E376637793
:1033B800A377E37726762177D7F8188084F82C004E
:1033C80003CA284EC4F84700C4F84B1003CEACEB30
:1033D800080C9678C4F824C084F82830B2F800C0E5
:1033E80084F8293084F82A3084F82B3084F82D307A
:1033F80084F82E3084F82F3084F8313084F8323055
:1034080084F8333001228023A4F84FC084F8516037
:10341800C4F85200C4F8561084F8302084F84030BC
:103428004FF0290C94260E200D215522AA2384F84A
:1034380046E084F842C084F8436084F8440084F885
:10344800451084F8FE2184F8FF3184E6B019002085
:10345800FF03FB00832008828180808010FE05081E
:103468001CFE05082CFE0508975545414FF40072CF
:103478000021204654F027FE336CB8F1000F4AD1E2
:10348800002B00F08D80336B544911222046CDE982
:103498000088FDF76FFD336C1A6C04F12000002AD8
:1034A80000F08E801B6B4E49CDE900881122FDF794
:1034B80061FD766C04F14008002E3FF44CAE4FF4E9
:1034C800E0793CE0E91A2046FCF7F0FE43E6FF23EA
:1034D800444A84F8BF3184F8C13184F8C0314B1EA6
:1034E80093427FF7D1AEFF2384F8C33184F8C53106
:1034F80084F8C431E9E649464FF40072204654F096
:10350800E2FD28E6231F04F5FE72374943F8041F3D
:103518009342FAD11FE6002B0CBF01220222766CDF
:10352800C2EB0818002E3FF416AEB8F10108B66CCD
:10353800F8D1002E3FF40FAEA0464FF40079C144F5
:1035480009F1200908F120084FF0000B03940CE062
:103558005EF81C1B336BCDE900EBFDF70BFDB66C79
:1035680008F12008D6B1C84518D03379B64606F117
:103578001C0C1122A8F12000002BE9D172793469C2
:10358800336B3168019442F02102CDF800C0FDF799
:10359800F1FCB66C08F12008002EE4D1039CDAE5B2
:1035A800CDE900884346F96808222046FDF7E2FC89
:1035B800766C04F120084FF4F079002EBFD1CAE5EB
:1035C800CDE90088434606491122FDF7D3FC766C05
:1035D80004F14008002E7FF472AFBCE53C180608E1
:1035E800044B0608FF03FB00DEADBEEF08B5002064
:1035F800FFF782FD002008BD054BD3F8A824B3F8D7
:10360800AC3451690B4214BF53831383704700BF16
:10361800A82A002070B40D4B0D4CA34203D311E02F
:103628000C33A3420ED25A798242F9D1DA798A420E
:10363800F6D11A681E791579AE42F1D115689D4206
:10364800EED100E00022104670BC7047785C060896
:10365800D45D060870B50C4E82B0052400250A20FA
:1036680043F02CF9306E8DF807500DF10702002158
:1036780044F048F918B19DF80730482B02D0013CB6
:10368800EDD1204602B070BDA03B0020642828BFC1
:1036980064201C4B00EB800070B54500A3FB05239C
:1036A8005E095B0918BF002422D001349F201EF058
:1036B80007FDE3B29E42F8D80A2E00D170BD124829
:1036C800A0FB05300009C6EB8613C6EB83036638FA
:1036D8001844C0B21EF0F4FC092E06F10104EDD026
:1036E80001349A20E4B21EF0EBFC0A2CF8D170BD2C
:1036F8000548A0FB053000096638C0B21EF0E0FCA2
:103708000124EDE71F85EB51CDCCCCCC70B5002062
:10371800FFF7F2FC0D4B0E4D01244FF406761846C8
:1037280001211BB1DE801C7243F0BEFB032C08D0C4
:1037380055F82430012101341846002BF2D1032C0E
:10374800F6D1BDE870400020D6E400BF502F00201D
:10375800A0820508F0B4194F97F8A830042B2BD88D
:103768000C2202FB0372B03252F8041C0133CC075E
:10377800DBB20ED501420CD092F90060104C00214A
:1037880094F90050B54204F10C040BD0013105291D
:10379800F6D1052B02F10C02E6D187F8A8300020FB
:1037A800F0BC704701EB410107EB810187F8A830B5
:1037B800D1F8F000F0BC70470020F1E7A03B0020F2
:1037C8008C3C0020D0ED017AF5EE407AF1EE10FA4B
:1037D80005D19FED0B7AF0EE477A80ED017A30EE55
:1037E800A77AD0ED007AC0ED020AC0EE876A30EE03
:1037F800670AE6EE807AB0EE670AC0ED007A704795
:1038080083F9223EBCEEC00A7F4AB2FBF1F210EE09
:10381800103A9BB2934208D300234FF07E52436084
:103828008360C36003610260704707EE901A9FEDE2
:10383800777AF8EE676A07EE903A66EE876AF8EEEE
:10384800677A66EEA76AFDEEE67A17EE903A2033BD
:10385800402B00F2CA80DFED6E7AF4EEE76AF1EEF3
:1038680010FAF0EE667A0CDDDFED6A5A9FED6A6AAF
:10387800B0EE677AB4EEC67AF1EE10FA77EEE57A32
:10388800F6DC9FED667AF4EEC77AF1EE10FA0CD505
:10389800DFED605A9FED626AB0EE677AB4EEC67AE1
:1038A800F1EE10FA77EEA57AF6D49FED5E7AF4EE93
:1038B800C77AF1EE10FA00F390809FED5B7AF4EE90
:1038C800C77AF1EE10FA44BF9FED547A77EE677A23
:1038D80027EEA76ADFED554A9FED557A9FED555AB9
:1038E800DFED555AA6EE247A67EE864AA6EE075A09
:1038F800B6EE007AE6EE055AE4EEA57A27EE877A68
:103908009FED486A76EE867AFDEEE75A15EE903A14
:103918002033402B66D8F4EEC66AF1EE10FA0CDDBF
:10392800DFED3C5A9FED3C6AF0EE676AF4EEC66A3A
:10393800F1EE10FA77EEE57AF6DCDFED386AF4EEB0
:10394800E67AF1EE10FA0CD5DFED325A9FED346AC3
:10395800F0EE676AF4EEC66AF1EE10FA77EEA57A31
:10396800F6D4DFED306AF4EEE67AF1EE10FA3FDDD8
:10397800DFED276A76EEE77A67EEA76ADFED2B4A76
:103988009FED2B5ADFED2B5A9FED2B6AA6EEA45A1A
:1039980067EEA64AE6EE855AB8EE005AA6EEA56A84
:1039A800E4EE867A67EE857AC7EE206AB7EE006A9B
:1039B80076EE865A76EE666A86EE257A67EE277A7E
:1039C80066EE876AC0ED017AC0ED037A80ED007A71
:1039D80080ED027AC0ED046A70479FED0D7A77EEAC
:1039E800677A75E7DFED157ADEE79FED147A87E7EA
:1039F800DFED0D6AF4EEE67AF1EE10FA44BFDFED82
:103A0800076A76EEE77AB7E720A1070027D4D2360F
:103A1800DB0F4940DB0FC940E4CB1641DB0F49C03F
:103A2800E4CB16C1DB0FC93FDB0FC9BF9A7C2E362A
:103A3800FAAF4FB93587083CA4AA2ABE0000000097
:103A480070B4344890F82831A3F13001092957D8C7
:103A580000F59474224600F2371012F8015FA5F1C0
:103A68003001092904D88242F7D1002070BC704780
:103A7800141B022C4ADD2848002101E010F8013B04
:103A880001EB810103EB4103161A303B022E044679
:103A980003F0FF01F2DC214B03FB01F1A2424FF0DE
:103AA80000030DD903EB830314F8016B5B00303B73
:103AB8003344A24203F0FF03F4D1194800FB03F397
:103AC8002E2D06D01748A0FB032301EB930070BCF2
:103AD8007047013204200024157804EB8404303D3B
:103AE8006400092D00F1FF30A4B202D82C44A4B21E
:103AF800013210F0FF00EFD1642202FB0433E1E74A
:103B080000211D4600F594720B46D9E7064C0021AA
:103B1800C4E700BFA03B0020C93C00208096980065
:103B280040420F00ABAAAAAAC83C0020064B93F853
:103B3800491103F2144203F57F73002918BF134695
:103B480093ED050A704700BFA03B0020064B93F891
:103B5800491103F2144203F57F73002918BF134675
:103B680093ED020A704700BFA03B00209B1A00FBA0
:103B780003F090FBF1F01044704700BF094BD3F8F5
:103B8800AC0AD3F8B02AD3F8B43A824202DB114621
:103B980002460846984204DD9A42B8BF1A461046C3
:103BA80070477047A03B002030B4144AD2F8B80AD6
:103BB800D2F8BC3AD2F8C04AD2F8C41AD2F8C82A05
:103BC800834202DB1D46034628468A4202DB15462D
:103BD8000A4629468842A8BF08469342B8BF1346FA
:103BE800A04202DC224604461046834203DAA3427E
:103BF800B8BF2346184630BC704700BFA03B002022
:103C08000B6810B414681B1B036054684B681B1BBB
:103C180043608B6892685DF8044B9B1A8360704719
:103C28002DE9F041804684B00846164649F08AFEE0
:103C38004FF47A72002304460D464DF04DFFB6F955
:103C480000C00746294620464FF47A723C240023D8
:103C58000CFB04774DF040FF002594B24FF47A73C3
:103C6800C3FB07452B46224601A849F0B5FD404B4A
:103C780093F8CE3A012B2FD0022B10D19DF8067065
:103C8800FB1E082B0BD83B1F062B1BD9BDF80400C5
:103C9800394649F037FD032F36D00B2F41D0224645
:103CA8002B46404649F098FD04B0BDE8F081032F4B
:103CB80055D00A2FF3D19DF80870B7FA87F77F0916
:103CC800002FECD033882B4A3C33A4184FF0000265
:103CD800338042EB0505E2E79DF80670FB1E072BD3
:103CE800DDD83B1F052BEDD9BDF80400394649F056
:103CF80009FD9DF807309842D9D0033F18BF012726
:103D0800002FDFD1CBE707380E28FCDC9DF8073001
:103D1800834212D0CCBF01270027002FD2D1BEE7A3
:103D280007380728FCDC9DF8073083420ED0B4BF63
:103D380001270027002FC5D1B1E79DF80870012F92
:103D480094BF00270127002FBCD1A8E79DF8087071
:103D5800012F8CBF00270127002FB3D19FE79DF8C3
:103D68000870003F18BF0127002FABD197E700BFAD
:103D7800A03B002080EE360030B50468E46985B0C9
:103D88002CB10DF10F050095A04705B030BD2046B8
:103D980005B030BD38B50A4C0A4D2321D5F8D00AF4
:103DA80044F040FC14F8011F0029F7D1064847F0F9
:103DB80061FA95F8D43A13B1012385F8D53A38BD9C
:103DC80038FE0508A03B002044FE05082DE9F04F09
:103DD80089B0CDE90621DFF8B0800746994600266C
:103DE800069B002B07DBB34205D00136042EF7D122
:103DF80009B0BDE8F08FD82303FB06FB079B03EB54
:103E08000B0A204B00249B44B9F1000F334642466D
:103E1800384601DBA14530D13BF814503AF814106C
:103E2800009415F4006FA1EB050114BF4FF0560E76
:103E38004FF0480E05F01F0CB1FA81F1C5F3441597
:103E48004909CDE901C5CDF80CE0059145F062FDC1
:103E58003AF814300599009413F4006F03F01F0228
:103E680014BF56204820C3F34413CDE9012303901F
:103E780033464246384645F069FD01346C2CC3D1BF
:103E8800B3E700BF7846002054FE05082DE9F04F3F
:103E98003B4C3C4B94F8785A3B4ADFF8F48089460F
:103EA800002D08BF1A4694F9791A8BB0074637488F
:103EB80045F010F904F59B644D460026B9F1000F52
:103EC8003ED022782B789A426A683BD0D5E902CE58
:103ED8000021A87D0790B5F914000690B5F91200E5
:103EE8000590B5F910000093CDE903E0CDE9012C68
:103EF800334642463846099145F00CFD0999A37DA1
:103F08006268B4F914B0B4F912A0B4F910E0D4E9B5
:103F1800020C079314F8183B0093CDE901203346AF
:103F2800CDE905ABCDE903CE42460136384645F02A
:103F38000DFD3C2E05F11805C0D10BB0BDE8F08F82
:103F48004946DCE76168D5F808C0914202D0D5F847
:103F58000CE0BDE7A168D5F80CE06145B8D1E1688F
:103F68007145B5D1206929698842B1D1606969690B
:103F780020F07F4021F07F418842A9D10121A8E7A4
:103F8800A03B002070FE0508EC02060874FE050838
:103F980084FE050870B51F4E96F864342DED028B2B
:103FA80004460D467BB3D6F87014D6F87424D6F8B8
:103FB8006C340360C0E9011206F58D6393ED008A45
:103FC800DFED158A95ED000A80EE280A50F072FBA5
:103FD80023681844206028EE288A95ED010A80EEAF
:103FE800080A50F067FB63681844606095ED020AA0
:103FF80050F060FBBDEC028BA3680246134496F8B0
:104008006404A36070BDC0E900338360B7EE008A22
:10401800D6E700BFA03B00202C7D8E3FF0B4244B98
:1040280093F8645482B03DB9002303604360836011
:10403800284602B0F0BC70474C68D3F86C74019401
:104048000C68D3F870649FED1B6AE71B019CA41BE6
:1040580007EE904A03F58D64D4ED006A07EE107AF6
:1040680066EE866AB8EEC77AF8EEE77A27EE067A41
:1040780067EEA67A012A80ED007AC0ED017A0DD0AC
:104088008A68D3F87434D21A07EE902AF8EEE77AE1
:10409800C0ED027A284602B0F0BC7047D1ED027A32
:1040A800F8EEE77AC0ED027A284602B0F0BC704715
:1040B800A03B00202C7D8E3F1D4A2DE970035468DB
:1040C8001C4E002CD6F8483403600EDD083200235D
:1040D80006F5896501E09C4207D052F8041BA94205
:1040E80003F10103F7D1012200E00022D6F854348D
:1040F80083600271104A96F8583443711346F3E806
:104108000289D3E90045D6F8783452F8042CD6F859
:10411800701481625B0943EAC2635209C0E90489E9
:10412800C0E90645C0E90832BDE87003704700BF22
:10413800000000100000002080040020014BD3F88C
:10414800C800704700000020014BD3F858017047A1
:1041580000000020014BD3F8100170470000002038
:104168000C4608B5054627F059FF204627F056FFAC
:104178000020FEF7C1FF284642F080FCB0B9204677
:1041880042F07CFC0028F6D00120FEF7B5FF20465F
:1041980042F06CFC0146284642F096FC0020FEF7EF
:1041A800ABFF284642F06AFC0028E8D00120FEF761
:1041B800A3FF284642F05AFC0146204642F084FC00
:1041C8000020FEF799FFDAE7F0B500230B604B609B
:1041D8008B60CB600B610268DFF88CC089B004ADDE
:1041E800C2F385572E4647FA03F0C007344604D574
:1041F80013F80C0004F8010B26460133062BF2D104
:104208001748C2F303240444002394F894403370FD
:104218008DF8184000F19C0CC2F305370DF1190612
:1042280047FA03F0C007344604D513F80C0004F825
:10423800010B26460133062BF2D100233370C2F35B
:10424800834406ABCDE90134084602F00F03054963
:104258000095C2F3031249F063FC09B0F0BD00BF3A
:1042680020820508A4FE0508AC82050810B4414A5E
:1042780092F88D30506F023BD2E91B14062B74D88C
:10428800DFE803F05A5C6050065504006442494276
:10429800404280EAE073A3EBE07306EE903A84EACA
:1042A800E473A3EBE47307EE103AF8EEE66A9FEDC9
:1042B800326AB8EEC77A26EE866A81EAE173A3EB22
:1042C800E17307EE903AB4EEC76AF1EE10FAF8EE31
:1042D800E77A04DDB4EEE76AF1EE10FA34DC9FED1C
:1042E800266A27EE066AB4EEE76AF1EE10FA04DDF4
:1042F800F4EEC66AF1EE10FA2DD49FED1F6A67EE50
:10430800867AB4EEE77AF1EE10FA2BD5F4EEE76A86
:10431800F1EE10FA26D50029CCBF042005205DF85F
:10432800044B70474B42404221461C46B1E763426A
:1043380040420C461946ACE74942AAE74B42614263
:104348001C46A6E76442A4E70028CCBF0020012051
:104358005DF8044B7047002CCCBF022003205DF8A9
:10436800044B70474FF0FF30D9E723460C461946F7
:104378008FE700BF00000010ABAA2A3F70B5284C99
:10438800DFED286A14F80C3C94F8802ED4F8A45E6B
:1043980007EE103A14F80B3C07EE903AB8EEC77ADD
:1043A800F8EEE77A27EE267A67EEA67A04EB42065D
:1043B800BDEEC77A0132FDEEE77A02F00F01B6F8DA
:1043C800843E84F8801E17EE102A17EE901AC31A3E
:1043D8002B448A42C4F8A43E82B0A6F8840E4FEA61
:1043E800131312DC17EE101A17EE902A98B240F247
:1043F800FF35002300954AF081FB2A4600214AF048
:104408009FFBA4F8A80E02B070BD9BB29942D4BF1E
:10441800581A00208242A6BF101A80B20020E6E790
:10442800A03B002014AE23412DE9F04F2DED108B59
:10443800034693B004331193DFEDC1AA1090022311
:104448000F928B460E938946109C4FEADB0504EBCE
:10445800451202EB0511A5EB85034FEAC5084FEAA3
:10446800051E05EB850A009101EBC30308F1040062
:104478000EF104012E46204405EB450521444FEA80
:10448800CA040D9602942C01C6EBC60C0394EC00EA
:104498000D9D04944FEACC0405946C010194119D80
:1044A800009C03EB46174FEACB0A02EBC6064FF017
:1044B800000C55ED011A11ED012AD6ED005AD7ED81
:1044C800004A92ED003AD4ED003A10ED015A93ED0E
:1044D800004A72EE238A34EE248A71EE836A35EE3E
:1044E800257A36EEA86A77EE087A35EE655A76EEC2
:1044F800275A36EE676A45ED015A82ED006A90ED5B
:1045080000AAD6ED012A93ED016AD7ED019A94ED40
:10451800010AD1ED005AD5ED007A92ED019A34EEF8
:10452800644A76EE690A7AEE624A35EEC01A31EECE
:10453800C33A72EE633A34EEA02A77EEC91A74EEE3
:10454800E04A75EE805A75EE440AB0EE410A35EE3F
:10455800045AA2EE2A0ADC44E145A2EE6A1AB0EE39
:10456800434AB0EE432AA0EEAA2AA0EEEA4AB0EEE9
:10457800613AF0EE610AE4EEAA0AA4EEEA3AF0EE35
:10458800634AE5EE6A3AE5EE2A4A7AEE222A36EEE0
:10459800296A77EE897A72EE861A37EE487A32EE11
:1045A800C66A76EEE86AB0EE635A77EEA53A77EE19
:1045B800E57A73EEA18A36EE868A73EEE13A76EEF4
:1045C800C66A77EEC71A72EE002A77EE277A74EE7B
:1045D800015A30EEE46A33EE457A32EE402A34EE80
:1045E800414A74EEA04A35EE035AC5ED008AC2ED81
:1045F800013A554401ED018A5244C4ED006AC1ED07
:10460800001AC4ED017A514440ED012A544487ED63
:10461800002AC6ED005A83ED004A80ED006AC7ED16
:10462800014A504486ED017A574483ED015A5644B5
:1046380053443FF63EAF0D9B072B40F2A3810198F0
:10464800109D059B049A0399029C0830281808338A
:104658000A902846C318083282180593034608F1C1
:1046680008080EF10C0E0C33083408310692024685
:10467800454472440419411804934B460995D146A0
:104688000894079103924FF001084FF0000E9A46E4
:104698000E9B9E440F9B03EBCE0303EBCE0202EB73
:1046A800CE0000EBCE0404EBCE0505EBCE060C9352
:1046B80006EBCE07AEEB8E030B9207EB031202EB71
:1046C800CE0C0CEBCE03029203EBCE020193134601
:1046D800D3ED01DA019BD0ED007A93ED01DA029B6C
:1046E800CDED027A93ED01CA0B9BDCED01CAD3ED47
:1046F800007A0C9BCDED017A02EBCE0202EBCE01E3
:10470800009201EBCE02D3ED007A92ED01FA009A05
:10471800D1ED01EA92ED01EAD7ED00BA96ED00BAC3
:1047280095ED00AAD4ED009ACDED007ADDE9037687
:10473800DDE90554DDE90701DDE90923C44601E0A7
:10474800F304353F91ED006A56ED01FAD0ED002AE9
:10475800D4ED005AD5ED006A93ED007A57ED017A51
:1047680092ED002A96ED008A7FEE870A32EE061A4D
:1047780037EEA24A75EEA64A70EE841A31EE245A34
:1047880032EE462A31EE856A75EEE65A06ED016A82
:10479800D4ED018A92ED019A91ED013A95ED016A05
:1047A80097ED000AD0ED016AD3ED013A3FEEC77AE2
:1047B80077EEE27A78EEC6FA79EE432A39EE033AD2
:1047C80030EE669A38EE866A70EE266A78EE638A6C
:1047D80032EEEF0A72EEAF2A78EE233A30EEC44A90
:1047E80032EE258AF0EE490A72EE655AE2EEAA0A1E
:1047F800DC44E245A2EEEA9AB0EE682AF0EE472AD7
:10480800E5EEAA2AA5EEEA7AA0EE2A2A73EE065A5F
:10481800E0EE6A8AF0EE67FA33EEA60AE8EE6A7A04
:1048280071EE644A31EEC55A33EE463A70EE651AB7
:1048380073EEE63A34EE036A72EEA06A34EE434A47
:1048480072EEE00A33EEE43AE8EE2AFA74EEA33A9E
:1048580065EE6D2A77EE094A37EE499A38EEE77A1F
:1048680077EEA88A6DEEA17A9DED018AE9EE857A48
:10487800E9EEA12A26EE6C5A6CEE831A32EE6F1A14
:10488800A8EE035AE8EE061A2EEEA33A24EE6E6A54
:104898009DED008A3FEE822AABEE043AABEE236A26
:1048A8002CEE014A66EECC3AA8EE264AE8EE013A2A
:1048B8006FEE026A20EECF1AEBEEA06AABEE821A18
:1048C80064EECE0A2EEE072A9DED028AEAEE070A6A
:1048D800AAEE242A2DEE287A69EE4D4AA8EE097A26
:1048E800E8EE284A70EE255AC6ED005AC3ED007A64
:1048F800C3ED012A4E4447ED011A87ED005A4B4497
:1049080080ED003A80ED016A4F4482ED004AC2ED25
:10491800013A4844C5ED006A85ED011A4A4481ED23
:10492800002A4D44C1ED010A84ED007AC4ED014A24
:1049380049444C443FF606AF0A9B08330A93099B47
:1049480008330993089B08330893079B0833079398
:10495800069B08330693059B08330593049B08338D
:104968000493039B083303930D9B08F10108434507
:104978007FF48EAE0E9BDDF834B0DB009BB2D146DF
:104988000E9361E513B0BDEC108BBDE8F08F00BF4E
:1049980038B503782DED0A8BD0ED01AA30EE609A78
:1049A800044669EE2AAAF0EE408AF0EE607A0D46D7
:1049B800F0EE419AF0EE61BAB0EE42CA002B5DD13A
:1049C80090ED0B7A01F00103002B50D039EE477AB5
:1049D800F0EE497A87EE290AD4ED090AC4ED0B7A7C
:1049E800F5EEC00AF1EE10FA53DC94ED03AA20EEBE
:1049F8000AAA94ED0ABA94ED050A3AEE8B8A68EE93
:104A0800808A38EE0A8AB0EE4C1A38EE288AF0EE20
:104A18006B0AB0EE480A4AF083F8D4ED027A94EDB6
:104A2800047AC4ED0F8A29EE279AF0EE4B7AE9EE64
:104A3800897A6B0730EE488A84ED0CBA28EE078A2B
:104A4800C4ED0DAAE9EE887A84ED0EAA84ED100A69
:104A580008D5B0EECBBAB0EEE77AB4EECB7AF1EE89
:104A680010FA01D5C4ED0A7ABDEC0A8B38BD37EED1
:104A7800C77AB1EE477A87EE290AADE711F001034C
:104A88004FF000020CBFB0EE607AB0EE497A0270C7
:104A98009AE7B0EE691A04F1180094ED03AA47F0FA
:104AA80073FF2AEE00AAA4E72DE9F0432DED068B4B
:104AB80083B0A04D09EE100A0DF06EF995ED018A4C
:104AC800D0ED047AD0ED038A95ED00AA38EE678A16
:104AD8007AEE688A28EE080A05F10408A8EEA80A02
:104AE800B5EE400AF1EE10FAF1EEC09A58BF04464E
:104AF80000F11781DFED907AF4EEE79AF1EE10FA03
:104B080040F3D4809FED8D7AC7EE297AF0EEE88ADB
:104B1800B0EEC88A28EEA71A28EE278AF1EE410AD5
:104B2800F1EE489ADFED867A864BDFED878AD3F877
:104B3800D090864D8DED011AB8EEC99A19F4006F20
:104B480029EE279A05F6AC6769EE288AD7ED00AA00
:104B5800CDED000A18BF78EEA88A05F56B663AEE27
:104B6800E80A49F0DDFF9DED011ADDED000AF0EEDF
:104B7800401A3AEEA80ACDED011A49F0D1FFD6ED58
:104B880000AAB0EE402AB0EE481AF0EE690A3AEEF2
:104B9800E80A8DED002A49F0C3FFB0EE481AF0EE9E
:104BA800407AF0EE690A38EEAA0AB0EE678A49F050
:104BB800B7FFD4ED030A9DED002ADDED011A0021AF
:104BC800B0EE491AF0EE409A05F50670B0EE4A0AC2
:104BD800FFF7DEFEF0EE408A98ED000A8DED000A40
:104BE8000DF0DAF8F0EE481AD0ED040A9DED000A4F
:104BF800B0EE692A05F517700021B0EE491AFFF7E3
:104C0800C7FE95F8E24E19F4805F04EB84044FEA7E
:104C18004404B0EE408A03D095F8EE3E002B4ED106
:104C28004B4B86ED008A53ED017A93ED007ADFED68
:104C3800490AC7ED008A28EE270A28EE078AA8EE57
:104C4800870A61420091A8EEE78A4AF011F8F0EE6F
:104C5800408A4AF07BF8DFED3F0A9FED3F9A28EE45
:104C6800000A4AF005F8B2EE048A20EE080A68EE57
:104C7800888AC0EE097A00992246FDEEE77A17EE97
:104C8800900A49F05DFFC8EE897AA5F8A00A009954
:104C98002246FDEEE77A17EE900A49F051FFA5F893
:104CA800A20A03B0BDEC068BBDE8F083DFED2B9ABA
:104CB8009FED2B8AF0EE690AB0EE481A32E707EE4C
:104CC800903A9FED287AB5F8C83EDFED271AF8EE3E
:104CD800677A01EE103A87EE879AB5F8F23E00EE51
:104CE800903A05F23C43B8EE411AF8EE600A93EDAB
:104CF800000AB0EE492A49F0F3FEDFED1B0AB0EED8
:104D0800491A49F00DFF95F8F64EF7EE007A30EEA5
:104D1800270A04EB840468EE808A28EE008A64007F
:104D28007EE750F0A5F90DF037F895ED00AA044696
:104D3800E0E600BFEC3F0020CDCCCC3D0000754440
:104D4800BD378635000000100080D444A03B002009
:104D5800D43F00208F2A754435FA8E3CC23D2DC4BD
:104D6800C23D2D440000C8420000000030B41C7849
:104D780084B1012C0CD1B3F902408AB1157B94FBA4
:104D8800F5F40470B3F90430527B93FBF2F30B7023
:104D980030BC70479A780270DB780B7030BC704773
:104DA800054A82FB0452E417C4EB62040470B3F9A9
:104DB80004301222E9E700BFABAAAA2A30B41C7853
:104DC8004CB1012C05D1B3F90220B3F904300260CB
:104DD8000B6030BC70479C7852B1157BDB7815FBB3
:104DE80004F40460527B03FB02F330BC0B60704791
:104DF80004EB4404A400DB7804601222F3E700BF4C
:104E08002DE9F04F2DED028B87B00446324D039308
:104E180010460E46B0EE408A17464CF06BF8D5F8AF
:104E280028BF9DF848A0DBF800308BF80B604FF0E6
:104E3800000820448BF80A00CDF800805846324616
:104E4800D3F814B09DF84C903B462146D8479FEDC7
:104E5800230A039B019328EE000A5346FDEEC07A0D
:104E6800CDF8008017EE901A424604A814F0A2FF6D
:104E7800D5F82C3F13B11B784B452AD0D5F8383FCD
:104E880013B11B784B4524D0D5F8443F13B11B7898
:104E98004B451ED0D5F8503FCBB11B78A3EB090981
:104EA800B9FA89F94FEA591938464CF023F8013410
:104EB8000444E1B2D5F8280FCDF8009004AB32468F
:104EC80042F00CFB07B0BDEC028BBDE8F08F9946B1
:104ED800EAE74FF00109E7E7A03B00200000C842DD
:104EE80030B583B00C46054601920FF003FD019BD7
:104EF8002246294642F0A8FB094A92F95C3F02EB98
:104F0800430101335BB2352BC8BF0023012081F870
:104F1800605F81F8614F82F85C3F03B030BD00BF2D
:104F2800A03B0020F8B5214D1D260C46074685F804
:104F3800CC6F26F0BFFB002026F040FB082026F0AF
:104F48003DFB0E2026F03AFB304626F037FB0420C6
:104F580026F034FB042026F031FB002026F02EFB3F
:104F6800302026F02BFB002026F028FB204626F0D8
:104F780025FB002026F022FB26F07CFB05F57D6052
:104F880026F07EFA00B9F8BD95F8D03F63B995F8D8
:104F9800D13F302B00D03BB995F8D23F23B995F8D3
:104FA800D33F3B700120F8BD0120F8BDA03B002095
:104FB800164991F8282132B3F0B40646002003467A
:104FC800074602E092F82821DAB100EB80002E2A89
:104FD8004FEA400004D10133CA18324482F82871DC
:104FE800CA18A0F1300592F82821A2F13004092C42
:104FF80098BF50190E2B03F1010301EB0302E1D90D
:105008000020F0BC70470020704700BFA03B002084
:1050180010B50A4C04F67C200BF096FFD4F8883AB9
:10502800C01A49F0C7FD0028B8BF404242F21073C9
:105038009842D4BF0020012010BD00BFA03B002033
:1050480070B5164ED6F8E03F1A791E3A012A054681
:1050580005D91846002141F037FDD6F8E03F002D6C
:105068000ADD0F4C254414F8011B184641F02CFDAD
:10507800A542D6F8E03FF6D11846002141F024FDBC
:10508800084B094933F8E82C096F43F8F01C013242
:10509800002143F8EC1C23F8E82C70BDA03B00204D
:1050A800844B0020984C0020A82A002010B51C2012
:1050B80041F066FD1121044641F0F6FE204641F01C
:1050C8001FFFC82041F0FAFB2046BDE8104042F01F
:1050D80043B900BF2DE9F04FB34CD4F898395A6959
:1050E800D2078BB002D50BB0BDE8F08F5A699B6927
:1050F80012EA030AF7D0CAF307431AF4002F009301
:1051080040F00281009B5D0743D41AF0020F5FFA5A
:105118008AF503D0D4F8983902225A61BAF1000FFF
:10512800C0F211821AF4006FCAF3072740F0848195
:105138002E0708D59D4B9E48D3F86C379847D4F86E
:10514800983908225A61ED0600F1E981F80600F164
:10515800A981B90600F12E81009BDA0609D5934B87
:105168009348D3F87C379847D4F898394FF480128D
:105178005A61009B9B06B6D58C4B8D48D3F8803777
:105188009847D4F898394FF400125A610BB0BDE82B
:10519800F08FD4F89C299369D26913401FFA83FBD6
:1051A800BBF1000FB1D0DFF80882CDF80CA045465E
:1051B8004FF0000909E05FEA5B0B09F1010908F10A
:1051C800040805F1280500F0DA811BF0010FF2D080
:1051D800D4F89C195FFA89F708694A6B04EB8703CE
:1051E800FA40D3F8A439D2019B68D2B202431A40DC
:1051F800D007D3B216D54B6BD8F81820012000FA87
:1052080009F023EA00034B63684B6948D3F8643715
:10521800012191603946984794F88F69012E00F072
:10522800FC8101231A0703D5D8F8182008239360B6
:10523800DE0603D5D8F8182010239360580603D546
:10524800D8F8182040239360990703D5D8F8182078
:10525800022393601A06AED5D5E94C60D5F82431FF
:10526800D8F818C0311A8B42DCF8182028BF0B4632
:10527800033392B2B2EB930F9DD9D4F89C293237FD
:1052880004EB8703CDE9019890469946B04238D29D
:10529800BEB3D5F8241194F88F39D5F82821371AD8
:1052A800B94228BF394601F1030E4FEA9E0E83B971
:1052B8008FB20337BF10D9F894A90AD0013352F836
:1052C800040BCAF800009F42F8D1D5E94C60D5F824
:1052D8002821DCF8183008440A44B042C5F82821CF
:1052E800C5F834010AD195F81C11D8F834200127E3
:1052F80007FA01F122EA0102C8F834209BB29E4560
:10530800C4D3DDE9019856E7D4F89C399D69DB6977
:105318001D402D0C3FF4F6AE04F68C16DFF88CB069
:10532800B046B146002708E06D0807F1010706F10D
:10533800040608F128083FF4E5AEEB07F4D5F9B206
:1053480004EB8102D4F89C39D2F8E02992685B69B1
:105358001A40D007D3B218D594F88F09726D01237B
:105368009842936007D11269D8F87C33C2F31202CD
:105378009B1AC8F88C33DBF860374846984794F88E
:105388008F39012B00F0578101239A0702D5726DDE
:10539800022393601B07C7D5DBF868374846984750
:1053A800736D08229A60BFE7A82A00200000002039
:1053B80034340020D4F89C39D4F8A4199A680868C1
:1053C800C2F34102022A08BF03224FF0000514BFAE
:1053D80065F30A0062F30A0008605A6842F48072B2
:1053E8005A6006A84BF07EFCD4F89829D4F89C099A
:1053F800D368BF49079D6FF38D23D3608068C0F3DE
:105408004100014491F8A410032900F0CF80B94964
:10541800B9480126294484F88E6981424FF0400634
:10542800A4F8906900F215810E2161F38D234FF4E1
:105438000051D36051618FE6B04B94F89E2AD3F89F
:105448007437AF4800218DF817108DF8172098474A
:10545800D4F89C19D4F8982994F8963988684FF4A8
:1054680000615161002B3FF463AEC3077FF560AE66
:1054780094F8A13A012B7FF45BAE9DF81730032B0B
:105488007FF456AED4F8983A9E491A6842F0010261
:105498001A601A6842F003021A600B6943F00603A7
:1054A8000B6145E6D4F89C29954853684FF00008ED
:1054B80023F00103414653604BF044FA94F88D6998
:1054C800414656B1904BFF2203EB860653F8045F22
:1054D800D86BAA609E428260F8D1D4F89C3988487B
:1054E8004FF0FF329A614FF00112DA610B2262F33A
:1054F800070162F30708C3F8148019611A686FF38B
:105508000A121A604AF0F2FED4F898297B4B7C48BC
:10551800D3F870374FF480515161984719E6D4F8A1
:1055280098399A6922F010029A611A6AC2F34340C4
:10553800022802F00F0144D0062823D09A6942F0CD
:1055480010029A6102E694F896393BB1D4F8982A89
:10555800136823F0030161F307031360D4F89C294F
:1055680066495368D1F87817654823F001035360FA
:105578008847D4F898394FF000425A61D2E5DDF8EF
:105588000CA0C2E501EB8101D4F85C5A04EBC1011F
:105598002E68D1F8180DC4F8586FC2F30A120244E5
:1055A8002868C4F85C0FC1F8182DC7E700214FF42C
:1055B800007084F88E190921A4F8900961F38D23ED
:1055C80035E747F6F0701042B8D001EB8100C2F31E
:1055D8000A1204EBC00002F1030C5FEAAC0CD0F82D
:1055E8000C5DD4F85CEA4FEA810818BF002006D0A9
:1055F8000130DEF8006045F8046B8445F8D1414479
:1056080004EBC101D1F80C5DD1F8180D1544024422
:10561800C1F80C5DC1F8182D90E7B9F1000F7FF4BF
:1056280000AE94F89D3A042B7FF4FBAD34484AF061
:105638005DFE3346F6E5002F7FF4A6AE94F89D2A6A
:10564800052A7FF4A1AE484601934AF04FFE019B1C
:105658009BE62E48A5F57401A1F51051814203D8A7
:105668000D2161F38D23E2E629492A482944814224
:1056780003D20C2161F38D23D9E62748A5F18C715B
:10568800A1F54341814203D80B2161F38D23CEE676
:10569800224923482944814203D20A2161F38D23F8
:1056A800C5E6204920482944814203D2092161F3F3
:1056B8008D23BCE61D48A5F1B771A1F5585181426B
:1056C80003D2082161F38D23B1E619491948294409
:1056D800814203D2072161F38D23A8E616491748B2
:1056E8002944814234BF0621052161F38D239EE6BA
:1056F80020820508401E1BFF3F420F0000000020CB
:105708003434002000ED00E048340020DFC81000E9
:105718002013FBFE20D61300FF69180000D3CEFE2D
:1057280040771B00C05BB3FEC091210040AC27004E
:10573800C01D6AFE40E13300803C36FEE09C41001B
:10574800704700BF704700BF704700BF704700BF79
:10575800074B13F8DA2C13F8D90C53F8D83C8242CB
:105768008ABFC2F18002801A80181844704700BFAF
:10577800984C0020064B13F8D90C13F8DA3C8342F6
:105788008ABFC3F18003C01AC018C0F17F007047F8
:10579800984C002030B50F4C14F8D43C83B023B992
:1057A800012004F8D43C03B030BD54F8D00C0525D2
:1057B800022301AA6946ADF8045042F065F89DF845
:1057C800013003F0010383F0010004F8D43C03B076
:1057D80030BD00BF984C002070B5074D04462E6FB1
:1057E80000E024B9FFF7D6FF0028FAD070BD2B6F70
:1057F8009B1BA342F6D970BDA82A00202DE9F047CB
:105808002C4C54F8CC6C7588B388AB4284B047D321
:10581800DFF8A4A04FF0D8094FF0000801272FE0C7
:105828008DF809200DF10A024FEA134C190A9370FA
:1058380082F800C0517041F28830FFF7CDFF4FF079
:10584800060C01230DF10702002154F8D00C8DF845
:1058580007C042F019F814F8C83C54F8D00C04F802
:10586800D47C002B14BF0523042302AA002142F094
:105878000BF80020FFF7B0FFB38801359D420FD821
:10588800DAF8903714F8C81CCDF8089003FB05F334
:105898008DF80C801A0E0029C2D10DF10902C3E758
:1058A800002304F8D93C04F8DA3C44F8D83C04B0A6
:1058B800BDE8F087984C002000000020F0B51D4E90
:1058C80089B016F8C87CCDF80CD000254FF0030C31
:1058D80003461446CDF800C08DF804500295A7B1D0
:1058E800CDE906541A0E05208DF801200591049083
:1058F8000DF102021D0C190A9370062015705170E3
:10590800FFF76AFF48B909B0F0BD04220492CDE957
:10591800051707940DF10102ECE756F8D00C03794E
:10592800022B18BF2046EED102A9FBF7C9F9204681
:10593800E9E700BF984C0020F0B5244E8BB016F86C
:10594800C87C00234FF0020E0DF1080CCDE9043C91
:1059580004461546CDF808E08DF80C303FB3CDE984
:10596800081505220793030E8DF8093006920DF1EC
:105978000A03210C220A19705A709C700620FFF73E
:105988002BFF062701230DF1070256F8D00C8DF8DE
:105998000770002141F078FF56F8D00C03790122F6
:1059A800022B06F8D42C0AD060190BB0F0BD0423E2
:1059B8000693CDE9077109920DF10903D9E704A906
:1059C800FBF77EF960190BB0F0BD00BF984C0020C2
:1059D800044983884288D1F890079B1A03FB00008A
:1059E800704700BF00000020F0B5114B85B053F898
:1059F800CC0CFFF7EDFFC50A14D0002704AEEC1954
:105A08006410E00210226946FFF758FF0F2809DDED
:105A18006B4653F8042B013207D19E42F9D1254633
:105A2800BD42ECDCE80205B0F0BD671CF8E700BF3A
:105A3800984C00202DE9F04F87B001EB82080393C2
:105A4800049107460B46002253F8041B43450A44B9
:105A5800FAD1039B0592002B5ED0DDF814A0DFF885
:105A6800FCB04FF00009BAF1000F43D03A4B5BF895
:105A7800D81CB3F88E27B1FBF2F302FB131303EB28
:105A88000A00824238BFD31A5BF8CC0C34BF0193AA
:105A9800CDF804A00291FFF79BFF0299814245D2FD
:105AA800049C019E0025A44654F8043B08461A4667
:105AB8006BB1B34222D27959FFF73EFF54F8042C58
:105AC8007B5913447B510146B61A44F8049C44455B
