:020000040800F2
:100000000000011021C40308BF4D0008A53F0208ED
:10001000DDC40308DDC40308DDC4030800000000DC
:10002000000000000000000000000000BD4D0008BE
:10003000BB4D000800000000B94D0008CF73030855
:10004000DDC40308DDC40308DDC40308DDC4030800
:10005000DDC40308DDC40308DDC40308DDC40308F0
:10006000DDC40308DDC40308DDC40308115700081C
:10007000FD560008E9560008D5560008C15600088C
:10008000AD56000899560008DDC40308DDC4030816
:10009000DDC40308DDC40308DDC40308DDC40308B0
:1000A00051580008295800080158000879580008DC
:1000B000ED570008D9570008C5570008DDC40308EC
:1000C000DDC40308DDC40308DDC40308DDC4030880
:1000D000DDC40308615A0008555A0008495A00084F
:1000E000DDC40308DDC40308BD65000875570008BA
:1000F0004D570008255700089D57000885560008F1
:10010000DDC40308DDC40308B1570008DDC40308DB
:100110003D5A0008315A0008DDC40308DDC4030855
:10012000715600085D56000849560008355600080B
:1001300021560008DDC40308DDC40308DDC403083C
:10014000DDC40308DDC40308DDC40308D347000889
:100150000D560008F9550008E5550008275A000813
:10016000DDC40308DDC40308DDC40308DDC40308DF
:10017000DDC40308DDC40308DDC40308DDC40308CF
:08018000DDC40308DDC403081F
:100188002DE9F04F2DED108BDFEDAF5A8DB0022326
:10019800009003910B9201910293B0EE655A019B76
:1001A800009AD9084FEA411902EB090CCA00182035
:1001B80008926FF017024A4300FB01F428200CEB69
:1001C8000207049400FB01F4079430200C0107EBAC
:1001D8000906B518069400FB01F43820059400FBC5
:1001E80001FB05EB090400982244DB0002EB090837
:1001F80000F1040E4FF0000ADCED007A1EED017AE2
:10020800D7ED003AD5ED004A98ED003AD2ED002A34
:1002180077EE276A37EE677AD6ED007A33EEA76A6B
:1002280073EEE73AD4ED007A34EEA74A74EEE77A33
:1002380072EE834A36EEC48A36EE640A76EE846A33
:1002480036EE246A72EEC32A76EE864A76EEC66ADF
:100258004EED014ACCED006ADEED004A9CED016AE4
:1002680097ED014A95ED013AD8ED011A74EE866AC8
:1002780034EEC66AD6ED014A34EE242A34EE644AD6
:10028800D4ED014A33EE241A73EE644A92ED013A32
:1002980073EE210A33EE613A76EEC11A76EE816A80
:1002A80032EE601A32EE202A76EE820A76EEC26AC2
:1002B800CEED000ACCED016A78EE016A38EE412AEB
:1002C800C5ED006A71EEC06A84ED002AC5ED016AC9
:1002D80070EE216A34EE432AC4ED016A73EEA26A15
:1002E80073EEE21A34EE034AF0EE673AE6EEE53AC8
:1002F8009C441D44E6EEA57A1C449E44F0EE462A32
:10030800F0EE466AB0EE646AB0EE473AA4EE256AAB
:10031800A1EEA57AE2EE652AE2EE256AB0EE642A3D
:10032800A1EEE53AA4EE652A77EE064A37EE467A5C
:10033800C7ED004A88ED007A33EE027A33EE423A8E
:1003480086ED007A36EEE77A77EEA67A82ED003A05
:1003580087ED017AC8ED017A72EEE37A73EEA23A7C
:10036800C6ED017AC2ED013A0198824403985045DE
:100378001F441E441A4498443FF63EAF072940F2F2
:100388006881009A00984A440A92089A024409929D
:10039800079A02440892069A02440792059A024470
:1003A8000692049A024405920BEB000204924FF065
:1003B80001094FF0000A029A92440B9A4FEACA04C4
:1003C8002244D2ED001A224492ED008A2244D2ED52
:1003D800004A224492ED009A2244D2ED003A224487
:1003E8006FF02F00D2ED000A2244D2ED002A00FB64
:1003F8000A2292ED011A00982244D2ED018A224481
:1004080092ED014A2244D2ED019A224492ED013A3A
:10041800224492ED010A224492ED012A4FEAC902D0
:1004280000EB02080A9800EB020E099800EB020C98
:1004380008988718079886180698851805988418C4
:100448000498CB46024401E0F304353FDEED007A20
:10045800DCED006A97ED007A98ED00AA96ED00BAF7
:1004680094ED00EA3AEE276A36EEC7DA3AEE67AA62
:1004780076EE877AD5ED006A3BEE267A3BEE66BAD1
:10048800D2ED006A7EEE26AA36EE47FA77EEEAEA61
:1004980036EE076A77EEAA7A3EEE66EA36EE277AF5
:1004A80076EE67AA88ED007A98ED016ADEED017AAA
:1004B800DCED01CAD6ED016AD4ED01FAD2ED01DA1C
:1004C80036EE277A76EE67BAD7ED017A3CEEA76A60
:1004D8007CEEE7CAD5ED017A36EEA7CA76EEE77A62
:1004E8007FEEAD6A7FEEEDDA77EE4CFA37EE0CCAA6
:1004F80036EE667A36EE266A7FEE076A3FEE477A70
:100508003CEE06FA3CEE46CA88ED01FA29EE8C6A02
:100518003FEEEEFAA9EE2A6A98447EEEAFEA8EED37
:10052800006A2AEEE96A7DEE4EAAA9EE0C6AB0EEE0
:100538004ACA8EED016A28EE8F6AAAEEC5CA9E44A1
:10054800A8EE266A66EEE86A86ED006AE8EE0F6AAB
:100558003CEEED6AC6ED016A60EE2E6AAAEE85AA47
:100568001E44E0EE876A27EE407AC5ED006AA0EEE9
:10057800AE7A7DEE0E6A85ED017A3CEEAD7AF0EE4C
:100588006BCAE6EE05BA1D44E6EE45CAB0EE6B6AE4
:10059800F0EE67BAE7EE45BAE7EE057AF0EE4BAA59
:1005A800A6EE85BA3CEE2B7AE6EEC5AA7AEE276A65
:1005B8007AEE677A3CEE6BAA36EE4BCA3BEE066AD9
:1005C80061EE0CBA3CEEEABAE1EEA6BA66EEC16A92
:1005D800CCED00BAE1EE8C6A7AEEACAACCED016AF9
:1005E80062EE066A9C44E2EEA76AC2ED006A67EE14
:1005F800C26A63EE0B7AE2EE866AE3EE877AC2EDB0
:10060800016A27EE437AC7ED007A64EE2A7AA3EEF0
:100618008B7A1A44E4EE8A7A87ED017AC4ED007A7F
:100628006AEE447A1F44E4EEAA7AC4ED017A01988E
:100638008344039858451C443FF608AF09F1010963
:1006480049457FF4B8AE029BDB009BB2CDE90113AC
:10065800A5E50DB0BDEC108BBDE8F08F09B9104BC6
:10066800D96A0B6B834215D90D4BDB6A994202D2CA
:100678000021084670470A6B904202D38A6B904269
:10068800F7D94C39F2E70B6B984202D38B6B98423F
:10069800EFD94C310B68002BF5D11946E9E700BFBB
:1006A800901D00202DE9F84FCF012AD103461F4A9B
:1006B80043F8082B4FF0FF324260022718467E2588
:1006C8001B4ED6F83090041D013D49466FF0704A24
:1006D8004FF0010B0B6BBB4207F1010802D88B6B83
:1006E800BB4212D23846FFF7B9FF014668B944F851
:1006F80004BC4946474604346B1E25B93163BDE83E
:10070800F88F8025DCE71D46E4E70B794A6B23B1B7
:10071800974208D144F804ACECE79742FAD002D9E2
:1007280044F8043CE6E744F8048CE3E7F8FFFF0FDD
:10073800901D0020F0B59F083F010D461446C619CC
:10074800B04205F1100504F1100408D103F00303C9
:1007580039443A4406EB83039E4223D1F0BD8446D4
:100768009CED006A15ED045AD0ED016A55ED037A47
:1007780090ED027A55ED025A26EE056A66EEA76AF2
:10078800D0ED037A04ED046A15ED016A44ED036ABD
:1007980027EE257A67EE867A103004ED027A44ED6A
:1007A800017ACDE7F6EC017AB1EC017A67EE877A47
:1007B800E2EC017AD0E7012380F849307047044B16
:1007C800986B18B1986B431F58425841704700BF47
:1007D800901D0020064AD2E90F138B42FDD0D11894
:1007E8000133C3F30A03136491F84400704700BF50
:1007F800901D0020044BD3E90F30984288BF03F5C1
:100808000063181A704700BF901D00200120704730
:1008180070477047704730B5104CD4E90F329A4290
:1008280086BF03F50065AA1A9A1A0A44B2F5006F42
:1008380011D801440022814203D102B1E3630020B0
:1008480030BDE21810F8015B82F844500133C3F35D
:100858000A030122EFE70220F2E700BF901D002003
:10086800064AD2F84438D2F84828934294BF4FF445
:1008780000600020013B9B1A18447047901D00201F
:10088800EEE7212838B50C461BD022282BD020288B
:1008980015D1A1B1072A12D1194DD5F84C3813B189
:1008A8000968002098472368C5F85038237985F8E7
:1008B8005438637985F85538A37985F85638002077
:1008C80038BD0029FBD0072AF9D10D4BD3F85028A1
:1008D8000A6093F854280A7193F855284A7193F8D6
:1008E80056388B71EBE70029E9D0022AE7D1044B8F
:1008F800D3F85838002BE2D0098800209847DEE763
:10090800901D0020014B002098637047901D002027
:10091800044B002005229A63C3F85808C3F84C0812
:10092800704700BF901D00207047704770477047A0
:1009380070477047704704230B800148704700BF19
:100948000000002012230B8000487047040000209C
:1009580030B414461A69A24209D30D19AA429B69F8
:1009680038BF111B0A46E11830BC3CF0B9B830BC9E
:100978007047002070470120704701207047002011
:100988007047002070474FF400731360024B9B6858
:100998000B600020704700BF901D00200023F0B5B9
:1009A8004E1C1F46050FECB2092D94BF3034373466
:1009B80001F8134006F813700133DCB2A2424FEA83
:1009C8000010EFD8F0BD1A2310B50B80094B18683A
:1009D80004331B68C0180AD0074B08491C68082252
:1009E800FFF7DCFF042206492046FFF7D7FF05483A
:1009F80010BD00BFE8F7FF1FEAF7FF1F180000202F
:100A0800280000201600002004230B8000487047AF
:100A18003000002012230B8000487047340000206B
:100A28002DE9F74F704D9146D5F85C48B5F8602828
:100A3800C2EB24135200C2EBE402B5F962485B43EF
:100A48006243B5F964481B135C43A41304EBE22426
:100A5800B4F5FA3E8846AEFB0E12CDE900124FEA15
:100A6800E47343F1FF3C019AC5F878480EFB0CF398
:100A780002EB4303B5F96828019302FB0CF1D31785
:100A88000EFB0311A2FB0E230B44190341EA12517A
:100A98001003019EB5F96A2802FB06FA009ED317D7
:100AA80006FB03AAA2FB062353444FEA122A4AEA8A
:100AB800036AB5F866284FEA232B1AEB00004BEBC4
:100AC800010B00304BF5004BA0FB020102FB0B11A0
:100AD8004A10CB1752EA030100F08480B5F9700878
:100AE800019E00FB06F7009EC11706FB0177A0FBDD
:100AF8000601B5F96E68394406FB0CFCF7170EFBC6
:100B080007CCA6FB0E6767444FEA474E4FEA464CB0
:100B18001CEB000C4EEAD63E4EEB010ED5F87C18C5
:100B2800B5F96C68C1F58011CF174FEAC77A4AEA60
:100B3800510AC807002111EB0C014FEAC60747EB21
:100B48000E0E40F63546401A6AEB0E0AA0FB060167
:100B580006FB0A113BF07AFAB5F976284E13470BD3
:100B680047EAC14702FB06FCD31707FB03CCA2FBED
:100B780007236344564307FB0366A2FB072333445A
:100B8800560E46EAC316B5F9742836184FEA636755
:100B980041EB0707D317514300FB0311A2FB0023C6
:100BA8000B44D10C41EA4331D814761840EB0707BF
:100BB800B5F97208320A42EA076203011344B8F130
:100BC800000F02D01B0AC8F80030B9F1000F05D099
:100BD80004EB840480342412C9F80040012003B0D7
:100BE800BDE8F08F0023EAE7901D00200120704740
:100BF800012070474FF4006383817047036941689F
:100C08001F2B4FF0200230B585BFA3F120054C689B
:100C18000C68AA4098BF9A40224214BF01220022C1
:100C2800EAB1826900201074D0688468206820F0D6
:100C380001002060546820686579094C828934F87D
:100C480015401F2B22EA0402828188BF203B4FF007
:100C580020028BBF9A4002FA03F3CA608B6030BD52
:100C680090F9030810B543681A685879074B03448C
:100C780001241B7A108C9C4020EA04001084108CFC
:100C88009940014389B2118410BD00BF90F903084F
:100C9800436B99891A88890610B592B2044606D51D
:100CA800900604D5E26A1AB39888216B9047636B63
:100CB80099891A88090692B20FD510060DD5D4E97C
:100CC80009128A4222D0A1692069895C998001327F
:100CD800B2FBF0F100FB1122A262998A1A88C905B9
:100CE80092B204D5D20744BF4FF6F7721A8010BDEE
:100CF8009B88E2696169DBB28B54E369E16801337F
:100D0800B3FBF1F201FB1233E361D0E7DA6822F0BA
:100D18008002DA60E1E7D0E90920131A5842584105
:100D280070474171704743799B070AD5436A8269C6
:100D3800D154436A01690133B3FBF1F201FB123369
:100D480043627047437913F002031FBF0369D0E978
:100D5800092003F1FF33101A1DBF1840C0B2181A3A
:100D680018467047437913F001031FBFD0E90732D3
:100D7800C0689B1A00F1FF3014BF1840184670472E
:100D880010B5437913F0010301460ED0FFF7EAFFCF
:100D980050B10B6A4A69CC68D05C0133B3FBF4F2FA
:100DA80004FB1233C0B20B6210BD1846FCE790F882
:100DB8005F3230B53BB990F85D1290F85E3201248D
:100DC800DAB2914200D830BDB0F8665204FA03F2A4
:100DD8002A43A0F866220133F2E790F8342003464C
:100DE80002F0FF0012B1002283F8342070470C4B48
:100DF80093F880287AB1D3F88C1888420DD3D3F8A9
:100E08009018884209D8D3F88818C3F8A80841F080
:100E18000101C3F88818104670470022FBE700BF9D
:100E2800901D002008B50846FFF7E1FF18B1024BF6
:100E3800012283F89C2808BD901D002028B1044B8E
:100E4800D3F8E40808B193F8800800F0010070476F
:100E5800901D002008B5FFF7F1FF18B1024BD3F839
:100E6800A8380B8008BD00BF901D002008B5FFF70B
:100E7800E5FF08B100230B7008BD08B5FFF7DEFFDA
:100E880018B1024BD3F8B0380B7008BD901D002084
:100E980010B5FFF7D3FF48B1064B93F89C4834B917
:100EA80093F8A0480C70D3F8A438137010BD002430
:100EB800F8E700BF901D00200520704730B1044BB3
:100EC80093F9E8080028D4BF00200120704700BF2C
:100ED800901D002008B5FFF7F1FF18B1024BB3F8D9
:100EE800F0380B8008BD00BF901D002008B5FFF743
:100EF800E5FF18B1024B93F8F6380B7008BD00BF38
:100F0800901D002008B5FFF7D9FF80B10B4BB3F84F
:100F1800F23863B1192B0BD9642B0BD9C82B0BD919
:100F2800B3F5C87F94BF0323042301330B7008BDB6
:100F38000023FAE70123F8E70223F6E7901D0020D3
:100F480010B5FFF7BBFF48B1064B93F8EA4834B930
:100F580093F8EB480C7093F8EC38137010BD00242C
:100F6800F8E700BF901D00200420704728B1034B0C
:100F780093F94600003018BF012070470000002098
:100F880008B5FFF7F3FF50B1054B93F94620022A45
:100F980003BF93F84930C3F340030B70002008BD2A
:100FA8000000002008B5FFF7E1FF80B10C4A92F974
:100FB800483092F94620012A0ED1272B08DC182B3D
:100FC80008DC0F2BD4BF0023012301330B7008BDAD
:100FD8000323FAE70223F8E70133DBB2F6E700BFA1
:100FE8000000002010B5FFF7C1FFC0B10D4C94F808
:100FF8004930DB0714D494F94730002BB8BF0733C6
:10100800DB100133DBB20B7094F94730594201F021
:10101800070103F0070358BF4B420133137010BD9B
:101028000023F0E7000000200320704770B50B4A4A
:1010380092F8F83806255E1CB6FBF5F405FB146437
:1010480092F8F958AC421FBF02EBC30382F8F84884
:10105800C3F8FC08C3F8001970BD00BF901D00203C
:1010680010B500221346914201DC184610BD845C7D
:101078006340082413F0800F4FEA430318BF83F03E
:10108800D503013CDBB2F5D10132ECE7F0B5114CE8
:10109800114B2468B3F82C7993F82E19B3F83069FA
:1010A800B3F8325993F8342914F0040F0AD193F89D
:1010B8003C393BB9012A0BD0022A03D114F0080F9E
:1010C80008BF0121078081708680C5800272F0BD4B
:1010D8001146F7E700000010901D002007B53223E5
:1010E8008DF800300368CDF801308388ADF80530FD
:1010F800034B6846D3F86C39984703B05DF804FB96
:10110800901D0020074B586810F0800009D09A689D
:10111800920705D4186880F00800C0F3C000704733
:10112800012070470000001007B510238DF800302B
:10113800054BADF80100CDF80310D3F86C396846BB
:10114800984703B05DF804FB901D00200C4AD2F8C4
:10115800843910B5198100219981D2F87C19596018
:1011680019684C1C1C600870D2F88439D2F87C29A4
:101178004FF6F67199811968C3E9002110BD00BFC7
:10118800901D0020124A90F90C3070B50C461421BD
:1011980001FB032305461E6D83689A0703D4006983
:1011A80036F000FA00BFD4E901232168304636F052
:1011B80065FBD4E90423E168304636F05FFBAB6891
:1011C8009B0703D400BF286936F0F1F9012070BDF0
:1011D80000000020104B70B51E4693F88829002A9D
:1011E800FBD104464518AC4201D1002070BDD6F8A9
:1011F800483814F8011BF2180133C3F30A0382F8C4
:101208008919C6F84838FFF72BFB0028EBD10120D5
:1012180036F0CDF8F7E700BF901D002038B50D4631
:10122800FFF7CDFA50B1064C002AD4F8943005DD0A
:1012380011462846FFF7CEFFD4F8943038BD00BFDA
:10124800882E002010B590F84810002380F8483008
:1012580069B10A4CA26B62B1A26B052A0BD1084C8A
:101268003430D4F89430FFF7B5FFD4F89430012027
:1012780010BD1046FCE71846FAE700BF901D002095
:10128800882E0020002280F84920DBE790F84820CB
:10129800531C0244DBB280F8483082F8341090F8CE
:1012A80049200AB1132B00D9CCE7704707B58DF850
:1012B8000700064801230DF107020021D0F8980025
:1012C80036F074FB03B05DF804FB00BF882E0020E5
:1012D800F8B5134C0746D4F89C0003791E3B012B44
:1012E80002D9002136F0EAF80E4E0025BD42D4F8A6
:1012F8009C000FDB002136F0E1F8D4F89430C4F8F4
:10130800C0300023C4F8C430B4F8C8300133A4F89E
:10131800C830F8BD16F8011B36F0D0F80135E5E7FE
:10132800882E0020282F002038B5154C94F8F9385D
:1013380094F8F8289A421CD004EBC303114AD3F856
:10134800FC18D3F800090023984213DC8B780E4A66
:101358005B0882F8DC30C2F8D800FFF7B9FF94F8D0
:10136800F93806210133B3FBF1F201FB123384F89B
:10137800F93838BDCD5C02F8015B0133E4E700BF02
:10138800901D0020282F0020882E00202DE9F843EA
:10139800089D0E46174600212022044698463BF039
:1013A80097FD5DB12B68E381C3F30F426B6822821E
:1013B800E382C3F30F426B892283638230463AF09B
:1013C80053F8FB0604D400F1FF39B9F1FF3F40D1CF
:1013D800082802464FF0FF39A8BF082200254FF021
:1013E800203363602360C4F80730314620463BF061
:1013F80077FB04F1080309F101012A461846314434
:101408003BF06EFB621E0346E01D12F8011FA1F1BE
:101418006105192D9CBF203911709042F5D11846ED
:1014280004F10B0210F8013BA3F1610119299CBFDB
:10143800203B00F8013C9042F4D118232373C8F3F1
:101448000F43A382099BE772A4F81A80E361BDE801
:10145800F88316F809302E2B02D009F1FF39B4E7CA
:101468004A46A0EB0905082A05F1FF35A8BF08225E
:10147800032DA8BF0325B2E72DE9F04FB74F85B07C
:1014880016460D1D03EB02094E45A5F1040403D1D0
:10149800002005B0BDE8F08F3A6AB24200F2B3808E
:1014A800D7F830A0A6EB02084FEAD803DAF83020C4
:1014B8000233934208F0070803D3DAF8382093423E
:1014C80015D9514618460393FFF7C8F8039B82467F
:1014D80060B9A5F1080305F5FC72A14943F8041F9A
:1014E8009342FAD1013605F50075CDE738639AF8CD
:1014F8000420002A6CD04FF40072002120463BF0F3
:10150800E7FCDAF84030B8F1000F46D105F11C0BC2
:10151800CDE900883BBB434620460822F968FFF71F
:1015280035FF5C464FF4F073DAF8448004EB030AA5
:10153800B8F1000FD6D05445D4D098F80420D8F884
:101548000010D8F8303004F1200B08F11C00B2B3B9
:101558000022CDE9000211222046FFF717FF5C4662
:10156800D8F84880E4E7DAF830307E49112220467E
:10157800FFF70CFFDAF840301A6C05F13C04CDE9AE
:10158800008842B94346112277495846FFF7FEFEC4
:101598004FF4E073C8E71B6BF5E7002B0CBF012283
:1015A8000222C2EB0812DAF84480B8F1000F03D027
:1015B800013AD8F84880F8D14FF40073B6E798F8A4
:1015C80005C0D8F81020CDE900024CF02102C3E78D
:1015D800DAF828B0BBF1000F06D14FF400720021F1
:1015E80020463BF075FC7DE7DAF830209B1ADAF8E4
:1015F8000C2008EBC30802EB482253464FF4007155
:101608002046D8476EE7002E6ED14FF4007231465F
:1016180020463BF05DFC802384F8B86184F8B9610A
:1016280084F8BA6184F8BB6184F8BC6184F8BD6150
:1016380085F8BA310C2385F8BE313A694B49BB6845
:10164800C4F8C6218A42C4F8CA3118DDFF2285F8D9
:10165800BB2185F8BD2185F8BC21444A013B934252
:1016680028DDFF2385F8BF3185F8C13185F8C03101
:10167800552385F8FA31AA2385F8FB3132E73F2153
:1016880092FBF1F1C1EB811C43F6C16492FBF4F4C7
:10169800A2EB0C02A01020F03F000132024385F8B3
:1016A800BC21FF2291FBF2F2114485F8BD4185F877
:1016B800BB11D2E73F2293FBF2F2C2EB821443F64E
:1016C800C16093FBF0F01B1B811021F03F01013337
:1016D8000B4385F8C031FF2392FBF3F31A4485F8D6
:1016E800C10185F8BF21C3E77B699E4240D15223DF
:1016F800237063706123A37084F8E731BB6AC4F870
:10170800E8314FF000084FF0FF3341227221E270B8
:1017180084F8E41184F8E51184F8E62184F8EC31C2
:1017280084F8ED3184F8EE3184F8EF314FF4F0723B
:10173800414628463BF0CCFB5523C5F8EC81C5F85B
:10174800F081C5F8F48184F8FE316FF0550384F810
:10175800FC8184F8FD8184F8FF31C3E6901D0020E8
:10176800DEADBEEFB37F0408B27F0408FF03FB00C1
:101778003B699E4278D14FF40072002120463BF02D
:10178800A7FBEB2305F8043C3F4A582305F8033C24
:10179800902305F8023C136845F8013C5368C5F8E6
:1017A8000330022200234FF0080CF821E372227361
:1017B80085F809C0A273E3732A736374A374E3748E
:1017C800237569743F2121764FF0FF31A1763E21C0
:1017D80021773869B968A375091AE3756376E376E2
:1017E8006377A377E3772162D7E90601091A616273
:1017F80084F8283084F8293085F8263085F8273091
:1018080084F82C2084F82D3084F82E3084F82F307A
:1018180084F8313084F8323084F833300122802360
:1018280084F8302085F83C30292385F83E3094230D
:10183800164985F83F300E2385F840300D2385F88A
:1018480041300B68124AC5F843304B68C5F8473039
:101858008B68C5F84B301368C5F84E30536885F867
:1018680042C0C5F8523003E7D7E906138E4206D3C3
:101878009E4207D2711A2046FEF714FF32E69E42B6
:10188800FFF4ABAEF11AF6E7B0730408B9730408B5
:10189800C673040810B5044C04480A46214637F0BC
:1018A800EFFD204610BD00BF652F0020CF73040850
:1018B80010B5044C04480A46214637F0E1FD20469D
:1018C80010BD00BF652F0020DD73040810B5044C5F
:1018D80004480A46214637F0D3FD204610BD00BF14
:1018E800652F0020E873040810B5044C04480A4624
:1018F800214637F0C5FD204610BD00BF652F0020EA
:10190800F273040810B5044C04480A46214637F01F
:10191800B7FD204610BD00BF652F0020F7730408EF
:1019280010B5044C04480A46214637F0A9FD204664
:1019380010BD00BF643000200074040810B5044CCA
:1019480004480A46214637F09BFD204610BD00BFDB
:10195800643000200E74040810B5044C04480A468C
:10196800214637F08DFD204610BD00BF64300020B1
:10197800197404080A4608B5044920B9044837F020
:101988007FFD024808BD0348F9E700BF6430002026
:101998002C74040844740408054B93F8E322D3F824
:1019A800DC0202F0F702002183F8E32236F084B863
:1019B800882E002008B53122F421006836F07CF822
:1019C800012008BD13B5084CD4F8DC020DF107025C
:1019D800A02136F00DF80028F6D09DF807309B06B8
:1019E800F2D402B010BD00BF882E002037B5062300
:1019F800F7216A460068164C36F02AF81549E8B10E
:101A08009DF801209DF800309DF80350120142EA2C
:101A180003329DF8023042EA13129DF80430C1F8EF
:101A28007C281B0143EA05339DF8055043EA15134A
:101A3800C4E9BA23C1F85C3803B030BDD4F8E83241
:101A4800C1F87C38D4F8EC32C1F85C38F4E700BF50
:101A5800882E0020901D00202DE9F043DFF8C0C13A
:101A6800026B046890F82D30064689B06A48B0FBCE
:101A7800F2F0614665464FF0000E012291F806909B
:101A8800A3EB090701F10608002FA3EB0E01B8BF6D
:101A98007F420029B8BF49428F4202F10102BCBF10
:101AA8004FFA89FE4546102A4146E7D1002780B201
:101AB8009CF8002072450DD16988BCF80220411AB3
:101AC800821A0029B8BF4942002AB8BF524291423F
:101AD800C8BF65460137102F0CF1060CE8D16A79AA
:101AE80004922A7903926A8802922A780321CDE91E
:101AF80000024A4A012037F031FA6A88464BB3FBA4
:101B0800F2F30021B363204636F0C6F880226B2139
:101B1800204635F0D1FF962035F049FC0322682194
:101B2800204635F0C9FF962035F041FC03226B2191
:101B3800204635F0C1FF0F20002135F025FC3A463C
:101B48006A21204635F0B8FF0F20002135F01CFC33
:101B580000226C21204635F0AFFF0F20002135F020
:101B680013FC6A791921204635F0A6FF0F200021C1
:101B780035F00AFC18221B21204635F09DFF0F2066
:101B8800002135F001FC18221C21204635F094FF75
:101B98000F20002135F0F8FB3A463721204635F072
:101BA8008BFF0F20002135F0EFFB2A791A21204600
:101BB80035F082FF0120002135F0E6FB03212046A5
:101BC80036F06AF8062306AA4321306835F040FF4C
:101BD800A0B19DF818209DF8193043EA02233384F8
:101BE8009DF81A209DF81B3043EA022373849DF860
:101BF8001C209DF81D3043EA0223B38496F9223055
:101C0800013306D196F92030013302D1062035F090
:101C180009FC09B0BDE8F08340420F005C74040879
:101C28009CF9030838B50C460B46134A04210920D1
:101C3800013C37F093F9E3B2032B1CD80F4D95F90B
:101C48004630C3B1012B0E4B0E484FEAC4041C4466
:101C58004FF005010CBF94F8703094F8723085F895
:101C6800A430FFF7FDF9062185F8A5000548BDE871
:101C78003840FFF7DBB938BD957404080000002030
:101C880090F90308A00000202DE9F347038A86890C
:101C980005460C461E404FF0004901F14C0701F182
:101CA800340816B902B0BDE8F087B6FA86F329FA07
:101CB80003F2D24391B2298216401B3B002C40D03C
:101CC800042BEED8DFE803F039342E280300E3684C
:101CD800D5F82CA02BB19B681BB11FFA8AF1201DE7
:101CE8009847636A33B19B6823B11FFA8AF104F1FC
:101CF8001C009847E36B2BB19B681BB11FFA8AF154
:101D080040469847636D002BCBD09B68002BC8D00A
:101D18001FFA8AF1384603E0E368696B5B68201DA7
:101D28009847BEE7636AA96B5B6804F11C00F7E794
:101D3800E36BE96B5B684046F2E7636D296C5B68AF
:101D4800E8E7042B06D8DFE803F00D0B09070300CA
:101D5800EB6A0193019BA4E76B6BFAE7AB6BF8E7BF
:101D6800EB6BF6E72B6CF4E710B500680C4637F020
:101D7800DBF9837863B1827AC37A43EA02231BB220
:101D8800222293FBF2F303F26D132380012010BD8E
:101D98001846FCE710B50446006837F0C5F98378A3
:101DA80083B10279437943EA0223E3818279C379D3
:101DB80043EA02232382027A437A43EA02236382B4
:101DC800012010BD1846FCE770B506680546304688
:101DD80037F0AAF90E230446021D3B21304635F0A0
:101DE80037FEA07070B1227B637B43EA02232B8409
:101DF800A27BE37B43EA02236B84227C637C43EA75
:101E08000223AB8470BDF8B5284C2546D4F8E40805
:101E180035F051FB002847D094F8E0380BB100208A
:101E280042E0D4F8E40835F040FBD4F8DC383BB99C
:101E38000F28EBD10123C4F8DC3884F8CC08E5E797
:101E48000F2B9FBF5A1C1B19C4F8DC2883F8CC0839
:101E5800D5F8DC38102BD9D195F8CC380F2B15D103
:101E680095F8CD3895F8BD289A420FD195F8DB281A
:101E780062B90F4995F8DA68084611F8017B013212
:101E88003B440C2ADBB2F8D19E4205D0002385F8EA
:101E9800E038C5F8DC38B9E706493AF0F1FF002820
:101EA800F4D0012085F8E008F8BD00BF901D00209F
:101EB8005E2600204E26002038B5174C0F2384F8E4
:101EC800BC3884F8BD0804F6BE02F9B10B68C4F842
:101ED800BE384B6853608B689360104A002312F831
:101EE800011B013308440C2BC0B2F8D1002584F83B
:101EF800CA0810220A49D4F8E40884F8CB5835F007
:101F0800E0FA84F8E058C4F8DC5838BDC4F8BE18C4
:101F180051609160E1E700BF901D00204E2600202F
:101F28004C2600207FB5924CD4F8F032B3F5857F6B
:101F380075D00BDCC3B3F82B48D0D4F8F032002BA3
:101F4800BCBF0023C4E9BC3304B070BDB3F5887FBF
:101F580000F0BB80B3F58F7FEFD1864D95F8E03860
:101F6800002B00F0E6800021B5F8CE38C5F88418BB
:101F7800D5F8A818B5F8D028C5F8B4388B42C5F8F4
:101F8800B82840F0EE80D5F8AC389A4205D0D5F89C
:101F9800883843F00203C5F88838764B93F88038C0
:101FA800002B00F0A5802DE0724A82F880380021CD
:101FB8007220FFF781FFD4F89430C4F8F832002675
:101FC800FA23C4E9BF63F823C4F8F032694D95F8E1
:101FD800E038002B40D0B5F8CE38C5F88C38B5F8C5
:101FE800D038C5F890380023C5F89438B5F8D238F9
:101FF800C5F89838012385F880380023C5F8843857
:10200800C5F88838D4F89430C4F8F83200254FF46D
:102018007A73C4E9BF534FF48573C4F8F032554E50
:10202800D6F8885875BBD4F8F822D4F894309B1A9F
:10203800D4F80023934280DD29467620FFF73CFF41
:10204800D4F89430C4E9BE35FA23C4F800334FF409
:102058008F73C4F8F03280E7FFF7D5FE48B9D4F89B
:10206800F822D4F894309B1AD4F8002393427FF7CF
:1020780064AF95F8E038002BADD195F88038002B87
:10208800BBD194E715F0010338D00025B6F8A8387D
:10209800ADF8043001A94620CDF80650CDF80A5015
:1020A800ADF80E50FFF708FFD6F8883823F0010383
:1020B800C6F88838D4F89430C4E9BE35FA23C4F891
:1020C80000334FF48873C4F8F032D4F8F822D4F807
:1020D80094309B1AD4F8002393427FF72EAF254BF8
:1020E800D3F88428022A7FF758AF002283F8802883
:1020F8004FF0FF330022C4E9BC321EE715F0020599
:1021080014D0B6F8AC28CDF8063001A95020CDF887
:102118000A30ADF80E30ADF80420FFF7CDFED6F842
:10212800883823F00203C6F88838D8E7C6F88858F4
:10213800D5E7FFF768FE48B9D4F8F822D4F8943008
:102148009B1AD4F8002393427FF7F7AE95F8E0384E
:10215800002B7FF408AFD5F884380133C5F88438EC
:10216800BDE7D5F8883843F00103C5F888380AE791
:10217800882E0020901D00202DE9F04F6C4E96F817
:1021880008338DB080468946002B40D1D6F80C53D1
:10219800002D3CD096F810B3DFF898A106AF96F85A
:1021A8001033032B00F28480DFE803F002347D9BB8
:1021B8003946284610F06EFC044680B109A8FEF79F
:1021C80065FF9DF826109DF818308B4270D0AB79CA
:1021D8008B4204D32B681B690BB12846984796F8A5
:1021E8001033013303F0030386F81033002C40F05A
:1021F8009C809B45D3D14F4B1B685B0700D534B1FE
:102208002B68196819B142464B46284688470DB0D5
:10221800BDE8F08F03A8FEF739FFDAF800309DF823
:102228000C4003F0040334B3002B41D13A460DF1BE
:102238000B01284610F04CFC0446002838D009A8A9
:10224800FEF724FF9DF824109DF80B309DF82520FB
:102258008B4203D19DF81830934229D02B798B42B9
:10226800BDD36B799342BAD32B68DB68002BB6D009
:1022780028469847B3E7002BB1D13946284610F0D5
:10228800FBFB0446A0B109A8FEF700FFBDF8281023
:10229800BDF818308B420BD02B689B69002B9ED061
:1022A800284698479BE7DAF8001011F0040301D09C
:1022B800002494E709A92846019310F0E4FB0028BC
:1022C800F6D096F81143002CF2D09DF82420019BFB
:1022D80086F81133002AEBD01946284610F0FFFB88
:1022E8007DE73846FEF7D2FE97E8070009AB03C33F
:1022F8001A809DF818309BB10DF1250209A92846CE
:1023080010F0E6FB0DF12601284610F0C3FB0A2267
:1023180009A938463AF0B4FD041C18BF01245EE749
:102328000AA9284610F0A8FBECE7012463E700BFE0
:10233800882E002000000010022803D0431E5842B7
:1023480058417047054B93F81C3313B110201FF008
:1023580091BB034B1868C0F380007047882E00209B
:1023680000000010CA680B6810B513430468114ACE
:10237800224013434A6913438A691343CA691343C2
:102388000A6A13434A6A13434A6B13438A6B13431B
:1023980043F400330360D1E90B344269234322F04C
:1023A8000702134343610B6943604B6883608B6882
:1023B800C36010BD3F801CF010B58021044637F083
:1023C8007AF82046002137F076F82046BDE810401C
:1023D80037F0E2BAC84BF7B5C84DC94C0822C3F864
:1023E80088202B6B43F001032B6306464FF4C05241
:1023F80040F2023320460F466946CDE9002338F003
:1024080075F8636ABF4AC04923F470436362636A1C
:1024180043F420436362636A23F470236362636A4C
:1024280043F4202363626B6CB84C43F480436B64C1
:102438006B6B43F080036B632B6A43F080532B6212
:10244800B34B01255D61C4F83C29B24AC4F8406920
:10245800C4E9D512022284F85C234FF0A042C4F8E4
:10246800602302F50062C4F8642302F58072C4F8A0
:102478006C2302F50072C4F8A823A2F5F072C4F820
:10248800702302F50072C4F8AC23A2F5F072C4F808
:10249800742302F50072C4F8B023A2F5F072C4F8F0
:1024A800782302F50072C4F8B423A2F5EC62C4F8EC
:1024B800387984F85F53C4F868234032C4F820247C
:1024C800C032C4F8E4232032C4F8E8232032C4F828
:1024D800EC232032C4F8F0232032C4F8F42320324D
:1024E800C4F8F8232032C4F8FC232032C4F80024AE
:1024F80002F52262C4F8242402F58052C4F8282484
:1025080002F58052C4F82C2402F58052C4F8302415
:102518004FF05022C4F8342402F58052C4F838240D
:1025280002F58052C4F83C2402F58052C4F84024D5
:10253800A2F5E4420021C4F8602404F5557284F839
:10254800665484F8681410460B46402680F81C111F
:10255800A0F822110131042980F81D5180F81F319B
:10256800C0E94963C0F8303100F12800EED10023FA
:102578001946402082F87433A2F87A330133042BC9
:1025880082F8751382F87713C2E9DF01C2F888135D
:1025980002F12802EED14FF0A0435F489A6822F07A
:1025A80001029A60DA6842F04002DA6037F0D4F942
:1025B8000025212363F3174594F85D330BB145F4E7
:1025C800801594F85723D4F86033012A9D6307D106
:1025D8009A6822F03E0141F02A0161F307029A60ED
:1025E800DA68C2F3076121F0600141F0400161F34C
:1025F8001F62DA60D4F8602400201060D4F86423E5
:10260800116860F3CC21116094F85F13012912D18D
:10261800116841F00301116080225A6202F58002BC
:102628009A6202F14012C3F804214FF4A072C3F871
:102638000821C3F80C2110213848394D37F062FCC5
:10264800364837F047FCD4F8642394F85503002340
:102658004FF0FF3113611E465361FF279161D3612B
:10266800834237D300232F4D1E46FF27984267D851
:10267800136994F8571343F480730129136104BF55
:10268800294B1363D4F8603300229A614FF0FF306E
:102698006FF080425A6158605A61244A9A61002951
:1026A800234A0CBF102100210A4399690A439A6101
:1026B8009A6842F001029A60D4F83C391B6898473E
:1026C8001C4B1D4ADA6068461C4B009337F0EEFC41
:1026D80003B0F0BD55F8041BD1F800C0BCF1000FE1
:1026E800ACBF4FF0000C4FF0904CC1F800C0013364
:1026F8000E618F60B4E700BF00E100E000380240DF
:1027080000000240A800002008040100882E0020D4
:10271800003C014040004001E8310020DC3100204D
:10272800F4310020303200200301810000080080CD
:1027380008383C0000ED00E00005FA0543020001FE
:1027480055F8041BD1F800C0BCF1000FACBF4FF026
:10275800000C4FF0904CC1F800C001330E618F603F
:1027680084E710B5084A92F8483902EBC3040133EC
:10277800DBB2042B08BF0023090284F84C0982F855
:102788004839C4F8501910BD882E0020F7B5C24E3C
:1027980096F87F39C6F86C091E2B0D4634460FD0C3
:1027A80014D8122B00F0A58005D8002B5DD0032B80
:1027B8006DD02021FBE11A2B00F0BA801B2BF8D139
:1027C8000025A4F89459284603B0F0BD282B00F042
:1027D800F78028D8232B00F0C780252BE9D1D6F81D
:1027E800903928465B6806F6981206F69C119847B9
:1027F8000546002844D1D6F89C29A84B013A110E69
:102808001970110C5970DA70110AD6F89829997054
:10281800110E1971110C5971110A9971DA71082385
:10282800A6F89439CFE72F2B00F0A9815A2B00F096
:102838008D802A2BBDD196F8A039002B40F06481F9
:1028480096F97C39002BB4DBD6F8903908469B689A
:102858009847A8B9D6F890392846DB6898470546BE
:10286800002800F0258127210BE0D6F87839002BC5
:102878009FD1D6F8903908469B68984700289FD082
:102888003A210220FFF76DFF4FF0FF359BE7834B9E
:10289800122219460020013A12F0FF0203F8010B38
:1028A800F9D170230B700C23CB7194F8480994F874
:1028B8009639984212D004EBC300013390F84C5972
:1028C8008D70DBB290F8515990F850090D73042BB4
:1028D800487314BF84F8963984F896291223A4F80B
:1028E800943994F88339122B98BFA4F894390025A9
:1028F80069E796F88039DA0717D4D6F8903996F848
:102908008329DB6901EBC10503EB85052B790533C9
:10291800934228BF1346614AA4F89439002BE6D0A5
:10292800013B9BB2E95CD154F8E707235C4DF2E721
:1029380008235C495C4AA6F89439013B11F801095F
:1029480002F801099BB2002BF7D1D0E708235749B9
:10295800554AA6F89439013B11F8010902F8010912
:102968009BB2002BF7D1C2E74C4A0C231646002134
:10297800013B9BB202F8011B002BF9D1D4F8903926
:1029880028465B686A4601A99847054600287FF4EF
:1029980077AF0823F370019B013B1A0E32711A0CB2
:1029A8007271F3711A0A02233372009BB2711A0C06
:1029B8007272F3721A0A0C23B272A4F8943902E7FD
:1029C80096F8A0396BBB96F97C39002BBFF6F1AEAF
:1029D800D6F8903908469B68984700287FF450AF8E
:1029E800B6F88639D6F88129D6F89C195BBA12BA96
:1029F8009BB298188842C6F8A429C6F8A83900F2EC
:102A0800D580022186F8A019D6F898194A43C6F845
:102A1800A429D6F878294B439342C6F8A8397FF4FD
:102A2800C8AED4F8A869D4F89009D4F89829D4F88D
:102A3800A41907694FF480539E4228BF1E46A4F884
:102A480094392846B6FBF2F3B1FBF2F29BB2134974
:102A5800B847002802DA1121042013E733460F4A49
:102A6800D4F86C09812136F04CFDD4F8A439D4F897
:102A7800A8593344C4F8A439D4F8B439AD1B9E1B03
:102A8800C4F8A859C4F8B469002D7FF430AF032303
:102A980084F8A03997E600BF882E00204D610020F9
:102AA8001CFA03082AFA03085461002032FA0308C2
:102AB800B6F88639D6F881195BBA9AB209BAD6F847
:102AC8009C39C6F8A41950189842C6F8A8296DD898
:102AD800D6F8983959435343D6F87829C6F8A41933
:102AE8009342C6F8A8397FF464AEB3F5805F28BF77
:102AF8004FF4805301219BB22E4AD6F86C0986F810
:102B0800A01936F0B4FD5EE6D6F8A849D6F89009C3
:102B1800D6F89829D6F8A4194769B4F5805F28BF74
:102B28004FF480542846B4FBF2F3B1FBF2F29BB2A7
:102B38002049B847002801DA03218DE7D6F8A439DF
:102B4800D6F8B429D6F86C092344C6F8A439D6F8BF
:102B5800A8391B1B141BC6F8A839C6F8B4491BB9F9
:102B6800002136F0C9FDC2E6B3F5805F28BF4FF4F7
:102B780080539BB20F4A012136F079FDB7E696F8EB
:102B880080399B0701D5242111E0D6F881391ABA7A
:102B9800B6F88639C6F8A4295BBA9BB2C6F8A83934
:102BA8001344D6F89C2993427FF60AAE21210520CA
:102BB80068E600BF4D6100202DE9F04790B0DDE9DF
:102BC800184A0E460746904600213A220DF10600A3
:102BD80099461A9D3AF07CF9344B02938DF80460BB
:102BE800CDF834A0002E55D0022E55D0032E55D046
:102BF800042E55D103232E4A02EB430393F8A43045
:102C08008DF805302B4B0394D3F894200697144481
:102C18000122CDE904458DF831201D46B8F1000F99
:102C280006D04A46414607A839F05AFF8DF8309039
:102C380095F8FEE90023BEF1010F0E931FD80DF1A0
:102C4800040ABAE80F0095F8FDC93C2404FB0C54AB
:102C580004F520640FC4BAE80F000FC4BAE80F00E7
:102C68000FC49AE80700BCFA8CFC0EF1010E4FEA7B
:102C78005C1C84E8070085F8FEE985F8FDC93B6817
:102C880083B14B4642463146384610B0BDE8F0475E
:102C98001BF043B93346AEE70123ACE70223AAE7AA
:102CA8000023ADE710B0BDE8F08700BF443800202E
:102CB80090F90308882E0020420900F01F03032A18
:102CC8004FF0010000FA03F008D0042A0BD0022AC2
:102CD8000DD1074B5A6C104358647047044B1A6C5B
:102CE800104318647047024B1A6B104318637047FF
:102CF8000038024010B54468424B627913440029F9
:102D08001A7A236814BF00200220FAB91A8C22F01C
:102D180001021204120C1A84198B1A8C21F0F30187
:102D280092B2090422F00A02090C024342F001029D
:102D380041F0010119831A841A8B22F00C02120443
:102D4800120C1A831A8B92B21A8310BD042A1AD154
:102D58001A8C22F010021204120C1A84198B1A8C85
:102D680021F4407192B2090522F0A002090D42EA4D
:102D7800001242F0100241F4807119831A841A8BF0
:102D880022F44062DBE7082A1A8C1FD122F48072F1
:102D98001204120C1A84998B1A8C21F0F30192B246
:102DA800090422F42062090C42EA002242F48072EB
:102DB80041F0010199831A849A8B22F00C021204C3
:102DC800120C9A839A8B92B29A83BEE722F48052AD
:102DD8001204120C1A84998B1A8C22F4005221F4D2
:102DE800407152040905520C090D42EA003242F4BE
:102DF800805241F4807199831A849A8B22F440623C
:102E0800DDE700BF90F9030838B583681C6863796B
:102E1800DB0722D594F85C32A579FBB1E06B4368F7
:102E28001A68D36AC3F34E03536294F86D32012BC8
:102E380007D094F8613223B1B4F868320133A4F8AA
:102E48006832E94301F00101FFF754FF0023A4F8B9
:102E580066324FF08073C4F85C3238BD94F85F3244
:102E6800012B04BF94F85D3284F85E322046FDF7EA
:102E78009EFF94F85F3243B90123E94384F85F3237
:102E88001940E06BBDE8384034E7002384F85F322E
:102E980005F00101F5E7031EB8BF2D2210B5B8BF34
:102EA80058420C46AEBF0A2201F8012B0A2235F01F
:102EB800FBF900230370204610BD37B5414CD4F808
:102EC8009850002D7BD110232A462D21022038F05E
:102ED800BFF8C4F8980078B3032134F0DDFE9F23CF
:102EE8003220009334F063FA04236A460DEB0301A1
:102EF800D4F898008DF8055034F058FD9DF8063048
:102F08009DF805201B0243EA02439DF8072013435E
:102F18002D4A93422D4A4DD035DC2D498B4247D05E
:102F28000CDC2C498B4214D02B498B4244D0002016
:102F3800C2E93300C2F8C40003B030BD27498B4250
:102F480036D001318B4237D0A1F51A4103398B4273
:102F5800EDD1234BC2F8C430B2F8C830B2F8C4106F
:102F68001B02C2F8CC304B43B3F1807FC2F8D0309B
:102F780005D90123B72084F87C3AFEF797F9012098
:102F880084F87D0AD8E717498B42E2D007DC164956
:102F98008B420DD002318B42C9D1144BDAE7144968
:102FA8008B4209D001318B42F7D002398B42BED116
:102FB800104BCFE7104BCDE74FF00123CAE70120B4
:102FC800BAE700BF882E00201620C20000000020AB
:102FD80017301C00154001001860010017BA2000C6
:102FE800200000011540EF001720C2000002000178
:102FF8001840EF008000000140000001642828BF4D
:10300800642000EB800070B5450064240026B5FB01
:10301800F4F4E4B2F3B29C4212D80A2C0BD0142078
:10302800B5FBF0F0C4EB84156638C4EB850528447D
:10303800C0B20FF0FDFD0134E4B2092C05D970BD12
:103048009F200FF0F5FD0136E4E79A20F1E770B50F
:10305800074D01244FF4067655F8040B20B1C680BD
:103068000472012137F0D0FA0134042CF4D170BD78
:103078003CFA030870B50E4C05460C2694F87E3AC7
:10308800072B01D9002011E05A1C06FB034384F8E2
:103098007E2AD3F8802AD107F0D51542EED093F9CD
:1030A800840A1BF0E9FB0028E8D0406870BD00BF27
:1030B800882E0020024B002283F87E2ADAE700BF20
:1030C800882E00202DE9F041FCEEC07A0A4617EE62
:1030D800901A0446D0F814808769C669056A0123E6
:1030E800B0EE600A89B236F02AF8C4F81480A761F5
:1030F800E6612562BDE8F08130B5264B10201D78C9
:10310800A5F1300109291A4603F1010329D9214CF7
:103118000021131B022B27DC0023A2422ED82E2DC0
:1031280036D1501C04240022057802EB8202303D7F
:103138005200092D92B298BF521904F1FF349CBF76
:10314800013092B214F0FF04EED164205043124AC9
:1031580002FB03000623B0FBF3F0104B03FB010056
:1031680001E00138CBD130BD01EB8101490014F8F1
:10317800010B3039014401F0FF01CAE703EB830377
:103188005B0014F8010B303B034403F0FF03C4E772
:103198000022DAE76C39002040420F008096980040
:1031A80030B5002351F8234052F82350641B40F8EF
:1031B80023400133032BF5D130BD2DE9FF41804673
:1031C8000846154635F0CDF94FF47A7200230646C5
:1031D8000F4638F03BFFB5F900303C2403FB0404EC
:1031E800394630464FF47A72002338F02FFF002713
:1031F80096B24FF47A73C3FB04673B46324601A884
:1032080035F02AF9394B93F8F63A012B09D0022BFD
:1032180035D032463B46404635F01EF904B0BDE88D
:10322800F0819DF80640E31E072BF2D8231F052BDB
:103238000DD92146BDF8040035F0BCF89DF80730DB
:1032480098420ED0E11E18BF01210029E1D02B8839
:103258003C332B80264BF6184FF0000343EB07074F
:10326800D7E7032C03D19DF808100031EBE70A2CAF
:10327800CFD19DF80810B1FA81F14909E5E79DF829
:103288000640E31E082BC4D8231F062BDFD921468E
:10329800BDF8040035F08EF8032C12D10E280ADC94
:1032A8009DF80730984208D19DF80810012994BF6D
:1032B80000210121C9E70738F0E7B4BF0121002147
:1032C800C3E70B2CA5D107280ADC9DF807309842E4
:1032D80008D19DF8081001298CBF00210121B4E70D
:1032E8000738F0E7CCBF01210021AEE7882E002087
:1032F80080EE360030B50468E46985B02CB10DF174
:103308000F050095A04705B030BD2046FBE708B57E
:1033180006482CF007FA06482EF0E2FA054B93F817
:10332800F82A12B1012283F8F92A08BDB1740408F9
:10333800BD740408882E00202DE9F04F87B0DFF80F
:10334800ACA005910746904699460025B8F1000FB4
:1033580007DBA84505D00135042DF7D107B0BDE836
:10336800F08F059AD6236B4302EB030B1E4AD31842
:1033780004930024B9F1000F01DBA1452FD1049B70
:103388003BF8146033F81430F21A5642564113F4DD
:10339800006F03F01F02C3F3441114BF56234823E0
:1033A800CDE90213CDE900422B4652463146384654
:1033B8002DF092F93BF8143013F4006F03F01F025C
:1033C800C3F3441114BF56234823CDE90213CDE9B2
:1033D80000422B465246314638462DF093F90134C7
:1033E8006B2CC7D1B7E700BF84390020CA74040822
:1033F8002DE9F04F41F29073364C374ADFF8E4B0CC
:103408008846E15C354B002908BF1A4641F29173A2
:1034180087B0E156814632482CF084FD04F6946466
:1034280046460027B8F1000F52D096F800A094F84D
:103438005C03F168B6F910C096F816E05045D6E975
:10344800013243D1D4F8600398423FD1D4F86403E1
:1034580090423BD1D4F86803884237D1B4F96C0361
:10346800604533D194F87253A5EB0E0045424541AF
:10347800CDE90221CDE900A3CDE904CE3B465A4669
:10348800294648462DF028F994F872330593B4F983
:103498006C330493D4F868330393D4F864330293F9
:1034A800D4F86033019394F85C3300935A463B4652
:1034B8002946484601372DF025F93C2F04F1180418
:1034C80006F11806AED107B0BDE8F08F0025CFE7AA
:1034D8004546D9E7882E0020AF9F0408E474040805
:1034E800E7740408F674040870B541F27C13204DA3
:1034F800EB5C2DED028B04460E4693B341F2841328
:10350800EB58036041F28813EB58436041F28C1387
:10351800EB58836005F6946393EDBB8ADFED158A5B
:1035280096ED000A80EE280A39F060FE23681844F8
:10353800206028EE288A96ED010A80EE080A39F004
:1035480055FE63681844606096ED020A39F04EFE35
:10355800BDEC028BA368184441F27C13A060E85CC0
:1035680070BDC0E900338360B7EE008AD6E700BFBC
:10357800882E00202C7D8E3F70B541F27C131D4CA7
:10358800E55C95B341F284160B68A659DFED1A6A1B
:103598009B1B07EE103A41F288164B68A659B8EE05
:1035A800C77A9B1B27EE267A07EE903A04F69463B7
:1035B800012A80ED007A93EDBB7A8B6818BF41F23F
:1035C8008C12F8EEE77A27EE267A18BFA25867EE33
:1035D800877A18BF9B1AC0ED017A07EE903AF8EE89
:1035E800E77AC0ED027A284670BD00230360436085
:1035F8008360F8E7882E00202C7D8E3F0C4608B5A6
:1036080005461AF0D9FE20461AF0D6FE284633F0B1
:1036180052FF30B1284633F048FF0146204633F0C8
:103628004DFF204633F047FF0028EFD0204633F007
:103638003CFF0146284633F041FFE7E71FB5324912
:1036480001A891F82120643116F0E4FF0398019A4B
:1036580080EAE073A3EBE07307EE903AF8EEE77ABE
:10366800F7EE086AC7EEA65A82EAE273A3EBE273A2
:1036780007EE103AB8EEC77A029BF4EEC75AF1EE9D
:1036880010FA13DD83EAE371A1EBE37106EE101A79
:10369800B8EEC66AF4EEC65AF1EE10FA06DD002856
:1036A800CCBF0020012005B05DF804FBC7EE265A08
:1036B80083EAE371A1EBE37106EE101AB8EEC66A6D
:1036C800F4EEC65AF1EE10FA09DDF4EEE57AF1EE01
:1036D80010FA04D5002ACCBF02200320E3E7C6EE87
:1036E800265AB4EEE57AF1EE10FA09D5F4EEE57A49
:1036F800F1EE10FA04D5002BCCBF04200520D2E748
:103708004FF0FF30CFE700BF0000001030B52A4A65
:1037180092F8C8368B424DD192F8C916DFED276A68
:10372800D2F8EC5602EB4104013101F00F0182F8A6
:10373800C91692F80817B4F8CA36A4F8CA0607EEEC
:10374800101AB8EEC77A92F8091727EE267AC31A24
:10375800FDEEC77A2B4417EE900A07EE901AF8EEA2
:10376800E77AC2F8EC3667EEA67A1B09FDEEE77A2F
:10377800A2F8F03617EE901A88420FDD9BB29942F4
:10378800D4BF5B1A00239842A6BFC31A9BB200237A
:10379800A2F8F036034617EE900A1946B2F8F0364A
:1037A8001B1AC3EB8323091A93FBF1F181F30A0176
:1037B800A2F8F01630BD00BF803F002014AE2341B0
:1037C8002DE9F043B84C94F8703094F871202DED41
:1037D800028B0133DBB29A4283B084F8703036D161
:1037E80094ED1D7AD4ED1E7A002384F8703094F895
:1037F800843067EE877A04EB8302C2ED227AD4ED37
:103808001F7A67EE877A04EB8301C1ED427AD4ED23
:10381800207A013303F01F0367EE877A002284F8C9
:1038280084300C23A267E267C1ED627AC4F8802075
:1038380084F8083294F80932062B39D8DFE813F0F7
:103848001000D400E00038018D015E02AC0294F84B
:103858000832002BEED103B0BDEC028BBDE8F0833B
:10386800B4F80CC29148D4F810224FEA5C0100EB7E
:103878008C088B004FEADC0CC61847464344A0F579
:10388800DA7502EB0C1C9646E64507F1100706F1BF
:10389800100603F1100305F110051AD18DB229465F
:1038A800FCF76EFCD4F8102229464046FCF768FC69
:1038B80094F8093207220133B3FBF2F2C2EBC202D9
:1038C8009B1A84F8093294F80832013B84F80832CC
:1038D800C1E717ED040A95ED696A57ED030A95EDFE
:1038E8006A4A53ED046A53ED034A17ED027A17ED5D
:1038F800015A56ED032A16ED023A56ED013A53EDF8
:10390800027A53ED015A95ED6B1A16ED042AD5ED9E
:103918006C1A36EE008A36EE406A85ED698A34EE16
:10392800208A34EE604A85ED6A8A31EE078A0EF104
:10393800100E85ED6B8A31EE858A31EEC55A72EE2E
:10394800261A85ED6C8A46ED041A72EEA41A74EEF6
:10395800E24A46ED031A73EE271A77EEC37A46ED6C
:10396800021A73EEA51A75EEE35A46ED011A5EEDDA
:10397800033A1EED043A64EE232A76EEC26AE6EEB6
:10398800032A23EEC66A47ED042AA4EE036A31EE41
:10399800477A07ED036A23EE646AA6EEA36A66EE29
:1039A800836A03ED046AE4EEA36A43ED036A1EED3D
:1039B800026A5EED016A65EE264AE7EE064A26EEE1
:1039C800C77A47ED024AA5EE067A07ED017A26EE98
:1039D800657AA7EEA67A67EE867A03ED027AE5EEB7
:1039E800A67A43ED017A4FE7D4F81422B4F81812F6
:1039F8002E4837F0CFFC94F80932013384F80932A5
:103A0800D4ED8A7AD4ED895AB4F80C22274BD4F82D
:103A1800200277EEA77AB0EE006AF0EE676AE5EE6C
:103A2800866A013A03EBC201D5EE867A103008396E
:103A3800B6EE007A66EE876A67EE877AC4EDA96A01
:103A4800C4EDAA7AA3F5DA73F0EE476A91ED034A5A
:103A580091ED027AD3ED6F3AD3ED707A50ED025AB8
:103A680050ED014A37EE635A34EE276A37EE237A6F
:103A780077EEC47AA5EE857A013A00F10800E4EE03
:103A8800857AA1F1080103F10803A4EE867AE5EE30
:103A9800C67A27EE267A67EEA67A83ED8D7AC3ED8D
:103AA8008E7AD3D104E700BF000000102402001072
:103AB800CF4D4FF000092E460427C84695ED8E0AD3
:103AC800D5ED8D7A20EE000AA7EEA70AB5EEC00A5A
:103AD800F1EE10FA6ADB39F0AFFE86ED6D0A95ED6E
:103AE800900AD5ED8F7A20EE000AA7EEA70AB5EE68
:103AF800C00AF1EE10FA5CDB39F09EFE86ED6E0A24
:103B080095ED920AD5ED917A20EE000AA7EEA70A64
:103B1800B5EEC00AF1EE10FA4EDB39F08DFE86EDF7
:103B28006F0A95ED940AD5ED937A20EE000AA7EE78
:103B3800A70AB5EEC00AF1EE10FA40DB39F07CFEB8
:103B480086ED700A013F05F1200506F11006B5D192
:103B580094F80932013384F8093294F89C23A44D6F
:103B68009FEDA47A002302F16D0105EB810118464F
:103B78001E460F2A26DD04EB830292ED897A67EE52
:103B8800077A5A1C67EE877A07EE102AB8EEC77ACA
:103B980003F16E0227EE277A1F4605EB82021946CB
:103BA8000F2925D105EB8303421C55E0C6F8B491D3
:103BB80095E7C6F8B881A3E7C6F8BC81B1E7C6F8AF
:103BC800C081BFE7F1EC017A3EB951ED026AF4EE2B
:103BD800E76AF1EE10FA09D5D0B2B4EEE77AF1EE61
:103BE80010FA44BFD3B2B0EE677A01260132C0E7BB
:103BF80012ED016AD2ED006AB4EEE66AF1EE10FA4F
:103C080001F1010102F10402CCDD66EE066A66EEFE
:103C1800866A06EE101AB8EEC66A77EEA67AA6EE9F
:103C2800867ABDE793ED6D6A043BD3ED6D6AB4EE19
:103C3800E66AF1EE10FA07F1FF310FDD66EE066A6B
:103C4800781C66EE866A06EE100AB8EEC66A77EE4B
:103C5800A67AA6EE867A0F469742E3DCF5EEC07A9E
:103C6800F1EE10FA94F80A623FDD87EE278AF7EE44
:103C7800007A38EE678AD4EDE87A28EE278AB4F815
:103C8800A40337F03BFDCDE9000118EE100A37F028
:103C980057FD9DED001B41EC100B39F0B3F951ECC9
:103CA800100B38F075F8242303FB065500EE100AB4
:103CB80005F52D7032F000FE94F80A3203F5C8734A
:103CC80004EB4303BCEEC00AB3F87020A3F87620D7
:103CD80010EE102A92B2A3F87020B4F8A8339A42D2
:103CE80038BF1A46A4F8A823E2E504EB4603B3F864
:103CF800963308EE103AB8EE488AC0E794F80A02FC
:103D080000F5C87304EB4303B3F87020B3F87630BA
:103D1800934200EE102A2FD0374D94F82C3495EDAD
:103D28001B8AD4F81C1400EBC00005EB8000002BA4
:103D380059D0D5ED217AB8EEC00AF0EE480A20EE47
:103D4800270AFFF7BFF994F80A02D5ED227AD4F8CA
:103D58001C1404EB40038C35B3F8903300EE103A92
:103D6800B8EEC00A00EBC00020EE270AF0EE480AC1
:103D780005EB8000FFF7A6F994F80A320322013315
:103D8800B3FBF2F202EB42029B1A84F80A3294F86F
:103D98000932013384F8093294F88420144D94F8D8
:103DA8000A02C2F120010632CFB202EB401005F23E
:103DB80034463B4605F5DA72314605EB8000FCF7E0
:103DC800B9FC94F88430002B3FF472AD94F80A02E1
:103DD800B90001F5DA7205EBC0102A4431441830F5
:103DE800FCF7A8FC64E5F0EE480AB8EE400AC1E723
:103DF8007000001000000000AC03001030B5194C32
:103E0800D4ED017A89B0F1EE677ACDED057AD4ED7B
:103E1800027A00230093F1EE677A0B680193CDEDE7
:103E2800067A4B68D4ED037A02938B6803930546B0
:103E380023680493F1EE677A6A4604A96846CDEDD3
:103E4800077A1CF07DFF6946224608461CF078FF79
:103E5800019B2B60029B6B60039BAB60284609B0FB
:103E680030BD00BF2405001038B502782DED088B51
:103E780030EE608AD0ED01AA0446B0EE40AAF0EE1A
:103E8800419AB0EE619AB0EE42BA0D4668EE2AAA9F
:103E980001F001034AB1002B0CBFF0EE607AF0EE9E
:103EA800487A0022C0ED0B7A0270D4ED0B7A002B11
:103EB80060D078EE677AF0EE480A87EEA90AC4ED7A
:103EC8000B0AD4ED090AD4ED038AF5EEC00AF1EE27
:103ED80010FA05DDB0EE691A04F1180032F038FD69
:103EE800D4ED057A94ED0A7A2AEE27AA20EE280A5C
:103EF8007AEE877A77EE807A77EE8A7AF4EEC97A64
:103F0800F1EE10FA08D4F4EECB7AF1EE10FAD4BF41
:103F1800B0EE679AB0EE4B9AD4ED026A94ED046A5B
:103F2800C4ED0DAA28EE268AF0EE476AE9EE886A03
:103F38006B0779EE677A84ED0C7A67EE867A84ED02
:103F48000E0AE9EEA76A84ED0FAA84ED109AF0EE46
:103F5800667A08D5F0EEE66AB0EEC77AF4EEC76A7C
:103F6800F1EE10FA01D5C4ED0A7AB0EE490ABDECBB
:103F7800088B38BD70EEE77AF1EE677A87EEA90A0A
:103F88009DE72DE9F0412DED068B09EE100A06F0AC
:103F980073FEA44DD0ED047A95EDB58A90ED037AC1
:103FA800D5EDB48AA04F38EE678A78EEC78A28EE36
:103FB800080AA8EEA80A39F03FFCDFED9C7A9C4B72
:103FC80097ED006AD3F80880B4EEE70AF1EE10FA2C
:103FD800C9BFDFED987ADFED987AC7EE806AB0EE58
:103FE800E87AC2BFF0EEC87A27EE267A67EEA67A9C
:103FF800B8EEC98ADFED916A28EE268ADFED906A6D
:1040080068EE266AD8BFB0EE677A18F4006F18BF5A
:1040180076EEA66AB1EE47AA36EE669AB4EECA9A6A
:10402800F1EE10FA00F1F280B4EE479AF1EE10FAD0
:10403800C8BFB0EE479A36EE266AB4EEC6AAF1EECD
:1040480010FA08DCB4EEC67AF1EE10FA54BFB0EEFE
:1040580046AAB0EE47AA7B4E96ED007A77EE668ABE
:10406800F1EE679AF4EEE98AF1EE10FA00F1D180E8
:10407800F4EE678AF1EE10FAC8BFF0EE678A76EEC2
:10408800876AF4EEE69AF1EE10FA08DCF4EEE67AC6
:10409800F1EE10FA54BFF0EE669AF0EE679A06F069
:1040A800EBFDD5EDB4AAD0ED030A6748B0EE4A2A75
:1040B800F0EE491A0021B0EE481AB0EE6A0AFFF78E
:1040C800D3FEB0EE409A06F0D7FD95EDB5AAD0ED37
:1040D800040A5E480021B0EE692AF0EE681AB0EED4
:1040E800481AB0EE4A0AFFF7BFFE594B93F85247F9
:1040F80018F4805F04EB84044FEA44043DD093F83D
:104108005E27D2B307EE902ADFED526AB3F8622732
:1041180095EDB06AB8EE677AC7EE267A06EE902A71
:10412800B3F83827B8EE667A06EE902A36EE476A74
:10413800F8EE666A26EE276A76EEC76A86EE267A73
:10414800DFED456A37EE267AB4EEE67AF1EE10FA3C
:1041580062D4F4EEC77AF1EE10FA58BFF0EE477A5F
:10416800B7EE007A77EE877A93F8664729EE279AB2
:1041780004EB840420EE270A6400D5EDAE7A95EDB1
:10418800AD7A86ED000A60EE278A20EE070ADFED99
:10419800330A87ED009AA9EE270AE9EE478A34F038
:1041A800A7FDB0EE408A34F077FEDFED2C0A28EE4A
:1041B800800A34F09DFDF2EE046A20EE260A9FED97
:1041C800287AC0EE077A6242FDEEE77A17EE903A57
:1041D800934224DBA342A8BF234668EE266A2149FE
:1041E800C6EE877A41F2B4700B52FDEEE77A17EE0D
:1041F800903A9A4203DC9C422246A8BF1A46BDEC7C
:10420800068B41F2B673CA52BDE8F081B0EE4A9A05
:1042180011E7F0EE698A32E7F0EE667AA0E7134616
:10422800DBE700BF1C3D00209C460020CDCCCC3DE8
:104238000000001000007544C23D2D44BD3786358E
:104248000080D444A0460020FC3D0020403E0020D1
:10425800803F00200000C842000000008F2A7544FB
:1042680035FA8E3C882E002010B588B000230093C4
:104278000B6801934B6802938B6814490393D1ED43
:10428800017A0B680493F1EE677ACDED057AD1EDEA
:10429800027AF1EE677ACDED067AD1ED037A04461B
:1042A800F1EE677A6A466846CDED077A1CF048FD5C
:1042B800694604AA08461CF043FD019B2360029B43
:1042C8006360039BA360204608B010BD240500105E
:1042D80010B51E4C94ED010AD4ED006A94ED027AF3
:1042E800D4ED037A20EE000AA6EEA60AA7EE070A86
:1042F800A7EEA70A39F0A0FADFED157AB4EEE70ABF
:10430800F1EE10FA08D54FF07E5323600023636066
:10431800A360E3600D4810BD94ED007AC7EE007A03
:1043280094ED017AC4ED007AC7EE007A94ED027A32
:10433800C4ED017AC7EE007A94ED037AC4ED027AEF
:10434800C7EE007AC4ED037AE4E700BF2405001045
:10435800BD37863530B51C7814B1012C05D030BD79
:104368009A780270DB780B70F9E7B3F9024052B122
:10437800157B94FBF5F40470B3F904302AB1527B31
:1043880093FBF2F3EFE70C25F3E71222F8E730B5D9
:104398001C7814B1012C0FD030BD9D7842B1147B2C
:1043A8006C430460D8782AB1537B43430B60F3E72E
:1043B8000C24F5E71223F8E7B3F902200260B3F9F9
:1043C8000430F3E72DE9F0412DED028B1B4D84B04D
:1043D80004460E461746984613460A460146D5F83F
:1043E8009407B0EE408A33F0A1F99FED150A9DF8C5
:1043F8003030CDF8048028EE000A0022FDEEC07AA5
:10440800009217EE901A02A80EF026FE9DF83400CE
:104418001EF0A6F98046384637F026F8611C01449C
:10442800CDF8008002AB3246C9B2D5F8940733F014
:1044380041F904B0BDEC028BBDE8F081803F00205B
:104448000000C84270B50D4C06460D4613460A4694
:104458000146D4F8940733F0F1F994F9983704EB4E
:10446800430201335BB2272BC8BF002382F8996748
:1044780082F89A5784F89837012070BD803F002051
:104488002DE9F347284C1646FE2284F8EB2794F8CA
:10449800002984F8ED27013284F800294FF6FF72CD
:1044A8001F4684F8EC6784F8EE0784F8EF17ADF838
:1044B8000620062504F2EC78013DADB23DBBDFF8DD
:1044C8007080BDF8063094F8EC57A4F8E9374FF639
:1044D800FF79A8F1080A013DADB24D451ED1384615
:1044E800124904F055FB94F8EC37B4F8E927234453
:1044F80006F1080083F8F12794F8EC37B4F8E927B7
:104508002344120A83F8F22702B0BDE8F0870DF1C0
:10451800060118F8010B04F03BFBCDE7514618F8EB
:10452800010B04F035FBD6E7803F002069470020E7
:104538007147002017B48DF805308DF804200A4B18
:10454800BDF804209DF81040A3F8F1272F2283F826
:10455800F02783F8F347032299238DF8064003B028
:104568005DF8044B8CE700BF803F0020054991F8B7
:104578002D290023042A036028BF042201F63211E2
:1045880038F0AEBA803F002010B4074991F82D29C1
:1045980000240480022A28BF022201F632115DF8A5
:1045A800044B38F09DBA00BF803F0020F8B5204C7E
:1045B8001D250F46064684F83A5A19F0E9FD0020F1
:1045C80019F078FD082019F075FD0E2019F072FD1C
:1045D800284619F06FFD042019F06CFD042019F02D
:1045E80069FD002019F066FD302019F063FD0020F8
:1045F80019F060FD384619F05DFD002019F05AFDEC
:1046080019F0A8FD04F63B2019F0BEFC234670B152
:1046180094F83B2A52B994F83C2A302A00D02AB997
:1046280093F83D2A12B993F83E3A33700120F8BD49
:10463800803F0020011D0023884201D118467047A1
:1046480010F8012B5340082213F0800F4FEA430360
:1046580018BF83F03103013ADBB2F5D1ECE7094A20
:1046680000231046117831B19178802903D168224E
:1046780002FB030070470133102B02F16802F1D1ED
:1046880000207047D04900202DE9F743104B93F8DC
:10469800084307468846C4B90E4DA14605F5257658
:1046A800286858B132F0E7FE40B1CDF800902B46AB
:1046B80042463946B62017F093FF0446DC35B5422A
:1046C800EED1204603B0BDE8F0830024F9E700BF2F
:1046D800882E0020505000200E4B062230B483F85C
:1046E8006E22242283F86F2283F87022002283F836
:1046F8007122094A03F2722102F1240452F8045B80
:1047080041F8045BA242F9D130BC83F874020CF082
:1047180002BF00BF7850002048FA0308134900235D
:10472800F0B51A460D461E460A278C1894F8E44A36
:104738000CB91846F0BD2E2C06D101320028F8D04D
:104748008C18044484F8E46AAC187B4394F8E44A6F
:10475800A4F1300CBCF1090F9CBF303B1B190E2A89
:1047680001D80132E1E70023E3E700BF882E0020EB
:1047780010B50B4C04F5BC50143004F5BD5407F0CB
:1047880041F82368C01A34F06DFA0028B8BF4042D7
:1047980042F210739842D4BF0020012010BD00BF20
:1047A800882E002010B51C2032F0D4FE11210446BA
:1047B80035F02AFF204632F0F5FEC82032F0F7FD2A
:1047C8002046BDE8104032F0F2BE2DE9F04FB54C5E
:1047D800D4F860335E6916F001068BB040F084822D
:1047E8005A699B691340019300F07E82C3F3074323
:1047F800180700930ED5D4F86433DFF8B0929F6998
:10480800DB6904F5557B1F403F0CDA46D846002F7C
:1048180040F00381009B590711D5D4F86423A24FB7
:104828009369D26903EA02081FFA88F83E464FF0F6
:10483800000AA7F5557BB8F1000F40F03F819DF8BD
:104848000460B10741BF974BD3F8603302225A6125
:10485800019B002B1BDA934B93F85E233AB1D3F8F4
:104868006024136823F0030161F307031360D4F88D
:1048780064238D48536823F0010353608B4BD3F8AE
:10488800EC309847D4F860334FF000425A61019BEE
:10489800C3F307252A072FD500238DF8173094F87E
:1048A80066348DF81730814B7F48D3F8E830984745
:1048B800D4F86023D4F864334FF400619B685161E5
:1048C80094F85E23C2B1DB0716D594F86934012B3E
:1048D80012D19DF81730032B0ED1D4F860341A6822
:1048E80042F001021A601A6842F003021A60704A24
:1048F800136943F00603136137070AD5694F6B4BF9
:1049080007F55570D3F8E0309847D7F86033082298
:104918005A61F60614D5D4F86003836923F01003AE
:104928008361036AC3F34341022903F00F0200F0D5
:104938006B81062900F09081836943F0100383613D
:10494800E80633D5D4F8642357485368002623F083
:1049580001035360314635F0D5FA94F855C3554AEA
:1049680037463346FF206345C0F08481D4F864336A
:104978004D484FF0FF329A614FF00112DA610B2275
:1049880062F3070662F307075E611F611A686FF337
:104998000A121A6035F000F8D4F8603342484FF430
:1049A80080525A61414BD3F8E4309847A90640F148
:1049B8007D813C4AD2F86433D2F86C039968026866
:1049C800C1F34101022906BF032161F30A026FF313
:1049D8000A0202605A6842F480725A6006A835F0EA
:1049E80047FCD4F86013D4F86403CB68079A6FF3D4
:1049F8008D23CB6085683048C5F34105284490F87D
:104A0800DC00032840F03D81002284F856234FF44F
:104A18000072A4F85823092242E1F9073BD5F1B204
:104A280004EB8103D3F8A8339D68D4F864335B6939
:104A38001D40EA071FD594F85703DBF854300125C9
:104A4800A8429D6007D11869DAF87C33C0F31200D8
:104A58001B1ACAF88C33D9F8D4304046984794F8D2
:104A68005733012B07D136B994F86534052B02D199
:104A7800404634F091FFAB0742BFDBF854300225C3
:104A88009D60280707D5D9F8DC3040469847DBF801
:104A9800543008229A6001367F080BF1040B0AF1A2
:104AA800280AB4E6882E0020DC310020000000200F
:104AB80000ED00E0F431002090F9030818F0010F30
:104AC80061D0D4F864335FFA8AF919695D6B04EB35
:104AD800890225FA09F5D2F86C23ED019268EDB246
:104AE8000D431540EA071CD55A6BA048012505FA65
:104AF8000AF122EA01025A63BB699D609C4B494650
:104B0800D3F8D830984794F85733AB4209D1BAF163
:104B1800000F06D194F86534042B02D1934834F081
:104B28003BFF280742BFBB6908259D60E90642BFD5
:104B3800BB6910259D606A0642BFBB6940259D6020
:104B4800AB0742BFBB6902259D6028061BD5D6E985
:104B58004C329B1AD6F82421D7F818C0DBF864E346
:104B6800DCF81850934228BF1346033309F1320981
:104B78009B080BEB8909ADB29D4204D9D6E94C02DA
:104B8800904200D930B90AF1010A4FEA58080437AF
:104B9800283650E6D6F82431801A984228BF18469D
:104BA8009BF85723C31C9B08DAB1D6F82811D6F80E
:104BB8003421DCF818500144C6F82811D6F8301111
:104BC80002448A42C6F83421D5D196F81C11DEF881
:104BD8003420012000FA01F122EA0102CEF8342043
:104BE800C9E7D6F82811029181B2033189100391DF
:104BF800D9F85C130D4603999142D6D0029951F821
:104C0800221029600132F6E747F6F07119423FF4A5
:104C180093AE282101FB0241C3F30A13DE1CD4F82A
:104C280024C4D1F8D476B61000218E420ED1514E4C
:104C3800282101FB0262D2F8D4161944C2F8D4160E
:104C4800D2F8E0160B44C2F8E03675E6DCF800E06E
:104C580047F821E00131E8E7D4F824140E68C4F8D5
:104C680020690968C4F82419282101FB0242C3F30A
:104C78000A13E5E752F8041B8860916B01338860DA
:104C880071E6012084F856034020A4F85803A0F5E3
:104C98006400A0F56240384C1044A04227D80E2288
:104CA80062F38D23CB604FF400534B61009BDA060F
:104CB8000BD5304C2E4B04F55570D3F8F03098478F
:104CC800D4F860334FF480125A61009B9B060BD5D1
:104CD800284C274B04F55570D3F8F4309847D4F88E
:104CE80060334FF400125A610BB0BDE8F08FA2F5A3
:104CF8007400224CA0F51050A04201D80D22CFE735
:104D08001F48204C1044A04201D80C22C8E7A2F149
:104D18008C701D4CA0F54340A04201D80B22BFE780
:104D28001A481B4C1044A04201D80A22B8E7194877
:104D3800194C1044A0427FF66EAEA2F1B770174C22
:104D4800A0F55850A04201D80822A9E71448154CEC
:104D58001044A04201D80722A2E713481044134A7E
:104D6800904294BF062205229AE700BFDC3100205A
:104D780000000020882E00203F420F00DFC81000EE
:104D88002013FBFE1FD61300FF69180000D3CEFEC8
:104D98003F771B00C05BB3FEBF9121003FAC2700EB
:104DA800C01D6AFE3FE13300803C36FEDF9C4100B7
:104DB80070477047704770470A4B93F8AE2210440B
:104DC800C0B2020648BF803883F8AE0293F8AF221B
:104DD80093F8AE12914202BF002283F8AF2283F803
:104DE800AE2270477850002030B50B4A92F8AE32A8
:104DF80002F52C74E518C0E9005492F8AF229342EA
:104E08009BBFD31A0B60C3F18003002394BF4B6090
:104E1800C1E9003230BD00BF785000201FB502A89C
:104E28006946FFF7E1FF054B0098D3F83033184483
:104E3800019B184405B05DF804FB00BF78500020C2
:104E4800054B93F8AF0293F8AE32984236BFC3F1E0
:104E58008003C01AC01870477850002013B50C4C56
:104E680094F87D0A68B10523ADF800306A4602233C
:104E780001A9D4F8980032F099FD9DF8050000F0DA
:104E8800010084F87D0A80F0010002B010BD00BF67
:104E9800882E002070B5064CD4F894500646FFF7CB
:104EA800DDFF20B9D4F894305B1BB342F7D970BD4D
:104EB800882E002008B545F20820FFF7EBFF0620F2
:104EC800FCF7F4F9074B0122C72083F87D2AFCF789
:104ED800EDF9054B002283F8AF2283F8AE22C3F820
:104EE800302308BD882E00207850002030B51A4C99
:104EF80089B000231546032200938DF8002094F80A
:104F08007C2A8DF804309A420293CDE906351BBFFE
:104F1800030E8DF801300DF101030DF1020314BFEA
:104F280005220422CDE90421020C1A70020A9870A5
:104F38005A700620CDF80CD0FFF7ACFF50B1D4F86A
:104F480098000379022B02D102A9FCF71BF9284625
:104F580009B030BD0546FAE7882E00207FB5104B12
:104F6800D3F8D0400026E40AA64202DBE00204B0EF
:104F780070BD35196D1010226946E802FFF7B6FFBB
:104F88000F28F3DD6A46002352F8041B013104D1CF
:104F98000133042BF8D12C46E6E76E1C2546FAE7C8
:104FA8000000002070B51C4D88B000231646022270
:104FB80000938DF8002095F87C2A8DF804309A42E9
:104FC80014BF05220422CDE9042302931BBF030E5C
:104FD8008DF801300DF101030DF10203020C1A7076
:104FE800020A98705A7004460620CDE90616CDF8D4
:104FF8000CD0FFF74FFF0620FCF758F9D5F89800BA
:10500800012385F87D3A0379022B02D102A9FCF726
:10501800B9F8301908B070BD882E00202DE9F04F7E
:1050280085B08B46009301EB8203019302900B46F7
:105038004FF0000A53F8042B9244019A9A42F9D18E
:10504800009B002B50D1FFF709FF00284CD1009896
:1050580005B0BDE8F08F029D5F46A0463B4657F875
:10506800042B002A3AD0424529682BD342460393A1
:10507800FFF798FF2A68039B42442A601A68A2EB4C
:1050880008021A60D9F83033361B1C44009BC9F853
:105098003043A3B19EB1D9F83003C4B2A319B3F514
:1050A800807F134BD3F8D0308CBFC4F5807434465E
:1050B8009842D0D3002389F8AF3289F8AE32AAEBF0
:1050C8000600C5E7FFF76EFF57F8042C2B6813445A
:1050D8002B600023A8EB020847F8043C019BBB4265
:1050E80005F10405BAD1CDE75646DFF80890D1E7B7
:1050F80000000020785000201FB50C4C94F8AE2218
:1051080094F8AF329A420ED002A96846FFF76CFEB7
:105118000123022202A96846FFF780FF002384F8D2
:10512800AF3284F8AE3204B010BD00BF7850002012
:10513800064BD3F8D03010B53BB1FFF70FFF04464C
:10514800FFF7DAFF024BC3F8304310BD0000002020
:1051580078500020094B70B5D3F8D0301546821826
:105168009A4288BF1D1A04460E46FFF7C5FF2A4615
:1051780031462046BDE87040B8E600BF0000002078
:1051880013460A4601461846E4E71FB50E4C94F844
:10519800AE2294F8AF329A4214D002A96846FFF7BB
:1051A80023FE0023022202A96846FFF737FFFFF714
:1051B80003FE94F8AE0294F8AF32C31A584258412D
:1051C80004B010BD0120FBE778500020F0B51E4C5C
:1051D80094F8E252C3B006460F46002DFDD10123D4
:1051E80084F8E232FCF7D8FBFF2E4FF0090388BFA2
:1051F800B5088DF804308DF8056088BF05F0C00546
:1052080001AB00224FF00A0C0B2645EA0201B85CFC
:1052180083F802C00132362AD9701E71587103F121
:105228000403F2D14AF20803ADF8DE3001AADC2308
:105238000021D4F8DC0232F0B9FBFCF7C3FB0023F1
:1052480084F8E23243B0F0BD882E0020F8B51D4C3A
:1052580094F8E23205460F46002BFDD1012384F86D
:10526800E232FCF799FBEAB206460921D4F8DC02DF
:1052780032F022FCB5F5807F05D140220A21D4F80E
:10528800DC0232F019FC50220821D4F8DC0232F09A
:1052980013FCFCF797FB0025EAB20A21D4F8DC02DC
:1052A80032F00AFC7A19C021D4F8DC02013532F058
:1052B8009FFB362DF0D10EB9FCF76EFB002384F866
:1052C800E232F8BD882E00202DE9F04F6E4B6F4E6C
:1052D80093F8E412A9B00A23002002930246034679
:1052E8000DF114094FF0050A4FEA521E674D02F0FE
:1052F8001F0205EB8E0C4FF0FF3455F82E5004FAC0
:1053080002F707EA050292FAA2F2B2FA82F2D2B2E0
:10531800202A6ED002EB4E125D4D05EB4205C2F31A
:10532800072CB5F870E34FEA1E245FFA8EF5019456
:1053380015F0040F09EB03040394D7B201F0400BF6
:1053480003F1010403F1020870D0BBF1000F08D18A
:105358000398042341F04001037009F80410434600
:10536800012028AC04EB030EAD004FF006040EF844
:105378008A4C0EF8875C0EF8844C03F10B0528ACB8
:105388004CF0020825440EF88B8C019C0EF88CAC6E
:105398004FF007080EF8897C0EF8888C0EF886AC5A
:1053A8000EF885CC0EF8837C0EF8828C0C3305F849
:1053B8008C4C4FEA521C012502F01F0705FA07F72B
:1053C800029C56F82C50013C25EA070546F82C505B
:1053D800029456D110B12C4A82F8E4122A4805AA40
:1053E8000021D0F8DC0232F0E1FA012029B0BDE852
:1053F800F08F0CF1040C274A944567460ED20CF145
:10540800040C3D6895FAA5F5B5FA85F2D2B2202AC2
:10541800F1D0BF1B12EBC7027FF57EAF10B11A4A5D
:1054280082F8E412002BD9D11846DFE7BBF1000F50
:1054380003D101F0380BAB450BD021F0780103986C
:1054480041EA0E010423C9B2037009F80410434667
:10545800012028ACE5184FF0060405F88A4C4FF0F7
:10546800070405F8897C05F8884C5F1D28AC27449B
:10547800019C05F88CAC05F88BCC063307F88C4CEE
:1054880097E7013230E700BF882E0020AC53002098
:1054980078500020E8530020F7B5234C94F8E23206
:1054A800002B3FD101230DF107028421D4F8DC023F
:1054B80084F8E23232F09CFA94F8E422D4F8DC0260
:1054C80042F00402042132F0F7FA0DF107028421B8
:1054D800D4F8DC0232F08CFA9DF8073013F004059A
:1054E800F3D13C222946114884F8E432104E37F0B3
:1054F800EFFCA6F13C0736F8023B1A0A22F020021C
:1055080003F00403134303D02946384633F0ACFFB5
:105518000135B5F5F07FEED1FFF7D6FE0028FBD1B7
:1055280084F8E20203B0F0BD882E0020AC530020BE
:10553800E853002013B5224CD4F8DC02F0B394F8F9
:10554800E032012B13D0022B13D00DF10302A0215E
:1055580032F04EFA9DF8033003F00503012B06D014
:1055680043B1D4F8942040F2DC539A4226D9402320
:1055780000E0002343F0080384F8E3328DF8053097
:1055880040F20443ADF8063004230DEB030200217A
:10559800D4F8DC028DF8041032F008FA3C22FF211E
:1055A800084837F095FC94F8E1323BB9D4F8DC327E
:1055B8000BB1FFF771FF012384F8E13202B010BD8F
:1055C800882E0020AC5300204268034B9A420CBF3F
:1055D80095209620FDF770BB006002400348D0F884
:1055E800EC3213B100F538701847704700000020FE
:1055F8000348D0F8CC3213B100F530701847704723
:10560800000000200348D0F8AC3213B100F5287030
:1056180018477047000000200348D0F88C3213B1B7
:1056280000F5207018477047000000200348D0F8A4
:105638006C3213B100F5187018477047000000204D
:105648000348D0F84C3213B100F510701847704772
:10565800000000200348D0F82C3213B100F5087080
:1056680018477047000000200348D0F80C3213B1E7
:1056780000F5007018477047000000200348D0F874
:10568800EC3113B100F5F0701847704700000020A6
:105698000348D0F8CC3113B100F5E07018477047D3
:1056A800000000200348D0F8AC3113B100F5D070E9
:1056B80018477047000000200348D0F88C3113B118
:1056C80000F5C07018477047000000200348D0F864
:1056D8006C3113B100F5B070184770470000002016
:1056E8000348D0F84C3113B100F5A0701847704743
:1056F800000000200348D0F82C3113B100F5907059
:1057080018477047000000200348D0F80C3113B147
:1057180000F58070184770470000002010B5064C4F
:105728000648D4F84C17FCF7AFFAD4F864170448C5
:10573800BDE81040FCF7A8BA7850002000040140EA
:105748000020004010B5064C0648D4F84C17FCF76A
:105758009BFAD4F860170448BDE81040FCF794BAE7
:105768007850002000040140001C004010B5064C91
:105778000648D4F84C17FCF787FAD4F85C170448A5
:10578800BDE81040FCF780BA7850002000040140C2
:1057980000180040024B0348D3F84C17FCF774BAC2
:1057A8007850002000040140024B0348D3F840170A
:1057B800FCF76ABA78500020000C0040024B0348FE
:1057C800D3F83C17FCF760BA785000200008004076
:1057D800024B0348D3F83817FCF756BA7850002024
:1057E80000040040034B4FF08040D3F83417FCF717
:1057F8004BBA00BF7850002010B5064C0648D4F8C4
:105808003017FCF741FAD4F858170448BDE810409F
:10581800FCF73ABA785000200000014000480140E7
:1058280010B5064C0648D4F83017FCF72DFAD4F812
:1058380054170448BDE81040FCF726BA78500020F9
:10584800000001400044014010B5064C0648D4F859
:105858003017FCF719FAD4F850170448BDE810407F
:10586800FCF712BA785000200000014000400140C7
:10587800024B0348D3F83017FCF706BA78500020DB
:10588800000001400B4B984212D003F58063984208
:105898000ED003F5705398420AD003F580639842FE
:1058A80006D003F5806398420CBF012002207047A0
:1058B800012070470000014043685A79032A0FD835
:1058C800DFE802F00205080B1868343070471868E2
:1058D8003830704718683C30704718684030704757
:1058E8000020704738B503681B681C68284B07EE12
:1058F800102AD3F800234368013918688DB2FFF7DE
:10590800C1FFB2FBF0F007EE900AB8EE477AF8EE66
:10591800677A87EE870ADFED1F7A30EE270A37F0BD
:1059280065FC1D4A23880138944280B29BB212D08C
:1059380002F5806294420ED0B4F1804F0BD0A2F5EC
:105948008032944207D002F58062944203D002F577
:105958008062944202D123F070039BB20F4A9442B2
:1059680006D002F5806294421CBF23F440739BB2B8
:105978002380094BE5629C42208503D003F58063B0
:105988009C4201D1002323860123A38238BD00BF96
:10599800000000200AD7233C00000140001000400E
:1059A800BFF34F8F0549064BCA6802F4E062134300
:1059B800CB60BFF34F8F00BFFDE700BF00ED00E0F5
:1059C8000400FA0508B572B600224FF0FF319300C3
:1059D80003F1604303F561430132082AC3F88010DC
:1059E800C3F88011F3D1024B024A1A60FFF7D8FFBF
:1059F800FCFF0120EFBEADDE08B572B600224FF005
:105A0800FF31930003F1604303F561430132082A33
:105A1800C3F88010C3F88011F3D1FFF7C1FF014824
:105A2800FBF736B9080300200148FBF731B900BF7E
:105A3800540500200148FBF72BB900BFA007002040
:105A48000148FBF725B900BFEC0900200148FBF726
:105A58001FB900BF380C00200148FBF719B900BF77
:105A6800840E00202DE9F34799463E4B904603EB00
:105A780080020546D2F8E040002C71D003F580730F
:105A8800636004F13E03A36104F59F73E3614FF47F
:105A98008073C4E904332368E160A36394F83D008C
:105AA80031F058FD064694F8440294F83CA0271DAE
:105AB80008B1FDF701F994F8450208B1FDF7FCF8C3
:105AC800D4F840321BB1284A116B0B43136319F009
