:020000040800F2
:1000000000000120A12004082521040811B40208E1
:1000100025210408252104082521040800000000EA
:10002000000000000000000000000000252104087E
:1000300025210408000000002521040823C6030828
:100040002521040825210408252104082521040868
:100050002521040825210408252104082521040858
:1000600025210408252104082521040859E6000853
:1000700049E6000839E6000825E6000811E6000810
:10008000FDE50008E9E5000825210408252104080C
:100090002521040825210408252104082521040818
:1000A00011D30008D9D30008FDD2000801D40008FC
:1000B000C5D30008B1D300089DD300081903010877
:1000C00025030108010301080D0301082521040887
:1000D0002521040879D100086DD1000861D10008FC
:1000E000252104082521040825210408E7D2000859
:1000F0004DD3000825D3000875D30008D5E50008C6
:10010000252104082521040889D300082521040895
:1001100055D1000849D10008252104085BBB00081F
:10012000C1E50008ADE5000899E5000885E500088F
:1001300071E5000800000000000000000000000061
:1001400000000000000000000000000081BE000868
:100150005DE5000849E5000835E500083DD10008E7
:10016000E9020108F50201082521040825210408F7
:1001700025210408252104080000000000000000DB
:100180002521040825210408252104082521040827
:100190002521040825210408000000002521040869
:1001A00000000000000000000000000025210408FD
:1001B000252104082521040800000000000000009B
:1001C000000000000000000000000000000000002F
:1001D00000000000000000000000000025210408CD
:0801E000EC1B0400010000000B
:1001E8005007022002080000000014006C070220DB
:1001F800020F0000000129008807022001150000F5
:1002080000011E00A4070220011B000000010D00D0
:10021800C0070220011C000000010E00DC070220BC
:10022800011D000000011E00F8070220011800004F
:1002380000010C00140802200119000000010E0042
:100248003008022001260100000118004C08022095
:10025800011E00000001480068080220011F00007C
:1002680000014900840802200120000000014A0022
:10027800A00802200121000000014B00BC08022058
:100288000122000000014C00D808022001230000D0
:1002980000014D00F40802200124000000014E0076
:1002A800100902200125000000014F002C0902203E
:1002B800012B010000012800480902200227010043
:1002C80000021F0064090220022D000000012C001A
:1002D80080090220012E000000003C009C09022039
:0802E800012C000000014000A0
:108000000023013830B55A1C845C64B9DBB20A4ADB
:1080100001335B000B80137003235370022310F8AD
:10802000015F15B930BD1346EDE7591CD554023335
:10803000C9B2DBB25454F2E750230120DFEDB15A4C
:108040000223B0EE655A2DE9F04F2DED108B8DB067
:10805000009003910B9201910293019B1820009ACA
:108060004FF0000AD908DB004FEA411900FB01F488
:10807000282002EB090CCA00049408926FF0170242
:1080800000FB01F430204A4307940C010CEB02077B
:10809000069407EB090600FB01F43820B518059497
:1080A00000FB01FB009805EB090400F1040E2244DB
:1080B00002EB0908DCED007A1EED017AD7ED003AFB
:1080C00077EE276AD5ED004A37EE677AD6ED007A6B
:1080D00098ED003AD2ED002A33EEA76A73EEE73A44
:1080E000D4ED007A34EEA74A74EEE77A72EE834A52
:1080F00036EEC48A76EE846A36EE640A36EE246A78
:1081000072EEC32A76EE864A76EEC66A4EED014AD4
:10811000CCED006A9CED016ADEED004A97ED014A64
:1081200074EE866A95ED013A34EEC66AD6ED014AE0
:10813000D8ED011A34EE242A34EE644AD4ED014A13
:1081400033EE241A73EE644A92ED013A73EE210A7B
:1081500033EE613A76EEC11A76EE816A32EE601A3B
:1081600032EE202A76EE820A76EEC26A38EE412A94
:10817000CEED000A9E44CCED016A78EE016A9C4483
:10818000C5ED006A71EEC06A84ED002A34EE432A20
:1081900034EE034AC5ED016A70EE216A73EEE21A0D
:1081A0001D44B0EE473AC4ED016A73EEA26AF0EEE8
:1081B000673A1C44F0EE462AE6EEA57AE6EEE53A8A
:1081C000F0EE466AB0EE646AE2EE652AE2EE256AF7
:1081D000A1EEA57AB0EE642AA4EE256AA1EEE53AF6
:1081E000A4EE652A77EE064A37EE467AC7ED004AD6
:1081F00088ED007A33EE027A33EE423A86ED007A69
:1082000036EEE77A77EEA67A82ED003A87ED017ACC
:108210001F44C8ED017A72EEE37A73EEA23A9844F5
:10822000C6ED017A1E44C2ED013A1A440198824417
:10823000039850453FF63EAF072940F26881009A07
:108240004FF0000A00984A444FF001090A92089A38
:1082500002440992079A02440892069A024407923D
:10826000059A02440692049A024405920BEB00021E
:108270000492029A6FF02F00CB4692440B9A4FEA79
:10828000CA042244D2ED001A224492ED008A22440C
:10829000D2ED004A224492ED009A2244D2ED003AF7
:1082A0002244D2ED000A2244D2ED002A00FB0A2229
:1082B000009892ED011A2244D2ED018A224492EDF7
:1082C000014A2244D2ED019A224492ED013A22441D
:1082D00092ED010A224492ED012A4FEAC90200EB15
:1082E00002080A9800EB020E099800EB020C0898AD
:1082F0008718079886180698851805988418049892
:10830000024401E0F304353FDEED007ADCED006A63
:1083100097ED007A98ED00AA96ED00BA36EEC7DA2E
:108320003AEE276A94ED00EA3AEE67AA76EE877A8B
:10833000D5ED006A3BEE267A3BEE66BAD2ED006AD6
:108340007EEE26AA36EE47FA36EE076A77EEEAEABE
:1083500077EEAA7A3EEE66EA36EE277A76EE67AADE
:1083600098ED016A88ED007ADEED017ADCED01CA54
:1083700036EE277AD6ED016A76EE67BAD7ED017A46
:10838000D4ED01FAD2ED01DA3CEEA76A7CEEE7CA41
:10839000D5ED017A36EEA7CA76EEE77A7FEEAD6AC2
:1083A0007FEEEDDA77EE4CFA37EE0CCA36EE667AEF
:1083B00036EE266A7FEE076A3FEE477A3CEE06FA13
:1083C0003CEE46CA88ED01FA3FEEEEFA29EE8C6AE1
:1083D00098447EEEAFEAA9EE2A6A8EED006A2AEE94
:1083E000E96A7DEE4EAAA9EE0C6AB0EE4ACAAAEE80
:1083F00085AAAAEEC5CAF0EE4BAA8EED016A28EE58
:108400008F6A9E44A8EE266A66EEE86AE8EE0F6A76
:1084100086ED006A3CEEED6AC6ED016A60EE2E6AFA
:108420001E44E0EE876A27EE407AA0EEAE7AC5EDF4
:10843000006A7DEE0E6AA6EE85BA85ED017A3CEE05
:10844000AD7AF0EE6BCA1D44E6EE05BAE6EEC5AABB
:10845000E6EE45CAB0EE6B6AF0EE67BAE7EE057A73
:10846000E7EE45BA7AEE276A7AEE677A3CEE2B7A27
:108470003CEE6BAA36EE4BCA3BEE066A3CEEEABA1D
:1084800061EE0CBA7AEEACAAE1EEA6BA66EEC16A6B
:10849000E1EE8C6ACCED00BACCED016A62EE066AC0
:1084A0009C44E2EEA76AC2ED006A67EEC26A63EE20
:1084B0000B7AE2EE866AE3EE877A27EE437AA3EE42
:1084C0008B7AC2ED016A1A44C7ED007A64EE2A7A0B
:1084D000E4EE8A7A87ED017A1F44C4ED007A6AEEF1
:1084E000447AE4EEAA7AC4ED017A1C4401988344EC
:1084F000039858453FF608AF09F1010949457FF453
:10850000B8AE029BDB009BB2CDE90113A5E50DB02F
:10851000BDEC108BBDE8F08F11B9114BD3F82C11C5
:108520000B6B834216D90E4BD3F82C31994202D2F1
:108530000021084670470A6B904202D38A6B904232
:10854000F7D94C39F2E70B6B984202D38B6B984208
:10855000EFD94C310B68002BF5D11946E9E700BF84
:10856000502301202DE9F84FCF012BD10346204A9B
:1085700002277E2543F8082B4FF0FF324260184651
:108580001C4E041D013D6FF0704AD6F830914FF03B
:10859000010B49460B6B07F10108BB4202D88B6BFC
:1085A000BB4213D23846FFF7B7FF014670B94946C0
:1085B00044F804BC474604346B1E2DB9C6F830118C
:1085C000BDE8F88F8025DBE71D46E3E70B794A6BB2
:1085D00023B1974208D144F804ACEBE79742FAD0B4
:1085E00002D944F8043CE5E744F8048CE2E700BF14
:1085F000F8FFFF0F50230120F0B59F080D461446E9
:108600003F01C619B04205F1100504F1100408D16C
:1086100003F0030339443A4406EB83039E4223D11B
:10862000F0BD844615ED045AD0ED016A10309CED82
:10863000006A55ED037A26EE056A10ED027A55EDD3
:10864000025A66EEA76A50ED017A04ED046A27EE3D
:10865000257A15ED016A44ED036A67EE867A04ED2A
:10866000027A44ED017ACDE7F6EC017AB1EC017AB9
:1086700067EE877AE2EC017AD0E7012380F849308F
:108680007047034B93F83403C31E58425841704758
:1086900050230120014BD3F86C0370475023012075
:1086A0000120704770477047054AD2E9DC32934297
:1086B00094BF4FF480500020013B9B1A1844704730
:1086C00050230120F0E7044B0A68C3F87803002028
:1086D000C3F86C23704700BF50230120212808B540
:1086E0000B4617D0222823D0202811D181B1072A88
:1086F0000ED1164A18790968107158799B79116062
:108700009371134B5071D3F87C330BB10020984711
:10871000002008BD0029FBD0072AF9D10B4A1168B7
:108720001960117919715179927959719A71EFE73C
:108730000029EDD0022AEBD1054AD2F88023002A85
:10874000E6D0098800209047E2E700BF0000012042
:108750005023012000207047002070470023F0B50F
:108760004E1C1F46050F0001ECB2092D94BF30349A
:10877000373401F8134006F813700133DCB2A2421B
:10878000F0D8F0BD08B50248FFF73AFC014808BD33
:108790001CF404085023012008B50248FFF730FC00
:1087A000014808BD2AF40408502301201A2310B5FB
:1087B0000B80094B186808331B68C0180AD0074B98
:1087C000082207491C68FFF7C9FF04220549204613
:1087D000FFF7C4FF044810BD107AF01F147AF01F91
:1087E0000A0001201A0001200800012008B50248F3
:1087F000FFF706FC014808BD35F4040850230120AA
:1088000008B520B90348FFF7FBFB034808BD034840
:10881000F9E700BF3AF40408502301205BF4040890
:10882000042301480B80704724000120064B10B53B
:1088300018681224054B0C8003F114020449884285
:1088400014BF1846104610BD4040024028000120C9
:108850001010DDDD30B414461A69A24209D30D1997
:108860009B69AA4238BF111B0A46E11830BC3BF095
:108870000FBF30BC704701207047012070470020B7
:108880007047002070474FF4007300201380024BA4
:10889000D3F808310B607047502301202DE9F74FC2
:1088A000704D91468846D5F88443B5F88823C2EBCD
:1088B000241352005B43C2EBE402B5F98A431B1355
:1088C0006243B5F98C435C43A41304EBE224B4F592
:1088D000FA3E4FEAE473C5F8A043AEFB0E1243F133
:1088E000FF3CCDE90012019A0EFB0CF302EB4303AF
:1088F000B5F990230193D31702FB0CF1019E0EFBF7
:108900000311A2FB0E230B441003190341EA125179
:10891000B5F9922302FB06FAD317009E06FB03AAC1
:10892000A2FB062353444FEA122AB5F88E234AEAE3
:10893000036A4FEA232B1AEB00004BEB010B0030CC
:108940004BF5004BA0FB020102FB0B114A10CB17A9
:1089500052EA030100F08380B5F99803019EC11724
:1089600000FB06F7009E06FB0177A0FB0601B5F9A8
:108970009663394406FB0CFCF7170EFB07CCA6FBED
:108980000E6767444FEA464C4FEA474E1CEB000C1B
:108990004EEAD63EB5F994634EEB010ED5F8A4131A
:1089A000C1F58011CF17C8074FEAC77AF70040F624
:1089B00035464AEA510A002111EB0C0147EB0E0E35
:1089C000401A6AEB0E0AA0FB060106FB0A1139F0F9
:1089D00081F9B5F99E234E13470B02FB06FCD31712
:1089E00047EAC14707FB03CCA2FB07236344564376
:1089F00007FB0366A2FB07233344560EB5F99C23FD
:108A000046EAC3165F1636184FEAE27341EB0707D2
:108A1000514300FB0311A2FB00230B44D10C41EA9C
:108A20004331D814761840EB0707320AB5F99A0398
:108A300042EA076203011344B8F1000F02D01B0A97
:108A4000C8F80030B9F1000F05D004EB840480347D
:108A50002412C9F80040012003B0BDE8F08F0023C4
:108A6000EAE700BF50230120012070470120704732
:108A70004FF4006383817047436A8269D154436A2B
:108A800002690133934228BF0023426B436213689B
:108A900043F08003136070470246036A4169C85C73
:108AA0000133D1688B4228BF002313627047D0E99D
:108AB0000902131A584258417047D0E90923006946
:108AC0009A4238BF12180138D31AC01A7047D0E939
:108AD00007239A422FBFD01AC0688018C01A704767
:108AE000036920221F2B70B5446830D9A3F12005FB
:108AF0006168AA400A4214BF0122002232B3806991
:108B0000027C022A01D10022027445681F2B134AFD
:108B1000298AC1F3021102EB81018968565CC168A0
:108B20004868815921F00101815128686D79C16837
:108B300002EB4502128D02F4F05221EA0202C260F9
:108B40004FF0200206D9203B9A40E26070BD2168B8
:108B50009A40CFE702FA03F3A360F7E778770408B7
:108B6000104B984217D0A3F57843984215D003F5DF
:108B70008063984213D003F5784398420AD10323C7
:108B8000094A142101FB0323B3F86020013292B299
:108B9000A3F8602070470023F2E70123F0E70223E7
:108BA000EEE700BF0030014000000120F8B50446A8
:108BB00046180B4D0B4FB44200D1F8BDD5F87433B5
:108BC00014F8012BFA540133C3F30B03C5F87433C3
:108BD000FFF76AFD0028EED1012033F016FDF7E71C
:108BE000502301207095012010B5002390F8481003
:108BF00080F8483089B10B4C94F83423032A0ED105
:108C0000D4F8A8333430D4F85023D2F81432002BDF
:108C1000FBD1FFF7CBFFD4F8A833012010BD1846D5
:108C2000FCE700BF50230120002280F84920DBE749
:108C300090F84820531C0244DBB280F8483082F898
:108C4000341090F849200AB1132B00D9CCE77047B3
:108C500038B50D46FFF715FD80B1094C002AD4F850
:108C6000A8330BDDD4F85013D1F81432002BFBD10C
:108C700011462846FFF79AFFD4F8A83338BD00BF45
:108C80005023012007B58DF80700012305480DF199
:108C900007020021D0F8AC0333F08AFF03B05DF87F
:108CA00004FB00BF502301202DE9F843089D0E4628
:108CB000174600212022044698463BF0F1FE5DB1A4
:108CC0002B68C3F30F42E3816B682282E382C3F314
:108CD0000F426B8922836382304638F009FAFB0623
:108CE00004D400F1FF39B9F1FF3F41D10828024611
:108CF0004FF0FF394FF00005A8BF08224FF0203396
:108D00003146204663602360C4F807303BF0C0FC66
:108D100004F1080309F101012A46184631443BF0E9
:108D2000B7FC621E0346E01D12F8011FA1F16105A8
:108D3000192D9CBF203911709042F5D1184604F1CD
:108D40000B0210F8013BA3F1610119299CBF203BE4
:108D500000F8013C9042F4D11823E772A4F81A807D
:108D60002373C8F30F43A382099BE361BDE8F88333
:108D700016F809302E2B02D009F1FF39B3E74A4625
:108D8000A0EB0905082A05F1FF35A8BF0822032D2D
:108D9000A8BF0325B2E72DE9F04F164685B00D1D9B
:108DA00003EB0209B84F4E45A5F1040403D100209E
:108DB00005B0BDE8F08FD7F82021B24200F2B580AF
:108DC000A6EB0208D7F830A14FEAD803DAF8302032
:108DD00008F007080233934203D3DAF838209342AD
:108DE00016D9514618460393FFF796FB039B82461C
:108DF00060B9A5F1080305F5FC72A44943F8041F06
:108E00009342FAD1013605F50075CCE7C7F8300179
:108E10009AF80420002A6DD04FF4007200212046F9
:108E20003BF03EFEDAF84030B8F1000F47D105F1D3
:108E30001C0BCDE9008843BB434620460822D7F8E7
:108E40000C11FFF731FF5C464FF4F073DAF8448001
:108E500004EB030AB8F1000FD4D05445D2D098F8EF
:108E6000042004F1200BD8F8001008F11C00D8F8F9
:108E70003030B2B30022CDE90002112220465C4618
:108E8000FFF712FFD8F84880E4E7DAF83030112213
:108E900020467F49FFF708FFDAF8403005F13C042F
:108EA0001A6CCDE9008842B94346112279495846E7
:108EB000FFF7FAFE4FF4E073C8E71B6BF5E7002BF2
:108EC0000CBF01220222C2EB0812DAF84480B8F18A
:108ED000000F03D0013AD8F84880F8D14FF400735E
:108EE000B6E798F805C0D8F81020CDE900024CF09C
:108EF0002102C3E7DAF828B0BBF1000F06D14FF426
:108F00000072002120463BF0CBFD7BE7DAF83020F1
:108F10004FF4007120469B1ADAF80C2008EBC308C6
:108F2000534602EB4822D8476CE7002E70D14FF42D
:108F30000072314620463BF0B3FD802384F8B861CF
:108F400084F8B96184F8BA6184F8BB6184F8BC61C3
:108F500084F8BD6185F8BA310C234F4985F8BE31DC
:108F6000D7F81021D7F808318A42C4F8C621C4F8CE
:108F7000CA3118DDFF2285F8BB2185F8BD2185F8AF
:108F8000BC21013B444A934228DDFF2385F8BF31D1
:108F900085F8C13185F8C031552385F8FA31AA2307
:108FA00085F8FB312EE73F2143F6C16492FBF1F1D6
:108FB00092FBF4F4C1EB811C85F8BD41A010A2EB3B
:108FC0000C0220F03F000132024385F8BC21FF2251
:108FD00091FBF2F2114485F8BB11D2E73F2243F630
:108FE000C16093FBF2F293FBF0F0C2EB821485F8C0
:108FF000C10181101B1B21F03F0101330B4385F898
:10900000C031FF2392FBF3F31A4485F8BF21C3E775
:10901000D7F814319E4241D152234FF0000841222B
:1090200072212370284663706123E270A37084F874
:10903000E731D7F8283184F8E411C4F8E8314FF06B
:10904000FF3384F8E511414684F8E6214FF4F072CD
:1090500084F8EC3184F8ED3184F8EE3184F8EF31A6
:109060003BF01EFD5523C5F8EC81C5F8F081C5F82D
:10907000F48184F8FE316FF0550384F8FC8184F8A4
:10908000FD8184F8FF31BDE650230120DEADBEEF47
:109090001700050816000508FF03FB00D7F810317C
:1090A0009E427AD14FF40072002120463BF0F8FC3A
:1090B000EB23424A4FF0080C05F8043C5823F821F2
:1090C00005F8033C902305F8023C136845F8013C81
:1090D00053680222C5F8033000232273E37285F837
:1090E00009C0A273E3732A736374A374E3742375D2
:1090F00069743F21D7F8100121764FF0FF31A37535
:10910000A1763E21E3752177D7F808116376091A15
:10911000E3766377A377E3772162D7E9460184F8A2
:109120002830091A84F82930616285F8263085F8DC
:10913000273084F82C20012284F82D3084F82E303A
:1091400084F82F3084F8313084F8323084F83330AA
:10915000802384F8302085F83C302923184985F88D
:109160003E309423174A85F83F300E2385F842C0DD
:1091700085F840300D2385F841300B68C5F8433041
:109180004B68C5F847308B68C5F84B301368C5F895
:109190004E305368C5F85230FEE6D7E946138E428A
:1091A00006D39E4207D2711A2046FFF7DBF929E663
:1091B0009E42FFF4A4AEF11AF6E700BF7CF4040867
:1091C00085F4040892F40408054B002193F8B723B2
:1091D000D3F8B00302F0F70283F8B72333F048BDA9
:1091E0005023012010B5044600222121006833F0ED
:1091F0003FFDFC222021206833F03AFD402224214B
:10920000206833F035FD0C222321206833F030FD37
:1092100000222221206833F02BFD012010BD10B563
:10922000012204461021006833F022FD48B11420C9
:1092300033F0EBF92068A0221121BDE8104033F093
:1092400017BD10BD10B5072204460A21006833F08F
:109250000FFD052033F0D9F924224121206833F095
:1092600007FD052033F0D1F9C0224221206833F0F8
:10927000FFFC052033F0C9F9012010BD10B5012213
:1092800004460B21006833F0F3FC20B11D220921B4
:10929000206833F0EDFC00F0010010BD10B578221D
:1092A00004460021006833F0E3FC052033F0ADF9FB
:1092B00020220121206833F0DBFC052033F0A5F9E2
:1092C00000220221206833F0D3FC642033F09DF9A2
:1092D000012010BD08B53122F421006833F0C8FC2C
:1092E000012008BD13B5084C0DF10702A021D4F8E8
:1092F000B00333F07FFC0028F6D09DF807309B06C2
:10930000F2D402B010BD00BF502301201FB50023CE
:1093100004460DF10702272100688DF8073033F06D
:1093200069FC68B19DF8070010F0080008D006231A
:1093300002AA2821206833F07CFC18B9E086A063DB
:1093400004B010BD9DF809209DF8083043EA0223BF
:109350009DF80B201BB2002BB8BF03339B10E38694
:109360009DF80A3043EA02239DF80D201BB2002B22
:10937000B8BF03339B1023879DF80C3043EA0223C8
:109380001BB2002BB8BF03339B106387D8E71FB510
:10939000002104460DF10702C1868163006833F0A5
:1093A00029FC08B39DF8070010F008001CD0062324
:1093B00002AA0121206833F03CFCA8B19DF80820E6
:1093C0009DF8093043EA02239DF80A20E3869DF8C0
:1093D0000B3043EA02239DF80C2023879DF80D30C3
:1093E00043EA02235B42638704B010BD002313B538
:1093F000C386044683636A4606230321006833F06C
:1094000018FCE0B19DF801209DF8003043EA0223EA
:109410009DF8032003EB4303E3869DF8023043EA03
:1094200002239DF805201BB25B4203EB4303238715
:109430009DF8043043EA022303EB4303638702B041
:1094400010BD30B5002585B004460621C5860DF156
:1094500007028563006833F0CDFB00B39DF8070079
:1094600010F004001BD0062302AA2946206833F01E
:10947000E0FBA0B19DF809209DF8083043EA0223E3
:109480009DF80B20E3869DF80A3043EA02239DF8FD
:109490000D2023879DF80C3043EA0223638705B033
:1094A00030BD13B5044600686A460379022B4FF0BD
:1094B00006030CBF4321032133F0BBFB18B9E08640
:1094C000A06302B010BD9DF800209DF8013043EA72
:1094D00002239DF80220E3869DF8033043EA02232D
:1094E0009DF8042063879DF8053043EA0223238713
:1094F000E7E713B506236A46F721006833F099FBC6
:10950000144BE8B19DF801109DF8002009019DF869
:10951000034041EA02319DF8022041EA12119DF810
:1095200004201201C3F8A41342EA04329DF8054056
:1095300042EA1412C3F88423C3E9EF1202B010BD4B
:10954000D3F8BC23C3F8A423D3F8C023C3F88423DF
:10955000F4E700BF502301202DE9F043026B0646DB
:10956000DFF8BCC189B004684FF0000E90F82D30D0
:10957000614669486546B0FBF2F0012291F8069019
:1095800001F10608A3EB0E010132A3EB0907002F3E
:10959000B8BF7F420029B8BF49428F424146BCBF95
:1095A0004FFA89FE4546102AE8D1002780B29CF880
:1095B000002072450DD16988BCF80220411A821A38
:1095C0000029B8BF4942002AB8BF52429142C8BFE1
:1095D000654601370CF1060C102FE8D16A7903219A
:1095E00004922A7903926A8802922A78CDE90002CD
:1095F0004A4A012034F0A8FE6A88474B00212046E1
:10960000B3FBF2F3B36333F0FAFB80226B21204605
:1096100033F02EFB962032F0F8FF0322682120461B
:1096200033F026FB962032F0F0FF03226B21204618
:1096300033F01EFB0F20002132F0D4FF3A466A219E
:10964000204633F015FB0F20002132F0CBFF002223
:109650006C21204633F00CFB0F20002132F0C2FFBA
:109660006A791921204633F003FB0F20002132F0E4
:10967000B9FF18221B21204633F0FAFA0F200021EF
:1096800032F0B0FF18221C21204633F0F1FA0F20EF
:10969000002132F0A7FF3A463721204633F0E8FA9E
:1096A0000F20002132F09EFF2A791A21204633F044
:1096B000DFFA0120002132F095FF0321204633F02C
:1096C0009EFB062306AA4321306833F0B2FAA0B10C
:1096D0009DF818209DF8193043EA02239DF81A20BE
:1096E00033849DF81B3043EA02239DF81C207384C9
:1096F0009DF81D3043EA0223B38496F922300133EA
:1097000006D196F92030013302D1062032F0BCFF99
:1097100009B0BDE8F08300BF40420F009BF404088D
:10972000A8770408436BDA69910670B5044613D52F
:10973000586AE36AC0B2002B4AD0216B9847636B2A
:109740001A6822F480721A609A6822F001029A6004
:109750009A6942F008029A61636BDA69D20701D50F
:1097600001221A62DA69960701D502221A62DA69C1
:10977000550701D504221A62DA69100701D50822BB
:109780001A62DA6911060ED594F89D20212A0AD0B2
:10979000D4E909128A4227D10022A4F886201A6847
:1097A00022F080021A60DA69520640F19380DA6989
:1097B00004F13400196816079D6821D1960640F11E
:1097C0008A808D0640F18780BDE8704035F003BC8B
:1097D000E3696269D054E369E1680133B3FBF1F2F4
:1097E00001FB1233E361AAE7A169895C0132C9B2C6
:1097F00099622069B2FBF0F100FB1122A262D2E76C
:1098000005F0010501F490762E4364D0D60709D502
:10981000CE0507D501261E62D4F8A06046F00106E9
:10982000C4F8A060960708D53DB102261E62D4F8A0
:10983000A06046F00406C4F8A060560708D53DB104
:1098400004261E62D4F8A06046F00206C4F8A060A8
:1098500016070AD501F02006354306D008251D62FB
:10986000D4F8A0302B43C4F8A030D4F8A030002B9B
:1098700030D0960603D58D0601D535F0ACFBD4F873
:10988000A020636B110703D49A6812F040021FD026
:109890001A6822F490721A609A6822F001029A60A3
:1098A000202284F89E209A68520613D59A68D4F82C
:1098B000980022F040029A6060B1254B036536F0B3
:1098C00093FE38B1D4F89800BDE87040036D184796
:1098D000C4F8A02070BD16062ED50D062CD594F820
:1098E0009D20212AF6D1B4F8862092B242B91A6896
:1098F00022F080021A601A6842F040021A60E9E71A
:10990000E16BD4F88020B1F5805F0FD1616C69B94B
:1099100032F8021BC1F308019962C4F88020B4F840
:109920008630013B9BB2A4F88630D3E7511CC4F8C3
:10993000801012789A62F2E75006CBD54A06C9D554
:109940001A6822F040021A60202384F89D30C1E793
:1099500027BD03082DE9F34706690546C3680C4691
:109960004FF0004901F150071E4001F1380816B9C7
:1099700002B0BDE8F087B6FA86F329FA03F21B3B82
:10998000D2432A611640002C42D0042BEFD8DFE8E6
:1099900003F03B36302903002369D5F82CA033B1FE
:1099A0009B6823B11FFA8AF104F108009847A36A63
:1099B00033B19B6823B11FFA8AF104F12000984764
:1099C000236C2BB19B681BB11FFA8AF14046984764
:1099D000A36D002BCBD09B68002BC8D01FFA8AF157
:1099E000384604E0236904F10800696B5B68984716
:1099F000BDE7A36A04F12000A96B5B68F7E7236C5D
:109A00004046E96B5B68F2E7A36D296C5B68E7E7AA
:109A1000042B06D8DFE803F00D0B09070300EB6AFF
:109A20000193019BA3E76B6BFAE7AB6BF8E7EB6B7A
:109A3000F6E72B6CF4E72F4B002210B5C3F8DC23BC
:109A40004CF25034D3F8E0032B4AD168C90341D417
:109A5000D16811F4F97144D0D268900705D5D3F8D4
:109A6000DC2342F02002C3F8DC23234AD168C90674
:109A700005D5D3F8DC1341F01001C3F8DC13D2682C
:109A8000920605D5D3F8DC2342F00802C3F8DC23A4
:109A9000194AD1684C0605D5D3F8DC1341F004010E
:109AA000C3F8DC13D268100605D5D3F8DC2342F0E6
:109AB0000202C3F8DC23104AD168C90505D5D3F8E2
:109AC000DC1341F04001C3F8DC134FF4F9730120BB
:109AD000D36010BDD3F8E013091AA142B5D9032011
:109AE000F7E7D06810F00100F3D001230846D360F7
:109AF000EFE700BF50230120003C0240144BDB681D
:109B0000C3F3022310B5C3F107041A1D042C28BFA8
:109B10000424062A88BFDA1E4FF0FF3398BF0022C4
:109B2000002803FA04F321EA030303FA02F34FEADD
:109B30000313DBB206DB00F1604000F5614080F802
:109B4000003310BD00F00F00024A1354F9E700BFC4
:109B500000ED00E014ED00E0294B2A4A13B52A4C31
:109B6000C4F8E43342F20F73C4F8F033274BD3F850
:109B7000A030B3FBF2F3013BC4F8E8330023C4F890
:109B8000F433C4F8EC3394F8213403F0FF020BB93A
:109B900084F8202402231E49194884F8213436F021
:109BA0009FFC01230621372084F82134194B1A6CBD
:109BB00042F020021A641B6C03F020030193019B06
:109BC000FFF79CFF144B4FF4000200205A60D4F8BA
:109BD000E433DA6842F00102DA601A6842F0010206
:109BE0001A60D4F850330D4AC3F81002C3F80822A3
:109BF0000B4AC4E9DF00C3F8042202B010BD00BF65
:109C00000014004080841E00502301200000012029
:109C1000382701200038024000E100E07095012063
:109C20007085012008B50E4B4FF47A72D3F8A0303E
:109C3000B3FBF2F3013BB3F1807F09D2094AF02173
:109C40005360094B83F823100023936007231360AC
:109C500000214FF0FF30FFF751FF002008BD00BF8B
:109C60000000012010E000E000ED00E0026838B5DF
:109C70000446906910F010002ED0184D936913F02F
:109C800020031CD0102320252046D361D56135F058
:109C9000FFFB22680120536823F0FF7323F48B330A
:109CA00023F4FF7323F00103536004236364002350
:109CB00084F8415084F8403084F842300CE0D5F804
:109CC000E003401A0A28D9D92022032084F8403022
:109CD00084F8412084F8423038BD00BF5023012071
:109CE00070B504460D46104E23689B699B0701D54D
:109CF000002015E029462046FFF7B8FF88B9D6F8BE
:109D0000E0335B1B0A2BEFD9636C84F8400043F00F
:109D100020036364202384F8413084F84200032048
:109D200070BD0120FCE700BF5023012070B5044640
:109D30000D46104E23689B699B0601D5002015E057
:109D400029462046FFF792FF88B9D6F8E0335B1B1F
:109D50000A2BEFD9636C84F8400043F0200363645E
:109D6000202384F8413084F84200032070BD012094
:109D7000FCE700BF502301202DE9F0474FF0A0433E
:109D8000C44D00260321C5F82434042305F59C7234
:109D9000C14CC5F828344023C5F8202805F22442D8
:109DA000C5F83834022385F8DD1788B0C5F83C348F
:109DB000C5F83034C5F85464C5F83464C5F8446453
:109DC000C5F84064C5F85064C5F84864C5F8682310
:109DD000226BB24842F001022263226B02F00102C0
:109DE0000292029A4FF4C052CDE903230A23CDE92F
:109DF000056103A9079334F041FDD5F85034012BD8
:109E000008D14FF4007303A9A4480596CDE90336A1
:109E100034F034FD636B0621432043F08003636319
:109E2000636B03F080030093009B636C43F48043F7
:109E30006364636C03F480430193019BFFF75EFE50
:109E4000974B0822D5F824449A60A368D5F8346467
:109E500023F00103A360D5F83C34012B40F02A81A4
:109E6000A36BD5F8582423F48033012AA363E36855
:109E700023F4840323F04003E360E36823F44013F6
:109E8000E36003D1E36843F48013E360204635F0D8
:109E9000D7F8012E07D1A36843F00603A360A36897
:109EA00043F02003A360D5F8243432200124DA687B
:109EB00022F0C042DA60DA6842F08042DA6034F0C0
:109EC000D5FF784B00211A46084682F83810D18712
:109ED000013182F839400F2982F83B00D064C2E991
:109EE000100002F11C02F0D10022D5F824441146E2
:109EF00083F8F82102F14000DA87013204EB800098
:109F000083F8F9110F2A83F8FB11C3F80C12C3E987
:109F10008011416003F11C03EAD1A36BD5F85074A2
:109F200043F40013D5F82894D5F83024D5F83484B8
:109F3000D5F83C14D5F840A4A3635FB9A36B23F410
:109F40000013A363236843F040032360236843F0B6
:109F5000800323600023012904F50066C4F8003E55
:109F6000D4F80038C4F80038D4F8003840F0AD8098
:109F7000002A40F0B080C4F800381021204635F0A7
:109F8000E3F910232361484B013B02D02269D2063A
:109F9000FAD400234FF0FF324FF090404FF0FF0C07
:109FA000336119467361B26104F51062F3614B4588
:109FB00040F09480002204F530634FF090404FF061
:109FC000FF0C11464A4540F097803369B8F1010F04
:109FD00023F48073336108D1344B3363336B43F420
:109FE000803343F003033363336B0023A3616FF0CB
:109FF00080436361B8F1000F03D1A36943F01003FC
:10A00000A361A2692A4B1343A361BAF1000F03D0E5
:10A01000A36943F00803A361012F05D1A36943F0AD
:10A02000804343F00403A361D5F848240123012AA7
:10A0300085F8DD37D5F824340ED1C5F8182800226C
:10A0400085F810289A6942F000629A615A6D42F0D0
:10A05000805242F003025A65D3F80428032042F0EC
:10A060000202C3F8042834F001FFD5F8243480221A
:10A0700000205A625A6A42F480029A625A6A996AC5
:10A0800002EB114242F40002C3F8042108B0BDE81B
:10A09000F08700BF5023012000380240000002403A
:10A0A00000E100E074270120410D03000001800061
:10A0B00000383C80E368204643F04003E36034F01E
:10A0C000BFFF4FF48033A363E3E603293FF450AFAF
:10A0D00043F003034FE743F001034CE7D2F800E0FD
:10A0E000BEF1000F06DA106011610133C2F808C03A
:10A0F00020325CE71160F7E7D3F800E0BEF1000F13
:10A1000006DA186019610132C3F808C0203359E734
:10A110001960F7E7D0F82802120210B590F85D3206
:10A1200000EBC3040133DBB284F83C12C4F84022D4
:10A13000042B08BF002380F85D3210BD2DE9F047E5
:10A1400090B00E460746904600213A220DF10600D7
:10A1500099461A9DDDE9184A3AF0A2FC344B8DF875
:10A1600004600293CDF834A0002E55D0022E55D0B5
:10A17000032E55D0042E55D103232E4A02EB430360
:10A1800093F891308DF805302B4B0394D3F8A82326
:10A19000069714440122CDE904458DF831201D466F
:10A1A000B8F1000F06D04A46414607A83AF070FAC7
:10A1B0008DF8309095F866E80023BEF1010F0E93FC
:10A1C0001FD895F865C83C240DF1040A0EF1010E64
:10A1D00004FB0C54BCFA8CFC85F866E804F66804B1
:10A1E0004FEA5C1CBAE80F000FC4BAE80F000FC4B6
:10A1F000BAE80F000FC49AE8070084E8070085F862
:10A2000065C83B6883B14B4642463146384610B07C
:10A21000BDE8F0471BF08FBB3346AEE70123ACE748
:10A220000223AAE70023ADE710B0BDE8F08700BF26
:10A23000742B01207877040850230120420900F094
:10A240001F030120032A00FA03F008D0042A0BD0D0
:10A25000022A0DD1074B5A6C104358647047054BC6
:10A260001A6C104318647047024B1A6B1043186342
:10A27000704700BF003802404268034B9A420CBF4F
:10A2800095209620DAE700BF0060024037B5414CC8
:10A29000D4F8AC53002D7BD110232A462D21022067
:10A2A00034F031FCC4F8AC0378B3032132F0A7FDDD
:10A2B0009F233220009332F0A8F904236A46D4F891
:10A2C000AC030DEB03018DF8055032F071FC9DF8E5
:10A2D00006309DF805201B0243EA02439DF8072043
:10A2E00013432D4A93422D4A4DD035DC2C498B42E5
:10A2F00047D00CDC2B498B4214D02B498B4244D0E5
:10A300000020C2F8A400C2E92B0003B030BD2749E9
:10A310008B4236D001318B4237D0A1F51A41033937
:10A320008B42EDD1224BC2F8A430B2F8A830B2F87B
:10A33000A4101B02C2F8AC304B43B3F1807FC2F8CB
:10A34000B03005D90123B72084F8E438FEF79AFC31
:10A35000012084F8E508D8E716498B42E2D007DCF3
:10A3600015498B420DD002318B42C9D1134BDAE72C
:10A3700013498B4209D001318B42F7D002398B420D
:10A38000BED1104BCFE7104BCDE74FF00123CAE70A
:10A390000120BAE7502301201620C200000001204E
:10A3A00017301C00154001001860010017BA20008A
:10A3B000200000011540EF001720C200000200013C
:10A3C0001840EF008000000140000001031EBABFEA
:10A3D0002D2258420A2210B50C46BCBF01F8012BB1
:10A3E0000A2233F02BF800230370204610BDF0B58D
:10A3F000264D85B006464FF4787305F6481105F5ED
:10A400001262C5F818192249C5F81429C5F80419AB
:10A410000021013122F8023B1229FAD142F6F8223A
:10A4200000231C4F402085F8E818C7E902231A4B87
:10A43000C5F808391CF0D0F8044620B307F0CAF973
:10A4400094F904C095F88E39041E95F88F1960466A
:10A4500014BF03220122002B00960CBF0723062302
:10A46000002914BF082100210B434021CDE901231D
:10A4700007F16003094A1CF0ABFD0CB1C5F8B00947
:10A48000003018BF012005B0F0BD00BF50230120EF
:10A49000D5320208382C012027340208D5380208AA
:10A4A000642828BF642000EB800070B54500642458
:10A4B0000026B5FBF4F4E4B2F3B29C4212D80A2CA5
:10A4C0000BD01420B5FBF0F0C4EB84156638C4EB58
:10A4D00085052844C0B215F061FE0134E4B2092CB0
:10A4E00005D970BD9F20013615F058FEE4E79A208B
:10A4F000F1E770B5074D01244FF4067655F8040BCB
:10A5000020B1C6800121047234F0BCFA0134042C5D
:10A51000F4D170BD1078040870B505460D4C0C26BA
:10A5200094F8B439062B01D9002011E05A1C06FB1F
:10A53000034384F8B429D3F8B829D107F0D51542DC
:10A54000EED093F9BC091CF031FD0028E8D040683A
:10A5500070BD00BF50230120024B002283F8B429B4
:10A56000DAE700BF50230120254B102030B51D78BD
:10A570001A460133A5F13001092927D90021204CC1
:10A58000131B022B25DC0023A2422CD82E2D34D104
:10A59000501C04240022057802EB8202013C303D6D
:10A5A0005200092D92B29EBF5219013092B214F09E
:10A5B000FF04F0D164205043124A02FB030006233B
:10A5C000B0FBF3F0104B03FB010001E00138CED1EA
:10A5D00030BD01EB810114F8010B49003039014411
:10A5E00001F0FF01CCE703EB830314F8010B5B00E0
:10A5F000303B034403F0FF03C6E70022DAE700BF65
:10A60000602D012040420F0080969800002330B555
:10A6100051F8234052F82350641B40F82340013383
:10A62000032BF5D130BD2DE9FF4115468046084684
:10A630003C2433F062F84FF47A72002306460F464A
:10A6400037F048FBB5F900304FF47A7239460027ED
:10A6500003FB04043046002337F03CFB4FF47A73CD
:10A6600096B201A8C3FB04673B46324632F0C0FFF6
:10A67000394B93F8223A012B09D0022B35D03246C0
:10A680003B46404632F0B4FF04B0BDE8F0819DF88F
:10A690000640E31E072BF2D8231F052B0DD92146B8
:10A6A000BDF8040032F052FF9DF8073098420ED0FA
:10A6B000E11E18BF01210029E1D02B883C332B80FB
:10A6C000264BF6184FF0000343EB0707D7E7032CA0
:10A6D00003D19DF808100031EBE70A2CCFD19DF88B
:10A6E0000810B1FA81F14909E5E79DF80640E31E3B
:10A6F000082BC4D8231F062BDFD92146BDF8040040
:10A7000032F024FF032C12D10E280ADC9DF807300A
:10A71000984208D19DF80810012994BF0021012119
:10A72000C9E70738F0E7B4BF01210021C3E70B2CCC
:10A73000A5D107280ADC9DF80730984208D19DF87A
:10A74000081001298CBF00210121B4E70738F0E788
:10A75000CCBF01210021AEE75023012080EE36005E
:10A7600030B5046885B0E4692CB10DF10F05009592
:10A77000A04705B030BD2046FBE708B506482DF0E0
:10A78000BFFF064830F0C4FA054B93F8242A12B1F3
:10A79000012283F8252A08BDD4F40408E0F4040853
:10A7A000502301202DE9F04F074687B09046994687
:10A7B0000025DFF8A4A00591B8F1000F07DBA8453C
:10A7C00005D00135042DF7D107B0BDE8F08FD623B1
:10A7D000059A00246B4302EB030B1E4AD318049323
:10A7E000B9F1000F01DBA1452FD1049B38463BF89E
:10A7F000146033F81430F21AC3F344115642564130
:10A8000013F4006F03F01F0214BF56234823CDE951
:10A810000042CDE9021352462B4631462EF04AFF44
:10A820003BF81430384613F4006F03F01F02C3F3F3
:10A83000441114BF56234823CDE90042CDE9021349
:10A8400052462B4631462EF04BFF01346B2CC7D1BC
:10A85000B7E700BF782D0120EDF404082DE9F04F93
:10A8600041F2BC63354C8846354AE15C0027354BE4
:10A870004646DFF8D8B087B0002908BF1A4641F233
:10A88000BD6381463048E15604F55C642EF03AFB26
:10A89000B8F1000F50D096F800A094F85C03F1686E
:10A8A0005045B6F910C096F816E0D6E9013241D10C
:10A8B000D4F8600398423DD1D4F86403904239D172
:10A8C000D4F86803884235D1B4F96C03604531D1BE
:10A8D00094F87253A5EB0E00454245414846CDE938
:10A8E0000221CDE900A3CDE904CE3B465A462946D4
:10A8F0002EF0E0FE94F872335A46294648460593F6
:10A900001834B4F9543318360493D4F850330393FD
:10A91000D4F84C330293D4F84833019394F8443379
:10A9200000933B4601372EF0DBFE3C2FB0D107B041
:10A93000BDE8F08F0025D1E74546DBE75023012035
:10A940004C21050807F504080AF5040819F5040860
:10A9500070B541F2A803204D04460E46EB5C2DED88
:10A96000028B93B341F2B003EB58036041F2B4039E
:10A97000EB58436041F2B803EB58836005F55C6324
:10A9800093EDBB8ADFED158A96ED000A80EE280A6A
:10A990003AF096FA236896ED010A184428EE288AC0
:10A9A000206080EE080A3AF08BFA636896ED020A9E
:10A9B000184460603AF084FAA368BDEC028B184436
:10A9C00041F2A803A060E85C70BDC0E90033836079
:10A9D000B7EE008AD6E700BF502301202C7D8E3FC2
:10A9E00070B541F2A8031E4CE55CA5B341F2B00678
:10A9F0000B68DFED1C6A012AA65918BF41F2B802A4
:10AA0000A3EB060341F2B40618BFA25807EE103AB2
:10AA1000A6594B68B8EEC77AA3EB060327EE267A51
:10AA200007EE903A04F55C63F8EEE77A80ED007A81
:10AA300093EDBB7A8B6827EE267A18BF9B1A67EED8
:10AA4000877AC0ED017A07EE903AF8EEE77AC0ED2A
:10AA5000027A284670BD0023036043608360F8E7F4
:10AA6000502301202C7D8E3F0C46054608B51BF077
:10AA70006FFB20461BF06CFB284631F04EFE30B1D8
:10AA8000284631F044FE0146204631F049FE20467A
:10AA900031F043FE0028EFD0204631F038FE014669
:10AAA000284631F03DFEE7E7F0B50C46054689B093
:10AAB00014220021204639F0F3FF2A6804A900235C
:10AAC000C2F385501D4E0D4640FA03F7FF0748BFFD
:10AAD0009F5D03F1010348BF01F8017B062BF3D111
:10AAE00000231748C2F305360B70C2F3032101445B
:10AAF000B13091F8AA108DF818100DF1190146FA2D
:10AB000003F7FF0748BF1F5C03F1010348BF01F8CB
:10AB1000017B062BF3D1002320460B70C2F3834345
:10AB20000849029306ABCDE9005302F00F03C2F3CC
:10AB3000031232F0A8FE09B0F0BD00BF1C78040873
:10AB40007877040831F504081FB5314901A84A7D1A
:10AB500058313CF0E5FD0398F7EE086A019A80EA67
:10AB6000E073A3EBE07307EE903A82EAE273F8EE4B
:10AB7000E77AA3EBE27307EE103A029BC7EEA65A00
:10AB8000B8EEC77AF4EEC75AF1EE10FA13DD83EA95
:10AB9000E371A1EBE37106EE101AB8EEC66AF4EEAB
:10ABA000C65AF1EE10FA06DD0028CCBF00200120C5
:10ABB00005B05DF804FBC7EE265A83EAE371A1EB0A
:10ABC000E37106EE101AB8EEC66AF4EEC65AF1EE5C
:10ABD00010FA09DDF4EEE57AF1EE10FA04D5002A58
:10ABE000CCBF02200320E3E7C6EE265AB4EEE57A96
:10ABF000F1EE10FA09D5F4EEE57AF1EE10FA04D58B
:10AC0000002BCCBF04200520D2E74FF0FF30CFE768
:10AC10000000002030B52A4C94F8F4358B424ED118
:10AC200094F8F525DFED276A04EB42010132D4F8F0
:10AC3000185602F00F02B1F8F635A1F8F60584F8BF
:10AC4000F525C31A204A2B4492F89C1992F89D29A5
:10AC500007EE101AC4F818361B09B8EEC77AA4F824
:10AC60001C3627EE267AFDEEC77A17EE901A07EE0D
:10AC7000902AF8EEE77A67EEA67AFDEEE77A17EE0D
:10AC8000902A91420FDD9BB29A42D4BF9B1A0023B7
:10AC90009942AABFCB1A00239BB2A4F81C360B46DC
:10ACA00017EE901A1A46B4F81C36521A5B1AC3EB08
:10ACB000832393FBF2F282F30A02A4F81C2630BD30
:10ACC0004834012014AE2341502301202DE9F043E4
:10ACD000DE4C94F8FD312DED028B83B0062B30D87D
:10ACE000DFE813F00700CA00D60029017E015502F3
:10ACF000A302B4F800C2D6484FEA5C01D4F804229B
:10AD000000EB8C08A0F5DA758B0096464FEADC0C58
:10AD10004746C618434402EB0C1CE64507F11007F2
:10AD200006F1100603F1100305F1100519D18DB2DB
:10AD30002946FDF783F9D4F8042229464046FDF759
:10AD40007DF994F8FD3107220133B3FBF2F2C2EB37
:10AD5000C2029B1A84F8FD3103B0BDEC028BBDE842
:10AD6000F08317ED040A0EF1100E95ED696A57EDA8
:10AD7000030A36EE008A95ED6A4A53ED046A36EE10
:10AD8000406A53ED034A17ED027A17ED015A56ED6A
:10AD9000032A16ED023A56ED013A53ED027A53EDCD
:10ADA000015A16ED042A85ED698A34EE208A95ED64
:10ADB0006B1A34EE604AD5ED6C1A85ED6A8A31EE75
:10ADC000078A31EE477A85ED6B8A31EE858A31EE5E
:10ADD000C55A72EE261A85ED6C8A76EEC26A46ED89
:10ADE000041A72EEA41A74EEE24A46ED031A73EEE8
:10ADF000271A77EEC37A46ED021A73EEA51A75EE9E
:10AE0000E35A46ED011A5EED033A1EED043A64EE94
:10AE1000232AE6EE032A23EEC66AA4EE036A47ED70
:10AE2000042A07ED036A23EE646AA6EEA36A66EEBF
:10AE3000836AE4EEA36A03ED046A43ED036A1EED40
:10AE4000026A5EED016A65EE264AE7EE064A26EEE4
:10AE5000C77AA5EE067A47ED024A07ED017A26EE9B
:10AE6000657AA7EEA67A67EE867AE5EEA67A03ED16
:10AE7000027A43ED017A50E7D4F80822B4F80C12B4
:10AE8000734836F0CBF894F8FD31013384F8FD3186
:10AE9000D4ED877AB0EE006AD4ED865AB6EE007A29
:10AEA00077EEA77AB4F80022694B013AD4F814027D
:10AEB000F0EE676AD5EE867A03EBC2011030A3F597
:10AEC000DA73E5EE866A083967EE877A66EE876A96
:10AED000C4EDA77AC4EDA66AF0EE476A91ED034A85
:10AEE000013A91ED027A00F10800D3ED6F3AA1F139
:10AEF0000801D3ED707A03F1080337EE635A50ED81
:10AF0000045A34EE276A50ED034A37EE237A77EE7F
:10AF1000C47AA5EE857AE4EE857AA4EE867AE5EE2B
:10AF2000C67A27EE267A67EEA67A83ED8D7AC3ED90
:10AF30008E7AD3D105E7474D4FF0000904272E46FE
:10AF4000C84695ED8E0AD5ED8D7A20EE000AA7EE63
:10AF5000A70AB5EEC00AF1EE10FA6ADB3AF0A6FADB
:10AF600086ED6D0A95ED900AD5ED8F7A20EE000AF8
:10AF7000A7EEA70AB5EEC00AF1EE10FA5CDB3AF0D4
:10AF800095FA86ED6E0A95ED920AD5ED917A20EE4E
:10AF9000000AA7EEA70AB5EEC00AF1EE10FA4EDBE2
:10AFA0003AF084FA86ED6F0A95ED940AD5ED937A1E
:10AFB00020EE000AA7EEA70AB5EEC00AF1EE10FADD
:10AFC00040DB3AF073FA86ED700A013F05F1200587
:10AFD00006F11006B5D194F8FD31013384F8FD3146
:10AFE00094F8902300231B4D02F16D0118469FED4C
:10AFF0001A7A1E4605EB81010F2A2FDD04EB83022E
:10B000001F46194692ED867A5A1C67EE077A67EE5C
:10B01000877A07EE102A03F16E02B8EEC77A05EBC5
:10B02000820227EE277A0F292ED105EB8303421CDB
:10B030005BE0C6F8B49195E7C6F8B881A3E7C6F817
:10B04000BC81B1E7C6F8C081BFE700BF00000020A7
:10B05000180200206400002000000000F1EC017ADA
:10B060003EB951ED026AF4EEE76AF1EE10FA09D545
:10B07000D0B2B4EEE77A0126F1EE10FA44BFB0EE9A
:10B08000677AD3B20132B7E712ED016A0131D2ED2E
:10B09000006A0432B4EEE66AF1EE10FAC5DD66EE3F
:10B0A000066A66EE866A06EE101AB8EEC66A77EE93
:10B0B000A67AA6EE867AB6E793ED6D6A043B791E12
:10B0C000D3ED6D6AB4EEE66AF1EE10FA0FDD66EECE
:10B0D000066A781C0F4666EE866A06EE100AB8EE1F
:10B0E000C66A77EEA67AA6EE867A9742E4DCF5EE9B
:10B0F000C07A94F8FE61F1EE10FA3FDD87EE278A00
:10B10000F7EE007A38EE678AD4EDE57A28EE278AE2
:10B11000B4F8980336F036F9CDE9000118EE100ABC
:10B1200036F052F99DED001B41EC100B39F018FE82
:10B1300051EC100B36F070FC242300EE100A03FBD8
:10B14000065505F52D703CF0C3FA94F8FE31BCEEBF
:10B15000C00A03F5C87304EB4303B3F86420A3F8F3
:10B160006A2010EE102A92B2A3F86420B4F89C333F
:10B170009A4238BF1A46A4F89C23E2E504EB460342
:10B18000B3F88A3308EE103AB8EE488AC0E794F86C
:10B19000FE0100F5C87304EB4303B3F86420B3F871
:10B1A0006A3000EE102A93422FD0364D00EBC000DB
:10B1B00094F8203405EB800095ED1B8AD4F8101428
:10B1C000002B59D0B8EEC00AD5ED217AF0EE480A2E
:10B1D0008C3520EE270A3CF0C7FA94F8FE0155EDB5
:10B1E000017AF0EE480A04EB4003D4F8101400EBA7
:10B1F000C000B3F8843305EB800000EE103AB8EEDF
:10B20000C00A20EE270A3CF0AFFA94F8FE31032280
:10B210000133B3FBF2F202EB42029B1A84F8FE31D7
:10B2200094F8FD31013384F8FD3194F87820164DFF
:10B23000C2F1200194F8FE01063205F23446CFB285
:10B2400002EB401031463B4605F5DA7205EB800013
:10B25000FDF7D2F994F87830002B3FF472ADB900C5
:10B2600094F8FE0101F5DA7205EBC01031442A446E
:10B270001830FDF7C1F964E5F0EE480AB8EE400A6F
:10B28000C1E700BFA00300206400002030B5194CC6
:10B2900089B000230546D4ED017A6A4600936846DA
:10B2A000F1EE677A0B680193CDED057AD4ED027A61
:10B2B0004B68F1EE677A02938B6804A9CDED067AAC
:10B2C000D4ED037A0393F1EE677A23680493CDED0E
:10B2D000077A1EF0DBFB6946224608461EF0D6FBC5
:10B2E000019B28462B60029B6B60039BAB6009B0FF
:10B2F00030BD00BF18050020F0B500232DED048BF4
:10B3000085B0019302935C4BD3F828551C4615F089
:10B31000100500F0A3801EF029FBDFED587AB4EE93
:10B32000E70AF1EE10FAC0F28F8020203CF004FA18
:10B33000002800F08D80524B93ED050A9FED511AC5
:10B34000DFED510A3CF0E0F9B4F92C35B2EE047AA5
:10B35000DFED4E8A07EE903AB0EE409AF8EEE77ACB
:10B3600087EE878A28EEC88AB0EE480A32F0AEFE31
:10B37000F0EE409AB0EE480A32F00AFFDFED447A70
:10B3800089EE800A20EE270A80EE097AC7EE287A35
:10B39000CDED037A01A94FF000433E4FB2EE048A8F
:10B3A00008460293FFF772FFD7F894663A4CB37AD7
:10B3B00094ED060A07EE903A5B4200EE903AB8EE42
:10B3C000E71ADDED017AF8EEE00A21EE081A30EE18
:10B3D000270A60EE880A3CF097F984ED060AF37AB2
:10B3E00094ED4B0A07EE903A5B4200EE903AB8EECD
:10B3F000E71ADDED027AF8EEE00A21EE081A30EEE7
:10B40000270A60EE880A3CF07FF984ED4B0A337B13
:10B4100007EE903A5B4200EE903AB8EEE71AF8EE8B
:10B42000E00A0DB3D7F8903621EE081A94ED900A91
:10B4300060EE880AD3ED207A9DED037AA7EE270A05
:10B440003CF062F984ED900A05B0BDEC048BF0BDD0
:10B45000104BD3F8903693ED1F0A6FE703F2345385
:10B46000D3F84032039395E721EE081A9DED030AC5
:10B4700060EE880AE4E700BF00000020C8D0313E3B
:10B48000683A01200080BB450000964335FA8E3CA7
:10B490008F2A7544483401203405002038B52DED3D
:10B4A0000A8B70EE608A90ED01BA02780446B0EE25
:10B4B000408A0D46B0EE41AA01F00103F0EE61BAF8
:10B4C000B0EE42CA28EE8BBA3AB1002B4FF0000220
:10B4D00040FEA87A0270C0ED0B7AD4ED0B7A002BF7
:10B4E00056D078EEE77AF0EE680A87EE8A0AC4ED65
:10B4F0000B0AD4ED090AD4ED039AF5EEC00AF1EE79
:10B5000010FA05DDB0EE4A1A04F118003CF000F91B
:10B5100094ED0A9A60EE299AD4ED05AAB0EE4C1A81
:10B52000F0EE6B0A68EE2AAA3BEE098A38EE298A09
:10B5300038EE2A8AB0EE480A3CF0E6F8D4ED027AFA
:10B5400030EE488A94ED047A68EEA78A6B07F0EE35
:10B55000497A84ED0DBA28EE078A84ED0C9AC4ED81
:10B560000E9AEAEE287AC4ED0FAA84ED100AEAEEEC
:10B57000087A08D5B0EEE77AB0EEC99AB4EEC97A87
:10B58000F1EE10FA01D5C4ED0A7ABDEC0A8B38BD94
:10B5900070EEE77AF1EE677A87EE8A0AA7E710B5D0
:10B5A000002388B0044600936A460B6868460193FE
:10B5B0004B6802938B6813490393D1ED017A0B68B2
:10B5C000F1EE677A0493CDED057AD1ED027AF1EED2
:10B5D000677ACDED067AD1ED037AF1EE677ACDED9B
:10B5E000077A1EF053FA694604AA08461EF04EFA7E
:10B5F000019B20462360029B6360039BA36008B00D
:10B6000010BD00BF1805002010B51E4C94ED010AB6
:10B61000D4ED006A20EE000A94ED027AD4ED037AAC
:10B62000A6EEA60AA7EE070AA7EEA70A39F03EFF84
:10B63000DFED157AB4EEE70AF1EE10FA08D54FF017
:10B640007E53236000236360A360E3600D4810BD58
:10B6500094ED007AC7EE007A94ED017AC4ED007A99
:10B66000C7EE007A94ED027AC4ED017AC7EE007A53
:10B6700094ED037AC4ED027AC7EE007AC4ED037A42
:10B68000E4E700BF18050020BD37863530B51C78CB
:10B6900014B1012C05D030BD9A780270DB780B70A4
:10B6A000F9E7B3F9024052B1157B94FBF5F404704D
:10B6B000B3F904302AB1527B93FBF2F3EFE70C2588
:10B6C000F3E71222F8E730B51C7814B1012C0FD043
:10B6D00030BD9D7842B1147B6C430460D8782AB1A8
:10B6E000537B43430B60F3E70C24F5E71223F8E7A1
:10B6F000B3F90220B3F904300260F3E72DE9F04119
:10B700001C4D04460E461746984613460A46014607
:10B71000D5F898062DED028BB0EE408A84B031F05A
:10B720009FF99FED150A00229DF8303028EE000A9F
:10B73000CDF80480009202A8FDEEC07A17EE901AB0
:10B740000DF0E4FD9DF834001FF0E2FD8046384620
:10B7500035F0CEFC611C02AB32460144CDF80080CE
:10B76000D5F89806C9B231F03FF904B0BDEC028BB0
:10B77000BDE8F081483401200000C84270B50D4C8E
:10B7800006460D4613460A460146D4F8980631F09F
:10B79000EFF994F99C36012004EB430201335BB2CC
:10B7A00082F89D6682F89E56272BC8BF002384F836
:10B7B0009C3670BD483401202DE9F347284C1646CD
:10B7C000FE221F46062504F5DE6884F8EF2694F86D
:10B7D000042884F8F06684F8F126013284F8F20631
:10B7E00084F804284FF6FF7284F8F316ADF80620AB
:10B7F000013DADB23DBBDFF870804FF6FF79BDF87B
:10B80000063094F8F056A8F1080AA4F8ED36013D88
:10B81000ADB24D451ED13846124906F071FC94F880
:10B82000F036B4F8ED2606F10800234483F8F52637
:10B8300094F8F036B4F8ED262344120A83F8F6267D
:10B8400002B0BDE8F0870DF1060118F8010B06F013
:10B8500057FCCDE7514618F8010B06F051FCD6E72E
:10B8600048340120353B01203D3B012017B48DF8C1
:10B8700005308DF804200A4BBDF804209DF81040D7
:10B88000A3F8F5262F2283F8F74683F8F4269923A8
:10B8900003228DF8064003B05DF8044B8CE700BF2F
:10B8A000483401200549002391F8312801F636017A
:10B8B0000360042A28BF042238F0EABE483401207D
:10B8C000074910B491F83128002401F63601022A04
:10B8D00004805DF8044B28BF022238F0D9BE00BFB7
:10B8E00048340120F8B5204C1D250F46064684F843
:10B8F0003E591AF015FB00201AF09EFA08201AF0A3
:10B900009BFA0E201AF098FA28461AF095FA0420AD
:10B910001AF092FA04201AF08FFA00201AF08CFA2A
:10B9200030201AF089FA00201AF086FA38461AF008
:10B9300083FA00201AF080FA1AF0D2FA04F63F10C7
:10B940001AF0E2F9234670B194F83F2952B994F8FD
:10B950004029302A00D02AB993F8412912B993F826
:10B96000423933700120F8BD48340120011D002305
:10B97000884201D11846704710F8012B5340082225
:10B9800013F0800F4FEA430318BF83F03103013AED
:10B99000DBB2F5D1ECE7094A00231046117831B14A
:10B9A0009178802903D1682202FB0300704701339C
:10B9B0006832102BF2D10020704700BF983D012063
:10B9C0002DE9F743104C0746884694F8D05FCDB96F
:10B9D00004F6D474A94604F52576206858B130F0F1
:10B9E0007CFE40B1CDF80090234642463946B62051
:10B9F00019F07EFF0546DC34B442EED1284603B090
:10BA0000BDE8F0830025F9E7483401200E4B0622FB
:10BA100030B483F87221242203F5BB7183F87321BB
:10BA200083F87421002283F87521084A02F1240466
:10BA300052F8045BA24241F8045BF9D183F8780123
:10BA400030BC0CF08DB900BF404501202F780408B0
:10BA500000231349F0B51A460D461E460A278C18D6
:10BA600094F8104A0CB91846F0BD2E2C06D10132BC
:10BA70000028F8D08C18044484F8106AAC187B4372
:10BA800094F8104AA4F1300CBCF1090F9CBF303B74
:10BA90001B190E2A01D80132E1E70023E3E700BFBA
:10BAA0005023012010B50A4C04F5B65008F070FC84
:10BAB00041F2CC63E358C01A32F054FA002842F243
:10BAC0001073B8BF40429842D4BF0020012010BD7F
:10BAD00050230120F8B5144C0746D4F8B40103797B
:10BAE0001E3B012B02D9002130F01AFE0F4E00251B
:10BAF000BD42D4F8B40110DB002130F011FE0C4B34
:10BB0000D3F8A833C4F8D8310023C4F8DC31B4F832
:10BB1000E0310133A4F8E031F8BD16F8011B01351E
:10BB200030F0FEFDE4E700BF40450120F84601206B
:10BB30005023012010B51C2030F03EFE0446112198
:10BB400032F0A0FF204630F05BFEC82030F05DFDF3
:10BB50002046BDE8104030F059BE70B5474CD4F8CF
:10BB6000E4331A69910709D5DA68920706D56FF0B0
:10BB700002021A619A69002284F800241A695607A1
:10BB800009D5DA68550706D56FF004021A619A697B
:10BB9000002284F800241A69100709D5DA68110711
:10BBA00006D56FF008021A61DA69002284F80024D1
:10BBB0001A69D20609D5DA68D60606D56FF01002E2
:10BBC0001A61DA69002284F800241A69D5072DD594
:10BBD000DA68D0072AD56FF001021A61284A934229
:10BBE00024D1D4E9DC25AA4220D0D4F850138CBF4C
:10BBF000C2F58055AD1A234BD1F814621A44ABB28A
:10BC0000C1F80822C1F8103286B90120C1F8140227
:10BC10008121D4F8680333F050FCD4F870331D440C
:10BC2000B5F5805F08BF3546C4F87053D4F8E433E7
:10BC30001A69110605D5DA68120602D56FF080027E
:10BC40001A611A69D60505D5DA68150602D56FF0AE
:10BC500080021A611A69540605D5DA68500602D5C1
:10BC60006FF040021A611A69910605D5DA689206EA
:10BC700002D56FF020021A6170BD00BF5023012071
:10BC8000001400407095012070B5D0F830621C207F
:10BC90000D4600FB0164C4F80C320023C4F80422F2
:10BCA00004F5FC71C4F8103284F8F93184F8F851C5
:10BCB0003369012B08BFC4F80822DAB230681DB915
:10BCC00033F0F6F9002070BD33F060FAFAE712485D
:10BCD000014610B5D0F8783303B9FEE7D1F86C23EC
:10BCE000002AF7D013F8014B013AC1F87833C1F8B4
:10BCF0006C2362B9D1F850334BB1D3F8042291F8D8
:10BD0000483133B1402301210448FFF7BDFF2046ED
:10BD100010BD4FF40073F6E7502301208824012062
:10BD20004BB21C22002B4FEAD37310B5D0F830422F
:10BD300001F07F00ACBF02FB014102FB00414FF06C
:10BD40000102ACBF01F5FC7138318A7008704B708C
:10BD500094F8B833934223D084F8B8234B78226800
:10BD6000012B09784FF020030CBF02F5106202F599
:10BD7000306213FB01231A68002A03DB1A6822F0E1
:10BD800080421A601A6842F400121A6028B904F559
:10BD90006F72217C206833F06BF9002384F8B8338C
:10BDA000002010BD10B504468021FFF7B9FF002127
:10BDB0002046BDE81040B3E770B5D0F8304248B235
:10BDC00001F07F061C2500284FEAD070B5BF05FBA7
:10BDD000064105FB0141383101F5FC710E704870D8
:10BDE0008B60CA7000B1CE80022A04BF00230B71A1
:10BDF00094F8B833012B27D00126236884F8B86360
:10BE000003F500604A780D78B2421FD1AA40C66996
:10BE100003F5106392B23243C26103EB451213681B
:10BE200018040ED488681668C0F30A03C878334330
:10BE300043EA804343EA855343F0805343F400438D
:10BE40001360002384F8B833002070BDC269AE408F
:10BE500003F5306342EA064603EB4513C6611A68F0
:10BE60001204EED48A681868C2F30A02C978024341
:10BE700042EA814242F0805242F400421A60E0E716
:10BE8000904B2DE9F04FD3F8245485B06B69DE0751
:10BE900000F1A6816A69AB691A4200F0A1816B6961
:10BEA000AA6913409C0701D502236B616B69AA69DB
:10BEB0001340180300F19781824CD4F824345A6956
:10BEC00099690A40510311D5D3F8182803F5006386
:10BED00004F2244705F5106BDB694FF0000A1340AC
:10BEE0009BB20193019B002B40F00E84D4F82404F4
:10BEF000426983691A4216D5D5F8043823F0010344
:10BF0000C5F8043894F81038012B15BFD4F8203840
:10BF1000002393F8FD2184F8103818BF83F8FC2122
:10BF20004FF0004343614369826913401B050FD5FD
:10BF3000D5F80838DF0708D5D4F8203893F8FC2165
:10BF400083F8FD21042283F8FC214FF40063436150
:10BF50004369826913401E010FD54FF000634361AE
:10BF600094F81038002B40F0DB84012384F810385B
:10BF7000436DC3F38303C4F81438436982691340E3
:10BF8000D90439D505F500667368102123F0010343
:10BF9000736033F0D9F9D4F8280405F51063002252
:10BFA000FF21824240F0C7844FF0FF33B361F36951
:10BFB00043F00113F361D4F85434002B00F0C28431
:10BFC000D6F8843043F00B03C6F88430736C43F02A
:10BFD0000B037364D5F800383B4A23F4FE6394F8EE
:10BFE0003414D4F82404C5F8003833F041F8D4F8F8
:10BFF00024344FF480525A61D4F824345A69996930
:10C000000A40920470D5D3F8002922F4FF6222F08E
:10C010000702C3F8002903F50062916801F00601E8
:10C02000042905D1D3F8001941F00301C3F8001920
:10C03000516841F480715160D96821F47051D96020
:10C04000916811F0060F11D0916801F006010229E4
:10C0500000F08284916801F00601062900F07C84DA
:10C06000926802F00602042A00F076844FF400720F
:10C070000027C4F83824DA68C4F8307442F4105247
:10C08000DA60D4F8206800224FF0400840231146BF
:10C090003046FFF791FE4346C6F81081002280210A
:10C0A0003046FFF789FE0123C6F8208086F8FC3170
:10C0B000D6F8183253B9D6F820323BB9D6F8283220
:10C0C00053B103E050230120302B0120D6F8143265
:10C0D000304631795B689847D4F820384FF40052E5
:10C0E0001F74D4F824345A61D4F824245369916914
:10C0F0000B40DF062FD5936923F0100393612B6A61
:10C10000C3F3434003F00F01022840F0918447F647
:10C11000F07003421BD01C20C3F30A1305F58055B1
:10C1200000FB0140DE1CD0F82876B61000208642C5
:10C1300040F077841C2000FB0141D1F82806184408
:10C14000C1F82806D1F834060344C1F8343693699F
:10C1500043F0100393615369926913401E070ED593
:10C16000D4F8200890F8FC31032B04D1D0F8143215
:10C17000DB6903B19847D4F8243408225A61D4F813
:10C1800024345A6999690A40D50202D54FF48012C5
:10C190005A615A6999690A40900202D54FF4001217
:10C1A0005A615A6999690A40510002D54FF080429C
:10C1B0005A615A6999690A40520711D55D686B073F
:10C1C00009D5D4F82008012380F8FC31D0F81432C6
:10C1D00001795B689847D4F824345A6815435D6048
:10C1E00005B0BDE8F08FD5F8183805F53068D5F8FA
:10C1F0001C284FF0000AB24F1340A7F224461B0C34
:10C200000193019B002B3FF457AE019BDA0740F1ED
:10C210004B81D6F824345FFA8AF103F5306203F5D6
:10C22000006302EB411292685B6902EA030919F0AC
:10C23000010F3AD00123C8F80830D6F83434012B66
:10C240000DD1D8F81030D7F80022C3F31203D31A57
:10C25000C7F81032D7F804321344C7F80432D6F8BE
:10C260002048002969D1D4F8F431032B0FD1D4E947
:10C270004303984253D9C01AD6F828268342C4F8FB
:10C280000C0128BF034620469BB2FFF7FDFCD6F801
:10C290003414012909D1D6F830365AEA030304D1FF
:10C2A000884AD6F8240432F0E3FE19F0080F00F0B3
:10C2B000EF80D6F8204896F8E0C704F5027B84F8B2
:10C2C00008C296F8E1E784F809E296F8E31796F8D1
:10C2D000E23703EB01239BB2A4F80A3296F8E52774
:10C2E00096F8E40700EB022080B2A4F80C0296F85E
:10C2F000E71796F8E62702EB0122012192B2C4E982
:10C300007D120CF01F01A4F80E22012900F04B81D0
:10C31000F9B1022900F05C810CF08001EEE1D4F863
:10C3200014321B692BB194F8FC21032A01D1204659
:10C330009847204633F09EFBA9E7D4F814329B6956
:10C34000002BA4D094F8FC21032AA0D120469847C2
:10C350009DE7BEF1090F74D8DFE81EF0FE001A0158
:10C3600073000F0173006D000A007300EE00B60049
:10C370001A0A013A062A64D8DFE802F0041D2A638B
:10C38000634A5300D4F810321B680DF10E01207C73
:10C390009847BDF80E20002A77D0B4F80E32002B53
:10C3A00073D09A42014628BF1A46ADF80E202046A7
:10C3B00033F06DFB69E0227CD4F8143232B99B6A09
:10C3C0000DF10E00984702234370E2E7DB6AF7E7BE
:10C3D000DBB2052B35D8DFE803F003070B0F13178B
:10C3E000D4F810325B68D0E7D4F810329B68CCE701
:10C3F000D4F81032DB68C8E7D4F810321B69C4E700
:10C40000D4F810325B69C0E7D4F810329B69BCE7FE
:10C41000237CB3B9D4F814320DF10E005B6B98474E
:10C42000B7E7237C6BB9D4F814320DF10E001B6B07
:10C4300098470723C8E7024303D194F8FC11032966
:10C4400001D1204667E003F07F0BD4F8303284F846
:10C45000FEB193F8B81301290ED01968D1F800087D
:10C4600020F4FE60C1F80008D1F8000840EA0B1083
:10C47000C1F8000883F8B823204633F0FBFABBF17B
:10C48000000F1AD0022384F8FC310823C8F80830C2
:10C4900019F0100F02D01023C8F8083019F0200F3F
:10C4A00002D02023C8F80830019B0AF1010A08F1E4
:10C4B00020081C375B080193A3E60123E3E700BFD4
:10C4C00074270120302B0120D9B28E4B012983F82B
:10C4D000EE11B6D894F8FC31022B0FD0032BB0D15B
:10C4E000E1B902236160204684F8FC31D4F81432AB
:10C4F0005A689047204633F0BDFAC6E70029F9D0C4
:10C5000001210323616084F8FC31204632F09CF95C
:10C5100002282046EFD1FFF745FCB6E76168012904
:10C52000E8D0D4F81432C9B220465B689847754BFE
:10C5300093F8EE116160E8E7012A82D194F8FC31AA
:10C54000022B04D0032B7FF47CAF211D2FE7214663
:10C55000002341F8083F2AE794F8FC31023B012B05
:10C560003FF66FAF0123E360D4F804320BB103232D
:10C57000E360022204F10C0119E7012B85D1C4F814
:10C580000432D4F81432594620469B689847B1E7E4
:10C5900094F8FC21023A012A3FF653AF012B7FF4B5
:10C5A00074AF0023EBE794F8FC31032B7FF449AF21
:10C5B000C0B203283FF645AFD4F81432594620469E
:10C5C0009B689847B4F80E32002B7FF45EAF91E77A
:10C5D0000CF0600CC1B2BCF1200F06D1D4F81432BB
:10C5E000594620469B6898474FE7BEF1010F15D08A
:10C5F000BEF1000F5BD0BEF1030F7FF446AF94F89D
:10C60000FC21022A77D0032A7FF41BAF002BB8D17C
:10C610004B06B6D02046FFF783FBB2E794F8FC2127
:10C62000022A68D0032A7FF40CAF002B7FF42DAFD1
:10C6300011F07F033FF45EAF40B2D4F830224FF0E8
:10C640001C0C00284FEAD070B4BF0CFB03210CFB7C
:10C6500001214FF0000CB4BF383101F5FC7181F8B5
:10C6600002C00B70487092F8B833012B89D00123B7
:10C670004FF0200C82F8B833487813680128087806
:10C680000CBF03F5106303F530631CFB003318681F
:10C6900020F400101860C9780239012903D81968FC
:10C6A00041F080511960002382F8B83369E794F8AB
:10C6B000FC31022B1FD0032B7FF4C3AE42B201F03A
:10C6C0007F03D4F8300204EB0311002AB4BF143105
:10C6D00001F58271002A4FF01C0202FB03034FF0A8
:10C6E0000202B4BF93F83A3093F8FA31003318BF1E
:10C6F00001230B605BE648063FF4C7AE2046FFF718
:10C700000FFBC2E640450120019BDA0740F1A780FC
:10C71000D4F824245FFA8AF8D2F8101802F51062CF
:10C7200052F8CC3C02EB481223FA08F992684FEA1F
:10C73000C9195FFA89F949EA010909EA020919F0F8
:10C74000010F46D00121D5F8343801FA0AF123EA65
:10C750000103C5F834380123CBF80830D4F8343459
:10C76000012B02BFD7E910239B187B64D4F8206803
:10C77000B8F1000F40F0A480D6F8F431022B13D1A9
:10C78000D6E90713994274D9CB1AD4F868244146E4
:10C79000D6F83002F3619BB232F08FFE4346424638
:10C7A00041463046FFF770FA96F80032012B02D16D
:10C7B000002386F80032D4F83414012909D1D4F8C2
:10C7C00070345AEA030304D1A24AD4F8240432F0A4
:10C7D0004FFC19F0080F02D00823CBF8083019F0ED
:10C7E000100F02D01023CBF8083019F0400F02D000
:10C7F0004023CBF8083019F0020F02D00223CBF807
:10C80000083019F0800F2AD0D4F82404D7E9133265
:10C8100000F5106E00F580519B1A3A6C0EEB4A1E23
:10C82000934201EB0838A8BF1346DA1C48BF9A1D93
:10C830009210DEF8181089B2914205D9D7E9132178
:10C840008A4201D9002A4AD1002B08DC0122D0F803
:10C85000343802FA0AF223EA0203C0F83438019BA2
:10C860000AF1010A1C370BF1200B5B080193FFF75B
:10C8700039BBB269B2FBF3F103FB112179B99342E1
:10C880000DD8D6F8F8319A4209D24346424641467D
:10C89000D6F8300232F011FEC6F8F8817EE7D6F8FD
:10C8A0001432DB682BB196F8FC21032A01D1304603
:10C8B00098470523C6F8F43100231A46194670E755
:10C8C000D6F814325B69002B3FF475AF96F8FC2163
:10C8D000032A7FF470AF4146304698476BE7521AFF
:10C8E0003B6C94F834149342A8BF1346DA1C48BF3B
:10C8F0009A1D921031B1796C19447964396D1944DB
:10C90000396596E79EB2D7F844C003364FEAA609C8
:10C910008945F0D05CF821600131C8F80060F7E784
:10C92000D4F8203893F8FC2183F8FD21042283F801
:10C93000FC21FFF722BB99600132C3F808122033B3
:10C94000FFF72FBB736943F02B037361336943F027
:10C950000B033361FFF73EBB03223F493F48C4F856
:10C9600030244022C4F838243D4AD2F8A020114493
:10C97000814206D8DA6842F47052DA600127FFF784
:10C9800080BB384938481144814203D8DA6842F400
:10C990006052F2E7A2F574013448A1F510518142CA
:10C9A00003D8DA6842F45052E7E7A2F183713048C5
:10C9B000A1F5E741814203D8DA6842F44052DCE74E
:10C9C0002C492D481144814203D8DA6842F4305290
:10C9D000D3E72A492A481144814203D8DA6842F44D
:10C9E0002052CAE7274928481144814203D8DA680F
:10C9F00042F41052C1E7A2F1B7712448A1F5585191
:10CA0000814203D8DA6842F40052B6E72049114463
:10CA1000204A9142DA6894BF42F4E05242F4C05294
:10CA2000ABE7D5F800C047F820C00130FFF77FBB67
:10CA300006287FF48CAB05F58055C3F30A132868EC
:10CA4000C4F8E0072868C4F8E4071C2000FB014193
:10CA5000FFF778BB302B0120405327FFFF340C0039
:10CA600000000120401E1BFF3F420F007F4F1200BD
:10CA70001FD6130060B6E5FE5FE3160000D3CEFEBE
:10CA80003F771B00C05BB3FEBF9121001F753800CC
:10CA9000E05459FEDF9C41000A4B93F8EF2110440B
:10CAA000C0B2020693F8F02148BF803883F8EF0146
:10CAB00093F8EF11914202BF002283F8F02183F82E
:10CAC000EF217047404501200B4A30B502F2F114C6
:10CAD00092F8EF31E518C0E9005492F8F021934242
:10CAE00097BFD31AC3F180030B6000238CBFC1E949
:10CAF00000324B6030BD00BF404501201FB502A889
:10CB00006946FFF7E1FF054B0098D3F874321844EB
:10CB1000019B184405B05DF804FB00BF40450120AF
:10CB2000054B93F8F00193F8EF31984236BFC3F10B
:10CB30008003C01AC01870474045012013B50C4C43
:10CB400094F8E50868B105236A4601A9D4F8AC0356
:10CB5000ADF80030022330F02BF89DF8050000F00E
:10CB6000010084F8E50880F0010002B010BD00BFAC
:10CB70005023012070B5064C0646D4F8A853FFF7A1
:10CB8000DDFF20B9D4F8A8335B1BB342F7D970BDE1
:10CB90005023012008B545F20820FFF7EBFF0620DF
:10CBA000FCF770F8074B0122C72083F8E528FCF753
:10CBB00069F8054B002283F8F02183F8EF21C3F8D0
:10CBC000742208BD5023012040450120F0B51E4CC1
:10CBD000C3B006460F4694F8B653002DFDD101238D
:10CBE00084F8B633FCF7F0FAFF2E4FF009038DF806
:10CBF00005604FF0000288BFB5088DF804304FF093
:10CC00000A0C01AB88BF05F0C0050B2645EA0201FE
:10CC1000B85C013283F802C0D9700433362A1E7022
:10CC20005870F3D14AF2080301AA0021D4F8B003E6
:10CC3000ADF8DE30DC232FF0BBFFFCF753FB002305
:10CC400084F8B63343B0F0BD50230120F8B51D4C35
:10CC500005460F4694F8B633002BFDD1012384F826
:10CC6000B633FCF7B1FAEAB206460921D4F8B003AC
:10CC70002FF0FEFFB5F5807F05D140220A21D4F8C0
:10CC8000B0032FF0F5FF002550220821D4F8B0039F
:10CC90002FF0EEFFFCF726FBEAB20A21D4F8B0032E
:10CCA0002FF0E6FF7A190135C021D4F8B0032FF038
:10CCB000A1FF362DF0D10EB9FCF786FA002384F8D7
:10CCC000B633F8BD502301206F4B00202DE9F04F03
:10CCD000A9B093F8B8130A2302466C4E0DF114095B
:10CCE00002934FF0050A03464FEA521E674D02F0C9
:10CCF0001F024FF0FF3405EB8E0C55F82E5004FA4E
:10CD000002F707EA050292FAA2F2B2FA82F2D2B26E
:10CD1000202A6ED002EB4E125D4DC2F3072CD7B223
:10CD200001F0400B05EB420503F10208B5F8B4E24F
:10CD30004FEA1E245FFA8EF5019409EB030415F007
:10CD4000040F039403F1010470D0BBF1000F08D16C
:10CD50000423039841F0400103704346012009F881
:10CD6000041028ACAD004CF0020804EB030E4FF0A9
:10CD700006040EF8875C03F10B050EF88A4C0C33A1
:10CD80000EF8844C28AC0EF88B8C4FF00708254425
:10CD9000019C0EF88CAC0EF8897C0EF8888C0EF88D
:10CDA00086AC0EF885CC0EF8837C0EF8828C05F8E4
:10CDB0008C4C4FEA521C012502F01F07029C05FA19
:10CDC00007F756F82C50013C25EA0705029446F86F
:10CDD0002C5056D110B12C4A82F8B8132A4805AA13
:10CDE0000021D0F8B0032FF0E3FE012029B0BDE808
:10CDF000F08F0CF1040C274A674694450ED20CF1D3
:10CE0000040C3D6895FAA5F5B5FA85F2D2B2202A50
:10CE1000F1D0BF1B12EBC7027FF57EAF10B11A4AEB
:10CE200082F8B813002BD9D11846DFE7BBF1000F09
:10CE300003D101F0380BAB450BD021F0780104236E
:10CE4000039841EA0E0103704346C9B2012009F874
:10CE5000041028ACE5184FF0060405F88A4C4FF092
:10CE6000070405F8897C5F1D05F8884C28AC05F897
:10CE70008CAC06332744019C05F88BCC07F88C4C0E
:10CE800097E7013230E700BF50230120B847012067
:10CE900040450120F4470120F7B5234C94F8B63300
:10CEA000002B3FD101230DF107028421D4F8B003F8
:10CEB00084F8B6332FF09EFE94F8B8230421D4F8FA
:10CEC000B00342F004022FF0D3FE0DF107028421DB
:10CED000D4F8B0032FF08EFE9DF8073013F0040550
:10CEE000F3D1124E3C2229461148A6F13C0784F8A2
:10CEF000B83337F0D5FD36F8023B1A0A03F00403C5
:10CF000022F02002134303D02946384631F090FC2A
:10CF10000135B5F5F07FEED1FFF7D6FE0028FBD145
:10CF200084F8B60303B0F0BD50230120F44701207C
:10CF3000B847012013B5224CD4F8B003F0B394F8ED
:10CF4000B433012B13D0022B13D00DF10302A02117
:10CF50002FF050FE9DF8033003F00503012B06D09F
:10CF600043B1D4F8A82340F2DC539A4226D9402397
:10CF700000E0002343F008030021D4F8B00384F854
:10CF8000B7338DF8053040F204438DF80410ADF846
:10CF9000063004230DEB03022FF00AFE3C22FF2192
:10CFA000084837F07DFD94F8B5333BB9D4F8B03379
:10CFB0000BB1FFF771FF012384F8B53302B010BD48
:10CFC00050230120B847012038B510F1340504463C
:10CFD00013D0426B242380F89D30136823F00103A3
:10CFE00013600023136053609360C0F8A03080F892
:10CFF0009C3080F89D3080F89E30A279A3681103A0
:10D00000A363002301F40051A364E36321641102CC
:10D01000E364636501F480616379616413F0010086
:10D020001CBF0421A16413F002031EBFA16C41F0D8
:10D030000801A164D1070FD530B1A16D41F0020103
:10D04000A1654FF48031216633B1A36D43F0010334
:10D05000A3654FF40033E365110747D565B394F832
:10D060009D3003F0FF020BB984F89C20626B2423EF
:10D07000284684F89D30136823F00103136033F0D1
:10D08000EFF8012818D0A36D13B1284631F04EFFF8
:10D09000636B5A6822F490425A609A6822F0220226
:10D0A0009A609A6842F008029A6028461A6842F02C
:10D0B00001021A6031F006FF6179CA070DD5D4F874
:10D0C000A4301A6842F480721A609A6842F0010231
:10D0D0009A601A6842F020021A608B0705D5D4F8CE
:10D0E000A420136843F08003136038BD002DE3D003
:10D0F00094F89D3003F0FF020BB984F89C20626B1A
:10D100002423284684F89D30136823F0010313601C
:10D1100033F0A6F80128CFD0A36D13B1284631F023
:10D1200005FF636B5A6822F490425A609A6822F0B5
:10D130002A02B9E7417147E7816045E70148FCF7FA
:10D14000F1BA00BFB80001200148FCF7EBBA00BFFC
:10D15000740301200148FCF7E5BA00BF3006012046
:10D160000148FCF7DFBA00BFEC0801200148FCF7DA
:10D17000D9BA00BFA80B01200148FCF7D3BA00BF01
:10D18000640E01202DE9F04117462D4A98460546C8
:10D1900002EB8003D3F8DC40002C4ED0FC3204F1CB
:10D1A000AE03E160261D62604FF48072A36104F556
:10D1B000D77394F8AD00E361C4E904222268C4F88F
:10D1C000A820A2632FF0F8FA18F0080F19D0013543
:10D1D000EDB218B14FF4E163C380057294F8B62242
:10D1E000022131F029FCD4F8B81294F9B702890968
:10D1F000FCF784FC94F9B70231F031FB3046BDE80E
:10D20000F081BA0794F8AC800BD56B1CDBB218B177
:10D210004FF4A1620372C28094F8B622022131F069
:10D220000BFCFB07DFD5013540462FF0C5FAEDB208
:10D230000028D3D04FF4C163CEE72646DEE700BF17
:10D2400078770408074B03EB8000D0F8DC3033B16B
:10D2500093F8AD204A7093F8AC300B7070474B7068
:10D26000FBE700BF78770408BFF34F8F0549064BF3
:10D27000CA6802F4E0621343CB60BFF34F8F00BF74
:10D28000FDE700BF00ED00E00400FA0508B572B646
:10D2900000224FF0FF319300013203F16043082A6E
:10D2A00003F56143C3F88010C3F88011F3D1024B3A
:10D2B000024A1A60FFF7D8FF04400240EFBEADDE1D
:10D2C00008B572B600224FF0FF319300013203F12E
:10D2D0006043082A03F56143C3F88010C3F8801146
:10D2E000F3D1FFF7C1FF034B0348D3F8A016FCF7B7
:10D2F00031BB00BF4045012000180040024B0348ED
:10D30000D3F89C16FCF726BB40450120004801409D
:10D31000024B0348D3F89416FCF71CBB4045012090
:10D320000040014010B5064C0648D4F89016FCF7B2
:10D3300011FBD4F8A8160448BDE81040FCF70ABB5E
:10D3400040450120000401400020004010B5064C7B
:10D350000648D4F89016FCF7FDFAD4F8A416044851
:10D36000BDE81040FCF7F6BA40450120000401403A
:10D37000001C0040024B0348D3F89016FCF7EABAB1
:10D380004045012000040140024B0348D3F88416B5
:10D39000FCF7E0BA40450120000C0040024B034876
:10D3A000D3F88016FCF7D6BA4045012000080040AB
:10D3B000024B0348D3F87C16FCF7CCBA4045012059
:10D3C00000040040034B4FF08040D3F87816FCF780
:10D3D000C1BA00BF4045012010B5064C0648D4F83C
:10D3E0007416FCF7B7FAD4F898160448BDE8104054
:10D3F000FCF7B0BA40450120000001400044014064
:10D40000024B0348D3F87416FCF7A4BA4045012038
:10D41000000001400268137E012B26D102231376FF
:10D420004FF4007392F83010012904D1022143F423
:10D43000806382F8301092F84810012904D102214B
:10D4400043F4006382F8481092F8601001290ED16D
:10D45000022143F4805382F86010126800211268A0
:10D460005162D1680B43D36003E00023DAE7002B5D
:10D47000F3D1704743685A79032A0FD8DFE802F0E6
:10D480000205080B18683430704718683830704748
:10D4900018683C307047186840307047002070476B
:10D4A0002DE9F84F4368914606460F461A8A002434
:10D4B00094484FEAD21C13094FEA441A3AF8001074
:10D4C0008CEAD11583EA111105F0030501F007017B
:10D4D000294340F081808244C6F80CA07761BAF1FC
:10D4E000000F00F00D819AF81C10002940F008810F
:10D4F000854D03F0070302F00F02844805EB830318
:10D5000005EB82029B68D2F8288113F5803FDAF898
:10D510000420EC5C74D1824265D17D4B1A6942F4DF
:10D5200000121A611A6922F400121A613046FFF7DC
:10D53000A1FF83465046FCF79FFE0A23AAF81C3041
:10D54000D6F80CA05046FCF797FE724B01219AF9D1
:10D550001400CAF80C30CAF81860FCF7CFFA9AF930
:10D56000140031F07CF9F3685B681A59191922F438
:10D570005F3222F4787242F4153242F040021A51BE
:10D580004A6942F007024A611A5922F0C0721A51E0
:10D590001A5922F4C0021A51CF60C1F808B04A6883
:10D5A000120C120442EA09024A601A5922F0F0529F
:10D5B00042EA08021A5173689A795B7912F0040FF3
:10D5C00032681D44506895F8481100F0968033F099
:10D5D000DBF90120BDE8F88F0134102C7FF46CAF2B
:10D5E0004FF0000A78E74C4B9A429FD1A3F5305395
:10D5F0001A6942F480021A611A6922F4800294E7DF
:10D600001159824221F00101115112D1BBB9434994
:10D610000020086048608860C86008612120486177
:10D62000115921F0F0511151002B42D13F23936049
:10D630007CE739498A423AD12BB91031E8E7012B0E
:10D6400005D13749E4E7012B05D13649E0E7022B44
:10D6500005D13549DCE7022B05D13449D8E7032B46
:10D6600005D13349D4E7032B05D13249D0E7042B48
:10D6700005D13149CCE7042B05D13049C8E7052B4A
:10D6800005D12F49C4E7052B05D12E49C0E7062B4C
:10D6900007D12D49BCE72D492D48062B08BF01466F
:10D6A000B6E72C492948072B18BF0146B0E72749A0
:10D6B000AEE7012B02D14FF47463B8E7022B02D11D
:10D6C0004FF47C13B3E7032B02D14FF07463AEE742
:10D6D000042B02D13F23D36028E7052B02D14FF45E
:10D6E0007463F8E7062B02D14FF47C13F3E7072BA2
:10D6F0007FF41CAF4FF07463EDE732F057FF68E73B
:10D70000002067E71C1101207877040800600240C0
:10D7100000380240E18A00080064024010600240C4
:10D720002860024028640240406002404064024099
:10D7300058600240586402407060024070640240C9
:10D740008860024088640240A0600240B8640240E1
:10D75000A0640240B8600240F8B543680546274A15
:10D76000188AEB68C0F302105C6802EB80008668E0
:10D77000EFF31183102080F312886F68D7F800C090
:10D780007F79DCF80C0002EB47073F8D07F4F05778
:10D7900020EA0700975DCCF80C00E05920F001006A
:10D7A000E051E8680769D0F804C020201F2F21D974
:10D7B000203FB840CCF80C00DBB283F31188925DB7
:10D7C00028466F69224453681B0C1B040B435360AB
:10D7D000FFF750FE0A4B9B5DE218D7609060E2585D
