:020000040800F2
:1000000000000220714004083BCC000861BF0208D8
:100010002D4104082D4104082D4104080000000072
:1000200000000000000000000000000039CC0008C3
:1000300037CC00080000000035CC0008FBF90308AD
:100040002D4104082D4104082D4104082D410408C8
:100050002D4104082D41040865FC030875FC0308C4
:100060002D41040871FC03086DFC03082DD800081D
:1000700019D8000805D80008F1D70008DDD7000816
:10008000C9D70008B5D700082D41040800000000BA
:1000900000000000000000000000000069FC0308F0
:1000A000E1D80008B9D8000891D8000809D900089B
:1000B0007DD8000869D8000855D800082D410408EB
:1000C0002D4104082D4104082D4104082D41040848
:1000D0002D41040899DE00088FDE000800000000B2
:1000E00061FC03082D4104081DE200080000000027
:1000F000000000000000000000000000A1D7000880
:10010000000000002D41040841D800082D410408DA
:1001100000000000000000000000000000000000DF
:100120008DD7000879D7000865D7000851D7000897
:100130003DD70008000000000000000000000000A3
:100140000000000000000000000000004FC6000892
:1001500029D7000815D7000801D700082D41040849
:100160002D4104082D41040800000000000000009B
:10017000000000000000000000000000000000007F
:10018000000000002D4104080000000000000000F5
:080190002D4104082D41040873
:08019800043C0400010000001A
:1001A000D8F200200208000000012C18F4F2002010
:1001B000020F00000001190010F3002002270100C7
:1001C00000011A002CF30020022D000000001F0087
:108000002DE9F04F2DED108BDFEDAF5A8DB002232F
:10801000009003910B9201910293B0EE655A019B7F
:10802000009AD9084FEA411902EB090CCA0018203E
:1080300008926FF017024A4300FB01F428200CEB72
:108040000207049400FB01F4079430200C0107EBB5
:108050000906B518069400FB01F43820059400FBCE
:1080600001FB05EB090400982244DB0002EB090840
:1080700000F1040E4FF0000ADCED007A1EED017AEB
:10808000D7ED003AD5ED004A98ED003AD2ED002A3E
:1080900077EE276A37EE677AD6ED007A33EEA76A75
:1080A00073EEE73AD4ED007A34EEA74A74EEE77A3D
:1080B00072EE834A36EEC48A36EE640A76EE846A3D
:1080C00036EE246A72EEC32A76EE864A76EEC66AE9
:1080D0004EED014ACCED006ADEED004A9CED016AEE
:1080E00097ED014A95ED013AD8ED011A74EE866AD2
:1080F00034EEC66AD6ED014A34EE242A34EE644AE0
:10810000D4ED014A33EE241A73EE644A92ED013A3B
:1081100073EE210A33EE613A76EEC11A76EE816A89
:1081200032EE601A32EE202A76EE820A76EEC26ACB
:10813000CEED000ACCED016A78EE016A38EE412AF4
:10814000C5ED006A71EEC06A84ED002AC5ED016AD2
:1081500070EE216A34EE432AC4ED016A73EEA26A1E
:1081600073EEE21A34EE034AF0EE673AE6EEE53AD1
:108170009C441D44E6EEA57A1C449E44F0EE462A3B
:10818000F0EE466AB0EE646AB0EE473AA4EE256AB5
:10819000A1EEA57AE2EE652AE2EE256AB0EE642A47
:1081A000A1EEE53AA4EE652A77EE064A37EE467A66
:1081B000C7ED004A88ED007A33EE027A33EE423A98
:1081C00086ED007A36EEE77A77EEA67A82ED003A0F
:1081D00087ED017AC8ED017A72EEE37A73EEA23A86
:1081E000C6ED017AC2ED013A0198824403985045E8
:1081F0001F441E441A4498443FF63EAF072940F2FC
:108200006881009A00984A440A92089A02440992A6
:10821000079A02440892069A02440792059A024479
:108220000692049A024405920BEB000204924FF06E
:1082300001094FF0000A029A92440B9A4FEACA04CD
:108240002244D2ED001A224492ED008A2244D2ED5B
:10825000004A224492ED009A2244D2ED003A224490
:108260006FF02F00D2ED000A2244D2ED002A00FB6D
:108270000A2292ED011A00982244D2ED018A22448A
:1082800092ED014A2244D2ED019A224492ED013A44
:10829000224492ED010A224492ED012A4FEAC902DA
:1082A00000EB02080A9800EB020E099800EB020CA2
:1082B00008988718079886180698851805988418CE
:1082C0000498CB46024401E0F304353FDEED007A2A
:1082D000DCED006A97ED007A98ED00AA96ED00BA01
:1082E00094ED00EA3AEE276A36EEC7DA3AEE67AA6C
:1082F00076EE877AD5ED006A3BEE267A3BEE66BADB
:10830000D2ED006A7EEE26AA36EE47FA77EEEAEA6A
:1083100036EE076A77EEAA7A3EEE66EA36EE277AFE
:1083200076EE67AA88ED007A98ED016ADEED017AB3
:10833000DCED01CAD6ED016AD4ED01FAD2ED01DA25
:1083400036EE277A76EE67BAD7ED017A3CEEA76A69
:108350007CEEE7CAD5ED017A36EEA7CA76EEE77A6B
:108360007FEEAD6A7FEEEDDA77EE4CFA37EE0CCAAF
:1083700036EE667A36EE266A7FEE076A3FEE477A79
:108380003CEE06FA3CEE46CA88ED01FA29EE8C6A0C
:108390003FEEEEFAA9EE2A6A98447EEEAFEA8EED41
:1083A000006A2AEEE96A7DEE4EAAA9EE0C6AB0EEEA
:1083B0004ACA8EED016A28EE8F6AAAEEC5CA9E44AB
:1083C000A8EE266A66EEE86A86ED006AE8EE0F6AB5
:1083D0003CEEED6AC6ED016A60EE2E6AAAEE85AA51
:1083E0001E44E0EE876A27EE407AC5ED006AA0EEF3
:1083F000AE7A7DEE0E6A85ED017A3CEEAD7AF0EE56
:108400006BCAE6EE05BA1D44E6EE45CAB0EE6B6AED
:10841000F0EE67BAE7EE45BAE7EE057AF0EE4BAA62
:10842000A6EE85BA3CEE2B7AE6EEC5AA7AEE276A6E
:108430007AEE677A3CEE6BAA36EE4BCA3BEE066AE2
:1084400061EE0CBA3CEEEABAE1EEA6BA66EEC16A9B
:10845000CCED00BAE1EE8C6A7AEEACAACCED016A02
:1084600062EE066A9C44E2EEA76AC2ED006A67EE1D
:10847000C26A63EE0B7AE2EE866AE3EE877AC2EDB9
:10848000016A27EE437AC7ED007A64EE2A7AA3EEFA
:108490008B7A1A44E4EE8A7A87ED017AC4ED007A89
:1084A0006AEE447A1F44E4EEAA7AC4ED017A019898
:1084B0008344039858451C443FF608AF09F101096D
:1084C00049457FF4B8AE029BDB009BB2CDE90113B6
:1084D000A5E50DB0BDEC108BBDE8F08F09B9104BD0
:1084E000D96A0B6B834215D90D4BDB6A994202D2D4
:1084F0000021084670470A6B904202D38A6B904273
:10850000F7D94C39F2E70B6B984202D38B6B984248
:10851000EFD94C310B68002BF5D11946E9E700BFC4
:10852000E01100202DE9F84FCF012AD103461F4A60
:1085300043F8082B4FF0FF324260022718467E2591
:108540001B4ED6F83090041D013D49466FF0704A2D
:108550004FF0010B0B6BBB4207F1010802D88B6B8C
:10856000BB4212D23846FFF7B9FF014668B944F85A
:1085700004BC4946474604346B1E25B93163BDE847
:10858000F88F8025DCE71D46E4E70B794A6B23B1C1
:10859000974208D144F804ACECE79742FAD002D9EC
:1085A00044F8043CE6E744F8048CE3E7F8FFFF0FE7
:1085B000E0110020F0B59F083F010D461446C61992
:1085C000B04205F1100504F1100408D103F00303D3
:1085D00039443A4406EB83039E4223D1F0BD8446DE
:1085E0009CED006A15ED045AD0ED016A55ED037A51
:1085F00090ED027A55ED025A26EE056A66EEA76AFC
:10860000D0ED037A04ED046A15ED016A44ED036AC6
:1086100027EE257A67EE867A103004ED027A44ED73
:10862000017ACDE7F6EC017AB1EC017A67EE877A50
:10863000E2EC017AD0E7012380F849307047044B1F
:10864000986B18B1986B431F58425841704700BF50
:10865000E0110020064AD2E90F138B42FDD0D11859
:108660000133C3F30A03136491F84400704700BF59
:10867000E0110020044BD3E90F30984288BF03F586
:108680000063181A704700BFE011002001207047F6
:1086900070477047704730B5104CD4E90F329A429A
:1086A00086BF03F50065AA1A9A1A0A44B2F5006F4C
:1086B00011D801440022814203D102B1E3630020BA
:1086C00030BDE21810F8015B82F844500133C3F367
:1086D0000A030122EFE70220F2E700BFE0110020C9
:1086E000064AD2F84438D2F84828934294BF4FF44F
:1086F00000600020013B9B1A18447047E0110020E5
:10870000EEE7212838B50C461BD022282BD0202894
:1087100015D1A1B1072A12D1194DD5F84C3813B192
:108720000968002098472368C5F85038237985F8F0
:108730005438637985F85538A37985F85638002080
:1087400038BD0029FBD0072AF9D10D4BD3F85028AA
:108750000A6093F854280A7193F855284A7193F8DF
:1087600056388B71EBE70029E9D0022AE7D1044B98
:10877000D3F85838002BE2D0098800209847DEE76C
:10878000E0110020014B002098637047E0110020A9
:10879000044B002005229A63C3F85808C3F84C081C
:1087A000704700BFE0110020704770477047704766
:1087B00070477047704704230B800148704700BF23
:1087C0000000002012230B800048704704000020A6
:1087D00030B414461A69A24209D30D19AA429B6902
:1087E00038BF111B0A46E11830BC3BF0F5BD30BC68
:1087F000704700207047012070470120704700201B
:1088000070474FF400731360024B9B680B600020AD
:10881000704700BFE01100200023F0B54E1C1F463A
:10882000050FECB2092D94BF3034373401F81340F2
:1088300006F813700133DCB2A2424FEA0010EFD801
:10884000F0BD1A2310B50B80094B186804331B6860
:10885000C0180AD0074B08491C680822FFF7DCFF44
:10886000042206492046FFF7D7FF054810BD00BF88
:10887000E8F7FF1FEAF7FF1F18000020280000207C
:108880001600002004230B800048704730000020B1
:1088900012230B8000487047340000202DE9F74F69
:1088A000704D9146D5F85C48B5F86028C2EB2413AA
:1088B0005200C2EBE402B5F962485B436243B5F98A
:1088C00064481B135C43A41304EBE224B4F5FA3EA2
:1088D0008846AEFB0E12CDE900124FEAE47343F175
:1088E000FF3C019AC5F878480EFB0CF302EB4303FA
:1088F000B5F96828019302FB0CF1D3170EFB0311A5
:10890000A2FB0E230B44190341EA12511003019EEE
:10891000B5F96A2802FB06FA009ED31706FB03AAE4
:10892000A2FB062353444FEA122A4AEA036AB5F827
:1089300066284FEA232B1AEB00004BEB010B0030AB
:108940004BF5004BA0FB020102FB0B114A10CB17A9
:1089500052EA030100F08480B5F97008019E00FB23
:1089600006F7009EC11706FB0177A0FB0601B5F9CB
:108970006E68394406FB0CFCF7170EFB07CCA6FB10
:108980000E6767444FEA474E4FEA464C1CEB000C1B
:108990004EEAD63E4EEB010ED5F87C18B5F96C6860
:1089A000C1F58011CF174FEAC77A4AEA510AC807C2
:1089B000002111EB0C014FEAC60747EB0E0E40F603
:1089C0003546401A6AEB0E0AA0FB060106FB0A11A7
:1089D0003BF068F9B5F976284E13470B47EAC147D3
:1089E00002FB06FCD31707FB03CCA2FB072363445F
:1089F000564307FB0366A2FB07233344560E46EAA1
:108A0000C316B5F9742836184FEA636741EB0707B8
:108A1000D317514300FB0311A2FB00230B44D10CDD
:108A200041EA4331D814761840EB0707B5F97208CC
:108A3000320A42EA076203011344B8F1000F02D080
:108A40001B0AC8F80030B9F1000F05D004EB84040C
:108A500080342412C9F80040012003B0BDE8F08F33
:108A60000023EAE7E0110020012070470120704751
:108A70004FF40063838170470123037750F8043C6F
:108A80000BB1183818477047036941681F2B4FF026
:108A9000200230B585BFA3F120054C680C68AA40C0
:108AA00098BF9A40224214BF01220022EAB1826993
:108AB00000201074D0688468206820F001002060D5
:108AC000546820686579094C828934F815401F2B59
:108AD00022EA0402828188BF203B4FF020028BBF34
:108AE0009A4002FA03F3CA608B6030BD80720408BA
:108AF000436B99891A88890610B592B2044606D547
:108B0000900604D5E26A1AB39888216B9047636B8C
:108B100099891A88090692B20FD510060DD5D4E9A5
:108B200009128A4222D0A1692069895C99800132A8
:108B3000B2FBF0F100FB1122A262998A1A88C905E2
:108B400092B204D5D20744BF4FF6F7721A8010BD17
:108B50009B88E2696169DBB28B54E369E1680133A8
:108B6000B3FBF1F201FB1233E361D0E7DA6822F0E4
:108B70008002DA60E1E7D0E90920131A584258412F
:108B800070474171704743799B070AD5436A8269F0
:108B9000D154436A01690133B3FBF1F201FB123393
:108BA00043627047437913F002031FBF0369D0E9A2
:108BB000092003F1FF33101A1DBF1840C0B2181A64
:108BC00018467047437913F001031FBFD0E90732FD
:108BD000C0689B1A00F1FF3014BF18401846704758
:108BE00010B5437913F0010301460ED0FFF7EAFFF9
:108BF00050B10B6A4A69CC68D05C0133B3FBF4F224
:108C000004FB1233C0B20B6210BD1846FCE790F8AB
:108C10005F3230B53BB990F85D1290F85E320124B6
:108C2000DAB2914200D830BDB0F8665204FA03F2CD
:108C30002A43A0F866220133F2E790F83420034675
:108C400002F0FF0012B1002283F8342070470C4B71
:108C500093F880287AB1D3F88C1888420DD3D3F8D2
:108C60009018884209D8D3F88818C3F8A80841F0AA
:108C70000101C3F88818104670470022FBE700BFC7
:108C8000E011002008B50846FFF7E1FF18B1024BDC
:108C9000012283F89C2808BDE011002028B1044B74
:108CA000D3F8E40808B193F8800800F00100704799
:108CB000E011002008B5FFF7F1FF18B1024BD3F81F
:108CC000A8380B8008BD00BFE011002008B5FFF7F1
:108CD000E5FF08B100230B7008BD08B5FFF7DEFF04
:108CE00018B1024BD3F8B0380B7008BDE01100206A
:108CF00010B5FFF7D3FF48B1064B93F89C4834B941
:108D000093F8A0480C70D3F8A438137010BD002459
:108D1000F8E700BFE01100200520704730B1044B98
:108D200093F9E8080028D4BF00200120704700BF55
:108D3000E011002008B5FFF7F1FF18B1024BB3F8BE
:108D4000F0380B8008BD00BFE011002008B5FFF728
:108D5000E5FF18B1024B93F8F6380B7008BD00BF61
:108D6000E011002008B5FFF7D9FF80B10B4BB3F835
:108D7000F23863B1192B0BD9642B0BD9C82B0BD943
:108D8000B3F5C87F94BF0323042301330B7008BDE0
:108D90000023FAE70123F8E70223F6E7E0110020B9
:108DA00010B5FFF7BBFF48B1064B93F8EA4834B95A
:108DB00093F8EB480C7093F8EC38137010BD002456
:108DC000F8E700BFE01100200420704728B1034BF2
:108DD00093F94600003018BF0120704700000020C2
:108DE00008B5FFF7F3FF50B1054B93F94620022A6F
:108DF00003BF93F84930C3F340030B70002008BD54
:108E00000000002008B5FFF7E1FF80B10C4A92F99D
:108E1000483092F94620012A0ED1272B08DC182B66
:108E200008DC0F2BD4BF0023012301330B7008BDD6
:108E30000323FAE70223F8E70133DBB2F6E700BFCA
:108E40000000002010B5FFF7C1FFC0B10D4C94F831
:108E50004930DB0714D494F94730002BB8BF0733EF
:108E6000DB100133DBB20B7094F94730594201F04B
:108E7000070103F0070358BF4B420133137010BDC5
:108E80000023F0E7000000200320704770B50B4A74
:108E900092F8F83806255E1CB6FBF5F405FB146461
:108EA00092F8F958AC421FBF02EBC30382F8F848AE
:108EB000C3F8FC08C3F8001970BD00BFE011002022
:108EC00010B500221346914201DC184610BD845CA7
:108ED0006340082413F0800F4FEA430318BF83F068
:108EE000D503013CDBB2F5D10132ECE7F0B5114C12
:108EF000114B2468B3F82C7993F82E19B3F8306924
:108F0000B3F8325993F8342914F0040F0AD193F8C6
:108F10003C393BB9012A0BD0022A03D114F0080FC7
:108F200008BF0121078081708680C5800272F0BD74
:108F30001146F7E758F30020E011002007B532236F
:108F40008DF800300368CDF801308388ADF8053026
:108F5000034B6846D3F86C39984703B05DF804FBBF
:108F6000E0110020074B586810F0800009D09A6883
:108F7000920705D4186880F00800C0F3C00070475D
:108F80000120704758F3002007B510238DF80030FA
:108F9000054BADF80100CDF80310D3F86C396846E5
:108FA000984703B05DF804FBE01100200C4AD2F8AA
:108FB000843910B5198100219981D2F87C19596042
:108FC00019684C1C1C600870D2F88439D2F87C29CE
:108FD0004FF6F67199811968C3E9002110BD00BFF1
:108FE000E0110020124A90F90C3070B50C461421A3
:108FF00001FB032305461E6D83689A0703D40069AD
:1090000036F096FD00BFD4E901232168304636F0E2
:1090100061FFD4E90423E168304636F05BFFAB68BA
:109020009B0703D400BF286936F087FD012070BD7F
:1090300000000020104B70B51E4693F88829002AC6
:10904000FBD104464518AC4201D1002070BDD6F8D2
:10905000483814F8011BF2180133C3F30A0382F8ED
:109060008919C6F84838FFF73BFB0028EBD10120EF
:1090700036F0B7FCF7E700BFE011002038B50D4629
:10908000FFF7DDFA50B1064C002AD4F8943005DD24
:1090900011462846FFF7CEFFD4F8943038BD00BF04
:1090A000D822002010B590F84810002380F84830EE
:1090B00069B10A4CA26B62B1A26B052A0BD1084CB4
:1090C0003430D4F89430FFF7B5FFD4F89430012051
:1090D00010BD1046FCE71846FAE700BFE01100207B
:1090E000D8220020002280F84920DBE790F84820B1
:1090F000531C0244DBB280F8483082F8341090F8F8
:1091000049200AB1132B00D9CCE7704707B58DF879
:109110000700064801230DF107020021D0F898004E
:1091200036F070FF03B05DF804FB00BFD8220020CA
:10913000F8B5134C0746D4F89C0003791E3B012B6D
:1091400002D9002136F097FC0E4E0025BD42D4F81E
:109150009C000FDB002136F08EFCD4F89430C4F86C
:10916000C0300023C4F8C430B4F8C8300133A4F8C8
:10917000C830F8BD16F8011B36F07DFC0135E5E777
:10918000D82200207823002038B5154C94F8F938FF
:1091900094F8F8289A421CD004EBC303114AD3F880
:1091A000FC18D3F800090023984213DC8B780E4A90
:1091B0005B0882F8DC30C2F8D800FFF7B9FF94F8FA
:1091C000F93806210133B3FBF1F201FB123384F8C5
:1091D000F93838BDCD5C02F8015B0133E4E700BF2C
:1091E000E011002078230020D82200202DE9F84348
:1091F000089D0E46174600212022044698463BF063
:10920000E3FA5DB12B68E381C3F30F426B682282FE
:10921000E382C3F30F426B8922836382304639F0C5
:109220004FFFFB0604D400F1FF39B9F1FF3F40D1F5
:10923000082802464FF0FF39A8BF082200254FF04A
:10924000203363602360C4F80730314620463BF08A
:10925000C3F804F1080309F101012A461846314414
:109260003BF0BAF8621E0346E01D12F8011FA1F19F
:109270006105192D9CBF203911709042F5D1184617
:1092800004F10B0210F8013BA3F1610119299CBF05
:10929000203B00F8013C9042F4D118232373C8F31B
:1092A0000F43A382099BE772A4F81A80E361BDE82B
:1092B000F88316F809302E2B02D009F1FF39B4E7F4
:1092C0004A46A0EB0905082A05F1FF35A8BF082288
:1092D000032DA8BF0325B2E710B5044C04480A4685
:1092E000214638F05DFB204610BD00BFB5230020AD
:1092F000DBEA040810B5044C04480A46214638F05D
:109300004FFB204610BD00BFB5230020E9EA04084A
:1093100010B5044C04480A46214638F041FB20466B
:1093200010BD00BFB5230020F4EA040810B5044CBA
:1093300004480A46214638F033FB204610BD00BFE2
:10934000B5230020FEEA040810B5044C04480A4680
:10935000214638F025FB204610BD00BFB523002074
:1093600003EB040810B5044C04480A46214638F0C3
:1093700017FB204610BD00BFB42400200BEB0408EF
:1093800010B5044C04480A46214638F009FB204633
:1093900010BD00BFB424002019EB040810B5044C24
:1093A00004480A46214638F0FBFA204610BD00BFAB
:1093B000B424002024EB04080A4608B5044920B967
:1093C000044838F0EDFA024808BD0348F9E700BF49
:1093D000B424002037EB04084FEB0408054B93F846
:1093E000E322D3F8DC0202F0F702002183F8E32243
:1093F00036F046BED822002008B53122F42100689C
:1094000036F03EFE012008BD37B50623F7216A4637
:109410000068164C36F026FE1549E8B19DF801208B
:109420009DF800309DF80350120142EA03329DF886
:10943000023042EA13129DF80430C1F87C281B0167
:1094400043EA05339DF8055043EA1513C4E9BA23EE
:10945000C1F85C3803B030BDD4F8E832C1F87C38CC
:10946000D4F8EC32C1F85C38F4E700BFD822002011
:10947000E01100202DE9F04FB54C026B066890F822
:109480002D30054689B0B348B0FBF2F0214627469F
:109490004FF0000E012291F80690A3EB090C01F1A8
:1094A0000608BCF1000FA3EB0E01B8BFCCF1000C15
:1094B0000029B8BF49428C4502F10102BCBF4FFAF6
:1094C00089FE4746102A4146E5D14FF0000C80B294
:1094D000227872450CD179886288411A821A002953
:1094E000B8BF4942002AB8BF52429142C8BF27467E
:1094F0000CF1010CBCF1100F04F10604E8D17A79EB
:1095000004923A7903927A8802923A780321CDE95B
:109510000002914A012037F0B1FF7A888D4BB3FBEE
:10952000F2F3AB632B685869A8B140F6150300212C
:10953000C380017239F0C2FA884BAB612B685C6959
:10954000204636F078FB002880F298802B68586916
:10955000002840F0F2800021304636F031FE8022B3
:109560006B21304636F08CFD962036F03AFA032215
:109570006821304636F084FD962036F032FA032218
:109580006B21304636F07CFD0F20002136F016FAB4
:1095900010226A21304636F073FD0F20002136F08C
:1095A0000DFA00226C21304636F06AFD0F200021B2
:1095B00036F004FA7A791921304636F061FD0F2031
:1095C000002136F0FBF918221B21304636F058FDF9
:1095D0000F20002136F0F2F918221C21304636F017
:1095E0004FFD0F20002136F0E9F9102237213046D7
:1095F00036F046FD0F20002136F0E0F90122382137
:10960000304636F03DFD0F20002136F0D7F93A798B
:109610001A21304636F034FD0120002136F0CEF913
:109620000321304636F0CCFD062306AA43212868E4
:1096300036F018FDA0B19DF818209DF8193043EAC6
:1096400002232B849DF81A209DF81B3043EA022345
:109650006B849DF81C209DF81D3043EA0223AB84E7
:1096600095F92230013306D195F92030013302D12A
:10967000062036F0A7FA09B0BDE8F08FDFF8E4A0C5
:10968000DFF8E4900AEB000309EB800093F86880B0
:1096900005F11803C0F8F032204636F0D6FA8346BA
:1096A000204636F0C8FAC3B203F0030003F0FC030F
:1096B00003F1804303F59C33820099680F209040AA
:1096C00021EA0001996099685FFA8BF090400843A5
:1096D000986024B1204636F0AEFA01248440204B35
:1096E0005C611968E2431140196059681140596082
:1096F000196821431960996811409960D9680A4036
:10970000DA609868C1442043986099F83033F02BB0
:109710007FF61CAFC244F02389F830339AF87830D2
:109720008DF8183003238DF8193006A84FF4807394
:10973000ADF81A3038F04AFF08E736F07CFA01231A
:1097400013FA00F01FBF064A13680343136002E7D1
:109750008872040840420F0067EB0408798A000809
:10976000003C014080720408D822002038B50C4625
:109770000B46134A04210920013C37F07FFEE3B277
:10978000032B1CD80F4D95F94630C3B1012B0E4B5E
:109790000E484FEAC4041C444FF005010CBF94F876
:1097A000843094F8863085F8A430FFF789FB0621D1
:1097B00085F8A5000548BDE83840FFF767BB38BD10
:1097C000A0EB04080000002080720408A000002024
:1097D0002DE9F347038A868905460C461E404FF063
:1097E000004901F14C0701F1340816B902B0BDE897
:1097F000F087B6FA86F329FA03F2D24391B22982AE
:1098000016401B3B002C40D0042BEED8DFE803F0C1
:1098100039342E280300E368D5F82CA02BB19B68BF
:109820001BB11FFA8AF1201D9847636A33B19B6808
:1098300023B11FFA8AF104F11C009847E36B2BB1A6
:109840009B681BB11FFA8AF140469847636D002B55
:10985000CBD09B68002BC8D01FFA8AF1384603E0B2
:10986000E368696B5B68201D9847BEE7636AA96B74
:109870005B6804F11C00F7E7E36BE96B5B6840464B
:10988000F2E7636D296C5B68E8E7042B06D8DFE834
:1098900003F00D0B09070300EB6A0193019BA4E79A
:1098A0006B6BFAE7AB6BF8E7EB6BF6E72B6CF4E767
:1098B00010B500680C4637F0C7FE837863B1827A32
:1098C000C37A43EA02231BB2222293FBF2F303F290
:1098D0006D132380012010BD1846FCE710B5044627
:1098E000006837F0B1FE837883B10279437943EAA7
:1098F0000223E3818279C37943EA02232382027A35
:10990000437A43EA02236382012010BD1846FCE734
:1099100070B506680546304637F096FE0E230446BD
:10992000021D3B21304636F09DFBA07070B1227BBA
:10993000637B43EA02232B84A27BE37B43EA02237B
:109940006B84227C637C43EA0223AB8470BDF8B550
:10995000284C2546D4F8E40836F08AF8002847D089
:1099600094F8E0380BB1002042E0D4F8E40836F077
:1099700079F8D4F8DC383BB90F28EBD10123C4F8CF
:10998000DC3884F8CC08E5E70F2B9FBF5A1C1B1965
:10999000C4F8DC2883F8CC08D5F8DC38102BD9D1F2
:1099A00095F8CC380F2B15D195F8CD3895F8BD2802
:1099B0009A420FD195F8DB2862B90F4995F8DA6819
:1099C000084611F8017B01323B440C2ADBB2F8D186
:1099D0009E4205D0002385F8E038C5F8DC38B9E7A9
:1099E00006493AF0C9FE0028F4D0012085F8E008C5
:1099F000F8BD00BFE0110020AE1A00209E1A002022
:109A000038B5174C0F2384F8BC3884F8BD0804F629
:109A1000BE02F9B10B68C4F8BE384B6853608B685E
:109A20009360104A002312F8011B013308440C2BE9
:109A3000C0B2F8D1002584F8CA0810220A49D4F827
:109A4000E40884F8CB5836F019F884F8E058C4F8E4
:109A5000DC5838BDC4F8BE1851609160E1E700BF22
:109A6000E01100209E1A00209C1A00207FB5924C25
:109A7000D4F83833B3F5857F75D00BDCC3B3F82B3E
:109A800048D0D4F83833002BBCBF0023C4E9CE3310
:109A900004B070BDB3F5887F00F0BB80B3F58F7F55
:109AA000EFD1864D95F8E038002B00F0E6800021DC
:109AB000B5F8CE38C5F88418D5F8A818B5F8D02868
:109AC000C5F8B4388B42C5F8B82840F0EE80D5F818
:109AD000AC389A4205D0D5F8883843F00203C5F86F
:109AE0008838764B93F88038002B00F0A5802DE065
:109AF000724A82F8803800217220FFF781FFD4F883
:109B00009430C4F840330026FA23C4E9D163F82323
:109B1000C4F83833694D95F8E038002B40D0B5F8DB
:109B2000CE38C5F88C38B5F8D038C5F89038002351
:109B3000C5F89438B5F8D238C5F89838012385F8B7
:109B400080380023C5F88438C5F88838D4F89430B4
:109B5000C4F8403300254FF47A73C4E9D1534FF46D
:109B60008573C4F83833554ED6F8885875BBD4F889
:109B70004023D4F894309B1AD4F84823934280DDD4
:109B800029467620FFF73CFFD4F89430C4E9D0355D
:109B9000FA23C4F848334FF48F73C4F8383380E79E
:109BA000FFF7D5FE48B9D4F84023D4F894309B1A77
:109BB000D4F8482393427FF764AF95F8E038002B40
:109BC000ADD195F88038002BBBD194E715F0010397
:109BD00038D00025B6F8A838ADF8043001A94620E1
:109BE000CDF80650CDF80A50ADF80E50FFF708FF3B
:109BF000D6F8883823F00103C6F88838D4F89430B2
:109C0000C4E9D035FA23C4F848334FF48873C4F854
:109C10003833D4F84023D4F894309B1AD4F848232E
:109C200093427FF72EAF254BD3F88428022A7FF783
:109C300058AF002283F880284FF0FF330022C4E998
:109C4000CE321EE715F0020514D0B6F8AC28CDF8D8
:109C5000063001A95020CDF80A30ADF80E30ADF82D
:109C60000420FFF7CDFED6F8883823F00203C6F8AB
:109C70008838D8E7C6F88858D5E7FFF768FE48B9AE
:109C8000D4F84023D4F894309B1AD4F84823934254
:109C90007FF7F7AE95F8E038002B7FF408AFD5F8E2
:109CA00084380133C5F88438BDE7D5F8883843F0E7
:109CB0000103C5F888380AE7D8220020E011002007
:109CC0002DE9F04F6C4E96F850338DB080468946A2
:109CD000002B40D1D6F85453002D3CD096F858B301
:109CE000DFF898A106AF96F85833032B00F2848072
:109CF000DFE803F002347D9B3946284610F07BFFF5
:109D0000044680B109A8FFF7F1F89DF826109DF8E8
:109D100018308B4270D0AB798B4204D32B681B690F
:109D20000BB12846984796F85833013303F00303E4
:109D300086F85833002C40F09C809B45D3D14F4B84
:109D40001B685B0700D534B12B68196819B142460E
:109D50004B46284688470DB0BDE8F08F03A8FFF7B3
:109D6000C5F8DAF800309DF80C4003F0040334B372
:109D7000002B41D13A460DF10B01284610F05AFF55
:109D80000446002838D009A8FFF7B0F89DF8241041
:109D90009DF80B309DF825208B4203D19DF818309B
:109DA000934229D02B798B42BDD36B799342BAD39E
:109DB0002B68DB68002BB6D028469847B3E7002B0A
:109DC000B1D13946284610F008FF0446A0B109A8D1
:109DD000FFF78CF8BDF82810BDF818308B420BD077
:109DE0002B689B69002B9ED0284698479BE7DAF8A2
:109DF000001011F0040301D0002494E709A92846BB
:109E0000019310F0F1FE0028F6D096F85943002C8B
:109E1000F2D09DF82420019B86F85933002AEBD01C
:109E20001946284610F00DFF7DE73846FFF75EF82B
:109E300097E8070009AB03C31A809DF818309BB15F
:109E40000DF1250209A9284610F0F4FE0DF12601B6
:109E5000284610F0D0FE0A2209A938463AF08CFCB8
:109E6000041C18BF01245EE70AA9284610F0B5FEBD
:109E7000ECE7012463E700BFD822002058F300205C
:109E8000022803D0431E584258417047054B93F8AF
:109E9000643313B110201FF081BC034B1868C0F36A
:109EA00080007047D822002058F30020CA680B6851
:109EB00010B513430468114A224013434A691343FF
:109EC0008A691343CA6913430A6A13434A6A1343EC
:109ED0004A6B13438A6B134343F400330360D1E9A5
:109EE0000B344269234322F00702134343610B6999
:109EF00043604B6883608B68C36010BD3F801CF07B
:109F000010B58021044637F066FD2046002137F069
:109F100062FD2046BDE8104037F0CEBFC84BF7B514
:109F2000C84DC94C0822C3F888202B6B43F00103AD
:109F30002B6306464FF4C05240F2023320460F46D0
:109F40006946CDE9002338F02FFD636ABF4AC04956
:109F500023F470436362636A43F420436362636A79
:109F600023F470236362636A43F4202363626B6C9F
:109F7000B84C43F480436B646B6B43F080036B63BA
:109F80002B6A43F080532B62B34B01255D61C4F80B
:109F90008429B24AC4F88869C4E9E712022284F825
:109FA000A4234FF0A042C4F8A82302F50062C4F82D
:109FB000AC2302F58072C4F8B42302F50072C4F831
:109FC000F023A2F5F072C4F8B82302F50072C4F8C9
:109FD000F423A2F5F072C4F8BC2302F50072C4F8B1
:109FE000F823A2F5F072C4F8C02302F50072C4F899
:109FF000FC23A2F5EC62C4F8807984F8A753C4F876
:10A00000B0234032C4F86824C032C4F82C24203273
:10A01000C4F830242032C4F834242032C4F8382460
:10A020002032C4F83C242032C4F840242032C4F842
:10A0300044242032C4F8482402F52262C4F86C2477
:10A0400002F58052C4F8702402F58052C4F87424DA
:10A0500002F58052C4F878244FF05022C4F87C24D2
:10A0600002F58052C4F8802402F58052C4F884249A
:10A0700002F58052C4F88824A2F5E4420021C4F815
:10A08000A82404F5677284F8AE5484F8B01410461E
:10A090000B46402680F81C11A0F82211013104293A
:10A0A00080F81D5180F81F31C0E94963C0F8303194
:10A0B00000F12800EED100231946402082F87433C5
:10A0C000A2F87A330133042B82F8751382F87713E0
:10A0D000C2E9DF01C2F8881302F12802EED14FF085
:10A0E000A0435F489A6822F001029A60DA6842F061
:10A0F0004002DA6037F0C0FE0025212363F31745E4
:10A1000094F8A5330BB145F4801594F89F23D4F847
:10A11000A833012A9D6307D19A6822F03E0141F0DD
:10A120002A0161F307029A60DA68C2F3076121F03D
:10A13000600141F0400161F31F62DA60D4F8A824A5
:10A1400000201060D4F8AC23116860F3CC211160BA
:10A1500094F8A713012912D1116841F0030111608D
:10A1600080225A6202F580029A6202F14012C3F81C
:10A1700004214FF4A072C3F80821C3F80C21102168
:10A180003848394D38F04EF9364838F033F9D4F8BC
:10A19000AC2394F89D0300234FF0FF3113611E465A
:10A1A0005361FF279161D361834237D300232F4D41
:10A1B0001E46FF27984267D8136994F89F1343F40B
:10A1C00080730129136104BF294B1363D4F8A833AA
:10A1D00000229A614FF0FF306FF080425A61586060
:10A1E0005A61244A9A610029234A0CBF1021002198
:10A1F0000A4399690A439A619A6842F001029A6097
:10A20000D4F884391B6898471C4B1D4ADA606846AD
:10A210001C4B009338F0DAF903B0F0BD55F8041B7D
:10A22000D1F800C0BCF1000FACBF4FF0000C4FF0F4
:10A23000904CC1F800C001330E618F60B4E700BFDD
:10A2400000E100E00038024000000240A8000020C9
:10A2500008040100D8220020003C014040004001D9
:10A2600080260020742600208C260020C82600208E
:10A27000030181000008008008383C0000ED00E088
:10A280000005FA054302000155F8041BD1F800C08F
:10A29000BCF1000FACBF4FF0000C4FF0904CC1F878
:10A2A00000C001330E618F6084E710B5084A92F850
:10A2B000903902EBC3040133DBB2042B08BF002347
:10A2C000090284F8940982F89039C4F8981910BDED
:10A2D000D8220020F7B5C24E96F8C739C6F8B4099F
:10A2E0001E2B0D4634460FD014D8122B00F0A5803B
:10A2F00005D8002B5DD0032B6DD02021FBE11A2B5C
:10A3000000F0BA801B2BF8D10025A4F8DC592846B0
:10A3100003B0F0BD282B00F0F78028D8232B00F0E5
:10A32000C780252BE9D1D6F8D83928465B6806F5D1
:10A330001E6206F6E41198470546002844D1D6F877
:10A34000E429A84B013A110E1970110C5970DA70FA
:10A35000110AD6F8E0299970110E1971110C597172
:10A36000110A9971DA710823A6F8DC39CFE72F2B8F
:10A3700000F0A9815A2B00F08D802A2BBDD196F8D0
:10A38000E839002B40F0648196F9C439002BB4DB26
:10A39000D6F8D83908469B689847A8B9D6F8D8396E
:10A3A0002846DB6898470546002800F025812721CC
:10A3B0000BE0D6F8C039002B9FD1D6F8D839084623
:10A3C0009B68984700289FD03A210220FFF76DFF35
:10A3D0004FF0FF359BE7834B122219460020013ACC
:10A3E00012F0FF0203F8010BF9D170230B700C235C
:10A3F000CB7194F8900994F8DE39984212D004EBAE
:10A40000C300013390F894598D70DBB290F89959DC
:10A4100090F898090D73042B487314BF84F8DE3943
:10A4200084F8DE291223A4F8DC3994F8CB39122BF6
:10A4300098BFA4F8DC39002569E796F8C839DA072F
:10A4400017D4D6F8D83996F8CB29DB6901EBC105CA
:10A4500003EB85052B790533934228BF1346614AE8
:10A46000A4F8DC39002BE6D0013B9BB2E95CD15467
:10A47000F8E707235C4DF2E708235C495C4AA6F83D
:10A48000DC39013B11F8010902F801099BB2002BEC
:10A49000F7D1D0E708235749554AA6F8DC39013BE4
:10A4A00011F8010902F801099BB2002BF7D1C2E7AC
:10A4B0004C4A0C2316460021013B9BB202F8011BBB
:10A4C000002BF9D1D4F8D83928465B686A4601A92F
:10A4D0009847054600287FF477AF0823F370019B67
:10A4E000013B1A0E32711A0C7271F3711A0A0223AF
:10A4F0003372009BB2711A0C7272F3721A0A0C2337
:10A50000B272A4F8DC3902E796F8E8396BBB96F929
:10A51000C439002BBFF6F1AED6F8D83908469B688F
:10A52000984700287FF450AFB6F8CE39D6F8C9293D
:10A53000D6F8E4195BBA12BA9BB298188842C6F8EA
:10A54000EC29C6F8F03900F2D580022186F8E81926
:10A55000D6F8E0194A43C6F8EC29D6F8C0294B438F
:10A560009342C6F8F0397FF4C8AED4F8F069D4F855
:10A57000D809D4F8E029D4F8EC1907694FF48053CE
:10A580009E4228BF1E46A4F8DC392846B6FBF2F3EB
:10A59000B1FBF2F29BB21349B847002802DA11214D
:10A5A000042013E733460F4AD4F8B409812137F069
:10A5B00038FAD4F8EC39D4F8F0593344C4F8EC390B
:10A5C000D4F8FC39AD1B9E1BC4F8F059C4F8FC69E3
:10A5D000002D7FF430AF032384F8E83997E600BFFD
:10A5E000D8220020D5630020207304082E730408AD
:10A5F000DC63002036730408B6F8CE39D6F8C919E2
:10A600005BBA9AB209BAD6F8E439C6F8EC19501810
:10A610009842C6F8F0296DD8D6F8E039594353432B
:10A62000D6F8C029C6F8EC199342C6F8F0397FF481
:10A6300064AEB3F5805F28BF4FF4805301219BB215
:10A640002E4AD6F8B40986F8E81937F0A0FA5EE683
:10A65000D6F8F049D6F8D809D6F8E029D6F8EC199A
:10A660004769B4F5805F28BF4FF480542846B4FB97
:10A67000F2F3B1FBF2F29BB22049B847002801DAAD
:10A6800003218DE7D6F8EC39D6F8FC29D6F8B409C1
:10A690002344C6F8EC39D6F8F0391B1B141BC6F856
:10A6A000F039C6F8FC491BB9002137F0B5FAC2E60B
:10A6B000B3F5805F28BF4FF480539BB20F4A01214E
:10A6C00037F065FAB7E696F8C8399B0701D524211B
:10A6D00011E0D6F8C9391ABAB6F8CE39C6F8EC295D
:10A6E0005BBA9BB2C6F8F0391344D6F8E42993421A
:10A6F0007FF60AAE2121052068E600BFD563002061
:10A700002DE9F04790B0DDE9184A0E46074690461D
:10A7100000213A220DF1060099461A9D3AF054F8AC
:10A72000344B02938DF80460CDF834A0002E55D040
:10A73000022E55D0032E55D0042E55D103232E4A78
:10A7400002EB430393F8B8308DF805302B4B03949C
:10A75000D3F89420069714440122CDE904458DF8DE
:10A7600031201D46B8F1000F06D04A46414607A8E1
:10A7700039F032FE8DF8309095F846EA0023BEF1AC
:10A78000010F0E931FD80DF1040ABAE80F0095F8D7
:10A7900045CA3C2404FB0C5404F648240FC4BAE810
:10A7A0000F000FC4BAE80F000FC49AE80700BCFA04
:10A7B0008CFC0EF1010E4FEA5C1C84E8070085F862
:10A7C00046EA85F845CA3B6883B14B464246314666
:10A7D000384610B0BDE8F0471BF04ABB3346AEE741
:10A7E0000123ACE70223AAE70023ADE710B0BDE8E0
:10A7F000F08700BFDC2C002080720408D8220020E3
:10A80000420900F01F03032A4FF0010000FA03F091
:10A8100008D0042A0BD0022A0DD1074B5A6C1043E2
:10A8200058647047044B1A6C104318647047024B0D
:10A830001A6B1043186370470038024013B50123A8
:10A840008DF805304FF48073ADF8063003681B684F
:10A850005B79044623B101A88DF8043037F0DCFEA3
:10A8600023681B689B7923B101A88DF8043037F069
:10A87000D3FE02B010BD031EB8BF2D2210B5B8BF65
:10A8800058420C46AEBF0A2201F8012B0A2235F0CD
:10A890009FFF00230370204610BD10B5084A002317
:10A8A00011461479844203D1142000FB031010BD1B
:10A8B0000133082B02F11402F3D10020F7E700BFA7
:10A8C00040730408054BB3F8F82AD3F8F43A5969F1
:10A8D0000A4214BF5A831A83704700BFD82200204F
:10A8E00013B5094CD4F8DC020DF10702A02135F0B4
:10A8F000ABFB18B19DF807309B0602D5FFF7E2FFCE
:10A90000F0E702B010BD00BFD822002080F00101A6
:10A91000014835F041B900BFCC2D00202DE9F04FA2
:10A92000012085B016461C460D46BA4FFFF7EEFFD4
:10A93000A31904350393039B9E42A5F1040406D199
:10A940000020FFF7E3FF002005B0BDE8F08F3A6A72
:10A95000B24200F2B380D7F830A0A6EB02084FEA6B
:10A96000D80BDAF830300BF1020B9B4508F00708E2
:10A9700003D3DAF838309B4513D951465846FDF7D2
:10A98000ADFD824660B9A5F1080305F5FC72A24948
:10A9900043F8041F9342FAD1013605F50075CAE762
:10A9A00038639AF80430002B6CD04FF40072002109
:10A9B000204639F009FFDAF84030B8F1000F46D1EF
:10A9C00005F11C09CDE900883BBB2046434608221F
:10A9D000F968FEF70BFC4C464FF4F079DAF8448046
:10A9E000A1444FF0000AB8F1000FD5D04C45D3D0A8
:10A9F00098F80420D8F80010D8F8303004F1200B73
:10AA000008F11C00AAB3CDE9000A11222046FEF786
:10AA1000EDFB5C46D8F84880E5E7DAF830307F494E
:10AA200011222046FEF7E2FBDAF840301A6C05F1FD
:10AA30003C04CDE9008842B9434648461122784992
:10AA4000FEF7D4FB4FF4E079C8E71B6BF5E7002B6A
:10AA50000CBF01220222C2EB0812DAF84480B8F1DE
:10AA6000000F03D0013AD8F84880F8D14FF40079AC
:10AA7000B6E798F805C0D8F81020CDE900024CF0F0
:10AA80002102C3E7DAF82890B9F1000F06D14FF49C
:10AA900000720021204639F097FE7DE7DAF8302079
:10AAA000ABEB020BDAF80C2008EBCB08534602EBB9
:10AAB00048224FF400712046C8476DE7002E6ED142
:10AAC0004FF400723146204639F07EFE802384F830
:10AAD000B86184F8B96184F8BA6184F8BB6184F81C
:10AAE000BC6184F8BD6185F8BA310C2385F8BE31AC
:10AAF0003A694C49BB68C4F8C6218A42C4F8CA31D5
:10AB000018DDFF2285F8BB2185F8BD2185F8BC2121
:10AB1000444A013B934228DDFF2385F8BF3185F885
:10AB2000C13185F8C031552385F8FA31AA2385F85B
:10AB3000FB3131E73F2192FBF1F1C1EB811C43F680
:10AB4000C16492FBF4F4A2EB0C02A01020F03F00D1
:10AB50000132024385F8BC21FF2291FBF2F211443D
:10AB600085F8BD4185F8BB11D2E73F2293FBF2F295
:10AB7000C2EB821443F6C16093FBF0F01B1B811003
:10AB800021F03F0101330B4385F8C031FF2392FBD5
:10AB9000F3F31A4485F8C10185F8BF21C3E77B6947
:10ABA0009E4241D15223237063706123A37084F8C5
:10ABB000E731BB6AC4F8E8314FF000084FF0FF33CB
:10ABC00041227221E27084F8E41184F8E51184F8DE
:10ABD000E62184F8EC3184F8ED3184F8EE3184F824
:10ABE000EF314FF4F0724146284639F0EDFD552320
:10ABF000C5F8EC81C5F8F081C5F8F48184F8FE3120
:10AC00006FF0550384F8FC8184F8FD8184F8FF31EE
:10AC1000C2E600BFE0110020DEADBEEF44F604083E
:10AC200043F60408FF03FB003B699E4278D14FF4D2
:10AC300000720021204639F0C7FDEB2305F8043CE3
:10AC40003F4A582305F8033C902305F8023C13685B
:10AC500045F8013C5368C5F80330022200234FF049
:10AC6000080CF821E372227385F809C0A273E3731C
:10AC70002A736374A374E374237569743F21217686
:10AC80004FF0FF31A1763E2121773869B968A3756D
:10AC9000091AE3756376E3766377A377E377216236
:10ACA000D7E90601091A616284F8283084F829304E
:10ACB00085F8263085F8273084F82C2084F82D304C
:10ACC00084F82E3084F82F3084F8313084F8323014
:10ACD00084F833300122802384F8302085F83C301A
:10ACE000292385F83E309423164985F83F300E23FA
:10ACF00085F840300D2385F841300B68124AC5F8BD
:10AD000043304B68C5F847308B68C5F84B30136843
:10AD1000C5F84E30536885F842C0C5F8523002E796
:10AD2000D7E906138E4206D39E4207D2711A2046F7
:10AD3000FDF7F8FB30E69E42FFF4A9AEF11AF6E704
:10AD4000BCEB0408C5EB0408D2EB040808B50020EE
:10AD5000FFF7DCFD002008BD37B5414CD4F8985012
:10AD6000002D7BD110232A462D21022037F0A5FF8C
:10AD7000C4F8980078B3032135F022FA9F233220DB
:10AD8000009334F02EFE04236A460DEB0301D4F841
:10AD900098008DF8055035F035F99DF806309DF88E
:10ADA00005201B0243EA02439DF8072013432D4A66
:10ADB00093422D4A4DD035DC2C498B4247D00CDCD8
:10ADC0002B498B4214D02B498B4244D00020C2E93E
:10ADD0003300C2F8C40003B030BD27498B4236D0DF
:10ADE00001318B4237D0A1F51A4103398B42EDD1A5
:10ADF000224BC2F8C430B2F8C830B2F8C4101B02FB
:10AE0000C2F8CC304B43B3F1807FC2F8D03005D9C3
:10AE10000123B72084F8383CFEF778F9012084F844
:10AE2000390CD8E716498B42E2D007DC15498B4232
:10AE30000DD002318B42C9D1134BDAE713498B4253
:10AE400009D001318B42F7D002398B42BED1104B71
:10AE5000CFE7104BCDE74FF00123CAE70120BAE757
:10AE6000D82200201620C2000000002017301C004D
:10AE7000154001001860010017BA200020000001F1
:10AE80001540EF001720C200000200011840EF003B
:10AE9000800000014000000170B50020FFF736FD82
:10AEA000094D01244FF4067655F8040B20B1C680F5
:10AEB0000472012137F002FE0134042CF4D1002089
:10AEC000BDE8704022E500BFE073040870B50E4C89
:10AED00005460C2694F83A3C032B01D9002011E0DA
:10AEE0005A1C06FB034384F83A2CD3F83C2CD107B8
:10AEF000F0D51542EED093F9400C1BF073FC0028FE
:10AF0000E8D0406870BD00BFD8220020024B00226C
:10AF100083F83A2CDAE700BFD822002030B5264B60
:10AF200010201D78A5F1300109291A4603F101030B
:10AF300029D9214C0021131B022B27DC0023A2421C
:10AF40002ED82E2D36D1501C04240022057802EB79
:10AF50008202303D5200092D92B298BF521904F17D
:10AF6000FF349CBF013092B214F0FF04EED1642094
:10AF70005043124A02FB03000623B0FBF3F0104BD0
:10AF800003FB010001E00138CBD130BD01EB8101B1
:10AF9000490014F8010B3039014401F0FF01CAE700
:10AFA00003EB83035B0014F8010B303B034403F015
:10AFB000FF03C4E70022DAE7482F002040420F00D9
:10AFC0008096980030B5002351F8234052F8235062
:10AFD000641B40F823400133032BF5D130BD2DE92C
:10AFE000FF4180460846154635F04FFD4FF47A7212
:10AFF000002306460F4638F055FEB5F900303C24D4
:10B0000003FB0404394630464FF47A72002338F0CB
:10B0100049FE002796B24FF47A73C3FB04673B46A0
:10B02000324601A835F0ACFC394B93F8823C012B39
:10B0300009D0022B35D032463B46404635F0A0FCC5
:10B0400004B0BDE8F0819DF80640E31E072BF2D85E
:10B05000231F052B0DD92146BDF8040035F03EFC19
:10B060009DF8073098420ED0E11E18BF012100293B
:10B07000E1D02B883C332B80264BF6184FF0000391
:10B0800043EB0707D7E7032C03D19DF808100031E5
:10B09000EBE70A2CCFD19DF80810B1FA81F14909EC
:10B0A000E5E79DF80640E31E082BC4D8231F062BB6
:10B0B000DFD92146BDF8040035F010FC032C12D175
:10B0C0000E280ADC9DF80730984208D19DF8081038
:10B0D000012994BF00210121C9E70738F0E7B4BF77
:10B0E00001210021C3E70B2CA5D107280ADC9DF81C
:10B0F0000730984208D19DF8081001298CBF002123
:10B100000121B4E70738F0E7CCBF01210021AEE709
:10B11000D822002080EE360030B50468E46985B09E
:10B120002CB10DF10F050095A04705B030BD2046AC
:10B13000FBE708B5064830F0FBFA064832F010FE8F
:10B14000054B93F8842C12B1012283F8852C08BD9D
:10B15000DBEB0408E7EB0408D82200202DE9F04FD0
:10B1600087B0DFF8ACA005910746904699460025C8
:10B17000B8F1000F07DBA84505D00135042DF7D144
:10B1800007B0BDE8F08F059AD6236B4302EB030BA3
:10B190001E4AD31804930024B9F1000F01DBA14526
:10B1A0002FD1049B3BF8146033F81430F21A564246
:10B1B000564113F4006F03F01F02C3F3441114BF90
:10B1C00056234823CDE90213CDE900422B465246CF
:10B1D0003146384631F088FA3BF8143013F4006FEA
:10B1E00003F01F02C3F3441114BF56234823CDE9D3
:10B1F0000213CDE900422B4652463146384631F023
:10B2000089FA01346B2CC7D1B7E700BF602F00204B
:10B21000F4EB04082DE9F04F364C374B374ADFF892
:10B22000E4B0884694F8241887B0002908BF1A466D
:10B23000814694F92518324830F07EFED83C4646C7
:10B240000027B8F1000F52D096F800A094F85C03E4
:10B25000F168B6F910C096F816E05045D6E901320B
:10B2600043D1D4F8600398423FD1D4F864039042AC
:10B270003BD1D4F86803884237D1B4F96C036045F8
:10B2800033D194F87253A5EB0E0045424541CDE908
:10B290000221CDE900A3CDE904CE3B465A4629461A
:10B2A000484631F021FA94F872330593B4F96C33BF
:10B2B0000493D4F868330393D4F864330293D4F836
:10B2C0006033019394F85C3300935A463B46294619
:10B2D0004846013731F01EFA3C2F04F1180406F1FC
:10B2E0001806AED107B0BDE8F08F0025CFE7454680
:10B2F000D9E700BFD03300200EEC0408D7150508AD
:10B3000011EC040820EC040870B51D4D95F81032BE
:10B310002DED028B04460E4663B3D5F81832036058
:10B32000D5F81C32436095ED858AD5F820328360CC
:10B33000DFED148A96ED000A80EE280A39F0D2FB80
:10B3400023681844206028EE288A96ED010A80EED2
:10B35000080A39F0C7FB63681844606096ED020A7A
:10B3600039F0C0FBBDEC028BA3681844A06095F8CF
:10B37000100270BDC0E900338360B7EE008AD7E7E2
:10B38000D03300202C7D8E3F70B51B4C94F81052AA
:10B3900065B3D4F818620B68DFED186A9B1B07EEE3
:10B3A000103AB8EEC77A4B68D4F81C6227EE267ABA
:10B3B0009B1B07EE903A80ED007A94ED857A8B68BE
:10B3C000012AF8EEE77A27EE267A18BFD4F8202271
:10B3D00067EE877A18BF9B1AC0ED017A07EE903AA4
:10B3E000F8EEE77AC0ED027A284670BD00230360CC
:10B3F00043608360F8E700BFD03300202C7D8E3F90
:10B400000C4608B505461AF09DFF20461AF09AFF33
:10B410000020FFF77BFA284634F02AFB60B10120B8
:10B42000FFF774FA284634F01DFB0146204634F03D
:10B4300022FB0020FFF76AFA204634F019FB0028AF
:10B44000E9D00120FFF762FA204634F00BFB0146F9
:10B45000284634F010FBDBE7F0B505460C4689B012
:10B4600014220021204639F0AFF92A681D4E04A9A4
:10B47000C2F3855000230D4640FA03F7FF0744BF8F
:10B480009F5D01F8017B0133062BF5D1164800239F
:10B490000B70C2F303210144C2F3053691F8721117
:10B4A0008DF8181000F279100DF1190146FA03F722
:10B4B000FF0744BF1F5C01F8017B0133062BF5D168
:10B4C00000230B70C2F38343029306ABCDE9005314
:10B4D000064902F00F032046C2F3031235F09BFB2E
:10B4E00009B0F0BDEC7304088072040838EC04085D
:10B4F0001FB5324901A891F82120643116F036FABF
:10B500000398019A80EAE073A3EBE07307EE903AA8
:10B51000F8EEE77AF7EE086AC7EEA65A82EAE27317
:10B52000A3EBE27307EE103AB8EEC77A029BF4EE93
:10B53000C75AF1EE10FA13DD83EAE371A1EBE37170
:10B5400006EE101AB8EEC66AF4EEC65AF1EE10FA1C
:10B5500006DD0028CCBF0020012005B05DF804FB0B
:10B56000C7EE265A83EAE371A1EBE37106EE101AE7
:10B57000B8EEC66AF4EEC65AF1EE10FA09DDF4EE42
:10B58000E57AF1EE10FA04D5002ACCBF02200320A0
:10B59000E3E7C6EE265AB4EEE57AF1EE10FA09D5E5
:10B5A000F4EEE57AF1EE10FA04D5002BCCBF0420BE
:10B5B0000520D2E74FF0FF30CFE700BF58F300205F
:10B5C00030B52A4A92F854388B424DD192F855182A
:10B5D000DFED276AD2F8785802EB4104013101F01F
:10B5E0000F0182F8551892F89418B4F85638A4F858
:10B5F000560807EE101AB8EEC77A92F8951827EE9B
:10B60000267AC31AFDEEC77A2B4417EE900A07EE8E
:10B61000901AF8EEE77AC2F8783867EEA67A1B0936
:10B62000FDEEE77AA2F87C3817EE901A88420FDD1B
:10B630009BB29942D4BF5B1A00239842A6BFC31A9B
:10B640009BB20023A2F87C38034617EE900A1946F5
:10B65000B2F87C381B1AC3EB8323091A93FBF1F170
:10B6600081F30A01A2F87C1830BD00BFD03300205E
:10B6700014AE23412DE9F04FDE4C2DED028B94F8F2
:10B68000093283B0062B30D8DFE813F00700CA0078
:10B69000D60029017E015802D602B4F80CC2D64861
:10B6A000D4F810224FEA5C0100EB8C088B004FEAC3
:10B6B000DC0CC61847464344A0F5DA7502EB0C1CB7
:10B6C0009646E64507F1100706F1100603F1100350
:10B6D00005F1100519D18DB22946FCF791FCD4F87B
:10B6E000102229464046FCF78BFC94F809320722C9
:10B6F0000133B3FBF2F2C2EBC2029B1A84F80932A7
:10B7000003B0BDEC028BBDE8F08F17ED040A95ED98
:10B71000696A57ED030A95ED6A4A53ED046A53EDE1
:10B72000034A17ED027A17ED015A56ED032A16ED7A
:10B73000023A56ED013A53ED027A53ED015A95ED76
:10B740006B1A16ED042AD5ED6C1A36EE008A36EE29
:10B75000406A85ED698A34EE208A34EE604A85EDD0
:10B760006A8A31EE078A0EF1100E85ED6B8A31EE92
:10B77000858A31EEC55A72EE261A85ED6C8A46ED41
:10B78000041A72EEA41A74EEE24A46ED031A73EE3E
:10B79000271A77EEC37A46ED021A73EEA51A75EEF4
:10B7A000E35A46ED011A5EED033A1EED043A64EEEB
:10B7B000232A76EEC26AE6EE032A23EEC66A47ED36
:10B7C000042AA4EE036A31EE477A07ED036A23EEFA
:10B7D000646AA6EEA36A66EE836A03ED046AE4EE89
:10B7E000A36A43ED036A1EED026A5EED016A65EE2F
:10B7F000264AE7EE064A26EEC77A47ED024AA5EE4C
:10B80000067A07ED017A26EE657AA7EEA67A67EE4C
:10B81000867A03ED027AE5EEA67A43ED017A50E7E7
:10B82000D4F81422B4F81812734837F0DFFB94F8F8
:10B830000932013384F80932D4ED8A7AD4ED895A79
:10B84000B4F80C226C4BD4F8200277EEA77AB0EE55
:10B85000006AF0EE676AE5EE866A013A03EBC20120
:10B86000D5EE867A10300839B6EE007A66EE876A31
:10B8700067EE877AC4EDA96AC4EDAA7AA3F5DA73F4
:10B88000F0EE476A91ED034A91ED027AD3ED6F3AFB
:10B89000D3ED707A50ED025A50ED014A37EE635AFB
:10B8A00034EE276A37EE237A77EEC47AA5EE857AEE
:10B8B000013A00F10800E4EE857AA1F1080103F1F4
:10B8C0000803A4EE867AE5EEC67A27EE267A67EEBE
:10B8D000A67A83ED8D7AC3ED8E7AD3D105E7474DF5
:10B8E0004FF000092E460427C84695ED8E0AD5ED87
:10B8F0008D7A20EE000AA7EEA70AB5EEC00AF1EE97
:10B9000010FA6ADB39F014FC86ED6D0A95ED900AA9
:10B91000D5ED8F7A20EE000AA7EEA70AB5EEC00A91
:10B92000F1EE10FA5CDB39F003FC86ED6E0A95ED62
:10B93000920AD5ED917A20EE000AA7EEA70AB5EE9D
:10B94000C00AF1EE10FA4EDB39F0F2FB86ED6F0A19
:10B9500095ED940AD5ED937A20EE000AA7EEA70A9A
:10B96000B5EEC00AF1EE10FA40DB39F0E1FB86EDEE
:10B97000700A013F05F1200506F11006B5D194F8D3
:10B980000932013384F8093294F89C231B4D9FED52
:10B990001C7A002302F16D0105EB810118461E4659
:10B9A0000F2A2FDD04EB830292ED897A67EE077A86
:10B9B0005A1C67EE877A07EE102AB8EEC77A03F1B1
:10B9C0006E0227EE277A1F4605EB820219460F29E1
:10B9D0002ED105EB8303421C5EE0C6F8B49195E7D7
:10B9E000C6F8B881A3E7C6F8BC81B1E7C6F8C08144
:10B9F000BFE700BF58F300207CF50020C8F300200B
:10BA000000000000F1EC017A3EB951ED026AF4EE5B
:10BA1000E76AF1EE10FA09D5D0B2B4EEE77AF1EEAA
:10BA200010FA44BFD3B2B0EE677A01260132B7E70D
:10BA300012ED016AD2ED006AB4EEE66AF1EE10FA98
:10BA400001F1010102F10402C3DD66EE066A66EE51
:10BA5000866A06EE101AB8EEC66A77EEA67AA6EEE9
:10BA6000867AB4E793ED6D6A043BD3ED6D6AB4EE6C
:10BA7000E66AF1EE10FA07F1FF310FDD66EE066AB5
:10BA8000781C66EE866A06EE100AB8EEC66A77EE95
:10BA9000A67AA6EE867A0F469742E3DCF5EEC07AE8
:10BAA000F1EE10FA94F80A623FDD87EE278AF7EE8E
:10BAB000007A38EE678AD4EDE87A28EE278AB4F85F
:10BAC000A40337F047FCCDE9000118EE100A37F067
:10BAD00063FC9DED001B41EC100B38F00FFF51ECA7
:10BAE000100B37F081FF242303FB065500EE100AEC
:10BAF00005F52D7033F0DCF994F80A3203F5C873BC
:10BB000004EB4303BCEEC00AB3F87020A3F8762020
:10BB100010EE102A92B2A3F87020B4F8A8339A421B
:10BB200038BF1A46A4F8A823DFE504EB4603B3F8B0
:10BB3000963308EE103AB8EE488AC0E794F80A52F5
:10BB400005F5C87304EB4303B3F87010B3F876300F
:10BB50008B4261D04D4E94F82C3496ED1B0AD4F8EC
:10BB60001C2405EBC50506EB850537466C37D5F873
:10BB700014B0D5F818A0D5F81C90D5F82080002B6B
:10BB800000F0818007EE901A96ED217AF8EEE77AC0
:10BB9000012367EE877A2846FCEEE77A17EE901AC3
:10BBA00089B235F05CFD94F80A3296ED3D7AC5F81D
:10BBB00014B003EBC30204EB4303C5F818A0B3F8B9
:10BBC0009033C5F81C9007EE903AF8EEE77AC5F886
:10BBD000208067EE877A06F18805FCEEE77A05EBB0
:10BBE000820517EE901AD5F814B0D5F818A0D5F83C
:10BBF0001C90D5F8208097ED000AD4F81C2401236E
:10BC000089B2284635F02BFDC5F814B0C5F818A048
:10BC1000C5F81C90C5F8208094F80A32032201333D
:10BC2000B3FBF2F202EB42029B1A84F80A3294F858
:10BC30000932013384F8093294F88420144D94F8C1
:10BC40000A02C2F120010632CFB202EB401005F227
:10BC500034463B4605F5DA72314605EB8000FCF7C9
:10BC6000A9FC94F88430002B3FF43FAD94F80A020D
:10BC7000B90001F5DA7205EBC0102A4431441830DE
:10BC8000FCF798FC31E50123BBE700BF04F7002077
:10BC9000C8F3002030B5194CD4ED017A89B0F1EE2B
:10BCA000677ACDED057AD4ED027A00230093F1EEA8
:10BCB000677A0B680193CDED067A4B68D4ED037A71
:10BCC00002938B680393054623680493F1EE677A29
:10BCD0006A4604A96846CDED077A1CF0C3FE6946A2
:10BCE000224608461CF0BEFE019B2B60029B6B6047
:10BCF000039BAB60284609B030BD00BF7CF8002034
:10BD000038B502782DED088B30EE608AD0ED01AAAF
:10BD10000446B0EE40AAF0EE419AB0EE619AB0EE61
:10BD200042BA0D4668EE2AAA01F001034AB1002B7F
:10BD30000CBFF0EE607AF0EE487A0022C0ED0B7A8C
:10BD40000270D4ED0B7A002B60D078EE677AF0EEBB
:10BD5000480A87EEA90AC4ED0B0AD4ED090AD4ED0E
:10BD6000038AF5EEC00AF1EE10FA05DDB0EE691AAD
:10BD700004F1180033F0E8F8D4ED057A94ED0A7A6E
:10BD80002AEE27AA20EE280A7AEE877A77EE807AC2
:10BD900077EE8A7AF4EEC97AF1EE10FA08D4F4EE6E
:10BDA000CB7AF1EE10FAD4BFB0EE679AB0EE4B9AB0
:10BDB000D4ED026A94ED046AC4ED0DAA28EE268A39
:10BDC000F0EE476AE9EE886A6B0779EE677A84EDF0
:10BDD0000C7A67EE867A84ED0E0AE9EEA76A84EDA6
:10BDE0000FAA84ED109AF0EE667A08D5F0EEE66AB6
:10BDF000B0EEC77AF4EEC76AF1EE10FA01D5C4EDE1
:10BE00000A7AB0EE490ABDEC088B38BD70EEE77ACD
:10BE1000F1EE677A87EEA90A9DE72DE9F0412DED55
:10BE2000068B09EE100A06F0E5FCA24CD0ED047A70
:10BE300094ED7F8A90ED037AD4ED7E8A9E4F38EEA2
:10BE4000678A78EEC78A28EE080AA8EEA80A39F0B1
:10BE50006FF9DFED9A7A9A4B97ED006AD3F8088074
:10BE6000B4EEE70AF1EE10FAC9BFDFED967ADFED26
:10BE7000967AC7EE806AB0EEE87AC2BFF0EEC87A72
:10BE800027EE267A67EEA67AB8EEC98ADFED8F6ACA
:10BE900028EE268ADFED8E6A68EE266AD8BFB0EEFD
:10BEA000677A18F4006F18BF76EEA66AB1EE47AA5B
:10BEB00036EE669AB4EECA9AF1EE10FA00F1EE8010
:10BEC000B4EE479AF1EE10FAC8BFB0EE479A36EEDC
:10BED000266AB4EEC6AAF1EE10FA08DCB4EEC67A11
:10BEE000F1EE10FA54BFB0EE46AAB0EE47AA794E72
:10BEF00096ED007A77EE668AF1EE679AF4EEE98ABB
:10BF0000F1EE10FA00F1CD80F4EE678AF1EE10FA4E
:10BF1000C8BFF0EE678A76EE876AF4EEE69AF1EE35
:10BF200010FA08DCF4EEE67AF1EE10FA54BFF0EE07
:10BF3000669AF0EE679A06F05DFCD4ED7EAAD0ED2D
:10BF4000030A6548B0EE4A2AF0EE491A0021B0EE25
:10BF5000481AB0EE6A0AFFF7D3FEB0EE409A06F038
:10BF600049FC94ED7FAAD0ED040A5C480021B0EEB4
:10BF7000692AF0EE681AB0EE481AB0EE4A0AFFF7E6
:10BF8000BFFE94F8DE5818F4805F05EB85054FEA94
:10BF900045053DD094F8EA38D3B307EE903ADFED8B
:10BFA000506AB4F8EE3894ED7A6AB8EE677AC7EE64
:10BFB000267A06EE903AB4F8C438B8EE667A06EE01
:10BFC000903A36EE476AF8EE666A26EE276A76EE13
:10BFD000C76A86EE267ADFED436A37EE267AB4EE3C
:10BFE000E67AF1EE10FA5FD4F4EEC77AF1EE10FAC9
:10BFF00058BFF0EE477AB7EE007A77EE877A94F87A
:10C00000F25829EE279A05EB850520EE270A6D00E8
:10C01000D4ED787A94ED777A86ED000A60EE278A7F
:10C0200020EE070ADFED300A87ED009AA9EE270A15
:10C03000E9EE478A35F0ECF8B0EE408A35F0BCF90D
:10C04000DFED290A28EE800A35F0E2F8F2EE046A04
:10C0500020EE260A9FED257AC0EE077A6A42FDEEB1
:10C06000E77A17EE903A934221DBAB42A8BF2B460A
:10C0700068EE266AA4F84838C6EE877AFDEEE77ABD
:10C0800017EE903A9A4203DC9D422A46A8BF1A4610
:10C09000BDEC068BA4F84A28BDE8F081B0EE4A9AC0
:10C0A00015E7F0EE698A36E7F0EE667AA3E7134605
:10C0B000DEE700BFD0330020783C0020CDCCCC3D63
:10C0C00058F3002000007544C23D2D44BD3786352D
:10C0D0000080D4447C3C0020D83300201C34002055
:10C0E0000000C842000000008F2A754435FA8E3CDB
:10C0F00010B588B0002300930B6801934B6802933E
:10C100008B6814490393D1ED017A0B680493F1EE27
:10C11000677ACDED057AD1ED027AF1EE677ACDED51
:10C12000067AD1ED037A0446F1EE677A6A466846EC
:10C13000CDED077A1CF096FC694604AA08461CF06F
:10C1400091FC019B2360029B6360039BA3602046DC
:10C1500008B010BD7CF8002010B51E4C94ED010A0B
:10C16000D4ED006A94ED027AD4ED037A20EE000A51
:10C17000A6EEA60AA7EE070AA7EEA70A38F0D8FF90
:10C18000DFED157AB4EEE70AF1EE10FA08D54FF0BC
:10C190007E53236000236360A360E3600D4810BDFD
:10C1A00094ED007AC7EE007A94ED017AC4ED007A3E
:10C1B000C7EE007A94ED027AC4ED017AC7EE007AF8
:10C1C00094ED037AC4ED027AC7EE007AC4ED037AE7
:10C1D000E4E700BF7CF80020BD37863530B51C7819
:10C1E00014B1012C05D030BD9A780270DB780B7049
:10C1F000F9E7B3F9024052B1157B94FBF5F40470F2
:10C20000B3F904302AB1527B93FBF2F3EFE70C252C
:10C21000F3E71222F8E730B51C7814B1012C0FD0E7
:10C2200030BD9D7842B1147B6C430460D8782AB14C
:10C23000537B43430B60F3E70C24F5E71223F8E745
:10C24000B3F902200260B3F90430F3E72DE9F041BD
:10C250002DED028B1B4D84B004460E4617469846C2
:10C2600013460A460146D5F82009B0EE408A33F05D
:10C2700089FD9FED150A9DF83030CDF8048028EE39
:10C28000000A0022FDEEC07A009217EE901A02A872
:10C290000EF0EBFC9DF834001EF000F980463846A5
:10C2A00036F00EFF611C0144CDF8008002AB32462F
:10C2B000C9B2D5F8200933F02AFD04B0BDEC028BD9
:10C2C000BDE8F081D03300200000C84270B50D4CAD
:10C2D00006460D4613460A460146D4F8200933F0B7
:10C2E000D9FD94F9243904EB430201335BB2272BC7
:10C2F000C8BF002382F8256982F8265984F82439BA
:10C30000012070BDD03300202DE9F347284C16469C
:10C31000FE2284F8772994F88C2A84F8792901324E
:10C3200084F88C2A4FF6FF721F4684F8786984F8E7
:10C330007A0984F87B19ADF80620062504F67818EA
:10C34000013DADB23DBBDFF87080BDF8063094F81A
:10C350007859A4F875394FF6FF79A8F1080A013D1C
:10C36000ADB24D451ED13846124904F043FA94F857
:10C370007839B4F87529234406F1080083F87D293B
:10C3800094F87839B4F875292344120A83F87E2981
:10C3900002B0BDE8F0870DF1060118F8010B04F0BA
:10C3A00029FACDE7514618F8010B04F023FAD6E735
:10C3B000D0330020453D00204D3D002017B48DF8BE
:10C3C00005308DF804200A4BBDF804209DF810407C
:10C3D000A3F87D292F2283F87C2983F87F49032243
:10C3E00099238DF8064003B05DF8044B8CE700BF3D
:10C3F000D0330020054991F8B92A0023042A0360AC
:10C4000028BF042201F6BE2137F0E6BFD03300205A
:10C4100010B4074991F8B92A00240480022A28BFE1
:10C42000022201F6BE215DF8044B37F0D5BF00BFF4
:10C43000D0330020F8B5204C1D250F46064684F861
:10C44000C65B19F067FE002019F0F0FD082019F016
:10C45000EDFD0E2019F0EAFD284619F0E7FD042055
:10C4600019F0E4FD042019F0E1FD002019F0DEFDD3
:10C47000302019F0DBFD002019F0D8FD384619F006
:10C48000D5FD002019F0D2FD19F024FE04F6C730C6
:10C4900019F034FD234670B194F8C72B52B994F8C3
:10C4A000C82B302A00D02AB993F8C92B12B993F8B7
:10C4B000CA3B33700120F8BDD0330020011D00239A
:10C4C000884201D11846704710F8012B53400822CA
:10C4D00013F0800F4FEA430318BF83F03103013A92
:10C4E000DBB2F5D1ECE7094A00231046117831B1EF
:10C4F0009178802903D1682202FB03007047013341
:10C50000102B02F16802F1D100207047A83F0020F3
:10C510002DE9F743104B93F8504307468846C4B9BA
:10C520000E4DA14605F52576286858B133F080FAFE
:10C5300040B1CDF800902B4642463946B62019F05E
:10C5400074FC0446DC35B542EED1204603B0BDE8AC
:10C55000F0830024F9E700BFD822002028460020FD
:10C560000E4B062230B483F8F623242283F8F723F7
:10C5700083F8F823002283F8F923094A03F2FA31F9
:10C5800002F1240452F8045B41F8045BA242F9D1A1
:10C5900030BC83F8FC030DF043B800BFC844002052
:10C5A000FF73040813490023F0B51A460D461E46D2
:10C5B0000A278C1894F8704C0CB91846F0BD2E2C34
:10C5C00006D101320028F8D08C18044484F8706C2D
:10C5D000AC187B4394F8704CA4F1300CBCF1090FFB
:10C5E0009CBF303B1B190E2A01D80132E1E7002322
:10C5F000E3E700BFD822002010B50A4C04F628005B
:10C6000006F0BCFED4F83438C01A34F0BBFD002864
:10C61000B8BF404242F210739842D4BF00200120BC
:10C6200010BD00BFD033002010B51C2033F05AFAE3
:10C630001121044636F042FA204633F079FAC82038
:10C6400033F0CFF92046BDE8104033F076BA2DE93B
:10C65000F04FB54CD4F8A8335E6916F001068BB0E4
:10C6600040F084825A699B691340019300F07E82F6
:10C67000C3F30743180700930ED5D4F8AC33DFF8A3
:10C68000B0929F69DB6904F5677B1F403F0CDA4677
:10C69000D846002F40F00381009B590711D5D4F8EC
:10C6A000AC23A24F9369D26903EA02081FFA88F803
:10C6B0003E464FF0000AA7F5677BB8F1000F40F047
:10C6C0003F819DF80460B10741BF974BD3F8A83371
:10C6D00002225A61019B002B1BDA934B93F8A6238D
:10C6E0003AB1D3F8A824136823F0030161F30703D8
:10C6F0001360D4F8AC238D48536823F001035360D2
:10C700008B4BD3F8EC309847D4F8A8334FF0004265
:10C710005A61019BC3F307252A072FD500238DF803
:10C72000173094F8AE348DF81730814B7F48D3F82A
:10C73000E8309847D4F8A823D4F8AC334FF400611C
:10C740009B68516194F8A623C2B1DB0716D594F813
:10C75000B134012B12D19DF81730032B0ED1D4F830
:10C76000A8341A6842F001021A601A6842F0030203
:10C770001A60704A136943F00603136137070AD53C
:10C78000694F6B4B07F56770D3F8E0309847D7F8DF
:10C79000A83308225A61F60614D5D4F8A803836991
:10C7A00023F010038361036AC3F34341022903F0BA
:10C7B0000F0200F06B81062900F09081836943F03D
:10C7C00010038361E80633D5D4F8AC235748536887
:10C7D000002623F001035360314635F023FE94F820
:10C7E0009DC3554A37463346FF206345C0F08481D8
:10C7F000D4F8AC334D484FF0FF329A614FF001123C
:10C80000DA610B2262F3070662F307075E611F61BC
:10C810001A686FF30A121A6035F04EFBD4F8A83389
:10C8200042484FF480525A61414BD3F8E430984764
:10C83000A90640F17D813C4AD2F8AC33D2F8B4036A
:10C8400099680268C1F34101022906BF032161F31F
:10C850000A026FF30A0202605A6842F480725A6058
:10C8600006A835F073FFD4F8A813D4F8AC03CB684E
:10C87000079A6FF38D23CB6085683048C5F3410577
:10C88000284490F8A301032840F03D81002284F859
:10C890009E234FF40072A4F8A023092242E1F90775
:10C8A0003BD5F1B204EB8103D3F8F0339D68D4F8A3
:10C8B000AC335B691D40EA071FD594F89F03DBF892
:10C8C00054300125A8429D6007D11869DAF87C33FD
:10C8D000C0F312001B1ACAF88C33D9F8D430404682
:10C8E000984794F89F33012B07D136B994F8AD34AB
:10C8F000052B02D1404635F0DFFAAB0742BFDBF82B
:10C90000543002259D60280707D5D9F8DC30404611
:10C910009847DBF8543008229A6001367F080BF103
:10C92000040B0AF1280AB4E6D8220020742600205D
:10C930000000002000ED00E08C260020807204083A
:10C9400018F0010F61D0D4F8AC335FFA8AF9196995
:10C950005D6B04EB890225FA09F5D2F8B423ED01E9
:10C960009268EDB20D431540EA071CD55A6BA048FA
:10C97000012505FA0AF122EA01025A63BB699D60AA
:10C980009C4B4946D3F8D830984794F89F33AB4234
:10C9900009D1BAF1000F06D194F8AD34042B02D1BD
:10C9A000934835F089FA280742BFBB6908259D6086
:10C9B000E90642BFBB6910259D606A0642BFBB699C
:10C9C00040259D60AB0742BFBB6902259D602806DC
:10C9D0001BD5D6E94C329B1AD6F82421D7F818C0BB
:10C9E000DBF8ACE3DCF81850934228BF134603335E
:10C9F00009F132099B080BEB8909ADB29D4204D9BC
:10CA0000D6E94C02904200D930B90AF1010A4FEA46
:10CA100058080437283650E6D6F82431801A984250
:10CA200028BF18469BF89F23C31C9B08DAB1D6F891
:10CA30002811D6F83421DCF818500144C6F8281122
:10CA4000D6F8301102448A42C6F83421D5D196F87E
:10CA50001C11DEF83420012000FA01F122EA010263
:10CA6000CEF83420C9E7D6F82811029181B20331FB
:10CA700089100391D9F8A4130D4603999142D6D099
:10CA8000029951F8221029600132F6E747F6F07159
:10CA900019423FF493AE282101FB0241C3F30A136C
:10CAA000DE1CD4F86CC4D1F81C77B61000218E427D
:10CAB0000ED1514E282101FB0262D2F81C171944F5
:10CAC000C2F81C17D2F828170B44C2F8283775E6AD
:10CAD000DCF800E047F821E00131E8E7D4F86C1415
:10CAE0000E68C4F868690968C4F86C19282101FB4C
:10CAF0000242C3F30A13E5E752F8041B8860916B06
:10CB00000133886071E6012084F89E034020A4F878
:10CB1000A003A0F56400A0F56240384C1044A04288
:10CB200027D80E2262F38D23CB604FF400534B6164
:10CB3000009BDA060BD5304C2E4B04F56770D3F80A
:10CB4000F0309847D4F8A8334FF480125A61009B14
:10CB50009B060BD5284C274B04F56770D3F8F430AF
:10CB60009847D4F8A8334FF400125A610BB0BDE8CF
:10CB7000F08FA2F57400224CA0F51050A04201D80D
:10CB80000D22CFE71F48204C1044A04201D80C22B0
:10CB9000C8E7A2F18C701D4CA0F54340A04201D81B
:10CBA0000B22BFE71A481B4C1044A04201D80A22AE
:10CBB000B8E71948194C1044A0427FF66EAEA2F1B6
:10CBC000B770174CA0F55850A04201D80822A9E729
:10CBD0001448154C1044A04201D80722A2E713487C
:10CBE0001044134A904294BF062205229AE700BFE0
:10CBF0007426002000000020D82200203F420F00B1
:10CC0000DFC810002013FBFE1FD61300FF691800B9
:10CC100000D3CEFE3F771B00C05BB3FEBF91210067
:10CC20003FAC2700C01D6AFE3FE13300803C36FE6A
:10CC3000DF9C410070477047704770470A4B93F87C
:10CC400036241044C0B2020648BF803883F8360448
:10CC500093F8372493F83614914202BF002283F8E8
:10CC6000372483F836247047C844002030B50B4A77
:10CC700092F8363402F58764E518C0E9005492F85A
:10CC8000372493429BBFD31A0B60C3F18003002368
:10CC900094BF4B60C1E9003230BD00BFC8440020E2
:10CCA0001FB502A86946FFF7E1FF054B0098D3F8CE
:10CCB000B8341844019B184405B05DF804FB00BF6C
:10CCC000C8440020054B93F8370493F83634984253
:10CCD00036BFC3F18003C01AC0187047C844002093
:10CCE000F0B51E4C94F8E252C3B006460F46002D34
:10CCF000FDD1012384F8E232FCF770FBFF2E4FF0E8
:10CD0000090388BFB5088DF804308DF8056088BF29
:10CD100005F0C00501AB00224FF00A0C0B2645EAD6
:10CD20000201B85C83F802C00132362AD9701E7144
:10CD3000587103F10403F2D14AF20803ADF8DE3072
:10CD400001AADC230021D4F8DC0233F05BF9FDF703
:10CD5000C7FD002384F8E23243B0F0BDD8220020A2
:10CD6000F8B51D4C94F8E23205460F46002BFDD174
:10CD7000012384F8E232FCF731FBEAB206460921CE
:10CD8000D4F8DC0233F07CF9B5F5807F05D1402280
:10CD90000A21D4F8DC0233F073F950220821D4F8C8
:10CDA000DC0233F06DF9FDF79BFD0025EAB20A21A4
:10CDB000D4F8DC0233F064F97A19C021D4F8DC022B
:10CDC000013533F041F9362DF0D10EB9FCF706FBF1
:10CDD000002384F8E232F8BDD82200202DE9F04F7C
:10CDE0006E4B6F4E93F8E412A9B00A230020029311
:10CDF000024603460DF114094FF0050A4FEA521E90
:10CE0000674D02F01F0205EB8E0C4FF0FF3455F812
:10CE10002E5004FA02F707EA050292FAA2F2B2FAD9
:10CE200082F2D2B2202A6ED002EB4E125D4D05EB9B
:10CE30004205C2F3072CB5F8F8E44FEA1E245FFA66
:10CE40008EF5019415F0040F09EB03040394D7B297
:10CE500001F0400B03F1010403F1020870D0BBF1B3
:10CE6000000F08D10398042341F04001037009F832
:10CE700004104346012028AC04EB030EAD004FF034
:10CE800006040EF88A4C0EF8875C0EF8844C03F109
:10CE90000B0528AC4CF0020825440EF88B8C019C45
:10CEA0000EF88CAC4FF007080EF8897C0EF8888CD1
:10CEB0000EF886AC0EF885CC0EF8837C0EF8828CCA
:10CEC0000C3305F88C4C4FEA521C012502F01F0769
:10CED00005FA07F7029C56F82C50013C25EA070595
:10CEE00046F82C50029456D110B12C4A82F8E41224
:10CEF0002A4805AA0021D0F8DC0233F083F801208B
:10CF000029B0BDE8F08F0CF1040C274A9445674620
:10CF10000ED20CF1040C3D6895FAA5F5B5FA85F230
:10CF2000D2B2202AF1D0BF1B12EBC7027FF57EAF31
:10CF300010B11A4A82F8E412002BD9D11846DFE763
:10CF4000BBF1000F03D101F0380BAB450BD021F042
:10CF50007801039841EA0E010423C9B2037009F86D
:10CF600004104346012028ACE5184FF0060405F8EC
:10CF70008A4C4FF0070405F8897C05F8884C5F1D42
:10CF800028AC2744019C05F88CAC05F88BCC063303
:10CF900007F88C4C97E7013230E700BFD822002019
:10CFA00084490020C8440020C0490020F7B5234C24
:10CFB00094F8E232002B3FD101230DF107028421C6
:10CFC000D4F8DC0284F8E23233F03EF894F8E4223C
:10CFD000D4F8DC0242F00402042133F051F80DF1E0
:10CFE00007028421D4F8DC0233F02EF89DF80730D4
:10CFF00013F00405F3D13C222946114884F8E432A9
:10D00000104E37F0E1FBA6F13C0736F8023B1A0A56
:10D0100022F0200203F00403134303D029463846CC
:10D0200034F0B2FC0135B5F5F07FEED1FFF7D6FE56
:10D030000028FBD184F8E20203B0F0BDD822002022
:10D0400084490020C049002013B5224CD4F8DC02EA
:10D05000F0B394F8E032012B13D0022B13D00DF172
:10D060000302A02132F0F0FF9DF8033003F0050326
:10D07000012B06D043B1D4F8942040F2DC539A42FD
:10D0800026D9402300E0002343F0080384F8E3326C
:10D090008DF8053040F20443ADF8063004230DEB63
:10D0A00003020021D4F8DC028DF8041032F0AAFF4C
:10D0B0003C22FF21084837F087FB94F8E1323BB966
:10D0C000D4F8DC320BB1FFF771FF012384F8E132B1
:10D0D00002B010BDD82200208449002013B50C4CAA
:10D0E00094F8390C68B10523ADF800306A46022384
:10D0F00001A9D4F8980032F085FF9DF8050000F0F2
:10D10000010084F8390C80F0010002B010BD00BFAE
:10D11000D822002070B5064CD4F894500646FFF78C
:10D12000DDFF20B9D4F894305B1BB342F7D970BD52
:10D13000D822002008B545F20820FFF7EBFF0620B3
:10D14000FBF7E4FF074B0122C72083F8392CFBF7DC
:10D15000DDFF054B002283F8372483F83624C3F81B
:10D16000B82408BDD8220020C844002030B51A4C8D
:10D1700089B000231546032200938DF8002094F80F
:10D18000382C8DF804309A420293CDE906351BBF46
:10D19000030E8DF801300DF101030DF1020314BFF0
:10D1A00005220422CDE90421020C1A70020A9870AB
:10D1B0005A700620CDF80CD0FFF7ACFF50B1D4F870
:10D1C00098000379022B02D102A9FBF70BFF284636
:10D1D00009B030BD0546FAE7D82200207FB5104BD4
:10D1E000D3F8D0400026E40AA64202DBE00204B0F5
:10D1F00070BD35196D1010226946E802FFF7B6FFC1
:10D200000F28F3DD6A46002352F8041B013104D1D4
:10D210000133042BF8D12C46E6E76E1C2546FAE7CD
:10D220000000002070B51C4D88B000231646022275
:10D2300000938DF8002095F8382C8DF804309A4230
:10D2400014BF05220422CDE9042302931BBF030E61
:10D250008DF801300DF101030DF10203020C1A707B
:10D26000020A98705A7004460620CDE90616CDF8D9
:10D270000CD0FFF74FFF0620FBF748FFD5F89800CA
:10D28000012385F8393C0379022B02D102A9FBF76F
:10D29000A9FE301908B070BDD82200202DE9F04F4A
:10D2A00085B08B46009301EB8203019302900B46FD
:10D2B0004FF0000A53F8042B9244019A9A42F9D194
:10D2C000009B002B50D1FFF709FF00284CD100989C
:10D2D00005B0BDE8F08F029D5F46A0463B4657F87B
:10D2E000042B002A3AD0424529682BD342460393A7
:10D2F000FFF798FF2A68039B42442A601A68A2EB52
:10D3000008021A60D9F8B834361B1C44009BC9F8CF
:10D31000B844A3B19EB1D9F8B804C4B2A319B3F507
:10D32000807F134BD3F8D0308CBFC4F58074344663
:10D330009842D0D3002389F8373489F83634AAEBE1
:10D340000600C5E7FFF76EFF57F8042C2B6813445F
:10D350002B600023A8EB020847F8043C019BBB426A
:10D3600005F10405BAD1CDE75646DFF80890D1E7BC
:10D3700000000020C84400201FB50C4C94F836244F
:10D3800094F837349A420ED002A96846FFF76EFC33
:10D390000123022202A96846FFF780FF002384F8D8
:10D3A000373484F8363404B010BD00BFC8440020C0
:10D3B000064BD3F8D03010B53BB1FFF70FFF044652
:10D3C000FFF7DAFF024BC3F8B84410BD000000209D
:10D3D000C8440020094B70B5D3F8D03015468218E8
:10D3E0009A4288BF1D1A04460E46FFF7C5FF2A461B
:10D3F00031462046BDE87040B8E600BF000000207E
:10D4000013460A4601461846E4E71FB50E4C94F849
:10D41000362494F837349A4214D002A96846FFF7AC
:10D4200025FC0023022202A96846FFF737FFFFF719
:10D4300005FC94F8360494F83734C31A584258411E
:10D4400004B010BD0120FBE7C84400202DE9F74FD0
:10D45000A34BD3F8B89899F8102002F0FF07002AE0
:10D4600040F03A8103F6C20493F8BE2893F8BF183F
:10D4700093F8C0080094A3F8BC78BE46B8463C4672
:10D480003C250193009BDE789B78C3F1FF031FFAD4
:10D4900083FABAF1000F00F01981009BB3F800C0C5
:10D4A000CAF1FF0373434FF03C0B1B12BCFBFBFBA9
:10D4B000BBF1050F25D8DFE81BF006001000CC00FB
:10D4C000D900EB00F800D8B2F11A0CFB01F1B1FB66
:10D4D000F5F10144C9B2324610E0BCFBF5F205FBA0
:10D4E00012CC1FFA8CF2C2F13C0CD8B2F21A02FB39
:10D4F0000CF2B2FBF5F20244D2B231460124A64648
:10D50000A0464FEA022B4BEA014B4BEA000B0023EB
:10D51000FE181FFA86FAC3F1170C012606FA0CFC56
:10D520001CEA0B0F08BFB446019E03F1010306EB92
:10D530008A0618BF4FF0020C182BC6F844C9E7D171
:10D54000009B1837BFB20433B7F5407F009399D1E1
:10D55000644BA3F8F474B8F1000F02D0019D85F874
:10D56000BE28BEF1000F02D05D4A82F8BF1814B188
:10D570005B4A82F8C0085A4993F8F6342022A1F891
:10D58000BC28002B00F0A880EFF31181102383F357
:10D590001288D9F80C00D9F804508468236823F065
:10D5A000010323606E792C684F4DA38935F816501E
:10D5B00023EA0503A381036940681F2B85BF203B35
:10D5C00002FA03F302FA03F3C36098BF8360CBB29D
:10D5D00083F31188D9F80C309B6840F22A325A60E4
:10D5E0001A6842F001021A60012389F810303C4B9E
:10D5F000D3F8B8180A68137D012B04BF02231375F2
:10D6000092F82C000CBF4FF400730023012804BFD4
:10D61000022082F82C0092F8440008BF43F4806393
:10D62000012804BF022082F8440092F85C0008BF81
:10D6300043F4006301284DD1022082F85C0043F4DA
:10D6400080534A6812680021516291890B4393818B
:10D6500042E0BCFBF5F005FB10C0DAB280B2F31A71
:10D660005843B0FBF5F01044C0B246E7BCFBF5F1FF
:10D6700005FB11CC1FFA8CF1C1F13C0CDAB2F11AA6
:10D6800001FB0CF1B1FBF5F11144C9B2304635E7AD
:10D69000BCFBF5F205FB12C2D9B292B2F31A5A439F
:10D6A000B2FBF5F20A44D2B2F0E7BCFBF5F005FBA1
:10D6B00010CC1FFA8CF0C0F13C0CD9B2F01A00FB70
:10D6C0000CF0B0FBF5F00844C0B204E73046314638
:10D6D000324613E7002BB4D103B0BDE8F08F00BF92
:10D6E000C8440020C0550020807204084268034BE3
:10D6F0009A420CBF95209620FDF782B80060024048
:10D700000348D0F8EC3213B100F538701847704771
:10D71000000000200348D0F8CC3213B100F530707F
:10D7200018477047000000200348D0F8AC3213B10E
:10D7300000F5287018477047000000200348D0F813
:10D740008C3213B100F5207018477047000000209C
:10D750000348D0F86C3213B100F5187018477047C1
:10D76000000000200348D0F84C3213B100F51070CF
:10D7700018477047000000200348D0F82C3213B13E
:10D7800000F5087018477047000000200348D0F8E3
:10D790000C3213B100F500701847704700000020EC
:10D7A0000348D0F8EC3113B100F5F070184770471A
:10D7B000000000200348D0F8CC3113B100F5E07030
:10D7C00018477047000000200348D0F8AC3113B16F
:10D7D00000F5D07018477047000000200348D0F8CB
:10D7E0008C3113B100F5C07018477047000000205D
:10D7F0000348D0F86C3113B100F5B070184770478A
:10D80000000000200348D0F84C3113B100F5A0709F
:10D8100018477047000000200348D0F82C3113B19E
:10D8200000F5907018477047000000200348D0F8BA
:10D830000C3113B100F580701847704700000020CC
:10D84000024B0348D3F80815FBF7C2BFC0550020B0
:10D85000000C0040024B0348D3F80415FBF7B8BF97
:10D86000C055002000080040024B0348D3F80015C3
:10D87000FBF7AEBFC055002000040040034B4FF043
:10D880008040D3F8FC14FBF7A3BF00BFC0550020B5
:10D8900010B5064C0648D4F8F814FBF799FFD4F8F5
:10D8A00020150448BDE81040FBF792BFC05500208A
:10D8B000000001400048014010B5064C0648D4F86D
:10D8C000F814FBF785FFD4F81C150448BDE8104098
:10D8D000FBF77EBFC055002000000140004401401E
:10D8E00010B5064C0648D4F8F814FBF771FFD4F8CD
:10D8F00018150448BDE81040FBF76ABFC05500206A
