:020000040800F2
:100000000000011099E00308AB5000088D5302086E
:1000100055E1030855E1030855E10308000000001D
:10002000000000000000000000000000A9500008CF
:10003000A750000800000000A55000080F91030819
:1000400055E1030855E1030855E1030855E10308AC
:1000500055E1030855E10308EF930308FF930308F4
:1000600055E10308FB930308F7930308E9590008D7
:10007000D5590008C1590008AD5900089959000820
:10008000855900087159000855E1030855E1030836
:1000900055E1030855E1030855E10308F39303080C
:1000A000295B0008015B0008D95A0008515B000871
:1000B000C55A0008B15A00089D5A000855E10308C6
:1000C00055E1030855E1030855E1030855E103082C
:1000D00055E10308516300084563000839630008CF
:1000E000EB93030855E103084D6C00084D5A0008D6
:1000F000255A0008FD590008755A00085D59000886
:1001000055E1030855E10308895A000855E1030841
:100110002D6300082163000855E1030855E1030839
:100120004959000835590008215900080D5900089F
:10013000F958000855E1030855E1030855E10308A3
:1001400055E1030855E1030855E10308BF4A0008DB
:10015000E5580008D1580008BD580008176300088A
:1001600055E1030855E1030855E1030855E103088B
:1001700055E1030855E1030855E1030855E103087B
:0801800055E1030855E10308F5
:100188002DE9F04F2DED108BDFEDAF5A8DB0022326
:10019800009003910B9201910293B0EE655A019B76
:1001A800009AD9084FEA411902EB090CCA00182035
:1001B80008926FF017024A4300FB01F428200CEB69
:1001C8000207049400FB01F4079430200C0107EBAC
:1001D8000906B518069400FB01F43820059400FBC5
:1001E80001FB05EB090400982244DB0002EB090837
:1001F80000F1040E4FF0000ADCED007A1EED017AE2
:10020800D7ED003AD5ED004A98ED003AD2ED002A34
:1002180077EE276A37EE677AD6ED007A33EEA76A6B
:1002280073EEE73AD4ED007A34EEA74A74EEE77A33
:1002380072EE834A36EEC48A36EE640A76EE846A33
:1002480036EE246A72EEC32A76EE864A76EEC66ADF
:100258004EED014ACCED006ADEED004A9CED016AE4
:1002680097ED014A95ED013AD8ED011A74EE866AC8
:1002780034EEC66AD6ED014A34EE242A34EE644AD6
:10028800D4ED014A33EE241A73EE644A92ED013A32
:1002980073EE210A33EE613A76EEC11A76EE816A80
:1002A80032EE601A32EE202A76EE820A76EEC26AC2
:1002B800CEED000ACCED016A78EE016A38EE412AEB
:1002C800C5ED006A71EEC06A84ED002AC5ED016AC9
:1002D80070EE216A34EE432AC4ED016A73EEA26A15
:1002E80073EEE21A34EE034AF0EE673AE6EEE53AC8
:1002F8009C441D44E6EEA57A1C449E44F0EE462A32
:10030800F0EE466AB0EE646AB0EE473AA4EE256AAB
:10031800A1EEA57AE2EE652AE2EE256AB0EE642A3D
:10032800A1EEE53AA4EE652A77EE064A37EE467A5C
:10033800C7ED004A88ED007A33EE027A33EE423A8E
:1003480086ED007A36EEE77A77EEA67A82ED003A05
:1003580087ED017AC8ED017A72EEE37A73EEA23A7C
:10036800C6ED017AC2ED013A0198824403985045DE
:100378001F441E441A4498443FF63EAF072940F2F2
:100388006881009A00984A440A92089A024409929D
:10039800079A02440892069A02440792059A024470
:1003A8000692049A024405920BEB000204924FF065
:1003B80001094FF0000A029A92440B9A4FEACA04C4
:1003C8002244D2ED001A224492ED008A2244D2ED52
:1003D800004A224492ED009A2244D2ED003A224487
:1003E8006FF02F00D2ED000A2244D2ED002A00FB64
:1003F8000A2292ED011A00982244D2ED018A224481
:1004080092ED014A2244D2ED019A224492ED013A3A
:10041800224492ED010A224492ED012A4FEAC902D0
:1004280000EB02080A9800EB020E099800EB020C98
:1004380008988718079886180698851805988418C4
:100448000498CB46024401E0F304353FDEED007A20
:10045800DCED006A97ED007A98ED00AA96ED00BAF7
:1004680094ED00EA3AEE276A36EEC7DA3AEE67AA62
:1004780076EE877AD5ED006A3BEE267A3BEE66BAD1
:10048800D2ED006A7EEE26AA36EE47FA77EEEAEA61
:1004980036EE076A77EEAA7A3EEE66EA36EE277AF5
:1004A80076EE67AA88ED007A98ED016ADEED017AAA
:1004B800DCED01CAD6ED016AD4ED01FAD2ED01DA1C
:1004C80036EE277A76EE67BAD7ED017A3CEEA76A60
:1004D8007CEEE7CAD5ED017A36EEA7CA76EEE77A62
:1004E8007FEEAD6A7FEEEDDA77EE4CFA37EE0CCAA6
:1004F80036EE667A36EE266A7FEE076A3FEE477A70
:100508003CEE06FA3CEE46CA88ED01FA29EE8C6A02
:100518003FEEEEFAA9EE2A6A98447EEEAFEA8EED37
:10052800006A2AEEE96A7DEE4EAAA9EE0C6AB0EEE0
:100538004ACA8EED016A28EE8F6AAAEEC5CA9E44A1
:10054800A8EE266A66EEE86A86ED006AE8EE0F6AAB
:100558003CEEED6AC6ED016A60EE2E6AAAEE85AA47
:100568001E44E0EE876A27EE407AC5ED006AA0EEE9
:10057800AE7A7DEE0E6A85ED017A3CEEAD7AF0EE4C
:100588006BCAE6EE05BA1D44E6EE45CAB0EE6B6AE4
:10059800F0EE67BAE7EE45BAE7EE057AF0EE4BAA59
:1005A800A6EE85BA3CEE2B7AE6EEC5AA7AEE276A65
:1005B8007AEE677A3CEE6BAA36EE4BCA3BEE066AD9
:1005C80061EE0CBA3CEEEABAE1EEA6BA66EEC16A92
:1005D800CCED00BAE1EE8C6A7AEEACAACCED016AF9
:1005E80062EE066A9C44E2EEA76AC2ED006A67EE14
:1005F800C26A63EE0B7AE2EE866AE3EE877AC2EDB0
:10060800016A27EE437AC7ED007A64EE2A7AA3EEF0
:100618008B7A1A44E4EE8A7A87ED017AC4ED007A7F
:100628006AEE447A1F44E4EEAA7AC4ED017A01988E
:100638008344039858451C443FF608AF09F1010963
:1006480049457FF4B8AE029BDB009BB2CDE90113AC
:10065800A5E50DB0BDEC108BBDE8F08F09B9104BC6
:10066800D96A0B6B834215D90D4BDB6A994202D2CA
:100678000021084670470A6B904202D38A6B904269
:10068800F7D94C39F2E70B6B984202D38B6B98423F
:10069800EFD94C310B68002BF5D11946E9E700BFBB
:1006A800E01D00202DE9F84FCF012AD103461F4A4B
:1006B80043F8082B4FF0FF324260022718467E2588
:1006C8001B4ED6F83090041D013D49466FF0704A24
:1006D8004FF0010B0B6BBB4207F1010802D88B6B83
:1006E800BB4212D23846FFF7B9FF014668B944F851
:1006F80004BC4946474604346B1E25B93163BDE83E
:10070800F88F8025DCE71D46E4E70B794A6B23B1B7
:10071800974208D144F804ACECE79742FAD002D9E2
:1007280044F8043CE6E744F8048CE3E7F8FFFF0FDD
:10073800E01D0020F0B59F083F010D461446C6197C
:10074800B04205F1100504F1100408D103F00303C9
:1007580039443A4406EB83039E4223D1F0BD8446D4
:100768009CED006A15ED045AD0ED016A55ED037A47
:1007780090ED027A55ED025A26EE056A66EEA76AF2
:10078800D0ED037A04ED046A15ED016A44ED036ABD
:1007980027EE257A67EE867A103004ED027A44ED6A
:1007A800017ACDE7F6EC017AB1EC017A67EE877A47
:1007B800E2EC017AD0E7012380F849307047044B16
:1007C800986B18B1986B431F58425841704700BF47
:1007D800E01D0020064AD2E90F138B42FDD0D11844
:1007E8000133C3F30A03136491F84400704700BF50
:1007F800E01D0020044BD3E90F30984288BF03F571
:100808000063181A704700BFE01D002001207047E0
:1008180070477047704730B5104CD4E90F329A4290
:1008280086BF03F50065AA1A9A1A0A44B2F5006F42
:1008380011D801440022814203D102B1E3630020B0
:1008480030BDE21810F8015B82F844500133C3F35D
:100858000A030122EFE70220F2E700BFE01D0020B3
:10086800064AD2F84438D2F84828934294BF4FF445
:1008780000600020013B9B1A18447047E01D0020CF
:10088800EEE7212838B50C461BD022282BD020288B
:1008980015D1A1B1072A12D1194DD5F84C3813B189
:1008A8000968002098472368C5F85038237985F8E7
:1008B8005438637985F85538A37985F85638002077
:1008C80038BD0029FBD0072AF9D10D4BD3F85028A1
:1008D8000A6093F854280A7193F855284A7193F8D6
:1008E80056388B71EBE70029E9D0022AE7D1044B8F
:1008F800D3F85838002BE2D0098800209847DEE763
:10090800E01D0020014B002098637047E01D002087
:10091800044B002005229A63C3F85808C3F84C0812
:10092800704700BFE01D0020704770477047704750
:1009380070477047704704230B800148704700BF19
:100948000000002012230B8000487047040000209C
:1009580030B414461A69A24209D30D19AA429B69F8
:1009680038BF111B0A46E11830BC3DF01DBE30BC33
:100978007047002070470120704701207047002011
:1009880070474FF400731360024B9B680B600020A4
:10099800704700BFE01D00200023F0B54E1C1F4625
:1009A800050FECB2092D94BF3034373401F81340E9
:1009B80006F813700133DCB2A2424FEA0010EFD8F8
:1009C800F0BD1A2310B50B80094B186804331B6857
:1009D800C0180AD0074B08491C680822FFF7DCFF3B
:1009E800042206492046FFF7D7FF054810BD00BF7F
:1009F800E8F7FF1FEAF7FF1F180000202800002073
:100A08001600002004230B800048704730000020A7
:100A180012230B8000487047340000202DE9F04F66
:100A2800DFF8708185B0CDE90212B8F86A28D8F8E5
:100A38005C48B8F8666813024FEA126EB8F868287E
:100A4800E41A6EEB4E0EA2FB040102FB0E11C20962
:100A5800B8F8640842EA4162CD110104030C521847
:100A6800A6FB040106FB0E11B8F8626843EB050506
:100A7800030AB8F86C0843EA01634FEA212C710CA9
:100A8800F6039B19A0FB04674CEB010C00FB0E77E7
:100A9800F10D41EA4721F81511F5FA6A40F1000B0A
:100AA800BAF5FA6F01907BF1000053DA0198A1FBC7
:100AB8000167484307EB40070520A6FB008900FBB8
:100AC80007994FEA580040EAC970121A4FEA98008D
:100AD8004FEA690640EA897065EB06051B1A4FEA7A
:100AE800A9066CEB060C2A4E4FF0FF37B2457BEB9C
:100AF800070024DA019E40F6AC5008184FF00001B8
:100B080046EB010800FB08F8A0FB000101EB4801D7
:100B1800CE00C700C71B46EA507661EB06064FF0C9
:100B28000B08D21946EB0505A0FB086708FB0177FF
:100B3800710841EAC77178105B1A6CEB000C04FB72
:100B48000EFEA4FB040101EB4E01C40F44EA41046C
:100B5800BAEB040A029999B10E49D1F87048A4FB7E
:100B6800030104FB0C11430D43EAC1239A1A4FEA0F
:100B7800615464EB0505D20B029B42EA45421A60B8
:100B8800039B0BB1C3F800A0012005B0BDE8F08FAE
:100B980024FAFFFFE01D00202DE9F74F704D914624
:100BA800D5F87448B5F87828C2EB24135200C2EB84
:100BB800E402B5F97A485B436243B5F97C481B13F4
:100BC8005C43A41304EBE224B4F5FA3E8846AEFB7A
:100BD8000E12CDE900124FEAE47343F1FF3C019A8B
:100BE800C5F890480EFB0CF302EB4303B5F98028D7
:100BF800019302FB0CF1D3170EFB0311A2FB0E238A
:100C08000B44190341EA12511003019EB5F98228D9
:100C180002FB06FA009ED31706FB03AAA2FB0623D3
:100C280053444FEA122A4AEA036AB5F87E284FEA83
:100C3800232B1AEB00004BEB010B00304BF5004B5C
:100C4800A0FB020102FB0B114A10CB1752EA030169
:100C580000F08480B5F98808019E00FB06F7009E25
:100C6800C11706FB0177A0FB0601B5F98668394470
:100C780006FB0CFCF7170EFB07CCA6FB0E676744B8
:100C88004FEA474E4FEA464C1CEB000C4EEAD63E64
:100C98004EEB010ED5F89418B5F98468C1F58011AA
:100CA800CF174FEAC77A4AEA510AC807002111EB61
:100CB8000C014FEAC60747EB0E0E40F63546401AC0
:100CC8006AEB0E0AA0FB060106FB0A113CF0FAFFCC
:100CD800B5F98E284E13470B47EAC14702FB06FCBD
:100CE800D31707FB03CCA2FB07236344564307FB38
:100CF8000366A2FB07233344560E46EAC316B5F92A
:100D08008C2836184FEA636741EB0707D31751431E
:100D180000FB0311A2FB00230B44D10C41EA433131
:100D2800D814761840EB0707B5F98A08320A42EA60
:100D3800076203011344B8F1000F02D01B0AC8F878
:100D48000030B9F1000F05D004EB8404803424127C
:100D5800C9F80040012003B0BDE8F08F0023EAE79E
:100D6800E01D002001207047012070474FF4006308
:100D7800838170470123037750F8043C0BB118387E
:100D880018477047036941681F2B4FF0200230B5A0
:100D980085BFA3F120054C680C68AA4098BF9A400B
:100DA800224214BF01220022EAB182690020107495
:100DB800D0688468206820F00100206054682068AA
:100DC8006579094C828934F815401F2B22EA040200
:100DD800828188BF203B4FF020028BBF9A4002FAE5
:100DE80003F3CA608B6030BD58140408436B9989BB
:100DF8001A88890610B592B2044606D5900604D51D
:100E0800E26A1AB39888216B9047636B99891A88AC
:100E1800090692B20FD510060DD5D4E909128A42F7
:100E280022D0A1692069895C99800132B2FBF0F176
:100E380000FB1122A262998A1A88C90592B204D5C8
:100E4800D20744BF4FF6F7721A8010BD9B88E2693B
:100E58006169DBB28B54E369E1680133B3FBF1F2FA
:100E680001FB1233E361D0E7DA6822F08002DA602E
:100E7800E1E790F83420034602F0FF0012B10022A7
:100E880083F8342070470C4B93F898287AB1D3F83C
:100E9800A41888420DD3D3F8A818884209D8D3F8E3
:100EA800A018C3F8C00841F00101C3F8A018104603
:100EB80070470022FBE700BFE01D002008B5084688
:100EC800FFF7E1FF18B1024B012283F8B42808BDEF
:100ED800E01D002028B1044BD3F8FC0808B193F8B2
:100EE800980800F001007047E01D002008B5FFF7E2
:100EF800F1FF18B1024BD3F8C0380B8008BD00BF12
:100F0800E01D002008B5FFF7E5FF08B100230B70CE
:100F180008BD08B5FFF7DEFF18B1024BD3F8C83893
:100F28000B7008BDE01D002010B5FFF7D3FF48B1D6
:100F3800064B93F8B44834B993F8B8480C70D3F812
:100F4800BC38137010BD0024F8E700BFE01D002076
:100F58000520704730B1044B93F900090028D4BF2D
:100F680000200120704700BFE01D002008B5FFF7F2
:100F7800F1FF18B1024BB3F808390B8008BD00BF68
:100F8800E01D002008B5FFF7E5FF18B1024B93F804
:100F98000E390B7008BD00BFE01D002008B5FFF733
:100FA800D9FF80B10B4BB3F80A3963B1192B0BD9B0
:100FB800642B0BD9C82B0BD9B3F5C87F94BF032377
:100FC800042301330B7008BD0023FAE70123F8E777
:100FD8000223F6E7E01D002010B5FFF7BBFF48B17C
:100FE800064B93F8024934B993F803490C7093F807
:100FF8000439137010BD0024F8E700BFE01D00207D
:101008000420704728B1034B93F94600003018BFFD
:10101800012070470000002008B5FFF7F3FF50B12A
:10102800054B93F94620022A03BF93F84930C3F3CE
:1010380040030B70002008BD0000002008B5FFF732
:10104800E1FF80B10C4A92F9483092F94620012A12
:101058000ED1272B08DC182B08DC0F2BD4BF00235C
:10106800012301330B7008BD0323FAE70223F8E7D5
:101078000133DBB2F6E700BF0000002010B5FFF730
:10108800C1FFC0B10D4C94F84930DB0714D494F972
:101098004730002BB8BF0733DB100133DBB20B70CE
:1010A80094F94730594201F0070103F0070358BF8C
:1010B8004B420133137010BD0023F0E700000020FD
:1010C8000320704770B50B4A92F8103906255E1C4C
:1010D800B6FBF5F405FB146492F81159AC421FBF36
:1010E80002EBC30382F81049C3F81409C3F81819AE
:1010F80070BD00BFE01D002010B5002213469142CC
:1011080001DC184610BD845C6340082413F0800F8E
:101118004FEA430318BF83F0D503013CDBB2F5D196
:101128000132ECE7F0B5114C114B2468B3F844795F
:1011380093F84619B3F84869B3F84A5993F84C2913
:1011480014F0040F0AD193F854393BB9012A0BD093
:10115800022A03D114F0080F08BF0121078081700B
:101168008680C5800272F0BD1146F7E700000010C6
:10117800E01D002007B532238DF800300368CDF854
:1011880001308388ADF80530034B6846D3F88439BD
:10119800984703B05DF804FBE01D0020074B586832
:1011A80010F0800009D09A68920705D4186880F07A
:1011B8000800C0F3C000704701207047000000100D
:1011C80007B510238DF80030054BADF80100CDF8B8
:1011D8000310D3F884396846984703B05DF804FBD8
:1011E800E01D0020124A90F90C3070B50C4614210D
:1011F80001FB032305461E6D83689A0703D4006923
:1012080038F042F800BFD4E901232168304638F0AD
:1012180023FAD4E90423E168304638F01DFAAB68B4
:101228009B0703D400BF286938F033F8012070BD4C
:1012380000000020104B70B51E4693F88829002A3C
:10124800FBD104464518AC4201D1002070BDD6F848
:10125800483814F8011BF2180133C3F30A0382F863
:101268008919C6F84838FFF7FBFA0028EBD10120A6
:1012780037F03DFFF7E700BFE01D002038B50D4609
:10128800FFF79DFA50B1064C002AD4F8943005DDDA
:1012980011462846FFF7CEFFD4F8943038BD00BF7A
:1012A800D82E002010B590F84810002380F8483058
:1012B80069B10A4CA26B62B1A26B052A0BD1084C2A
:1012C8003430D4F89430FFF7B5FFD4F894300120C7
:1012D80010BD1046FCE71846FAE700BFE01D0020E5
:1012E800D82E0020002280F84920DBE790F848201B
:1012F800531C0244DBB280F8483082F8341090F86E
:1013080049200AB1132B00D9CCE7704707B58DF8EF
:101318000700064801230DF107020021D0F89800C4
:1013280038F032FA03B05DF804FB00BFD82E002075
:1013380008B50021084637F0F1FF002008BDF8B5D0
:10134800134C0746D4F89C0003791E3B012B02D9A5
:10135800002137F016FF0F4E0025BD42D4F89C003F
:101368000FDB002137F00DFFD4F89430C4F8C030FB
:101378000023C4F8C430B4F8C8300133A4F8C83026
:10138800F8BD16F8011B37F0FCFE0135E5E700BF94
:10139800D82E0020782F002038B5154C94F8113934
:1013A80094F810299A421CD004EBC303114AD3F8CD
:1013B8001419D3F818090023984213DC8B780E4AC5
:1013C8005B0882F8DC30C2F8D800FFF7B8FF94F861
:1013D800113906210133B3FBF1F201FB123384F812
:1013E800113938BDCD5C02F8015B0133E4E700BF79
:1013F800E01D0020782F0020D82E00202DE9F8438A
:10140800089D0E46174600212022044698463DF0C6
:10141800C3FA5DB12B68E381C3F30F426B68228284
:10142800E382C3F30F426B892283638230463BF029
:1014380057FEFB0604D400F1FF39B9F1FF3F40D154
:10144800082802464FF0FF39A8BF082200254FF0B0
:10145800203363602360C4F80730314620463DF0EE
:10146800A3F804F1080309F101012A46184631449A
:101478003DF09AF8621E0346E01D12F8011FA1F123
:101488006105192D9CBF203911709042F5D118467D
:1014980004F10B0210F8013BA3F1610119299CBF6B
:1014A800203B00F8013C9042F4D118232373C8F381
:1014B8000F43A382099BE772A4F81A80E361BDE891
:1014C800F88316F809302E2B02D009F1FF39B4E75A
:1014D8004A46A0EB0905082A05F1FF35A8BF0822EE
:1014E800032DA8BF0325B2E72DE9F04F002085B0F2
:1014F8000D4616461C46012137F010FFB94FA319B7
:1015080004350393039B9E42A5F1040407D10021EF
:10151800084637F003FF002005B0BDE8F08F3A6AAF
:10152800B24200F2B380D7F830A0A6EB02084FEA27
:10153800D80BDAF830300BF1020B9B4508F007089E
:1015480003D3DAF838309B4513D951465846FFF78C
:1015580085F8824660B9A5F1080305F5FC72A24931
:1015680043F8041F9342FAD1013605F50075C9E71F
:1015780038639AF80430002B6CD04FF400720021C5
:1015880020463DF009FADAF84030B8F1000F46D1AC
:1015980005F11C09CDE900883BBB204643460822DB
:1015A800F968FFF72BFF4C464FF4F079DAF84480DE
:1015B800A1444FF0000AB8F1000FD5D04C45D3D064
:1015C80098F80420D8F80010D8F8303004F1200B2F
:1015D80008F11C00AAB3CDE9000A11222046FFF742
:1015E8000DFF5C46D8F84880E5E7DAF830307F49E7
:1015F80011222046FFF702FFDAF840301A6C05F195
:101608003C04CDE9008842B943464846112278494E
:10161800FFF7F4FE4FF4E079C8E71B6BF5E7002B02
:101628000CBF01220222C2EB0812DAF84480B8F19A
:10163800000F03D0013AD8F84880F8D14FF4007968
:10164800B6E798F805C0D8F81020CDE900024CF0AC
:101658002102C3E7DAF82890B9F1000F06D14FF458
:101668000072002120463DF097F97DE7DAF8302036
:10167800ABEB020BDAF80C2008EBCB08534602EB75
:1016880048224FF400712046C8476DE7002E6ED1FE
:101698004FF40072314620463DF07EF9802384F8ED
:1016A800B86184F8B96184F8BA6184F8BB6184F8D8
:1016B800BC6184F8BD6185F8BA310C2385F8BE3168
:1016C8003A694C49BB68C4F8C6218A42C4F8CA3191
:1016D80018DDFF2285F8BB2185F8BD2185F8BC21DE
:1016E800444A013B934228DDFF2385F8BF3185F842
:1016F800C13185F8C031552385F8FA31AA2385F818
:10170800FB3131E73F2192FBF1F1C1EB811C43F63C
:10171800C16492FBF4F4A2EB0C02A01020F03F008D
:101728000132024385F8BC21FF2291FBF2F21144F9
:1017380085F8BD4185F8BB11D2E73F2293FBF2F251
:10174800C2EB821443F6C16093FBF0F01B1B8110BF
:1017580021F03F0101330B4385F8C031FF2392FB91
:10176800F3F31A4485F8C10185F8BF21C3E77B6903
:101778009E4241D15223237063706123A37084F881
:10178800E731BB6AC4F8E8314FF000084FF0FF3387
:1017980041227221E27084F8E41184F8E51184F89A
:1017A800E62184F8EC3184F8ED3184F8EE3184F8E0
:1017B800EF314FF4F072414628463DF0EDF85523DD
:1017C800C5F8EC81C5F8F081C5F8F48184F8FE31DC
:1017D8006FF0550384F8FC8184F8FD8184F8FF31AB
:1017E800C2E600BFE01D0020DEADBEEFEE9C04089F
:1017F800ED9C0408FF03FB003B699E4278D14FF43F
:101808000072002120463DF0C7F8EB2305F8043CA0
:101818003F4A582305F8033C902305F8023C136817
:1018280045F8013C5368C5F80330022200234FF005
:10183800080CF821E372227385F809C0A273E373D8
:101848002A736374A374E374237569743F21217642
:101858004FF0FF31A1763E2121773869B968A37529
:10186800091AE3756376E3766377A377E3772162F2
:10187800D7E90601091A616284F8283084F829300A
:1018880085F8263085F8273084F82C2084F82D3008
:1018980084F82E3084F82F3084F8313084F83230D0
:1018A80084F833300122802384F8302085F83C30D6
:1018B800292385F83E309423164985F83F300E23B6
:1018C80085F840300D2385F841300B68124AC5F879
:1018D80043304B68C5F847308B68C5F84B30136800
:1018E800C5F84E30536885F842C0C5F8523002E753
:1018F800D7E906138E4206D39E4207D2711A2046B4
:10190800FEF7D0FE30E69E42FFF4A9AEF11AF6E7E4
:10191800C0900408C9900408D690040810B5044C77
:1019280004480A46214639F0ABFD204610BD00BFE9
:10193800B52F0020DF90040810B5044C04480A466F
:10194800214639F09DFD204610BD00BFB52F00206F
:10195800ED90040810B5044C04480A46214639F0B5
:101968008FFD204610BD00BFB52F0020F890040859
:1019780010B5044C04480A46214639F081FD20463A
:1019880010BD00BFB52F00200291040810B5044C0B
:1019980004480A46214639F073FD204610BD00BFB1
:1019A800B52F00200791040810B5044C04480A46D6
:1019B800214639F065FD204610BD00BFB430002037
:1019C8001391040810B5044C04480A46214639F01E
:1019D80057FD204610BD00BFB430002021910408F7
:1019E80010B5044C04480A46214639F049FD204602
:1019F80010BD00BFB43000202C9104080A4608B579
:101A0800044920B9044839F03BFD024808BD0348A1
:101A1800F9E700BFB43000203F910408579104084B
:101A2800054B93F8E322D3F8DC0202F0F702002119
:101A380083F8E32237F02EBFD82E002010B50446D5
:101A480000222121006837F025FFFC222021206890
:101A580037F020FF40222421206837F01BFF0C229A
:101A68002321206837F016FF00222221206837F052
:101A780011FF012010BD10B5012204460B2100689A
:101A880037F008FF20B11D220921206837F002FF36
:101A980000F0010010BD10B578220446002100684E
:101AA80037F0F8FE052037F022FB202201212068BC
:101AB80037F0F0FE052037F01AFB002202212068DB
:101AC80037F0E8FE642037F012FB012010BD012238
:101AD8004821006837F0DEBE01225821006837F03F
:101AE800D9BE08B53122F421006837F0D3FE0120B1
:101AF80008BD13B5094CD4F8DC020DF10702A0218A
:101B080037F064FE18B19DF807309B0603D5002016
:101B180037F082FBEFE702B010BD00BFD82E0020DF
:101B28001FB5044600230DF10702272100688DF830
:101B3800073037F04BFE68B19DF8070010F0080039
:101B480008D0062302AA2821206837F06FFE18B9AA
:101B5800E086A06304B010BD9DF809209DF8083008
:101B680043EA02231BB2002BB8BF03339B109DF836
:101B78000B20E3869DF80A3043EA02231BB2002BB0
:101B8800B8BF03339B1023879DF80D209DF80C30B8
:101B980043EA02231BB2002BB8BF03339B106387B1
:101BA800D8E730B5002585B00446C58685630DF1B4
:101BB80007020621006837F009FE00B39DF8070008
:101BC80010F004001BD0062302AA2946206837F02B
:101BD8002DFEA0B19DF809209DF8083043EA0223A4
:101BE800E3869DF80B209DF80A3043EA02232387F9
:101BF8009DF80D209DF80C3043EA0223638705B059
:101C080030BD13B5044600680379022B0CBF43218D
:101C1800032106236A4637F009FE18B9E086A06357
:101C280002B010BD9DF800209DF8013043EA022360
:101C3800E3869DF802209DF8033043EA0223638778
:101C48009DF804209DF8053043EA02232387E7E73F
:101C580007B5032301AA002137F0E8FD9DF80530F8
:101C68009DF804001B0243EA00439DF80600184350
:101C780003B05DF804FB08B50068FFF7E9FF024B05
:101C8800C3F87008012008BDE01D002008B50068F1
:101C9800FFF7DEFF024BC3F85C08012008BD00BF58
:101CA800E01D002037B50623F7216A460068164C68
:101CB80037F0BCFD1549E8B19DF801209DF80030CA
:101CC8009DF80350120142EA03329DF8023042EABD
:101CD80013129DF80430C1F894281B0143EA053318
:101CE8009DF8055043EA1513C4E9BA23C1F87438BE
:101CF80003B030BDD4F8E832C1F89438D4F8EC32E7
:101D0800C1F87438F4E700BFD82E0020E01D002089
:101D18002DE9F04FB54C026B066890F82D3005465A
:101D280089B0B348B0FBF2F0214627464FF0000EC9
:101D3800012291F80690A3EB090C01F10608BCF109
:101D4800000FA3EB0E01B8BFCCF1000C0029B8BFFF
:101D580049428C4502F10102BCBF4FFA89FE474651
:101D6800102A4146E5D14FF0000C80B22278724526
:101D78000CD179886288411A821A0029B8BF494271
:101D8800002AB8BF52429142C8BF27460CF1010C45
:101D9800BCF1100F04F10604E8D17A7904923A797B
:101DA80003927A8802923A780321CDE90002914A97
:101DB800012039F0D3F87A888D4BB3FBF2F3AB638B
:101DC8002B685869A8B140F615030021C380017239
:101DD8003AF02AFC884BAB612B685C69204637F0E7
:101DE800EBFA002880F298802B685869002840F0A8
:101DF800F2800021304637F03DFE80226B213046CC
:101E080037F048FD962037F072F9032268213046F2
:101E180037F040FD962037F06AF903226B213046EF
:101E280037F038FD0F20002137F04EF910226A21D3
:101E3800304637F02FFD0F20002137F045F90022FA
:101E48006C21304637F026FD0F20002137F03CF991
:101E58007A791921304637F01DFD0F20002137F01F
:101E680033F918221B21304637F014FD0F200021CA
:101E780037F02AF918221C21304637F00BFD0F20C5
:101E8800002137F021F910223721304637F002FDC2
:101E98000F20002137F018F901223821304637F099
:101EA800F9FC0F20002137F00FF93A791A21304652
:101EB80037F0F0FC0120002137F006F90321304605
:101EC80037F0D8FD062306AA4321286837F0AEFC70
:101ED800A0B19DF818209DF8193043EA02232B84FD
:101EE8009DF81A209DF81B3043EA02236B849DF865
:101EF8001C209DF81D3043EA0223AB8495F922305B
:101F0800013306D195F92030013302D1062037F08C
:101F18000DFA09B0BDE8F08FDFF8E4A0DFF8E4902F
:101F28000AEB000309EB800093F8688005F11803B9
:101F3800C0F8F032204637F049FA8346204637F099
:101F48003BFAC3B203F0030003F0FC0303F1804340
:101F580003F59C33820099680F20904021EA000124
:101F6800996099685FFA8BF090400843986024B1B3
:101F7800204637F021FA01248440204B5C6119681F
:101F8800E2431140196059681140596019682143AA
:101F98001960996811409960D9680A40DA609868B0
:101FA800C1442043986099F83033F02B7FF61CAF7A
:101FB800C244F02389F830339AF878308DF8183015
:101FC80003238DF8193006A84FF48073ADF81A3042
:101FD8003AF06CF808E737F0EFF9012313FA00F04C
:101FE8001FBF064A13680343136002E7601404081E
:101FF80040420F006F9104087D0D0008003C01402D
:1020080058140408D82E002038B50C460B46134A3D
:1020180004210920013C38F0A1FFE3B2032B1CD8AE
:102028000F4D95F94630C3B1012B0E4B0E484FEAC0
:10203800C4041C444FF005010CBF94F8843094F894
:10204800863085F8A430FFF757F8062185F8A500F3
:102058000548BDE83840FFF735B838BDA8910408F1
:102068000000002058140408A00000202DE9F347C0
:10207800038A868905460C461E404FF0004901F147
:102088004C0701F1340816B902B0BDE8F087B6FA7A
:1020980086F329FA03F2D24391B2298216401B3BF8
:1020A800002C40D0042BEED8DFE803F039342E287A
:1020B8000300E368D5F82CA02BB19B681BB11FFA6D
:1020C8008AF1201D9847636A33B19B6823B11FFAD0
:1020D8008AF104F11C009847E36B2BB19B681BB194
:1020E8001FFA8AF140469847636D002BCBD09B6856
:1020F800002BC8D01FFA8AF1384603E0E368696B01
:102108005B68201D9847BEE7636AA96B5B6804F1AA
:102118001C00F7E7E36BE96B5B684046F2E7636D29
:10212800296C5B68E8E7042B06D8DFE803F00D0BA1
:1021380009070300EB6A0193019BA4E76B6BFAE7BD
:10214800AB6BF8E7EB6BF6E72B6CF4E710B50068C0
:102158000C4638F0E9FF837863B1827AC37A43EAA0
:1021680002231BB2222293FBF2F303F26D132380A6
:10217800012010BD1846FCE710B50446006838F089
:10218800D3FF837883B10279437943EA0223E38159
:102198008279C37943EA02232382027A437A43EAA3
:1021A80002236382012010BD1846FCE770B506685B
:1021B8000546304638F0B8FF0E230446021D3B2181
:1021C800304637F033FBA07070B1227B637B43EA63
:1021D80002232B84A27BE37B43EA02236B84227CC9
:1021E800637C43EA0223AB8470BDF8B5284C2546CE
:1021F800D4F8FC0836F0C2FF002847D094F8F83825
:102208000BB1002042E0D4F8FC0836F0B1FFD4F856
:10221800F4383BB90F28EBD10123C4F8F43884F81B
:10222800E408E5E70F2B9FBF5A1C1B19C4F8F428D4
:1022380083F8E408D5F8F438102BD9D195F8E438A8
:102248000F2B15D195F8E53895F8D5289A420FD176
:1022580095F8F32862B90F4995F8F268084611F81D
:10226800017B01323B440C2ADBB2F8D19E4205D0F7
:10227800002385F8F838C5F8F438B9E706493CF082
:1022880063FB0028F4D0012085F8F808F8BD00BFEA
:10229800E01D0020C6260020B626002038B5174CC1
:1022A8000F2384F8D43884F8D50804F6D602F9B197
:1022B8000B68C4F8D6384B6853608B689360104A33
:1022C800002312F8011B013308440C2BC0B2F8D1CB
:1022D800002584F8E20810220A49D4F8FC0884F89A
:1022E800E35836F051FF84F8F858C4F8F45838BD6C
:1022F800C4F8D61851609160E1E700BFE01D0020E6
:10230800B6260020B42600207FB5924CD4F8383386
:10231800B3F5857F75D00BDCC3B3F82B48D0D4F860
:102328003833002BBCBF0023C4E9CE3304B070BDE2
:10233800B3F5887F00F0BB80B3F58F7FEFD1864D72
:1023480095F8F838002B00F0E6800021B5F8E6385B
:10235800C5F89C18D5F8C018B5F8E828C5F8CC38E1
:102368008B42C5F8D02840F0EE80D5F8C4389A42A0
:1023780005D0D5F8A03843F00203C5F8A038764B4D
:1023880093F89838002B00F0A5802DE0724A82F867
:10239800983800217220FFF781FFD4F89430C4F8F0
:1023A80040330026FA23C4E9D163F823C4F838334C
:1023B800694D95F8F838002B40D0B5F8E638C5F8DF
:1023C800A438B5F8E838C5F8A8380023C5F8AC38FB
:1023D800B5F8EA38C5F8B038012385F898380023ED
:1023E800C5F89C38C5F8A038D4F89430C4F8403300
:1023F80000254FF47A73C4E9D1534FF48573C4F8B8
:102408003833554ED6F8A05875BBD4F84023D4F8C5
:1024180094309B1AD4F84823934280DD29467620CD
:10242800FFF73CFFD4F89430C4E9D035FA23C4F858
:1024380048334FF48F73C4F8383380E7FFF7D5FE7D
:1024480048B9D4F84023D4F894309B1AD4F84823D8
:1024580093427FF764AF95F8F838002BADD195F823
:102468009838002BBBD194E715F0010338D000252C
:10247800B6F8C038ADF8043001A94620CDF80650AA
:10248800CDF80A50ADF80E50FFF708FFD6F8A0387F
:1024980023F00103C6F8A038D4F89430C4E9D03545
:1024A800FA23C4F848334FF48873C4F83833D4F89F
:1024B8004023D4F894309B1AD4F8482393427FF7EA
:1024C8002EAF254BD3F89C28022A7FF758AF00225D
:1024D80083F898284FF0FF330022C4E9CE321EE774
:1024E80015F0020514D0B6F8C428CDF8063001A9B5
:1024F8005020CDF80A30ADF80E30ADF80420FFF7C3
:10250800CDFED6F8A03823F00203C6F8A038D8E7E5
:10251800C6F8A058D5E7FFF768FE48B9D4F84023B5
:10252800D4F894309B1AD4F8482393427FF7F7AE37
:1025380095F8F838002B7FF408AFD5F89C380133AC
:10254800C5F89C38BDE7D5F8A03843F00103C5F8B5
:10255800A0380AE7D82E0020E01D00202DE9F04F12
:102568006C4E96F850338DB080468946002B40D18A
:10257800D6F85453002D3CD096F858B3DFF898A1FC
:1025880006AF96F85833032B00F28480DFE803F097
:1025980002347D9B3946284611F09EF9044680B1E5
:1025A80009A8FEF7BFFD9DF826109DF818308B424C
:1025B80070D0AB798B4204D32B681B690BB12846CA
:1025C800984796F85833013303F0030386F85833D5
:1025D800002C40F09C809B45D3D14F4B1B685B0778
:1025E80000D534B12B68196819B142464B462846C4
:1025F80088470DB0BDE8F08F03A8FEF793FDDAF821
:1026080000309DF80C4003F0040334B3002B41D193
:102618003A460DF10B01284611F07CF904460028D2
:1026280038D009A8FEF77EFD9DF824109DF80B30E0
:102638009DF825208B4203D19DF81830934229D06C
:102648002B798B42BDD36B799342BAD32B68DB6865
:10265800002BB6D028469847B3E7002BB1D13946AE
:10266800284611F02BF90446A0B109A8FEF75AFD37
:10267800BDF82810BDF818308B420BD02B689B6929
:10268800002B9ED0284698479BE7DAF8001011F0F7
:10269800040301D0002494E709A92846019311F006
:1026A80014F90028F6D096F85943002CF2D09DF87A
:1026B8002420019B86F85933002AEBD01946284676
:1026C80011F02FF97DE73846FEF72CFD97E8070053
:1026D80009AB03C31A809DF818309BB10DF1250290
:1026E80009A9284611F016F90DF12601284611F01E
:1026F800F3F80A2209A938463CF026F9041C18BF49
:1027080001245EE70AA9284611F0D8F8ECE701246D
:1027180063E700BFD82E002000000010022803D075
:10272800431E584258417047054B93F8643313B120
:10273800102020F045BA034B1868C0F3800070479A
:10274800D82E002000000010CA680B6810B513438B
:102758000468114A224013434A6913438A691343A0
:10276800CA6913430A6A13434A6A13434A6B1343F9
:102778008A6B134343F400330360D1E90B34426995
:10278800234322F00702134343610B6943604B68FC
:1027980083608B68C36010BD3F801CF010B580213A
:1027A800044638F088FE2046002138F084FE204692
:1027B800BDE8104039F0F0B8C84BF7B5C84DC94C62
:1027C8000822C3F888202B6B43F001032B630646CD
:1027D8004FF4C05240F2023320460F466946CDE915
:1027E800002339F097FE636ABF4AC04923F4704357
:1027F8006362636A43F420436362636A23F4702369
:102808006362636A43F4202363626B6CB84C43F4DD
:1028180080436B646B6B43F080036B632B6A43F0FC
:1028280080532B62B34B01255D61C4F88429B24AF9
:10283800C4F88869C4E9E712022284F8A4234FF097
:10284800A042C4F8A82302F50062C4F8AC2302F53C
:102858008072C4F8B42302F50072C4F8F023A2F51C
:10286800F072C4F8B82302F50072C4F8F423A2F594
:10287800F072C4F8BC2302F50072C4F8F823A2F57C
:10288800F072C4F8C02302F50072C4F8FC23A2F564
:10289800EC62C4F8807984F8A753C4F8B0234032B6
:1028A800C4F86824C032C4F82C242032C4F8302478
:1028B8002032C4F834242032C4F838242032C4F832
:1028C8003C242032C4F840242032C4F84424203266
:1028D800C4F8482402F52262C4F86C2402F5805238
:1028E800C4F8702402F58052C4F8742402F58052AA
:1028F800C4F878244FF05022C4F87C2402F58052A2
:10290800C4F8802402F58052C4F8842402F5805269
:10291800C4F88824A2F5E4420021C4F8A82404F5E8
:10292800677284F8AE5484F8B01410460B464026FB
:1029380080F81C11A0F822110131042980F81D51DA
:1029480080F81F31C0E94963C0F8303100F1280030
:10295800EED100231946402082F87433A2F87A3366
:102968000133042B82F8751382F87713C2E9DF016B
:10297800C2F8881302F12802EED14FF0A0435F4855
:102988009A6822F001029A60DA6842F04002DA603E
:1029980038F0E2FF0025212363F3174594F8A533A7
:1029A8000BB145F4801594F89F23D4F8A833012A75
:1029B8009D6307D19A6822F03E0141F02A0161F334
:1029C80007029A60DA68C2F3076121F0600141F0FA
:1029D800400161F31F62DA60D4F8A8240020106077
:1029E800D4F8AC23116860F3CC21116094F8A713D4
:1029F800012912D1116841F00301116080225A6245
:102A080002F580029A6202F14012C3F804214FF4E1
:102A1800A072C3F80821C3F80C2110213848394D99
:102A280039F070FA364839F055FAD4F8AC2394F8EE
:102A38009D0300234FF0FF3113611E465361FF27AA
:102A48009161D361834237D300232F4D1E46FF2760
:102A5800984267D8136994F89F1343F48073012947
:102A6800136104BF294B1363D4F8A83300229A6179
:102A78004FF0FF306FF080425A6158605A61244A23
:102A88009A610029234A0CBF102100210A43996941
:102A98000A439A619A6842F001029A60D4F884392C
:102AA8001B6898471C4B1D4ADA6068461C4B00930C
:102AB80039F0FCFA03B0F0BD55F8041BD1F800C09A
:102AC800BCF1000FACBF4FF0000C4FF0904CC1F8B8
:102AD80000C001330E618F60B4E700BF00E100E081
:102AE8000038024000000240A8000020080401004D
:102AF800D82E0020003C01404000400180320020D8
:102B0800743200208C320020C8320020030181007A
:102B18000008008008383C0000ED00E00005FA05D8
:102B28004302000155F8041BD1F800C0BCF1000FA6
:102B3800ACBF4FF0000C4FF0904CC1F800C001330F
:102B48000E618F6084E710B5084A92F8903902EB5D
:102B5800C3040133DBB2042B08BF0023090284F845
:102B6800940982F89039C4F8981910BDD82E00201D
:102B7800F7B5C24E96F8C739C6F8B4091E2B0D46EC
:102B880034460FD014D8122B00F0A58005D8002B9E
:102B98005DD0032B6DD02021FBE11A2B00F0BA8009
:102BA8001B2BF8D10025A4F8DC59284603B0F0BD4A
:102BB800282B00F0F78028D8232B00F0C780252B7E
:102BC800E9D1D6F8D83928465B6806F51E6206F6BC
:102BD800E41198470546002844D1D6F8E429A84BC3
:102BE800013A110E1970110C5970DA70110AD6F8E1
:102BF800E0299970110E1971110C5971110A997106
:102C0800DA710823A6F8DC39CFE72F2B00F0A98169
:102C18005A2B00F08D802A2BBDD196F8E839002B6D
:102C280040F0648196F9C439002BB4DBD6F8D83962
:102C380008469B689847A8B9D6F8D8392846DB686B
:102C480098470546002800F0258127210BE0D6F893
:102C5800C039002B9FD1D6F8D83908469B689847C9
:102C680000289FD03A210220FFF76DFF4FF0FF3573
:102C78009BE7834B122219460020013A12F0FF020B
:102C880003F8010BF9D170230B700C23CB7194F866
:102C9800900994F8DE39984212D004EBC30001334E
:102CA80090F894598D70DBB290F8995990F898097A
:102CB8000D73042B487314BF84F8DE3984F8DE29B9
:102CC8001223A4F8DC3994F8CB39122B98BFA4F856
:102CD800DC39002569E796F8C839DA0717D4D6F839
:102CE800D83996F8CB29DB6901EBC10503EB8505DB
:102CF8002B790533934228BF1346614AA4F8DC397F
:102D0800002BE6D0013B9BB2E95CD154F8E70723DE
:102D18005C4DF2E708235C495C4AA6F8DC39013BC4
:102D280011F8010902F801099BB2002BF7D1D0E78D
:102D380008235749554AA6F8DC39013B11F801091F
:102D480002F801099BB2002BF7D1C2E74C4A0C23C9
:102D580016460021013B9BB202F8011B002BF9D15A
:102D6800D4F8D83928465B686A4601A998470546C9
:102D780000287FF477AF0823F370019B013B1A0EFC
:102D880032711A0C7271F3711A0A02233372009BA2
:102D9800B2711A0C7272F3721A0A0C23B272A4F886
:102DA800DC3902E796F8E8396BBB96F9C439002B91
:102DB800BFF6F1AED6F8D83908469B689847002880
:102DC8007FF450AFB6F8CE39D6F8C929D6F8E41949
:102DD8005BBA12BA9BB298188842C6F8EC29C6F8B2
:102DE800F03900F2D580022186F8E819D6F8E01902
:102DF8004A43C6F8EC29D6F8C0294B439342C6F893
:102E0800F0397FF4C8AED4F8F069D4F8D809D4F80A
:102E1800E029D4F8EC1907694FF480539E4228BF83
:102E28001E46A4F8DC392846B6FBF2F3B1FBF2F2F1
:102E38009BB21349B847002802DA1121042013E78E
:102E480033460F4AD4F8B409812138F05AFBD4F834
:102E5800EC39D4F8F0593344C4F8EC39D4F8FC39D7
:102E6800AD1B9E1BC4F8F059C4F8FC69002D7FF413
:102E780030AF032384F8E83997E600BFD82E002046
:102E88006D710020F81404080615040874710020F8
:102E98000E150408B6F8CE39D6F8C9195BBA9AB235
:102EA80009BAD6F8E439C6F8EC1950189842C6F8A9
:102EB800F0296DD8D6F8E03959435343D6F8C029DC
:102EC800C6F8EC199342C6F8F0397FF464AEB3F54E
:102ED800805F28BF4FF4805301219BB22E4AD6F859
:102EE800B40986F8E81938F0C2FB5EE6D6F8F0496E
:102EF800D6F8D809D6F8E029D6F8EC194769B4F518
:102F0800805F28BF4FF480542846B4FBF2F3B1FB2E
:102F1800F2F29BB22049B847002801DA03218DE775
:102F2800D6F8EC39D6F8FC29D6F8B4092344C6F803
:102F3800EC39D6F8F0391B1B141BC6F8F039C6F863
:102F4800FC491BB9002138F0D7FBC2E6B3F5805F16
:102F580028BF4FF480539BB20F4A012138F087FBFA
:102F6800B7E696F8C8399B0701D5242111E0D6F8B1
:102F7800C9391ABAB6F8CE39C6F8EC295BBA9BB289
:102F8800C6F8F0391344D6F8E42993427FF60AAE1E
:102F98002121052068E600BF6D7100202DE9F0476A
:102FA80090B0DDE9184A0E460746904600213A22BD
:102FB8000DF1060099461A9D3BF0EEFC344B029346
:102FC8008DF80460CDF834A0002E55D0022E55D0CF
:102FD800032E55D0042E55D103232E4A02EB43036A
:102FE80093F8B8308DF805302B4B0394D3F8942020
:102FF800069714440122CDE904458DF831201D4679
:10300800B8F1000F06D04A46414607A83BF0CCFA73
:103018008DF8309095F846EA0023BEF1010F0E9323
:103028001FD80DF1040ABAE80F0095F845CA3C24E8
:1030380004FB0C5404F648240FC4BAE80F000FC46C
:10304800BAE80F000FC49AE80700BCFA8CFC0EF12E
:10305800010E4FEA5C1C84E8070085F846EA85F80B
:1030680045CA3B6883B14B4642463146384610B0A4
:10307800BDE8F0471CF0C6B83346AEE70123ACE71D
:103088000223AAE70023ADE710B0BDE8F08700BF30
:10309800DC38002058140408D82E0020420900F01B
:1030A8001F03032A4FF0010000FA03F008D0042A96
:1030B8000BD0022A0DD1074B5A6C10435864704745
:1030C800044B1A6C104318647047024B1A6B104378
:1030D80018637047003802404268034B9A420CBF9D
:1030E80095209620DAE700BF0060024037B5414CD2
:1030F800D4F89850002D7BD110232A462D21022088
:1031080039F0E1FDC4F8980078B3032136F0B2FC39
:103118009F233220009335F0EAFF04236A460DEB23
:103128000301D4F898008DF8055036F02DFB9DF872
:1031380006309DF805201B0243EA02439DF807204C
:1031480013432D4A93422D4A4DD035DC2C498B42EE
:1031580047D00CDC2B498B4214D02B498B4244D0EE
:103168000020C2E93300C2F8C40003B030BD2749CB
:103178008B4236D001318B4237D0A1F51A41033941
:103188008B42EDD1224BC2F8C430B2F8C830B2F845
:10319800C4101B02C2F8CC304B43B3F1807FC2F895
:1031A800D03005D90123B72084F8C43AFEF7AEF829
:1031B800012084F8C50AD8E716498B42E2D007DC1B
:1031C80015498B420DD002318B42C9D1134BDAE736
:1031D80013498B4209D001318B42F7D002398B4217
:1031E800BED1104BCFE7104BCDE74FF00123CAE714
:1031F8000120BAE7D82E00201620C20000000020C7
:1032080017301C00154001001860010017BA200093
:10321800200000011540EF001720C2000002000145
:103228001840EF008000000140000001031EB8BFF5
:103238002D2210B5B8BF58420C46AEBF0A2201F87D
:10324800012B0A2236F01EFF00230370204610BD12
:10325800642828BF642000EB800070B54500642412
:103268000026B5FBF4F4E4B2F3B29C4212D80A2C5F
:103278000BD01420B5FBF0F0C4EB84156638C4EB12
:1032880085052844C0B210F0F5FB0134E4B2092CDE
:1032980005D970BD9F2010F0EDFB0136E4E79A20B8
:1032A800F1E7002170B5084636F038F80021012012
:1032B80036F034F80C4D01244FF4067655F8040B1B
:1032C80020B1C6800472012139F0AEF90134042C12
:1032D800F4D10021084636F021F800210120BDE88C
:1032E800704036F01BB800BF1815040870B50E4CB6
:1032F80005460C2694F8C63A062B01D9002011E0A1
:103308005A1C06FB034384F8C62AD3F8C82AD107F7
:10331800F0D51542EED093F9CC0A1CF039FC002800
:10332800E8D0406870BD00BFD82E0020024B0022B4
:1033380083F8C62ADAE700BFD82E002030B5264B1E
:1033480010201D78A5F1300109291A4603F101035F
:1033580029D9214C0021131B022B27DC0023A24270
:103368002ED82E2D36D1501C04240022057802EBCD
:103378008202303D5200092D92B298BF521904F1D1
:10338800FF349CBF013092B214F0FF04EED16420E8
:103398005043124A02FB03000623B0FBF3F0104B24
:1033A80003FB010001E00138CBD130BD01EB810105
:1033B800490014F8010B3039014401F0FF01CAE754
:1033C80003EB83035B0014F8010B303B034403F069
:1033D800FF03C4E70022DAE7F839002040420F0073
:1033E8008096980030B5002351F8234052F82350B6
:1033F800641B40F823400133032BF5D130BD2DE980
:10340800FF4180460846154636F099FF4FF47A7218
:10341800002306460F463AF055FCB5F900303C2427
:1034280003FB0404394630464FF47A7200233AF01D
:1034380049FC002796B24FF47A73C3FB04673B46F6
:10344800324601A836F0F6FE394B93F8323B012B91
:1034580009D0022B35D032463B46404636F0EAFECC
:1034680004B0BDE8F0819DF80640E31E072BF2D8B2
:10347800231F052B0DD92146BDF8040036F088FE20
:103488009DF8073098420ED0E11E18BF012100298F
:10349800E1D02B883C332B80264BF6184FF00003E5
:1034A80043EB0707D7E7032C03D19DF80810003139
:1034B800EBE70A2CCFD19DF80810B1FA81F1490940
:1034C800E5E79DF80640E31E082BC4D8231F062B0A
:1034D800DFD92146BDF8040036F05AFE032C12D17C
:1034E8000E280ADC9DF80730984208D19DF808108C
:1034F800012994BF00210121C9E70738F0E7B4BFCB
:1035080001210021C3E70B2CA5D107280ADC9DF86F
:103518000730984208D19DF8081001298CBF002176
:103528000121B4E70738F0E7CCBF01210021AEE75D
:10353800D82E002080EE360030B50468E46985B0E6
:103548002CB10DF10F050095A04705B030BD204600
:10355800FBE708B506482DF0FDFC064830F00EF8EC
:10356800054B93F8342B12B1012283F8352B08BD93
:10357800C4910408D0910408D82E00202DE9F04FFA
:1035880087B0DFF8ACA0059107469046994600251C
:10359800B8F1000F07DBA84505D00135042DF7D198
:1035A80007B0BDE8F08F059AD6236B4302EB030BF7
:1035B8001E4AD31804930024B9F1000F01DBA1457A
:1035C8002FD1049B3BF8146033F81430F21A56429A
:1035D800564113F4006F03F01F02C3F3441114BFE4
:1035E80056234823CDE90213CDE900422B46524623
:1035F800314638462EF086FC3BF8143013F4006F41
:1036080003F01F02C3F3441114BF56234823CDE926
:103618000213CDE900422B465246314638462EF079
:1036280087FC01346B2CC7D1B7E700BF103A0020E4
:10363800DD9104082DE9F04F41F2CC73364C374A3E
:10364800DFF8E4B08846E15C354B002908BF1A462C
:1036580041F2CD7387B0E156814632482EF07CF8AE
:1036680004F56D6446460027B8F1000F52D096F86D
:1036780000A094F85C03F168B6F910C096F816E05B
:103688005045D6E9013243D1D4F8600398423FD17E
:10369800D4F8640390423BD1D4F86803884237D108
:1036A800B4F96C03604533D194F87253A5EB0E005E
:1036B80045424541CDE90221CDE900A3CDE904CE3B
:1036C8003B465A46294648462EF01CFC94F872336D
:1036D8000593B4F96C330493D4F868330393D4F89E
:1036E80064330293D4F86033019394F85C33009305
:1036F8005A463B462946484601372EF019FC3C2FCE
:1037080004F1180406F11806AED107B0BDE8F08F31
:103718000025CFE74546D9E7D82E0020B1BC0408DC
:10372800F7910408FA9104080992040870B541F267
:10373800B813204DEB5C2DED028B04460E4693B377
:1037480005F58E531B68036041F2C413EB584360C0
:1037580041F2C813EB58836005F56D6393EDBB8A9E
:10376800DFED158A96ED000A80EE280A3BF0A2FAF2
:1037780023681844206028EE288A96ED010A80EE16
:10378800080A3BF097FA63681844606096ED020AED
:103798003BF090FABDEC028BA368184441F2B813D1
:1037A800A060E85C70BDC0E900338360B7EE008AB2
:1037B800D6E700BFD82E00202C7D8E3F70B541F291
:1037C800B8131D4CE55C95B304F58E560B68366846
:1037D800DFED1A6A9B1B07EE103A41F2C4164B68DC
:1037E800A659B8EEC77A9B1B27EE267A07EE903AC1
:1037F80004F56D63012A80ED007A93EDBB7A8B683E
:1038080018BF41F2C812F8EEE77A27EE267A18BFF9
:10381800A25867EE877A18BF9B1AC0ED017A07EEA7
:10382800903AF8EEE77AC0ED027A284670BD002398
:10383800036043608360F8E7D82E00202C7D8E3F1C
:103848000C4608B505461BF049FF20461BF046FF0D
:103858000021084635F062FD0021012035F05EFDAB
:10386800284635F08BFC70B10121002035F056FD5B
:10387800284635F07DFC0146204635F082FC0021C3
:10388800084635F04BFD204635F078FC0028E7D097
:103898000121002035F042FD204635F069FC014643
:1038A800284635F06EFC00210846D7E7F0B50546F6
:1038B8000C4689B01422002120463BF06DF82A6896
:1038C8001D4E04A9C2F3855000230D4640FA03F7A4
:1038D800FF0744BF9F5D01F8017B0133062BF5D13B
:1038E800164800230B70C2F303210144C2F30536C6
:1038F80091F8D2108DF81810D9300DF1190146FA47
:1039080003F7FF0744BF1F5C01F8017B0133062B57
:10391800F5D100230B70C2F38343029306ABCDE9C4
:103928000053074902F00F032046C2F3031236F092
:10393800CCFD09B0F0BD00BF2415040858140408D4
:10394800219204081FB5324901A891F82120643159
:1039580017F09BF80398019A80EAE073A3EBE073F1
:1039680007EE903AF8EEE77AF7EE086AC7EEA65A3D
:1039780082EAE273A3EBE27307EE103AB8EEC77A75
:10398800029BF4EEC75AF1EE10FA13DD83EAE371F5
:10399800A1EBE37106EE101AB8EEC66AF4EEC65A49
:1039A800F1EE10FA06DD0028CCBF0020012005B09A
:1039B8005DF804FBC7EE265A83EAE371A1EBE371D5
:1039C80006EE101AB8EEC66AF4EEC65AF1EE10FA10
:1039D80009DDF4EEE57AF1EE10FA04D5002ACCBF41
:1039E80002200320E3E7C6EE265AB4EEE57AF1EEAC
:1039F80010FA09D5F4EEE57AF1EE10FA04D5002BA9
:103A0800CCBF04200520D2E74FF0FF30CFE700BF3E
:103A18000000001030B52A4A92F804378B424DD185
:103A280092F80517DFED276AD2F8285702EB410410
:103A3800013101F00F0182F8051792F84417B4F824
:103A48000637A4F8060707EE101AB8EEC77A92F8F8
:103A5800451727EE267AC31AFDEEC77A2B4417EED0
:103A6800900A07EE901AF8EEE77AC2F8283767EE60
:103A7800A67A1B09FDEEE77AA2F82C3717EE901A02
:103A880088420FDD9BB29942D4BF5B1A002398424B
:103A9800A6BFC31A9BB20023A2F82C37034617EE21
:103AA800900A1946B2F82C371B1AC3EB8323091A5C
:103AB80093FBF1F181F30A01A2F82C1730BD00BF86
:103AC800D03F002014AE23412DE9F04FDE4C2DED00
:103AD800028B94F8093283B0062B30D8DFE813F054
:103AE8000700CA00D60029017E015802D602B4F8A0
:103AF8000CC2D648D4F810224FEA5C0100EB8C08BF
:103B08008B004FEADC0CC61847464344A0F5DA752B
:103B180002EB0C1C9646E64507F1100706F1100665
:103B280003F1100305F1100519D18DB22946FCF7F0
:103B380027FBD4F8102229464046FCF721FB94F8CD
:103B4800093207220133B3FBF2F2C2EBC2029B1A1D
:103B580084F8093203B0BDEC028BBDE8F08F17ED95
:103B6800040A95ED696A57ED030A95ED6A4A53ED23
:103B7800046A53ED034A17ED027A17ED015A56ED20
:103B8800032A16ED023A56ED013A53ED027A53ED47
:103B9800015A95ED6B1A16ED042AD5ED6C1A36EE1E
:103BA800008A36EE406A85ED698A34EE208A34EE62
:103BB800604A85ED6A8A31EE078A0EF1100E85EDAE
:103BC8006B8A31EE858A31EEC55A72EE261A85ED7A
:103BD8006C8A46ED041A72EEA41A74EEE24A46EDB7
:103BE800031A73EE271A77EEC37A46ED021A73EEBC
:103BF800A51A75EEE35A46ED011A5EED033A1EED7D
:103C0800043A64EE232A76EEC26AE6EE032A23EE2D
:103C1800C66A47ED042AA4EE036A31EE477A07ED37
:103C2800036A23EE646AA6EEA36A66EE836A03ED6E
:103C3800046AE4EEA36A43ED036A1EED026A5EEDD0
:103C4800016A65EE264AE7EE064A26EEC77A47ED90
:103C5800024AA5EE067A07ED017A26EE657AA7EE06
:103C6800A67A67EE867A03ED027AE5EEA67A43ED48
:103C7800017A50E7D4F81422B4F81812734839F0CE
:103C8800C5F994F80932013384F80932D4ED8A7AF7
:103C9800D4ED895AB4F80C226C4BD4F8200277EE94
:103CA800A77AB0EE006AF0EE676AE5EE866A013A36
:103CB80003EBC201D5EE867A10300839B6EE007AE9
:103CC80066EE876A67EE877AC4EDA96AC4EDAA7AB8
:103CD800A3F5DA73F0EE476A91ED034A91ED027AA3
:103CE800D3ED6F3AD3ED707A50ED025A50ED014A98
:103CF80037EE635A34EE276A37EE237A77EEC47AC2
:103D0800A5EE857A013A00F10800E4EE857AA1F182
:103D1800080103F10803A4EE867AE5EEC67A27EED9
:103D2800267A67EEA67A83ED8D7AC3ED8E7AD3D1A3
:103D380005E7474D4FF000092E460427C84695ED84
:103D48008E0AD5ED8D7A20EE000AA7EEA70AB5EE09
:103D5800C00AF1EE10FA6ADB3BF0D2FA86ED6D0A82
:103D680095ED900AD5ED8F7A20EE000AA7EEA70A06
:103D7800B5EEC00AF1EE10FA5CDB3BF0C1FA86ED55
:103D88006E0A95ED920AD5ED917A20EE000AA7EE1B
:103D9800A70AB5EEC00AF1EE10FA4EDB3BF0B0FA16
:103DA80086ED6F0A95ED940AD5ED937A20EE000A18
:103DB800A7EEA70AB5EEC00AF1EE10FA40DB3BF019
:103DC8009FFA86ED700A013F05F1200506F11006FD
:103DD800B5D194F80932013384F8093294F89C2358
:103DE8001B4D9FED1C7A002302F16D0105EB81014B
:103DF80018461E460F2A2FDD04EB830292ED897ABE
:103E080067EE077A5A1C67EE877A07EE102AB8EE33
:103E1800C77A03F16E0227EE277A1F4605EB820266
:103E280019460F292ED105EB8303421C5EE0C6F824
:103E3800B49195E7C6F8B881A3E7C6F8BC81B1E7A5
:103E4800C6F8C081BFE700BF0000001024020010C0
:103E58007000001000000000F1EC017A3EB951ED4D
:103E6800026AF4EEE76AF1EE10FA09D5D0B2B4EEC0
:103E7800E77AF1EE10FA44BFD3B2B0EE677A0126C2
:103E88000132B7E712ED016AD2ED006AB4EEE66AD4
:103E9800F1EE10FA01F1010102F10402C3DD66EE50
:103EA800066A66EE866A06EE101AB8EEC66A77EEFD
:103EB800A67AA6EE867AB4E793ED6D6A043BD3ED55
:103EC8006D6AB4EEE66AF1EE10FA07F1FF310FDD24
:103ED80066EE066A781C66EE866A06EE100AB8EE8A
:103EE800C66A77EEA67AA6EE867A0F469742E3DC94
:103EF800F5EEC07AF1EE10FA94F80A623FDD87EE2B
:103F0800278AF7EE007A38EE678AD4EDE87A28EE49
:103F1800278AB4F8A40339F02DFACDE9000118EE88
:103F2800100A39F049FA9DED001B41EC100B3AF0EC
:103F3800CDFD51EC100B39F067FD242303FB06552A
:103F480000EE100A05F52D7034F062FB94F80A3281
:103F580003F5C87304EB4303BCEEC00AB3F8702042
:103F6800A3F8762010EE102A92B2A3F87020B4F8C5
:103F7800A8339A4238BF1A46A4F8A823DFE504EB11
:103F88004603B3F8963308EE103AB8EE488AC0E70D
:103F980094F80A5205F5C87304EB4303B3F870109C
:103FA800B3F876308B4261D04D4E94F82C3496EDB0
:103FB8001B0AD4F81C2405EBC50506EB8505374616
:103FC8006C37D5F814B0D5F818A0D5F81C90D5F8EA
:103FD8002080002B00F0818007EE901A96ED217A60
:103FE800F8EEE77A012367EE877A2846FCEEE77A4F
:103FF80017EE901A89B237F0A2F894F80A3296EDC3
:104008003D7AC5F814B003EBC30204EB4303C5F8CB
:1040180018A0B3F89033C5F81C9007EE903AF8EE64
:10402800E77AC5F8208067EE877A06F18805FCEE06
:10403800E77A05EB820517EE901AD5F814B0D5F893
:1040480018A0D5F81C90D5F8208097ED000AD4F870
:104058001C24012389B2284637F071F8C5F814B03A
:10406800C5F818A0C5F81C90C5F8208094F80A3245
:1040780003220133B3FBF2F202EB42029B1A84F8EB
:104088000A3294F80932013384F8093294F884200A
:10409800144D94F80A02C2F120010632CFB202EBA5
:1040A800401005F234463B4605F5DA72314605EB19
:1040B8008000FCF73FFB94F88430002B3FF43FADC1
:1040C80094F80A02B90001F5DA7205EBC0102A4427
:1040D80031441830FCF72EFB31E50123BBE700BF64
:1040E800AC0300107000001030B5194CD4ED017A03
:1040F80089B0F1EE677ACDED057AD4ED027A002326
:104108000093F1EE677A0B680193CDED067A4B6860
:10411800D4ED037A02938B680393054623680493CE
:10412800F1EE677A6A4604A96846CDED077A1DF074
:104138007BFE6946224608461DF076FE019B2B60F1
:10414800029B6B60039BAB60284609B030BD00BF83
:104158002405001038B502782DED088B30EE608A02
:10416800D0ED01AA0446B0EE40AAF0EE419AB0EEB6
:10417800619AB0EE42BA0D4668EE2AAA01F0010330
:104188004AB1002B0CBFF0EE607AF0EE487A0022BC
:10419800C0ED0B7A0270D4ED0B7A002B60D078EE6C
:1041A800677AF0EE480A87EEA90AC4ED0B0AD4ED47
:1041B800090AD4ED038AF5EEC00AF1EE10FA05DD1E
:1041C800B0EE691A04F1180034F06EFAD4ED057AED
:1041D80094ED0A7A2AEE27AA20EE280A7AEE877A40
:1041E80077EE807A77EE8A7AF4EEC97AF1EE10FAF1
:1041F80008D4F4EECB7AF1EE10FAD4BFB0EE679A99
:10420800B0EE4B9AD4ED026A94ED046AC4ED0DAA9F
:1042180028EE268AF0EE476AE9EE886A6B0779EE9F
:10422800677A84ED0C7A67EE867A84ED0E0AE9EEF9
:10423800A76A84ED0FAA84ED109AF0EE667A08D585
:10424800F0EEE66AB0EEC77AF4EEC76AF1EE10FA5D
:1042580001D5C4ED0A7AB0EE490ABDEC088B38BD29
:1042680070EEE77AF1EE677A87EEA90A9DE72DE905
:10427800F0412DED068B09EE100A07F04DF8A44D1C
:10428800D0ED047A95EDB58A90ED037AD5EDB48A30
:10429800A04F38EE678A78EEC78A28EE080AA8EE9B
:1042A800A80A3BF02DF8DFED9C7A9C4B97ED006A4D
:1042B800D3F80880B4EEE70AF1EE10FAC9BFDFEDD3
:1042C800987ADFED987AC7EE806AB0EEE87AC2BFD6
:1042D800F0EEC87A27EE267A67EEA67AB8EEC98A93
:1042E800DFED916A28EE268ADFED906A68EE266A8D
:1042F800D8BFB0EE677A18F4006F18BF76EEA66ADA
:10430800B1EE47AA36EE669AB4EECA9AF1EE10FA02
:1043180000F1F280B4EE479AF1EE10FAC8BFB0EEA1
:10432800479A36EE266AB4EEC6AAF1EE10FA08DC11
:10433800B4EEC67AF1EE10FA54BFB0EE46AAB0EE6B
:1043480047AA7B4E96ED007A77EE668AF1EE679A79
:10435800F4EEE98AF1EE10FA00F1D180F4EE678A02
:10436800F1EE10FAC8BFF0EE678A76EE876AF4EECF
:10437800E69AF1EE10FA08DCF4EEE67AF1EE10FABD
:1043880054BFF0EE669AF0EE679A06F0C5FFD5EDD9
:10439800B4AAD0ED030A6748B0EE4A2AF0EE491AEB
:1043A8000021B0EE481AB0EE6A0AFFF7D3FEB0EE6D
:1043B800409A06F0B1FF95EDB5AAD0ED040A5E4823
:1043C8000021B0EE692AF0EE681AB0EE481AB0EE95
:1043D8004A0AFFF7BFFE594B93F88E4718F4805FDF
:1043E80004EB84044FEA44043DD093F89A27D2B3EF
:1043F80007EE902ADFED526AB3F89E2795EDB06A72
:10440800B8EE677AC7EE267A06EE902AB3F87427D4
:10441800B8EE667A06EE902A36EE476AF8EE666AD5
:1044280026EE276A76EEC76A86EE267ADFED456ABB
:1044380037EE267AB4EEE67AF1EE10FA62D4F4EEAC
:10444800C77AF1EE10FA58BFF0EE477AB7EE007A65
:1044580077EE877A93F8A24729EE279A04EB84042B
:1044680020EE270A6400D5EDAE7A95EDAD7A86ED9B
:10447800000A60EE278A20EE070ADFED330A87ED8F
:10448800009AA9EE270AE9EE478A36F0D7FBB0EE84
:10449800408A36F0A7FCDFED2C0A28EE800A36F0B9
:1044A800CDFBF2EE046A20EE260A9FED287AC0EED4
:1044B800077A6242FDEEE77A17EE903A934224DBE0
:1044C800A342A8BF234668EE266A2149C6EE877A2A
:1044D80041F2F0700B52FDEEE77A17EE903A9A42ED
:1044E80003DC9C422246A8BF1A46BDEC068B41F26B
:1044F800F273CA52BDE8F081B0EE4A9A11E7F0EEC5
:10450800698A32E7F0EE667AA0E71346DBE700BF78
:10451800A83D002028470020CDCCCC3D000000104D
:1045280000007544C23D2D44BD3786350080D44413
:104538002C470020883E0020CC3E0020D03F0020A1
:104548000000C842000000008F2A754435FA8E3CEE
:10455800D82E002010B588B0002300930B68019373
:104568004B6802938B6814490393D1ED017A0B6869
:104578000493F1EE677ACDED057AD1ED027AF1EE8A
:10458800677ACDED067AD1ED037A0446F1EE677AC3
:104598006A466846CDED077A1DF046FC694604AACE
:1045A80008461DF041FC019B2360029B6360039B4E
:1045B800A360204608B010BD2405001010B51E4C9D
:1045C80094ED010AD4ED006A94ED027AD4ED037AF1
:1045D80020EE000AA6EEA60AA7EE070AA7EEA70A8B
:1045E8003AF08EFEDFED157AB4EEE70AF1EE10FA36
:1045F80008D54FF07E53236000236360A360E36017
:104608000D4810BD94ED007AC7EE007A94ED017A5A
:10461800C4ED007AC7EE007A94ED027AC4ED017A0F
:10462800C7EE007A94ED037AC4ED027AC7EE007AF9
:10463800C4ED037AE4E700BF24050010BD378635D2
:1046480030B51C7814B1012C05D030BD9A780270B1
:10465800DB780B70F9E7B3F9024052B1157B94FB94
:10466800F5F40470B3F904302AB1527B93FBF2F3EA
:10467800EFE70C25F3E71222F8E730B51C7814B100
:10468800012C0FD030BD9D7842B1147B6C4304607F
:10469800D8782AB1537B43430B60F3E70C24F5E742
:1046A8001223F8E7B3F902200260B3F90430F3E704
:1046B8002DE9F0412DED028B1B4D84B004460E46CA
:1046C8001746984613460A460146D5F8D007B0EE75
:1046D800408A34F019FF9FED150A9DF83030CDF867
:1046E800048028EE000A0022FDEEC07A009217EE40
:1046F800901A02A80FF0ECFB9DF834001FF0E0F8C8
:104708008046384638F0ECFC611C0144CDF8008046
:1047180002AB3246C9B2D5F8D00734F0B9FE04B0BE
:10472800BDEC028BBDE8F081D03F00200000C842FC
:1047380070B50D4C06460D4613460A460146D4F898
:10474800D00734F069FF94F9D43704EB43020133FE
:104758005BB2272BC8BF002382F8D56782F8D657EB
:1047680084F8D437012070BDD03F00202DE9F347ED
:10477800284C1646FE2284F8272894F83C2984F809
:104788002928013284F83C294FF6FF721F4684F825
:10479800286884F82A0884F82B18ADF8062006251E
:1047A80004F62808013DADB23DBBDFF87080BDF8C6
:1047B800063094F82858A4F825384FF6FF79A8F160
:1047C800080A013DADB24D451ED13846124904F0E4
:1047D8002FFD94F82838B4F82528234406F108005A
:1047E80083F82D2894F82838B4F825282344120A89
:1047F80083F82E2802B0BDE8F0870DF1060118F8FD
:10480800010B04F015FDCDE7514618F8010B04F033
:104818000FFDD6E7D03F0020F5470020FD470020D8
:1048280017B48DF805308DF804200A4BBDF8042024
:104838009DF81040A3F82D282F2283F82C2883F800
:104848002F48032299238DF8064003B05DF8044BE6
:104858008CE700BFD03F0020054991F86929002363
:10486800042A036028BF042201F66E1139F09CBEA9
:10487800D03F002010B4074991F86929002404802A
:10488800022A28BF022201F66E115DF8044B39F0A6
:104898008BBE00BFD03F0020F8B5204C1D250F4629
:1048A800064684F8765A1AF001FE00201AF08AFDAE
:1048B80008201AF087FD0E201AF084FD28461AF009
:1048C80081FD04201AF07EFD04201AF07BFD0020F3
:1048D8001AF078FD30201AF075FD00201AF072FDEC
:1048E80038461AF06FFD00201AF06CFD1AF0BEFD74
:1048F80004F677201AF0CEFC234670B194F8772A94
:1049080052B994F8782A302A00D02AB993F8792A2B
:1049180012B993F87A3A33700120F8BDD03F0020DD
:10492800011D0023884201D11846704710F8012B59
:104938005340082213F0800F4FEA430318BF83F057
:104948003103013ADBB2F5D1ECE7094A00231046FE
:10495800117831B19178802903D1682202FB0300D4
:1049680070470133102B02F16802F1D10020704723
:10497800584A00202DE9F743104B93F85043074657
:104988008846C4B90E4DA14605F52576286858B164
:1049980034F0D4FB40B1CDF800902B46424639465E
:1049A800B6201AF00CFC0446DC35B542EED12046A0
:1049B80003B0BDE8F0830024F9E700BFD82E00203B
:1049C800D85000200E4B062230B483F8A6222422A9
:1049D80083F8A72283F8A822002283F8A922094A8B
:1049E80003F2AA2102F1240452F8045B41F8045BA3
:1049F800A242F9D130BC83F8AC020DF081BC00BFF3
:104A0800C85000203715040813490023F0B51A468A
:104A18000D461E460A278C1894F8204B0CB91846E8
:104A2800F0BD2E2C06D101320028F8D08C18044491
:104A380084F8206BAC187B4394F8204BA4F1300C1D
:104A4800BCF1090F9CBF303B1B190E2A01D801325B
:104A5800E1E70023E3E700BFD82E002010B50B4C98
:104A680004F5BE50103007F01DFA41F2DC73E3582C
:104A7800C01A36F09DF80028B8BF404242F21073C1
:104A88009842D4BF0020012010BD00BFD82E0020BE
:104A980010B51C2034F0D0FB1121044637F0C4FDBA
:104AA800204634F0F1FBC82034F021FB2046BDE855
:104AB800104034F0EEBB2DE9F04FB54CD4F8A833D4
:104AC8005E6916F001068BB040F084825A699B69D2
:104AD8001340019300F07E82C3F307431807009345
:104AE8000ED5D4F8AC33DFF8B0929F69DB6904F5D2
:104AF800677B1F403F0CDA46D846002F40F0038101
:104B0800009B590711D5D4F8AC23A24F9369D269F9
:104B180003EA02081FFA88F83E464FF0000AA7F594
:104B2800677BB8F1000F40F03F819DF80460B10742
:104B380041BF974BD3F8A83302225A61019B002B3F
:104B48001BDA934B93F8A6233AB1D3F8A824136839
:104B580023F0030161F307031360D4F8AC238D48F5
:104B6800536823F0010353608B4BD3F8EC3098471C
:104B7800D4F8A8334FF000425A61019BC3F30725CC
:104B88002A072FD500238DF8173094F8AE348DF806
:104B98001730814B7F48D3F8E8309847D4F8A823DA
:104BA800D4F8AC334FF400619B68516194F8A623A4
:104BB800C2B1DB0716D594F8B134012B12D19DF898
:104BC8001730032B0ED1D4F8A8341A6842F001022A
:104BD8001A601A6842F003021A60704A136943F0B7
:104BE8000603136137070AD5694F6B4B07F56770E2
:104BF800D3F8E0309847D7F8A83308225A61F60668
:104C080014D5D4F8A803836923F010038361036AD9
:104C1800C3F34341022903F00F0200F06B81062918
:104C280000F09081836943F010038361E80633D56F
:104C3800D4F8AC2357485368002623F00103536087
:104C4800314637F05FF994F89DC3554A37463346E5
:104C5800FF206345C0F08481D4F8AC334D484FF051
:104C6800FF329A614FF00112DA610B2262F30706F4
:104C780062F307075E611F611A686FF30A121A6010
:104C880036F08AFED4F8A83342484FF480525A616D
:104C9800414BD3F8E4309847A90640F17D813C4A5E
:104CA800D2F8AC33D2F8B40399680268C1F3410171
:104CB800022906BF032161F30A026FF30A020260A8
:104CC8005A6842F480725A6006A837F0D1FAD4F8CC
:104CD800A813D4F8AC03CB68079A6FF38D23CB6085
:104CE80085683048C5F34105284490F80301032836
:104CF80040F03D81002284F89E234FF40072A4F80E
:104D0800A023092242E1F9073BD5F1B204EB810364
:104D1800D3F8F0339D68D4F8AC335B691D40EA07DB
:104D28001FD594F89F03DBF854300125A8429D60F5
:104D380007D11869DAF87C33C0F312001B1ACAF8D5
:104D48008C33D9F8D4304046984794F89F33012BD8
:104D580007D136B994F8AD34052B02D1404636F068
:104D68001BFEAB0742BFDBF8543002259D602807C5
:104D780007D5D9F8DC3040469847DBF8543008228C
:104D88009A6001367F080BF1040B0AF1280AB4E691
:104D9800D82E0020743200200000002000ED00E032
:104DA8008C3200205814040818F0010F61D0D4F890
:104DB800AC335FFA8AF919695D6B04EB890225FA4D
:104DC80009F5D2F8B423ED019268EDB20D43154010
:104DD800EA071CD55A6BA048012505FA0AF122EA10
:104DE80001025A63BB699D609C4B4946D3F8D83091
:104DF800984794F89F33AB4209D1BAF1000F06D116
:104E080094F8AD34042B02D1934836F0C5FD280739
:104E180042BFBB6908259D60E90642BFBB691025F2
:104E28009D606A0642BFBB6940259D60AB0742BFD3
:104E3800BB6902259D6028061BD5D6E94C329B1A12
:104E4800D6F82421D7F818C0DBF8ACE3DCF8185002
:104E5800934228BF1346033309F132099B080BEB31
:104E68008909ADB29D4204D9D6E94C02904200D9D5
:104E780030B90AF1010A4FEA58080437283650E6D3
:104E8800D6F82431801A984228BF18469BF89F23E9
:104E9800C31C9B08DAB1D6F82811D6F83421DCF8FF
:104EA80018500144C6F82811D6F8301102448A4235
:104EB800C6F83421D5D196F81C11DEF8342001202B
:104EC80000FA01F122EA0102CEF83420C9E7D6F847
:104ED8002811029181B2033189100391D9F8A413E2
:104EE8000D4603999142D6D0029951F822102960B3
:104EF8000132F6E747F6F07119423FF493AE2821E4
:104F080001FB0241C3F30A13DE1CD4F86CC4D1F8C8
:104F18001C77B61000218E420ED1514E282101FB7C
:104F28000262D2F81C171944C2F81C17D2F82817C5
:104F38000B44C2F8283775E6DCF800E047F821E0B2
:104F48000131E8E7D4F86C140E68C4F86869096898
:104F5800C4F86C19282101FB0242C3F30A13E5E7E0
:104F680052F8041B8860916B0133886071E6012058
:104F780084F89E034020A4F8A003A0F56400A0F5DF
:104F88006240384C1044A04227D80E2262F38D2389
:104F9800CB604FF400534B61009BDA060BD5304CC5
:104FA8002E4B04F56770D3F8F0309847D4F8A8333F
:104FB8004FF480125A61009B9B060BD5284C274B57
:104FC80004F56770D3F8F4309847D4F8A8334FF451
:104FD80000125A610BB0BDE8F08FA2F57400224CA4
:104FE800A0F51050A04201D80D22CFE71F48204C51
:104FF8001044A04201D80C22C8E7A2F18C701D4CC5
:10500800A0F54340A04201D80B22BFE71A481B4C29
:105018001044A04201D80A22B8E71948194C104494
:10502800A0427FF66EAEA2F1B770174CA0F55850AB
:10503800A04201D80822A9E71448154C1044A04200
:1050480001D80722A2E713481044134A904294BF9C
:10505800062205229AE700BF7432002000000020D3
:10506800D82E00203F420F00DFC810002013FBFE9F
:105078001FD61300FF69180000D3CEFE3F771B0030
:10508800C05BB3FEBF9121003FAC2700C01D6AFE84
:105098003FE13300803C36FEDF9C4100704770479B
:1050A800704770470A4B93F8E6221044C0B20206D4
:1050B80048BF803883F8E60293F8E72293F8E612AF
:1050C800914202BF002283F8E72283F8E622704764
:1050D800C850002030B50B4A92F8E63202F53A740F
:1050E800E518C0E9005492F8E72293429BBFD31A0F
:1050F8000B60C3F18003002394BF4B60C1E9003209
:1051080030BD00BFC85000201FB502A86946FFF790
:10511800E1FF054B0098D3F868331844019B184405
:1051280005B05DF804FB00BFC8500020054B93F89C
:10513800E70293F8E632984236BFC3F18003C01AFB
:10514800C0187047C850002013B50C4C94F8C50A15
:1051580068B10523ADF800306A46022301A9D4F8E6
:10516800980034F011FB9DF8050000F0010084F868
:10517800C50A80F0010002B010BD00BFD82E002083
:1051880070B5064CD4F894500646FFF7DDFF20B9F9
:10519800D4F894305B1BB342F7D970BDD82E0020E9
:1051A80008B545F20820FFF7EBFF0620FCF7AEF83C
:1051B800074B0122C72083F8C52AFCF7A7F8054B3F
:1051C800002283F8E72283F8E622C3F8682308BDA3
:1051D800D82E0020C850002030B51A4C89B00023C2
:1051E8001546032200938DF8002094F8C42A8DF800
:1051F80004309A420293CDE906351BBF030E8DF8A1
:1052080001300DF101030DF1020314BF0522042240
:10521800CDE90421020C1A70020A98705A7006200F
:10522800CDF80CD0FFF7ACFF50B1D4F89800037953
:10523800022B02D102A9FBF7D5FF284609B030BDE1
:105248000546FAE7D82E00207FB5104BD3F8D0409A
:105258000026E40AA64202DBE00204B070BD35195C
:105268006D1010226946E802FFF7B6FF0F28F3DD3C
:105278006A46002352F8041B013104D10133042B80
:10528800F8D12C46E6E76E1C2546FAE70000002018
:1052980070B51C4D88B000231646022200938DF885
:1052A800002095F8C42A8DF804309A4214BF0522CC
:1052B8000422CDE9042302931BBF030E8DF80130AD
:1052C8000DF101030DF10203020C1A70020A987025
:1052D8005A7004460620CDE90616CDF80CD0FFF723
:1052E8004FFF0620FCF712F8D5F89800012385F83F
:1052F800C53A0379022B02D102A9FBF773FF3019D3
:1053080008B070BDD82E00202DE9F04F85B08B462F
:10531800009301EB8203019302900B464FF0000AC1
:1053280053F8042B9244019A9A42F9D1009B002B1E
:1053380050D1FFF709FF00284CD1009805B0BDE80F
:10534800F08F029D5F46A0463B4657F8042B002A83
:105358003AD0424529682BD342460393FFF798FF7A
:105368002A68039B42442A601A68A2EB08021A6062
:10537800D9F86833361B1C44009BC9F86843A3B1AD
:105388009EB1D9F86803C4B2A319B3F5807F134B53
:10539800D3F8D0308CBFC4F5807434469842D0D34B
:1053A800002389F8E73289F8E632AAEB0600C5E758
:1053B800FFF76EFF57F8042C2B6813442B6000236B
:1053C800A8EB020847F8043C019BBB4205F1040521
:1053D800BAD1CDE75646DFF80890D1E700000020A3
:1053E800C85000201FB50C4C94F8E62294F8E73218
:1053F8009A420ED002A96846FFF76CFE01230222EA
:1054080002A96846FFF780FF002384F8E73284F892
:10541800E63204B010BD00BFC8500020064BD3F8D8
:10542800D03010B53BB1FFF70FFF0446FFF7DAFFA6
:10543800024BC3F8684310BD00000020C85000208C
:10544800094B70B5D3F8D030154682189A4288BFF8
:105458001D1A04460E46FFF7C5FF2A463146204668
:10546800BDE87040B8E600BF0000002013460A46B9
:1054780001461846E4E71FB50E4C94F8E62294F866
:10548800E7329A4214D002A96846FFF723FE0023A8
:10549800022202A96846FFF737FFFFF703FE94F8D8
:1054A800E60294F8E732C31A5842584104B010BDD6
:1054B8000120FBE7C8500020F0B51E4C94F8E252DA
:1054C800C3B006460F46002DFDD1012384F8E23211
:1054D800FCF7A6FAFF2E4FF0090388BFB5088DF830
:1054E80004308DF8056088BF05F0C00501AB0022C7
:1054F8004FF00A0C0B2645EA0201B85C83F802C09B
:105508000132362AD9701E71587103F10403F2D1A1
:105518004AF20803ADF8DE3001AADC230021D4F8F2
:10552800DC0234F031F9FCF7E4FA002384F8E232C3
:1055380043B0F0BDD82E0020F8B51D4C94F8E232E7
:1055480005460F46002BFDD1012384F8E232FCF713
:1055580067FAEAB206460921D4F8DC0234F09AF96F
:10556800B5F5807F05D140220A21D4F8DC0234F059
:1055780091F950220821D4F8DC0234F08BF9FCF7B9
:10558800B8FA0025EAB20A21D4F8DC0234F082F92C
:105598007A19C021D4F8DC02013534F017F9362D18
:1055A800F0D10EB9FCF73CFA002384F8E232F8BDDA
:1055B800D82E00202DE9F04F6E4B6F4E93F8E41271
:1055C800A9B00A2300200293024603460DF11409EC
:1055D8004FF0050A4FEA521E674D02F01F0205EB15
:1055E8008E0C4FF0FF3455F82E5004FA02F707EAF4
:1055F800050292FAA2F2B2FA82F2D2B2202A6ED050
:1056080002EB4E125D4D05EB4205C2F3072CB5F8CF
:10561800A8E34FEA1E245FFA8EF5019415F0040FF3
:1056280009EB03040394D7B201F0400B03F1010422
:1056380003F1020870D0BBF1000F08D103980423CE
:1056480041F04001037009F804104346012028ACDA
:1056580004EB030EAD004FF006040EF88A4C0EF86A
:10566800875C0EF8844C03F10B0528AC4CF002085B
:1056780025440EF88B8C019C0EF88CAC4FF0070873
:105688000EF8897C0EF8888C0EF886AC0EF885CC5E
:105698000EF8837C0EF8828C0C3305F88C4C4FEA9C
:1056A800521C012502F01F0705FA07F7029C56F85D
:1056B8002C50013C25EA070546F82C50029456D197
:1056C80010B12C4A82F8E4122A4805AA0021D0F821
:1056D800DC0234F059F8012029B0BDE8F08F0CF154
:1056E800040C274A944567460ED20CF1040C3D6819
:1056F80095FAA5F5B5FA85F2D2B2202AF1D0BF1BEA
:1057080012EBC7027FF57EAF10B11A4A82F8E41295
:10571800002BD9D11846DFE7BBF1000F03D101F008
:10572800380BAB450BD021F07801039841EA0E0104
:105738000423C9B2037009F804104346012028ACB9
:10574800E5184FF0060405F88A4C4FF0070405F8F1
:10575800897C05F8884C5F1D28AC2744019C05F816
:105768008CAC05F88BCC063307F88C4C97E70132E4
:1057780030E700BFD82E002034540020C850002045
:1057880070540020F7B5234C94F8E232002B3FD137
:1057980001230DF107028421D4F8DC0284F8E232F7
:1057A80034F014F894F8E422D4F8DC0242F004024D
:1057B800042134F06FF80DF107028421D4F8DC02DB
:1057C80034F004F89DF8073013F00405F3D13C22B7
:1057D8002946114884F8E432104E39F0DDF8A6F174
:1057E8003C0736F8023B1A0A22F0200203F00403B1
:1057F800134303D02946384635F036FE0135B5F552
:10580800F07FEED1FFF7D6FE0028FBD184F8E20244
:1058180003B0F0BDD82E002034540020705400206E
:1058280013B5224CD4F8DC02F0B394F8E032012B23
:1058380013D0022B13D00DF10302A02133F0C6FFC1
:105848009DF8033003F00503012B06D043B1D4F8CB
:10585800942040F2DC539A4226D9402300E00023EA
:1058680043F0080384F8E3328DF8053040F204432E
:10587800ADF8063004230DEB03020021D4F8DC0256
:105888008DF8041033F080FF3C22FF21084839F0DE
:1058980083F894F8E1323BB9D4F8DC320BB1FFF766
:1058A80071FF012384F8E13202B010BDD82E002028
:1058B800345400200348D0F8EC3213B100F53870A6
:1058C80018477047000000200348D0F8CC3213B1C5
:1058D80000F5307018477047000000200348D0F8E2
:1058E800AC3213B100F5287018477047000000204B
:1058F8000348D0F88C3213B100F520701847704770
:10590800000000200348D0F86C3213B100F518707D
:1059180018477047000000200348D0F84C3213B1F4
:1059280000F5107018477047000000200348D0F8B1
:105938002C3213B100F5087018477047000000209A
:105948000348D0F80C3213B100F5007018477047BF
:10595800000000200348D0F8EC3113B100F5F070D6
:1059680018477047000000200348D0F8CC3113B125
:1059780000F5E07018477047000000200348D0F891
:10598800AC3113B100F5D070184770470000002003
:105998000348D0F88C3113B100F5C0701847704730
:1059A800000000200348D0F86C3113B100F5B07046
:1059B80018477047000000200348D0F84C3113B155
:1059C80000F5A07018477047000000200348D0F881
:1059D8002C3113B100F59070184770470000002073
:1059E8000348D0F80C3113B100F5807018477047A0
:1059F8000000002010B5064C0648D4F88417FCF7C0
:105A080035FBD4F89C170448BDE81040FCF72EBBC2
:105A1800C8500020000401400020004010B5064C8A
:105A28000648D4F88417FCF721FBD4F898170448E3
:105A3800BDE81040FCF71ABBC85000200004014024
:105A4800001C004010B5064C0648D4F88417FCF733
:105A58000DFBD4F894170448BDE81040FCF706BBCA
:105A6800C85000200004014000180040024B0348C1
:105A7800D3F88417FCF7FABAC85000200004014094
:105A8800024B0348D3F87817FCF7F0BAC850002047
:105A9800000C0040024B0348D3F87417FCF7E6BA31
:105AA800C850002000080040024B0348D3F8701784
:105AB800FCF7DCBAC850002000040040034B4FF04C
:105AC8008040D3F86C17FCF7D1BA00BFC85000204B
