:020000040800F2
:10000000000001203D240608C5240608C9BE0308D7
:10001000C5240608C5240608C524060800000000FB
:10002000000000000000000000000000C5240608D9
:10003000C524060800000000C5240608351405087C
:10004000C5240608C5240608C5240608C5240608D4
:10005000C5240608C524060881340508953405081A
:10006000913405088D34050889340508CDED05085F
:10007000B9ED0508A5ED050891ED05087DED05082C
:1000800069ED050855ED0508C5240608C5240608D0
:10009000C5240608C5240608C524060885340508B5
:1000A00089E3050841E4050879E3050865E40508E6
:1000B00031E405081DE4050809E4050811EE05080A
:1000C0001DEE0508F9ED050805EE0508C52406082E
:1000D000C524060839E305082DE3050821E30508D2
:1000E0007D340508C5240608C524060869E305080B
:1000F000BDE3050899E30508E1E3050841ED0508BE
:10010000C5240608C5240608F5E30508C524060825
:1001100015E30508C5240608C524060849B50508E1
:100120002DED050819ED050805ED0508F1EC0508AC
:10013000DDEC0508000000000000000000000000E9
:1001400000000000000000000000000075C305086A
:10015000C9EC0508B5EC0508A1EC050809E305089C
:10016000E1ED0508EDED0508C5240608C5240608DF
:10017000C5240608C5240608000000000000000091
:10018000C5240608C5240608C5240608C524060893
:10019000C5240608C524060800000000C52406087A
:1001A000000000000000000000000000C524060858
:1001B000C5240608C5240608000000000000000051
:1001C000000000000000000000000000000000002F
:1001D000000000000000000000000000C524060828
:0801E000941F0600010000005D
:1001E800783A02200208000007002234983A0220D8
:1001F800020A000102003F33B83A0220010F000052
:1002080000007600D83A02200110010000007700B3
:10021800F83A02200115000000007600183B022081
:100228000116000000001E00383B0220011C0000DF
:1002380000000D00583B02200118000000000C00CF
:10024800783B0220011D000000000E00983B0220B0
:10025800011E000000001E00B83B0220011900002A
:1002680000000C00D83B0220011A000000000E001C
:10027800F83B0220011B000000000C00183C022083
:100288000127010000001800383C0220011F00006F
:1002980000004800583C02200120000000004900EE
:1002A800783C02200121000000004A00983C02200E
:1002B8000122000000004B00B83C0220012300008E
:1002C80000004C00D83C02200124000000004D0032
:1002D800F83C02200125000000004E00183D0220D5
:1002E8000126000000004F00383D0220012A0000CE
:1002F80000001400583D0220012B000000002900D6
:10030800783D0220012C010000002800983D0220C1
:100318000228010000012C00B83D0220023006002E
:1003280000024200D83D0220012F000000003C00DE
:10033800F83D0220012D000000004000183E022078
:0803480001320000000020005A
:1080000009284FF00103F0B407D903EB83035B00A9
:10801000B0FBF3F2092AF8D84BB30026DFF858C0BA
:10802000ACFB03720D46B0FBF3F4002C03FB140011
:108030004FEAD202D4BF0027012756B94FB9092B06
:108040003E4612D8303405F8014B00232B70F0BCAB
:108050007047092C06F10106CCBF57213021092BAE
:108060000C4405F8014B2946EFD91346D8E70D46D5
:1080700000232B70F0BC7047CDCCCCCCF0B50023E6
:108080000E680DE0BCF1050F17D9BEF1050F18D829
:108090000A2C16D103EB830316F8010B04EB430300
:1080A000A0F13005A0F1610CA0F1410EA0F1370460
:1080B000EFB2092FE6D82C46ECE7A0F157040A2CC2
:1080C000E8D00E601360F0BD2DE9F04F02238A4620
:1080D0008B462DED108B93B0DFEDBB8A0E930346DC
:1080E000109004330F9211934FEADA06109DDDF8D9
:1080F00044C04FEACA0305EB46110D96F0004FF05D
:10810000000E01EB061437010390A6EB86020094E3
:10811000029706EB460804EBC202041D381D06EB6D
:1081200086072C44C6EBC60901972844019D02EB43
:1081300046174FEAC909ED0001EBC60601954FEA63
:10814000081504954FEAC80505950D9D4FEA451899
:10815000009DD1ED006AD64495ED007A96ED003A87
:10816000F34597ED004A1CED015A50ED017A14EDEC
:10817000016A75EE262AD2ED005A35EE665A76EE81
:10818000033A77EE876A36EE436A77EEC77A35EEC2
:10819000847A75EEC45A72EEA64A72EEE62A76EE3C
:1081A000656A33EE874AF0EE451AA6EEE85A34EED9
:1081B000843A74EEC44A36EE256A0CED013AB0EE0C
:1081C000672AC1ED004AE6EEA81AD7ED015AB0EED3
:1081D000453AD5ED010AA6EE282A96ED015AE6EEBB
:1081E000687AD4ED006A33EEC76A92ED014AD0EDA9
:1081F000004A76EEC53A34EE658A91ED010A76EED4
:10820000856A9CED007A34EEE05A34EE254A33EE6E
:10821000881A77EE405A74EEA04AF0EE450A73EEE3
:10822000C83AA1EE685AE1EE280A37EE007AB0EEBD
:10823000651AE3EEE85AA3EEA81A76EE843A76EED3
:10824000C46A37EE244A37EE647A32EEA60A74EE38
:10825000234A72EEE66A34EE634A77EE462ACCEDA4
:10826000004A36EE077A9C4481ED014A71EEA03A4D
:1082700000ED010A33EE054AC5ED006A71EEE04AF1
:10828000C0ED002A33EE455A85ED017A31EE426A9F
:1082900035EEE77A44ED013A72EE016AC7ED004A25
:1082A00077EEA57A86ED004A194482ED005A1D4406
:1082B00084ED006A1844C7ED016A1C4486ED017A1A
:1082C0001F44C2ED017A1E441A443FF642AF0D9A94
:1082D000072A40F2A081039A08F10808109F09F1CB
:1082E00008000832019E049D94463A460836059CD3
:1082F00042440835083402990A9207EB0C020C310B
:108300004FF000080992BA1908927A1907923A199F
:1083100006923A1805927A18039207F10C02049219
:10832000012202920E9ADDF80CC090440F9A049F2D
:1083300002EBC802059EA8EB880E069D02EBC80161
:1083400092ED00DA079C01EBC802D1ED00CA089853
:1083500002EBC80192ED00CA01EBC802D1ED00BAF0
:1083600002EBC80192ED00BA01EBC802D1ED00AA00
:10837000099902EB0E1E92ED00AA0A9A0EEBC809AB
:10838000DEED019A0B9209EBC80299ED019A0C916E
:1083900002EBC80992ED018ADDF808E009EBC8029A
:1083A00099ED010A02EBC809D2ED010AD9ED017A73
:1083B00009EBC802CDED007AD2ED017ADDE90B219F
:1083C000CDED017A02E000BFF304353FD0ED003A75
:1083D000D64492ED007AD4ED007AF34595ED006A2B
:1083E000D6ED006A57ED014A1CED015A91ED004AA5
:1083F00034EE872A74EEC74A97ED00FA35EE277AF5
:1084000074EE232A35EE675A76EE267A72EE07EA84
:1084100036EE666A32EEA73A34EE634A32EE472A07
:108420007EEE836A34EE067AB0EE45EA47ED016AE5
:1084300034EE464AD0ED016AA7EE685A91ED016A22
:10844000A7EE28EAD6ED013AF0EE64DA95ED017A6E
:1084500076EE66FA92ED011A76EE266A37EE636AD8
:108460007FEE415AE4EE28DA72EEE72ADCED007A7C
:10847000E4EE684A94ED014A37EE237A77EEC41AA7
:108480007FEEC63A77EE847A3FEE866AB0EE654AB2
:10849000E3EEE85A3FEE01FAA3EEA84AF0EE613AA5
:1084A000E6EE681A36EE871AE6EE283A36EEC77A16
:1084B0003EEEC33A74EE4EEAB0EE616A7FEE271AE2
:1084C0007FEE677A72EE076A31EEC1FA32EE477AD2
:1084D00037EEE22A72EEA77A7DEEA32A7DEEE33A2A
:1084E00075EEC5DA35EE255A60EE0F5A63EE40FAA6
:1084F0003EEE044AEBEE835A34EE86EA74EEC64A48
:1085000026EEC96AEBEE8FFA9DED00FA71EE811A44
:10851000B0EE653A69EE025AACEE826A9DED002A31
:108520002FEE27FAC7ED001AECEEA65A82ED003ABC
:1085300027EE422AC2ED01FA69EEAE6A1F44AAEEA6
:1085400087FA1A4422EEE97A8CED006AAAEEA72A8D
:10855000DDED017AEDEE226ADDED012AADEE2E7A37
:108560004CED015A67EE847A9C4463EEE22A84ED76
:1085700000FA6EEE60EAEAEE237A84ED012AEAEE72
:10858000042AC1ED006AEBEE2DEA81ED017A60EE7E
:10859000AD3A1C4428EE054A194464EEC8DAEBEE05
:1085A0000E3AC6ED007AACEE244AC6ED012AECEE96
:1085B00005DA1E44C0ED003AC0ED01EA184485ED2D
:1085C000004AC5ED01DA1D443FF600AF0A99029A50
:1085D000083101320A9109990292083109910899EA
:1085E00008310891079908310791069908310691D9
:1085F00005990831059104990831049103990831CE
:1086000003910D9991427FF48DAE0E9B8A46DB005B
:108610009BB20E9368E513B0BDEC108BBDE8F08FF4
:1086200000B5034683B03221074A68468DF8001032
:1086300019689B881268CDF80110ADF80530904795
:1086400003B05DF804FB00BFA0210120204B2DE901
:10865000F041002406465D6800F1070806E039464F
:108660001B6898473C444645A4B214D016F8017BD9
:1086700028467D21A7F17D03012B2B68EFD81B68CD
:1086800098472B6887F0200128461B689847E9E740
:10869000E3B203EB1424FF2CFAD8C4F1FF04E4B2D4
:1086A000A4F17D03012B2B6805D9214628461B68C0
:1086B000BDE8F041184728467D211B6898472B6884
:1086C00084F0200128461B68BDE8F041184700BF30
:1086D000A02101200A4AD369F0B41C68002756691A
:1086E0004FF6F6751981611C9F81C3E90016207051
:1086F000D36951691A689D81C3E90012F0BC7047C3
:10870000A0210120F8B5CE1E0F464FF6FF730239A7
:10871000421E0446064412F8015F5B1BB2429BB244
:10872000F9D14354C5191B0A054E05F8013C14F84C
:10873000011B306A48F004FFA542F8D1F8B2F8BD39
:10874000A021012070B50B4682B0082460F05F02C2
:108750001E14ADF8023000251B0E214668468DF828
:1087600001208DF804608DF805308DF80040ADF8DB
:108770000650FFF7C7FF02B070BD00BF062260F0D1
:108780005F0330B583B00D46002411466846ADF84E
:1087900002508DF801308DF80020ADF80440FFF74D
:1087A000B1FF03B030BD00BF264A274B11680B4014
:1087B000002B0CBF012002204B07536848BF043038
:1087C000D90701D50A3080B29A0701D5143080B29A
:1087D000D90501D5283080B25A0701D5643080B25E
:1087E000190701D5C83080B29A0602D500F5C870C5
:1087F00080B2D90602D500F57A7080B2DA040ED5BF
:1088000000F5FA5080B2990403D542F21072024486
:1088100090B29A0509D50D4B034498B270471905DB
:108820000AD500F5FA6080B2EDE75B0503D544F6A2
:108830002063034498B270475A06E4D500F57A6085
:1088400080B2E0E70000002080FFFF0F409CFFFFA8
:10885000022805D0A0F10100B0FA80F0400970476D
:10886000054B93F82C3023B9044B1868C0F38000F3
:108870007047102033F07CB9A021012000000020B7
:10888000014B93F864007047A0210120424B01384E
:10889000F0B4424CC825A36604F16D0204F1A701AF
:1088A0004D2384F86C5027E0DDB25BB2002B33DB44
:1088B0006B00DDB25BB2002B35DB6D00EBB26DB24D
:1088C000002D37DB5D00EBB26DB2002D39DB5D00B2
:1088D000EBB26DB2002D3BDB5D00EBB26DB2002D53
:1088E0003DDB5D00EBB26DB25B00002DB8BF83F0E5
:1088F000D5038A42DBB238D010F8015F6B4002F832
:10890000015B13F0800F4FEA4303CDD083F0D50510
:108910006BB2EDB2002BCBDA6D0085F0D5056BB2F2
:10892000EDB2002BC9DA6B0083F0D5035DB2DBB288
:10893000002DC7DA5B0083F0D5035DB2DBB2002DFA
:10894000C5DA5B0083F0D5035DB2DBB2002DC3DA7C
:108950005B0083F0D5035DB2DBB2002DC1DA5B00B2
:1089600083F0D5035DB2DBB2BEE70D4D402784F83E
:10897000A730A5F1440684F8A8300FCE0FC50FCE5E
:108980000FC50FCE0FC596E80F0085E80F0084F8DD
:10899000EC70F0BC704700BFC83E7BEAA02101200C
:1089A0004C22012038B50D460446FF2100682A46B6
:1089B0005FF0AEFE22682A44226038BD02680E21B4
:1089C00070B5561C7F250024066015700268551C82
:1089D00005601470FFF7E6FF012070BD30B53B4C19
:1089E00085B094F8ED30012B01D005B030BD94F87E
:1089F000EE00022826D0A0F10100B0FA80F0400974
:108A000048B36368002BF0D1D4F8F020002AECD0F2
:108A100094F83400032594F82D10002892F90400EE
:108A200001954FF4614214BF0825002500921A46B3
:108A3000002908BF45F00105202102952CF096FD84
:108A40006060D2E794F82C303BBB214B1868C0F330
:108A500080000028D5D16268002AC6D0D4F8F8304A
:108A600093421FD0D4F804319A4224D0D4F8103164
:108A70009A4216D0D4F81C319A421ED0D4F828312C
:108A80009A421CD0D4F834319A421AD0D4F84031EA
:108A90009A4218D000236360A7E7102033F068F8EB
:108AA000AEE7022000EB4000002104EB8003D1621E
:108AB000C3E93E11EEE70120F4E70320F2E70420CA
:108AC000F0E70520EEE70620ECE700BFA02101203B
:108AD0000000002070B51C4E632200211B4D96F84B
:108AE000500148F087FDB6F87431194E0446333B07
:108AF0000922002186FB0360DB17C3EB201048F03E
:108B000079FD6421AA68C0F1090301FB03409107C4
:108B100084B202D504F57A74A4B2D20702D504F562
:108B2000FA64A4B22B685B0701D4204670BD1520FF
:108B300033F01EF80028F8D06B6813F4016FF4D1FD
:108B400004F57A64A4B2F0E7A0210120000000201F
:108B50001F85EB51F8B5224C94F88011621892F8F9
:108B60008421002A3AD000231E4D4A1C0133A5FB64
:108B70000261490801EBC101511A621892F884217F
:108B80000AB1092BF1D1CBB284F8803102680C26EE
:108B90000025571C076001EB41071670026801EBC6
:108BA0008701561C066015700D2205680E4E6F1C5D
:108BB000314407602B704DF08BFC94F8801101203C
:108BC000084B0A182144A3FB025381F88401C340D7
:108BD00003EBC303D31A84F88031F8BD0B46D5E705
:108BE000A0210120398EE338302301202DE9F04700
:108BF000754C82B0E56900AFD5E900535B1B002BD3
:108C000040F3A080002384F81832704D4FF0000C20
:108C1000A5F1140205F1800305F5C07E2561164615
:108C2000C4F80852C4F80C52C4F81CE0C4E9053278
:108C3000C4E9E733421800F10109C4E9029203785C
:108C40005909012940F0868003F00F0813F0100342
:108C500011D1BCF1000F00F0968094F8AD130131F2
:108C600001F00F0141457ED01846083784F81832CC
:108C7000BD46BDE8F087821CC31C25694FF0000C7F
:108C8000A2604278A3608078AB1835604240736080
:108C900084F8181284F8AC233081A6F80CC0D4E90B
:108CA0000292A2EB0902A3EB050AD5B25FFA8AFA97
:108CB000EB1DAA4503F4FC73ADEB030D68D25246DD
:108CC000494668465FF028FB09EB0A0352463046E6
:108CD0006946A3604DF0FCFB2369306894F8AC232F
:108CE0008342C6E9003009D001333360984213F85B
:108CF000011C82EA0102F7D184F8AC23A3681B7837
:108D0000934233D12169002370603A1D3160E169DB
:108D100060690B8148608B81A06984F818327B60A0
:108D200035F080FA013047D07B680BB100209847BE
:108D3000E3690120616908371A68C3E90012BD467A
:108D4000BDE8F08794F818C2BCF1000F3FF45DAFA6
:108D5000A6696FE700210846FFF7BCFC0120083731
:108D6000BD46BDE8F087D6E900539AE70023B6F97F
:108D70000810012084F81832FFF7ACFC01200837F6
:108D8000BD46BDE8F08760460837BD46BDE8F087C0
:108D90002A46494668465FF0BFFA09EB05033046AC
:108DA0002A466946A3604DF093FB0020083784F8FB
:108DB000AD83BD46BDE8F087E26902211368581C07
:108DC00010601970B0E700BFA0210120BC23012072
:108DD0002DE9F04F324D83B0324C1F46B5F9AE133A
:108DE000B5F8B4C384FB0164C9171646B5F8B0A33F
:108DF000C1EBA4018CB2A44518D1D5F8B8234FF02B
:108E0000000CD5F8BC13B6EB0208DFF89CB0B5F83F
:108E1000C02363EB0109CC4508BFC34534BF012320
:108E20000023524518BF43F00103A3B30368342164
:108E30000022019003F1010CC0F800C01970214616
:108E4000036803F1010CC0F800C01A704DF06EFB0E
:108E5000514601984DF06AFB47F6FF7101984DF0BD
:108E600065FB47F6FF7101984DF060FB47F6FF7117
:108E700001984DF05BFB47F6FF7101984DF056FBF2
:108E800001980221FFF78EFD0123A5F8B443A5F850
:108E9000C0A3C5E9EE67184603B0BDE8F08F00BF78
:108EA000A02101206766666680841E00604AD36840
:108EB0002DE9F041054613F0800000F09B8090689A
:108EC00010F0020000F09680DFF874E19EF8501177
:108ED000052940F29380632900F28E80002089B238
:108EE000544F0646A7FB013CC3B20C4601304FEA83
:108EF000DC0C9A00092C0CEB8C03A1EB43031FFA4A
:108F00008CF19BB203FA02F346EA0306EAD8F6B202
:108F1000DEF85C31484AD91782FB0323C1EB633387
:108F200099B2002900F082800024DFF808C12046B1
:108F3000ACFB0138E3B20F4601344FEAD8089A007F
:108F4000092F08EB8803A1EB43031FFA88F19BB2BA
:108F500003FA02F340EA0300EAD8C4B24FF4F36222
:108F6000BEF86C31354942F20F7713FB02F381FBF7
:108F70000312D917C1EBA21189B2B94241D8D1B1BC
:108F80000020DFF8B0E00746AEFB0138C3B28C46E4
:108F900001304FEAD8089A00BCF1090F08EB8803AA
:108FA000A1EB43031FFA88F19BB203FA02F347EAED
:108FB0000307E9D8B9B22B68172000225F1C2F6085
:108FC000187028462B685F1C2F601A704DF0AEFA9F
:108FD0004FF0FF3128464DF093FA2B6828460621C2
:108FE0005A1C2A601E702B685A1C2A601C70FFF7DE
:108FF000D9FC0120BDE8F081992689E70020BDE871
:10900000F0810020DFF82CC00146ACFB0732D2080B
:1090100002EB8203A7EB430397B29BB28340043079
:10902000102841EA0301F0D189B2C4E70C4695E764
:1090300000000020CDCCCCCC89B5F814D34D621003
:10904000A0210120C64AD3682DE9F04F814613F0D4
:10905000800083B000F07781906810F0020000F08B
:109060007281DFF81CA39AF85031052B40F272810F
:10907000DAF85431BB4C002B0093BB48B8BF5B42BD
:10908000BA49A4FB0352920D00FB023302EB8202A9
:10909000C3EB031302EB82029B0084FB0354DD1736
:1090A000C5EBA45500FB053305EB820581FB0321CD
:1090B000ADB2DB17C3EBA111C5B10020AC4F044624
:1090C000A7FB053CC3B22E4601304FEADC0C9A00E8
:1090D000092E0CEB8C03A5EB43031FFA8CF59BB216
:1090E00003FA02F344EA0304EAD8250489B2C1B1C1
:1090F00000209F4F0446A7FB013CC3B20E4601303F
:109100004FEADC0C9A00092E0CEB8C03A1EB430315
:109110001FFA8CF19BB203FA02F344EA0304EAD883
:109120002543DAF858B18F4C8BEAEB738E488F4A9F
:10913000A3EBEB73A4FB0361890D00FB013301EB8F
:109140008101C3EB031301EB81019B0084FB0364EA
:10915000DE17C6EBA45600FB063306EB810682FB46
:109160000312B6B2DB17C3EBA212CEB10021804FBF
:109170000846A7FB063ECBB2344601314FEADE0E6D
:109180004FEA830C092C0EEB8E03A6EB43031FFA68
:109190008EF69BB203FA0CF340EA0300E9D806040A
:1091A00092B2CAB10021724F0846A7FB023ECBB271
:1091B000144601314FEADE0E4FEA830C092C0EEB08
:1091C0008E03A2EB43031FFA8EF29BB203FA0CF359
:1091D00040EA0300E9D80643DAF85C31644A002B20
:1091E00018460193B8BF5842624C6349A2FB003055
:1091F000030AA4FB0343DB0901FB03F1C1EBD0012C
:1092000089B2C1B1002496462746AEFB013CE3B2C9
:109210000A4601344FEADC0C9800092A0CEB8C0357
:10922000A1EB43031FFA8CF19BB203FA00F347EA68
:109230000307EAD8B9B2BAF86E81B8F1000F1AD0B4
:109240000024DFF82CE12746AEFB083CE3B242469F
:1092500001344FEADC0C9800092A0CEB8C03A8EBD4
:1092600043031FFA8CF89BB203FA00F347EA0307A3
:10927000EAD81FFA87F8BAF874313D4AA2FB03070F
:10928000FF08632F28BF6327092B67D94FF0000C15
:1092900092466046AAFB073E5FFA8CF33A460CF111
:1092A000010C4FEADE0E9C00092A0EEB8E03A7EBA1
:1092B00043031FFA8EF79BB203FA04F340EA03005C
:1092C000E8D8C4B2009B019A002BCCBF39233823C5
:1092D000BBF1000F4FEA226738DD27F07F07274AEE
:1092E0003B43934543F00207C8BF43F00607D9F854
:1092F00000301620002203F1010CC9F800C01870DC
:109300004846D9F8003003F1010CC9F800C01A70C2
:109310004DF00CF9294648464DF0F2F831464846E2
:109320004DF0EEF8484641464DF000F9D9F80030CE
:1093300001201A18C9F800201C70D9F800301A183A
:10934000C9F800201F7003B0BDE8F08F27F07F0739
:109350001F43CCE7002003B0BDE8F08F0024B1E745
:10936000000000206BCA5F6B806967FFD34D6210FD
:10937000CDCCCCCCC55A7C0AA0860100FFC99A3B53
:10938000A0210120036800224FF6FF7170B57E25F1
:109390005E1C044606601D7003685D1C05601A7043
:1093A0004DF0A0F80D4B93F8323083B126F0C6FF94
:1093B000014620464DF096F8204647F6FF714DF0E5
:1093C00091F820460821FFF7EDFA012070BD26F044
:1093D000CBFF014620464DF085F8EDE7A0210120A6
:1093E000F0B5334D334FD5E904322DED028BC01A61
:1093F00083B09FED318A61EB020158F0F9FD07EE71
:10940000900AB7F82C6427EE888A32F0F1FC002825
:1094100048D1BCEEC88A18EE103A9E4204D2012010
:1094200003B0BDEC028BF0BDB5F9263007EE906AB3
:10943000B8EEC88ADFED210A02EE103AB7F82634FA
:10944000B8EE671A044601EE903AB8EEC22AB0EEC2
:10945000480AF8EE611A8DED011A4EF04BF897F8B4
:109460003434FDEEC07AB5F9222001EE903AB0EE28
:10947000480A02EE102A9DED011A17EE903AF8EE16
:10948000611AB8EEC22ADFED0D0AEB844EF032F815
:10949000FCEEC07A204617EE903A6B7603B0BDEC36
:1094A000028BF0BD032003B0BDEC028BF0BD00BF0A
:1094B00000000020A02101206F12833A000000006C
:1094C000154BDB68C3F3022310B4C3F107041A1D64
:1094D000042C28BF0424062A4FF0FF328CBF033B24
:1094E0000023A240002821EA020101FA03F108DB6F
:1094F00009010A4BC9B2034483F800135DF8044B19
:10950000704700F00F000901054BC9B203441976FA
:109510005DF8044B704700BF00ED00E000E100E0A3
:10952000FCEC00E038B50D4B0D4A1B68A2FB032391
:109530009B09013BB3F1807F09D20A4AF0250A4C0E
:1095400000200721536084F82350906011600021AF
:109550004FF0FF30FFF7B4FF002038BD00000120BE
:10956000D34D621010E000E000ED00E0334A00232C
:10957000334910B4C2F854344CF25034D2F8580481
:1095800004E0D2F858341B1AA34210D8CB68DB038E
:10959000F7D4CC6814F4F9740DD1C86810F0010048
:1095A00002D001232046CB605DF8044B70470320B6
:1095B0005DF8044B7047CB68990705D5D2F8543451
:1095C00043F02003C2F854341D4BDB68DB0605D59D
:1095D000D2F8543443F01003C2F85434184BDB680B
:1095E0009C0605D5D2F8543443F00803C2F854342D
:1095F000134BDB68580605D5D2F8543443F0040306
:10960000C2F854340E4BDB68190605D5D2F8543431
:1096100043F00203C2F85434094BDB68DB0505D57F
:10962000D2F8543443F04003C2F85434044B4FF49E
:10963000F97201205DF8044BDA607047A021012027
:10964000003C024070B40D4D0646046804E0D5F8B5
:1096500058349B1A0A2B06D8A36931EA0303F6D1C2
:10966000002070BC704700232022032086F8412090
:1096700086F8403086F8423070BC7047A021012047
:1096800070B41C4D0646046804E0D5F85824521AFC
:109690000A2A25D8A36913F02003F6D0102220232C
:1096A000E261E361A3699A0701D50023A362A3697C
:1096B000DB0710D5636804250F4A202101201340E1
:1096C00000226360756486F8402086F8411086F8B1
:1096D000422070BC7047A36943F00103A361E9E72E
:1096E0002022032086F8403086F8412086F8423058
:1096F00070BC7047A021012000E800FE70B5134E39
:1097000004460D460AE09B69DB0602D5FFF7B8FF69
:10971000C8B9D6F858345B1B0A2B07D823682946EA
:1097200020469A699207EED5002070BD636C202117
:10973000002203200B4384F84020636484F8411026
:1097400084F8422070BD012070BD00BFA02101201F
:1097500070B5134E04460D460AE09B69DB0602D540
:10976000FFF78EFFC8B9D6F858345B1B0A2B07D811
:109770002368294620469A699206EED5002070BDDE
:10978000636C2021002203200B4384F84020636493
:1097900084F8411084F8422070BD012070BD00BFE4
:1097A000A021012000F01F0240090123032803FA31
:1097B00002F304D0042807D002280AD07047074AD1
:1097C000116C0B4313647047044A116B0B43136312
:1097D0007047024A516C0B43536470470038024093
:1097E00003681B6810B50446587910B9987978B9A0
:1097F00010BD40B20321FFF763FE23681B6893F995
:10980000050056F02BFF23681B6898790028EFD0DD
:1098100040B20321FFF754FE23681B68BDE81040E7
:1098200093F9060056F01ABF10B40A4C00232246E2
:10983000013314320B2B09D011798142F8D103EB9B
:10984000830304EB83005DF8044B704700205DF850
:10985000044B7047808A06082DE9F047041E0D4628
:1098600012DB092C26DC0B46814A82480021A0FB32
:1098700004605970C00800EB8000A4EB4000125C4B
:1098800028461A70BDE8F08764422D23092C01F8A0
:10989000013B24D8764A774B0020A3FB0463487031
:1098A0002846DB0803EB8303A4EB4303D35C0B7074
:1098B000BDE8F0876F4B632CA3FB04264FEAD60666
:1098C00021DC0B466A4A6B49A1FB0601C90801EB82
:1098D0008101A6EB4101515C03F8011BC5E7654A14
:1098E000632CA2FB04364FEAD60637D8604A614B98
:1098F000A3FB0603DB0803EB8303A6EB4303D35C64
:1099000001F8013BC7E7A3FB0627B4F57A7F4FEACE
:10991000D7070DD20B46564A5649A1FB0701C90885
:1099200001EB8101A7EB4101515C03F8011BCAE780
:10993000A3FB072842F20F7294424FEAD80836D8A8
:109940000B464B4A4B49A1FB0801C90801EB8101B9
:10995000A8EB4101515C03F8011BDDE7A2FB0637D0
:10996000B4F57A7F4FEAD7070CD2414A414BA3FBAB
:109970000703DB0803EB8303A7EB4303D35C01F886
:10998000013BB4E7A2FB073942F20F739C424FEA56
:10999000D90921D8364A374BA3FB0903DB0803EB6F
:1099A0008303A9EB4303D35C01F8013BDEE7A3FB90
:1099B0000829314A94424FEAD90921D80B462C4A4A
:1099C0002C49A1FB0901C90801EB8101A9EB410167
:1099D000515C03F8011BB5E7A2FB093A264B9C42F8
:1099E0004FEADA0A21D8224A224BA3FB0A03DB08FA
:1099F00003EB8303AAEB4303D35C01F8013BCAE703
:109A0000A3FB09231D4A94424FEAD30A21D80B46EF
:109A10001849174AA1FB0A01C90801EB8101AAEB09
:109A20004101515C03F8011BCAE7A2FB0A38134B42
:109A30009C424FEAD80813D80E4B0D4AA3FB0803EB
:109A4000DB0803EB8303A8EB4303D35C01F8013B82
:109A5000CAE70A22BAFBF2F04CF090FA0346D7E7C5
:109A60000A22B8FBF2F04CF089FA0146E4E700BFA5
:109A7000ECFF0608CDCCCCCC9F8601003F420F0006
:109A80002DE9F0471D4688B0531C0F46039311780B
:109A9000002900F0D28000240646A0460BE0701C8E
:109AA00001D03046B8470134039A531C0393117810
:109AB000002900F0C3802529F1D1931CCDE903389A
:109AC00050782D2800F0AF804FF0000A302800F0C9
:109AD0009180A0F130034FF00009DBB2092B40F276
:109AE00096806C2835D0782800F2F480572827D942
:109AF000A0F15803202B00F2ED80DFE813F0050100
:109B0000EB00EB00EB00EB00EB00EB00EB00EB00FD
:109B1000EB00EB00DD00ED00EB00C400EB00EB0020
:109B2000EB00EB00EB00EB00EB00E600EB00EB00E2
:109B3000EB00EB00B600EB00A300EB00EB0005012F
:109B400000287BD0252840F0C580731CABD0252190
:109B5000A7E7039B5A1C039219787829A5D857299F
:109B600067D9A1F15803202B9FD801A050F823F00A
:109B7000E59C0008AB9A0008AB9A0008AB9A000875
:109B8000AB9A0008AB9A0008AB9A0008AB9A0008A1
:109B9000AB9A0008AB9A0008AB9A0008B99C000881
:109BA000FD9C0008AB9A0008879C0008AB9A00084F
:109BB000AB9A0008AB9A0008AB9A0008AB9A000871
:109BC000AB9A0008AB9A0008CD9C0008AB9A00083D
:109BD000AB9A0008AB9A0008AB9A00086B9C00088F
:109BE000AB9A0008459C0008AB9A0008AB9A0008A5
:109BF000E59C0008039B4FF0010903EB0902039267
:109C00001878A0F13003DBB2092B3FF66AAF04AA43
:109C100003A9FEF733FABAF1000F3FF462AF049BD9
:109C20005B4204935DE7D31C4FF0010A03939078E5
:109C30004CE719B1252988D037E70C46204608B0F3
:109C4000BDE8F08705A955F8040BFEF7D9F905AB77
:109C50003A464FF0FF3130460193CDF80090049B17
:109C60004CF026FD039A04441FE755F804CB3A460E
:109C7000049B4FF0FF313046CDE9008C4CF018FDCD
:109C8000039A044411E7073525F00705F5E80201BA
:109C900058F076F800EE100A05A84CF0FDF805AB78
:109CA0003A464FF0FF313046CDE90093049B4CF02B
:109CB000FFFC039A0444F8E6721C3FF4F4AE55F836
:109CC000041B3046C9B2B847EDE6039A55F8043B89
:109CD0001C60EAE6039AE8E605A955F8040B4CF087
:109CE00065F9B4E7A1F1580205AB102155F8040B52
:109CF000B2FA82F252094CF09FF9A8E705A955F88B
:109D0000040B4CF053F9A2E7A0F1580205AB102167
:109D100055F8040BB2FA82F252094CF08DF996E72D
:109D20002DE9F84F064640689146AA4F028A8846B8
:109D3000D6F80CB0C2F3021102F00F02DBF80430C7
:109D400007EB810107EB8202D1F8DC40D2F8FCA0DE
:109D500014F5803F00F09D803A19B4F1000C9E4943
:109D600092F81C5118BF4FF0010C591A5A5918BFDC
:109D7000012122F001025A5100297BD1BCF1000FD0
:109D800078D1964A00214FF0210C1160516091600A
:109D9000D1601161C2F814C05A5922F0F0525A51E0
:109DA0003F229A604379032B00F2BA81DFE803F087
:109DB0005F5C59020568403558463C4454F048FF02
:109DC0000A23ABF81C30D6F80CB0584654F040FFCC
:109DD000834B03219BF91400CBF80C30CBF81860AF
:109DE000FFF76EFB9BF9140056F038FCF26894F80C
:109DF0001C3152687B48D458D11820407A4C044317
:109E00007A48D4504C6944F0070C7468C1F814C007
:109E100052F803C02CF0C07C42F803C052F803C0D3
:109E20002CF4C00C42F803C0C1F80C808D604D6862
:109E3000284040EA09004860D15821F0F05141EA39
:109E40000A01D150A379326813F0040F6379506886
:109E50001F4497F8241117D055F07EFC0120BDE86F
:109E6000F88F05683C35A7E705683835A4E705682D
:109E70003435A1E75E4A9A1A18BF0122BCF1000FDF
:109E800017D1B2B95B4A7DE755F0C0FD0120BDE8AE
:109E9000F88F514A934228D0554A934282D1564B6B
:109EA0001A6942F480021A611A6922F480021A6166
:109EB00078E7B4F1010C18BF4FF0010CF9B9BCF10F
:109EC000000F1CD14D4A00214FF0210C1160516050
:109ED0009160D1601161C2F814C05A5922F0F05259
:109EE0005A514FF474629A605CE7434B1A6942F42A
:109EF00000121A611A6922F400121A6152E722B99B
:109F0000BCF1000F01D13E4ADDE7B4F1020C18BFED
:109F10004FF0010CA9B9BCF1000F12D1394A002150
:109F20004FF0210C116051609160D1601161C2F855
:109F300014C05A5922F0F0525A514FF47C129A60D0
:109F400030E722B9BCF1000F01D12F4AE7E7B4F1A5
:109F5000030C18BF4FF0010CA9B9BCF1000F12D1CE
:109F60002A4A00214FF0210C116051609160D160AC
:109F70001161C2F814C05A5922F0F0525A514FF0F0
:109F800074629A600EE722B9BCF1000F01D1204A39
:109F9000E7E7B4F1040C18BF4FF0010CA1B9BCF114
:109FA000000F11D11B4A00214FF0210C11605160AC
:109FB0009160D1601161C2F814C05A5922F0F05278
:109FC0005A513F22DA60EDE642BBBCF1000F25D1C9
:109FD000114AE8E7808A06080060024010600240EB
:109FE00041D105081F80FCFF405402000000FFFF24
:109FF00000640240106402400038024028600240C1
:10A0000028640240406002404064024058600240C0
:10A01000586402407060024070640240B4F1050C64
:10A0200018BF4FF0010CA9B9BCF1000F12D13D4A85
:10A0300000214FF0210C116051609160D1601161DD
:10A04000C2F814C05A5922F0F0525A514FF47462B7
:10A05000DA60A7E622B9BCF1000F01D1324AE7E786
:10A06000B4F1060C18BF4FF0010CA9B9BCF1000FF8
:10A0700012D12E4A00214FF0210C116051609160E5
:10A08000D1601161C2F814C05A5922F0F0525A51ED
:10A090004FF47C12DA6085E622B9BCF1000F01D1E1
:10A0A000234AE7E7234A934214D1072C12D1224ACC
:10A0B00000214FF0210C116051609160D16011615D
:10A0C000C2F814C05A5922F0F0525A514FF074623B
:10A0D000DA6067E6194A00214FF0210C11605160E7
:10A0E0009160D1601161C2F814C05A5922F0F05247
:10A0F0005A51002C3FF454AE012C3FF4F2AE022C26
:10A100003FF41BAF032C3FF43AAF042C3FF459AF9C
:10A11000052C9BD0062CBBD0072C7FF443AED5E793
:10A12000002549E68860024088640240A060024041
:10A13000A064024000600240B8600240B86402407F
:10A14000014B5860704700BF50280040014B5868D1
:10A15000704700BF502800400E48D0F8743610B544
:10A16000A3B190F86C4400F25C40D3F8042234B1FF
:10A1700000244023012151F087FA204610BD4FF4FE
:10A180000073012151F080FA204610BD02242046C0
:10A1900010BD00BFA02101202DE9F047BF4B0321D6
:10A1A000BF4C4FF0A04088B0402584F8491A1A6B84
:10A1B000C4F89006042042F00102C4F8940604F2A8
:10A1C0005C401A631A6B04F5D263C4F88C0A4FF42E
:10A1D000C05002F00102C4F88C360223C4F8A45621
:10A1E000029200250A220691029903A9C4F8A83612
:10A1F000C4F89C36C4F8C056C4F8A056C4F8B0568B
:10A20000C4F8AC56C4F8BC56C4F8B45605950792C9
:10A21000CDE90303A34856F00FF9D4F8BC36012B5F
:10A2200000F094819D4B062143205A6B42F080023E
:10A230005A635A6B02F080020092009A5A6C42F400
:10A2400080425A645B6C03F480430193019BFFF7E7
:10A2500037F9D4F890560822934B9A60AB68D4F83B
:10A26000A82623F00103D4F8A066012AAB6040F0D1
:10A270003981AA6B8D4B22F48032D4F8C416AA63BC
:10A280000129EA6803EA0203EB60EB6823F4401358
:10A29000EB6000F05681284655F0CAF8012E07D130
:10A2A000AB6843F00603AB60AB6843F02003AB60E0
:10A2B000D4F8903632200125DA6822F0C042DA6004
:10A2C000DA6842F08042DA6057F04EF8784A0021AE
:10A2D0001346084683F83810D987013183F839507E
:10A2E0000F2983F83B00D864C3E9100003F11C0375
:10A2F000F0D10021D4F89036084682F8F81101F127
:10A300004005D187013103EB850582F8F9010F295A
:10A3100082F8FB01C2F80C02C2E9800002F11C02C3
:10A320006860EAD19A6BD4F8BC6642F40012D4F8A3
:10A330009456D4F89CE6D4F8A0C6D4F8A816D4F85D
:10A34000AC769A635EB99A6B22F400129A631A682B
:10A3500042F040021A601A6842F080021A6000203F
:10A36000012903F50062C3F8000ED3F80008C3F812
:10A37000000800F0D1800329D3F8001838D041F04C
:10A380000301C3F800184FF484604A49186101E0E2
:10A39000013902D018698006FAD4102045491861A5
:10A3A00001E0013902D01869C006FAD400214FF04B
:10A3B000FF30116151619061D1610DB303F51060FF
:10A3C0004FF0904A4FF0FF098E4609E0C0F800E0D8
:10A3D0000131C0F810E0C0F808902030A94253D0F5
:10A3E000D0F80080B8F1000FF0DAC0F800A0EFE775
:10A3F000BEF1000FC5D041F00101C3F80018C2E75B
:10A400001169BCF1010F21F48071116175D0002038
:10A410006FF0804198615961BCF1000F03D19969D7
:10A4200041F01001996198692349014399611FB175
:10A43000996941F008019961012E03D198691F497A
:10A44000014399610120D4F8B416814284F8490A85
:10A4500069D05368032043F00203536056F084FF31
:10A46000D4F89036802200205A625A6A42F4800260
:10A470009A625A6A996A02EB114242F40002C3F8E6
:10A48000042108B0BDE8F087002003F530614FF0EB
:10A49000904A4FF0FF0986461CE000BF003802409A
:10A4A000A02101200000024000E100E0BFFFBDFF4D
:10A4B00030280120400D030000383C80040000409B
:10A4C000C1F800E00130C1F810E0C1F80890203177
:10A4D000A84295D0D1F80080B8F1000FF0DAC1F8A9
:10A4E00000A0EFE7EB68284643F04003EB6054F030
:10A4F0009FFF4FF48033AB63D0E61948002519491C
:10A5000010636FF08040D2F830C04CEA0101116353
:10A51000116B9D61586186E7D3F80018BEF1000FFA
:10A520007FF469AF2DE70020C4F8841A0E4984F83F
:10A530007C0A986940F000609861586D0143596544
:10A5400087E7EB6843F48013EB60A4E64FF40073F5
:10A5500003A906480393CDE9045555F06DFF61E664
:10A560000001800003000100030000100000024011
:10A57000037870B433B30246C0F10105531912F8E1
:10A58000014FDBB2002CF9D101335B00DAB20F4C82
:10A5900003250B8084F8902A84F8915A017879B1C8
:10A5A000022300265A1CE518023354FA82F285F879
:10A5B000901ADBB282F8906A10F8011F0029F1D1DD
:10A5C00070BC704702221346E1E700BFA0210120C2
:10A5D00030B5082483B00A4D012300220DF1070194
:10A5E000D5F8E40B47F072FC9DF80730FF2B04D040
:10A5F000013CF1D1204603B030BD012003B030BD95
:10A60000A0210120F0B40F4BC40800F0070700227E
:10A610001E5D03EBD005BE40F6B2C7F1080300276C
:10A620008B4228BF0B46C3F108049A40C91A46FA68
:10A6300004F415F8016F42EA0402EED11046F0BCB2
:10A64000704700BF702D0120F0B5154E83B00D4648
:10A650003378022B0ED14FEA102CC4B2114F0023D5
:10A66000012201A9386860444FF088F9012806D01A
:10A6700003B0F0BDC0F3D41C00F07F04EEE73378E4
:10A68000022B019B04D133F814302B6003B0F0BDD2
:10A6900053F8243023F070432B6003B0F0BD00BFAB
:10A6A0006060012060720120D0E9011310B48B4278
:10A6B00090F91A2038BF0B46511C83600AD0184B02
:10A6C00002F58172FF2103EB0212D3796FF30003CD
:10A6D000D371817690F91B305A1C14D003F5817226
:10A6E0000F4901EB0213DB79C3F34503012B14D9A6
:10A6F000013B03F03F0301EB0212FF24D17963F326
:10A700004601D171C4760022436A5DF8044B1146BC
:10A710004261426003614FF017B90023EBE700BFCD
:10A72000606001202DE9F043164685B0804608465A
:10A730004BF00AFE4FF47A720546002389463C240A
:10A7400057F09CFCB6F900C00746494628464FF42E
:10A750007A7200230CFB0477002557F08FFC4FF42E
:10A760007A7394B201A8C3FB07452B4622464BF0EF
:10A770002FFD404B93F8EA3B012B2FD0022B10D139
:10A780009DF80670FB1E082B0BD83B1F062B1BD910
:10A790003946BDF804004BF0AFFC032F36D00B2F29
:10A7A00041D022462B4640464BF012FD05B0BDE895
:10A7B000F083032F55D00A2FF3D19DF80870B7FA14
:10A7C00087F77F09002FECD02B4B0022E418338849
:10A7D00003F13C0342EB05053380E2E79DF8067088
:10A7E000FB1E072BDDD83B1F052BEDD93946BDF8E5
:10A7F00004004BF081FC9DF807309842D9D0033F0C
:10A8000018BF0127002FDFD1CBE707380E28FCDC6B
:10A810009DF80730834212D0CCBF01270027002FBC
:10A82000D2D1BEE707380728FCDC9DF80730834209
:10A830000ED0B4BF01270027002FC5D1B1E79DF886
:10A840000870012F94BF00270127002FBCD1A8E773
:10A850009DF80870012F8CBF00270127002FB3D16E
:10A860009FE79DF80870003F18BF0127002FABD16C
:10A8700097E700BFA021012080EE3600002170B5CF
:10A880000124084648F0D0FC002120464FF406760B
:10A8900048F0CAFC0E4B0F4D012118461BB1DE805B
:10A8A0001C7246F0C1FE032C08D055F8243001215B
:10A8B00001341846002BF2D1032CF6D100210846B2
:10A8C00048F0B2FC00210120BDE8704048F0ACBC6B
:10A8D000342E0120A88B0608804BB3FBF2F399427B
:10A8E0000DD300234FF07E52436002608360C3604B
:10A8F00003610023836143610362C361704707EE14
:10A90000902A9FED777AF8EE676A07EE901AF8EED4
:10A91000677A66EE876A66EEA76AFDEEE67A17EE5C
:10A92000903A2033402B00F2CA80DFED6E7AF4EECD
:10A93000E76AF0EE667AF1EE10FA0CDDDFED6A5AA6
:10A940009FED6A6AB0EE677A77EEE57AB4EEC67A82
:10A95000F1EE10FAF6DC9FED667AF4EEC77AF1EECE
:10A9600010FA0CD5DFED605A9FED626AB0EE677A9F
:10A9700077EEA57AB4EEC67AF1EE10FAF6D49FED32
:10A980005E7AF4EEC77AF1EE10FA00F390809FED54
:10A990005B7AF4EEC77AF1EE10FA03D59FED547AA4
:10A9A00077EE677A27EEA76ADFED555ADFED554A55
:10A9B000B6EE007A9FED545AE6EE254ADFED535A83
:10A9C00027EE864AA6EE245AE6EE055AE4EE257AEC
:10A9D00027EE877A9FED486A76EE867AFDEEE75A93
:10A9E00015EE903A2033402B66D8F4EEC66AF1EEAD
:10A9F00010FA0CDDDFED3C5A9FED3C6AF0EE676A21
:10AA000077EEE57AF4EEC66AF1EE10FAF6DCDFEDE9
:10AA1000386AF4EEE67AF1EE10FA0CD5DFED325A30
:10AA20009FED346AF0EE676A77EEA57AF4EEC66AB7
:10AA3000F1EE10FAF6D4DFED306AF4EEE67AF1EEDC
:10AA400010FA3FDDDFED276A76EEE77A67EEA76A58
:10AA50009FED2B6A9FED2B5AF8EE004ADFED2A5A44
:10AA6000A6EE865A9FED296A27EEA64AE6EE855A9B
:10AA7000A6EEA56AE4EE067A67EEA47AC7EE006A4F
:10AA8000B7EE006A76EE865A76EE666A86EE257A2C
:10AA900067EE277A80ED007A66EE876A80ED027AAB
:10AAA000C0ED017AC0ED037AC0ED046A21E79FEDA5
:10AAB0000D7A77EE677A75E7DFED157ADEE79FEDC1
:10AAC000147A87E7DFED0D6AF4EEE67AF1EE10FA1C
:10AAD000BCD5DFED076A76EEE77AB7E720A107007D
:10AAE00027D4D236DB0F4940DB0FC940E4CB1641F7
:10AAF000DB0F49C0E4CB16C1DB0FC93FDB0FC9BF79
:10AB00009A7C2E36FAAF4FB93587083CA4AA2ABEE4
:10AB1000000000000023024A036042608360704727
:10AB200083F9223E0021034A034B016042608360A7
:10AB3000704700BF5B128B3A6F12033B6428034BD4
:10AB4000B8BF6420C3F8BC03704700BF00000120F9
:10AB5000034B64289B6AB8BF6420D860704700BF6D
:10AB6000000000202DE9F04790B00E4607469146C0
:10AB700001A83C2200219A461A9DDDE918485DF0A3
:10AB8000C7FD2E4B8DF80460CDF834800293002E63
:10AB90004FD0B31E012B4ED9042E14BF0022032226
:10ABA000DFF89C8001238DF80520D8F82C2F039422
:10ABB00014448DF83130CDE905570494B9F1000FF4
:10ABC0002CD198F8323F0022012B0E921BD898F816
:10ABD00031CF013301ACCCEB0C1588F8323FBCFA15
:10ABE0008CFC08EB85054FEA5C1C05F634750FCC30
:10ABF0000FC50FCC0FC50FCC0FC594E8070085E833
:10AC0000070088F831CF3B6883B153464A46314646
:10AC1000384610B0BDE8F04729F058BE52464946C4
:10AC200007A85DF079FB8DF830A0CAE710B0BDE849
:10AC3000F0870522B4E70222B2E700BF8C30012082
:10AC4000A021012000230360704700BFB4EEE00A9A
:10AC5000F1EE10FA04D4F7EE007A80FE670A70472E
:10AC6000B0EE600A704700BF074B4FF47871074899
:10AC7000D3F8DC2FC3F8CC0F931E223223F8021F27
:10AC80009342FBD1704700BFA021012081BE020882
:10AC9000F0B5254A41F228014FF478701125234C74
:10ACA00002F6E873505041F60B26214802F57B610D
:10ACB00082F8B05F4FF47875C2F8CC4F4FF47874D7
:10ACC000002785B0C2F8D00F4020C3E90045C3E992
:10ACD0000245C3E90445C3E90645C3E90845C3E99C
:10ACE0000A45C3E90C45C3E90E45C1E902672AF0EC
:10ACF00043FEB8B10F4C0325002390F9040014F86B
:10AD0000C52C40210195012A0B4A0CBF08251D4680
:10AD100000920295094A2AF029FC44F8A40C003854
:10AD200018BF012005B0F0BDA021012049CA0208CA
:10AD300041CB020898320120A06806003DDD0208E0
:10AD40000D4B70B40D4CA34203D311E00C33A3425E
:10AD50000ED25A798242F9D1DA798A42F6D11A684A
:10AD60001E791579AE42F1D115689D42EED100E011
:10AD70000022104670BC7047E8010008500300082C
:10AD800064281C4B28BF642000EB800070B546008F
:10AD9000A3FB06235D095B0922D0002401349F2018
:10ADA00048F07AFBE3B29D42F8D80A2D00D170BD7D
:10ADB0001148C5EB85136C1CA0FB0620C5EB830373
:10ADC000000966381844C0B248F066FB092DEED081
:10ADD00001349A2048F060FBE4B20A2CF8D170BD2F
:10ADE00005480124A0FB063000096638C0B248F0CF
:10ADF00053FBEDE71F85EB51CDCCCCCCF0B41A4F13
:10AE000017F8A02C062A2DD80C21531C01FB027226
:10AE1000DBB2983A52F8041CCC070DD501420BD096
:10AE200092F900600021114C94F900500C34B542A5
:10AE30000DD001310729F7D101330C32DBB2082BD9
:10AE4000E8D10723002007F8A03CF0BC704701EBD5
:10AE50004101074A07F8A03C02EB8101F0BCD1F8A0
:10AE6000F80070470020F0E798320120942201207A
:10AE7000A02101200144884219D030B4441E4D1E47
:10AE8000002041F2210114F8012F082380EA02205A
:10AE900010F4004F4FEA400281EA40000CBF90B22C
:10AEA00080B2013BF4D1AC42EDD130BC7047002000
:10AEB000704700BF344870B410F8443CA3F130012F
:10AEC000092957D8A0F144043538224612F8015F09
:10AED000A5F13001092904D88242F7D1002070BCC5
:10AEE0007047141B022C4BDD2848002101E010F8AC
:10AEF000013B01EB8101161A044603EB4103022ECC
:10AF0000A3F1300303F0FF01F1DC214B03FB01F15E
:10AF1000A2424FF000030ED903EB830314F8016B38
:10AF20005B00A242A3F13003334403F0FF03F3D1EB
:10AF3000184800FB03F32E2D06D01748A0FB03236F
:10AF400070BC01EB9300704701320425002404EB30
:10AF500084041078013D303864000928A4B22044EC
:10AF600001D8013284B215F0FF05F0D1642202FB52
:10AF70000433E2E700211D46A0F144020B46DAE764
:10AF80000021064CC4E700BF983201205532012051
:10AF90008096980040420F00ABAAAAAA5432012022
:10AFA0009B1A00FB03F393FBF1F18818704700BF75
:10AFB000084B53E90D0253F82C3C824202DB114648
:10AFC00002460846984204DD9A42B8BF1A46104627
:10AFD0007047704798320120124A30B452E90A0390
:10AFE00052E90841834252F8182C02DB1D46034601
:10AFF00028468A4202DB15460A4629468842A8BFEF
:10B0000008469342B8BF1346A04202DC22460446DB
:10B010001046834203DAA342B8BF2346184630BC29
:10B02000704700BF983201200B6810B414681B1BD6
:10B03000036054684B681B1B5DF8044B43608B68CE
:10B0400092689B1A836070472DE9F043DFF8A49063
:10B0500087B04FF0000C884609F106044E4609F10E
:10B0600060034F46A0EB0C0294F800E0002AA0EB2E
:10B070000E05B8BF5242002DB8BF6D42954202DAAC
:10B080004FFA8EFC27460634A342EBD109F15A0150
:10B090007B88002203E0B14217D016F8062F6245E4
:10B0A0001C46F8D1A8EB0302B6F802E0002AA8EB90
:10B0B0000E05B8BF5242002DB8BF6D42AA42EADD6C
:10B0C000B142734637467446E7D17A7903463D79F3
:10B0D000032102940120CDF8008004923A78039570
:10B0E0000192034A4CF058FC384607B0BDE8F083A3
:10B0F00014000708B48B060830B5046885B0E4690D
:10B100002CB10DF10F050095A04705B030BD2046CC
:10B1100005B030BD38B52321094C0A4D55F8080C4F
:10B120004AF0EEF914F8011F0029F7D106484AF059
:10B1300021FA15F8043C13B1012305F8033C38BD8E
:10B1400050000708983201205C0007082DE9F04FF5
:10B150009946D34389B006466FEA090BDB0F0025F9
:10B1600005924FEADB7B07910693059BAB4207D024
:10B17000069B2BB10135042DF7D109B0BDE8F08F46
:10B18000EE23244A0799002403FB05F3224F01EB29
:10B19000030802EB030AA1452B463A46304602D08B
:10B1A000BBF1000F31D13AF814C038F814100CF08C
:10B1B0001F0E1CF4006FA1EB0C01CCF3441CCDF866
:10B1C00004E018BF4FF0560EB1FA81F108BF4FF0FE
:10B1D000480E00944909CDE902CE049142F0C4FF23
:10B1E00038F81430049913F4006FC3F3441203F0D9
:10B1F0001F0C009414BF562048202B460390304665
:10B20000CDE901C23A4642F0C9FF0134772CC2D1E0
:10B21000B0E700BF983201206C000708404B414A5C
:10B220002DE9F04F93F8F86C89463F4D8BB0DFF86D
:10B2300000B18046002E08BF2A464D46002693F9ED
:10B24000F91C3A4803F5EB6441F02AFEB9F1000F0E
:10B2500047D02F782378D5F804C0BB4243D0D5E936
:10B2600002E0002195F816A033465A460991CDF820
:10B270001CA0B5F914A0CDF818A0B5F912A0CDF80E
:10B2800014A0B5F910A00097CDE9030ACDE901CECD
:10B29000404642F069FF0999A07D3346B4F914A0F5
:10B2A0000136B4F912E05A46B4F910C01835E7680F
:10B2B00007904046CDF818A0D4F808A0CDF814E0C7
:10B2C000D4F804E0CDF810C014F818CBCDE902A7EB
:10B2D000CDE900CE42F062FF3C2EB7D10BB0BDE805
:10B2E000F08F4946D8E76368D5F808E0634501D098
:10B2F000E868B6E7A368E8687345B2D1E3688342BB
:10B30000AFD122692B699A42ABD162696B6922F095
:10B310007F4223F07F439A42A3D10121A2E700BFDD
:10B3200098320120D4050708880007088C00070818
:10B330009C00070870B51F4E04460D4696F8E4368B
:10B340002DED028B7BB3D6F8EC2606F5DD63D6F83F
:10B35000F01693ED008A0260D6F8F426C0E90112D7
:10B36000DFED158A95ED000A80EE280A59F0DAFC27
:10B37000236895ED010A184428EE288A206080EEA3
:10B38000080A59F0CFFC636895ED020A1844606022
:10B3900059F0C8FCA368024696F8E4061344BDECD5
:10B3A000028BA36070BDB7EE008A8360C0E90033F2
:10B3B000D6E700BF983201202C7D8E3FF0B4224C9E
:10B3C00094F8E45635B9002303604360836028464F
:10B3D000F0BC70470B6804F5DD66D4F8EC76012A02
:10B3E000D6ED007AA3EB0703D4F8F0669FED176A59
:10B3F00007EE103A4B6867EE866AA3EB0603B8EED9
:10B40000C77A07EE903A27EE067AF8EEE77A80EDF3
:10B41000007A67EEA67AC0ED017A0CD0D4F8F42653
:10B420008B689B1A07EE903AF8EEE77AC0ED027A45
:10B430002846F0BC7047D1ED027AF8EEE77AC0ED0D
:10B44000027A2846F0BC7047983201202C7D8E3F4E
:10B450001A4A2DE9F003D46A194D002CD5F8B033FF
:10B4600003600DDD3032002305F56C7601E09C426F
:10B4700006D052F8041B0133B142F8D1012200E09A
:10B480000022D5F8BC330271836095F8C033437154
:10B49000D5F8D813D5E9F832D5E9FA675B0954092C
:10B4A00043EAC263D5E9FC89C0E90467C0E908340E
:10B4B000C0E906898162BDE8F00370470000002002
:10B4C000000001200C46054608B529F079FE20460B
:10B4D00029F076FE0021084647F0A6FE0021012053
:10B4E00047F0A2FE284646F005F8C0B9204646F0CF
:10B4F00001F80028F6D00121002047F095FE2046F3
:10B5000045F0F0FF0146284646F01AF800210846AB
:10B5100047F08AFE284645F0EDFF0028E6D00121DD
:10B52000002047F081FE284645F0DCFF014620461A
:10B5300046F006F80021084647F076FED6E700BF41
:10B54000F0B5002289B0DFF898C004AF13460A6056
:10B550004A603E468A60CA600A610268C2F385504A
:10B5600040FA03F43546E40704D513F80C4005F817
:10B57000014B2E460133062BF2D1174DC2F30324A3
:10B580000023C2F305302C4405F5D27C33700DF155
:10B59000190694F89C418DF8184040FA03F435469A
:10B5A000E40704D513F80C4005F8014B2E4601338F
:10B5B000062BF2D10023C2F3834506AC0846337054
:10B5C00002F00F030549C2F303120097CDE90145CC
:10B5D0004AF0BAFF09B0F0BD808A0608BC0007082F
:10B5E000148C0608014B186B704700BF0000012047
:10B5F000014BD3F8C000704700000120014B986F49
:10B60000704700BF00000120414A10B492F8BD30DD
:10B61000D2F89C10023BD2E92840062B74D8DFE810
:10B6200003F05A5C605006550400644249424042AF
:10B6300080EAE0739FED376AA3EBE07307EE103A00
:10B6400084EAE473A3EBE473B8EEC77A06EE903AAB
:10B6500081EAE17327EE066AF8EEE66AA3EBE1738E
:10B6600007EE903AB4EEE66AF8EEE77AF1EE10FAF9
:10B6700004DDB4EEE76AF1EE10FA34DC9FED256AE2
:10B6800026EE866AB4EE467AF1EE10FA04D5B4EEF0
:10B69000676AF1EE10FA2DDC9FED1E6A67EE867A7E
:10B6A000B4EE677AF1EE10FA2BD5F4EE676AF1EE9C
:10B6B00010FA26D50029CCBF042005205DF8044BE4
:10B6C00070474B42404221461C46B1E7634240422C
:10B6D0000C461946ACE74942AAE74B4261421C4678
:10B6E000A6E76442A4E700285DF8044BCCBF002025
:10B6F00001207047002C5DF8044BCCBF02200320D2
:10B7000070474FF0FF30D9E723460C4619468FE7C4
:10B7100000000020ABAA2A3F30B5284C83B0DFEDF3
:10B72000286A14F8B83CD4F8505D07EE903A14F843
:10B73000B73CF8EEE77A07EE103A94F82C3DB8EEF5
:10B74000C77A67EEA67A04EB4302013327EE267A26
:10B75000B2F8301DFDEEE77AA2F8300D401A03F082
:10B760000F0317EE902AFDEEC77A284484F82C3D8B
:10B7700017EE901AC4F8500D00098A4211DC1146E8
:10B7800080B217EE902A40F2FF35002300954BF06F
:10B79000BFFE2A46002145F02DFFA4F8540D03B04A
:10B7A00030BD80B28142D4BF401A0020824202DB09
:10B7B000101A80B2E7E70020E5E700BF98320120C9
:10B7C00014AE23412DE9F047084C94F899322DED41
:10B7D000048B82B0062B00F20884DFE813F05505D5
:10B7E0006C0418040900CC0012067A040000002042
:10B7F00094EDCE7A0423D4EDD07AD4EDD26A67EEFC
:10B80000072A27EEA73A94EDD47AD4EDD67A66EEDD
:10B81000A63AD4EDCD1A27EE074A94EDCF2A67EE6B
:10B82000A74AD4EDD86AE1EEA12A94EDDA7AA2EE25
:10B83000023AD4EDDC7A26EEA65A94EDD11A67EEE0
:10B84000075AD4EDD31A27EEA76A94EDD52AE1EE74
:10B85000013AD4EDDE6AA1EEA14A94EDE07AE2EE7F
:10B86000024AD4EDE27A66EEA66A94EDD71A27EE84
:10B87000077AD4EDD91A67EEA77A94EDDB2AA1EE08
:10B88000015AE1EEA15A94EDDD1AA2EE026AD4ED5E
:10B89000DF1A94EDE12AE1EE016AA1EEA17AE2EE6F
:10B8A000027AB1EEE22AF1EEC32AB1EEE33AF1EE0A
:10B8B000C43A84EDAD2AB1EEE44AC4EDAE2AF1EE0D
:10B8C000C54A84EDAF3AB1EEE55AC4EDB03AF1EEB7
:10B8D000C65A84EDB14AB1EEE66AC4EDB24AF1EE61
:10B8E000C76A84EDB35AB1EEE77AC4EDB45A84ED79
:10B8F000B56AC4EDB66A84EDB77A94EDE47AD4ED16
:10B90000E67A67EE075AD4EDE86A27EEA76A94ED67
:10B91000EA7AD4EDEC7A66EEA66AD4EDE34A27EE35
:10B92000077A94EDE55A67EEA77AE4EEA45A94ED0F
:10B93000E74AA5EE056AD4EDE94A94EDEB5AE4EE48
:10B94000046AA4EEA47A84F89932E5EE057AB1EEA1
:10B95000E55AF1EEC65AB1EEE66AF1EEC76A84ED39
:10B96000B85AB1EEE77AC4EDB95A84EDBA6AC4EDBB
:10B97000BB6A84EDBC7A94F832240F2A00F36E85FA
:10B9800000231B4D02F16D019FED1A7A1E461846E9
:10B9900005EB8101D1ED007A38B951ED016AF4EE81
:10B9A000E67AF1EE10FA09DDD6B2B4EEE77A0120BC
:10B9B000F1EE10FA02D5B0EE677AD3B2013204315B
:10B9C000102AE7D104EB8302591C0F2B06F1010664
:10B9D000D2EDAD7A07EE101A67EEA76AB8EEC77A15
:10B9E00066EEA77A27EE277A00F0698104E000BFAF
:10B9F000000100200000000004EB8301581C91EDC1
:10BA0000AD6A0A46D1EDAE6AF4EEC66AF1EE10FAFE
:10BA100040F1558166EE065A05EE100A0F28B8EE81
:10BA2000C55A25EE866AA5EE067A77EE867A00F08C
:10BA3000278592EDAF6A991CB4EEE66AF1EE10FA32
:10BA400040F13D8166EEA65A05EE101A0F29B8EEB8
:10BA5000C55A65EEA66AA5EE267A77EEA67A00F0BC
:10BA60001185D2EDB06AD91CF4EEC66AF1EE10FA77
:10BA700040F1258166EE065A05EE101A0F29B8EE40
:10BA8000C55A25EE866AA5EE067A77EE867A00F02C
:10BA9000FB8492EDB16A191DB4EEE66AF1EE10FA7C
:10BAA00040F10D8166EEA65A05EE101A0F29B8EE88
:10BAB000C55A65EEA66AA5EE267A77EEA67A00F05C
:10BAC000E584D2EDB26A591DF4EEC66AF1EE10FAC1
:10BAD00040F1F58066EE065A05EE101A0F29B8EE11
:10BAE000C55A25EE866AA5EE067A77EE867A00F0CC
:10BAF000E68092EDB36A991DB4EEE66AF1EE10FAB3
:10BB000040F1DD8066EEA65A05EE101A0F29B8EE58
:10BB1000C55A65EEA66AA5EE267A77EEA67A00F0FB
:10BB2000CE80D2EDB46AD91DF4EEC66AF1EE10FAF9
:10BB300040F1C58066EE065A05EE101A0F29B8EEE0
:10BB4000C55A25EE866AA5EE067A77EE867A00F06B
:10BB5000B68092EDB56A03F10801B4EEE66AF1EE43
:10BB600010FA40F1AC8066EEA65A05EE101A0F29C5
:10BB7000B8EEC55A65EEA66AA5EE267A77EEA67AE5
:10BB800000F09D80D2EDB66A03F10901B4EEE66AD9
:10BB9000F1EE10FA40F3938066EE065A05EE101AA5
:10BBA0000F29B8EEC55A25EE866AA6EE057A77EE1D
:10BBB000867A00F0848092EDB76A03F10A01F4EE10
:10BBC000C66AF1EE10FA7ADD66EEA65A05EE101A94
:10BBD0000F29B8EEC55A65EEA66AA6EE857A77EE0D
:10BBE000A67A6CD0D2EDB86A03F10B01B4EEE66A26
:10BBF000F1EE10FA63DD66EE065A05EE101A0F2913
:10BC0000B8EEC55A25EE866AA6EE057A77EE867AF4
:10BC100055D092EDB96A03F10C01F4EEC66AF1EE6B
:10BC200010FA4CDD66EEA65A05EE101A0F29B8EE92
:10BC3000C55A65EEA66AA6EE857A77EEA67A3ED05C
:10BC4000D2EDBA6A03F10D01B4EEE66AF1EE10FA34
:10BC500035DD66EE065A05EE101A0F29B8EEC55A04
:10BC600025EE866AA6EE057A77EE867A27D092EDE3
:10BC7000BB6A03F10E01F4EEC66AF1EE10FA1EDDA6
:10BC800066EEA65A05EE101A0F29B8EEC55A65EEF3
:10BC9000A66AA6EE857A77EEA67A10D0D4EDBC6AB5
:10BCA000F4EEC66AF1EE10FA09D566EE066AF2EE17
:10BCB0000E5A26EE866AA6EE257A77EE867AB3428B
:10BCC00040F34B8104EB83005A1E90EDAD6AD0ED3A
:10BCD000AC6AF4EEC66AF1EE10FA40F13E81591CEE
:10BCE00066EE065AB24205EE101A25EE866AB8EEE6
:10BCF000C55A77EE867AA5EE067A40F32E8190ED4E
:10BD0000AB6A991EB4EEE66AF1EE10FA40F12581B5
:10BD100066EEA65AB14265EEA66A05EE903AF8EED6
:10BD2000E55A77EEA67AA5EEA67A40F31681074685
:10BD3000D81ED7EDAA6AF4EEC66AF1EE10FA40F109
:10BD40000C8126EE065A05EE902AB042F8EEE55A2E
:10BD500025EE066AA5EE867A77EE867A40F3FD80B8
:10BD600097EDA96A1A1FB4EEE66AF1EE10FA40F1F7
:10BD7000F48026EEA65A05EE901AB242F8EEE55A85
:10BD800065EE266AA5EEA67A77EEA67A40F3E58000
:10BD9000D7EDA86A591FF4EEC66AF1EE10FA40F129
:10BDA000DC8026EE065A05EE900AB142F8EEE55A1E
:10BDB00025EE066AA5EE867A77EE867A40F3CD8088
:10BDC00097EDA76A981FB4EEE66AF1EE10FA40F11B
:10BDD000C48026EEA65A05EE902AB042F8EEE55A47
:10BDE00065EE266AA5EEA67A77EEA67A40F3B580D0
:10BDF000D7EDA66ADA1FF4EEC66AF1EE10FA40F14A
:10BE0000AC8026EE065A05EE901AB242F8EEE55ADC
:10BE100025EE066AA5EE867A77EE867A40F39D8057
:10BE200097EDA56AA3F10801B4EEE66AF1EE10FA07
:10BE300040F1938026EEA65A05EE900AB142F8EE44
:10BE4000E55A65EE266AA5EEA67A77EEA67A40F365
:10BE50008480D7EDA46AA3F10900F4EEC66AF1EE7E
:10BE600010FA7AD526EE065A05EE902AB042F8EE80
:10BE7000E55A25EE066AA5EE867A77EE867A6CDDBF
:10BE800097EDA36AA3F10A02B4EEE66AF1EE10FAA6
:10BE900063D526EEA65A05EE901AB242F8EEE55AA0
:10BEA00065EE266AA5EEA67A77EEA67A55DDD7ED81
:10BEB000A26AA3F10B01F4EEC66AF1EE10FA4CD5BA
:10BEC00026EE065A05EE900AB142F8EEE55A25EE46
:10BED000066AA5EE867A77EE867A3EDD3846A3F1CD
:10BEE0000C0790EDA16AB4EEE66AF1EE10FA34D5D3
:10BEF00026EEA65A05EE902AB742F8EEE55A65EE10
:10BF0000266AA5EEA67A77EEA67A26DDD0EDA06A9F
:10BF10000D3BF4EEC66AF1EE10FA1ED526EE065A77
:10BF200005EE901AB342F8EEE55A25EE066AA5EE44
:10BF3000867A77EE867A10DD94EDAE6AB4EEE66A24
:10BF4000F1EE10FA09D526EEA66AF0EE085A66EE72
:10BF5000266AA6EEA57A77EEA67AF5EEC07AF1EE1D
:10BF600010FA40F3708287EE278AC24B94F89AA2A7
:10BF7000D3ED007AB7EE007A38EE478A28EE278AAA
:10BF8000B4F8380455F0D2FB064618EE100A0F46F6
:10BF900055F0EEFB804689463046394642464B46D0
:10BFA00055F0C4FE08B946464F463946304655F06E
:10BFB000E7FE00EE100A0AEBCA0305EB830000F56A
:10BFC0002D705CF041FD94F89A22BCEEC00A94F802
:10BFD000993202F5C87204EB420210EE100AB2F870
:10BFE0000011A2F80001A2F806115A1CA24BA3FBF3
:10BFF0000213D11A03EB51039B08C3EBC303D31AFB
:10C0000084F8993202B0BDEC048BBDE8F0879B4DFB
:10C01000D4EDAE7AB0EE006AD4EDAD5AF6EE006A19
:10C0200077EEA77AB4F89C12D4F8B0220139B0EEBA
:10C03000664AB0EE677A1032D5EE867A05EBC1001B
:10C040008F4BA5EE867A083867EEA67A27EE267A19
:10C05000C4EDCE7A84EDCD7AD0ED036A0139D0ED0E
:10C06000027A02F10802D3ED705AA0F10800D3ED74
:10C070006F4A03F1080335EEE67A12ED036A37EEF4
:10C08000E45A77EEA47A76EEA56A52ED045AA6EE4B
:10C09000057AE5EE857AA5EEE67AE6EE267A27EED3
:10C0A000047A67EE847A83ED8E7AC3ED8D7AD3D1EC
:10C0B00094F8993299E7714DD4F8A4222846B4F83F
:10C0C000A81255F07FF994F89932013384F8993227
:10C0D0009EE794F89A2294F81431694D9E1DC3F19D
:10C0E000200306EB421213F0FC0FC3F38501DFB20D
:10C0F00005EB820600F0BF81013106F110022B46EC
:10C10000080106EB011112ED026A103293EDD17AAB
:10C11000103352ED076A52ED057A26EE076AD3ED29
:10C12000CC4A12ED087A8A4293EDCB5A66EEA46AA5
:10C13000D3EDCE5A27EE057A83ED6B6A67EEA57ACA
:10C14000C3ED6A6A83ED697AC3ED6C7ADBD14D4B3E
:10C15000A0F11001A3F5C4720E440B44114417F072
:10C1600003021BD0D6ED007A013A93ED007A67EE18
:10C17000877AC1ED007A11D0D6ED017A012A93EDCC
:10C18000017A67EE877AC1ED017A07D0D6ED027A9F
:10C1900093ED027A67EE877AC1ED027A94F8146122
:10C1A000002E85D0CF3794F89A32B00805EB870C73
:10C1B00005EBC313ACF5C47C05EB870503F1180749
:10C1C00034D0013007F1100305F110010CF1100219
:10C1D0004FEA001E07EB001013ED046A103351ED17
:10C1E000047A103253ED066A103126EE276A51EDBB
:10C1F000067A13ED077A51ED075A66EEA76A53EDFA
:10C20000057A834202ED086A27EE257A11ED056A68
:10C2100042ED066A67EE867A02ED077A42ED057A0C
:10C22000DAD1AEF110031F441D449C4416F0030301
:10C230003FF43EAFD7ED007A013B95ED007A67EE13
:10C24000877ACCED007A3FF433AFD7ED017A012B3A
:10C2500095ED017A67EE877ACCED017A3FF428AF4D
:10C26000D7ED027A95ED027A67EE877ACCED027A05
:10C270001EE700BF3404002025499224B4020020A8
:10C28000000100203C040020B4F89C32804D590885
:10C29000D4F8A02205EB8308DB084FEA810005EB08
:10C2A000810E00F0A0805E1C10300EF1100302F130
:10C2B000100C0EEB061E404408F11007A5F5DA76C7
:10C2C00057ED047A103396ED6D1A0CF1100C50ED09
:10C2D000041A103613ED086A71EE278A57ED032A07
:10C2E00031EE671A10ED032A36EE218A57ED013A36
:10C2F00071EEC61A13ED064A103753ED054A103099
:10C3000057ED066A53ED075A50ED067A10ED057A9F
:10C3100035EE820A96ED6B3A72EE655A96ED6A5AE0
:10C3200074EE270A96ED6C6A77EEC47AC6ED698AD8
:10C3300035EE229A36EE232A35EE625A73EE268ABD
:10C3400086ED6A9A74EE872A86ED6C2A37EE647A57
:10C35000C6ED6B8A73EE666A43ED052A36EE636AB4
:10C3600003ED088A03ED070A43ED060A73455CED09
:10C37000074A1CED084A24EEC12A24EE653A65EE10
:10C38000242AA5EE042A61EE843AB0EE435AE1EE87
:10C39000042AE5EEA43AA1EEA45A07ED072A47EDD8
:10C3A000082A40ED073A00ED085A5CED055A1CEDED
:10C3B000065A26EE253A65EEE63A27EE854A65EE00
:10C3C000474AE6EE053AA6EE853AA7EE254AE7EE9D
:10C3D000A54A07ED063A47ED053A00ED054A40ED5E
:10C3E000064A7FF46DAF89B228460191FBF76CFED7
:10C3F00001994046D4F8A022FBF766FE94F89932E2
:10C40000F3E594F89A2202F5C87304EB4303B3F8FA
:10C410000011B3F806318B4206D0012384F82D2495
:10C42000A4F82E1484F82C3401321A4B0621A3FBF5
:10C43000020384F8991203F4FF7101EB5303D21A3B
:10C4400084F89A2247E694F89AA204EB4A03B3F8D8
:10C45000263408EE103AB8EE488A91E5D4EDAD7A6C
:10C46000012600230C4D27EEA77A67EE277AB0EE5F
:10C47000677AFFF7C1BA05F5DA7105F54F736EE615
:10C480000E231CE40D231AE40C2318E40B2316E4FA
:10C49000B4020020ABAAAAAA00010020D9498B68E7
:10C4A00013F4003030B440F0B08001F5A66201F220
:10C4B0004C53D54CD3ED937AD2ED014A92ED024A1A
:10C4C000D4F8085E67EEA42AD2ED033A92ED003A62
:10C4D00027EE842A63EEA71AD3ED076A22EEA37A29
:10C4E000D4F80C1E63EE277A62EE835A8A7AA1EEA4
:10C4F000A47A23EE276A5442E1EE845A05EE104AEC
:10C50000A3EEA16AB8EEC55A36EE877AF2EE041AA7
:10C51000E7EEA45AA2EE437AF0EE466A25EE215ADF
:10C52000E2EE446AB0EE656AA7EEC47AA2EE236A30
:10C53000F0EE477AB0EE667AF4EEC57AA2EEE47ACF
:10C54000F1EE10FA07D406EE902AB8EEE65A25EE80
:10C55000215A85FE675A83ED075AF2EE045ACA7AC9
:10C5600095ED205A5442D3ED4D6A07EE904AE5EE20
:10C57000066AF8EEE77A67EEA57AF4EEE76AF1EE7E
:10C5800010FA07D407EE902AF8EEE77A67EEA57A5C
:10C59000C7FEE67AC3ED4D7A0A7BC8B95142F2EE86
:10C5A000046A07EE901AF8EEE77A67EEA67AF4EEE0
:10C5B000C77AF1EE10FA07DC07EE902AF8EEE77A78
:10C5C00067EEA67AC7FEC77AC3ED937A30BC704790
:10C5D0005142D5ED1F5AD3ED936AB2EE046A07EECD
:10C5E000901AE5EE876AF8EEE77A67EE867AF4EE5F
:10C5F000E76AF1EE10FAE7D407EE902AF8EEE77A50
:10C6000067EE867AC7FEE67ADEE701F5A6629FED61
:10C610007F7A92ED024AD2ED014A64EE047AE4EEAA
:10C62000A47AF4EEC77AF1EE10FACFD8D1F84035FB
:10C63000754C9B0640F1C18004F69853D4F8085E0F
:10C6400093ED056AB1F94415DFED713A07EE901AE2
:10C650009FED707ADFED706AF8EEE77A86FE666A23
:10C6600086FE076A67EEA33AB1EE637AFDEEC77AFB
:10C6700017EE903A2033402B00F2A78011F5E16FBE
:10C680000CDA9FED665ADFED665AF0EE476A37EE38
:10C69000457AF4EEE56AF1EE10FAF6DCDFED617A48
:10C6A000B4EEE77AF1EE10FA0CD59FED5C5ADFEDAF
:10C6B0005E5AF0EE476A37EE057AF4EEE56AF1EE7F
:10C6C00010FAF6D4DFED597AB4EEE77AF1EE10FA0B
:10C6D0007EDDDFED577A37EEC77A67EE077ADFED5A
:10C6E000556A9FED555ADFED555AA7EEA65ADFED74
:10C6F000546A27EE273AE7EE855AE7EEA56AA3EEDD
:10C70000267ADFED4A7A77EEE37AFDEEE76A16EEF7
:10C71000903A2033402B55D811F5617F0CDA9FED0C
:10C720003F5ADFED3F5AF0EE676A77EEC57AF4EED6
:10C73000E56AF1EE10FAF6DCDFED3A6AF4EEE67A3D
:10C74000F1EE10FA0CD59FED355ADFED375AF0EEC9
:10C75000676A77EE857AF4EEE56AF1EE10FAF6D4C0
:10C76000DFED326AF4EEE67AF1EE10FA3DDDDFED50
:10C77000306A76EEE77A67EEA76ADFED2E5ADFEDD4
:10C780002E3A9FED2E5AE6EEA53ADFED2D5A27EE12
:10C79000A63AA6EEA35AE6EE855AE3EE257AC7EE50
:10C7A000276A9FED287ADFED285A284B26EE877AF4
:10C7B000C7EE067A67EEA57A84E6D4F8085E95EDB2
:10C7C0001E6A3FE7DFED227AE9E79FED217A98E7DD
:10C7D000DFED207AB4EEE77AF1EE10FA7FF57DAF67
:10C7E000DFED107A37EEC77A77E7DFED1A6AF4EEFD
:10C7F000E67AF1EE10FABED5DFED0A6A76EEE77A58
:10C80000B9E700BF0000002098320120CE8BD33E54
:10C8100088C3E43A000096430080BB45DB0FC94063
:10C82000E4CB1641DB0F49C0E4CB16C1DB0FC93F97
:10C83000DB0F49409A7C2E36FAAF4FB93587083C5A
:10C84000A4AA2ABE8F2A7544E12E65424C05002019
:10C8500000000000DB0FC9BF38B52DED0A8B70EE6C
:10C86000609AD0ED01AA0378F0EE408AB0EE607ACB
:10C87000044669EEAAAA0D46B0EE41AAF0EE61BAEE
:10C88000B0EE42CAB0EE629A002B61D101F0010312
:10C89000D0ED0B7A002B54D079EEE77AB0EE697ABE
:10C8A00087EE8A0AD4ED090A84ED0B7AF5EEC00A08
:10C8B000F1EE10FA54DCD4ED032A20EE220A94EDB6
:10C8C0000ABA20EE099A94ED050AB0EE4C1A3AEE37
:10C8D0008B8A68EE808AF0EE6B0A38EE098A38EEB1
:10C8E000288AB0EE480A4AF023FED4ED027AF0EE30
:10C8F0004B6A94ED047A69EEA77A6B0730EE488AAA
:10C9000084ED0E9AC4ED0F8AEAEE276A84ED0CBA24
:10C9100028EE078AC4ED0DAA84ED100AF0EE667ABF
:10C92000EAEE087A08D5B0EECBBAB0EEE77AB4EE0C
:10C93000CB7AF1EE10FA01D5C4ED0A7ABDEC0A8B80
:10C9400038BD77EE677AF1EE677A87EE8A0AA9E753
:10C9500011F001034FF0000240FEA97A027099E73E
:10C9600094ED038AB0EE4A1A04F118005CF078F8EE
:10C9700028EE000AA3E700BF064B93F8C91303F2A1
:10C98000946203F27C63002918BF134693ED020AF8
:10C99000704700BF98320120F8B5384C0D46384F2B
:10C9A000B4F82634B4F83264FB842DED028B1EBB40
:10C9B000D7E90431C01A65EB010155F019FBDFED31
:10C9C000317A07EE100AB4F82834B4F82A1467EE66
:10C9D000277AB4F82E240B44FCEEE77A17EE905A2F
:10C9E0002B449A4239D3B4F83004BDEC028BA842F0
:10C9F0002CBF00200120F8BDFFF7BEFF07EE906AB4
:10CA0000F0EE408AB8EEE78AB4EEC80AF1EE10FA0A
:10CA10001FDAD7E90431C01A65EB010155F0E8FAD5
:10CA2000DFED187A07EE100AB4F82834B4F82A14A7
:10CA300067EE277AB4F82E240B44FCEEE77A17EE63
:10CA4000905A2B44934210D8F4EEC88AF1EE10FAB3
:10CA5000C9DB0120BDEC028BF8BD2FF0C9F900281D
:10CA6000C1D00320BDEC028BF8BD2FF0C1F9002826
:10CA7000F7D1FFF781FFF0EE408AE5E7A021012022
:10CA8000000000206F12833A2DE9F04F2DED028B4C
:10CA900087B0354D0446B0EE408A03901046D5F875
:10CAA000109E0E4617469B4654F0F6FC0146D9F8F8
:10CAB00000C04FF00008214489F80B6048463B460F
:10CAC00089F80A1032462146CDF80080DCF814407F
:10CAD0009DF848A09DF84C90A0479FED240A53462E
:10CAE000424604A828EE000ACDF804B0CDF8008034
:10CAF000FDEEC07A17EE901A0FF0CCFDD5F8143E7B
:10CB000013B11B784B452BD0D5F8203E13B11B78C1
:10CB10004B4525D0D5F82C3E13B11B784B451FD083
:10CB2000D5F8383ED3B11B78A3EB0909B9FA89F9D6
:10CB30004FEA5919384654F0AFFC039C04AB324617
:10CB40000134CDF800902118D5F8100EC9B246F086
:10CB50009DFD07B0BDEC028BBDE8F08F9946E9E77B
:10CB60004FF00109E6E700BF983201200000C842FB
:10CB700030B41C7884B1012C0CD1B3F902408AB1D5
:10CB8000157B94FBF5F40470B3F90430527B93FBEE
:10CB9000F2F30B7030BC70479A780270DB7830BCCF
:10CBA0000B707047054AE51782FB04241222C5EB7F
:10CBB00064040470B3F90430E9E700BFABAAAA2A01
:10CBC00030B41C784CB1012C05D1B3F90220B3F973
:10CBD000043002600B6030BC70479C7852B1157B0A
:10CBE000DB7815FB04F40460527B03FB02F330BCDA
:10CBF0000B60704704EB4404DB781222A40004604D
:10CC0000F3E700BF30B50C4683B0054601920EF045
:10CC100097F8019B2246294646F0F2FD0B4991F90F
:10CC2000443E5A1C01EB430352B283F8485E83F83A
:10CC3000494E352A05DD0023012081F8443E03B02A
:10CC400030BD012081F8442E03B030BD9832012060
:10CC5000104A034630B592F8FC4F83B0012C10D92E
:10CC600004220D888C7874200DEB02018DF80430BD
:10CC7000ADF805508DF8074028F0FCFF012003B007
:10CC800030BD02D0002003B030BD92F8FD2F622AE3
:10CC9000E6D8F7E798320120F8B5214D1D260C465D
:10CCA000074605F8D46C28F0ABF9002028F034F9D9
:10CCB000082028F031F90E2028F02EF9304628F00F
:10CCC0002BF9042028F028F9042028F025F9002069
:10CCD00028F022F9302028F01FF9002028F01CF954
:10CCE000204628F019F9002028F016F928F06AF9F2
:10CCF000A5F1D00028F076F800B9F8BD15F8CF3CC2
:10CD00000BB1302B0AD115F8D02C15F8CE3C1343BB
:10CD100004D115F8CD3C01203B70F8BD0120F8BDD1
:10CD2000904301202DE9F04FBB4C0022DFF8F08248
:10CD3000002304F5407504F1C007A8F69809DFF850
:10CD4000E4A22E462DED028BC8E9002387B09FEDAB
:10CD5000B38A0CE0227822B107EBC303D3F8403248
:10CD600063B900232B6018340835A6423ED094F9ED
:10CD70000130002BEEDA2378002BF2D02B79DB0781
:10CD8000F1D4A168207925F07BFE21698346207BC0
:10CD900025F076FEA2780346252AE2D8DFE812F0D5
:10CDA00059000B014200130144014E01400059019A
:10CDB00026022F02360241024A025500370139018C
:10CDC000AF00BB005F006B007E0091008801940102
:10CDD000A301B001CB01D801E501F201FF01180266
:10CDE0001B012801C300E1006401760197F850336C
:10CDF00013B197F8523323B907B0BDEC028BBDE8ED
:10CE0000F08F97F851234021D7F8540345F06EFB7B
:10CE1000002387F8523307B0BDEC028BBDE8F08FDA
:10CE200040F282639B45D4BF4FF0000B4FF0010BE3
:10CE30005A46237DC5F800B0DB0794D5002A92D06E
:10CE40002B7943F001032B718DE7BBF1000F00F04C
:10CE5000F7810122237D2A60DA07F1D483E75FFAA4
:10CE60008BF01946009325F0C9FD009B1A1E9B46C6
:10CE700018BF0122DDE75FFA8BFB0090584625F0D2
:10CE8000D5FD009B0246584603EB020B594625F0A0
:10CE9000B5FDBBF1000218BF0122CAE75FFA8BFBA8
:10CEA0000090584625F0C2FD009B02465846A2EB72
:10CEB000030B594625F0A2FDBBF1000218BF012269
:10CEC000B7E75FFA8BFCBCF1070F00F2C0811A1EB6
:10CED000C1B24FF0010E97F8510318BF012200397B
:10CEE0009B460EFA0CFC18BF012187F852E34B4217
:10CEF000434003EA0C03434087F8513399E700FBB2
:10CF00000BF047F6FF72514644F074FB021E834655
:10CF100018BF01228DE7002840F09681BBF1000286
:10CF200018BF012285E707EE90BA0028B8EEE70A9D
:10CF300008BF4FF4FA73CDE9003320EE080A4AF037
:10CF4000DDFB009B07EE903AF8EEE77A27EE800AC9
:10CF5000FDEEC07A17EE90BABBF1000218BF0122B5
:10CF600067E707EE90BA0028F8EEE78A08BF4FF4AB
:10CF7000FA73CDE9003368EE888AB0EE680A4AF0A9
:10CF800095FCF0EE407AB0EE680AF0EE678A4AF05F
:10CF9000B5FB009B07EE903AB8EEE77AC8EE807AD0
:10CFA00067EE877AFDEEE77A17EE90BABBF10002E2
:10CFB00018BF01223DE7ABEB000BBBFA8BFB4FEA3E
:10CFC0005B1B5A4635E78345ACBF4FF0000B4FF073
:10CFD000010B5A462DE7D8F80030BBF10002C9F822
:10CFE00020B943F0800318BF0122C8F8003020E7C1
:10CFF00007EE90BA0028B8EEE70A08BF4FF4FA73BC
:10D00000CDE9003320EE080A4AF050FC99E7584475
:10D0100077E7ABEB000074E7D042012035FA8E3C95
:10D02000980800200080FFFF40F234539B45CCBF9E
:10D030004FF0000B4FF0010B5A46FAE6ABF23550B9
:10D04000B0F5A77F2CBF4FF0000B4FF0010B5A46F5
:10D05000EFE6031E18BF0123BBF1000F14BF9B4670
:10D060004FF0000B5A46E4E61A465846002100935A
:10D0700044F0C0FA009B002219464FF47A73FDF782
:10D080008FFF021E834618BF0122D2E64FF47A7248
:10D0900000210090584644F0ADFA0022009B4FF466
:10D0A0007A71FDF77DFF021E834618BF0122C0E69C
:10D0B000D8F800300121227D0B432960D007C8F841
:10D0C00000307FF550AEBBE60122D8F80030C9F839
:10D0D000FCB82A6043F00203227DC8F80030D10773
:10D0E0003FF5AEAE3FE6D8F800300121227D43F097
:10D0F00004032960D207C8F800303FF5A1AE32E63C
:10D10000D9F804399B453FF42CAE02A9D7F8400367
:10D1100044F0C2F8002867D058469DF80A20012143
:10D1200044F068FA021E8346C9F8040918BF0122B8
:10D1300087F846037DE6D8F800300121227D43F0D0
:10D1400008032960C8F80030D3073FF579AE0AE636
:10D15000D8F800300121227D43F010032960D00768
:10D16000C8F800303FF56CAEFDE5D8F8003001217D
:10D17000227D43F020032960D107C8F800303FF535
:10D180005FAEF0E5D8F80030BBF10002C9F814B981
:10D1900043F0400318BF0122C8F8003049E6D9F82F
:10D1A00018399B453FF4DDAD02A9D7F8400344F0A0
:10D1B00073F8C8B158460522012144F01BFA021E3B
:10D1C0008346C9F8180918BF012287F8440330E6DE
:10D1D000D9F81C399B453FF4C4AD02A9D7F84003E8
:10D1E00044F05AF800283AD12860BCE55BEA030312
:10D1F00014BF4FF0010B4FF0000B5A4619E6BBEB82
:10D20000000B18BF4FF0010B5A4612E6B0FA80F33C
:10D210005B09BBF1000F14BF9B464FF0010B5A4650
:10D2200007E65BEA03030CBF4FF0010B4FF0000B66
:10D230005A46FEE5BBFA8BFB4FEA5B1B5A46F8E504
:10D2400050B9D5F800B069E69BFBF0F059E6021E34
:10D25000834618BF0122ECE5C5F800B083E55846C7
:10D260000822012144F0C6F9021E8346C9F81C09B0
:10D2700018BF012287F84503DBE500BF164911F806
:10D28000442C32B3F0B4064600200346074602E0C1
:10D2900012F8442CDAB100EB80002E2A4FEA40004D
:10D2A00004D10133CA18324402F8447CCA18A0F1F0
:10D2B000300512F8442CA2F13004092C98BF501903
:10D2C0000E2B03F1010301EB0302E1D90020F0BCB6
:10D2D00070470020704700BF9832012070B5144D90
:10D2E0000646D5F8580303791E3B012B04D90021CB
:10D2F00044F026F9D5F85803002E09DD0D4C2644DC
:10D3000014F8011B44F01CF9D5F85803A642F7D1D4
:10D31000002144F015F9B5F88833074A002101339C
:10D32000D2F82C2FA5F88833C5E9E02170BD00BFE5
:10D3300090430120EC460120A021012010B50A4CA9
:10D3400004F6FC4008F02EFFD4F8083DC01A4AF05D
:10D3500015F9002842F21073B8BF40429842D4BF7A
:10D360000020012010BD00BF98320120036813F097
:10D37000400004D013F4057F14BF01200020704743
:10D380002DE9F043264D85B0264C804605F128094D
:10D390000F461646C4F8DC5FC4F8E09FFDF764FC56
:10D3A000214804F57B614FF0120C42F6F82200236D
:10D3B000C4F8D00F402084F8B0CFC1E9022328F090
:10D3C000DBFA044630B3FFF7D1FF98F800C0B0F1A4
:10D3D00000083F7894F904004B4614BF0322012251
:10D3E000BCF1000F009601924FF040010CBF0724E2
:10D3F0000624012F0D4AA5F566750CBF08260026E8
:10D400003443029428F0B2F8B8F1000F05D1003887
:10D4100018BF012005B0BDE8F083C5F80004F6E7A9
:10D4200028470120A021012011C00208E9D50208E7
:10D430000248034AA0F1C501C638A1E7983201208D
:10D44000400D03000248034AA0F1C501C63897E722
:10D4500098320120A086010008490023013810F805
:10D46000012F222A04D0013301F8012F0F2BF6D10E
:10D47000034A0021134483F846107047E521012038
:10D48000A021012010B5022382B0084C0190C4F8FD
:10D49000043454F001F802460199D4F80804D2B2D9
:10D4A00002B0BDE8104044F029B800BF904301200D
:10D4B0000023421E043010B42A4C84F80C3412F8B5
:10D4C000011FA1F1410329B3332B21D8DFE803F079
:10D4D0001A202020204037202020202E202020200D
:10D4E0002020202520202020202020202020202037
:10D4F0001A202020204037202020202E20202020ED
:10D500002020202594F80C3443F0080384F80C34D0
:10D510008242D4D15DF8044B704794F80C348242B7
:10D5200043F0010384F80C34C9D1F3E794F80C34C8
:10D53000824243F0100384F80C34C0D1EAE794F837
:10D540000C34824243F0040384F80C34B7D1E1E791
:10D5500094F80C34824243F0020384F80C34AED1C8
:10D56000D8E700BF90430120F0B5BE4C85B0D4F899
:10D5700010642EB13046FFF7F9FE002840F07E819E
:10D5800094F81C04FBF764F994F8143405468342BC
:10D590001CD0002800F08281C6B1B34B02214FF4A9
:10D5A000165296F9040093F82D500023019104219E
:10D5B000B5FA85F500921A466D09029527F0D6FF57
:10D5C000C4F8180410B1012384F8143494F81D042D
:10D5D000FBF73EF994F81E34054683421ED000281E
:10D5E00000F01C81D4F82034C3B19F4D032193F97E
:10D5F0000400002395F834504FF49642019108211D
:10D600009D4200921A4618BF0D46029527F0AEFFC4
:10D61000C4F8240410B1012384F81E34FBF7DEF9AA
:10D62000D4F828542DB12846FFF7A0FE002840F07A
:10D63000FE8094F83804FBF70BF994F82C34064676
:10D64000834232D0002800F03281874B93F8373084
:10D65000012B00F03B81022B0CBF844A844AC4F8A2
:10D66000342415B32A7A002A00F02D81022A00F012
:10D670003181012A40F03C817C4A4FF49663C4F822
:10D68000342495F904000221002500930191102112
:10D690002B462A46029527F069FFC4F8300420B1D2
:10D6A000012384F8395484F82C3494F83A04FBF7B5
:10D6B000CFF894F83B340546834236D0002800F07A
:10D6C000A480D4F83C34D3B11A7A002A00F0F88050
:10D6D000684901EB8202D2F8AC2193F904000321DE
:10D6E0000023009201914FF480711A46029327F0B3
:10D6F0003DFFC4F8400410B1012384F83B345A4A7A
:10D700005D4BB2F85E1092F8605092F86100A3F899
:10D710007E1792F8621092F8632083F8825783F89C
:10D72000860783F8871783F8882794F84404FBF763
:10D730008FF894F845340546834227D058B34FF408
:10D74000FA70FDF7FBF9D4F84834FBB11A6802F41B
:10D750001072B2F5107F19D093F90400082103224A
:10D7600000234FF4E135029101924FF400711A4603
:10D77000009527F0FBFEC4F8500438B13A49012265
