:020000040800F2
:1000000000200010C59802085599020811740108D3
:1000100055990208559902085599020800000000F8
:1000200000000000000000000000000055990208D8
:10003000559902080000000055990208F3ED0108E7
:1000400055990208559902085599020855990208D0
:1000500055990208559902081B0102082F01020850
:100060002B01020827010208230102082D7B020848
:100070001D7B02080D7B0208FD7A0208E97A02085E
:10008000D57A0208C17A02085599020855990208E2
:100090005599020855990208559902081F0102084E
:1000A00075770208D977020861770208FD770208A0
:1000B000C9770208B5770208A177020855990208A6
:1000C0005599020855990208559902085599020850
:1000D00055990208517A0208457A0208397A0208CD
:1000E0001701020855990208559902085599020806
:1000F0009D770208559902088977020855990208E8
:1001000000000000000000000000000055990208F7
:1001100055990208559902085599020855990208FF
:10012000AD7A0208997A0208857A0208717A020883
:100130005D7A0208559902080000000000000000E6
:1001400055990208559902085599020800000000C7
:10015000000000000000000000000000000000009F
:10016000000000000000000055990208559902089F
:100170005599020800000000000000000000000087
:0801800000000000559902087F
:1001880030B5264B10201C78A4F13002092A1946F4
:1001980003F1010329D9214A00208B1A022B27DCFD
:1001A800002391422ED82E2C36D10131042400226E
:1001B8000D7802EB8202303D5200092D92B298BFB1
:1001C800521904F1FF349CBF013192B214F0FF04BC
:1001D800EED164214A43124901FB03230622B3FBF3
:1001E800F2F3104A02FB003001E00138CBD130BDF8
:1001F80000EB800012F8013B40003038184400F052
:10020800FF00CAE703EB830312F8015B5B00303B96
:100218002B4403F0FF03C4E70022DAE700090020BB
:1002280040420F008096980070B51B4C94F83C53E0
:1002380065B3D4F844630B68DFED186A9B1B07EEBF
:10024800103AB8EEC77A4B68D4F8486327EE267A96
:100258009B1B07EE903A80ED007A94EDD07A8B687C
:10026800012AF8EEE77A27EE267A18BFD4F84C234D
:1002780067EE877A18BF9B1AC0ED017A07EE903AAD
:10028800F8EEE77AC0ED027A284670BD00230360D5
:1002980043608360F8E700BF000900202C7D8E3F93
:1002A800F0B5114C014600200246264607464FF09D
:1002B8000A0CA35C03B9F0BD2E2B04D1013200292E
:1002C800F9D0A3185F54B55CA5F13003092B0CFBDA
:1002D80000F09CBFA0F13003E8180E2A01D80132C3
:1002E800E7E70020E7E700BF00090020094BD3F843
:1002F800840910F080000BD0D3F88829920706D41F
:10030800D3F88C0980F00800C0F3C00070470120C2
:10031800704700BF0009002007B510238DF8003092
:10032800054BADF80100D3F89039CDF803106846B5
:10033800984703B05DF804FB000900200C4AD2F886
:10034800A83910B5198100219981D2F8A0195960EE
:1003580019684C1C1C600870D2F8A839D2F8A0297A
:100368004FF6F67199811968C3E9002110BD00BFE5
:1003780000090020064B93F8BF29012A03D1054A3A
:10038800C3F8EC297047022A0CBF034A034AF7E76F
:1003980000090020000000200A00002014000020AE
:1003A80070B50028124D134EB8BF40423C22B0FB36
:1003B800F6F305FB030002FB00F494FBF6F20E4E85
:1003C80096F8B6699BB290B27EB903EB830303EB50
:1003D800830300EB83031BB20B8005FB02424FF43F
:1003E8007A7392FBF3F24A8070BDC3EB0313F0E714
:1003F800806967FF809698000009002000207047F8
:10040800094A08B5D2E90032C01A61EB020129F0A5
:100418002FF8DFED067A07EE100A67EE277AFCEE72
:10042800E77A17EE900A08BDF01200206F12833A9F
:100438000B4B93F96429182101FB023292F8B0237F
:10044800082A0BD093F8070A012808D0022806BF0B
:10045800D3F8780AC0F34020002070470120704785
:10046800000900201FB54B6801938B680293012295
:10047800CB68039301A9FFF7D7FE05B05DF804FB2D
:10048800044B187EDB7E002818BF03200BB140F018
:1004980004007047000900203A4AD2F88C3913F05A
:1004A800040F134667D03849127C242000FB02123F
:1004B800D289910565D4520508D593F96429182184
:1004C80001FB023292F8B023042A5AD093F8032A87
:1004D800052A47D8DFE802F0030A46152530D3F885
:1004E800DC22C3F87823C3F87C237047B3F8202AAA
:1004F80093EDB77A07EE902AF8EEE77A77EE877AE7
:100508000AE0D3EDDE7A93EDB77AF4EEC77AF1EE2E
:1005180010FAD8BFF0EE477AC3EDDE7AC3EDDF7A82
:100528007047B3F8202A93EDDC7A07EE902AF8EEAC
:10053800E77A77EE877AE6E7B3F8202A93EDDC7A54
:1005480007EE902AF8EEE77A77EE877A93EDB77A96
:10055800F4EE477AF1EE10FAC8BFB0EE677A83ED91
:10056800DE7ADBE7B3F8202A93EDDC7A07EE902AEF
:10057800F8EEE77AC2E7D2F8DC32C2F87833C2F88C
:100588007C3370470009002088C002080A4B93F8A2
:100598000A0A78B11A7E62B9D3F87C2AD3F83433C0
:1005A800D21A4FF47A735843824294BF0020012034
:1005B80070470020704700BF000900200123037026
:1005C80000234363036383638362C362C3638361FA
:1005D80003647047DFED137A80ED010AF4EEE70A51
:1005E800F1EE10FAC0ED020A80ED031AC0ED051A0B
:1005F80013DDB4EEE70AF1EE10FA0EDD81EE007AB3
:10060800C0EE207AF0EE006A77EE877A86EEA77A57
:1006180080ED047A80ED092AD0E700238360036126
:10062800F8E700BFBD378635324BA3F11C0210B581
:10063800044607CA83E807001846032C47D8DFE8B2
:1006480004F00208474B2C4BD3F87823C3F88C23CB
:100658003DE0294BD3F88829D3EDE07AD3EDDF5A72
:10066800D20649BFB3F8562ADFED246A06EE902A6F
:10067800F8EEE66A77EEE66ADFED217AF4EEE76AED
:10068800F1EE10FA21DBD3EDE47AB8EE676AF7EE03
:10069800007A86EE267AB5EEC07AF1EE10FA11D419
:1006A800B4EE677AF1EE10FAC8BFB0EE677A77EE6B
:1006B800C77AD3EDDE6A67EEA57AE6EE877AC3EDF0
:1006C800E37A04E09FED0D7AF1E7C3EDE35A10BD3C
:1006D800094BD3F87C23B9E7074BB3F8222A002A41
:1006E800F7D007EE902A93EDDC7AF8EEE77A77EE0A
:1006F800277AE4E7840C00200009002000000000AD
:100708000000C842054B197C814205D0242242438F
:1007180018740348825C5A74084670470009002020
:1007280088C00208034B93F8F839002B0CBF02204D
:1007380000207047000900200020704770B50F4B5B
:10074800002193F9510918240D46CAB2824208DBE8
:100758001A7E0AB1DB7E13B9FFF718FF58B90020DB
:1007680070BD04FB0232013192F8B063062E08BF57
:10077800A2F8C453E9E70A20F2E700BF0009002005
:100788000A4A92F96439182101FB032191F8C6132A
:10079800A52909D092F9511901398B4204DA01339C
:1007A80082F86439022070470D2070470009002044
:1007B8000D4A92F96439D2F87C1A182000FB0323F9
:1007C800B3F9C033002B0CDDD2F8740950B14FF4E3
:1007D8007A72081A13FB02F398422CBF02200020F9
:1007E80070470220704700BF000900200A4A92F9AA
:1007F8006439182101FB032191F8C613A52909D0F2
:1008080092F9511901398B4204DA013382F86439BB
:10081800002070470D207047000900207047481ECF
:1008280083B2032B1AD80E4B93F8802AB2B10D4A23
:1008380002EB8002D3F8940AD2F8C82482420DD37E
:10084800D3F8980A824209D8C3F8A82AD3F8882A84
:10085800C3F8AC1A42F00202C3F8882A704700BFF6
:100868000009002088C0020830B54C1EE3B2012BF5
:1008780022D8501EC3B2072B1ED8104B93F8805AAB
:10088800D5B100EBC4000E4C04EB4000D3F88C4A01
:10089800B0F8D804A0420FD3D3F8904AA0420BD89E
:1008A800C3F8A40AD3F8880AC3F89C1A40F00100D8
:1008B800C3F8880AC3F8A02A30BD00BF0009002089
:1008C80088C0020828B1044BD3F8E00A08B193F8AD
:1008D800800A00F0010070470009002070B5FFF79A
:1008E800F1FF00B3104BD3F8A42AD3F89C4AD3F8ED
:1008F800A05A8A60D3F8AC2AD3F8A83A0B610B4BFC
:100908000C6003EB840603EB8503D6F8F8648E616C
:10091800074ED3F80435A45DCA6030324D600C75BB
:10092800CB6181F8202070BD0009002088C0020832
:100938008809030810B5FFF7C5FF30B1034BD3F89A
:10094800AC4A0C70D3F8A83A138010BD00090020F7
:1009580008B5FFF7B7FF18B1024BD3F8A43A0B80DC
:1009680008BD00BF0009002008B5FFF7ABFF08B1BC
:1009780000230B7008BD08B5FFF7A4FF18B1024BA0
:10098800D3F8AC3A0B7008BD0009002010B5FFF78A
:1009980099FF30B1034BD3F89C4A0C70D3F8A03AB6
:1009A800137010BD000900200520704731B9044AB2
:1009B800D2F8F43A43F00403C2F8F43A704700BF9F
:1009C8000009002048B1054BD3F8540B28B193F81F
:1009D800E40A022894BF0020012070470009002083
:1009E80070B5FFF7EFFFF8B1104BD3F8102BD3F821
:1009F800044BD3F8085B8A60D3F80C2BD3F8143B6C
:100A08000B610B4B0C6003EB840403EB8503D4F8F8
:100A18002845CA604D602678D3F840350E753032C7
:100A28008C61CB6181F8202070BD00BF00090020D7
:100A380088C0020810B5FFF7C5FF30B1034BD3F8E3
:100A48000C4B0C70D3F8143B138010BD0009002028
:100A580008B5FFF7B7FF18B1024BD3F8103B0B806E
:100A680008BD00BF0009002008B5FFF7ABFF18B1AB
:100A7800024B93F8243B0B7008BD00BF000900200F
:100A880008B5FFF79FFF18B1024BD3F80C3B0B706A
:100A980008BD00BF0009002010B5FFF793FF30B173
:100AA800034BD3F8044B0C70D3F8083B137010BDFC
:100AB8000009002008B5FFF785FFE0B1D9B10E4B5A
:100AC800D3F8282B914216DC01F10042013AD3F801
:100AD8002C0B30F81200D3F8002B904294BFC3F8C7
:100AE800140BC3F8142BD3F8F42AC3F80C1B42F0E8
:100AF8000202C3F8F42A08BD0009002010B5FFF768
:100B080061FF18B3481EC3B2042B20D8531EDCB2B1
:100B1800072C1CD803EBC0030E4800EB4303B3F8C3
:100B280064050D4BD3F8F84AA0420FD3D3F8FC4A1A
:100B3800A0420BD8C3F8082BD3F8F42AC3F8041B37
:100B480042F00102C3F8100BC3F8F42A10BD0020CC
:100B5800E7E700BF88C002080009002004207047AA
:100B68002A4A92F8411B7229134603D076293CD0B1
:100B780000207047B2F8420BB3F8461BC2F8F80AD7
:100B8800B2F8442BC3F8FC2AC3F8001B0028F0D0A5
:100B98009042EDD2B3F8602B0AB1C3F8002BB3F83A
:100BA800001B1B4AB1F5487F0BD31A49C3F82C1B0D
:100BB80005200C31C3F8280B82F8260011630120A8
:100BC8007047B1F5167F01D31349EFE7B1F5C87F38
:100BD80004D31249C3F82C1B0420EAE7C729F3D928
:100BE8000F49C3F82C1B0320E3E7B2F8423BC2F8D5
:100BF800183BB2F8443BC2F81C3B92F8473B003B19
:100C080018BF012382F8243B022070470009002006
:100C1800000000203CC6020860C6020884C602081C
:100C2800A8C60208034BD3F87C2AC3F8E82A83F83D
:100C3800E40A70470009002028B1034B93F93A00F1
:100C4800003818BF012070470000002010B5FFF7DA
:100C5800F3FF30B1144B93F83B20D20702D59B8F9A
:100C68000B8010BD93F93930002B1A46B8BFDA1D36
:100C7800C2F3C702042A15D85C4204F0070403F043
:100C8800070358BF6342DBB2072B0BD8013201338D
:100C9800D2B2DBB203EBC203044A02EB4303B3F85C
:100CA8005235DDE70023DBE70000002088C002089A
:100CB80008B5FFF7C1FF50B1054B93F83820012A5A
:100CC8009DBF93F83B30C3F340030B70002008BD71
:100CD8000000002038B5FFF7AFFF78B10D4A92F851
:100CE800383092F93A40012B11D192F8423044320F
:100CF800013B5D1C03D10023DBB20B7038BD02EB56
:100D0800C305B5F90450AC42F6DA013BF1E7E3B2AA
:100D1800F3E700BF0000002037B50D460DF10701CD
:100D28001446FFF7D7FF40B19DF807302B701BB171
:100D3800034A02EBC3039B8F238003B030BD00BF7F
:100D48000000002010B5FFF777FFB8B10D4C94F9FB
:100D5800393094F83B40E40711D4002B1C46B8BF47
:100D6800DC1DE4100134E4B20C70594201F00701B3
:100D780003F0070358BF4B420133137010BD002422
:100D8800F2E700BF0000002073B50C460DF1010228
:100D98000DF102010546FFF7D5FF10B9002002B09A
:100DA80070BD01A92846FFF751FF0028F6D00DF1C4
:100DB80006020DF103012846FFF7AEFF0028EDD02B
:100DC800BDF806209DF8021022610D4A9DF80150D9
:100DD800216002EB8101BDF80430D1F82815A36029
:100DE80002EB85029DF80330E36065600E78D2F867
:100DF800402526753033A161E26184F82030CEE7C2
:100E080088C002080320704770B50B4A92F8623B0D
:100E180006255E1CB6FBF5F405FB146492F8635BCB
:100E2800AC421FBF02EBC30382F8624BC3F8640BEA
:100E3800C3F8681B70BD00BF00090020002230B550
:100E480004461046914200DC30BDA35C082558409A
:100E580010F0800F4FEA400318BF83F0D503013D1F
:100E6800D8B2F5D10132EDE710B5FFF7E5FE50B382
:100E780049B3154C94F842308B4224D394F8383057
:100E88000139022BC9B20AD0032B15D0012B08D186
:100E980004EBC101B1F8483084F8703001E084F8FF
:100EA800701005210948FFF7C9FF062184F8710071
:100EB800BDE810400548A7E704EBC10191F84830A8
:100EC80063F07F03E8E710BD000000206C000020FD
:100ED8000139C9B2042910B515D8013AD2B2072A86
:100EE80011D8094C02EBC10204F17200052184F803
:100EF8007620FFF7A3FF062184F8770004F172003B
:100F0800BDE8104080E710BD0000002010B50D4C72
:100F180040F0080284F87C2094F83820022A06D988
:100F2800420704D583071CBF012384F840300521FC
:100F38000548FFF783FF062184F87D00BDE81040CF
:100F4800014861E7000000207800002010B5FFF795
:100F580073FE002833D01A4C94F838307BB351B361
:100F6800022B2CD994F8403093B969B1802305211C
:100F7800144884F88230FFF761FF062184F8830063
:100F8800BDE810400F483FE70420BDE81040BDE72A
:100F9800002914BF0020042094F83B301A0748BFEA
:100FA80040F002005B0703D40029EED00028ECD102
:100FB80040F00100E9E7022BD4D80420ECE710BD8B
:100FC800000000207E000020084B002283F8942BAC
:100FD800C3F89C2BC3F8982BC3F8B42BC3F8B02BD9
:100FE800C3F8CC2BC3F8C82B704700BF00090020FA
:100FF800064B002283F8E02BC3F8EC2BC3F8E82B50
:10100800C3F8042CC3F8002C704700BF0009002067
:1010180038B1022904D0032914BF002002207047E8
:1010280001207047064BB3F8302CC286B3F8322C37
:101038000287B3F8342C428793F81C0C704700BF22
:10104800000900200120704707B532238DF80030D1
:101058000368CDF801308388ADF80530034B684646
:10106800D3F89039984703B05DF804FB00090020D5
:10107800F8B5134C0546D4F8500C03791E3B012BE8
:1010880002D900211DF02CFF0E4F0026AE42D4F8E5
:10109800500C0FDB00211DF023FFD4F87C3AC4F874
:1010A800783C094B00225A60B4F8803C0133A4F81C
:1010B800803CF8BD17F8011B1DF012FF0136E5E76B
:1010C80000090020541500207815002038B5154C6B
:1010D80094F8633B94F8622B9A421CD004EBC30348
:1010E80004F65441D3F8642BD3F8680B00239842D4
:1010F80012DC9378C4F8900C5B0884F8943CFFF7F2
:10110800B7FF94F8633B06210133B3FBF1F201FB0F
:10111800123384F8633B38BDD55C01F8015B0133B9
:10112800E5E700BF00090020F8B500220D464FF69C
:10113800FF7302398A4210D346194354094F1B0AD8
:1011480006F8013C044614F8011BD7F8980C1DF06A
:10115800C7FEA642F7D1E8B2F8BD845C1B1B9BB260
:101168000132E7E70009002007B50B1408228DF8C3
:10117800043060F05F000B0E8DF80100ADF802102E
:101188008DF805301146002368468DF80020ADF82B
:101198000630FFF7C9FF03B05DF804FB07B5062367
:1011A80060F05F008DF80100ADF8021000221946CA
:1011B80068468DF80030ADF80420FFF7B5FF03B09E
:1011C8005DF804FB014610B50A4C5E29D4F89C0C66
:1011D80009D15D211DF084FE3E21D4F89C0CBDE8A8
:1011E80010401DF07DBE5D29F9D11DF079FE3D212D
:1011F800F3E700BF0009002070B51D4D95F83C339A
:101208002DED028B04460E4663B3D5F844330360D4
:10121800D5F84833436095EDD08AD5F84C338360D0
:10122800DFED148A96ED000A80EE280A28F0E4FC27
:1012380023681844206028EE288A96ED010A80EE7B
:10124800080A28F0D9FC63681844606096ED020A21
:1012580028F0D2FCBDEC028BA3681844A06095F876
:101268003C0370BDC0E900338360B7EE008AD7E75E
:10127800000900202C7D8E3F10B50A4C04F55A71E8
:1012880004F54A60FFF7B8FF6421D4F89023D4F836
:101298009433B2FBF1F293FBF1F3C4F8AC2CA4F84D
:1012A800B03C10BD0009002012F0010F70B51E4CB3
:1012B8000FD0066894F86453C4F868634668C4F8A5
:1012C8006C63DE074CBF45F0010525F0010584F885
:1012D800645395070CD594F864238068C4F87003A8
:1012E80098074CBF42F0020222F0020284F86423FD
:1012F8005B0794F86423C4F8741302D402F0FB0269
:1013080001E042F004020023C4E9E43384F86423D2
:10131800FFF7C2F8FFF7B0FFD4F8883943F00103AC
:10132800C4F8883970BD00BF00090020022803D026
:10133800431E584258417047054B93F8B42912B1DF
:10134800102011F083B8D3F88C09C0F380007047DF
:101358000009002008B5064BD3F88839DB0605D408
:10136800182011F073F800F0010008BD0020FAE71A
:101378000009002038B5174C0F2384F8B83A84F8D0
:10138800B90A04F6BA22F9B10B68C4F8BA3A4B683C
:1013980053608B689360104A002312F8011B0133D5
:1013A80008440C2BC0B2F8D1002584F8C60A0B49B2
:1013B800D4F8E00A84F8C75A10221DF094FD84F886
:1013C800DC5AC4F8D85A38BDC4F8BA1A51609160CA
:1013D800E1E700BF00090020BA130020B81300207D
:1013E80038B5124B00220F2483F8304BA3F8321B78
:1013F800C3F8342BC3F8382BC3F83C2B83F8310BD4
:101408000D2503F631311C4611F8013B013D1A4404
:10141800D2B2F9D184F83E2B0549D4F8540B1022E6
:101428001DF061FDC4F8505B38BD00BF0009002005
:101438003014002070B5174CB523B4F8B62C84F8D6
:10144800B23C622384F8B33C0020131DDBB2014692
:1014580004F6B446013BDBB2FF2B12D1A3180832C5
:1014680083F8B80C83F8B91CD4F8FC0C0A491DF0B1
:101478003AFD94F8B53C84F8183D002384F8193DEA
:1014880070BD16F8015B054451FA85F1E8B2C9B29E
:10149800E0E700BF00090020B21500200F4B06222C
:1014A80030B483F8B42C242283F8B52C83F8B62CF6
:1014B800002283F8B72C0A4A03F6B84102F1240443
:1014C80052F8045B41F8045BA242F9D1032230BC14
:1014D80083F8BA0C83F8BB2CACE700BF00090020E6
:1014E800CCC602080B4B0621082283F8B41C83F8EB
:1014F800B52C83F8B61C0022012183F8B72CA3F879
:10150800B80C83F8BA1C83F8BB2C83F8BC1C83F88E
:10151800BD2C8FE7000900200B4B10B4062483F87C
:10152800B44C012483F8B54C032483F8B64C00244A
:1015380083F8B74C5DF8044B83F8B80C83F8B91CF2
:1015480083F8BA2C76E700BF0009002038B50D4CA7
:10155800D4F8883913F0100503D0BDE838401DF0E1
:10156800DBBB1DF0D9FB04F55263C3E9000104F6A7
:10157800285300200021C3E90001C4F8305DC4F8F5
:10158800345D38BD0009002008B51DF0C5FB054BCA
:10159800012283F8F82903F51F63C3E9000102203B
:1015A80008BD00BF0009002070B50C4C0546B4F812
:1015B800606A0FF0D5FD86422246094E04DD1DB94A
:1015C800B4F8603AF38070BDD2F8883943F08003EC
:1015D800C2F888390FF0C4FDF080F4E70009002054
:1015E8000000001008B50020FFF7DEFF002008BD4E
:1015F800F7B50746019112F0A8F8274E0446B6F849
:10160800685A002844D101993846FEF7F9FEA842E5
:1016180040D807EE900AB6F8623AB8EEE77A07EED5
:10162800905AF8EE676A07EE903A1C4BB3F9062019
:10163800F8EE675A07EE902AF8EEE77A204677EE3A
:10164800E57A67EE877A87EEA66A76EE257AFDEE6A
:10165800E77A17EE902ADA8096F8702AB3F9023002
:1016680007EE902AB8EE676A07EE903AF8EEE77A46
:1016780077EEC67A67EE877A87EEA67A77EE067AED
:10168800FCEEE77A17EE903A86F8F93903B0F0BD28
:101698000320FBE70120F9E7000900200000001003
:1016A80010B5194604461046FEF7AAFE064BB3F8D5
:1016B8006A3A2044984204D912F047F800F0010031
:1016C80010BD0020FAE700BF000900202DE9F7430C
:1016D800DFF890800191024604460B46B8F8640A88
:1016E800FFF7DEFF0546D0BB20460199DFF878906A
:1016F800FEF786FEB8F8667AB8F8624A8742064668
:1017080005D2A9F80640012003B0BDE8F0830FF028
:1017180027FDB8F8603A8342B8BF03469BB207EE8C
:10172800903A07EE104AF8EE677AB8EE477A06EE76
:10173800906A37EE677AF8EEE66A284627EE267A48
:1017480006EE907AB8EE666AC7EE066A76EEA77A73
:10175800FDEEE77A17EE903AA9F80630D4E70320B1
:10176800D2E700BF000900200000001038B5054688
:101778000C460020FFF718FF2A4623460020FFF7F3
:101788008FFF58B928462146FEF73AFE044BB3F8B6
:10179800643A984294BF0020012038BD0320FCE73A
:1017A800000900202DE9F04107462DED048B0020AB
:1017B8000E4611F03DFD002868D0354B9FED357A77
:1017C800D3ED047A344DD3ED058AF0EEE76AF4EEF2
:1017D800C76AF1EE10FACABF93ED067A9FED2F9A09
:1017E80087EE279A0FF0BCFE95F8713AB0EE408A62
:1017F80000EE103ADFED2A7AB8EEC00A20EE270A8A
:1018080025F0F6FDB5F85C3A07EE903AF8EEE77A7F
:10181800F4EEE78AF1EE10FA2EDDB4EEC08AF1EEAE
:1018280010FAACBF01240024B5F85A3A07EE903AF2
:10183800F8EEE77AF4EEC97AF1EE10FA1ED5F5EE75
:10184800C08AF1EE10FACCBF4FF001084FF0000843
:101858000020FFF7A9FE54EA080412D038463146A2
:10186800FEF7CEFDB5F85E4AA04294BF00200120E5
:10187800BDEC048BBDE8F0810024D5E74FF00008EB
:10188800E6E7084B2046C3E90076F1E70420EFE7D6
:1018980000000010F366DF3F000900200000000090
:1018A80035FA8E3CF012002010B52DED028B82B077
:1018B80004460020019111F0BBFC002846D0019994
:1018C8002046FEF79DFD40F2DC53984207D90020E0
:1018D800FFF76AFE012002B0BDEC028B10BD07EED7
:1018E800900AB8EEE78A0FF03BFC194A9FED196A97
:1018F800B2F8603A07EE900AF8EEE76A07EE903A17
:10190800F8EE677A144B77EEE67A002067EE887A6D
:1019180087EE867A77EE267A9FED107AFDEEE77AE3
:1019280017EE901AD98092F8703A07EE903AF8EECE
:10193800677A27EE888AC8EE067A77EE877AFCEE11
:10194800E77A17EE903A82F8F939C4E70420C2E73B
:10195800000900200080BB440000001000000000C7
:1019680038B5002011F064FC0B4D044660B1B5F8A1
:10197800604A0FF0F5FB84420CDC95F8703A85F864
:10198800F9390224204638BD0120FFF70DFE85F8FD
:10199800F949F7E70124F5E70009002038B5154DA6
:1019A8001DF0BAF995F8F839042B09D1052385F803
:1019B800F839C5F8F009C5F8F4190224204638BDED
:1019C800D5F8844914F08044F8D0002011F030FC98
:1019D800044668B911F0B9FE0028EFD085F8F84937
:1019E800002205F51F650023C5E900230424E5E767
:1019F8000024E3E70009002008B50FF055FA02209B
:101A080008BD124B93F96429182101FB023090F8A4
:101A1800B0030138072805D8DFE800F015040F06E1
:101A2800040404040C20704701FB0233B3F9C033EB
:101A3800002B14BF0C2002207047D3F87C2AC3F86F
:101A480074290E2070470220704700BF000900204B
:101A580008B5064BD3F88829920202D593F8063ABE
:101A680013B1072020F0FEFC022008BD0009002069
:101A7800F8B5284C2546D4F8E00A1DF02EFA0028BF
:101A880047D094F8DC3A0BB1002042E0D4F8E00AE1
:101A98001DF01DFAD4F8D83A3BB90F28EBD1012331
:101AA800C4F8D83A84F8C80AE5E70F2B9FBF5A1C38
:101AB8001B19C4F8D82A83F8C80AD5F8D83A102BC5
:101AC800D9D195F8C83A0F2B15D195F8C93A95F898
:101AD800B92A9A420FD195F8D72A62B90E4995F8D2
:101AE800D66A084611F8017B01323B440C2ADBB266
:101AF800F8D19E4205D0002385F8DC3AC5F8D83ADB
:101B0800B9E706492AF00DFA0028F4D0012085F833
:101B1800DC0AF8BD00090020CA130020BA1300200F
:101B28007FB5934CD4F8383D40F2071293427AD0EF
:101B3800B3F5847F0EDA002B3AD0F52B4AD0D4F8CF
:101B4800383D002BBEBF0023C4F83C3DC4F8383DE7
:101B580004B070BD40F20D12934200F0B88040F21C
:101B68001B129342EBD194F8DC3A002B00F0E18091
:101B78000021B4F8CA3AC4F8841AD4F8A41AB4F8FC
:101B8800CC2AC4F8B03A8B42C4F8B42A40F0E980B1
:101B9800D4F8A83A9A4205D0D4F8883A43F0020318
:101BA800C4F8883A94F8803A002B00F0A2802CE020
:101BB80084F8803A00217220FFF7DCFB6D4BD4F8E3
:101BC8007C2A9A600022DA60FA23C4F8483DF5239B
:101BD800C4F8383D94F8DC3A002B41D0B4F8CA3A3E
:101BE800C4F88C3AB4F8CC3AC4F8903A0023C4F854
:101BF800943AB4F8CE3AC4F8983A012384F8803A73
:101C08000023C4F8843AC4F8883A5A4BD4F87C2A9A
:101C18009A600022DA604FF47A73C4F8483D40F2C3
:101C28000713C4F8383DD4F8885A7DBB514ED4F810
:101C38007C3AB2689B1AD4F8482D93427FF77FAF5D
:101C480029467620FFF796FBD4F87C3AC6E9023598
:101C5800FA23C4F8483D40F21B13C4F8383D82E724
:101C6800FFF706FF48B9434AD4F87C3A92689B1AB2
:101C7800D4F8482D93427FF762AF94F8DC3A002BF2
:101C8800ACD194F8803A002BBAD193E715F0010350
:101C980037D0B4F8A43A002501A94620CDE901556A
:101CA8000395ADF80430FFF765FBD4F8883AD4F80B
:101CB8007C2A23F00103C4F8883A2E4BC3E9022595
:101CC800FA23C4F8483D40F20D13C4F8383D294AB8
:101CD800D4F87C3A92689B1AD4F8482D93427FF73F
:101CE8002EAFD4F8843A022B7FF75CAF002384F838
:101CF800803A0023C4F83C3D4FF0FF33C4F8383D28
:101D08001DE715F0020511D0B4F8A82A039301A91C
:101D18005020CDE90133ADF80420FFF72BFBD4F8B0
:101D2800883A23F00203C4F8883ADAE7C4F8885AF4
:101D3800D7E7FFF79DFE48B90E4AD4F87C3A926877
:101D48009B1AD4F8482D93427FF7F9AE94F8DC3A01
:101D5800002B7FF40DAFD4F8843A0133C4F8843AE9
:101D6800BFE7D4F8883A43F00103C4F8883A0FE78C
:101D7800000900203816002070B5284C2546D4F8F4
:101D8800540B1DF0AAF8002847D0D4F8540B1DF0C6
:101D98009EF8D4F8503B3BB90F28F0D10123C4F882
:101DA800503B84F8400BEAE7012B10D1A0F17203F5
:101DB800DBB2012B01D9762805D10223C5F8503BA7
:101DC80085F8410BDBE70023C5F8503BD7E70F2B1D
:101DD8009FBF5A1C1B19C4F8502B83F8400BD5F829
:101DE800503B102BCBD195F84E0B0D490D220023FB
:101DF80011F8016B013A3344DBB2F9D19842E2D1D0
:101E080095F84F3B002BDED106481022A0F11001B7
:101E18002AF087F80028D6D0012070BD00090020DC
:101E2800411400204014002010B5554CD4F8543B00
:101E3800002B5AD094F8E43A062B56D8DFE803F082
:101E4800040E142A565E68000023C4F8F03AC4F859
:101E5800F43A0120BDE81040FEF7E4BE72200021EC
:101E6800FFF7BEFA0220F5E7FFF786FF40B1FEF75D
:101E780077FE01280CD10023C4F8F03A0520E9E7E1
:101E8800D4F87C3AD4F8E82A9B1AB3F57A7F2CD98F
:101E98000020DFE7D4F8F43AFBB1590709D523F05D
:101EA8000403C4F8F43A00217320FFF799FA0420D8
:101EB800D0E7DA0707D523F00103B4F8101BC4F8FC
:101EC800F43A4620F1E798070FD523F00203B4F857
:101ED800141BC4F8F43A5020E7E7D4F87C3AD4F855
:101EE800EC2A9B1AB3F5FA6FC8D810BDD4F87C3A1F
:101EF800D4F8E82A9B1AB3F57A7FF5E77620002113
:101F0800FFF76EFAD4F87C3AC4F8EC3A0620A1E759
:101F1800FFF732FF20B30023C4F8F03AFEF720FEA3
:101F28000228ABD1D4F8F43AD90709D4D4F8181B4D
:101F3800D4F8102B91421CBF43F00103C4F8F43AC3
:101F4800D4F8F43A9A0709D4D4F81C1BD4F8142B03
:101F580091421CBF43F00203C4F8F43A032079E726
:101F6800D4F87C3AD4F8E82A9B1AB3F57A7FBCD91E
:101F7800D4F8F03A0133032BC4F8F03A88DC7DE753
:101F880000090020F7B5464C94F8503D07460E4628
:101F9800002B4FD1D4F8545D002D4BD0B4F8582BFA
:101FA80094F85A3BA4F8582DD4F88C2984F85A3D53
:101FB800B4F85C3BA4F85C3D500794F85E3B94F899
:101FC800581B84F85E3D0BD494F8680D40B9012B7A
:101FD80003D0022B04D1130702D4012384F85A3DFD
:101FE80094F8983D012B27D0022B43D083B92B6856
:101FF800DB696BB10DF107012846984740B194F8A9
:102008005A1D9DF807308B4202D028461CF0D9FD96
:102018002B68196819B13A4633462846884794F818
:10202800983D03220133B3FBF2F202EB42029B1A02
:1020380084F8983D03B0F0BD0029E9D02B689B696E
:10204800002BE5D00DF107020DF10601284698474F
:102058000028DDD094F8581D9DF8063094F8592DC5
:102068008B4203D19DF807309342D1D028461CF00B
:10207800B6FDCDE70DF1070128461CF095FD0028B7
:10208800C6D094F8993D002BC2D09DF807300021A6
:1020980084F8991D002BBBD028461CF08CFDB7E7AF
:1020A800000900202DE9F843B44CD4F8983B002BE4
:1020B80000F02A8140F21112934200F02981BDE814
:1020C800F8832A2802D02C2840F0418194F89B3DBF
:1020D80094F89A9D0022E254B9F1000F32D13146AA
:1020E800284684F89D9D26F00DFC20B139462846E7
:1020F80026F008FCC8B9012384F89D3D09F10109BF
:102108000023B8F12A0F84F89A9D84F89B3D40F08B
:102118002B81012384F8C43D04E1002384F89A3D0F
:1021280084F89B3D84F89C3DFCE09549284626F0C0
:10213800E9FB28B19349284626F0E4FB0028DDD1C5
:102148000223D9E794F89D3D012B1BD0022BD5D152
:1021580009F1FF33082BD1D801A252F823F000BFB0
:10216800172200080521000805210008052100089C
:102178000521000805210008232200083D22000847
:1021880049220008A9F10203072BB7D8DFE803F0BA
:102198000409121720282E37FDF7F2FFC4F8A40D02
:1021A800ACE72378532BA9D1D4F8A43D5B42C4F8FB
:1021B800A43DA3E7FDF7E4FFC4F8A80D9EE7237844
:1021C800572B9BD1D4F8A83D5B42C4F8A83D95E7AE
:1021D8002378302B8CBF0123002384F8A03D8DE7A2
:1021E8000020FEF75DF884F8AC0D87E70120FEF7C4
:1021F80057F800EB80004000A4F8B80D7EE70120F6
:10220800FEF74EF80A235843C4F8B00D76E70220CB
:10221800FEF746F8C4F8BC0D70E70120FEF740F859
:1022280041F2184358434FF47A73B0FBF3F0A4F823
:10223800B40D63E70120FEF733F8A4F8B60D5DE7A7
:102248000020FEF72DF8C4F8C00D57E794F8C43DF8
:10225800002B67D023786278402B85BF373B1B0162
:102268001B01DBB298BF03F0F003402A8CBF373A5A
:10227800303AD2B2134494F89C2DDBB29A4240F023
:10228800D380D4F8D43D0133C4F8D43D94F89D3DAF
:10229800012B03D0022B7BD000233BE794F8AC3D05
:1022A80084F8203C94F8A03D002B64D0022384F8E5
:1022B8001F3CD4F8A43DC4F8243CD4F8A83DC4F885
:1022C800283CD4F8B03DC4F82C3CB4F8B83D42F2F0
:1022D8000F72194693424FEA430328BF11469342AF
:1022E80028BF13469BB2A4F8403CA4F8423C002304
:1022F800A4F8441C84F81D3C002384F8C43DA4F8C9
:102308001A3C012384F8943B40F21113C4F8983B1B
:10231800D4F8FC0C1CF0E1FD00283FF4D0AE1A4EB6
:10232800164D1A4FD4F8FC0C1CF0D7FD0028EBD042
:10233800D4F8FC0C1CF0CBFD242880463FF4EDAE0D
:102348003FF6BFAE0A2881D00D283FF47FAF94F83E
:102358009B3D0E2BE6D85A1C04F8038094F8C43D24
:1023680084F89B2D002BDDD194F89C0D88EA000899
:1023780084F89C8DD6E784F81F3CBDE7000900204F
:10238800980903089E0903088C09030892090308A1
:10239800D4F8C01DD4F8B43DC4F83C3C00293FD063
:1023A800D4F8BC2DE2B36423B1FBF3FC03FB1C108F
:1023B80000F5FA60A4F8460CBCFBF3F003FB10C070
:1023C80084F8480C42F21070B1FBF0F1B1FBF3FC59
:1023D80003FB1C1184F8491C1649B2FBF1F1B1FB4F
:1023E800F3FC03FB1C1184F84A1CB2FBF0F1B1FBAF
:1023F800F3F003FB1011B2FBF3F002F0640284F86F
:102408004B1C02EB8202B0FBF3F103FB110384F8CF
:102418004C3C52000123A4F84E2C84F81E3C3BE7A8
:10242800002384F81E3C75E6D4F8CC3D0133C4F88B
:10243800CC3D31E740420F004209012300F01F0064
:10244800022A03FA00F008D0032A0BD09A420DD1D1
:10245800074B5A69104358617047054B9A691043F6
:1024680098617047024BDA691043D861704700BF22
:102478000010024070B583890A444FF47A734FF60E
:10248800FF74FF25914201D1012016E00689B607A5
:102498000AD505734FF47A730689F6070ED4013B03
:1024A8009BB2A342F8D103E0013B9BB2A342EDD11A
:1024B80026F0EAF9003818BF012070BD067B01F844
:1024C800016BDFE72DE9F341044618079DF82070FA
:1024D8000D46164603F0010817D503F01103002B2B
:1024E80014BF4E213E211CB14FF4E163E3802772F3
:1024F800072220461CF0AEFDB8F1000F25D120467A
:1025080002B0BDE8F0411CF036BEB8F1000F14BFB0
:102518004E212E21B2070AD51CB14FF4A163E380E6
:1025280027720722204601911CF094FD0199F307B8
:102538000BD51DB14FF4C163EB802F7207222846DB
:1025480002B0BDE8F0411CF085BD02B0BDE8F081E5
:1025580010B526F0ADF84FF43024012806D10CB997
:10256800052010BD26F0A4F8013CF6E7002C08BFB2
:102578000520F6E710B503681B680446587990B142
:10258800032140B21DF0D1FD23681B685A7993F9E5
:102598000530002B07DB02F01F0101228A405B098E
:1025A8000D4941F8232023681B68987990B10321CD
:1025B80040B21DF0BAFD23681B689A7993F906307A
:1025C800002B07DB02F01F0101228A405B09024948
:1025D80041F8232010BD00BF00E100E02DE9F047DD
:1025E80090B0DDE9184A0D460746904600213C2286
:1025F80001A899461A9E29F0CAFC344B02938DF81B
:102608000450CDF834A0002D55D0022D55D0032DFF
:1026180055D0042D55D103232D4A02EB430393F8DB
:1026280069368DF805302B4B0394D3F87C2A06972E
:1026380014440122CDE904468DF831201E46B8F134
:10264800000F06D04A46414607A829F078FC8DF8C5
:10265800309096F81AEE0023BEF1010F0E931FD8A2
:102668000DF1040ABAE80F0096F819CE3C2404FBD1
:102678000C6404F61C640FC4BAE80F000FC4BAE86F
:102688000F000FC49AE80700BCFA8CFC0EF1010E8B
:102698004FEA5C1C84E8070086F81AEE86F819CE23
:1026A8003B6883B14B4642462946384610B0BDE8E0
:1026B800F0470BF01FBF2B46AEE70123ACE7022320
:1026C800AAE70023ADE710B0BDE8F087D8160020D0
:1026D80088C0020800090020031EB8BF2D2210B5CB
:1026E800B8BF58420C46AEBF0A2201F8012B0A2295
:1026F80022F0DEFF00230370204610BD2DE9F04FC5
:10270800C14C2DED048BD4F8503C8BB0002B00F05D
:102718001E829FEDBB8BBD4DD4F8500C1CF0DDFB29
:1027280018BBB4F8802C092A0CD9B4F8821C64238D
:102738004B43B3FBF2F3452B40F37E81A4F8800CA6
:10274800A4F8820C94F8F86E012E00F0A181022EF4
:1027580000F00282002E40F0E181AD480521FEF72D
:1027680053FB012384F8F83ED8E1D4F8500C1CF050
:10277800AEFB94F8983E8046052BCDD8DFE803F0F1
:10278800030914182C39AA28C6D1012384F8983EC5
:10279800C2E7552801D10223F8E7B4F8843C013395
:1027A800A4F8843C0023F1E784F8990E0323EDE7AD
:1027B800132884F89A0EC4F8B40E05DDB4F8863CE4
:1027C8000133A4F8863CEDE708B90523DEE70023CA
:1027D800C4F8B83E0423D9E7D4F8B83EE218013368
:1027E80082F89B0ED4F8B42EC4F8B83E934293D125
:1027F800EBE7D4F8B47E8748023779B2FEF71EFBC0
:10280800804594F8996E40F00F8194F8943CB34257
:1028180019D1002384F8943C731E102B00F2FE801B
:10282800DFE813F01D0080008000DB008000FC0062
:10283800FC00FC001D00FC00FC00FC00FC00FC008F
:10284800FC00FC001D00092E01D0112E01D1012B26
:10285800DFD0B4F88A3C0133A4F88A3CDCE7062FC1
:1028680060DD012E03D0092E0CBF0226032694F842
:102878009D2E94F89E1E94F89F9E94F99B3E94F981
:102888009DBE019349EA0129900785F8393085F8FA
:10289800386094F89C3E85F83BB0A5F83C9006D586
:1028A80012F00C0F14BF0122002285F84020032EDD
:1028B80040F08F80092F35DD94F9A18EB8F1050F0E
:1028C800A8BF4FF0050828EAE8785FFA88F385F88A
:1028D800423085F88A304FF0000AB2EE049A4FFA77
:1028E8008AF7474524DB002394F8A07E85F83A3020
:1028F80019461A464245104660DB0BB185F83A1076
:1029080094F8D53E0C2B0DD1642303FB06B6019B2E
:10291800C4F8DC3E95F93A30C4F8D86EC4F8E09EA5
:10292800C4F8E43EB4F8823C0133A4F8823C39E7A9
:10293800E31905EBC70193F8A32EA1F8482007EE89
:10294800902AF8EEE77AFB00C7EE897A0793069299
:1029580017EE900A26F04CF9B0EE480AF0EE680A35
:1029680041EC110B27F094F951EC100B26F098FC70
:10297800069A079B0E2A80B20AD919303222B0FB78
:10298800F2F080B200EB800000EB8000400080B2E3
:102998002B44052F58640EDC08A9FFF79DFE1E4A3C
:1029A80007EB8703134408A9184629F014FB05EB25
:1029B8008707C7F8A0000AF1010A90E705EBC000F5
:1029C8000132B0F9480052B2874204BF11460123D0
:1029D80090E7013385F83A3092E7042FA2DD94F8A6
:1029E8009B2E94F89C3E43EA022359041AB203D55D
:1029F800C3F30D03EB8795E7002AF9DBAB8791E773
:102A08000000000000002440000900200000002011
:102A1800BA00002099170020BC170020B4F88C3C9D
:102A28000133A4F88C3C7DE7F2075EBFB4F8883C1C
:102A38000133A4F8883CB5E65C4BD3F8B420B3F86E
:102A4800B810012A1DD141F25632914203D14FF0FC
:102A5800FF32C3F8B420D3F8B420D4F8500C02EBFA
:102A6800820202EB820201EB420189B2A3F8B8109C
:102A780003681B6998470023A4F8803CA4F8823CAB
:102A880060E60132E7D1B1F5965FE4D10122E0E7D3
:102A9800464D95F83830002B40D0022B39D105F13E
:102AA800BF0800234FF040090621404685F8C4308E
:102AB80085F8C390FEF7C2F995F83B3085F8C50054
:102AC800DB0718D4AB8FB3F5804F14D1384FD5F846
:102AD800BF30C4F8F93EC3B2BB710621384684F84A
:102AE800FD9E84F8FE6EFEF7A9F9072184F8FF0E13
:102AF8003846FEF789F92F480721FEF785F90223A2
:102B080084F8F83E95F83B30C3F3400385F840302D
:102B180004E00322012B84F8F82EF3D894F8943CAF
:102B2800D4F87C5AF3B12449D1E90021AB1A0293B5
:102B380061EB41030393DDE90223002B08BF792AE7
:102B480010D3D4F8900CFEF793FAC4F8005F0BB0DA
:102B5800BDEC048BBDE8F08F144BDB8F002BDDD070
:102B68000323FFE594F8622B94F8633B9A4202D062
:102B7800FEF7ACFAE9E7D4F8003FEB1AB3F57A7F31
:102B8800E5D20D4AD2E90032EB1A049362EB420314
:102B98000593DDE90434002C08BF962BD7D30748EA
:102BA8000521FEF731F9FEF791FAD0E70000002081
:102BB800F9170020BF00002078150020BA00002077
:102BC8002DE9F04F89B08046894614461D460027F6
:102BD80005AE217881B3252907D0B8F1FF3F01D090
:102BE8004046C84701340137F3E761782D2907BF0C
:102BF800A17803340234002308BF0123302908BF19
:102C080014F8011BA1F130020CBF4FF0010B4FF07B
:102C1800000B092A4FF0000A17D96C2940F08C8064
:102C280014F8012B642A00F09E8029D8252A00F088
:102C38008F8018D8002ACCD1384609B0BDE8F08F6B
:102C48000A2214F8011B02FB0A0A084603930291A0
:102C580022F042FD0A28DDE90213F1D9002BDCD06D
:102C6800CAF1000AD9E7582A3AD0632AB1D1B8F193
:102C7800FF3FB8D055F8041BC9B24046C847B2E771
:102C8800662A4CD0A2F16E03D9B20A29A1D80A2B20
:102C98009FD801A151F823F01F2D0008DB2B000855
:102CA800DB2B0008DB2B0008DB2B0008032D0008BA
:102CB800DB2B0008CD2C0008DB2B0008DB2B0008E1
:102CC800E92C0008334600220A2155F8040B58E085
:102CD800334600220A2155F8040B23F09BFB52E0EF
:102CE800A2F158004242334642411021EDE75839DB
:102CF8004A424A4133461021EDE755F8043B019317
:102D08000023009353464A464FF0FF31404624F0D3
:102D180095F807445DE755F8043B1F6059E7073508
:102D280025F00705F5E8020126F06AFA00EE100A18
:102D3800304622F021F826E06629F0D026D8582916
:102D4800D5D00BD800293FF477AF25297FF441AFC0
:102D5800B8F1FF3F3FF447AF25218EE7632986D0BE
:102D680064297FF436AF55F8040B0028BFBF2D2324
:102D78008DF8143040420DF11503A8BF33460022E8
:102D88000A2123F047FBCDE900B6BBE7A1F16E03AA
:102D9800DAB20A2A3FF61DAF0A2B3FF61AAF01A294
:102DA80052F823F01F2D0008DB2B0008DB2B00084E
:102DB800DB2B0008DB2B0008032D0008DB2B0008A9
:102DC800D92C0008DB2B0008DB2B0008F72C0008A7
:102DD8000CB470B52C4CD4F8043FADF5267D13B96E
:102DE800D4F8083F6BB3D4F87C1A4FF47A7306A86A
:102DF800B1FBF3F203FB1213244923F0EAFF06ABFD
:102E08000344AA9A224900930546ABAB684601934E
:102E1800FFF7D6FE009B591C00910A211970009BF0
:102E2800591C0091002119700246D4F8040F70B1A2
:102E38000268126A02B19047D4F8040F06A91CF080
:102E48006DF80DF5267DBDE8704002B07047D4F8E6
:102E5800084F002CF5D0A6AB2A44CDE9040026AED5
:102E6800039306A9FD2302A80232ADF8103002969A
:102E780023F087FF029B022202A92046CDE90263C4
:102E88000BF0E2F9DDE700BF00090020A409030800
:102E9800F967020810B5084A0023114614798442DC
:102EA80003D1142000FB031010BD01330A2B02F1DB
:102EB8001402F3D10020F7E7F8C60208074B084AC6
:102EC800C3F82C2FD3F83C3F4FF478719A1E223365
:102ED80022F8021F9A42FBD1704700BF0009002068
:102EE80039B7000870B50E4C05460C2694F8483FD3
:102EF800032B01D9002011E05A1C06FB034384F878
:102F0800482FD3F84C2FD107F0D51542EED093F9BE
:102F1800500F0DF059FA0028E8D0406870BD00BF86
:102F280000090020024B002283F8482FDAE700BF8F
:102F38000009002030B5002351F8234052F82350EF
:102F4800641B40F823400133032BF5D130BD2DE934
:102F5800F04180468CB00846154623F073FE4FF4C6
:102F68007A72002307460E4626F0C8FA3C2405FB71
:102F78000404314638464FF47A72002326F0BEFA2C
:102F8800002796B24FF47A73C3FB04673B46324678
:102F980009A823F0F7FD6A4B93F8823F012B65D00F
:102FA800022B00F0918032463B4609A823F0EAFD47
:102FB8003C2195FBF1F31AB201FB13531BB2BDF888
:102FC8002410002BB8BF5B42B1F5FA6F9BB21BD33C
:102FD8009DF8261001390B2916D89DF827100139BC
:102FE8001E2911D89DF8281017290DD89DF82910E9
:102FF8003B2909D89DF82A103B2905D8BDF82C1083
:10300800B1F57A7FC0F0998000204E490991ADF85A
:1030180028008DF82A00ADF82C000446079382EAB0
:10302800E2739DF828009DF829609DF82A70BDF884
:103038002CC09DF82710009115F13B0FA3EBE2730C
:10304800B4BF2D252B259BB2CDE90553CDE901064B
:10305800CDE9037C9DF82630BDF824203A49404646
:1030680023F0B7FE20460CB0BDE8F0819DF826405D
:10307800E31E072B97D8231F052B0DD9BDF8240075
:10308800214623F02CFD9DF8273098420DD0E11EF3
:1030980018BF0121002986D02C4B3C35F6184FF07B
:1030A80000032DB243EB07077DE7032C03D19DF8FE
:1030B80028100039ECE70A2C7FF475AF9DF828102A
:1030C800B1FA81F14909E5E79DF82640E31E082B8E
:1030D8003FF669AF231F062BDED9BDF82400214631
:1030E80023F0FDFC032C12D10E280ADC9DF82730B2
:1030F800984208D19DF82810012994BF0021012188
:10310800C8E70738F0E7B4BF01210021C2E70B2C5C
:103118007FF449AF07280ADC9DF82730984208D188
:103128009DF8281001298CBF00210121B2E707383A
:10313800F0E7CCBF01210021ACE701246EE700BF16
:103148000009002000000101B009030880EE3600E4
:1031580008B504481DF08BFEBDE8084002481EF083
:1031680017BC00BFDE090308EA0903080C4608B5C6
:1031780005460DF09FF820460DF09CF80021084602
:103188001CF068FC002101201CF064FC28461BF0A0
:10319800A4FE70B1012100201CF05CFC28461BF045
:1031A80096FE014620461BF09BFE002108461CF0B7
:1031B80051FC20461BF091FE0028E7D00121002099
:1031C8001CF048FC20461BF082FE014628461BF0F6
:1031D80087FE00210846D7E71FB5324901A891F8B4
:1031E8003520783109F069FE0398019A80EAE07386
:1031F800A3EBE07307EE903AF8EEE77AF7EE086A89
:10320800C7EEA65A82EAE273A3EBE27307EE103A1E
:10321800B8EEC77A029BF4EEC75AF1EE10FA13DD46
:1032280083EAE371A1EBE37106EE101AB8EEC66A01
:10323800F4EEC65AF1EE10FA06DD0028CCBF0020E5
:10324800012005B05DF804FBC7EE265A83EAE37156
:10325800A1EBE37106EE101AB8EEC66AF4EEC65A90
:10326800F1EE10FA09DDF4EEE57AF1EE10FA04D584
:10327800002ACCBF02200320E3E7C6EE265AB4EEAC
:10328800E57AF1EE10FA09D5F4EEE57AF1EE10FAE6
:1032980004D5002BCCBF04200520D2E74FF0FF3027
:1032A800CFE700BF0000001030B52849DFED286ADD
:1032B80091F8842FD1F8A85F01EB4204013202F0A3
:1032C8000F0281F8842F91F8C42FB4F8863FA4F830
:1032D800860F07EE102AB8EEC77A91F8C52F27EEA9
:1032E800267AC31AFDEEC77A2B4417EE900A07EE2A
:1032F800902AF8EEE77AC1F8A83F67EEA67A1B098C
:10330800FDEEE77AA1F8AC3F17EE902A90420FDD68
:103318009BB29A42D4BF9B1A00239842A6BFC31AF5
:103328009BB20023A1F8AC3F034617EE900A1A4659
:10333800B1F8AC3F1B1AC3EB8323121A93FBF2F2CA
:1033480082F30A02A1F8AC2F30BD00BF00090020AB
:1033580014AE234130B51A4DD5ED227A89B0F1EE7D
:10336800677ACDED057AD5ED237A00230093F1EE47
:10337800677A0B680193CDED067A4B68D5ED247A10
:1033880002938B6803930446D5F884300493F1EED6
:10339800677A6A4604A96846CDED077A0EF09EF969
:1033A800694605F1840208460EF098F9019B2360EE
:1033B800029B6360039BA360204609B030BD00BF39
:1033C8000000001038B502782DED088B70EE609A79
:1033D800D0ED01AA044669EEAAAAB0EE40AAB0EE62
:1033E800419AF0EE618AB0EE42BA0D46F0EE62BA4A
:1033F80001F001034AB1002B0CBFF0EE607AF0EE49
:10340800697A0022C0ED0B7A0270D4ED0B7A002B9A
:1034180062D079EEE77AF0EE690A87EE890AC4EDA0
:103428000B0AD4ED090A94ED038AF5EEC00AF1EE11
:1034380010FA05DDB0EE491A04F1180023F02CFA51
:1034480020EE088A94ED0A7A94ED050A68EE2B2A94
:103458007AEE877A2AEE00AA77EEA27A77EE8A7A4F
:10346800F4EEE87AF1EE10FA08D4F4EECB7AF1EE45
:1034780010FAD4BFF0EE678AF0EE4B8AD4ED026AF8
:1034880094ED046AC4ED0DAA69EEA69AF0EE476AB7
:10349800E9EE296A6B0778EEE77A84ED0C7A67EE35
:1034A800867AC4ED0E2AE9EE276A84ED0FAAC4EDE8
:1034B800108AF0EE667A08D5F0EEE66AB0EEC77AC2
:1034C800F4EEC76AF1EE10FA01D5C4ED0A7AB0EE4F
:1034D800680ABDEC088B38BD70EEE77AF1EE677AC2
:1034E80087EE890A9BE710B588B0002300930B6824
:1034F80001934B6802938B6815490393D1ED227AA7
:10350800D1F884300493F1EE677ACDED057AD1EDE8
:10351800237AF1EE677ACDED067AD1ED247A044666
:10352800F1EE677A6A4684316846CDED077A0EF087
:10353800D5F8694604AA08460EF0D0F8019B236026
:10354800029B6360039BA360204608B010BD00BFC8
:103558000000001010B5204C94ED220AD4ED217A19
:1035680020EE000AA7EEA70AD4ED237AA7EEA70A51
:10357800D4ED247AA7EEA70A26F0EAFEDFED177A43
:10358800B4EEE70AF1EE10FA0CD54FF07E53C4F80A
:1035980084300023C4F88830C4F88C30C4F89030E4
:1035A8000F4810BD94ED217AC7EE007A94ED227A87
:1035B800C4ED217AC7EE007A94ED237AC4ED227A1D
:1035C800C7EE007A94ED247AC4ED237AC7EE007A28
:1035D800C4ED247AE4E700BF00000010BD3786354B
:1035E8008400001030B5D0F8D010ADF50B7D00F197
:1035F8000A0206920A448AAB0792B0F8D6200393CF
:10360800ADF820204FF6FF7390F8D520ADF81030B4
:10361800044600230AAD8DF8222002A901AA06A8B3
:1036280002958DF81230ADF81430ADF824300193BE
:1036380011F09AFF40B1029B94F8D42002A92046C9
:10364800CDE902530AF000FE0198002363720DF5DC
:103658000B7D30BD054991F8DB2F0023042A036058
:1036680028BF042201F57E6128F069BC000900200A
:1036780010B4074991F8DB2F00240480022A5DF872
:10368800044B28BF022201F57E6128F058BC00BF18
:1036980000090020F8B5204C1D270E46054604F801
:1036A800107C0BF035FA00200BF0B8F908200BF06D
:1036B800B5F90E200BF0B2F938460BF0AFF904203B
:1036C8000BF0ACF904200BF0A9F900200BF0A6F9D7
:1036D80030200BF0A3F900200BF0A0F930460BF0D6
:1036E8009DF900200BF09AF90BF0F0F9A4F10F0006
:1036F8000BF0F8F8234670B114F80F2C52B914F8EF
:103708000E2C302A00D02AB913F80D2C12B913F850
:103718000C3C2B700120F8BDF819002010B50246AA
:10372800041D0020A24200D110BD12F8013B08215F
:10373800584010F0800F4FEA400318BF83F0310360
:103748000139D8B2F5D1EDE7036813F0400004D091
:1037580013F4057F14BF0120002070472DE9FF41B5
:10376800214D224C05F126080746C4F83C5FC4F8F1
:10377800408FFFF7A3FB122384F8103F42F6F8208E
:1037880004F571630021C3E90201194BC4F8303F05
:1037980040200CF0F7FD024618B3FFF7D5FF0646A8
:1037A80092F9040094F8B62F94F8B71F0097002EEA
:1037B80014BF03230123002A0CBF07220622012974
:1037C8000CBF082100210A43CDE901324021094AF2
:1037D8004346023D0CF00AFE06B1A866003818BF41
:1037E800012004B0BDE8F081FA190020000900208A
:1037F8007B95000805B30008F0B5BB4CE66E94F85D
:10380800707085B06EB13046FFF79EFF48B157BB68
:10381800A36E43B3B54AC2F89C3C012384F87030C8
:1038280021E094F87100FDF781FD874205461AD022
:10383800002800F0FD80B6B1AC4D96F9040095F86B
:10384800B539B3FA83F35B09029302264FF4165392
:10385800CDE9003600231A4604210CF0C7FDC5F84F
:103868009C0C0028D9D194F87200FDF75FFD94F8FC
:103878007330834205461CD0002800F0E380626F55
:10388800BAB19A4B92F9040093F8BC39002B18BFCF
:103898000823029303254FF49643CDE9003500230E
:1038A8001A4608210CF0A2FDA06710B1012384F884
:1038B800733094F87C30012B28D194F87D00FDF703
:1038C80035FDD4F880300546002800F0C280EBB9F9
:1038D800D4F88400D0B1854990F9040091F8BC2946
:1038E80091F8B519002A14BF08220022002908BF40
:1038F80042F00102029203214FF46142CDE9002116
:103908001A4620210CF072FDC4F88000D4F88860B3
:1039180094F88C70002E00F0A5803046FFF714FF55
:10392800002800F09F8047B9A36E33B1C4F89030E7
:10393800FCF720FD012384F88C3094F89600FDF7FD
:10394800F5FC94F89730834205463AD0002800F0F9
:10395800D580D4F89830D3B11A7A93F904000321AA
:103968000023002ACDE90113614908BF072201EBB2
:1039780082024FF48071D2F8382700921A460CF070
:1039880035FDC4F89C0010B1012384F89730574ADC
:10399800584B92F8E61983F8C81092F8E71983F89B
:1039A800C91092F8E81983F8CC1092F8E91983F84D
:1039B800D01092F8EA1992F8EB2983F8D11083F81D
:1039C800D22094F8A000FDF7B1FC94F8A13083420E
:1039D80005462BD0002800F09A80464B4FF4FA7227
:1039E800C3F8B423D4F8A43003B31A6802F41072ED
:1039F800B2F5107F1AD093F9040008220323CDE909
:103A080001324FF4E133009300231A464FF400715A
:103A18000CF0ECFCC4F8A80040B1344BC3F8980C87
:103A2800012384F8A130002384F8AC3005B0F0BD40
:103A38002E4ED6F89C0C0CF048FCC6F89C5C84F81A
:103A4800705010E7A06F0CF040FCA56784F8735025
:103A58002FE7002B3FF45AAF18460CF036FCC4F899
:103A6800805053E794F89400FDF760FC87420546C0
:103A78003FF463AF78B3FCF77DFC002E3FF45DAFF5
:103A8800317A31B302291FD1184B93F8BF2912B9E3
:103A9800184AC3F8EC290025022396F90400CDE959
:103AA8000135134B03EB81012A46D1F838370093CF
:103AB80010212B460CF09AFCC4F8900000283FF423
:103AC8003CAF84F8955035E70129E4D1074B0A4A01
:103AD800DFE70521DFE7D4F890000CF0F6FBC4F827
:103AE800905084F88C5028E7F8190020000900202D
:103AF80088C00208000000200A000020D4F89C00BA
:103B08000CF0E3FBC4F89C5084F8975059E7D4F8BC
:103B1800A8000CF0DAFBC4F8A85084F8A15085E797
:103B280037B50446A4F17D03012B0D4610460ED887
:103B38007D2101921BF0D4F9019884F020011BF03B
:103B4800CFF915B1288804442C8003B030BD214634
:103B5800F5E773B504460D46ADF80620C61D14F802
:103B6800010B2A460DF10601FFF7DAFFA642F6D14E
:103B78000DF1060009F0A2FF9DF806002A46002173
:103B8800FFF7CEFF02B070BD024B0022D3F88010C1
:103B9800DFE700BFF81900202DE9F04F4D4ADFF8A4
:103BA80038E183B0C31D03F4FC7300AFD2F8A84911
:103BB800ADEB030DC7F800D025689EF8AD30AC46D4
:103BC800D2F8A0590E46591C6844C9B2AC45E8461B
:103BD80078609246754603F00F038EF8AD1038D121
:103BE800B4F90C2043F01003002A4146B8BF43F053
:103BF800200301F8023B08F101023A60D4E90023EE
:103C08009B1A396088F801303B68D4E90012A0EBB0
:103C180003095FFA89F9521A09F107035FFA82FB6F
:103C280003F4FC73CB45ADEB030D18D34A46684645
:103C380028F085F923684B4423604A46694638468C
:103C480023F09FF84046B04701200C37BD46BDE839
:103C5800F08F0DF101023A608DF80030D4E75A4632
:103C6800684628F06CF923685B4423605A46694625
:103C7800384623F086F8DAF8A829DAF8A039216856
:103C8800127AC4E90031CB1A5340DBB285F8AE3062
:103C980000202268914212D108B185F8AE303B6805
:103CA80095F8AE20591C39601A700021D7E9002315
:103CB8009B1A012B09DC4046B0470020C5E7501C81
:103CC8002060127801205340E3E7531C3B601170D9
:103CD800ECE700BF00090020F81900202DE9F04F9B
:103CE800704C714E83B0D4F8A829D2E900239B1AEE
:103CF800002BC4BF002386F8AF3096F8AF3000AF72
:103D080093B96A4AC4F89C2902F18005C4F8A459F9
:103D180002F19005C6E99055C6E94C2202F5C87231
:103D2800C4F8A059C4F8A8290144421CC4F8981939
:103D3800C4F894290278D4F8A4595109012905D066
:103D480000210846FCF7FAFA01204EE002F00F0ABB
:103D580012F010023DD0831CC4F89439C31C90F8AB
:103D680001C0C4F8943900228378AA81D4F89C2928
:103D78002B812A6083EA0C0362446A6086F8503219
:103D880086F8AF10D5E90032D4F89489A2EB03097C
:103D9800D4F89829A2EB08025FFA82FB0BF107031B
:103DA8005FFA89F903F4FC73D945ADEB030D20D311
:103DB8005A464146684628F0C2F808EB0B01C4F899
:103DC80094195A466946284622F0DBFF86F851A224
:103DD8000AE0002B64D096F85132013303F00F0348
:103DE8005345CFD086F8AF2000200C37BD46BDE83C
:103DF800F08F4A464146684628F0A1F808EB0901C9
:103E0800C4F89419284669464A4622F0BAFFD4F8FD
:103E18009C392868C5E9003096F8503200212A6894
:103E2800904211D109B186F85032D4F894391978F2
:103E380096F8503299424FF0000386F8AF3009D017
:103E4800B5F9081001207DE7511C2960127801217D
:103E58005340E4E7D4F89C19D4F8A409C5E9001242
:103E6800D4F8A819D4F8A0294A600B818B813A1D8F
:103E78007B6011F079FB013006D1D4F8A8291368CA
:103E8800591C116002221A707B680BB100209847F8
:103E9800D4F8A839D4F8A0291968C3E9002153E750
:103EA8001846A2E700090020F8190020A81A0020E7
:103EB800F0B5114D95F85542C3B0A61D324605F52B
:103EC8001571684628F03BF8B5F852320DF80630FF
:103ED8000DEB06021B0A04F1080653706C46002716
:103EE80014F8011BD5F89C0001371AF0F9FFBE42FF
:103EF800F6DC43B0F0BD00BFF81900200C4B0344BA
:103F080093F8C63093B10B4A024492F8621351B940
:103F1800322B28BF322318463223B3FBF0F082F845
:103F2800620301207047013982F86213002070474C
:103F380000000020F81900200A88504080EA00108C
:103F4800C0B2030983EA122343EA002383EAC000CC
:103F5800088070472DE9F743284C1F46FE2384F854
:103F6800543294F8763384F85632013384F8763331
:103F78004FF6FF73164684F8552284F8570284F8E2
:103F88005812ADF80630062504F25528013DADB2A9
:103F98003DBBDFF87080BDF8063094F85552A4F8A0
:103FA80052324FF6FF79A8F10801013DADB24D45F7
:103FB8001ED138461249FFF7BFFF94F85532B4F8BE
:103FC8005222234406F1080083F85A2294F8553205
:103FD800B4F852222344120A83F85B2203B0BDE8E6
:103FE800F08318F8010B0DF10601FFF7A5FFCDE7E7
:103FF80018F8010BFFF7A0FFD7E700BFF81900205A
:104008004A1C0020521C002017B48DF805308DF88A
:1040180004200A4BBDF804209DF81040A3F85A224A
:104028002F2283F8592283F85C42032299238DF8C2
:10403800064003B05DF8044B8CE700BFF819002078
:1040480010B403680B4900228B420FD8591C016039
:104058001A70094B0268426003F5687101605DF8E7
:10406800044BD3F89000521A1AF03DBF11F8014BD7
:104078006240E9E79B1D0020F8190020074B03F276
:10408800B232426003F2A1320260242283F8A023F4
:1040980003685A1C026054221A707047F8190020ED
:1040A80010B5054CA06F1AF018FF00B910BDA06F2D
:1040B8001AF00DFFF6E700BFF819002010B5054902
:1040C80091F8B24384421CBF81F8B203C1E9EE23E0
:1040D80010BD00BFF819002010B50446C0B2FDF7A6
:1040E80071F8C4F30720BDE81040FDF76BB8034B27
:1040F8005E21D3F89C0C1AF0F3BE00BF0009002023
:1041080038B5074D04465E21D5F89C0C1AF0E8FE38
:10411800D5F89C0C2146BDE838401AF0E1BE00BF36
:104128000009002013B5044601A90068FCF738F916
:104138001320FFF7E5FFBDF90400FFF7CDFF1B20B3
:10414800FFF7DEFFBDF90600FFF7C6FF2320FFF7E4
:10415800D7FF2368002BB4BF53204E20FFF7BCFFC6
:1041680001A96068FCF71CF91220FFF7C9FFBDF927
:104178000400FFF7B1FF1A20FFF7C2FFBDF90600E0
:10418800FFF7AAFF2220FFF7BBFF6368002BB4BF2D
:1041980057204520FFF7A0FF02B010BD38B51D4DD0
:1041A80095F8204CB5F8443C632CA8BF6324012B38
:1041B8002BD940F22622934229D8333B322293FB53
:1041C800F2F3C3F10903642202FB0344D5F88839EA
:1041D800A4B2990744BF04F57A74A4B2DA07D5F8F3
:1041E8008C3944BF04F5FA64A4B25B070BD51520DB
:1041F8000EF02CF938B1D5F8783A13F4016F04BFF2
:1042080004F57A64A4B2204638BD0023D9E709230F
:10421800D7E700BF00090020274BD3F88C19D3F843
:10422800783A21F0704222F07F02002A0CBF012068
:1042380002204A0748BF0430D90744BF0A3080B279
:104248009A0744BF143080B2D90544BF283080B2E1
:104258005A0744BF643080B2190744BFC83080B2DF
:104268009A0644BF00F5C87080B2D90644BF00F56D
:104278007A7080B2DA040FD500F5FA5080B299044A
:1042880042BF00F51C50103080B29A050ED5A0F53B
:10429800C740403880B27047190502D500F5FA606A
:1042A800ECE75A06EBD500F57A60E7E75B05F2D54F
:1042B80000F59C402030EDE70009002038B5036880
:1042C8000B4D591C95F8C02301601A7004684460AE
:1042D80005F2C131641A402CA8BF4024016022466F
:1042E80005F2014027F02BFE85F8414438BD00BF98
:1042F800F8190020036810B5054C5A1C026094F8A0
:10430800C003197023F044F984F8C00310BD00BF3E
:10431800F819002070B506460C468D18AC4200D13D
:1043280070BD14F8011B3046FFF7E4FFF6E738B517
:1043380005460C46090EFFF7DDFFC4F30741284682
:10434800FFF7D8FFC4F307212846FFF7D3FFE1B2F0
:104358002846BDE83840CDE738B505460C46090A79
:10436800FFF7C8FFE1B22846BDE83840C2E7074B6F
:10437800002283F8C02303F20142426003F2C232F2
:104388000260C82283F8C123704700BFF8190020D3
:1043980013B504466846FFF7EAFF009B5A1C0092D3
:1043A8003E221A7068467B21FFF7A4FF6846EA217F
:1043B800FFF7A0FF6846C821FFF79CFF3A22214675
:1043C8006846FFF7A7FF6846FFF778FF02B010BD01
:1043D800034B93F84404831E58425841704700BF6A
:1043E800F819002008B50DF0CFF8074AD2F8741470
:1043F800090605D428B992F87D04003818BF0120B1
:1044080008BD0120FCE700BFF8190020104B93F805
:104418007B2407EE902A012283F890250D4AD2F8D2
:104428007C2AC3F8942503F598614FF4FA62F8EEF4
:10443800677AC3F8982500200022C1ED397A83F8FD
:104448009C25C3F8A025C1F8E800C3F8BC2570472F
:10445800F8190020000900200C4B93F87934012B3F
:1044680003D0022B0AD000207047094BD3F88C39AF
:1044780013F00C0F0CBF012000207047044BD3F839
:104488008C0980F00400C0F380007047F819002000
:10449800000900202DE9F04F2DED028B93B01AF0A2
:1044A8003BFC8B46DF490C90D1F82C3C1193DE4B3A
:1044B800D1F824CCD3F87424D1F8280CCDF83CC01A
:1044C80012F0800F10900C461D4600F01D83D1F8A5
:1044D80088198A0708D4D54A012382F8103513B001
:1044E800BDEC028BBDE8F08F03F5C26ADAF8003044
:1044F8001A46DAF804300D930C9B9E1A0D9BCC4A91
:104508006BEB03070023BB4208BFB2423EBFC74A5A
:10451800012382F81035CB0740F1C98095F878342B
:10452800002B00F0C48095F81836002B40F0BF80AF
:1045380007EE90CA9FEDBF7AF8EEE77AC7EE875A82
:10454800DFEDBD7AF4EEE75AF1EE10FA00F167817B
:10455800DFEDBA7AF4EEE75AF1EE10FA00F35F8174
:1045680007EE900AF8EEE77A87EE875ADFEDB47A1D
:10457800B4EEE75AF1EE10FAB0EE673A00F14F8167
:104588009FEDB06AB4EEC65AF1EE10FA00F3478117
:10459800F2EE047AC5EEA76AAB48252385EE277AA2
:1045A800FDEEE66ADFEDA94A9FEDA94AF8EEE66A54
:1045B800F4EEE45A66EEA76ABDEEC77AF1EE10FA99
:1045C800F4EEC45A8CBFFDEEE64ADFEDA24AB8EE1F
:1045D800C77AF1EE10FAA8BF76EEE76A27EE277AD7
:1045E800B4EEC35AA8BFFDEEE64AF1EE10FAB4EEF7
:1045F800C65AF0EE443A8CBFBDEEC74A9FED964AC4
:10460800F1EE10FAF8EEE46AA8BF37EE677A75EEB5
:10461800E65AA8BFBDEEC74A36EEA37AC7EE274AC8
:10462800BCEEE47A17EE10CAB8EEC47A03FB0C01AC
:1046380037EE066A35EE475AC6EE274A0CFB0333B7
:104648001844BCEEE46AC5EE274A16EE102A8F1805
:1046580097F97C6700EE106A561C0244314492F9BF
:104668007C3706EE103A91F97C3707EE103AB8EE2F
:10467800C00AB8EEC77A304437EE407A90F97C37F2
:10468800A4EE870A07EE103AB8EEC66AB8EEC77A03
:1046980037EE467AA4EE876A85EEA77A36EE406A48
:1046A800A7EE060A0CF09EFF012385F8183694F849
:1046B8003C33002B40F0EB80012384F83C330F9B04
:1046C800C4F84433002BB8BF5B4207EE903A9FED25
:1046D800597A109AC4F84823F8EEE77A119AC4F880
:1046E8004C2387EE870ADFED5D7A20EE270A22F059
:1046F8007FFEDFED5B7AB4EEE70AF1EE10FA00F127
:10470800C380F7EE007AB4EE670AF1EE10FAC8BF7C
:10471800B0EE670A84EDD00A524800220FA9FBF7D1
:1047280083FD424B93F81035002B40F07181DAE994
:1047380000010C9B181A4C4B6BEB0101C31800933A
:1047480041F1FF330193DDE9006700234CF2503259
:10475800BB4208BFB24280F0A380444E10EB06086B
:1047680041F1FF39002749F640464F4508BF464505
:1047780080F098803E4E8619029641F1FF360396E6
:10478800DDE902674FF0000944F62068B94508BF23
:10479800B04580F08980DFF8E8C010EB0C0604967D
:1047A80041F1FF360596DDE904674FF0000942F252
:1047B8001078B94508BFB04578D22E4BC318069378
:1047C80041F1FF330793DDE90667002341F2707278
:1047D800BB4208BFB24280F02F81274BC318089311
:1047E80041F1FF330993DDE9086700234FF47A624A
:1047F800BB4208BFB24280F02281DFF888C010EBCC
:104808000C060A9641F1FF360B96DDE90A67BB42B2
:1048180008BFB2424CD344F62060002148E09FED27
:10482800170A3FE700090020F819002000000020BF
:1048380060E316008096184B0000B4C20000B44232
:10484800000034C30000344388C00208000070C26E
:1048580000007042C4FFFFFF4CFFFFFF35FA8E3C9B
:104868000AD7233CCC1E00201891FCFFE040FDFF36
:1048780070A0FEFFD08AFFFF28A6FFFF00000000FF
:104888003850FFFFB0B9FFFFB0EE670A42E7FFF705
:10489800E3FD00283FF440AF119BC4F84C333BE7DD
:1048A8009D48BAE79D48B8E79D48B6E710461946BF
:1048B80024F0DEFDD4F8247C9FED9A8A9FED9A7A45
:1048C80007EE900A87EAE773A3EBE77367EE888A37
:1048D80007EE903AF8EEE77A87EE870ADFED937AEB
:1048E80020EE270A22F084FDDFED917AB4EEE70A84
:1048F800F1EE10FA00F1A680F7EE007AB4EE670A3E
:10490800F1EE10FAC8BFB0EE670A95F87C24894E1C
:10491800002A00F09A8094F81A3C002B00F0958049
:10492800B4F9363C07EE903AB4F9383CF8EEE77A39
:10493800C6ED087A07EE903AF8EEE77AC6ED097AFE
:1049480094F81B3C002B00F0B180B4F93A3C5B4270
:1049580007EE903AF8EEE77A7749C6ED0A7AD1E998
:10496800002352EA0300894601F1080801F11407FF
:1049780000F0B0800C99881A6BEB030124F078FDE5
:1049880007EE900AD8ED006A97ED016A27EE888A4B
:10499800D7ED007AB0EE667AA8EE277AF0EE477A7D
:1049A80098ED017AB0EE470AA8EE060A77EEE67AA5
:1049B80030EE470A20EE000AA7EEA70A25F0C8FC49
:1049C8009FED5E7ADFED5E7A28EE077AE8EE077AE9
:1049D800B4EEE70AF1EE10FA7CD90123A5F8D03439
:1049E80094F81D3C002B00F08A80B4F8403C07EE98
:1049F800903AB4F8423CF8EE677AC6ED0B7A07EEC7
:104A0800903AF8EE677AC6ED0C7A0C9BC6E9023B41
:104A1800D4F8243CC5F81C36D4F8283C494AC5F8D3
:104A28002036D4F82C3CC5F82436002382F81035FB
:104A38000C9BCAE9003B52E548F23520EDE646F208
:104A4800A810EAE6B0EE670A5FE7D5F81C369FEDD6
:104A58003E6AD5F82016FB1A07EE903AF8EEE77A88
:104A6800D4F8283C67EE867A5B1A87EEA87AD6EDEA
:104A7800087A37EE277A07EE903A20EE060AF8EE23
:104A8800E77AF6EE006A27EE800A27EE267AC0EE6D
:104A9800287A86ED087A96ED097A77EE877A67EEB6
:104AA800A67AC6ED097A002A7FF44AAFD4F82C3CDE
:104AB800D5F824269B1A07EE903AB8EEE77AC7EEA7
:104AC800287A96ED0A7A77EE877AB6EE007A67EE5C
:104AD800877A41E70C9BC9E9003B1C4B93E8070028
:104AE8000C3388E8070093E8070095F8D03485F878
:104AF800D134002387E8070085F8D03470E7144BD9
:104B0800F362144B336380E703F5986300200021B8
:104B1800C3E90201E3E400BF90D00300400D0300A5
:104B2800A0860100BD3786358096184B35FA8E3C35
:104B38000AD7233CB81E0020202000200000FA439A
:104B480000007A43000000202C7D8E3FCC1E002000
:104B5800000048430000FA4338B5264C94F81F2C4F
:104B6800D4F88839022A244A3BD194F8200C92F8C8
:104B78004E16884235D343F00203C4F88839D2F878
:104B880074341E4D43F08003C2F87434FFF782FC7E
:104B9800D5E9002313430FD194F81E3C63B1B4F850
:104BA800463C4BB1164822F04DF8D4F87C3AC01A6E
:104BB80061F10001C5E900014FF47A7007F0D4FAF9
:104BC800D4F8103DD4F80C2D9B1AA4F8C83D012345
:104BD80084F8183C94F8193C83F0010384F8193CD4
:104BE80038BD0021A4F81A1C84F81D1C23F0020308
:104BF800C3E700BF00090020F81900204820002062
:104C08004615002010B5054C94F8583623B1FFF727
:104C1800A3FF002384F8583610BD00BFF819002000
:104C280010B53C4CFDF73EFAD4F8B03BB3F5C97F5C
:104C380050D011DC40F28D12DBB193421BD0D4F876
:104C4800983B002B03DBD4F8B03B002B60DABDE8BF
:104C58001040032007F094BAB3F5D07FEFD194F851
:104C6800943B002BEBD0002384F8943BFFF774FFB0
:104C78003DE0C4F8B02BD4F8FC0C1AF022F9002857
:104C8800DDD0D4F8F43CD4F8FC0CDA78224B9AB393
:104C980094F8062D1A4492F85D2903EB8203D3F8A1
:104CA80038171AF011F994F8063D06210133B3FBC1
:104CB800F1F201FB123384F8063D184BD4F87C2A34
:104CC8009A600022DA606423C4F8C03B4FF4C973C9
:104CD800C4F8B03B114AD4F87C3A92689B1AD4F8CD
:104CE800C02B9342ABDD4FF47A7007F03DFA4FF4D6
:104CF800D073C4F8B03BB2E794F8052D1A4492F883
:104D08005D2903EB8203D3F838171AF0DDF8EAE7D8
:104D180010BD00BF0009002088C00208B0140020A0
:104D280038B5B74CFDF7BEF9D4F8C83BB3F5B27F38
:104D38006FDAB3F5AC7F21DC40F23F12934200F00A
:104D4800C680B3F5A07F37DA40F23112934200F003
:104D5800818040F235118B4200F08C80002B77D097
:104D6800D4F8983B002B04DBD4F8C83B002B80F226
:104D78004581BDE83840032007F002BA6FF4AC72F1
:104D880013440A2BECD801A252F823F0974F0008DD
:104D9800694D0008694D0008B74F0008694D0008C3
:104DA800694D0008694D0008E74F0008694D000883
:104DB800694D0008B74F0008B3F5A87F00F0C2801E
:104DC800B3F5AA7F00F0CE8040F245129342C7D1D6
:104DD8008C4AD4F87C3A92689B1AD4F8D82B934220
:104DE800BEDDD4F8F43C9B78002B40F0A2804FF451
:104DF8007A7007F0B9F94FF4BA73C4F8C83B94F85D
:104E0800943B002BACD0002384F8943BFFF7A4FE1E
:104E1800F1E7B3F5B67F14D0B3F5BA7FEFD0B3F5A9
:104E2800B47F9DD1D4F8FC0C1AF04BF8002897D029
:104E38007549D4F8FC0C1AF071F84FF4B673C4F83D
:104E4800C83BD4F8FC0C1AF03CF80028CFD187E70F
:104E5800C4F8C82BD4F8FC0C1AF033F800283FF437
:104E68007FAFD4F8F43CDB78002B53D040F23513F5
:104E7800C4F8C83BD4F8FC0C1AF023F800283FF417
:104E88006FAF624D94F8063DD4F8FC0C2B4493F8B0
:104E98005D3905EB8303D3F838171AF015F894F841
:104EA800063DD4F8FC0C06210133B3FBF1F201FBFB
:104EB800123384F8063D94F8053D05EB8305D5F8D3
:104EC80064191AF02BF840F23F13C4F8C83BD4F821
:104ED800FC0C19F0F6FF00283FF442AF4B4B94F856
:104EE800052DD4F8FC0C1A4492F85D2903EB8203D3
:104EF800D3F8381719F0E8FF424BD4F87C2A9A60A7
:104F08000022DA606423C4F8D83B40F24513C4F8A1
:104F1800C83B5DE73D4B94F8052DD4F8FC0C1A44CA
:104F280092F85D2903EB8203D3F8381719F0CCFF08
:104F380057E73749D4F8FC0C19F0F0FF4FF4A87381
:104F4800C4F8C83BD4F8FC0C19F0BBFF00283FF4A8
:104F580007AF3049D4F8FC0C19F0E0FF4FF4AA73FE
:104F6800C4F8C83BD4F8FC0C19F0ABFF00283FF498
:104F7800F7AED4F8F43CD4F8FC0C5B78052B27D0BA
:104F8800254919F0CBFF40F25913C4F8C83BD4F8AF
:104F9800FC0C19F096FF00283FF4E2AE1F49D4F844
:104FA800FC0C19F0BBFF4FF4AE73C4F8C83BD4F83F
:104FB800FC0C19F086FF00283FF4D2AE1849D4F84B
:104FC800FC0C19F0ABFF4FF4B473C4F8C83B29E7E5
:104FD800144919F0A3FF4FF4B073C4F8C83BD4F8D0
:104FE800FC0C19F06EFF00283FF4BAAE0E49D4F855
:104FF800FC0C19F093FF40F26313D6E738BD00BFED
:1050080000090020C81400208D0A030888C002087F
:10501800F70903082B0A03083B0A03084B0A03088D
:105028005B0A03086D0A03087D0A030870B5CC4CB7
:10503800D4F8E83B002B00F01D8240F2693293421D
:1050480000F01C82D4F8003C40F2AA32934200F0EF
:10505800538300F38C8240F29E318B4200F03583FB
:1050680000F37282002B00F0D682B3F5657F00F062
:10507800DB82D4F8E83B002B04DBD4F8003C002B9F
:1050880080F2BF86BDE87040032007F079B8B528E4
:1050980040F0FD81002385F85A36012385F85936FA
:1050A800F5E1622801D00023F8E70223F6E703239D
:1050B80085F8593685F85B0685F85C0685F85D063F
:1050C800E5E1042385F8593695F85C3695F85D26B0
:1050D80085F85E060344DBB285F85C36134485F830
:1050E8005D36D4E1052385F8593695F85C3695F890
:1050F8005D26A5F860060344DBB285F85C361344E8
:1051080085F85D36C3E1062385F8593695F85C368F
:1051180095F85D260344DBB285F85C36134485F8C0
:105128005D36B5F8603643EA002080B2B0F5807F7E
:10513800A5F8600605D9D4F8CC3D0133C4F8CC3DB8
:10514800B1E70023A5F86236002840F0A0810723C4
:10515800A4E795F85C3695F85D260344DBB285F83C
:105168005C36134485F85D36B5F86236FF2B9CBF74
:10517800EA1882F86406B5F86026013A9A4208BF30
:10518800072203F1010308BF85F85926A5F86236FE
:105198007DE1082385F8593695F85C36834200F09E
:1051A8007681012385F85A36C5E7002385F85936F4
:1051B80095F85D36834205D0D4F8CC3D0133C4F868
:1051C800CC3D64E1D4F8D43D95F85A260133C4F8AF
:1051D800D43D002A40F05B8195F85E36122B17D833
:1051E800122B00F25481DFE813F0A101910137007E
:1051F8006A00790152017D00BD005201520152013D
:1052080052015201520152015201520152019800B9
:10521800212B40F03C8195F8773603F00303032BEC
:1052280040F09B80B5F8702695F87636A4F8462CA1
:10523800B5F87226A4F8482C84F84C3CB5F87426C6
:10524800D5F86C3693FBF6F3A4F84E3C0123A4F88A
:105258004A2C84F81E3C3FE042F20F70D5F86836BD
:10526800D5F87826C4F8283C0A21D5F86C36B2FB64
:10527800F1F2824228BF0246C4F8243CD5F87436BD
:1052880093FBF1F3C4F82C3CD5F87C36B3FBF1F36F
:10529800834228BF0346A4F8402C95F86427A4F855
:1052A800423C012384F81D3C0AB184F81F2C85F880
:1052B800653795F86637002B00F0E980D2E095F85D
:1052C800690695F8681600F00100FBF7A1FE85F85D
:1052D800640708B984F81F0C95F86537002B00F0AF
:1052E800D680E6E795F86F0695F86E1600F001008F
:1052F800FBF78EFE85F8640708B984F81F0C95F84B
:10530800933684F8203CB5F8903642F20F729342F7
:1053180028BF1346A4F8443CDEE7D5F87836A4F84D
:105328003C3C42F21072D5F87C3693FBF2F3A4F8B9
:105338003E3CD5F86836A4F8363CD5F86C36A4F867
:10534800383CD5F87036A4F83A3C40F20113A4F87A
:105358001A3C012385F86637BEE784F81E2CBBE7A4
:105368000009002095F8790695F8781600F00100F4
:10537800FBF74EFED5F87C36C4F8283CD5F88036C5
:10538800D5F88826C4F8243C42F210710A2392FB0F
:10539800F3F2C4F82C2CD5F8942692FBF3F2A4F877
:1053A800362CD5F8982692FBF3F2A4F8382CD5F8C9
:1053B8009C2692FBF3F2A4F83A2CD5F8A02692FB8F
:1053C800F3F2A4F83C2CD5F8A42692FBF1F242F2B1
:1053D8000F71A4F83E2C95F87B2684F8202CD5F87C
:1053E8008C26B2FBF3F28A4228BF0A46A4F8402C66
:1053F800D5F89026B2FBF3F38B4228BF0B46A4F8EE
:10540800423CB5F8B03685F864078B4228BF0B4696
:10541800A4F8443C40F20113A4F81A3C95F86F36FE
:1054280084F81F0C03F003030122032B84F81D2CBE
:1054380050D1B5F86816A4F8461CB5F86A1695F860
:105448006E36A4F8481CB5F86C16A4F84A1C84F803
:105458004C3CCA49D5F8743684F81E2C93FBF1F3FA
:10546800A4F84E3C002385F8653785F86637012394
:1054780084F8E03B40F26933C4F8E83BD4F8FC0C0C
:1054880019F02BFD00283FF4DDADBD4DBB4ED4F81F
:10549800FC0C19F022FD0028ECD0D4F8FC0C19F013
:1054A80016FD95F85936082BF1D801A252F823F0C9
:1054B80097500008AB500008B7500008CB500008C0
:1054C800ED5000080F5100085B5100089B5100087F
:1054D800B3510008002384F81E3CC3E795F85B36F7
:1054E8000A2B7FF4F9AEA74820F00BF9A64BC4F8B5
:1054F800000D984208D995F86D36322B94BF0023D9
:10550800012385F86737E7E60023FAE794F8193DA1
:10551800002B7FF4E1AE95F8652694F8183D9A4281
:105528007FF4DAAE012384F8193DD5E694F8193DE5
:10553800002B7FF4D1AE95F8652694F8183D9A4271
:105548007FF4CAAE0223EEE740F2A13293427FF421
:1055580090AD8E4AD4F87C3A92689B1AD4F8102CF5
:1055680093427FF786AD94F8063D013368E0B3F5C2
:10557800727F26D0B3F5747F00F08380B3F56F7F18
:105588007FF477ADD4F8001D49B9804AD4F87C3A45
:1055980092689B1AD4F8102C93427FF76AAD94F85E
:1055A800073D012B00F2E280002900F0C080744B17
:1055B8000022C3F86C27C3F868274FF47273C4F845
:1055C800003C6F4DD5F8683740F22932934200F31A
:1055D8007B8140F21132934200F3DE8040F20932BF
:1055E800934212DC40F2F122934200F30D81B3F5AD
:1055F8003A7F0ADAB3F5367F80F23E81002B00F05D
:10560800FF81B3F5347F00F00F82D5F86837002B9F
:10561800BFF62FAD2DE0D4F8F43CDB78002B69D031
:105628004FF46573C4F8003CD4F8FC0C19F049FC3D
:1056380000283FF41EAD4FF4617006F095FD00237D
:1056480084F8063D94F8063D514D052B24D994F86D
:10565800053D2B4493F85D3905EB8305D5F83817DC
:10566800D4F8FC0C19F030FCD4F8F43C9B78002BEF
:1056780054D14FF47A7006F077FD4FF47473C4F880
:10568800003C94F8E03B002B3FF4F3AC002384F893
:10569800E03BFFF761FAF0E72B44D4F8FC0C93F8F1
:1056A8005D3905EB8303D3F8381719F00DFC94F82E
:1056B800053DD4F8FC0C05EB8305D5F87C1919F0E9
:1056C8002DFC40F29E33C4F8003CD4F8FC0C19F0D1
:1056D800F8FB00283FF4CDAC2C4BD4F87C2A9A6018
:1056E8000022DA606423C4F8103C40F2A133C4F805
:1056F800003C2EE7C4F8002CD4F8FC0C19F0E1FBB0
:1057080000283FF4B6AC224B94F8052D1A4492F8C1
:105718005D2903EB8203D3F83817A1E74FF47A70B9
:1057280006F022FD0023C4F8003D84F8073D0A2353
:10573800002584F8B43C042384F8B53C84F8B65CAE
:1057480084F8B75CFBF776FE94F8073DD4F87C2A1A
:10575800013384F8073D0D4BC3E90225C823C4F87B
:10576800103C4FF46F73C4F8003C0BE700297FF43A
:105778001EAF084A0B20FDF72BFB18E740420F002D
:10578800F81900207A2000207F3801000015002039
:1057980088C002089F0A0308A3F21233172B3FF6AA
:1057A80034AF01A252F823F0E95B00081356000851
:1057B80013560008035C0008135600081356000827
:1057C8001D5C00081356000813560008375C0008D3
:1057D8001356000813560008515C000813560008B9
:1057E80013560008135600086B5C0008135600088F
:1057F80013560008895C0008135600081356000861
:105808001356000859590008A3F2F223172B3FF644
:10581800FCAE01A252F823F00D5B000813560008F5
:1058280013560008275B0008135600081356000893
:10583800415B000813560008135600085B5B00081C
:105848001356000813560008755B00081356000825
:10585800135600088F5B00081356000813560008FB
:10586800A95B0008135600081356000813560008D1
:105878001356000859590008A3F536730F2B3FF645
:10588800C4AE01A252F823F0555A00081356000876
:10589800135600086F5A00081356000813560008DC
:1058A8008B5A00081356000813560008A75A000818
:1058B8001356000813560008C35A00081356000868
:1058C80013560008DF5A000840F24232934231DC96
:1058D800B3F54C7FFFF699AEA3F54C73122B3FF648
:1058E80094AE01A252F823F0C35C000813560008D6
:1058F80013560008DD5C000813560008135600080C
:10590800F75C00081356000813560008115D0008DC
:1059180013560008135600082B5D0008135600089C
:1059280013560008455D0008135600081356000872
:105938005F5D000840F25332934244D040F25B323C
:10594800934200F04D8240F24A3293427FF45DAEBA
:1059580094F8193D012B7FF458AE4FF4FA7006F015
:1059680003FC062384F8B43C162384F8B53C0823CA
:10597800002684F8B63CD4F8F43C84F8B76C5A781E
:1059880084F8BB6C0323052A18BF194684F8B93C70
:1059980084F8BA3CC04B03EB820308BF0221D3F85A
:1059A8009439C4F8BC3C84F8B81CFBF743FDBB4BE6
:1059B800D4F87C2AC3E90226C823C5F8783740F210
:1059C8005333C5F8683794F8193D013B012B09D9C1
:1059D800B24AD4F87C3A92689B1AD5F87827934251
:1059E8007FF713AED4F8F43C5B79002B40F0CA8102
:1059F8000023C5F86C374FF0FF33C5F8683704E665
:105A08004FF4FA7006F0B0FBD4F8F43C1B7923B1DC
:105A1800022B00F0D280062000E00320FBF73EFDB9
:105A28004FF43473C5F8683794F8193D012B7FF4A7
:105A3800ECAD4FF4FA7006F097FB00221146F02007
:105A4800FBF76AFD4FF43673C5F8683794F8191DEB
:105A580001297FF4DAAD0022F020FBF75DFD40F26A
:105A6800DB23C5F8683794F8193D012B7FF4CDADD9
:105A780000220221F020FBF74FFD40F2DE23C5F89B
:105A8800683794F8193D012B7FF4BFAD002203213C
:105A9800F020FBF741FD40F2E123C5F8683794F8A0
:105AA800193D012B7FF4B1AD00220421F020FBF752
:105AB80033FD4FF43973C5F8683794F8193D012B55
:105AC8007FF4A3AD00220521F020FBF725FD40F26D
