:020000040800F2
:10000000002000106D98020885780208216D010813
:1000100083780208817802087F78020800000000D7
:100020000000000000000000000000007D780208D1
:100030007B7802080000000079780208614F02080E
:10004000FD980208FD980208FD980208FD98020834
:10005000FD980208FD980208395C02084D5C020810
:10006000495C0208455C0208415C0208517A0208BA
:100070003D7A0208297A0208157A0208017A0208F4
:10008000ED790208D9790208FD980208FD98020866
:10009000017B0208FD980208FD9802083D5C0208F9
:1000A0009D78020805790208877802082D790208F0
:1000B000F1780208DD780208C9780208FD98020884
:1000C000FD980208FD980208FD980208FD980208B4
:1000D000FD980208697902085D79020851790208E1
:1000E000355C0208FD98020869780208FD9802084C
:1000F000C5780208FD980208B1780208FD98020848
:10010000000000000000000000000000FD98020850
:10011000FD980208FD980208FD980208FD98020863
:10012000C5790208B17902089D7902088979020827
:1001300075790208FD980208000000000000000028
:10014000FD980208FD980208FD98020800000000D2
:10015000000000000000000000000000000000009F
:100160000000000000000000FD980208FD98020851
:10017000FD980208000000000000000000000000E0
:0801800000000000FD980208D8
:1001880070B51B4C94F82C5365B3D4F834630B68E2
:10019800DFED186A9B1B07EE103AB8EEC77A4B687A
:1001A800D4F8386327EE267A9B1B07EE903A80ED49
:1001B800007A94EDCC7A8B68012AF8EEE77A27EE7C
:1001C800267A18BFD4F83C2367EE877A18BF9B1AA3
:1001D800C0ED017A07EE903AF8EEE77AC0ED027AC0
:1001E800284670BD0023036043608360F8E700BFC2
:1001F800980900202C7D8E3F07B532238DF80030FA
:100208000368CDF801308388ADF80530034B6846A4
:10021800D3F87439984703B05DF804FB98090020B7
:10022800094BD3F8780910F080000BD0D3F87C295B
:10023800920706D4D3F8800980F00800C0F3C00004
:1002480070470120704700BF9809002007B51023A8
:100258008DF80030054BADF80100D3F87439CDF8AE
:1002680003106846984703B05DF804FB980900201E
:100278000C4AD2F8983910B5198100219981D2F821
:100288009019596019684C1C1C600870D2F898398C
:10029800D2F890294FF6F67199811968C3E90021BF
:1002A80010BD00BF98090020064B93F8AF29012A1A
:1002B80003D1054AC3F8DC297047022A0CBF034A58
:1002C800034AF7E798090020000000200A000020F0
:1002D8001400002070B50028124D134EB8BF4042DC
:1002E8003C22B0FBF6F305FB030002FB00F494FB91
:1002F800F6F20E4E96F8A6699BB290B27EB903EB61
:10030800830303EB830300EB83031BB20B8005FB22
:1003180002424FF47A7392FBF3F24A8070BDC3EB4A
:100328000313F0E7806967FF80969800980900201A
:1003380000207047094A08B5D2E90032C01A61EBBB
:10034800020129F069F8DFED067A07EE100A67EE78
:10035800277AFCEEE77A17EE900A08BD781300209A
:100368006F12833A0B4B93F95429182101FB02327F
:1003780092F8A023082A0BD093F8F709012808D08F
:10038800022806BFD3F8680AC0F34020002070474F
:1003980001207047980900201FB54B6801938B68AE
:1003A80002930122CB68039301A9FFF7E9FE05B088
:1003B8005DF804FB044B187ADB7A002818BF032089
:1003C8000BB140F004007047980900203A4AD2F86F
:1003D800803913F0040F134667D038491278242067
:1003E80000FB0212D289910565D4520508D593F90C
:1003F8005429182101FB023292F8A023042A5AD06A
:1004080093F8F329052A47D8DFE802F0030A4615CE
:100418002530D3F8CC22C3F86823C3F86C2370477F
:10042800B3F8102A93EDB37A07EE902AF8EEE77A3C
:1004380077EE877A0AE0D3EDDA7A93EDB37AF4EEC1
:10044800C77AF1EE10FAD8BFF0EE477AC3EDDA7A40
:10045800C3EDDB7A7047B3F8102A93EDD87A07EE2C
:10046800902AF8EEE77A77EE877AE6E7B3F8102A6B
:1004780093EDD87A07EE902AF8EEE77A77EE877A46
:1004880093EDB37AF4EE477AF1EE10FAC8BFB0EE06
:10049800677A83EDDA7ADBE7B3F8102A93EDD87A36
:1004A80007EE902AF8EEE77AC2E7D2F8CC32C2F823
:1004B8006833C2F86C3370479809002020E20208BC
:1004C8000A4B93F8FA0978B11A7A62B9D3F86C2A08
:1004D800D3F82433D21A4FF47A735843824294BF24
:1004E8000020012070470020704700BF98090020B5
:1004F8000123037000234363036383638362C3623E
:10050800C363836103647047DFED137A80ED010AEA
:10051800F4EEE70AF1EE10FAC0ED020A80ED031AD4
:10052800C0ED051A13DDB4EEE70AF1EE10FA0EDDA0
:1005380081EE007AC0EE207AF0EE006A77EE877AD4
:1005480086EEA77A80ED047A80ED092AD0E70023A9
:1005580083600361F8E700BFBD378635324BA3F1EE
:100568001C0210B5044607CA83E80700032C47D8C5
:10057800DFE804F00208484C2C4BD3F86823C3F892
:100588007C233DE0294BD3F87C29D3EDDC7AD3EDED
:10059800DB5AD20649BFB3F8462ADFED256A06EED4
:1005A800902AF8EEE66A77EEE66ADFED227AF4EE54
:1005B800E76AF1EE10FA21DBD3EDE07AB8EE676A6C
:1005C800F7EE007A86EE267AB5EEC07AF1EE10FAEA
:1005D80011D4B4EE677AF1EE10FAC8BFB0EE677ABC
:1005E80077EEC77AD3EDDA6A67EEA57AE6EE877A10
:1005F800C3EDDF7A04E09FED0E7AF1E7C3EDDF5A31
:10060800094810BD094BD3F86C23B8E7074BB3F87A
:10061800122A002AF7D007EE902A93EDD87AF8EE3E
:10062800E77A77EE277AE3E70C0D00209809002097
:10063800000000000000C842054B1978814205D02F
:100648002422424318700348825C5A700846704757
:100658009809002020E20208034B93F8E839002BA0
:100668000CBF022000207047980900200020704726
:1006780070B50F4B002193F9410918240D46CAB2F1
:10068800824208DB1A7A0AB1DB7A13B9FFF718FF3E
:1006980058B9002070BD04FB0232013192F8A06302
:1006A800062E08BFA2F8B453E9E70A20F2E700BF14
:1006B800980900200A4A92F95439182101FB0321AC
:1006C80091F8B613A52909D092F9411901398B423D
:1006D80004DA013382F85439022070470D2070473C
:1006E800980900200D4A92F95439D2F86C1A18204A
:1006F80000FB0323B3F9B033002B0CDDD2F86409F7
:1007080050B14FF47A72081A13FB02F398422CBFC7
:100718000220002070470220704700BF980900207F
:100728000A4A92F95439182101FB032191F8B613AA
:10073800A52909D092F9411901398B4204DA01330C
:1007480082F85439002070470D207047980900201E
:100758007047481E83B2032B1AD80E4B93F8702AA1
:10076800B2B10D4A02EB8002D3F8840AD2F8C82449
:1007780082420DD3D3F8880A824209D8C3F8982A4E
:10078800D3F8782AC3F89C1A42F00202C3F8782AF0
:10079800704700BF9809002020E2020830B54C1EBF
:1007A800E3B2012B22D8501EC3B2072B1ED8104B20
:1007B80093F8705AD5B100EBC4000E4C04EB40001E
:1007C800D3F87C4AB0F8D804A0420FD3D3F8804AB3
:1007D800A0420BD8C3F8940AD3F8780AC3F88C1A45
:1007E80040F00100C3F8780AC3F8902A30BD00BF72
:1007F8009809002020E2020828B1044BD3F8D00A57
:1008080008B193F8700A00F00100704798090020B9
:1008180070B5FFF7F1FF00B3104BD3F8942AD3F863
:100828008C4AD3F8905A8A60D3F89C2AD3F8983A1D
:100838000B610B4B0C6003EB840603EB8503D6F8C6
:10084800F8648E61074ED3F80435A45DCA6030326F
:100858004D600C75CB6181F8202070BD980900208F
:1008680020E20208772D030810B5FFF7C5FF30B165
:10087800034BD3F89C4A0C70D3F8983A138010BDF8
:100888009809002008B5FFF7B7FF18B1024BD3F855
:10089800943A0B8008BD00BF9809002008B5FFF7FF
:1008A800ABFF08B100230B7008BD08B5FFF7A4FF24
:1008B80018B1024BD3F89C3A0B7008BD9809002078
:1008C80010B5FFF799FF30B1034BD3F88C4A0C7081
:1008D800D3F8903A137010BD98090020052070478E
:1008E80031B9044AD2F8E43A43F00403C2F8E43ACE
:1008F800704700BF9809002048B1054BD3F8440B56
:1009080028B193F8D40A022894BF00200120704728
:100918009809002070B5FFF7EFFFF8B1104BD3F836
:10092800002BD3F8F44AD3F8F85A8A60D3F8FC2A93
:10093800D3F8043B0B610B4B0C6003EB840403EB13
:100948008503D4F82845CA604D602678D3F8403529
:100958000E7530328C61CB6181F8202070BD00BFEC
:100968009809002020E2020810B5FFF7C5FF30B152
:10097800034BD3F8FC4A0C70D3F8043B138010BD2A
:100988009809002008B5FFF7B7FF18B1024BD3F854
:10099800003B0B8008BD00BF9809002008B5FFF791
:1009A800ABFF18B1024B93F8143B0B7008BD00BFA6
:1009B8009809002008B5FFF79FFF18B1024BD3F83C
:1009C800FC3A0B7008BD00BF9809002010B5FFF76E
:1009D80093FF30B1034BD3F8F44A0C70D3F8F83ACC
:1009E800137010BD9809002008B5FFF785FFE0B126
:1009F800D9B10E4BD3F8182B914216DC01F1004205
:100A0800013AD3F81C0B30F81200D3F8F02A9042C0
:100A180094BFC3F8040BC3F8042BD3F8E42AC3F833
:100A2800FC1A42F00202C3F8E42A08BD9809002023
:100A380010B5FFF761FF18B3481EC3B2042B20D8C6
:100A4800531EDCB2072C1CD803EBC0030E4800EB86
:100A58004303B3F864050D4BD3F8E84AA0420FD31B
:100A6800D3F8EC4AA0420BD8C3F8F82AD3F8E42A02
:100A7800C3F8F41A42F00102C3F8000BC3F8E42AE1
:100A880010BD0020E7E700BF20E202089809002017
:100A9800042070472A4A92F8311B7229134603D062
:100AA80076293CD000207047B2F8320BB3F8361BD9
:100AB800C2F8E80AB2F8342BC3F8EC2AC3F8F01AE3
:100AC8000028F0D09042EDD2B3F8502B0AB1C3F809
:100AD800F02AB3F8F01A1B4AB1F5487F0BD31A492C
:100AE800C3F81C1B05200C31C3F8180B82F826002C
:100AF800116301207047B1F5167F01D31349EFE761
:100B0800B1F5C87F04D31249C3F81C1B0420EAE7D7
:100B1800C729F3D90F49C3F81C1B0320E3E7B2F830
:100B2800323BC2F8083BB2F8343BC2F80C3B92F8AF
:100B3800373B003B18BF012382F8143B0220704763
:100B48009809002000000020D4E70208F8E702080E
:100B58001CE8020840E80208034BD3F86C2AC3F8E3
:100B6800D82A83F8D40A70479809002028B1034B83
:100B780093F93A00003818BF0120704700000020A0
:100B880010B5FFF7F3FF30B1144B93F83B20D207B1
:100B980002D59B8F0B8010BD93F93930002B1A4674
:100BA800B8BFDA1DC2F3C702042A15D85C4204F0A4
:100BB800070403F0070358BF6342DBB2072B0BD8C7
:100BC80001320133D2B2DBB203EBC203044A02EBB7
:100BD8004303B3F85235DDE70023DBE700000020CC
:100BE80020E2020808B5FFF7C1FF50B1054B93F8A2
:100BF8003820012A9DBF93F83B30C3F340030B70A4
:100C0800002008BD0000002038B5FFF7AFFF78B11D
:100C18000D4A92F8383092F93A40012B11D192F8E6
:100C280042304432013B5D1C03D10023DBB20B7020
:100C380038BD02EBC305B5F90450AC42F6DA013B06
:100C4800F1E7E3B2F3E700BF0000002037B50D4637
:100C58000DF107011446FFF7D7FF40B19DF80730A3
:100C68002B701BB1034A02EBC3039B8F238003B095
:100C780030BD00BF0000002010B5FFF777FFB8B106
:100C88000D4C94F9393094F83B40E40711D4002B0B
:100C98001C46B8BFDC1DE4100134E4B20C705942A4
:100CA80001F0070103F0070358BF4B4201331370EB
:100CB80010BD0024F2E700BF0000002073B50C4609
:100CC8000DF101020DF102010546FFF7D5FF10B93C
:100CD800002002B070BD01A92846FFF751FF002887
:100CE800F6D00DF106020DF103012846FFF7AEFF1D
:100CF8000028EDD0BDF806209DF8021022610D4AAB
:100D08009DF80150216002EB8101BDF80430D1F853
:100D18002815A36002EB85029DF80330E360656047
:100D28000E78D2F8402526753033A161E26184F847
:100D38002030CEE720E202080320704770B50B4A46
:100D480092F8523B06255E1CB6FBF5F405FB1464CD
:100D580092F8535BAC421FBF02EBC30382F8524BBD
:100D6800C3F8540BC3F8581B70BD00BF9809002086
:100D7800002230B504461046914200DC30BDA35C29
:100D88000825584010F0800F4FEA400318BF83F041
:100D9800D503013DD8B2F5D10132EDE710B5FFF723
:100DA800E5FE50B349B3154C94F842308B4224D336
:100DB80094F838300139022BC9B20AD0032B15D068
:100DC800012B08D104EBC101B1F8483084F8703028
:100DD80001E084F8701005210948FFF7C9FF0621D2
:100DE80084F87100BDE810400548A7E704EBC1018D
:100DF80091F8483063F07F03E8E710BD0000002059
:100E08006C0000200139C9B2042910B515D8013A7F
:100E1800D2B2072A11D8094C02EBC10204F17200C0
:100E2800052184F87620FFF7A3FF062184F87700D0
:100E380004F17200BDE8104080E710BD00000020FA
:100E480010B50D4C40F0080284F87C2094F8382046
:100E5800022A06D9420704D583071CBF012384F858
:100E6800403005210548FFF783FF062184F87D00FF
:100E7800BDE81040014861E700000020780000202C
:100E880010B5FFF773FE002833D01A4C94F83830A9
:100E98007BB351B3022B2CD994F8403093B969B184
:100EA80080230521144884F88230FFF761FF06216A
:100EB80084F88300BDE810400F483FE70420BDE8F0
:100EC8001040BDE7002914BF0020042094F83B30EF
:100ED8001A0748BF40F002005B0703D40029EED090
:100EE8000028ECD140F00100E9E7022BD4D8042017
:100EF800ECE710BD000000207E00002030B51E4A3F
:100F0800A8B1B2F8843B1D4C032B4FEA530096BF9F
:100F180048F20503A2F8840BA2F8843BD1E900301B
:100F28001B194FF0000444EB0000C1E90030B2F88F
:100F3800843B13F0010306D1114901F1F40492F83E
:100F4800FC0C834200DB30BD51F8040BC0F30535BF
:100F5800400406D428070CD5D2F8780C0B382B2877
:100F680007D892F8700C02EB8000D0F8080C44F80F
:100F780023000133E3E700BF98090020A0860100A1
:100F8800201500202DE9F0432E4B2F4C18B393F871
:100F98008420F02A34D97F2293F9850083F88420AD
:100FA80094F8FE2C824201DD002804DA93F88620AA
:100FB800524283F8862093F88620024483F88520DD
:100FC800D1E9002044F21A1552194FF0000545EBFB
:100FD8000000C1E9002093F8840094F8FC5C1B4CE5
:100FE80093F9856093F986700022C0F1FF0EA0F195
:100FF8007F0C114604F1F408954205D8BDE8F0834A
:101008000F3283F88420DBE754F8043B9B0412D5A5
:10101800CBB29B1B83EAE379A9EBE379B9F1010F22
:101028000BDC63B1BB4214BF7346634608EB82090D
:10103800013189F803300132DEE70823F6E7034679
:10104800F4E700BF000000209809002020150020C8
:10105800F0B5244A90B192F8003DCBB1D1E90045F2
:10106800013BDBB2D2F8780C82F8003D1E4B93FBB3
:10107800F0F3E41845EBE375C1E900451B4E002485
:10108800254606F1F40792F8FC3CA34203DCF0BDC8
:1010980092F8FF3CE2E756F8041BC1F30323062B42
:1010A8001AD1D2F880395B0718D592F8003D92F82A
:1010B800FFCC5819B0FBFCF30CFB1303012BCCBF7E
:1010C800002301233BB1C1F3834102EB8101D1F835
:1010D800080C47F8240001350134D4E7EB4303F04A
:1010E8000103EFE79809002080841E0020150020E6
:1010F8000A4A70B50023A2F6883502F1F40695F87D
:10110800FC4C9C4200DC70BD52F8044B30EA0404ED
:1011180004BF0C6846F823400133F0E7201500208F
:1011280030B4214B93F80C4D78B193F83C2DDAB1DB
:10113800013A83F83C2DD1E900201C4D52194FF09B
:10114800000545EB0000C1E9002019491CB1D3F89E
:10115800402D140616D493F8713C203330BC01EBB3
:1011680083014FF4A060C3E793F83D0D651EA842C4
:10117800B5BF013083F83D2D83F83D0D0422B8BF7B
:101188000122D6E7D3F87C0993F83C2D800706D5D1
:1011980012B993F8733CE0E793F86F3CDDE7002A57
:1011A800D9D193F8723CD8E798090020801A060034
:1011B8002015002030B41A4AD8B1B2F8440D64237F
:1011C80043434CF6CC30834220DD002382F8463D71
:1011D8000123D1E9004592F8460D80F0010082F81C
:1011E800460D1048B0FBF3F3E41845EBE375C1E98D
:1011F800004592F8463D83B992F86F3C0A4920337E
:1012080030BC01EB83014FF4806071E745F2EA30AE
:101218008342CCBF02230823DBE730BC704700BF02
:101228009809002040420F002015002030B4164BCA
:10123800B0B193F8472D02B3012A14BF0824022441
:10124800124AB2FBF4F2D1E90045A41893F8480D0C
:1012580045EBE275C1E9004580F0010083F8480DCF
:1012680093F8482D6AB993F86F3C0949203330BC8C
:1012780001EB83014FF440703AE783F8482D0124CD
:10128800DEE730BC704700BF9809002040420F00DD
:1012980020150020F8B5134C0546D4F84C0D0379F9
:1012A8001E3B012B02D9002123F0DDFE0E4F002644
:1012B800AE42D4F84C0D0FDB002123F0D4FED4F855
:1012C8006C3AC4F8703D094B00225A60B4F8783D76
:1012D8000133A4F8783DF8BD17F8011B23F0C3FECD
:1012E8000136E5E798090020E816002008170020D5
:1012F80038B5154C94F8533B94F8522B9A421CD0AD
:1013080004EBC30304F55561D3F8542BD3F8580BF9
:101318000023984212DC9378C4F8880D5B0884F89F
:101328008C3DFFF7B7FF94F8533B06210133B3FB1D
:10133800F1F201FB123384F8533B38BDD55C01F858
:10134800015B0133E5E700BF98090020F8B50022EA
:101358000D464FF6FF7302398A4210D3461943549B
:10136800094F1B0A06F8013C044614F8011BD7F87C
:10137800900D23F078FEA642F7D1E8B2F8BD845C60
:101388001B1B9BB20132E7E79809002007B50B1435
:1013980008228DF8043060F05F000B0E8DF8010014
:1013A800ADF802108DF805301146002368468DF817
:1013B8000020ADF80630FFF7C9FF03B05DF804FB65
:1013C80007B5062360F05F008DF80100ADF8021044
:1013D8000022194668468DF80030ADF80420FFF762
:1013E800B5FF03B05DF804FB014610B50A4C5E2951
:1013F800D4F8940D09D15D2123F035FE3E21D4F8AF
:10140800940DBDE8104023F02EBE5D29F9D123F0DC
:101418002AFE3D21F3E700BF9809002070B51D4D55
:1014280095F82C332DED028B04460E4663B3D5F8A0
:1014380034330360D5F83833436095EDCC8AD5F85A
:101448003C338360DFED148A96ED000A80EE280AAB
:101458002AF09EFC23681844206028EE288A96ED1E
:10146800010A80EE080A2AF093FC63681844606059
:1014780096ED020A2AF08CFCBDEC028BA368184496
:10148800A06095F82C0370BDC0E900338360B7EE07
:10149800008AD7E7980900202C7D8E3F10B50A4CAA
:1014A80004F5567104F69850FFF7B8FF6421D4F894
:1014B8008023D4F88433B2FBF1F293FBF1F3C4F840
:1014C800A42DA4F8A83D10BD9809002012F0010F22
:1014D80070B51E4C0FD0066894F85453C4F858637E
:1014E8004668C4F85C63DE074CBF45F0010525F08B
:1014F800010584F8545395070CD594F85423806853
:10150800C4F8600398074CBF42F0020222F00202BE
:1015180084F854235B0794F85423C4F8641302D462
:1015280002F0FB0201E042F004020023C4E9E033C8
:1015380084F85423FEF74AFFFFF7B0FFD4F87C394C
:1015480043F00103C4F87C3970BD00BF980900203E
:10155800022803D0431E584258417047054B93F860
:10156800A42912B1102011F003BAD3F88009C0F3EE
:10157800800070479809002008B5064BD3F87C39DD
:10158800DB0605D4182011F0F3F900F0010008BDBE
:101598000020FAE79809002038B5174C0F2384F883
:1015A800A83A84F8A90A04F6AA22F9B10B68C4F883
:1015B800AA3A4B6853608B689360104A002312F86C
:1015C800011B013308440C2BC0B2F8D1002584F864
:1015D800B60A0B49D4F8D00A84F8B75A102223F077
:1015E80045FD84F8CC5AC4F8C85A38BDC4F8AA1ABC
:1015F80051609160E1E700BF980900204214002083
:101608004014002038B5124B00220F2483F8204BD9
:10161800A3F8221BC3F8242BC3F8282BC3F82C2BC0
:1016280083F8210B0D2503F621311C4611F8013BE7
:10163800013D1A44D2B2F9D184F82E2B0549D4F8C9
:10164800440B102223F012FDC4F8405B38BD00BFE4
:1016580098090020B814002038B50D4CD4F87C390E
:1016680013F0100503D0BDE8384023F0E4BA23F0A6
:10167800E2FA04F55B63C3E9000104F6B8530020FD
:101688000021C3E90001C4F8C05DC4F8C45D38BDD9
:101698009809002008B523F0CEFA054B012283F8FB
:1016A800E82903F51E63C3E90001022008BD00BF55
:1016B8009809002070B50C4C0546B4F8506A10F033
:1016C8009BF986422246094E04DD1DB9B4F8503A0A
:1016D800F38070BDD2F87C3943F08003C2F87C39BE
:1016E80010F08AF9F080F4E7980900200000001053
:1016F80008B50020FFF7DEFF002008BDF7B5074654
:10170800019112F03EFB274E0446B6F8585A0028BD
:1017180044D101993846FEF70DFEA84240D807EE9D
:10172800900AB6F8523AB8EEE77A07EE905AF8EE11
:10173800676A07EE903A1C4BB3F90620F8EE675A31
:1017480007EE902AF8EEE77A204677EEE57A67EE1C
:10175800877A87EEA66A76EE257AFDEEE77A17EEA7
:10176800902ADA8096F8602AB3F9023007EE902AB8
:10177800B8EE676A07EE903AF8EEE77A77EEC67A3F
:1017880067EE877A87EEA67A77EE067AFCEEE77A36
:1017980017EE903A86F8E93903B0F0BD0320FBE76D
:1017A8000120F9E7980900200000001010B519463B
:1017B80004461046FEF7BEFD064BB3F85A3A2044DD
:1017C800984204D912F0DDFA00F0010010BD0020A3
:1017D800FAE700BF980900202DE9F743DFF8908069
:1017E8000191024604460B46B8F8540AFFF7DEFF9B
:1017F8000546D0BB20460199DFF87890FEF79AFDA0
:10180800B8F8567AB8F8524A8742064605D2A9F877
:101818000640012003B0BDE8F08310F0EDF8B8F8F9
:10182800503A8342B8BF03469BB207EE903A07EEA0
:10183800104AF8EE677AB8EE477A06EE906A37EE05
:10184800677AF8EEE66A284627EE267A06EE907A58
:10185800B8EE666AC7EE066A76EEA77AFDEEE77A14
:1018680017EE903AA9F80630D4E70320D2E700BF74
:10187800980900200000001038B505460C460020E5
:10188800FFF718FF2A4623460020FFF78FFF58B9B5
:1018980028462146FEF74EFD044BB3F8543A9842C9
:1018A80094BF0020012038BD0320FCE798090020E0
:1018B8002DE9F04107462DED048B00200E4611F06E
:1018C800D3FF002868D0354B9FED357AD3ED047AE5
:1018D800344DD3ED058AF0EEE76AF4EEC76AF1EE0F
:1018E80010FACABF93ED067A9FED2F9A87EE279AD2
:1018F80010F002F995F8613AB0EE408A00EE103A1D
:10190800DFED2A7AB8EEC00A20EE270A25F0F4FDAA
:10191800B5F84C3A07EE903AF8EEE77AF4EEE78A33
:10192800F1EE10FA2EDDB4EEC08AF1EE10FAACBF7B
:1019380001240024B5F84A3A07EE903AF8EEE77A1F
:10194800F4EEC97AF1EE10FA1ED5F5EEC08AF1EE82
:1019580010FACCBF4FF001084FF000080020FFF745
:10196800A9FE54EA080412D038463146FEF7E2FCD4
:10197800B5F84E4AA04294BF00200120BDEC048B6C
:10198800BDE8F0810024D5E74FF00008E6E7084BF2
:101998002046C3E90076F1E70420EFE700000010D5
:1019A800F366DF3F980900200000000035FA8E3CFE
:1019B8007813002010B52DED028B82B0044600206C
:1019C800019111F051FF002846D001992046FEF7F9
:1019D800B1FC40F2DC53984207D90020FFF76AFEB9
:1019E800012002B0BDEC028B10BD07EE900AB8EEE4
:1019F800E78A10F001F8194A9FED196AB2F8503ACF
:101A080007EE900AF8EEE76A07EE903AF8EE677A82
:101A1800144B77EEE67A002067EE887A87EE867AAE
:101A280077EE267A9FED107AFDEEE77A17EE901A98
:101A3800D98092F8603A07EE903AF8EE677A27EE86
:101A4800888AC8EE067A77EE877AFCEEE77A17EE90
:101A5800903A82F8E939C4E70420C2E798090020DF
:101A68000080BB44000000100000000038B50020D2
:101A780011F0FAFE0B4D044660B1B5F8504A0FF06C
:101A8800BBFF84420CDC95F8603A85F8E9390224FA
:101A9800204638BD0120FFF70DFE85F8E949F7E734
:101AA8000124F5E79809002038B5154D23F0C3F84F
:101AB80095F8E839042B09D1052385F8E839C5F8E4
:101AC800E009C5F8E4190224204638BDD5F878495C
:101AD80014F08044F8D0002011F0C6FE044668B91E
:101AE80012F04FF90028EFD085F8E849002205F5F3
:101AF8001E650023C5E900230424E5E70024E3E785
:101B08009809002008B50FF01BFE022008BD124BF3
:101B180093F95429182101FB023090F8A0030138E9
:101B2800072805D8DFE800F015040F0604040404AC
:101B38000C20704701FB0233B3F9B033002B14BFFC
:101B48000C2002207047D3F86C2AC3F864290E20B1
:101B580070470220704700BF9809002008B5064B5F
:101B6800D3F87C29920202D593F8F63913B10720ED
:101B780019F072FF022008BD98090020F8B5284C1A
:101B88002546D4F8D00A23F06BFA002847D094F8F9
:101B9800CC3A0BB1002042E0D4F8D00A23F05AFA2C
:101BA800D4F8C83A3BB90F28EBD10123C4F8C83A96
:101BB80084F8B80AE5E70F2B9FBF5A1C1B19C4F815
:101BC800C82A83F8B80AD5F8C83A102BD9D195F89D
:101BD800B83A0F2B15D195F8B93A95F8A92A9A422F
:101BE8000FD195F8C72A62B90E4995F8C66A084612
:101BF80011F8017B01323B440C2ADBB2F8D19E423A
:101C080005D0002385F8CC3AC5F8C83AB9E70649A3
:101C18002CF061FA0028F4D0012085F8CC0AF8BD30
:101C28009809002052140020421400207FB5934CDC
:101C3800D4F8C83D40F2071293427AD0B3F5847FB6
:101C48000EDA002B3AD0F52B4AD0D4F8C83D002B39
:101C5800BEBF0023C4F8CC3DC4F8C83D04B070BD75
:101C680040F20D12934200F0B88040F21B129342EA
:101C7800EBD194F8CC3A002B00F0E1800021B4F8C5
:101C8800BA3AC4F8741AD4F8941AB4F8BC2AC4F846
:101C9800A03A8B42C4F8A42A40F0E980D4F8983AD4
:101CA8009A4205D0D4F8783A43F00203C4F8783A57
:101CB80094F8703A002B00F0A2802CE084F8703A77
:101CC80000217220FFF768FC6D4BD4F86C2A9A60EB
:101CD8000022DA60FA23C4F8D83DF523C4F8C83DD9
:101CE80094F8CC3A002B41D0B4F8BA3AC4F87C3A0C
:101CF800B4F8BC3AC4F8803A0023C4F8843AB4F87B
:101D0800BE3AC4F8883A012384F8703A0023C4F82C
:101D1800743AC4F8783A5A4BD4F86C2A9A6000227C
:101D2800DA604FF47A73C4F8D83D40F20713C4F868
:101D3800C83DD4F8785A7DBB514ED4F86C3AB26895
:101D48009B1AD4F8D82D93427FF77FAF2946762087
:101D5800FFF722FCD4F86C3AC6E90235FA23C4F836
:101D6800D83D40F21B13C4F8C83D82E7FFF706FFD1
:101D780048B9434AD4F86C3A92689B1AD4F8D82DDB
:101D880093427FF762AF94F8CC3A002BACD194F829
:101D9800703A002BBAD193E715F0010337D0B4F8A5
:101DA800943A002501A94620CDE901550395ADF8DF
:101DB8000430FFF7F1FBD4F8783AD4F86C2A23F012
:101DC8000103C4F8783A2E4BC3E90225FA23C4F874
:101DD800D83D40F20D13C4F8C83D294AD4F86C3AEE
:101DE80092689B1AD4F8D82D93427FF72EAFD4F877
:101DF800743A022B7FF75CAF002384F8703A002313
:101E0800C4F8CC3D4FF0FF33C4F8C83D1DE715F0CA
:101E1800020511D0B4F8982A039301A95020CDE9FE
:101E28000133ADF80420FFF7B7FBD4F8783A23F074
:101E38000203C4F8783ADAE7C4F8785AD7E7FFF724
:101E48009DFE48B90E4AD4F86C3A92689B1AD4F8A9
:101E5800D82D93427FF7F9AE94F8CC3A002B7FF453
:101E68000DAFD4F8743A0133C4F8743ABFE7D4F824
:101E7800783A43F00103C4F8783A0FE7980900204C
:101E88006017002070B5284C2546D4F8440B23F081
:101E9800E7F8002847D0D4F8440B23F0DBF8D4F84F
:101EA800403B3BB90F28F0D10123C4F8403B84F8EC
:101EB800300BEAE7012B10D1A0F17203DBB2012B42
:101EC80001D9762805D10223C5F8403B85F8310BA6
:101ED800DBE70023C5F8403BD7E70F2B9FBF5A1C11
:101EE8001B19C4F8402B83F8300BD5F8403B102B56
:101EF800CBD195F83E0B0D490D22002311F8016B4B
:101F0800013A3344DBB2F9D19842E2D195F83F3B2C
:101F1800002BDED106481022A0F110012CF0DBF8CE
:101F28000028D6D0012070BD98090020C9140020CF
:101F3800C814002010B5554CD4F8443B002B5AD097
:101F480094F8D43A062B56D8DFE803F0040E142A86
:101F5800565E68000023C4F8E03AC4F8E43A012069
:101F6800BDE81040FEF7F8BD72200021FFF74AFBDC
:101F78000220F5E7FFF786FF40B1FEF78BFD012849
:101F88000CD10023C4F8E03A0520E9E7D4F86C3A0C
:101F9800D4F8D82A9B1AB3F57A7F2CD90020DFE72A
:101FA800D4F8E43AFBB1590709D523F00403C4F87F
:101FB800E43A00217320FFF725FB0420D0E7DA0775
:101FC80007D523F00103B4F8001BC4F8E43A46200F
:101FD800F1E798070FD523F00203B4F8041BC4F8FF
:101FE800E43A5020E7E7D4F86C3AD4F8DC2A9B1A94
:101FF800B3F5FA6FC8D810BDD4F86C3AD4F8D82A1B
:102008009B1AB3F57A7FF5E776200021FFF7FAFAF5
:10201800D4F86C3AC4F8DC3A0620A1E7FFF732FF9F
:1020280020B30023C4F8E03AFEF734FD0228ABD110
:10203800D4F8E43AD90709D4D4F8081BD4F8002B0B
:1020480091421CBF43F00103C4F8E43AD4F8E43ADF
:102058009A0709D4D4F80C1BD4F8042B91421CBF5E
:1020680043F00203C4F8E43A032079E7D4F86C3A61
:10207800D4F8D82A9B1AB3F57A7FBCD9D4F8E03AB9
:102088000133032BC4F8E03A88DC7DE79809002087
:10209800F7B5464C94F8E03D07460E46002B4FD165
:1020A800D4F8E45D002D4BD0B4F8482B94F84A3BA3
:1020B800A4F8E82DD4F8802984F8EA3DB4F84C3B1C
:1020C800A4F8EC3D500794F84E3B94F8481B84F86C
:1020D800EE3D0BD494F8F80D40B9012B03D0022B38
:1020E80004D1130702D4012384F8EA3D94F8283E6A
:1020F800012B27D0022B43D083B92B68DB696BB146
:102108000DF107012846984740B194F8EA1D9DF85B
:1021180007308B4202D0284622F062FD2B681968EE
:1021280019B13A4633462846884794F8283E032290
:102138000133B3FBF2F202EB42029B1A84F8283E09
:1021480003B0F0BD0029E9D02B689B69002BE5D0CE
:102158000DF107020DF10601284698470028DDD049
:1021680094F8E81D9DF8063094F8E92D8B4203D1C8
:102178009DF807309342D1D0284622F03FFDCDE7A5
:102188000DF10701284622F01EFD0028C6D094F85C
:10219800293E002BC2D09DF80730002184F8291E63
:1021A800002BBBD0284622F015FDB7E79809002080
:1021B80038B5374C0D4600283ED094F82A3E0133F6
:1021C80003F00F0384F82A3E63BB84F82B3ED4F84F
:1021D8007839990705D594F8473D13B1022384F857
:1021E8002B3E94F8F83D2BB194F82B3E43F00403B2
:1021F80084F82B3ED4F880395A070AD423F0704368
:1022080023F07F032BB194F82B3E43F0010384F8AD
:102218002B3E0AF041FA28B994F82B3E43F0080304
:1022280084F82B3ED5E900321A495B184FF00001BB
:1022380041EB0202C5E9003294F82B3E33B394F81F
:102248002A1E8A081341DB0720D501F00101032A61
:102258001CD8DFE802F0020F13170F4B03F1180226
:10226800002914BF194611464FF40030BDE8384024
:10227800FEF73EBF084B03F10802F1E7074BA3F155
:102288001802EDE7044B03F12802E9E738BD00BF67
:1022980098090020A086010064E802088CE802087A
:1022A8004209012300F01F00022A03FA00F008D0B7
:1022B800032A0BD09A420DD1074B5A691043586133
:1022C8007047054B9A69104398617047024BDA6969
:1022D8001043D861704700BF001002402DE9F34158
:1022E800044618079DF820700D46164603F00108AD
:1022F80017D503F01103002B14BF4E213E211CB14A
:102308004FF4E163E38027720722204623F0D4F8D4
:10231800B8F1000F25D1204602B0BDE8F04123F006
:102328003BBAB8F1000F14BF4E212E21B2070AD5CF
:102338001CB14FF4A163E380277207222046019164
:1023480023F0BAF80199F3070BD51DB14FF4C16317
:10235800EB802F720722284602B0BDE8F04123F037
:10236800ABB802B0BDE8F081016821F01F0202F1AC
:10237800804202F5823270B50123146801F01F0112
:1023880003FA01F124EA0101116002682A4C22F0E3
:102398001F0502F01F02295903FA02F221EA02027C
:1023A8002A510179026801F1804122F01F0401F5E8
:1023B800823102F01F02655803FA02F22A43625082
:1023C80002681E4D22F01F0402F01F02615903FA31
:1023D80002F221EA020262510268194C22F01F0639
:1023E80002F01F02315903FA02F221EA02023251C5
:1023F80041790268102912D122F01F0102F01F0250
:102408004E5903FA02F232434A51026822F01F0180
:1024180002F01F020859934003430B5170BD01F1AC
:10242800804122F01F0001F5823102F01F0244585A
:10243800934023434350F1E704040140080401405A
:102448000C04014010B526F055F94FF4302401284A
:1024580006D10CB9052010BD26F04CF9013CF6E771
:10246800002C08BF0520F6E72DE9F04790B0DDE91C
:10247800184A0D460746904600213C2201A8994675
:102488001A9E2BF050FE344B02938DF80450CDF871
:1024980034A0002D55D0022D55D0032D55D0042D34
:1024A80055D103232D4A02EB430393F87D368DF86B
:1024B80005302B4B0394D3F86C2A06971444012259
:1024C800CDE904468DF831201E46B8F1000F06D03C
:1024D8004A46414607A82BF03BFC8DF8309096F809
:1024E8006EEE0023BEF1010F0E931FD80DF1040A02
:1024F800BAE80F0096F86DCE3C2404FB0C6404F592
:1025080067640FC4BAE80F000FC4BAE80F000FC41D
:102518009AE80700BCFA8CFC0EF1010E4FEA5C1C2D
:1025280084E8070086F86EEE86F86DCE3B6883B1C6
:102538004B4642462946384610B0BDE8F0470DF0F4
:1025480003BE2B46AEE70123ACE70223AAE700232C
:10255800ADE710B0BDE8F087C417002020E20208FC
:1025680098090020031EB8BF2D2210B5B8BF5842E5
:102578000C46AEBF0A2201F8012B0A2224F0CAFA3F
:1025880000230370204610BD2DE9F04FC24C2DEDFD
:10259800048BD4F84C3D8BB0002B00F020829FEDCB
:1025A800BC8BBE4DD4F84C0D22F05AFD18BBB4F8C4
:1025B800782D092A0CD9B4F87A1D64234B43B3FB50
:1025C800F2F3452B40F38081A4F8780DA4F87A0D36
:1025D80094F84C6F012E00F0A381022E00F00482C3
:1025E800002E40F0E381AE480521FEF7A7FB01234A
:1025F80084F84C3FDAE1D4F84C0D22F02BFD94F826
:10260800EC3E8046052BCDD8DFE803F0030914180B
:102618002C39AA28C6D1012384F8EC3EC2E75528F4
:1026280001D10223F8E7B4F87C3D0133A4F87C3DDE
:102638000023F1E784F8ED0E0323EDE7132884F86F
:10264800EE0EC4F8080F05DDB4F87E3D0133A4F89A
:102658007E3DEDE708B90523DEE70023C4F80C3F0B
:102668000423D9E7D4F80C3FE218013382F8EF0EBF
:10267800D4F8082FC4F80C3F934293D1EBE7D4F871
:10268800087F8848023779B2FEF772FB804594F8D4
:10269800ED6E40F0118194F88C3DB34219D10023BE
:1026A80084F88C3D731E102B00F20081DFE813F0D4
:1026B8001D0080008000DB008000FE00FE00FE00A0
:1026C8001D00FE00FE00FE00FE00FE00FE00FE00F3
:1026D8001D00092E01D0112E01D1012BDFD0B4F835
:1026E800823D0133A4F8823DDCE7062F60DD012E30
:1026F80003D0092E0CBF0226032694F8F12E94F875
:10270800F21E94F8F39E94F9EF3E94F9F1BE01930A
:1027180049EA0129900785F8393085F8386094F836
:10272800F03E85F83BB0A5F83C9006D512F00C0FAA
:1027380014BF0122002285F84020032E40F08F802C
:10274800092F35DD94F9F58EB8F1050FA8BF4FF0C4
:10275800050828EAE8785FFA88F385F8423085F8B2
:102768008E304FF0000AB2EE049A4FFA8AF74745C6
:1027780024DB002394F8F47E85F83A3019461A468B
:102788004245104660DB0BB185F83A1094F8293FB2
:102798000C2B0DD1642303FB06B6019BC4F8303F14
:1027A80095F93A30C4F82C6FC4F8349FC4F8383F10
:1027B800B4F87A3D0133A4F87A3D39E7E31905EB1B
:1027C800C70193F8F72EA1F8482007EE902AF8EEF3
:1027D800E77AFB00C7EE897A0793069217EE900A0C
:1027E80026F0DAF9B0EE480AF0EE680A41EC110B6F
:1027F80029F01AFB51EC100B26F026FD069A079BD0
:102808000E2A80B20AD919303222B0FBF2F080B217
:1028180000EB800000EB8000400080B22B44052FC5
:1028280058640EDC08A9FFF79DFE1F4A07EB8703D3
:10283800134408A918462BF09AFC05EB8707C7F83C
:10284800A4000AF1010A90E705EBC0000132B0F9D3
:10285800480052B2874204BF1146012390E7013372
:1028680085F83A3092E7042FA2DD94F8EF2E94F819
:10287800F03E43EA022359041AB203D5C3F30D0309
:10288800EB8795E7002AF9DBAB8791E7AFF3008088
:1028980000000000000024409809002000000020EB
:1028A800BE00002085180020A8180020B4F8843D38
:1028B8000133A4F8843D7BE7F2075EBFB4F8803D9E
:1028C8000133A4F8803DB3E65C4BD3F8B820B3F8E5
:1028D800BC10012A1DD141F25632914203D14FF06A
:1028E800FF32C3F8B820D3F8B820D4F84C0D02EB67
:1028F800820202EB820201EB420189B2A3F8BC100A
:1029080003681B6998470023A4F8783DA4F87A3D2A
:102918005EE60132E7D1B1F5965FE4D10122E0E746
:10292800464D95F83830002B40D0022B39D105F1AF
:10293800C30800234FF040090621404685F8C830F7
:1029480085F8C790FEF714FA95F83B3085F8C9006A
:10295800DB0718D4AB8FB3F5804F14D1384FD5F8B7
:10296800C330C4F84D3FC3B2BB710621384684F862
:10297800519F84F8526FFEF7FBF9072184F8530F33
:102988003846FEF7DBF92F480721FEF7D7F902236F
:1029980084F84C3F95F83B30C3F3400385F840304A
:1029A80004E00322012B84F84C2FF3D894F88C3DD3
:1029B800D4F86C5AF3B12449D1E90021AB1A029337
:1029C80061EB41030393DDE90223002B08BF792A59
:1029D80010D3D4F8880DFEF75DFCC4F8545F0BB033
:1029E800BDEC048BBDE8F08F144BDB8F002BDDD0E2
:1029F8000323FDE594F8522B94F8533B9A4202D0F6
:102A0800FEF776FCE9E7D4F8543FEB1AB3F57A7F82
:102A1800E5D20D4AD2E90032EB1A049362EB420385
:102A28000593DDE90434002C08BF962BD7D307485B
:102A38000521FEF783F9FEF75BFCD0E700000020D4
:102A4800E5180020C300002008170020BE00002061
:102A58002DE9F04F89B08046894614461D46002767
:102A680005AE217881B3252907D0B8F1FF3F01D001
:102A78004046C84701340137F3E761782D2907BF7D
:102A8800A17803340234002308BF0123302908BF8A
:102A980014F8011BA1F130020CBF4FF0010B4FF0ED
:102AA800000B092A4FF0000A17D96C2940F08C80D6
:102AB80014F8012B642A00F09E8029D8252A00F0FA
:102AC8008F8018D8002ACCD1384609B0BDE8F08FDD
:102AD8000A2214F8011B02FB0A0A08460393029112
:102AE80024F02CF80A28DDE90213F1D9002BDCD0F8
:102AF800CAF1000AD9E7582A3AD0632AB1D1B8F105
:102B0800FF3FB8D055F8041BC9B24046C847B2E7E2
:102B1800662A4CD0A2F16E03D9B20A29A1D80A2B91
:102B28009FD801A151F823F0AF2B00086B2A0008A9
:102B38006B2A00086B2A00086B2A0008932B0008F0
:102B48006B2A00085D2B00086B2A00086B2A000816
:102B5800792B0008334600220A2155F8040B58E067
:102B6800334600220A2155F8040B24F019F852E0E4
:102B7800A2F158004242334642411021EDE758394C
:102B88004A424A4133461021EDE755F8043B019388
:102B98000023009353464A464FF0FF31404624F045
:102BA800FDF907445DE755F8043B1F6059E7073511
:102BB80025F00705F5E8020126F0F6FA00EE100AFE
:102BC800304623F043FF26E06629F0D026D858295E
:102BD800D5D00BD800293FF477AF25297FF441AF32
:102BE800B8F1FF3F3FF447AF25218EE7632986D030
:102BF80064297FF436AF55F8040B0028BFBF2D2396
:102C08008DF8143040420DF11503A8BF3346002259
:102C18000A2123F0C5FFCDE900B6BBE7A1F16E0399
:102C2800DAB20A2A3FF61DAF0A2B3FF61AAF01A205
:102C380052F823F0AF2B00086B2A00086B2A000813
:102C48006B2A00086B2A0008932B00086B2A0008DF
:102C5800692B00086B2A00086B2A0008872B0008DC
:102C68000CB470B52C4CD4F8583FADF5267D13B98B
:102C7800D4F85C3F6BB3D4F86C1A4FF47A7306A897
:102C8800B1FBF3F203FB1213244924F056F906AB07
:102C98000344AA9A224900930546ABAB68460193C0
:102CA800FFF7D6FE009B591C00910A211970009B62
:102CB800591C0091002119700246D4F8580F70B1C0
:102CC8000268126A02B19047D4F8580F06A922F098
:102CD800EDF90DF5267DBDE8704002B07047D4F8D7
:102CE8005C4F002CF5D0A6AB2A44CDE9040026AEF3
:102CF800039306A9FD2302A80232ADF8103002960C
:102D080024F0F3F8029B022202A92046CDE90263CF
:102D18000DF037F9DDE700BF980900207B2D030887
:102D28007B360208074B084AC3F87C2FD3F88C3F40
:102D38004FF478719A1E223322F8021F9A42FBD16F
:102D4800704700BF9809002025A5000838B5194D1F
:102D5800194B9D421DD26C798C4229D12C79844221
:102D680000D028BBEC79944222D12C68DCB118221F
:102D78000021201D2BF0D7F925602B792371AA7922
:102D8800A2602A7AE260012B05D0022B4FF00003E3
:102D98000BD0002407E0E87A22F066FB6B7A2374F4
:102DA800AB7A60616374204638BD23602371F0E715
:102DB8000C35CEE7585C0308DC5C030870B50E4C94
:102DC80005460C2694F8983F032B01D9002011E002
:102DD8005A1C06FB034384F8982FD3F89C2FD1077D
:102DE800F0D51542EED093F9A00F0DF0C1FC0028E4
:102DF800E8D0406870BD00BF98090020024B00224F
:102E080083F8982FDAE700BF9809002030B5264BE1
:102E180010201C78A4F13002092A194603F1010395
:102E280029D9214A00208B1A022B27DC0023914242
:102E38002ED82E2C36D10131042400220D7802EB35
:102E48008202303D5200092D92B298BF521904F106
:102E5800FF349CBF013192B214F0FF04EED164211B
:102E68004A43124901FB03230622B3FBF2F3104A3B
:102E780002FB003001E00138CBD130BD00EB80000F
:102E880012F8013B40003038184400F0FF00CAE750
:102E980003EB830312F8015B5B00303B2B4403F028
:102EA800FF03C4E70022DAE76819002040420F0058
:102EB8008096980030B5002351F8234052F82350EB
:102EC800641B40F823400133032BF5D130BD2DE9B5
:102ED800F04180468CB00846154623F066FF4FF453
:102EE8007A72002307460E4626F0DCFA3C2405FBDE
:102EF8000404314638464FF47A72002326F0D2FA99
:102F0800002796B24FF47A73C3FB04673B463246F8
:102F180009A823F0D3FE6A4B93F8E23F012B65D052
:102F2800022B00F0918032463B4609A823F0C6FEEA
:102F38003C2195FBF1F31AB201FB13531BB2BDF808
:102F48002410002BB8BF5B42B1F5FA6F9BB21BD3BC
:102F58009DF8261001390B2916D89DF8271001393C
:102F68001E2911D89DF8281017290DD89DF8291069
:102F78003B2909D89DF82A103B2905D8BDF82C1003
:102F8800B1F57A7FC0F0998000204E490991ADF8DB
:102F980028008DF82A00ADF82C000446079382EA31
:102FA800E2739DF828009DF829609DF82A70BDF805
:102FB8002CC09DF82710009115F13B0FA3EBE2738D
:102FC800B4BF2D252B259BB2CDE90553CDE90106CC
:102FD800CDE9037C9DF82630BDF824203A494046C7
:102FE80023F0ABFF20460CB0BDE8F0819DF82640E9
:102FF800E31E072B97D8231F052B0DD9BDF82400F6
:10300800214623F009FE9DF8273098420DD0E11E95
:1030180018BF0121002986D02C4B3C35F6184FF0FB
:1030280000032DB243EB07077DE7032C03D19DF87E
:1030380028100039ECE70A2C7FF475AF9DF82810AA
:10304800B1FA81F14909E5E79DF82640E31E082B0E
:103058003FF669AF231F062BDED9BDF824002146B1
:1030680023F0DAFD032C12D10E280ADC9DF8273054
:10307800984208D19DF82810012994BF0021012108
:10308800C8E70738F0E7B4BF01210021C2E70B2CDD
:103098007FF449AF07280ADC9DF82730984208D109
:1030A8009DF8281001298CBF00210121B2E70738BB
:1030B800F0E7CCBF01210021ACE701246EE700BF97
:1030C8009809002000000101872D030880EE3600D2
:1030D80008B504481BF04EFCBDE8084002481DF046
:1030E800CBBD00BFB52D0308C12D03080C4608B59C
:1030F80005460DF092FA20460DF08FFA0021084699
:1031080022F058F90021012022F054F9284621F034
:10311800A7FF70B10121002022F04CF9284621F0C8
:1031280099FF0146204621F09EFF0021084622F023
:1031380041F9204621F094FF0028E7D00121002022
:1031480022F038F9204621F085FF0146284621F073
:103158008AFF00210846D7E7F0B505460C4689B036
:103168001422002120462AF0DEFF2A681D4E04A8FA
:10317800C2F385510023054641FA03F7FF0744BF10
:103188009F5D00F8017B0133062BF5D1164900231A
:103198000370C2F303200844C2F3053690F88A0688
:1031A8008DF8180001F291610DF1190046FA03F744
:1031B800FF0744BF5F5C00F8017B0133062BF5D1A4
:1031C80000230370C2F38343029306ABCDE9005397
:1031D800064902F00F032046C2F3031223F0ADFEA6
:1031E80009B0F0BDA4E8020820E20208CE2D0308C9
:1031F8001FB5324901A891F83520783109F0A9FAAC
:103208000398019A80EAE073A3EBE07307EE903A23
:10321800F8EEE77AF7EE086AC7EEA65A82EAE27392
:10322800A3EBE27307EE103AB8EEC77A029BF4EE0E
:10323800C75AF1EE10FA13DD83EAE371A1EBE371EB
:1032480006EE101AB8EEC66AF4EEC65AF1EE10FA97
:1032580006DD0028CCBF0020012005B05DF804FB86
:10326800C7EE265A83EAE371A1EBE37106EE101A62
:10327800B8EEC66AF4EEC65AF1EE10FA09DDF4EEBD
:10328800E57AF1EE10FA04D5002ACCBF022003201B
:10329800E3E7C6EE265AB4EEE57AF1EE10FA09D560
:1032A800F4EEE57AF1EE10FA04D5002BCCBF042039
:1032B8000520D2E74FF0FF30CFE700BF0000001035
:1032C80070B5294C294D94F8E42FDFED296A55F89B
:1032D800F06C04EB4201013202F00F0284F8E42F93
:1032E80015F8D82CB1F8E63FA1F8E60F07EE102A3A
:1032F800B8EEC77A15F8D72C27EE267AC31AFDEE52
:10330800C77A334417EE901A07EE902AF8EEE77A58
:1033180045F8F03C67EEA67A1B09FDEEE77AA4F8BB
:10332800443D17EE902A914220460FDD9BB29A4207
:10333800D4BF9B1A00239942A6BFCB1A9BB2002385
:10334800A4F8443D0B4617EE901A1A46B0F8443DCF
:103358005B1AC3EB8323521A93FBF2F282F30A023D
:10336800A0F8442D70BD00BF98090020901A0020D5
:1033780014AE234130B51A4DD5ED227A89B0F1EE5D
:10338800677ACDED057AD5ED237A00230093F1EE27
:10339800677A0B680193CDED067A4B68D5ED247AF0
:1033A80002938B6803930446D5F884300493F1EEB6
:1033B800677A6A4604A96846CDED077A0EF05CFC88
:1033C800694605F1840208460EF056FC019B23600D
:1033D800029B6360039BA360204609B030BD00BF19
:1033E8000000001038B502782DED088B70EE609A59
:1033F800D0ED01AA044669EEAAAAB0EE40AAB0EE42
:10340800419AF0EE618AB0EE42BA0D46F0EE62BA29
:1034180001F001034AB1002B0CBFF0EE607AF0EE28
:10342800697A0022C0ED0B7A0270D4ED0B7A002B7A
:1034380062D079EEE77AF0EE690A87EE890AC4ED80
:103448000B0AD4ED090A94ED038AF5EEC00AF1EEF1
:1034580010FA05DDB0EE491A04F1180020F05DF904
:1034680020EE088A94ED0A7A94ED050A68EE2B2A74
:103478007AEE877A2AEE00AA77EEA27A77EE8A7A2F
:10348800F4EEE87AF1EE10FA08D4F4EECB7AF1EE25
:1034980010FAD4BFF0EE678AF0EE4B8AD4ED026AD8
:1034A80094ED046AC4ED0DAA69EEA69AF0EE476A97
:1034B800E9EE296A6B0778EEE77A84ED0C7A67EE15
:1034C800867AC4ED0E2AE9EE276A84ED0FAAC4EDC8
:1034D800108AF0EE667A08D5F0EEE66AB0EEC77AA2
:1034E800F4EEC76AF1EE10FA01D5C4ED0A7AB0EE2F
:1034F800680ABDEC088B38BD70EEE77AF1EE677AA2
:1035080087EE890A9BE710B588B0002300930B6803
:1035180001934B6802938B6815490393D1ED227A86
:10352800D1F884300493F1EE677ACDED057AD1EDC8
:10353800237AF1EE677ACDED067AD1ED247A044646
:10354800F1EE677A6A4684316846CDED077A0EF067
:1035580093FB694604AA08460EF08EFB019B236084
:10356800029B6360039BA360204608B010BD00BFA8
:103578000000001010B5204C94ED220AD4ED217AF9
:1035880020EE000AA7EEA70AD4ED237AA7EEA70A31
:10359800D4ED247AA7EEA70A28F0A6FFDFED177A64
:1035A800B4EEE70AF1EE10FA0CD54FF07E53C4F8EA
:1035B80084300023C4F88830C4F88C30C4F89030C4
:1035C8000F4810BD94ED217AC7EE007A94ED227A67
:1035D800C4ED217AC7EE007A94ED237AC4ED227AFD
:1035E800C7EE007A94ED247AC4ED237AC7EE007A08
:1035F800C4ED247AE4E700BF00000010BD3786352B
:103608008400001030B5D0F8D010ADF50B7D00F176
:103618000A0206920A448AAB0792B0F8D6200393AE
:10362800ADF820204FF6FF7390F8D520ADF8103094
:10363800044600230AAD8DF8222002A901AA06A893
:1036480002958DF81230ADF81430ADF8243001939E
:1036580015F00CF940B1029B94F8D42002A9204639
:10366800CDE902530CF08DFC0198002363720DF52F
:103678000B7D30BD054911F8C12C0023042A0360D5
:1036880028BF0422BC392AF063BB00BF901A00206F
:1036980010B4064911F8C12C00240480022A5DF8F0
:1036A800044B28BF0222BC392AF052BB901A0020D2
:1036B800F8B5204C1D270E46054684F84C700CF0D2
:1036C80093FE00200CF01CFE08200CF019FE0E20C2
:1036D8000CF016FE38460CF013FE04200CF010FE19
:1036E80004200CF00DFE00200CF00AFE30200CF037
:1036F80007FE00200CF004FE30460CF001FE00200E
:103708000CF0FEFD0CF050FE04F14D000CF060FDD5
:10371800234670B194F84D2052B994F84E20302ABF
:1037280000D02AB993F84F2012B993F850302B7073
:103738000120F8BD901A002010B50246041D002093
:10374800A24200D110BD12F8013B0821584010F0E8
:10375800800F4FEA400318BF83F031030139D8B214
:10376800F5D1EDE70F4B062230B483F85F20242211
:1037780083F8602083F86120002283F862200A4AD7
:1037880003F1630102F1240452F8045B41F8045B7D
:10379800A242F9D1032230BC83F8650083F8662081
:1037A80006F0D0BF901A0020B7E80208F0B5144C14
:1037B800014600200246264607464FF00A0CA31889
:1037C80093F8D03F03B9F0BD2E2B06D10132002962
:1037D800F9D0A3180B4483F8D07FB3180CFB00F082
:1037E80093F8D05FA5F13003092B9CBFA0F13003FB
:1037F800E8180E2A01D80132E1E70020E3E700BF0C
:1038080098090020036813F0400004D013F4057FE2
:1038180014BF012000207047F0B5224C224D85B01E
:1038280004F128070646C5F88C4FC5F8907FFFF7C6
:1038380079FA122385F8603F42F6F82005F5766399
:103848000021C3E90201194BC5F8803F40200CF064
:1038580069FF024620B3FFF7D5FFA03C054692F961
:10386800040014F8E62C14F8E51C0096002D14BF8B
:1038780003230123002A0CBF0722062201290CBFBB
:10388800082100210A43CDE901324021084A3B467C
:103898000CF080FF0DB1C4F80801003818BF0120F2
:1038A80005B0F0BD301B00209809002067DB000838
:1038B80071A30008F0B5BF4CD4F80C6194F81071EE
:1038C80085B076B13046FFF79DFF50B15FBBD4F8A5
:1038D800083143B3B84AC2F8943D012384F8103143
:1038E80021E094F81101FDF733FE874205461AD00E
:1038F800002800F00081B6B1AF4D96F9040095F8A4
:10390800A539B3FA83F35B09029302264FF41653E1
:10391800CDE9003600231A4604210CF03BFFC5F818
:10392800940D0028D9D194F81201FDF711FE94F8EE
:103938001331834205461ED0002800F0E680D4F8F3
:103948001421C2B19C4B92F9040093F8AC39002BB6
:1039580018BF0823029303254FF49643CDE9003599
:1039680000231A4608210CF015FFC4F8180110B1FD
:10397800012384F8133194F81C31012B28D194F8D1
:103988001D01FDF7E5FDD4F820310546002800F0BB
:10399800C580EBB9D4F82401D0B1874990F9040067
:1039A80091F8AC2991F8A519002A14BF0822002221
:1039B800002908BF42F00102029203214FF461423C
:1039C800CDE900211A4620210CF0E4FEC4F82001BC
:1039D800D4F8286194F82C71002E00F0A8803046A5
:1039E800FFF710FF002800F0A2804FB9D4F8083183
:1039F80033B1C4F83031FCF757FC012384F82C317B
:103A080094F83601FDF7A4FD94F837318342054652
:103A18003AD0002800F0D880D4F83831D3B11A7AD7
:103A280093F9040003210023002ACDE90113634917
:103A380008BF072201EB82024FF48071D2F8BC263E
:103A480000921A460CF0A6FEC4F83C0110B10123FE
:103A580084F83731584A5A4B92F8D61983F8CC1063
:103A680092F8D71983F8CD1092F8D81983F8D010A6
:103A780092F8D91983F8D41092F8DA1992F8DB2958
:103A880083F8D51083F8D62094F84001FDF760FD3F
:103A980094F84131834205462BD0002800F09D80E0
:103AA800474B4FF4FA72C3F8B423D4F8443103B344
:103AB8001A6802F41072B2F5107F1AD093F9040054
:103AC80008220323CDE901324FF4E13300930023A8
:103AD8001A464FF400710CF05DFEC4F8480140B17D
:103AE800354BC3F8900D012384F84131002384F845
:103AF8004C3105B0F0BD304ED6F8940D0CF098FD61
:103B0800C6F8945D84F810510DE7D4F818010CF04C
:103B18008FFDC4F8185184F813512CE7002B3FF49B
:103B280057AF18460CF084FDC4F8205150E794F8BC
:103B38003401FDF70DFD874205463FF461AF78B3C8
:103B4800FCF7B2FB002E3FF45BAF317A31B30229A8
:103B58001FD1194B93F8AF2912B9194AC3F8DC29B8
:103B68000025022396F90400CDE90135134B03EB38
:103B780081012A46D1F8BC36009310212B460CF05F
:103B880009FEC4F8300100283FF43AAF84F83551F3
:103B980033E70129E4D1084B0A4ADFE70521DFE7CB
:103BA800D4F830010CF044FDC4F8305184F82C519D
:103BB80026E700BF901A00209809002020E202089A
:103BC800000000200A000020D4F83C010CF030FD71
:103BD800C4F83C5184F8375156E7D4F848010CF042
:103BE80027FDC4F8485184F8415182E737B50446A7
:103BF800A4F17D03012B0D4610460ED87D210192BC
:103C080021F031FA019884F0200121F02CFA15B145
:103C1800288804442C8003B030BD2146F5E773B5ED
:103C280004460D46ADF80620C61D14F8010B2A46B9
:103C38000DF10601FFF7DAFFA642F6D10DF10600F5
:103C48000AF046F89DF806002A460021FFF7CEFF45
:103C580002B070BD024B0022D3F82011DFE700BF8D
:103C6800901A00202DE9F04F4D4ADFF838E183B073
:103C7800C31D03F4FC7300AFD2F89849ADEB030DF4
:103C8800C7F800D025689EF84D31AC46D2F8905957
:103C98000E46591C6844C9B2AC45E846786092465D
:103CA800754603F00F038EF84D1138D1B4F90C2086
:103CB80043F01003002A4146B8BF43F0200301F83F
:103CC800023B08F101023A60D4E900239B1A3960EB
:103CD80088F801303B68D4E90012A0EB03095FFAC9
:103CE80089F9521A09F107035FFA82FB03F4FC739E
:103CF800CB45ADEB030D18D34A4668462AF028F8A1
:103D080023684B4423604A466946384623F0EDF859
:103D18004046B04701200C37BD46BDE8F08F0DF195
:103D280001023A608DF80030D4E75A4668462AF016
:103D38000FF823685B4423605A466946384623F0E7
:103D4800D4F8DAF89829DAF890392168127AC4E9AF
:103D58000031CB1A5340DBB285F84E31002022687F
:103D6800914212D108B185F84E313B6895F84E2141
:103D7800591C39601A700021D7E900239B1A012BBE
:103D880009DC4046B0470020C5E7501C2060127887
:103D980001205340E3E7531C3B601170ECE700BF80
:103DA80098090020901A00202DE9F04F704C714EB0
:103DB80083B0D4F89829D2E900239B1A002BC4BFFA
:103DC800002386F84F3196F84F3100AF93B96A4A0D
:103DD800C4F88C2902F18005C4F8945902F19005C1
:103DE800C6E9B855C6E9742202F5C872C4F89059F4
:103DF800C4F898290144421CC4F88819C4F88429D5
:103E08000278D4F894595109012905D000210846AF
:103E1800FCF72EFA01204EE002F00F0A12F0100211
:103E28003DD0831CC4F88439C31C90F801C0C4F881
:103E3800843900228378AA81D4F88C292B812A60BE
:103E480083EA0C0362446A6086F8F03286F84F1100
:103E5800D5E90032D4F88489A2EB0309D4F888297B
:103E6800A2EB08025FFA82FB0BF107035FFA89F9FC
:103E780003F4FC73D945ADEB030D20D35A464146F4
:103E8800684629F065FF08EB0B01C4F884195A4607
:103E98006946284623F029F886F8F1A20AE0002BA3
:103EA80064D096F8F132013303F00F035345CFD0B5
:103EB80086F84F2100200C37BD46BDE8F08F4A46F2
:103EC8004146684629F044FF08EB0901C4F8841903
:103ED800284669464A4623F008F8D4F88C392868F9
:103EE800C5E9003096F8F03200212A68904211D1D5
:103EF80009B186F8F032D4F88439197896F8F03296
:103F080099424FF0000386F84F3109D0B5F90810EF
:103F180001207DE7511C2960127801215340E4E714
:103F2800D4F88C19D4F89409C5E90012D4F8981972
:103F3800D4F890294A600B818B813A1D7B6014F07C
:103F480095FC013006D1D4F898291368591C1160E2
:103F580002221A707B680BB100209847D4F8983970
:103F6800D4F890291968C3E9002153E71846A2E755
:103F780098090020901A0020E01B0020F0B5114D90
:103F880095F8F542C3B0A61D324605F53D71684661
:103F980029F0DEFEB5F8F2320DF806300DEB060218
:103FA8001B0A04F1080653706C46002714F8011B1D
:103FB800D5F83C01013721F056F8BE42F6DC43B093
:103FC800F0BD00BF901A00200C4B034493F8CA3090
:103FD80093B10B4A024492F8021451B9322B28BF0C
:103FE800322318463223B3FBF0F082F80204012092
:103FF8007047013982F80214002070470000002041
:10400800901A00200A88504080EA0010C0B20309C4
:1040180083EA122343EA002383EAC000088070473A
:104028002DE9F743284C1F46FE2384F8F43294F810
:10403800163484F8F632013384F816344FF6FF73D9
:10404800164684F8F52284F8F70284F8F812ADF8D9
:104058000630062504F2F528013DADB23DBBDFF878
:104068007080BDF8063094F8F552A4F8F2324FF695
:10407800FF79A8F10801013DADB24D451ED1384682
:104088001249FFF7BFFF94F8F532B4F8F22223443F
:1040980006F1080083F8FA2294F8F532B4F8F2220F
:1040A8002344120A83F8FB2203B0BDE8F08318F812
:1040B800010B0DF10601FFF7A5FFCDE718F8010B7D
:1040C800FFF7A0FFD7E700BF901A0020821D00204D
:1040D8008A1D002017B48DF805308DF804200A4B8E
:1040E800BDF804209DF81040A3F8FA222F2283F887
:1040F800F92283F8FC42032299238DF8064003B085
:104108005DF8044B8CE700BF901A002010B40368D8
:104118000B4900228B420FD8591C01601A70094BB9
:104128000268426003F5886101605DF8044BD3F8CA
:104138003001521A20F09ABF11F8014B6240E9E7AA
:10414800D31E0020901A0020074B03F2524242600F
:1041580003F241420260242283F8402403685A1C77
:10416800026054221A707047901A002010B5064C4D
:10417800D4F8180120F074FF00B910BDD4F8180164
:1041880020F068FFF4E700BF901A002010B5064938
:1041980091F8524484421EBF81F85204C1F8582451
:1041A800C1F85C3410BD00BF901A002010B5044659
:1041B800C0B2FDF719F9C4F30720BDE81040FDF7B8
:1041C80013B9034B5E21D3F8940D20F04CBF00BF08
:1041D8009809002038B5074D04465E21D5F8940D9E
:1041E80020F041FFD5F8940D2146BDE8384020F075
:1041F8003ABF00BF9809002013B5044601A900681A
:10420800FCF768F81320FFF7E5FFBDF90400FFF796
:10421800CDFF1B20FFF7DEFFBDF90600FFF7C6FF45
:104228002320FFF7D7FF2368002BB4BF53204E206D
:10423800FFF7BCFF01A96068FCF74CF81220FFF7F4
:10424800C9FFBDF90400FFF7B1FF1A20FFF7C2FF4D
:10425800BDF90600FFF7AAFF2220FFF7BBFF63683E
:10426800002BB4BF57204520FFF7A0FF02B010BDB8
:1042780038B51D4D95F80C4DB5F8303D632CA8BFE9
:104288006324012B2BD940F22622934229D8333BB1
:10429800322293FBF2F3C3F10903642202FB0344C5
:1042A800D5F87C39A4B2990744BF04F57A74A4B24E
:1042B800DA07D5F8803944BF04F5FA64A4B25B077D
:1042C8000BD515200EF054FB38B1D5F8683A13F425
:1042D800016F04BF04F57A64A4B2204638BD0023F8
:1042E800D9E70923D7E700BF98090020274BD3F85F
:1042F8008019D3F8683A21F0704222F07F02002A30
:104308000CBF012002204A0748BF0430D90744BF28
:104318000A3080B29A0744BF143080B2D90544BF2E
:10432800283080B25A0744BF643080B2190744BFAE
:10433800C83080B29A0644BF00F5C87080B2D9066A
:1043480044BF00F57A7080B2DA040FD500F5FA5050
:1043580080B2990442BF00F51C50103080B29A0513
:104368000ED5A0F5C740403880B27047190502D570
:1043780000F5FA60ECE75A06EBD500F57A60E7E756
:104388005B05F2D500F59C402030EDE79809002048
:1043980038B503680B4D591C95F8602401601A70F4
:1043A8000468446005F26141641A402CA8BF4024A7
:1043B8000160224605F2A14029F0CAFC85F8E144D3
:1043C80038BD00BF901A0020036810B5054C5A1C70
:1043D800026094F86004197023F05EF984F86004B0
:1043E80010BD00BF901A002070B506460C468D1807
:1043F800AC4200D170BD14F8011B3046FFF7E4FF52
:10440800F6E738B505460C46090EFFF7DDFFC4F39D
:1044180007412846FFF7D8FFC4F307212846FFF7CE
:10442800D3FFE1B22846BDE83840CDE738B50546A8
:104438000C46090AFFF7C8FFE1B22846BDE8384034
:10444800C2E7074B002283F8602403F2A1424260CE
:1044580003F262420260C82283F86124704700BFF9
:10446800901A002013B504466846FFF7EAFF009B40
:104478005A1C00923E221A7068467B21FFF7A4FF5F
:104488006846EA21FFF7A0FF6846C821FFF79CFFAE
:104498003A2221466846FFF7A7FF6846FFF778FFEC
:1044A80002B010BD034B93F8E404831E58425841F0
:1044B800704700BF901A002008B50DF031FB074A7D
:1044C800D2F8402D120606D430B9054B93F81905D9
:1044D800003818BF012008BD0120FCE7980900201A
:1044E800901A0020104B93F8172507EE902A012206
:1044F80083F830260D4AD2F86C2AC3F8342603F51F
:10450800AC614FF4FA62F8EE677AC3F838260020F7
:104518000022C1ED397A83F83C26C3F84026C1F859
:10452800E800C3F85C267047901A0020980900201C
:104538000C4B93F81535012B03D0022B0AD0002021
:104548007047094BD3F8803913F00C0F0CBF0120CA
:1045580000207047044BD3F8800980F00400C0F3B2
:1045680080007047901A0020980900202DE9F04F2C
:104578002DED028B93B020F05EFBE04B0190D3F859
:10458800182D1192D3F8402DD3F810EDD3F814CD8F
:10459800CDF83CE012F0800F8B46CDF840C01C46A9
:1045A80000F01D83D3F87C198B0708D4D44A012363
:1045B80082F8583513B0BDEC028BBDE8F08FD148B6
:1045C800019DD0E90032EE1A6BEB02070023CE4AB8
:1045D800CE4DBB4208BFB2423EBFC94A012382F852
:1045E800583511F0010F824600F0C98095F814354E
:1045F800002B00F0C48095F8B836002B40F0BF803F
:1046080007EE90EA9FEDC27AF8EEE77AC7EE875A8E
:10461800DFEDC07AF4EEE75AF1EE10FA00F16781A7
:10462800DFEDBD7AF4EEE75AF1EE10FA00F35F81A0
:1046380007EE90CAF8EEE77A87EE875ADFEDB77A89
:10464800B4EEE75AF1EE10FAB0EE673A00F14F8196
:104658009FEDB36AB4EEC65AF1EE10FA00F3478143
:10466800F2EE047AC5EEA76AAE48252385EE277ACE
:10467800FDEEE66ADFEDAC4A9FEDAC4AF8EEE66A7D
:10468800F4EEE45A66EEA76ABDEEC77AF1EE10FAC8
:10469800F4EEC45A8CBFFDEEE64ADFEDA54AB8EE4B
:1046A800C77AF1EE10FAA8BF76EEE76A27EE277A06
:1046B800B4EEC35AA8BFFDEEE64AF1EE10FAB4EE26
:1046C800C65AF0EE443A8CBFBDEEC74A9FED994AF0
:1046D800F1EE10FAF8EEE46AA8BF37EE677A75EEE5
:1046E800E65AA8BFBDEEC74A36EEA37AC7EE274AF8
:1046F800BCEEE47A17EE10CAB8EEC47A03FB0C01DC
:1047080037EE066A35EE475AC6EE274A0CFB0333E6
:104718001844BCEEE46AC5EE274A16EE102A8F1834
:1047280097F9006700EE106A561C0244314492F96A
:10473800003706EE103A91F9003707EE103AB8EE56
:10474800C00AB8EEC77A304437EE407A90F900379D
:10475800A4EE870A07EE103AB8EEC66AB8EEC77A32
:1047680037EE467AA4EE876A85EEA77A36EE406A77
:10477800A7EE060A0DF004FA012385F8B83694F876
:104788002C33002B40F0EE80012384F82C330F9B50
:10479800C4F83433002BB8BF5B4207EE903A9FED64
:1047A8005C7A109AC4F83823F8EEE77A119AC4F8BC
:1047B8003C2387EE870ADFED607A20EE270A22F095
:1047C8009BFEDFED5E7AB4EEE70AF1EE10FA00F137
:1047D8009180F7EE007AB4EE670AF1EE10FAC8BFDE
:1047E800B0EE670A84EDCC0A554800220FA9FBF702
:1047F800C7FC434B93F85835002B40F07481DAE935
:104808000001019B181A4F4B6BEB0101C31802936F
:1048180041F1FF330393DDE9026700234CF2503284
:10482800BB4208BFB24280F0A680474E10EB060894
:1048380041F1FF39002749F640464F4508BF464534
:1048480080F09B80414E8619049641F1FF3605960B
:10485800DDE904674FF0000944F62068B94508BF50
:10486800B04580F08C80DFF8F4C010EB0C0606969B
:1048780041F1FF360796DDE906674FF0000942F27D
:104888001078B94508BFB0457BD2314BC31808939F
:1048980041F1FF330993DDE90867002341F27072A3
:1048A800BB4208BFB24280F032812A4BC3180A9338
:1048B80041F1FF330B93DDE90A6700234FF47A6275
:1048C800BB4208BFB24280F02581DFF894C010EBEC
:1048D8000C060C9641F1FF360D96DDE90C67BB42DC
:1048E80008BFB2424FD344F6206000214BE09FED51
:1048F8001A0A3FE7B0EE670A74E700BF980900207C
:10490800000000204021002060E31600901A0020DB
:104918008096184B0000B4C20000B442000034C3B3
:104928000000344320E20208000070C20000704218
:10493800C4FFFFFF4CFFFFFF35FA8E3C0AD7233C2C
:10494800042000201891FCFFE040FDFF70A0FEFF4E
:10495800D08AFFFF28A6FFFF000000003850FFFFA5
:10496800B0B9FFFFFFF7E4FD00283FF43DAF119B0E
:10497800C4F83C3338E79D48B7E79D48B5E79D48FC
:10498800B3E71046194624F047FDD4F8107D9FED93
:104998009A8A9FED9A7A07EE900A87EAE773A3EB63
:1049A800E77367EE888A07EE903AF8EEE77A87EEC3
:1049B800870ADFED937A20EE270A22F09DFDDFEDCE
:1049C800917AB4EEE70AF1EE10FA00F1A680F7EE5C
:1049D800007AB4EE670AF1EE10FAC8BFB0EE670AC3
:1049E80095F81825884E002A00F09A8094F8063D1C
:1049F800002B00F09580B4F9223D07EE903AB4F907
:104A0800243DF8EEE77AC6ED087A07EE903AF8EE1C
:104A1800E77AC6ED097A94F8073D002B00F0B180DB
:104A2800B4F9263D5B4207EE903AF8EEE77A77490B
:104A3800C6ED0A7AD1E9002352EA0300894601F15A
:104A4800080801F1140700F0B0800199881A6BEB8F
:104A5800030124F0E1FC07EE900AD8ED006A97ED17
:104A6800016A27EE888AD7ED007AB0EE667AA8EE5A
:104A7800277AF0EE477A98ED017AB0EE470AA8EE69
:104A8800060A77EEE67A30EE470A20EE000AA7EE2D
:104A9800A70A27F029FD9FED5E7ADFED5E7A28EE02
:104AA800077AE8EE077AB4EEE70AF1EE10FA7CD955
:104AB8000123A5F8703594F8093D002B00F08A8091
:104AC800B4F82C3D07EE903AB4F82E3DF8EE677A2C
:104AD800C6ED0B7A07EE903AF8EE677AC6ED0C7AD7
:104AE800019BC6E9023BD4F8103DC5F8BC36D4F8A2
:104AF800143D494AC5F8C036D4F8183DC5F8C4363F
:104B0800002382F85835019BCAE9003B52E548F278
:104B18003520EAE646F2A810E7E6B0EE670A5FE756
:104B2800D5F8BC369FED3D6AD5F8C016FB1A07EEDE
:104B3800903AF8EEE77AD4F8143D67EE867A5B1A75
:104B480087EEA87AD6ED087A37EE277A07EE903AFC
:104B580020EE060AF8EEE77AF6EE006A27EE800AFB
:104B680027EE267AC0EE287A86ED087A96ED097A3D
:104B780077EE877A67EEA67AC6ED097A002A7FF47F
:104B88004AAFD4F8183DD5F8C4269B1A07EE903AD8
:104B9800B8EEE77AC7EE287A96ED0A7A77EE877A42
:104BA800B6EE007A67EE877A41E7019BC9E9003BD8
:104BB8001B4B93E807000C3388E8070093E80700CD
:104BC80095F8703585F87135002387E8070085F872
:104BD800703570E7134BF362134B336380E70A4B6E
:104BE80000200021C3E90201E4E400BF90D00300E3
:104BF800400D0300A0860100BD3786358096184B0E
:104C080035FA8E3C0AD7233CF01F0020582100209B
:104C18000000FA4300007A43000000202C7D8E3FFC
:104C280004200020000048430000FA43D2ED017A36
:104C380091ED017AD2ED026A92ED006A37EE277A99
:104C4800D1ED027A77EEA67AD1ED006A80ED017A8D
:104C580076EE866AC0ED027AC0ED006A7047B0EE63
:104C6800C00AC0EE207ADFED186A77EEA67AF4EE75
:104C7800E67AF1EE10FA21D4B7EE007AF4EE477A2C
:104C8800F1EE10FAC8BFF0EE477A77EEE17A72EEED
:104C9800611A67EE817A87EEA17A77EE267AF5EEC9
:104CA800C07AF1EE10FA0CD4B4EEE71AF1EE10FA6D
:104CB80058BFB0EE671AB0EE410A7047F0EE667A58
:104CC800E3E79FED011AF6E7000000000B4A10B574
:104CD80002F1E000FBF70CFC094B03F5DD6403F27D
:104CE800EC63002000212060186002F59270A2F8A1
:104CF8006819FBF7FDFBA2F86A1910BD9809002096
:104D0800901A0020F8B5374B03F5DE65D5ED007A2B
:104D1800F5EE407AF1EE10FA2DED028B0E4608EE14
:104D2800100ADFED318A0BD1D3F8F436B3F8AE3080
:104D380007EE903AF8EEE77A67EEA87AC5ED007AC2
:104D48002A4C94F8651A6423002A01FB03F13046C3
:104D580014BF0427002722F0DBFAB8EEC88A07EE52
:104D6800900A95ED002A9FED221A9FED220A28EE5F
:104D7800011AF8EEE70AF7EE002A3946F1EE421A70
:104D880004F51E70FEF72EFB94F8293F112B80EED8
:104D9800287A21D1C4F8386FD4EDAB7AFDEEE77AE2
:104DA80017EE903AD4EDAA7AC4F82C3FFDEEE77AD4
:104DB80017EE903AD4EDAC7AC4F8303FFDEEE77ABE
:104DC80017EE903AD4EDAE7AC4F8343FFDEEE77AA8
:104DD80017EE903AC4F83C3FBDEC028BB0EE470AA0
:104DE800F8BD00BF901A00200000C84298090020B2
:104DF800BD3786350000000010B5134BD3F8F436E4
:104E080093F88830012B19D0022B1AD10F4BB3F924
:104E180004200F4B12F1FA0F0CDA012283F85925FE
:104E280093F9594528200DF0A3FD08B1644264B2F6
:104E3800204610BDFA2AF3DDFF22EFE74FF0FF34DA
:104E4800F0E70124EEE700BF901A002000000010F0
:104E5800000000200E4A10B50E4C02F5DF63002159
:104E680004F50D70196059609960FBF741FB04F572
:104E78001E70FBF73DFB002382F8043782F80537E4
:104E880002F5E162A4F86839A4F86C39116010BD24
:104E9800901A00209809002038B5074DD5F87C49AC
:104EA800E30602D5BDE83840D4E724F46054FFF7A0
:104EB8000DFFC5F87C4938BD9809002008B50C4B92
:104EC80093F8292F0A2A04BF0322C3F82C2F1A7B30
:104ED8004AB1D3F8F422C3F89423D3F86C2AC3F860
:104EE8009C23002008BDFFF7D7FF0220FAE700BF88
:104EF8009809002010B5124CD4F87C39DA061BD575
:104F0800104B242202FB003094F8293FC1890A2B58
:104F180004BF0123C4F82C3FFBF7D2FA70B98B0702
:104F280001D4FFF7B9FFD4F8F432C4E9E53300231C
:104F3800C4F89C33022010BD0320FCE70420FAE7E4
:104F48009809002020E20208084908B501F5F87020
:104F5800FBF7CEFA064B002283F8142703F5E36328
:104F6800A1F86A2900221A6008BD00BF980900202C
:104F7800901A002008B50E200DF0FAFC28B9044B51
:104F8800D3F87809C0F3807008BD0120FCE700BFA2
:104F98009809002008B5084B084A1B78242101FB12
:104FA800032344F21900DB89184004D00EF08AFC70
:104FB800003818BF012008BD9809002020E2020827
:104FC80070B5A04A9FEDA06A92F82F3A9F4D07EE60
:104FD800903AF8EE677A92F8303A87EE867A144675
:104FE80000260021F2EE045A82EDAF7A07EE103A5D
:104FF800B8EE477AC7EE067AB7EE007AF4EE477A4B
:10500800F1EE10FAC8BFF0EE477AC2EDB07AD5F8E3
:10501800F43693F83D30E16107EE903AF8EE677A9E
:10502800216287EE867AA162616204F11400C4ED00
:105038000E5A84ED067AFBF75BFAD5F8F43693F846
:10504800440093ED232A01EE900A93F8430001EE01
:10505800100A93F8420000EE900A93F8410000EE1F
:10506800100AF8EE611AB8EE411AF8EE600AB8EEC6
:10507800400AB3EE045A04F1E000C1EE861A443443
:1050880081EE061AC0EE860A80EE050AFBF73CFAA6
:10509800002E00F0D580D5F8F4366D4893F890408E
:1050A80007EE904AF8EEE77A93F8914087EE867A11
:1050B80007EE904AF8EEE77A80ED007A87EE867A76
:1050C80093F8924093F83930C2F8A410C2F8A810A7
:1050D800C2F8B010C2F8AC1007EE904AF8EEE77AC2
:1050E80080ED017A87EE867A92F8264A07EE904A92
:1050F800F8EE677A80ED027A87EE867A07EE903AC4
:10510800F8EE677A80ED037A87EE867A5148C2ED29
:10511800305A82ED287AFBF7EBF9D5F8F436DFED53
:105128004E7A93F85300DFED4D1A01EE100A93F80A
:10513800520093F8513000EE900A00EE103AB8EEA3
:10514800411AF8EE600AB8EE400A81EE061A4448A1
:1051580080EE270AC0EE850AB2EE042AFBF7D4F9DE
:10516800B0EE005A82ED6C5AC2F8B411C2F8B81108
:10517800C2F8C011C2F8BC11C2ED745A3948FBF725
:10518800B7F9D5F8F436DFED351ADA7C364801EE92
:10519800102A9A7C5B7C00EE902A00EE103AB8EE5A
:1051A800411AF8EE600AB8EE400A81EE061AC0EE1F
:1051B800860A80EE060AB2EE042AFBF7A5F9D5F8AE
:1051C800F436DFED261ADA7B284801EE102A9A7B9E
:1051D8005B7B00EE902A00EE103AB8EE411AF8EE2A
:1051E800600AB8EE400A81EE251AC0EEA50A80EEE4
:1051F800250AB2EE042AFBF787F9D5F8F436DFED75
:10520800171A93F82B201A4801EE102A93F82A202F
:1052180093F8293000EE902A00EE103AB8EE411AC1
:10522800F8EE600AB8EE400A81EE061ABDE8704052
:10523800C0EEA50A80EE250AB0EE452AFBF764B950
:105248000126E4E6980900200000C842901A0020D0
:10525800AC210020340A0020666685420000000068
:10526800000B0020440B0020CC0B0020880B0020F2
:10527800100C0020094A0A491378242000FB031364
:10528800D889830607D410F0400005D0D2F87C09ED
:10529800C0F3001070470120704700BF9809002034
:1052A80020E20208734AD2F8803913F004032DE98A
:1052B800F047924600F0CC8092F8F83D6E495BB119
:1052C80092F8F93D43B192F81C2E062303FB021213
:1052D80092F8E138002B74D19AF808509AF80760D0
:1052E80045B19AF80930022B39D19AF80B50003D94
:1052F80018BF0125BAF8082040F202239A4230D19B
:105308009AF80B70003F18BF01279AF80030242242
:1053180002FB0313B3F80E809AF8403908F40078BA
:1053280033B19AF94139002B02DDB8F1000F03D0EF
:10533800524B002283F82C27DAF87C9919F0100FC9
:1053480015D0FFF717FE044698B34C4B93F82D077A
:1053580048B1002283F82D270B20BDE8F0870025EF
:10536800C8E70027D1E7DAF8683A1A06F5D49AF8B8
:105378001230002B76D108200DF0FAFA38B9132034
:105388000DF0F6FA60B13D4B93F82C3743B9B8F1FC
:10539800000F67D125B11FB116B119F0010F61D106
:1053A8000A200DF0E5FA70B1344B002283F82C275F
:1053B80007E0DAF8683A1B06D9D50EF055FA002846
:1053C8004ED10420C9E713200DF0D2FA78B1DAF8EB
:1053D800683A190509D4294B93F82C375BB155B1B4
:1053E8004FB146B119F0010F05D00920B5E7234B9D
:1053F800012283F82C2709200DF0BAFA28B1DAF82F
:10540800683A9A0630D405B176BB23200DF0B0FA7D
:10541800044603200DF0ACFA84B1DAF8683A48B1D2
:1054280041F208029A4321D025B1002E0CBF0F206B
:10543800102092E703F480532B4319D10028C0D0E1
:10544800DAF8683A1B0701D4002EBAD0052084E7A1
:105458000A4C84F82C37FFF78DFD84F82D07B0E748
:1054680020467AE7072078E7062076E7102074E7D9
:105478000F2072E79809002020E20208901A002005
:10548800044AD2F8803913F0040308BFA2F840395F
:10549800704700BF98090020054B587C03F5377208
:1054A80003F53173002814BF10461846704700BF33
:1054B800980900202DE9F8430D46904650B103782D
:1054C800303B012B06D806210130FEF76DFCBB4BA3
:1054D80083F82E07BA4EB94F35E097F82E3733B117
:1054E800B8490620FEF7BEFB87F82E0736E097F886
:1054F8002F27B54B03EB4203B3F8FA481CB987F8DA
:105508002F474FF4036497F82F170131C9B2B4F548
:105518008A6F87F82F1700F0498156D8B4F5806F45
:1055280000F0048133D8B4F5007F00F0A18019D8C9
:10553800B4F5807F00F0A880B4F5887F00F0CF80B4
:10554800B8F1000F0CD02B7853B1B8F1000FC4D0CC
:10555800D6F86C3AD8F800209A42BED800232B70AF
:10556800BDE8F883B4F5047FEAD1D6F878399C070A
:10557800E6D596F8AA39002B77D007F03DFA014610
:105588004FF40470FAF762FE00232B70D8E7B4F5E5
:10559800866F00F0B8800DD8B4F5826F00F0C9802E
:1055A800B4F5846FCCD1FAF73BFE0028C8D0D6F802
:1055B800A41D67E0B4F5886FC2D196F8A939002B0D
:1055C800BED0824BB3F994105CE0B4F5006F00F0E4
:1055D800B88025D8B4F5E26F00F09E8014D8B4F5F1
:1055E800C06F5FD0B4F5E06FAAD196F8A999B9F168
:1055F800000FA5D1754B93ED0F0ADFED757A20EEFC
:10560800270A26F0C5FB54E0B4F5E46F98D196F864
:10561800A999B9F1000F93D16C4B93ED110AECE7FE
:10562800B4F5046F68D014D8B4F5026F00F0B680F2
:10563800B4F5036F84D1FAF7F3FD002880D0B6F8EB
:10564800283D4FF4F36113FB01F3642193FBF1F15F
:1056580018E0B4F5116F7FF473AFD6F878399B076B
:105668007FF56EAF07F0C8F944E007F085F986E7E3
:1056780007F072F900283FF463AFB7F930170A232F
:1056880091FBF3F120467DE7D6F8403D58077FF5BA
:1056980057AFFFF701FFD0ED027AFCEEE77A17EE7D
:1056A800901AEFE796F8AD99B9F1000F08D107F015
:1056B8006FF901462046FAF7C9FD85F800903FE7E3
:1056C80007F04AF900283FF43BAFB9F1010F0CBFCE
:1056D800D7F83417D7F838174FF4C06052E7D6F820
:1056E800403D59077FF52CAFFFF7D6FE90ED050A30
:1056F80026F04EFB0146C5E7344BB3F9981001EB91
:1057080081014900BEE796F8A939002B3FF418AF8C
:105718002E4BB3F99610B5E796F8A999B9F1000F91
:105728007FF40EAF294B93ED100A66E7FEF7DEFD16
:10573800E0E7FAF775FD00283FF402AFFEF798FDA1
:10574800D8E7FAF76DFD00283FF4FAAECA0714D57A
:10575800D6F8143D83EAE371002BA1EBE37101EB6A
:1057680051014FF01902B1FBF2F1ACBF41F0004119
:1057780041F040414FF4006004E7D6F8103D83EA59
:10578800E371A1EBE371002B01EB51014FF019021A
:10579800B1FBF2F1B8BF41F08041EBE7FAF740FD09
:1057A80000283FF4CDAED6F8181D6BE7FAF738FDA0
:1057B80000283FF4C5AEB6F92A1D63E7901A002009
:1057C800980900200102000820E2020800000010E9
:1057D8000000C8427FB5437803F00F0403F0F003DC
:1057E800802B0ED1042164F07F0400238DF808106B
:1057F8008DF80940ADF80A3002A8FBF7A7FD04B000
:1058080070BD902B16D164F06F038DF80930B64B3C
:1058180004EB44041C44062194F85A358DF80A30E8
:1058280094F85B358DF80B3000238DF80810ADF82F
:105838000C30E1E7A02B40F07881AC4DD5F8402D35
:1058480012F0800126D095F80B3D2BB3012B25D003
:10585800022B14BF00260326A34B04EB4400034489
:1058680093F85C35012B1BD1A14991F83C375207BD
:105878004BBFC3F3400303F00103B1F93E27B1F96D
:1058880040279C4913B19142B8BF114601F5C87130
:1058980089B209E00E46DFE70126DDE70226DBE7ED
:1058A800072B05D1944BD9882046FBF789FDA6E73D
:1058B800032B09D195F8AA391BB107F09DF80146C9
:1058C800F2E707F059F8FAE7052B08D107F044F892
:1058D80001460028E8D0864BB3F83017E4E7062BDA
:1058E80008D107F039F801460028DDD0804BB3F81D
:1058F8003417D9E7092B09D1FFF7CEFDD0ED057A8A
:10590800FDEEE77A17EE903A99B2CDE70E2B06D165
:10591800794BB3F8981001EB81014900B8E70D2BDA
:1059280004D1754BB3F996104942F4E70C2B03D117
:10593800714BB3F89410EEE7122B01D10021B3E7B5
:10594800152B0CD1D5F8801995F8AE39890813F0C4
:10595800780F08BF81F0010101F00101A4E7162BBF
:1059680006D10CF047FF654B184490F826199BE7C1
:10597800412B07D112F0040196D05D4BD3F868177C
:105988000A236FE0852B06D112F004018CD0584B06
:10599800B3F8601788E7832B09D112F0040102D00D
:1059A800534BD3F860172046FBF7F0FC27E7872B0B
:1059B8002DD101910CF01EFF504B0199184490F81D
:1059C800323911B395F80C1D06EB8606C1EB41126E
:1059D80006EB860601EB8202B10001EBC2010B4423
:1059E80099B2D5F87C39DB0744BF01F5FA7399B24F
:1059F8004FF47A72B5F8303DB3FBF2F3092B28BFA8
:105A080009230A2202FB03139BB219464CE7082B11
:105A180005D100293FF448AFB5F8A81D44E7142B79
:105A280005D100293FF440AFB5F8A41D3CE77E2B13
:105A380009D1002982D0B5F8283D2421594364238F
:105A4800B1FBF3F124E7132B05D100293FF42CAF68
:105A5800B5F8281D28E70A2B07D100293FF424AF01
:105A6800B5F92A1D91FBF3F112E70B2B07D1002999
:105A78003FF41AAF95F80C1D01EB062114E7802BB3
:105A880004D100298FD0D5F8101D8CE7812B04D1C3
:105A9800002988D0D5F8141D85E7882B06D1002960
:105AA8003FF402AFD5F8101D154BDBE7892B05D164
:105AB80000293FF4F9AED5F8141DF5E7902B0AD16B
:105AC80000293FF4F1AED5F8102D0D4B92FBF3F100
