:020000040800F2
:1000000000000110297605086D3D0508B56103085B
:10001000C9760508C9760508C976050800000000FC
:10002000000000000000000000000000AD3D0508D9
:10003000A93D050800000000A53D0508C1AA040867
:10004000C9760508C9760508C9760508C976050880
:10005000C9760508C9760508F5C5040805C604086B
:10006000C976050801C60408FDC5040899580508A5
:10007000895805087958050869580508555805082C
:10008000415805082D580508C9760508C9760508A0
:10009000C9760508C9760508C9760508F9C50408B2
:1000A000D5590508AD59050885590508FD590508B4
:1000B000715905085D59050849590508C9760508AB
:1000C000C9760508C9760508C9760508C976050800
:1000D000C9760508E95B0508DD5B0508D15B050805
:1000E000F1C50408C976050861630508F9580508D3
:1000F000D1580508A95805082159050819580508B7
:10010000C9760508C976050835590508C976050870
:10011000C55B0508B95B0508C9760508C9760508F9
:1001200005580508F1570508DD570508C9570508A2
:10013000B5570508C9760508C9760508C9760508C2
:10014000C9760508C9760508C9760508294C050849
:10015000A15705088D57050879570508C976050880
:10016000C9760508C9760508C9760508C97605085F
:10017000C9760508C9760508C9760508C97605084F
:08018000C9760508C9760508DF
:1001880009284FF0010307D903EB83035B00B0FB99
:10019800F3F2092AF8D883B3F0B4DFF864C0002575
:1001A8000EE00A2A1E460F462346B4BF30245724C1
:1001B8002244092E01F1010105F101053A700FD918
:1001C800ACFB0324E408B0FBF3F203FB1200002DA0
:1001D800E7D1002AE5DC092B06D8303201F8012BDB
:1001E8000023F0BC0B707047ACFB0436B0FBF4F294
:1001F800234604FB1200F408EBE700230B7070475A
:10020800CDCCCCCCF0B40D6800240CE0BCF1050FCB
:1002180018D8A0F137030A2B14D104EB840415F87D
:10022800010B03EB4404A0F13003DEB2092EA0F168
:100238006107A0F1410CF0D9052FE7D8A0F15703C9
:100248000A2BEAD00D601460F0BC704700B583B08B
:100258000268074B8188CDF8012032221B68ADF86F
:1002680005108DF800206846984703B05DF804FB38
:10027800601C0020204B2DE9F0415D68064600F126
:100288000708002406E01B68394698473C44464561
:10029800A4B215D016F8017BA7F17D03012B2846DF
:1002A8002B684FF07D01EED81B6898472B6887F0C4
:1002B80020011B6828469847E8E7E3B203EB1424BB
:1002C800FF2CFAD8C4F1FF04E4B2A4F17D03012B9A
:1002D8002B6805D9214628461B68BDE8F041184718
:1002E80028461B687D2198472B6884F02001284602
:1002F8001B68BDE8F0411847601C00200A4AD36912
:1003080030B41C6855695D6019810025611C19604D
:100318009D812070D36951691A685A604FF6F67248
:1003280030BC19609A817047601C0020F8B5CE1E59
:100338000F4606440239421E04464FF6FF7312F870
:10034800015F5B1BB2429BB2F9D1C5194354064EFB
:100358001B0A05F8013C14F8011B306A4AF042FCFC
:10036800A542F8D1F8B2F8BD601C002010B582B0E3
:100378000B4660F05F001A0E08211C14ADF802301D
:100388008DF80100002368468DF804408DF805209B
:100398008DF80010ADF80630FFF7C8FF02B010BDA9
:1003A80030B5062283B060F05F030D460024114685
:1003B80068468DF80130ADF802508DF80020ADF890
:1003C8000440FFF7B3FF03B030BD00BF284A1168EF
:1003D80021F0704323F07F03002B0CBF0120022083
:1003E8004B07536848BF0430D90744BF0A3080B26E
:1003F8009A0744BF143080B2D90544BF283080B270
:100408005A0744BF643080B2190744BFC83080B26D
:100418009A0644BF00F5C87080B2D90644BF00F5FB
:100428007A7080B2DA040FD500F5FA5080B29904D8
:1004380003D500F51C50103080B29A050AD5A0F5F6
:10044800C740403880B2704719050AD500F5FA60F0
:1004580080B2ECE75B0503D500F59C40203080B204
:1004680070475A0644BF00F57A6080B2DFE700BFE4
:1004780000000010022805D0A0F10100B0FA80F0B9
:1004880040097047054B93F82C3023B9044B186882
:10049800C0F380007047102035F0CEBA601C0020F1
:1004A80000000010014B93F864007047601C0020A6
:1004B800F0B4424D424BAB66C823013885F86C3026
:1004C80005F16D0205F1A7014D2428E0DCB25BB20D
:1004D800002B34DB6300DCB25BB2002B36DB64003C
:1004E800E3B264B2002C38DB5C00E3B264B2002CE7
:1004F8003ADB5C00E3B264B2002C3CDB5C00E3B2A4
:1005080064B2002C3EDB5C00E3B264B2002C4FEA1C
:100518004303B8BF83F0D5038A42DCB238D010F861
:10052800013F02F8013B634013F0800F4FEA430399
:10053800CCD083F0D50463B2002BE4B2CADA6400ED
:1005480084F0D50463B2002BE4B2C8DA630083F008
:10055800D5035CB2002CDBB2C6DA5B0083F0D503AE
:100568005CB2002CDBB2C4DA5B0083F0D5035CB26A
:10057800002CDBB2C2DA5B0083F0D5035CB2002C3E
:10058800DBB2C0DA5B0083F0D5035CB2DBB2BDE757
:100598000C4E85F8A740A6F144070FCF0FC60FCF22
:1005A8000FC60FCF0FC697E80F00402785F8A84061
:1005B80086E80F0085F8EC70F0BC7047601C0020DE
:1005C800C83E7BEA0C1D002070B5214D95F8ED3032
:1005D800EA181C4692F8F0208AB11E4E09225C1CCB
:1005E800A6FB04135B0803EBC303E31AE918DCB2A8
:1005F80091F8F01009B1013AF1D185F8ED4002689F
:100608001549561C06600C2616700268561C0660B2
:10061800002616700268561C066003EB430603EBBF
:100628008603147019440D224EF0E2FF95F8ED1080
:10063800084B4A1CA3FB02035B08294403EBC303D2
:100648000120D31A81F8F00085F8ED3070BD00BFA5
:10065800601C0020398EE3385C1D002038B5044644
:100668000D460A460068FF215DF07DF8216829449F
:10067800216038BD026810B57F21541C04601170D8
:1006880002680024511C01600E211470FFF7E6FF78
:10069800012010BD30B5384C94F87131012B85B06C
:1006A80001D005B030BD94F87201022826D0A0F11F
:1006B8000100B0FA80F0400948B36368002BF0D11C
:1006C800D4F87421002AECD094F8345094F82D1002
:1006D80092F90400002D14BF08220022002908BF47
:1006E80042F0010203254FF46141CDE90152009126
:1006F8001A4620212DF0D0F86060D2E794F82C300B
:100708001BBB1E4B1868C0F380000028D5D1626857
:10071800002AC6D0D4F87C3193421BD0D4F8883153
:100728009A4216D0D4F894319A421CD0D4F8A03109
:100738009A421AD0D4F8AC319A4218D0D4F8B831C9
:100748009A4216D000236360ABE7102035F074F9A5
:10075800B2E7012000EB4000002104EB8003D162E6
:10076800C3E95F11EEE70220F4E70320F2E7042073
:10077800F0E70520EEE700BF601C00200000001035
:1007880070B51D4E1D4D96F8C801632200214AF030
:1007980085FAB6F8EC3104461948333B80FB032050
:1007A800DB17C3EB2010092200214AF077FAAA6868
:1007B800C0F10903642000FB0344A4B2910744BFBD
:1007C80004F57A74A4B22B68D20744BF04F5FA641E
:1007D800A4B25B0701D4204670BD152035F02CF972
:1007E8000028F8D06B6813F4016F04BF04F57A642D
:1007F800A4B2204670BD00BF601C0020000000109D
:100808001F85EB512DE9F047724C82B0E269D2E9BD
:1008180000239B1A002B00AF40F39B80002384F831
:1008280008326D4B236103F18002A3F11406C4E979
:100838007E33C4E90526C4E9E32203F5C075E56102
:100848000025421800F10109C4E902920378590908
:10085800012940F0858003F00F0813F0100310D130
:10086800002D00F0968094F89D13013101F00F01DE
:1008780041457ED01846083784F80832BD46BDE8A1
:10088800F087831CA360C31C4278D4F810A0A3602F
:100898008078C6F800A00AEB02037360424084F82F
:1008A8009C23D4E90292002584F808123081B5818E
:1008B800A2EB0902D5B2A3EB0A0A5FFA8AFAEB1D8A
:1008C80003F4FC73AA45ADEB030D67D252464946C3
:1008D80068465CF05DFD09EB0A03524630466946FE
:1008E800A3604EF085FE2369306894F89C23834208
:1008F800C6E9003009D00133336013F8011C98426F
:1009080082EA0102F7D184F89C23A3681B789342FA
:1009180032D12369E169C6E9003063694B6000237D
:10092800A0690B818B813A1D84F808327B6037F00F
:100938001FFD013046D07B680BB100209847E36962
:100948006269196801200837C3E90021BD46BDE87E
:10095800F08794F80852002D3FF463AFA66970E75A
:1009680000210846FFF7CAFC01200837BD46BDE84C
:10097800F087D6E900A39BE70023B6F9081084F8AE
:1009880008320120FFF7BAFC01200837BD46BDE850
:10099800F08728460837BD46BDE8F0872A4649460D
:1009A80068465CF0F5FC09EB050330462A466946C3
:1009B800A3604EF01DFE0020083784F89D83BD46D5
:1009C800BDE8F087E26913680221581C10601970AD
:1009D800B1E700BF601C00206C1E00202DE9F04D1F
:1009E8002D4D2E4EB5F99E13B5F8A4C3B5F8A083C6
:1009F80086FB0146CC17C4EBA604A4B2A44582B07A
:100A080016461F4603D1B5F8A633434533D00368CD
:100A18000190591C342201601A7003680022591C85
:100A280001601A7021464EF013FE019841464EF0BF
:100A38000FFE019847F6FF714EF00AFE019847F63F
:100A4800FF714EF005FE019847F6FF714EF000FE6B
:100A5800019847F6FF714EF0FBFD01980221FFF760
:100A6800FDFD0120C5E9EA67A5F8A443A5F8A6831A
:100A780002B0BDE8F08DD5E9EA32B6EB030A67EBC0
:100A8800020B0023064A5B4508BF5245BFD300202E
:100A980002B0BDE8F08D00BF601C00206766666686
:100AA80080841E00604AD3682DE9F041064613F0A1
:100AB800800000F09A80906810F0020000F09580A5
:100AC8005A4F97F8C811052940F29380632900F21C
:100AD8008E800024DFF860C189B22546ACFB013264
:100AE800D20802EB8203A1EB4303E0B28E469BB22D
:100AF80080008340BEF1090F91B245EA030504F175
:100B08000104EBD8EDB2D7F8D431494A82FB03127D
:100B1800D917C1EB623189B2002900F082804FF009
:100B2800000CDFF814E16446AEFB0132D20802EB98
:100B38008203A1EB43035FFA8CF088469BB28000E6
:100B48008340B8F1090F91B244EA03040CF1010C97
:100B5800EAD8E4B2B7F8E43136494FF4F36213FB4C
:100B680002F381FB0312D917C1EBA21189B242F239
:100B78000F73994240D8C9B10027DFF8BCE0BC46E2
:100B8800AEFB0132D20802EB8203A1EB4303F8B2B9
:100B980088469BB280008340B8F1090F91B24CEAB5
:100BA800030C07F10107EBD81FFA8CF13368172201
:100BB800581C30601A7033680022581C30601A7054
:100BC80030464EF045FD4FF0FF3130464EF028FDDF
:100BD80033685A1C32601D7033685A1C32603046C4
:100BE8001C700621FFF73AFD0120BDE8F081992528
:100BF80089E70020BDE8F0810020DFF83CC001460D
:100C0800ACFB0372D20802EB8207A3EB47039BB24B
:100C180083400430102841EA030193B2F0D189B22D
:100C2800C4E70C4696E700BF00000010601C0020D7
:100C380089B5F814D34D6210CDCCCCCC2DE9F04F4A
:100C4800C14AD368804613F0800083B000F06F81FA
:100C5800906810F0020000F06A81DFF80CB39BF88E
:100C6800C831052B40F26881DBF8CC31B74D0093D1
:100C7800002BB8BF5B42A5FB0342B548B549920DAE
:100C880000FB0233C3EB03139B0085FB034502EB18
:100C98008202DC1702EB8202C4EBA55400FB04338A
:100CA80004EB8204A4B281FB0321DB17C3EBA1117F
:100CB800BCB10025A84F2E46A7FB0432D20802EB90
:100CC8008203A4EB4303E8B2A4469BB280008340AE
:100CD800BCF1090F94B246EA030605F10105EBD809
:100CE800340489B2B9B100259B4F2E46A7FB0132C7
:100CF800D20802EB8203A1EB4303E8B28C469BB215
:100D080080008340BCF1090F91B246EA030605F161
:100D18000105EBD83443DBF8D0E18C4D8C4E8D497E
:100D28008EEAEE70A0EBEE70A5FB0032920D06FB8A
:100D38000200C0EB0010830085FB035002EB820227
:100D4800DD1702EB8202C5EBA05506FB053305EB68
:100D58008205ADB281FB0321DB17C3EBA111C5B13D
:100D68000020DFF8F4C10646ACFB0532D20802EBDE
:100D78008203A5EB4303C7B2A9469BB2BF00BB40A1
:100D8800B9F1090F95B246EA030600F10100EBD864
:100D9800350489B2C1B10020DFF8BCC10646ACFBFE
:100DA8000132D20802EB8203A1EB4303C7B28946A2
:100DB8009BB2BF00BB40B9F1090F91B246EA0306E6
:100DC80000F10100EBD83543DBF8D431624A0193D6
:100DD800002B1846B8BF5842A2FB00305F4E60494E
:100DE800030AA6FB0363DB0901FB03F1C1EBD00196
:100DF80089B2B9B1002691463746A9FB0132D2081B
:100E080002EB8203A1EB4303F0B28C469BB2800055
:100E18008340BCF1090F91B247EA030706F10106C6
:100E2800EBD8B9B2BBF8E671DFB10026DFF828A12C
:100E3800B446AAFB0732D20802EB8203A7EB4303AE
:100E48005FFA86F938469BB24FEA890903FA09F333
:100E5800092897B24CEA030C06F10106E9D81FFAF3
:100E68008CF7BBF8EC313C4AA2FB0306F608632E6C
:100E780028BF6326092B63D9002093468146ABFB24
:100E88000632D20802EB8203A6EB43035FFA80FA2C
:100E9800B4469BB24FEA8A0A03FA0AF3BCF1090F77
:100EA80096B249EA030900F10100E8D85FFA89F926
:100EB800009B019A002BCCBF392338231616BEF1AC
:100EC800000F26F07F0635DD264A3343964543F06A
:100ED8000206C8BF43F00606D8F800301622581C90
:100EE800C8F800001A70D8F800300022581CC8F85A
:100EF80000001A7040464EF0ABFB214640464EF0CB
:100F08008FFB294640464EF08BFB404639464EF053
:100F18009FFBD8F800305A1CC8F8002083F80090CE
:100F2800D8F800305A1CC8F8002001201E7003B001
:100F3800BDE8F08F1E43CFE7002003B0BDE8F08F77
:100F48004FF00009B4E700BF000000106BCA5F6BE8
:100F5800806967FFD34D6210CDCCCCCCC55A7C0AD2
:100F6800A0860100FFC99A3B601C002003687E220E
:100F7800591C10B501601A7003680022591C0160E1
:100F88001A704FF6FF7104464EF03CFB0D4B93F878
:100F9800323083B126F0CAFE014620464EF032FBBD
:100FA800204647F6FF714EF02DFB20460821FFF73B
:100FB80055FB012010BD26F0CFFE014620464EF01D
:100FC80021FBEDE7601C0020F0B5334D334FD5E928
:100FD80004322DED028BC01A83B061EB020156F08A
:100FE800F9F89FED2F8AB7F8186407EE900A27EEF4
:100FF800888A34F099FE002848D1BCEEC88A18EED9
:10100800103A9E4204D2012003B0BDEC028BF0BD21
:10101800B5F92630DFED230A02EE103AB7F812349C
:1010280007EE906AB8EEC88A01EE903AB8EE671AF1
:10103800B8EEC22AF8EE611AB0EE480A04468DED01
:10104800011A4FF0CDFA97F82034DFED160A9DED1E
:10105800011A01EE903AB5F92230FDEEC07A02EE9F
:10106800103A17EE903AF8EE611AB8EEC22AB0EECE
:10107800480AEB844FF0B4FAFCEEC07A204617EE2B
:10108800903A6B7603B0BDEC028BF0BD032003B041
:10109800BDEC028BF0BD00BF00000010601C0020FA
:1010A8006F12833A000000002DE9F041274E284DC9
:1010B800D6E90432C01A61EB020156F08BF8DFED75
:1010C800257AB5F81434B5F81A2407EE100A67EE35
:1010D800277AFCEEE77A17EE904A234493422ED8FB
:1010E800B5F81674B5F81284A74204D2A6F826807B
:1010F8000120BDE8F0812EF08BFAB5F81034DFED51
:10110800160A07EE908A9842B8BF1846B8EE672AC2
:1011180007EE907A83B201EE903AB8EE671A07EEBE
:10112800904AF8EE611AB8EEE70A4FF059FABDEEA8
:10113800C00A002010EE103AF384BDE8F08134F0C4
:10114800F3FD0028CCD00320BDE8F081000000109A
:10115800601C00206F12833A0000000000F01F029C
:1011680040090123032803FA02F304D0042807D016
:1011780002280AD07047074A116C0B431364704762
:10118800044A116B0B4313637047024A516C0B43BB
:1011980053647047003802400B68144A30B405683D
:1011A800CC682A402343D1E9054513432343D1E9B9
:1011B80007242B4313434A6A4D6B234313438C6B19
:1011C800CA6A2B43234343F40033036044690B6B1F
:1011D8000D6924F0070413432343D1E90142436115
:1011E8004560846030BCC260704700BF3F801CF01F
:1011F80070B50B46ADF5815D014614460DF581507D
:101208001A460023CDE9010304AD6846FD26039381
:10121800ADF8086000954EF0EBF9009B019320466D
:1012280069460222009529F0DDFD0DF5815D70BD4E
:101238002DE9F047041E0D4612DB092C26DC824AF4
:101248000B468248A0FB0410C00800EB8000A4EB0A
:1012580040000021125C1A7059702846BDE8F087DA
:1012680064422D23092C01F8013B24D8764A774B98
:10127800A3FB0403DB0803EB8303A4EB4303002075
:10128800D35C48700B702846BDE8F0876F4B632C21
:10129800A3FB04264FEAD60621DC6B4A0B466B49B2
:1012A800A1FB0601C90801EB8101A6EB4101515CD4
:1012B80003F8011BC5E7654A632CA2FB04364FEA15
:1012C800D60637D8604A614BA3FB0603DB0803EB5D
:1012D8008303A6EB4303D35C01F8013BC7E7A3FBF9
:1012E8000627B4F57A7F4FEAD7070DD2564A0B4640
:1012F8005649A1FB0701C90801EB8101A7EB410190
:10130800515C03F8011BCAE7A3FB072842F20F72DE
:1013180094424FEAD80836D84B4A0B464B49A1FBB2
:101328000801C90801EB8101A8EB4101515C03F8F0
:10133800011BDDE7A2FB0637B4F57A7F4FEAD70732
:101348000CD2414A414BA3FB0703DB0803EB8303A1
:10135800A7EB4303D35C01F8013BB4E7A2FB0738D2
:1013680042F20F739C424FEAD80821D8364A374BCD
:10137800A3FB0803DB0803EB8303A8EB4303D35C5D
:1013880001F8013BDEE7324AA3FB080994424FEA21
:10139800D90921D82C4A0B462C49A1FB0901C908B7
:1013A80001EB8101A9EB4101515C03F8011BB5E791
:1013B800274BA2FB08099C424FEAD90921D8224AA7
:1013C800224BA3FB0903DB0803EB8303A9EB4303CD
:1013D800D35C01F8013BCAE71E4AA3FB0903944208
:1013E8004FEAD30A21D80B461849174AA1FB0A012C
:1013F800C90801EB8101AAEB4101515C03F8011B0B
:10140800CAE7144BA2FB09029C424FEAD20A13D83E
:101418000E4B0D4AA3FB0A03DB0803EB8303AAEB7D
:101428004303D35C01F8013BCAE70A22BAFBF2F096
:101438004DF03AFE0346D7E70A22BAFBF2F04DF028
:1014480033FE0146E4E700BF10580608CDCCCCCCEB
:101458009F8601003F420F002DE9F04788B0541CD9
:1014680003941478002C00F0408100250746884634
:101478001E46A9460BE0791C02D021463846C047D3
:10148800039A0135531C03931478002C58D0252C4B
:10149800F1D1931CCDE9033950782D2800F0C8808C
:1014A8004FF0000A302800F0AB80A0F13003DBB227
:1014B800092B4FF0000440F2AF806C284ED07828FA
:1014C80038D8572840D9A0F15803202B32D8DFE864
:1014D80013F0F400310031003100310031003100E7
:1014E8003100310031003100DA0000013100C10063
:1014F8003100310031003100310031003100E300AA
:101508003100310031003100BB00310021003100D1
:101518003100F40056F8040B05A9FEF731FE05ABBF
:10152800CDE90043049B42464FF0FF3138464EF068
:101538004BF90544039A531C03931478002CA6D145
:10154800284608B0BDE8F0870028F9D02528F1D151
:101558007B1C95D025213846C04791E7039B5A1C30
:101568000392197878298DD8572967D9A1F158039A
:10157800202B87D801A050F823F000BFAB16000835
:101588008D1400088D1400088D1400088D140008AF
:101598008D1400088D1400088D1400088D1400089F
:1015A8008D1400088D1400088F160008E71600082F
:1015B8008D1400085D1600088D1400088D140008AD
:1015C8008D1400088D1400088D1400088D1400086F
:1015D8008D140008A31600088D1400088D14000847
:1015E8008D1400088D140008511600088D14000889
:1015F8001D1500088D1400088D140008AB1600088E
:10160800039B5A1C03921878A0F13003DBB2092B14
:101618004FF001043FF651AF04AA03A9FEF7F2FD0B
:10162800BAF1000F3FF449AF049B5B42049344E7CF
:10163800D31C039390784FF0010A33E700293FF455
:101648007FAF252984D01DE756F8042B049BCDE9EC
:10165800009268E7073626F00706F6E8020155F01B
:1016680081FC00EE100A05A84DF0B4FC05ABCDE9ED
:1016780000434246049B4FF0FF3138464EF0A4F831
:10168800039A0544FEE67A1C3FF4FAAE56F8041BAA
:101698003846C9B2C047F3E6039A56F8043B1D60C2
:1016A800F0E6A1F15802B2FA82F256F8040B520998
:1016B80005AB10214DF054FD31E7A0F15802B2FA04
:1016C80082F256F8040B520905AB10214DF048FD83
:1016D80025E756F8040B05A94DF0FEFC1FE756F860
:1016E800040B05A94DF0F8FC19E7254628E700BFCB
:1016F800F8B5B44CB44DB54BC4F82C540225B44AD3
:10170800B44FB54EB54984F830544FF0A045C4F8ED
:101718003454C4F8803405F51465A3F5DC63C4F8C3
:101728003824C4F8407402F550726037C4F87C64F9
:10173800C4F844146036A1F5A461C4F84854C4F848
:10174800F434A5F5886503F5B073C4F88424C4F8A7
:101758004C74A2F5C462A7F58467C4F88864C4F819
:101768003C14A6F5C06601F5C071C4F8B854C4F8B5
:10177800CC34C0359A4B9B48C4F8BC24C4F8C07418
:10178800C03207F52C67C4F8C464C4F8C81406F559
:10179800D55601F52A51C4F8D0544FF05025C4F855
:1017A8002804C4F8D42400208F4AC4F8F874C4F874
:1017B800FC64C4F8001506F5C0460121C4F80435D8
:1017C800C4F80855A3F5485307F5C04704F58565DF
:1017D800C4F80C25C4F814650246C4F810750E4602
:1017E80084F83314C4F8343584F83A1584F83C0581
:1017F80001462B46402083F81C21A3F82221013200
:10180800042AC3E9490183F81D6183F81F11C3F84D
:10181800301103F12803EED1002211462B46402057
:1018280083F87423A3F87A230132042AC3E9DF0179
:1018380083F8751383F87713C3F8881303F1280323
:10184800EED14FF0A04369489A6822F001029A60ED
:10185800DA6842F04002DA6052F042FD94F831341E
:101868000022212161F317420BB142F4801294F84F
:101878002B14D4F8343401299A6307D19A6822F0DA
:101888003E0141F02A0161F307029A60DA68D4F850
:101898003465D4F83804C2F3076121F0600141F0DF
:1018A800400161F31F620021DA603160026861F370
:1018B800CC22026094F83324012A10D101684C4AE2
:1018C8004C4E41F003010160802159629E62C3F8C9
:1018D80004214FF4A072C3F80821C3F80C21102189
:1018E800454853F04FF8444853F032F8D4F8386478
:1018F80094F8293400204FF0FF3230617061B261F2
:10190800F06143B305F114073C4A07EB83074FEA3C
:10191800830E4FF0FF0C52F8043F19680029ACBF42
:1019280000214FF09041BA4219601861C3F808C00D
:10193800F1D15035324A75440027FF2052F8043F50
:1019480019680029ACBF00214FF0904195421960F9
:101958001F619860F2D1336994F82B1443F48073B3
:10196800012933611ED0D4F83424264800294FF0C9
:1019780000036FF080414FF0FF349361516108BF5D
:10198800102354605161906143F47013916943F4DA
:10199800605343F008030B439361936843F00103DA
:1019A8009360F8BDD4F83424174B33636FF080414B
:1019B800144800234FF0FF34936151615460516122
:1019C8009061E1E7601C002040004001200B0050BE
:1019D8000008005000090050000B0050200900507A
:1019E80000400050080401000060005094200020CE
:1019F800C000800080004000882000209C2000203B
:101A0800D8200020000800800301810030B51F4B5A
:101A18005021082283B083F84313C3F88820BFF30A
:101A28004F8FBFF36F8F1A4D1A4C2B6B43F0010386
:101A38004FF4C0522B63694640F202332046CDE989
:101A4800002353F091FD636A23F470436362636A71
:101A580043F420436362636A23F470236362636A16
:101A680043F4202363622C2049F09EF9002149F0B9
:101A78002FF96B6C084A43F480436B646B6B01214C
:101A880043F080036B63516103B030BD00E100E0B7
:101A98000038024000000240003C014010B580219F
:101AA800044652F081F92046002152F07DF9204683
:101AB800BDE8104052F03ABC2DE9F041B14C94F821
:101AC8002F3AC4F81C0A82B088465A2B00F2B98013
:101AD800DFE813F0CC00B700B700DC00B700B700B0
:101AE800B700B700B700B700B700B700B700B70036
:101AF800B700B700B700B7001D01B700B700B700BF
:101B0800B700B700B700B70041017400B700B700CD
:101B18007400B700B700B700B700B801B70062019A
:101B2800B700B7007C00B700FB01B700B700B700EB
:101B3800B7005B00B700B700B700B700B700B70041
:101B4800B700B700B700B700B700B700B700B700D5
:101B5800B700B700B700B700B700B700B700B700C5
:101B6800B700B700B700B700B700B700B700B700B5
:101B7800B700B700B700B700B700B700B700B700A5
:101B8800B700B700B700B700E40194F8303A9B07F4
:101B980000F14D82B4F8363AD4F8312AD4F8701AE4
:101BA8005BBA9BB212BAD0188842C4F87C3AC4F81F
:101BB800782A03D952F0D8F8002854DB0020A4F87A
:101BC800680A0546284602B0BDE8F08194F8743AE0
:101BD800002B40F0FF8094F92C3A002B31DAD4F82E
:101BE800643A08469B689847002840F00482B4F895
:101BF800360AD4F8312AD4F8703A40BA80B212BA08
:101C080015189D42C4F87C0AC4F8782A07D952F0FE
:101C1800ABF8002827DBD4F8782AD4F87C0AD4F863
:101C28006C3AD4F8286A00FB03F002FB03F20225A1
:101C3800B042C4F8782AC4F87C0A84F8745A00F0D0
:101C4800CF8094F8403A5A1CD2B204EBC303052063
:101C58004FF40051042A84F8402A83F8440AC3F850
:101C6800481A00F092814FF0FF35ABE7D4F8283AD4
:101C7800002BE6D1D4F8643A08469B689847054695
:101C8800002840F0B881A4F8680A9BE73E4B002280
:101C980003F1120103F8012F8B42FBD13B4994F861
:101CA8006A3A94F8400A70250D7098424FF00C0576
:101CB800CD7110D004EBC300013390F8445A8D70F5
:101CC800B0F8480ADBB2042B40BA888114BF84F804
:101CD8006A3A84F86A2A94F8333A12229342A4F8AA
:101CE800682A0FD8A4F8683A00256BE7B5F5805F35
:101CF80028BF4FF48055D4F81C0A244AABB20121FE
:101D080052F04CF90025284602B0BDE8F08194F85D
:101D1800303ADA0700F12281D4F8643A94F8330AA9
:101D2800DA6901EBC10102EB81010A79531D834293
:101D380028BF0346A4F8683A002BE3D0013B1348B8
:101D48009BB201331944034411F8012D03F8012D06
:101D58008342F9D1D6E70E480E4E014608230738CC
:101D6800C1F10705A4F8683A002201E0127A194681
:101D78000B46814203F8012905EB030216FA82F2A9
:101D8800F4D1BFE7601C0020FB530020FC53002067
:101D980003540020C0D80508D4F8643ABA4A5B68EE
:101DA8000846111D98470546002840F02481D4F8BC
:101DB800703AB64AD4F86C1A013B180E1070180C19
:101DC80009BAD37050701B0A082093705160A4F8A8
:101DD800680AF7E6D4F87C6AD4F8782AD4F86C3A1A
:101DE800D4F8645AB2FBF3F24FF48057BE4228BFCE
:101DF8003E462D69A549A4F8687A4046B6FBF3F338
:101E08009BB2A8470028C0F2AE8033469F4AD4F858
:101E18001C0A812151F0FCFFD4F8782AD4F87C0AF6
:101E2800D4F8883A3244851B9E1BC4F8782AC4F833
:101E38007C5AC4F8886A002D7FF464AF032384F8C1
:101E4800743ABFE6914F00263B4607F10C0203F8AF
:101E5800016B9A42FBD1D4F8643A40465B686A4603
:101E680001A998470546002840F0CF80019BBDF89E
:101E78000020013B190E52BAFB713971190C1B0A6B
:101E880079710820BB7102217A810C23BDF80220E8
:101E9800F87039727A72A4F8683A93E67C487D4EF5
:101EA800014608230738C1F10705A4F8683A00225B
:101EB80001E0127C19460B46884203F8012905EB1C
:101EC800030216FA82F2F4D11CE794F8743A002B54
:101ED80061D194F92C3A002BFFF6B3AED4F8643AEA
:101EE80008469B689847002840F08580D4F8643AF3
:101EF8004046DB6898470546002840F0AC80B4F8B7
:101F0800363AD4F8312AD4F8700A5BBA99B212BAC0
:101F180053188342C4F87C1AC4F8782A00F29180D6
:101F2800D4F86C3AD4F8280A03FB02F203FB01F355
:101F38008342C4F8782AC4F87C3A7FF482AEB3F5B9
:101F4800805F28BF4FF480530121D4F81C0A4F4A00
:101F580084F8741A9BB252F021F833E607234D49EE
:101F6800A4F8683AEAE694F8403A5A1CD2B204EB6C
:101F7800C30304204FF48851824284F8402A83F82E
:101F8800440AC3F8481A7FF46EAE002384F8403A36
:101F98004FF0FF3516E6D4F87C6AD4F8640AD4F812
:101FA8006C3AD4F8782A4569B2FBF3F2B6F5805F4B
:101FB80028BF4FF480560846B6FBF3F333499BB26B
:101FC800A847002856DBD4F8782AD4F87C5AD4F8E5
:101FD800883A3244AD1B9B1BC4F8782AC4F87C5A53
:101FE800C4F8883A002D7FF481AED4F81C0A29463B
:101FF80052F028F8E6E594F8403A5A1CD2B204EBBD
:10200800C30302204FF4685124E694F8403A04EBE5
:10201800C3020133DBB202204FF46851042B82F86B
:10202800440AC2F8481A20D084F8403A1BE694F8CB
:10203800403A5A1CD2B204EBC30305204FF41051A6
:1020480008E651F091FE0028FFF60DAED4F8782A84
:10205800D4F87C1A64E794F8403A5A1CD2B204EBDC
:10206800C30302204FF41C51F4E584F8406A4FF092
:10207800FF35A7E594F8403A5A1CD2B204EBC303E3
:1020880004204FF4407177E7CC260020FC53002051
:1020980003540020C0D8050880F0010101484AF027
:1020A800CBB800BF1C28002070B50020FFF7F4FF54
:1020B8000D4B0E4D01244FF40676184601211BB135
:1020C800DE801C7248F004FE032C08D055F824303A
:1020D800012101341846002BF2D1032CF6D1BDE8BA
:1020E80070400020D8E700BF1C280020D8D8050879
:1020F80099B10A6B824216D9154BD3F80C2D91422F
:1021080021D34C3991421ED30B6B9842F9D38B6B78
:102118009842F6D80B46184670470D4BD3F80C1D5D
:102128000A6B904212D30B680BB9F4E70A6B904222
:102138000B4602D38A6B9042EDD951F84C3F002BE5
:10214800F4D1184670470023184670470A46D8E766
:10215800601C00202DE9F047CC0143D10346224AF8
:1021680043F8082B4FF0FF324260022418467E26BF
:10217800DFF87880D8F8109D2644013E051D4946B1
:102188006FF070474FF0010A08E0A3421CD0631CAF
:1021980045F8043C321B1C460435CAB10B6BA342FC
:1021A80002D88B6BA34204D22046FFF7A1FF014659
:1021B80090B10A794B6B002AE7D1A34204D0E6D24A
:1021C80045F8042C631CE5E745F8047C631CE1E74B
:1021D800C8F8101DBDE8F08745F804AC321B631C35
:1021E8004946D8E78026C3E7F8FFFF0F601C0020A8
:1021F80070B50546134895F91030AA6803EB8303B8
:10220800920750F823600C4610D5D4E901232168C1
:10221800304654F03DF9D4E90423E168304654F0DF
:1022280037F9AB689B0706D5012070BD686948F08F
:1022380049FD00BFE9E700BF686948F03BFF01209E
:1022480070BD00BF000000202DE9F04F2DED108B70
:10225800034693B004331193DFEDC1AA1090022313
:102268000F928B460E938946109C4FEADB0504EBD0
:10227800451202EB0511A5EB85034FEAC5084FEAA5
:10228800051E05EB850A009101EBC30308F1040064
:102298000EF104012E46204405EB450521444FEA82
:1022A800CA040D9602942C01C6EBC60C0394EC00EC
:1022B8000D9D04944FEACC0405946C010194119D82
:1022C800009C03EB46174FEACB0A02EBC6064FF019
:1022D800000C55ED011A11ED012AD6ED005AD7ED83
:1022E800004A92ED003AD4ED003A10ED015A93ED10
:1022F800004A72EE238A34EE248A71EE836A35EE40
:10230800257A36EEA86A77EE087A35EE655A76EEC3
:10231800275A36EE676A45ED015A82ED006A90ED5C
:1023280000AAD6ED012A93ED016AD7ED019A94ED42
:10233800010AD1ED005AD5ED007A92ED019A34EEFA
:10234800644A76EE690A7AEE624A35EEC01A31EED0
:10235800C33A72EE633A34EEA02A77EEC91A74EEE5
:10236800E04A75EE805A75EE440AB0EE410A35EE41
:10237800045AA2EE2A0ADC44E145A2EE6A1AB0EE3B
:10238800434AB0EE432AA0EEAA2AA0EEEA4AB0EEEB
:10239800613AF0EE610AE4EEAA0AA4EEEA3AF0EE37
:1023A800634AE5EE6A3AE5EE2A4A7AEE222A36EEE2
:1023B800296A77EE897A72EE861A37EE487A32EE13
:1023C800C66A76EEE86AB0EE635A77EEA53A77EE1B
:1023D800E57A73EEA18A36EE868A73EEE13A76EEF6
:1023E800C66A77EEC71A72EE002A77EE277A74EE7D
:1023F800015A30EEE46A33EE457A32EE402A34EE82
:10240800414A74EEA04A35EE035AC5ED008AC2ED82
:10241800013A554401ED018A5244C4ED006AC1ED08
:10242800001AC4ED017A514440ED012A544487ED65
:10243800002AC6ED005A83ED004A80ED006AC7ED18
:10244800014A504486ED017A574483ED015A5644B7
:1024580053443FF63EAF0D9B072B40F2A3810198F2
:10246800109D059B049A0399029C0830281808338C
:102478000A902846C318083282180593034608F1C3
:1024880008080EF10C0E0C33083408310692024687
:10249800454472440419411804934B460995D146A2
:1024A8000894079103924FF001084FF0000E9A46E6
:1024B8000E9B9E440F9B03EBCE0303EBCE0202EB75
:1024C800CE0000EBCE0404EBCE0505EBCE060C9354
:1024D80006EBCE07AEEB8E030B9207EB031202EB73
:1024E800CE0C0CEBCE03029203EBCE020193134603
:1024F800D3ED01DA019BD0ED007A93ED01DA029B6E
:10250800CDED027A93ED01CA0B9BDCED01CAD3ED48
:10251800007A0C9BCDED017A02EBCE0202EBCE01E4
:10252800009201EBCE02D3ED007A92ED01FA009A07
:10253800D1ED01EA92ED01EAD7ED00BA96ED00BAC5
:1025480095ED00AAD4ED009ACDED007ADDE9037689
:10255800DDE90554DDE90701DDE90923C44601E0A9
:10256800F304353F91ED006A56ED01FAD0ED002AEB
:10257800D4ED005AD5ED006A93ED007A57ED017A53
:1025880092ED002A96ED008A7FEE870A32EE061A4F
:1025980037EEA24A75EEA64A70EE841A31EE245A36
:1025A80032EE462A31EE856A75EEE65A06ED016A84
:1025B800D4ED018A92ED019A91ED013A95ED016A07
:1025C80097ED000AD0ED016AD3ED013A3FEEC77AE4
:1025D80077EEE27A78EEC6FA79EE432A39EE033AD4
:1025E80030EE669A38EE866A70EE266A78EE638A6E
:1025F80032EEEF0A72EEAF2A78EE233A30EEC44A92
:1026080032EE258AF0EE490A72EE655AE2EEAA0A1F
:10261800DC44E245A2EEEA9AB0EE682AF0EE472AD8
:10262800E5EEAA2AA5EEEA7AA0EE2A2A73EE065A61
:10263800E0EE6A8AF0EE67FA33EEA60AE8EE6A7A06
:1026480071EE644A31EEC55A33EE463A70EE651AB9
:1026580073EEE63A34EE036A72EEA06A34EE434A49
:1026680072EEE00A33EEE43AE8EE2AFA74EEA33AA0
:1026780065EE6D2A77EE094A37EE499A38EEE77A21
:1026880077EEA88A6DEEA17A9DED018AE9EE857A4A
:10269800E9EEA12A26EE6C5A6CEE831A32EE6F1A16
:1026A800A8EE035AE8EE061A2EEEA33A24EE6E6A56
:1026B8009DED008A3FEE822AABEE043AABEE236A28
:1026C8002CEE014A66EECC3AA8EE264AE8EE013A2C
:1026D8006FEE026A20EECF1AEBEEA06AABEE821A1A
:1026E80064EECE0A2EEE072A9DED028AEAEE070A6C
:1026F800AAEE242A2DEE287A69EE4D4AA8EE097A28
:10270800E8EE284A70EE255AC6ED005AC3ED007A65
:10271800C3ED012A4E4447ED011A87ED005A4B4498
:1027280080ED003A80ED016A4F4482ED004AC2ED27
:10273800013A4844C5ED006A85ED011A4A4481ED25
:10274800002A4D44C1ED010A84ED007AC4ED014A26
:1027580049444C443FF606AF0A9B08330A93099B49
:1027680008330993089B08330893079B083307939A
:10277800069B08330693059B08330593049B08338F
:102788000493039B083303930D9B08F10108434509
:102798007FF48EAE0E9BDDF834B0DB009BB2D146E1
:1027A8000E9361E513B0BDEC108BBDE8F08F00BF50
:1027B800804BB3FBF2F399420DD300234FF07E52C6
:1027C80043608360C36003610260002383614361E7
:1027D8000362C361704707EE902A9FED777AF8EE9F
:1027E800676A07EE901A66EE876AF8EE677A66EE11
:1027F800A76AFDEEE67A17EE903A2033402B00F2F6
:10280800CA80DFED6E7AF4EEE76AF1EE10FAF0EEC8
:10281800667A0CDDDFED6A5A9FED6A6AB0EE677A78
:10282800B4EEC67AF1EE10FA77EEE57AF6DC9FEDB3
:10283800667AF4EEC77AF1EE10FA0CD5DFED605A3D
:102848009FED626AB0EE677AB4EEC67AF1EE10FADE
:1028580077EEA57AF6D49FED5E7AF4EEC77AF1EEBC
:1028680010FA00F390809FED5B7AF4EEC77AF1EEF0
:1028780010FA44BF9FED547A77EE677A27EEA76A7D
:10288800DFED554A9FED557A9FED555ADFED555AC4
:10289800A6EE247A67EE864AA6EE075AB6EE007AC6
:1028A800E6EE055AE4EEA57A27EE877A9FED486AA8
:1028B80076EE867AFDEEE75A15EE903A2033402BF5
:1028C80066D8F4EEC66AF1EE10FA0CDDDFED3C5A7C
:1028D8009FED3C6AF0EE676AF4EEC66AF1EE10FA14
:1028E80077EEE57AF6DCDFED386AF4EEE67AF1EEBB
:1028F80010FA0CD5DFED325A9FED346AF0EE676AB4
:10290800F4EEC66AF1EE10FA77EEA57AF6D4DFEDAA
:10291800306AF4EEE67AF1EE10FA3FDDDFED276A71
:1029280076EEE77A67EEA76ADFED2B4A9FED2B5A22
:10293800DFED2B5A9FED2B6AA6EEA45A67EEA64A46
:10294800E6EE855AB8EE005AA6EEA56AE4EE867A57
:1029580067EE857AC7EE006AB7EE006A76EE865AA9
:1029680076EE666A86EE257A67EE277A66EE876ADD
:10297800C0ED017AC0ED037A80ED007A80ED027A2D
:10298800C0ED046A21E79FED0D7A77EE677A75E767
:10299800DFED157ADEE79FED147A87E7DFED0D6A44
:1029A800F4EEE67AF1EE10FA44BFDFED076A76EE50
:1029B800E77AB7E720A1070027D4D236DB0F4940D2
:1029C800DB0FC940E4CB1641DB0F49C0E4CB16C18D
:1029D800DB0FC93FDB0FC9BF9A7C2E36FAAF4FB960
:1029E8003587083CA4AA2ABE000000000023024A3A
:1029F800426003608360704783F9223E034A044BB8
:102A08004260002101608360704700BF5B128B3A0F
:102A18006F12033B034B6428B8BF6420C3F8040457
:102A2800704700BF00000020034B64289B6AB8BFB2
:102A38006420D860704700BF000000102DE9F047FF
:102A480090B0DDE918480E460746914601A83C2299
:102A580000219A461A9D5AF086FE2E4B8DF8046086
:102A6800CDF834800293002E50D0B31E012B4FD9DD
:102A7800042E14BF00230323DFF89C808DF8053053
:102A8800D8F8583D03941C440123CDE90557049414
:102A98008DF83130B9F1000F06D05246494607A8E3
:102AA8005AF076FC8DF830A098F85EED0023BEF160
:102AB800010F0E931CD801AC0FCC98F85DCDCCEB70
:102AC8000C1508EB850505F556650FC50FCC0FC528
:102AD8000FCC0FC594E80700BCFA8CFC0EF1010E70
:102AE8004FEA5C1C85E8070088F85EED88F85DCD44
:102AF8003B6843B153464A463146384610B0BDE8B4
:102B0800F0472AF031BA10B0BDE8F0870523B3E7E3
:102B18000223B1E778290020601C0020002303600D
:102B2800704700BFB4EEE00AF1EE10FA09D4F7EEF0
:102B3800007AB4EEE70AF1EE10FA88BFB0EE670A41
:102B48007047B0EE600A7047074B0849D3F80C2E5F
:102B5800C3F8FC1D931E4FF47871223223F8021F2C
:102B68009342FBD1704700BF601C0020CD280208AB
:102B780070B5244E244BC6F8FC3D11244FF47875EB
:102B880006F618634FF4787086F8E04D4FF47874C1
:102B9800C3E90045C3E90245C3E90445C3E906455D
:102BA800C3E90845C3E90A45C3E90C45C3E90E452D
:102BB8001649C6F8580E84B006F55E6241F60B2435
:102BC80000254020C2E90245C6F8001E2AF02CFF65
:102BD800B0B196F8633E0E4A90F904000092012BBA
:102BE8000CBF082200220323CDE901324021094A03
:102BF80000232AF051FEC6F8840E003818BF0120C1
:102C080004B070BD601C00202D3402082535020870
:102C1800A068060025470208054BD3F8BC2BB3F87B
:102C2800C03B51690B4214BF53831383704700BFE5
:102C3800601C0020642828BF64201C4B00EB800027
:102C480070B54500A3FB05235E095B0918BF002486
:102C580022D001349F2049F0D3FCE3B29E42F8D839
:102C68000A2E00D170BD1248A0FB05300009C6EB42
:102C78008613C6EB830366381844C0B249F0C0FC1B
:102C8800092E06F10104EDD001349A20E4B249F08E
:102C9800B7FC0A2CF8D170BD0548A0FB0530000927
:102CA8006638C0B249F0ACFC0124EDE71F85EB5152
:102CB800CDCCCCCCF0B41A4F97F8883E052B2CD845
:102CC8000C2202FB037202F5696252F8041C0133FC
:102CD800CC07DBB20ED501420CD092F90060114C42
:102CE800002194F90050B54204F10C040BD00131D5
:102CF8000629F6D1062B02F10C02E6D187F8883EA8
:102D08000020F0BC704701EB410107EB810187F817
:102D1800883ED1F87C01F0BC70470020F1E700BF85
:102D2800601C0020D81D00200144884218D030B40F
:102D3800441E4D1E002041F2210114F8012F0823E2
:102D480080EA022010F4004F81EA40020ABF4000E6
:102D580090B280B2013BF5D1AC42EED130BC7047A5
:102D680000207047D0ED017AF5EE407AF1EE10FAC6
:102D780005D19FED0B7AF0EE477A80ED017A30EEBF
:102D8800A77AD0ED007AC0ED020AC0EE876A30EE6D
:102D9800670AE6EE807AB0EE670AC0ED007A7047FF
:102DA80083F9223EBCEEC00A7F4AB2FBF1F210EE74
:102DB800103A9BB2934208D300234FF07E524360EF
:102DC8008360C36003610260704707EE901A9FED4D
:102DD800777AF8EE676A07EE903A66EE876AF8EE59
:102DE800677A66EEA76AFDEEE67A17EE903A203328
:102DF800402B00F2CA80DFED6E7AF4EEE76AF1EE5E
:102E080010FAF0EE667A0CDDDFED6A5A9FED6A6A19
:102E1800B0EE677AB4EEC67AF1EE10FA77EEE57A9C
:102E2800F6DC9FED667AF4EEC77AF1EE10FA0CD56F
:102E3800DFED605A9FED626AB0EE677AB4EEC67A4B
:102E4800F1EE10FA77EEA57AF6D49FED5E7AF4EEFD
:102E5800C77AF1EE10FA00F390809FED5B7AF4EEFA
:102E6800C77AF1EE10FA44BF9FED547A77EE677A8D
:102E780027EEA76ADFED554A9FED557A9FED555A23
:102E8800DFED555AA6EE247A67EE864AA6EE075A73
:102E9800B6EE007AE6EE055AE4EEA57A27EE877AD2
:102EA8009FED486A76EE867AFDEEE75A15EE903A7F
:102EB8002033402B66D8F4EEC66AF1EE10FA0CDD2A
:102EC800DFED3C5A9FED3C6AF0EE676AF4EEC66AA5
:102ED800F1EE10FA77EEE57AF6DCDFED386AF4EE1B
:102EE800E67AF1EE10FA0CD5DFED325A9FED346A2E
:102EF800F0EE676AF4EEC66AF1EE10FA77EEA57A9C
:102F0800F6D4DFED306AF4EEE67AF1EE10FA3FDD42
:102F1800DFED276A76EEE77A67EEA76ADFED2B4AE0
:102F28009FED2B5ADFED2B5A9FED2B6AA6EEA45A84
:102F380067EEA64AE6EE855AB8EE005AA6EEA56AEE
:102F4800E4EE867A67EE857AC7EE206AB7EE006A05
:102F580076EE865A76EE666A86EE257A67EE277AE8
:102F680066EE876AC0ED017AC0ED037A80ED007ADB
:102F780080ED027AC0ED046A70479FED0D7A77EE16
:102F8800677A75E7DFED157ADEE79FED147A87E754
:102F9800DFED0D6AF4EEE67AF1EE10FA44BFDFEDEC
:102FA800076A76EEE77AB7E720A1070027D4D2367A
:102FB800DB0F4940DB0FC940E4CB1641DB0F49C0AA
:102FC800E4CB16C1DB0FC93FDB0FC9BF9A7C2E3695
:102FD800FAAF4FB93587083CA4AA2ABE0000000002
:102FE80070B4344890F8D83EA3F13001092957D875
:102FF80000F6D864224600F6E76012F8015FA5F1F2
:103008003001092904D88242F7D1002070BC7047EA
:10301800141B022C4ADD2848002101E010F8013B6E
:1030280001EB810103EB4103161A303B022E0446E3
:1030380003F0FF01F2DC214B03FB01F1A2424FF048
:1030480000030DD903EB830314F8016B5B00303BDD
:103058003344A24203F0FF03F4D1194800FB03F301
:103068002E2D06D01748A0FB032301EB930070BC5C
:103078007047013204200024157804EB8404303DA5
:103088006400092D00F1FF30A4B202D82C44A4B288
:10309800013210F0FF00EFD1642202FB0433E1E7B4
:1030A80000211D4600F6D8620B46D9E7064C0021E0
:1030B800C4E700BF601C0020392B002080969800D0
:1030C80040420F00ABAAAAAA382B0020094BD3F81C
:1030D800E80ED3F8EC2ED3F8F03E824202DB11461C
:1030E80002460846984204DD9A42B8BF1A4610467E
:1030F80070477047601C002030B4144AD2F8F40EB0
:10310800D2F8F83ED2F8FC4ED2F8001FD2F8042FBD
:10311800834202DB1D46034628468A4202DB1546E7
:103128000A4629468842A8BF08469342B8BF1346B4
:10313800A04202DC224604461046834203DAA34238
:10314800B8BF2346184630BC704700BF601C00203B
:103158000B6810B414681B1B036054684B681B1B76
:1031680043608B6892685DF8044B9B1A83607047D4
:103178002DE9F041804684B0084616464CF076F9B1
:103188004FF47A72002304460D4654F069F8B6F9F4
:1031980000C00746294620464FF47A723C24002393
:1031A8000CFB047754F05CF8002594B24FF47A7362
:1031B800C3FB07452B46224601A84CF0A1F8404B1B
:1031C80093F80A3F012B2FD0022B10D19DF80670DF
:1031D800FB1E082B0BD83B1F062B1BD9BDF8040080
:1031E80039464CF023F8032F36D00B2F41D0224616
:1031F8002B4640464CF084F804B0BDE8F081032F1C
:1032080055D00A2FF3D19DF80870B7FA87F77F09D0
:10321800002FECD033882B4A3C33A4184FF000021F
:10322800338042EB0505E2E79DF80670FB1E072B8D
:10323800DDD83B1F052BEDD9BDF8040039464BF00E
:10324800F5FF9DF807309842D9D0033F18BF0127F2
:10325800002FDFD1CBE707380E28FCDC9DF80730BC
:10326800834212D0CCBF01270027002FD2D1BEE75E
:1032780007380728FCDC9DF8073083420ED0B4BF1E
:1032880001270027002FC5D1B1E79DF80870012F4D
:1032980094BF00270127002FBCD1A8E79DF808702C
:1032A800012F8CBF00270127002FB3D19FE79DF87E
:1032B8000870003F18BF0127002FABD197E700BF68
:1032C800601C002080EE3600074BD3F8142FD3F88B
:1032D8000C1FD3F8100FC3F80C0F5242C3F8101F7D
:1032E800C3F8142F704700BF601C002030B5046875
:1032F800E46985B02CB10DF10F050095A04705B024
:1033080030BD204605B030BD38B50A4C0A4D2321E2
:10331800D5F8180F4BF08AF814F8011F0029F7D1D7
:10332800064845F0BBFB95F81C3F13B1012385F80F
:103338001D3F38BD38580608601C00204458060850
:103348002DE9F04F89B0CDE90621DFF8B0800746B6
:1033580099460026069B002B07DBB34205D00136B1
:10336800042EF7D109B0BDE8F08FEE2303FB06FB6E
:10337800079B03EB0B0A204B00249B44B9F1000F79
:1033880033464246384601DBA14530D13BF814505C
:103398003AF81410009415F4006FA1EB050114BF5E
:1033A8004FF0560E4FF0480E05F01F0CB1FA81F1A0
:1033B800C5F344154909CDE901C5CDF80CE00591DF
:1033C80043F0B2FF3AF814300599009413F4006FF3
:1033D80003F01F0214BF56204820C3F34413CDE95D
:1033E8000123039033464246384643F0B9FF01347F
:1033F800772CC3D1B3E700BF802B002054580608B0
:103408002DE9F04F3B4C3C4B94F8205B3B4ADFF8EE
:10341800F4808946002D08BF1A4694F9211B8BB009
:103428000746374843F09CFA04F5B0644D46002639
:10343800B9F1000F3ED022782B789A426A683BD0C7
:10344800D5E902CE0021A87D0790B5F914000690B1
:10345800B5F912000590B5F910000093CDE903E025
:10346800CDE9012C334642463846099143F05CFFCA
:103478000999A37D6268B4F914B0B4F912A0B4F93B
:1034880010E0D4E9020C079314F8183B0093CDE937
:1034980001203346CDE905ABCDE903CE42460136DE
:1034A800384643F05DFF3C2E05F11805C0D10BB03E
:1034B800BDE8F08F4946DCE76168D5F808C091425D
:1034C80002D0D5F80CE0BDE7A168D5F80CE061455D
:1034D800B8D1E1687145B5D1206929698842B1D16F
:1034E8006069696920F07F4021F07F418842A9D155
:1034F8000121A8E7582D002070580608785D0608B5
:10350800745806088458060870B51F4E96F80C358E
:103518002DED028B04460D467BB3D6F81815D6F868
:103528001C25D6F814350360C0E9011206F5A2631C
:1035380093ED008ADFED158A95ED000A80EE280AE2
:1035480056F008FC23681844206028EE288A95ED78
:10355800010A80EE080A56F0FDFB636818446060B3
:1035680095ED020A56F0F6FBBDEC028BA368024605
:10357800134496F80C05A36070BDC0E9003383605E
:10358800B7EE008AD6E700BF582D00202C7D8E3F6D
:10359800F0B4244B93F80C5582B03DB90023036076
:1035A80043608360284602B0F0BC70474C68D3F88B
:1035B800147501940C68D3F818659FED1B6AE71B16
:1035C800019CA41B07EE904A03F5A264D4ED006A9F
:1035D80007EE107A66EE866AB8EEC77AF8EEE77AF2
:1035E80027EE067A67EEA67A012A80ED007AC0ED0A
:1035F800017A0DD08A68D3F81C35D21A07EE902AC2
:10360800F8EEE77AC0ED027A284602B0F0BC7047BF
:10361800D1ED027AF8EEE77AC0ED027A284602B0D8
:10362800F0BC7047582D00202C7D8E3F1D4A2DE997
:103638007003D46A1C4E002CD6F8F83303600EDDF4
:103648003032002306F57E7501E09C4207D052F81F
:10365800041BA94203F10103F7D1012200E0002273
:10366800D6F8043483600271104A96F8083443711E
:103678001346F3E80289D3E90045D6F8283452F80E
:10368800042CD6F8201481625B0943EAC26352090C
:10369800C0E90489C0E90645C0E90832BDE87003FD
:1036A800704700BF00000010000000203004002018
:1036B800014B986F704700BF00000020014BD3F802
:1036C8000801704700000020014BD3F8C000704784
:1036D800000000200C4608B505462AF0B3F820463D
:1036E8002AF0B0F80020FEF7D7FC284647F054FA35
:1036F800B0B9204647F050FA0028F6D00120FEF76E
:10370800CBFC204647F040FA0146284647F06AFAC3
:103718000020FEF7C1FC284647F03EFA0028E8D012
:103728000120FEF7B9FC284647F02EFA014620464C
:1037380047F058FA0020FEF7AFFCDAE710B4414A28
:1037480092F8B930D2F8A000023BD2E92614062B31
:1037580074D8DFE803F05A5C6050065504006442F0
:103768004942404280EAE073A3EBE07306EE903AE8
:1037780084EAE473A3EBE47307EE103AF8EEE66A22
:103788009FED316AB8EEC77A26EE866A81EAE17360
:10379800A3EBE17307EE903AB4EEC76AF1EE10FAC4
:1037A800F8EEE77A04DDB4EEE76AF1EE10FA34DCFD
:1037B8009FED256A27EE066AB4EEE76AF1EE10FA85
:1037C80004DDF4EEC66AF1EE10FA2DD49FED1E6A00
:1037D80067EE867AB4EEE77AF1EE10FA2BD5F4EEBE
:1037E800E76AF1EE10FA26D50029CCBF042005209F
:1037F8005DF8044B70474B42404221461C46B1E7F6
:10380800634240420C461946ACE74942AAE74B429C
:1038180061421C46A6E76442A4E70028CCBF00200A
:1038280001205DF8044B7047002CCCBF0220032018
:103838005DF8044B70474FF0FF30D9E723460C463C
:1038480019468FE700000010ABAA2A3F70B5294B34
:10385800294C93F8701E93F8713EDFED286A94F8AE
:10386800542BD4F8785B07EE101A07EE903AB8EEAE
:10387800C77AF8EEE77A27EE267A67EEA67A04EB9F
:103888004206BDEEC77A0132FDEEE77A02F00F017B
:10389800B6F8583B84F8541B17EE102A17EE901A06
:1038A800C31A2B448A42C4F8783B82B0A6F8580B56
:1038B8004FEA131312DC17EE101A17EE902A98B27B
:1038C80040F2FF35002300954CF098FE2A4600216F
:1038D80047F0E4F9A4F87C0B02B070BD9BB29942A2
:1038E800D4BF581A00208242A6BF101A80B2002006
:1038F800E6E700BF601C0020582D002014AE2341CD
:1039080038B503782DED0A8BD0ED01AA70EE609AD8
:10391800044669EEAAAAF0EE408AB0EE607A0D4637
:10392800B0EE41AAF0EE61BAB0EE42CAB0EE629AC9
:10393800002B61D1D0ED0B7A01F00103002B54D09C
:1039480079EEE77AB0EE697A87EE8A0AD4ED090A49
:1039580084ED0B7AF5EEC00AF1EE10FA57DCD4EDDF
:10396800032A20EE220A94ED0ABAD4ED057A20EE55
:10397800099A3AEE8B8A68EEA78A38EE098AB0EE81
:103988004C1A38EE288AF0EE6B0AB0EE480A4CF072
:1039980047FED4ED027A94ED047A84ED0E9A69EE2E
:1039A800A77AF0EE4B6AEAEE276A6B0730EE488A90
:1039B800F0EE667A28EE078AC4ED0F8AEAEE087AF6
:1039C80084ED0CBAC4ED0DAA84ED100A08D5B0EE4A
:1039D800CBBAB0EEE77AB4EECB7AF1EE10FA01D5B5
:1039E800C4ED0A7ABDEC0A8B38BD77EE677AF1EE42
:1039F800677A87EE8A0AA9E711F001034FF00002FF
:103A08000CBFF0EE607AF0EE697A027096E7B0EEDD
:103A18004A1A04F1180094ED038A46F07BFE28EE5A
:103A2800000AA0E7064B93F8F11103F2BC4203F237
:103A3800A443002918BF134693ED020A704700BF3C
:103A4800582D0020F8B5384C384FB4F81E64B4F837
:103A58001234FB842DED028B0D461EBBD7E90431D1
:103A6800C01A65EB010153F0B5FBDFED317AB4F80C
:103A78001434B4F81614B4F81A2407EE100A67EED2
:103A8800277A0B44FCEEE77A17EE905A2B449A42B9
:103A980039D3BDEC028BB4F81C04A8422CBF00201B
:103AA8000120F8BDFFF7BEFF07EE906AB8EEE78A7F
:103AB800F0EE408AB4EEC80AF1EE10FA1FDAD7E940
:103AC8000431C01A65EB010153F084FBDFED187A6D
:103AD800B4F81434B4F81614B4F81A2407EE100A1B
:103AE80067EE277A0B44FCEEE77A17EE905A2B44E0
:103AF800934210D8F4EEC88AF1EE10FAC9DBBDEC97
:103B0800028B0120F8BD32F00FF90028C1D0BDECBE
:103B1800028B0320F8BD32F007F90028F7D1FFF730
:103B280081FFF0EE408AE5E7601C002000000010ED
:103B38006F12833A2DE9F04F2DED028B87B00446C2
:103B4800324D039310460E46B0EE408A174652F0A7
:103B580095FDD5F880BB9DF848A0DBF800308BF8C0
:103B68000B604FF0000820448BF80A00CDF8008065
:103B780058463246D3F814B09DF84C903B4621463F
:103B8800D8479FED230A039B019328EE000A53466A
:103B9800FDEEC07ACDF8008017EE901A424604A8D0
:103BA8000FF0D4FED5F8843B13B11B784B452AD0CF
:103BB800D5F8903B13B11B784B4524D0D5F89C3BE6
:103BC80013B11B784B451ED0D5F8A83BCBB11B7859
:103BD800A3EB0909B9FA89F94FEA5919384652F09D
:103BE8004DFD01340444E1B2D5F8800BCDF80090C6
:103BF80004AB324648F002FE07B0BDEC028BBDE8CC
:103C0800F08F9946EAE74FF00109E7E7582D0020C1
:103C18000000C84230B41C7884B1012C0CD1B3F92F
:103C280002408AB1157B94FBF5F40470B3F90430B3
:103C3800527B93FBF2F30B7030BC70479A7802709A
:103C4800DB780B7030BC7047054A82FB0452E417DE
:103C5800C4EB62040470B3F904301222E9E700BF30
:103C6800ABAAAA2A30B41C784CB1012C05D1B3F9FF
:103C78000220B3F9043002600B6030BC70479C78B6
:103C880052B1157BDB7815FB04F40460527B03FB0F
:103C980002F330BC0B60704704EB4404A400DB78EB
:103CA80004601222F3E700BF30B583B00C46054626
:103CB80001920EF07DF9019B2246294648F054FEF8
:103CC800094A92F9B43B02EB430101335BB2352B4D
:103CD800C8BF0023012081F8B85B81F8B94B82F88E
:103CE800B43B03B030BD00BF582D00200F4B93F8F4
:103CF8006C2D012A12D910B582B004220C888B7859
:103D08008DF804000DEB02017420ADF805408DF824
:103D1800073029F09FFF012002B010BD01D000201C
:103D2800704793F86D3D622BE5D8F8E7582D0020D1
:103D3800F8B5214D1D260C46074685F8946D29F0E7
:103D4800A3FC002029F02CFC082029F029FC0E20D7
:103D580029F026FC304629F023FC042029F020FC19
:103D6800042029F01DFC002029F01AFC302029F03D
:103D780017FC002029F014FC204629F011FC002033
:103D880029F00EFC29F062FC05F6985029F06CFB2E
:103D980000B9F8BD95F8983D63B995F8993D302B71
:103DA80000D03BB995F89A3D23B995F89B3D3B70F7
:103DB8000120F8BD0120F8BD582D00202DE9F04F55
:103DC8002DED028BDFF8F092B74CB84D9FEDB88A15
:103DD80000220023C9E9402389B004F5407605F1A3
:103DE800500800270CE008EBC303227853F8503C36
:103DF80002B163B92F601834A64205F108053ED018
:103E080094F90130002BEEDA2378002BF2D02B79CD
:103E1800DB07F0D4A168207926F0D4FD2169824619
:103E2800207B26F0CFFDA2788346252AE2D8DFE85A
:103E380012F036000602890190016D0176018001B9
:103E480031002B01340145010D024D0152015C0185
:103E580064014F0064006F00760084009200AB009C
:103E6800BD00CD00D300EB00F100F700FD00060116
:103E78001C01B601BF01D601E3019701A60198F81C
:103E8800C03013B198F8C2309BB909B0BDEC028BB1
:103E9800BDE8F08FBAF1000FACD00028AAD0237D7E
:103EA80001222A60DA07A6D52B7943F001032B718A
:103EB800A1E798F8C120D8F8C400402147F03CFC9D
:103EC800002388F8C23009B0BDEC028BBDE8F08F42
:103ED80000FB0AF0774947F6FF7246F0DFFE82469C
:103EE800227DC5F800A0D30785D5BAF1000F82D08E
:103EF8002B7943F001032B717DE70028F0D09AFB62
:103F0800F0F06C4947F6FF7246F0C8FE8246E7E7D4
:103F18005FFA8AF0594626F031FDDA46E0E75FFAA3
:103F28008AF21046039226F041FD039A0BEB000A31
:103F38005146104626F022FDD2E75FFA8AF2104673
:103F4800039226F033FD039AA0EB0B0A5146104664
:103F580026F014FDC4E75FFA8AF0072800F27B8197
:103F68005FFA8BF3003B98F8C12018BF01230121A9
:103F78005B42534001FA00F003405A40DA4688F8A1
:103F8800C12088F8C210ABE7D9F80031227D43F090
:103F98000103C9F80031D0074FF001032B607FF50A
:103FA8002AAF2B7943F001032B7124E7D9F80021BC
:103FB800237DC9F864A142F00202C9F80021D9079B
:103FC8004FF001022A603FF56FAF14E7D9F80031CE
:103FD800227D43F00403DCE7D9F86C2192453FF4D5
:103FE80009AFD8F8B00004A945F0A4FB002849D0CF
:103FF80050469DF81220012146F050FE8246C9F82D
:104008006C0188F8B6006BE7D9F80031227D43F0DF
:104018000803BEE7D9F80031227D43F01003B8E762
:10402800D9F80031227D43F02003B2E7D9F8002106
:10403800C9F87CA142F04002C9F8002150E7D9F83C
:10404800802192453FF4D6AED8F8B00004A945F0D7
:1040580071FBB8B150460522012146F01FFE824689
:10406800C9F8800188F8B4003AE7D9F88421924564
:104078003FF4C0AED8F8B00004A945F05BFB0028B7
:1040880040F0EE802860B6E6BAF1000F7FF407AF83
:1040980000287FF404AF2860ADE6BAEB000A18BF29
:1040A8004FF0010A1CE700BF003B0020003E002043
:1040B80035FA8E3C0080FFFF00000010BAF1000FB7
:1040C8003FF4EDAE00283FF4EAAE93E6BAFA8AFA76
:1040D8004FEA5A1A04E7BAF1000F7FF4E0AE00285D
:1040E80040F0BB80D5F800A0FAE65044624947F694
:1040F800FF7246F0D3FD8246F2E6AAEB00005E4965
:1041080047F6FF7246F0CAFD8246E9E640F23452AD
:104118009245CCBF4FF0000A4FF0010AE0E6AAF240
:104128003550B0F5A77F2CBF4FF0000A4FF0010AB9
:10413800D6E640F282629245D4BF4FF0000A4FF0B3
:10414800010ACDE68245D4BF4FF0000A4FF0010ABC
:10415800C6E68245ACBF4FF0000A4FF0010ABFE641
:1041680050465A46002146F099FD4FF47A710023D3
:1041780000915A4619464CF041FA8246B0E650463C
:104188004FF47A72002146F089FD0023CDF800B083
:1041980019464FF47A724CF031FA8246A0E6D9F803
:1041A8000021C9F888A142F08002C9F8002197E6E9
:1041B80007EE90AAB8EEE70A002820EE080A08BF22
:1041C8004FF4FA7B4CF0FCFB07EE90BAF8EEE77A76
:1041D80027EE800AFDEEC07A17EE90AA80E607EE79
:1041E80090AAB8EEE70A002820EE080A08BF4FF4A4
:1041F800FA7B4CF00DFBE7E707EE90AAF8EEE78AAA
:10420800002868EE888A08BF4FF4FA7BB0EE680A87
:104218004CF0D6FBF0EE407AB0EE680AF0EE678A12
:104228004CF0F6FAC8EE807A07EE10BAB8EEC77A04
:1042380067EE877AFDEEE77A17EE90AA50E6AAEBCA
:10424800000ABAFA8AFA4FEA5A1A49E65AEA000301
:104258003FF425AECEE5DA4642E6C5F800A0CAE549
:1042680050460822012146F019FD8246C9F884010A
:1042780088F8B50034E600BF0080FFFF164991F8C2
:10428800D82E32B3F0B4064600200346074602E0B3
:1042980092F8D82EDAB100EB80002E2A4FEA4000BF
:1042A80004D10133CA18324482F8D87ECA18A0F162
:1042B800300592F8D82EA2F13004092C98BF501975
:1042C8000E2B03F1010301EB0302E1D90020F0BC3E
:1042D80070470020704700BF601C002070B5164D65
:1042E800D5F8C8301A791E3A012A064605D9184663
:1042F800002146F077FCD5F8C830002E0ADD0F4CB7
:10430800264414F8011B184646F06CFCA642D5F862
:10431800C830F6D11846002146F064FC084AB5F8C2
:10432800F830D2F8582DC5F8F02001330022A5F84E
:10433800F830C5F8F42070BD503E00201C3F002026
:10434800601C002010B50A4C04F6243009F0AAFCC1
:10435800D4F8303BC01A4CF08FF90028B8BF40425F
:1043680042F210739842D4BF0020012010BD00BF54
:10437800582D0020036813F0400004D013F4057F83
:1043880014BF0120002070472DE9F043244D254C2F
:1043980085B005F1280980460F461646C4F8109ED8
:1043A800C4F80C5EFEF7D0FB1F4BC4F8003E122287
:1043B80084F8E02D04F55E6142F6F82200234020DF
:1043C800C1E9022329F030FB044610B3FFF7D2FFFE
:1043D80098F800203F78034694F9040000961C1EC4
:1043E80014BF03210121002A0CBF07220622012F36
:1043F8000CBF082300231A43CDE901124B460B4A90
:10440800402129F049FAA5F584752CB9003818BF60
:10441800012005B0BDE8F083C5F87001F6E700BFDC
:10442800583F0020601C0020412A0208D13F0208A2
:104438000348044A00F6636100F66260A4E700BF1F
:10444800601C0020400D03000348044A00F6636125
:1044580000F6626098E700BF601C0020A08601009B
:1044680008490138002310F8012F222A04D001330B
:104478000F2B01F8012FF6D1034A1344002283F8C9
:1044880046207047A51C0020601C002010B5084C71
:1044980082B00223C4F87431019052F0EFF8019908
:1044A800C2B2D4F8780102B0BDE8104046F078BB3B
:1044B800503E00202A490023421E81F87C310430F6
:1044C80012F8013F33B3413B332B21D8DFE803F027
:1044D8001A202020203E35202020202C202020209B
:1044E80020202023202020202020202020202020C1
:1044F8001A202020203E35202020202C202020207B
:104508002020202391F87C3143F0080381F87C3186
:104518008242D5D1704791F87C31824243F0010341
:1045280081F87C31CCD1F5E791F87C31824243F0B7
:10453800100381F87C31C3D1ECE791F87C318242D9
:1045480043F0040381F87C31BAD1E3E791F87C3178
:10455800824243F0020381F87C31B1D1DAE700BF2F
:10456800503E002070B5C54CD4F8806184B02EB19F
:104578003046FFF7FFFE002840F0708194F88C0168
:10458800FBF778FF94F88431834205461CD0002855
:1045980000F08081C6B1BA4B96F9040093F82D203B
:1045A800B2FA82F252094FF4165100230225CDE9DE
:1045B800015200911A46042129F06EF9C4F88801C5
:1045C80010B1012384F8843194F88D01FBF752FF70
:1045D80094F88E31834205461ED0002800F01A81D7
:1045E800D4F89031C3B1A64A93F9040092F8342064
:1045F800002A18BF08224FF4964100230325CDE96D
:10460800015200911A46082129F046F9C4F894018C
:1046180010B1012384F88E31FCF73CF8D4F8985196
:104628002DB12846FFF7A6FE002840F0FC8094F83C
:10463800A801FBF71FFF94F89C318342064632D04D
:10464800002800F030818E4B93F83730012B00F0B2
:104658003981022B0CBF8B4A8B4AC4F8A42115B3AD
:104668002A7A002A00F02B81022A00F02F81012AE1
:1046780040F03A81834BC4F8A4314FF4966395F91E
:104688000400009300250221019102952B462A4639
:10469800102129F001F9C4F8A00120B1012384F800
:1046A800A95184F89C3194F8AA01FBF7E3FE94F829
:1046B800AB318342054635D0002800F0A280D4F8FB
:1046C800AC31CBB11A7A002A00F0F6806F4901EBC1
:1046D8008202526A93F90400009200230321019197
:1046E80002931A464FF4807129F0D6F8C4F8B00145
:1046F80010B1012384F8AB31614A654BB2F85E1002
:1047080092F8605092F86100A3F87E1792F8621050
:1047180092F8632083F8825783F8860783F887170F
:1047280083F8882794F8B401FBF7A4FE94F8B53110
:104738008342054627D058B34FF4FA70FEF76AF95A
:10474800D4F8B831FBB11A6802F41072B2F5107FD0
:1047580019D093F9040003214FF4E132002308250E
:10476800CDE9011500924FF400711A4629F094F82A
:10477800C4F8C00138B1424901220023086284F814
:10478800B52184F8BC3194F8C4516DB104B070BD42
:10479800D4F8C00129F064F8C4F8C05184F8B551C0
:1047A80094F8C451002DF1D1D4F8C831002BEDD0C4
:1047B800032293F90400CDE901251A7A334B03EB60
:1047C80082034FF400215B6A00932A462B4629F0A6
:1047D80063F8C4F878010028D8D02948C4F8D05123
:1047E800D0F8583D84F8D45103F51C5310333A30AF
:1047F800C4F8CC31FFF75EFE012384F8C43104B05D
:1048080070BDD4F8B00129F02BF8C4F8B05184F881
:10481800AB5187E7D4F8940129F022F8C4F89451F1
:1048280084F88E51F8E694F89C31002B7FF43BAF66
:10483800D4F87031002B3FF436AF114AC4F8A031D8
:1048480092F83730012B48D0022B0CBF0D4B0E4B82
:10485800C4F8A431012384F89C3124E794F8843106
:10486800002B7FF4B1AED4F87031002B3FF4ACAE1E
:104878000122C4F8883184F88421A5E6503E00203E
:10488800601C00206407002070070020C0D80508BD
:1048980000000020D4F8880128F0E2FFC4F888510D
:1048A80084F8845190E6D4F8A00128F0D9FFC4F820
:1048B800A06184F89C61F6E64FF461420AE74FF480
:1048C8009643DCE60B4AC4F8A421C8E64BB9094B69
:1048D800C4F8A4314FF41663D1E6064BC4F8A431EA
:1048E800B8E74FF41663CAE6034B03EB8202536A38
:1048F800C5E600BF58070020C0D8050870B5254C8C
:10490800064604F1460051F0B9FE94F846502B2DA6
:1049180038D0302D27D0382D2ED01F49002301E064
:1049280011F8015F0C464DB30133102BF8D1324614
:1049380006F11005134612F8011B222926D0AA42B7
:10494800F8D1002820DDC0F101001918621C0133DC
:1049580001E08B4218D013F8014D12F8010D844282
:10496800F7D0002070BD94F84720A2F13101012949
:1049780003460DD9362A0BD00138CEE7002BF0D0EC
:104988004C1ED4E70538C8E7012070BD013BD8E7C5
:10499800981EC2E7601C0020A61C00202DE9F04FDD
:1049A8002DED028B87B0884600AF164620B10378FC
:1049B800303B012B40F28581DFF83493DFEDC58A67
:1049C8009FEDC58A98F80030002B3CD036B1C34B18
:1049D8003268D3F8583D9A4240F2BB83C04C94F8F1
:1049E800D551002D40F0BA8294F8D801BD4B03EBA5
:1049F8004003B3F8683063BB012384F8D831BA4B5D
:104A0800DA6811061DD59A68920740F17F83B34A88
:104A1800B2F8E43112684FF4F36113FB01F389FB38
:104A28000301DB17C3EB611310203021C7F81330E3
:104A3800082338747974BB7438180024904788F8B0
:104A48000040002EBED11C37BD46BDEC028BBDE830
:104A5800F08F0130C0B2B3F58A6F84F8D80100F046
:104A6800868127D8B3F5806F00F027826BD9B3F51C
:104A7800866F00F007824ED9B3F5886FE1D1DFF871
:104A88005CA29AF83130002BDBD0974ADAF8003074
:104A9800B2F9A421C7F81320102040210422387449
:104AA8007974BA7438180024984788F80040002EA2
:104AB80088D1C8E7B3F5006F00F0348140F28880F0
:104AC800B3F5046F00F016816CD9B3F5116F00F0DF
:104AD8001882B3F5206FB4D1834BD3F8A0319A066E
:104AE800AFD5D4ED857A7D4B67EEA87A1B68FCEECE
:104AF800E77A102117EE902A0024C7F813200A221B
:104B080039747C74BA747818984788F80040002E75
:104B18007FF458AF97E7B3F5826F00F0E181B3F502
:104B2800846F8ED1704BDA6812068AD59A68950719
:104B380040F1C782D4F87022684BC7F813201020C0
:104B48002021042242E0B3F5007F00F0778169D983
:104B5800B3F5047F7FF475AF634BDB689D077FF582
:104B680070AFDFF878A19AF83230002B40F0B182AC
:104B780094F8E631012B0CBFB4F8F431B4F8F631EF
:104B8800C7F8133010220221DAF800303A747A7428
:104B9800B974B8180024984788F80040002E7FF4AC
:104BA80011AF50E7B3F5026F5ED14F4BDA681106CB
:104BB8007FF547AF9A68920740F19B82474BD3F83D
:104BC800D421C7F813201020202108221B6866E78B
:104BD800B3F5E26F00F015814ED9B3F5E46F7FF4B9
:104BE80030AFDFF8F8A09AF83130002B7FF429AF06
:104BF8003D4B93ED320A20EE080A55F0ABF810242D
:104C080020210722C7F813003C743819DAF800305D
:104C18007974BA740024984788F80040002E7FF40D
:104C2800D1AE10E7B3F5807F00F0C380B3F5887F7D
:104C38007FF407AF2C4BD3F8A0315B077FF501AFAA
:104C48002A4B93F8F11103F2BC4203F2A443002962
:104C580018BF134693ED050A55F07CF81F4AC7F8AC
:104C680013001023012163E1B3F5036F3FF4C7AECE
:104C7800002E7FF4A7AEE6E6B3F5C06F00F088809B
:104C8800B3F5E06F7FF4DDAE144D95F83140002C9C
:104C98007FF4D7AE144B93ED300A20EE080A55F096
:104CA80059F8102107222B68C7F813007C7439744F
:104CB800BA747818984788F80040002E7FF482AEBE
:104CC800C1E601300621FBF79DFD054B83F8D501B0
:104CD80072E600BFB80C473E0000C842601C0020C6
:104CE800503E0020C0D8050800000010582D0020B4
:104CF8001F85EB51954B964AB3F9A831126803EB1F
:104D080083035B001020C7F8133040210823387450
:104D18007974BB743818904788F80050002E7FF4D7
:104D280051AE90E6894BDA6815067FF58AAE9A6827
:104D3800940740F10982C30700F1F281DFF810A25D
:104D4800DAF8CC2182EAE273A3EBE27303EB5303B4
:104D5800A9FB0313DB08002AB8BF43F08043C7F858
:104D680013301021DAF8003000240822C8E6774B07
:104D7800DA6815067FF565AE9A68940740F1CB812D
:104D8800734BB3F9E621C7F8132010205021D8E659
:104D9800DFF8BCA19AF83530002B40F05E8122F094
:104DA80063FF0024DAF80030C7F813001021062248
:104DB800A6E6664BD3F8A03159077FF542AE654B9E
:104DC800634A93F8F101116803F2BC4203F2A44369
:104DD800002818BF1346D3ED027AFCEEE77A1022BA
:104DE80017EE903A0024C7F8133001233A747C7404
:104DF800BB74B818884788F80040002E7FF4E2ADED
:104E080021E6534D95F83140002C7FF41AAE4F4BF4
:104E180093ED310A20EE080A54F09CFF1023072175
:104E2800C7F813002A683B747B74B974F818904764
:104E380088F80040002E7FF4C5AD04E6434BDB68DC
:104E480018057FF5FEAD94F8E431002B3FF4F9AD79
:104E58003F49414AB1F99E337D7482FB0302DB1757
:104E6800C3EBA2031BB210240220B8740A68C7F867
:104E780013303C743819904788F80050002E7FF49E
:104E8800A1ADE0E5324B93F83120002A3FF4D9ADCB
:104E98002E4A1B68B2F9A621C7F813201022302128
:104EA8003A7404227974BA7407F11000984788F8A4
:104EB8000050002E7FF486ADC5E5FBF787FA244B3A
:104EC800C7F81300102104221B687D743974BA7462
:104ED8007818984788F80050002E7FF473ADB2E533
:104EE8001A4BDA6815067FF5ACAD9A68940740F15D
:104EF8000881FBF745FC164AC7F813001023042164
:104F080016E0124BDB6899077FF59BAD94F8D93111
:104F18004BB194F8E621012A0CBFB4F8F421B4F897
:104F2800F621B2FBF3F30A4AC7F81330092110231C
:104F380012683B747B74B974F8180024904788F899
:104F48000040002E7FF43EAD7DE500BF000000105C
:104F5800601C0020582D002067666666DFF83CA2BA
:104F680007F108033B61DAF81C9007F10E037B6137
:104F7800D9F80020DAF814309A426E4694F8D631FF
:104F880000F0828007F109023A615A1C84F8D621A0
:104F980003F00F030522D9F804B03B729446134678
:104FA800D9F80010ABEB010BD01D5FFA8BFB20F09A
:104FB8000700DC45ADEB000D40F2D4805A46684648
:104FC80058F0E6F9D9F800305B44C9F800305A4681
:104FD800694607F110004AF00BFBDAF81C20DAF8F2
:104FE8001430D9F80000117AC9F80400C21A4A40EE
:104FF800D2B28342C9F8003084F8D7210AD00133ED
:10500800C9F8003013F8011C984282EA0102F6D16F
:1050180084F8D7213B69591C39611A70D7E90432E1
:10502800D21A012A08DD00215A1C3A611970D7E901
:105038000432D21A012AF7DC07F10800FBF706F957
:10504800002500231C37B54684F8D55188F8003070
:10505800BD46BDEC028BBDE8F08F4F4AD268120501
:105068007FF5EFAC94F8E421002A3FF4EAAC012B79
:1050780000F08F80D4F8F831C7F813301021DAF82F
:105088000030002406223BE5B9F90C20591C03F036
:105098000F0343F01003002AB8BF43F0200307F1C1
:1050A80009023A613B72D9E9003B0422ABEB0303E6
:1050B80084F8D61107F10A017B72396113469446C8
:1050C8006EE71B6818077FF535AD002E7FF47AACC4
:1050D800B9E494F8D931002B3FF452AD94F8E621A5
:1050E800012A0CBFB4F8F421B4F8F621B2FBF3F3AB
:1050F80046E51B681B077FF561AD002E7FF462ACA7
:10510800A1E41B6818077FF5F4AE9AE41B681B0737
:105118007FF57DAC95E41B6818077FF531AE90E408
:10512800DFF878A0DAF8D02182EAE273A3EBE27321
:1051380003EB5303A9FB0313DB08002AACBF43F0BE
:10514800004343F040430AE61B6819077FF5F3ADB7
:1051580077E400231C3788F80030BD46BDEC028B8D
:10516800BDE8F08F6846C7E9003258F011F9D9F860
:1051780000107A683B681144C9F8001007F1100064
:105188001A4669464AF034FA07F10800FBF75EF858
:1051980057E7DAF8A0336FE700000010601C002022
:1051A8002DE9F041DFF8208198F87131012B82B0A8
:1051B80002D002B0BDE8F081D8F804000028F8D089
:1051C800D8F8583D3E4C3F4E01330025019304F575
:1051D8001D778DF803500AE01B2B84F87C5248D0C9
:1051E8000D2B5CD0012386F88937D8F804000368B2
:1051F8005B689847002849D0002D47D1D8F80400AB
:105208000368DB68984783B27E2B4BD096F88927D2
:10521800002AEAD194F87C22002ADDD17D2B4BD0DC
:1052280094F880222AB180F02003D8B284F8805202
:10523800034694F87B22062A0BD8B4F87EC2A1183C
:1052480063440132A4F87E3281F8740284F87B2228
:10525800CBE7B4F87E221344C3F3072252FA83F350
:105268000122A4F87E32FF2B08BF3D4686F8892725
:10527800BBE7D8F8040003685B6898470028B1D1F9
:1052880001238DF8033086F88937AEE7284601AA4E
:105298000DF10301FFF782FB02B0BDE8F081A4F82D
:1052A8007E52A2E701238DF8035084F87B5286F8DA
:1052B800895784F87C3298E7012384F8803294E790
:1052C800503E002000000020601C0020054B93F891
:1052D80071210AB1002070470222186083F87121F9
:1052E80001207047601C0020F0B5224C224DC4F804
:1052F8000C5E85B0FDF728FC12232049204A84F86B
:10530800E03D42F6F82604F55E6300274020C3E935
:105318000267C4F8001EC4F8042E28F085FB30B3D9
:1053280094F8633E94F8621E90F90400154A022B23
:1053380014BF08230023002908BF43F001030324F6
:105348004FF4E131CDE9014300910023402128F0D9
:10535800A3FAA5F52175C5F8A802014620B10A48A7
:10536800FFF7B4FF85F8AC02081E18BF012005B08E
:10537800F0BD00BF601C0020D4400020B9410208E5
:1053880061500208314502088133020810B50C4CFF
:1053980094F871310BB1002010BD202028F044FB97
:1053A800C4F8740150B1202128F034FB054B84F86F
:1053B80072010120236084F8710110BD012010BD25
:1053C800601C00207D02000870B5104E96F8B3529C
:1053D800C2B0AC1D224606F2B221684657F0D8FF8B
:1053E800B6F8B0320DF804300DEB040208351B0A8C
:1053F8006C465370254414F8011BD6F8B00145F0EB
:10540800F1FBAC42F7D142B070BD00BF503E002066
:105418002DE9F04FD24CD34FDFF8608393B004F5F9
:10542800A066D4F8B00145F0B7FB002800F08C80E6
:10543800D4F8B00145F0A8FB94F8C3330022054620
:1054480084F8C0230A2B00F2FE87DFE813F0BF00C0
:10545800BF009901700157013E0122010101DD00E1
:1054680080008000022D2A46BF4928BF022200255D
:1054780002A8ADF8085057F08BFF9DF80830012BB3
:1054880040F03E82B94A94F8F50392F9215B94F80A
:10549800F61394F8C623ADF820508DF822008DF845
:1054A8002310B34D089E84F8B532511C40F2FE40DB
:1054B80042F6FA4384F8B42284F8C613A4F8B20278
:1054C800C4F8B862291DA4F8B63204224FF6FF705A
:1054D80001E015F8012B424082EA0212D2B2130908
:1054E80083EA102343EA0223A94283EAC200F0D1E7
:1054F800A04DA4F8B002291D15F8012B82EA00037B
:1055080083EA0312D2B2130983EA102383EA02233F
:1055180083EAC20398B28D42A4F8B0021BB2EBD161
:1055280083F0DD0282EA0212D2B2130983EA102361
:1055380083EA022383EAC2031BB2A4F8B032A4F8B8
:10554800BC32FFF741FF012013B0BDE8F08F0A2BF2
:1055580006D0B4F8002583B2B3EB122F00F02981EE
:1055680094F8C4A3844804EB0A094FF488723146BE
:1055780089F8095557F00CFF99F8091599F8082585
:1055880094F8C53394F8C20394F803C5B4F8C8E393
:1055980084F844A942EA012201330121A4F8F02346
:1055A800FE2D4FF0000284F8453984F8F3C384F8DF
:1055B800431984F8C213A4F84A09A4F848E984F8FE
:1055C800C02300F0A18184F8C3132AE7FE2800F065
:1055D800048394F8035594F8C41394F8C52394F8F5
:1055E800C2C3B4F8C8E384F8F3530132002084F846
:1055F800433984F8441984F84529A4F848E9A4F8FB
:105608004AC984F8C2030CE794F80705B4F800C542
:1056180094F8C413384490F8943083EA0C0383EA6E
:105628000313DBB21A0982EA1C2242EA032282EA45
:10563800C3036218D8B2A4F80035854214BF0A2300
:10564800092382F8085594F8035584F8C333C4E74E
:1056580094F8C4136218013182F80805B4F800C53B
:1056680094F8035580EA0C0080EA0010C0B20209E1
:1056780082EA1C22C9B242EA002282EAC000A94298
:1056880084F8C413A4F80005A7D1082384F8C33309
:10569800A3E7B4F8002584F80705504080EA001015
:1056A800C0B2030983EA122343EA002394F803559E
:1056B80083EAC000A4F80005002D40F02F810823DC
:1056C80094F8C41384F8C33387E7B4F8002594F832
:1056D800C41384F80605554085EA0515EDB22B0973
:1056E80083EA122343EA052383EAC5050623A4F8BF
:1056F800005584F8C33394F803556EE7B4F80025D1
:1057080094F8C41384F80405554085EA0515EDB2EC
:105718002B0983EA122343EA052383EAC5050323F9
:10572800A4F8005584F8C33394F8035555E7B4F842
:10573800002594F8C41384F80505554085EA051535
:10574800EDB22B0983EA122343EA052383EAC50550
:105758000523A4F8005584F8C33394F803553CE7AF
:10576800503E0020C0D8050848420020582D00208F
:10577800044100200841002040420020FFFFFE00B5
:10578800B4F8001584F8030580EA010383EA0313DB
:10579800DBB21A0982EA112242EA032282EAC30230
:1057A80000210423A4F8002584F8C41384F8C33323
:1057B80013E794F8C493CB4804EB0902012382F859
:1057C800095531464FF4887284F8C03384F8C333DE
:1057D80057F0DEFDB4F8C83394F8042584F8C523DF
:1057E8000BB9A4F8CA3301339BB20132A4F8C83309
:1057F800A4F8483994F8F71394F8035584F8452920
:10580800012394F8C22384F84339002384F8449987
:1058180084F8F353A4F84A2984F8C2332D296FD8A1
:1058280001A353F821F000BF2B54000809590008C0
:1058380009590008095900080959000809590008B8
:1058480009590008095900080959000809590008A8
:105858000959000809590008095900080959000898
:105868000959000809590008095900080959000888
:105878000959000809590008095900080959000878
:105888000959000809590008095900080959000868
:105898000959000809590008095900080959000858
:1058A8000959000809590008095900080959000848
:1058B8000959000809590008095900080959000838
:1058C80009590008015B0008E9580008095900084F
:1058D800095900086D5400081D5A0008315900087C
:1058E800042D2A46804928BF0422002501A80195D5
:1058F80057F04EFD9DF80680B8F1010F00F0768153
:10590800002013B0BDE8F08F02214FF6FF7384F832
:10591800032584F8C313A4F8003582E5072394F817
:10592800C41384F8C33358E6022D2A466E4928BFAB
:105938000222002502A8ADF8085057F029FD9DF86D
:105948000860012EDCD108F087F894F8F62394F863
:10595800F5338DF822508DF820308DF82120089AE3
:1059680094F8C633614D84F8B562591C160C40F2A0
:10597800FE30A4F8B82242F6FA7284F8C613A4F8E6
:10598800B202A4F8B62284F8BA6284F8B432291DA7
:1059980003224FF6FF7001E015F8012B424082EA1E
:1059A8000212D2B2130983EA102343EA0223A9425E
:1059B80083EAC200F0D14E4DA4F8B002E91C15F8F4
:1059C800013B434083EA0312D2B2130983EA10234E
:1059D80083EA022383EAC20398B28D42A4F8B00294
:1059E8001BB2ECD183F0990282EA0212D2B21309F7
:1059F80083EA102383EA022383EAC20293B2190AD4
:105A080084F8BB22A4F8B03284F8BC12FFF7DCFC9F
:105A1800012099E5042D2A46334928BF0422002590
:105A280002A8029557F0B4FC9DF80A30012B7FF4C8
:105A380067AFBDF808203C2A40F28C812D4A1268D5
:105A4800510740F1B28294F8F61394F8F5238DF8D3
:105A580022308DF820208DF82110089994F8C6235B
:105A6800224D84F8B5320B0C561C40F2FE3084F8F7
:105A7800BA3242F6FA73A4F8B81284F8B422A4F839
:105A8800B20284F8C663291DA4F8B63203224FF681
:105A9800FF7001E015F8012B424082EA0212D2B2EF
:105AA800130983EA102343EA0223A94283EAC200C6
:105AB800F0D10F4DA4F8B002E91C15F8012B82EAC9
:105AC800000383EA0312D2B2130983EA102383EA9C
