:020000040800F2
:1000000000000110994B0508750C0508D577030809
:10001000394C0508394C0508394C0508000000002A
:10002000000000000000000000000000B50C050802
:10003000B10C050800000000AD0C0508C15B040808
:10004000394C0508394C0508394C0508394C050868
:10005000394C0508394C0508394C0508394C050858
:10006000394C0508394C0508394C0508C1270508E5
:10007000B1270508A1270508912705087D27050850
:100080006927050855270508394C0508394C050826
:10009000394C0508394C0508394C0508394C050818
:1000A000F5280508D1280508A928050819290508F3
:1000B000992805088528050871280508394C050880
:1000C000394C0508394C0508394C0508394C0508E8
:1000D000394C0508C92F0508C12F0508B92F050897
:1000E000394C0508394C05085D2A05082128050802
:1000F000F9270508D12705084928050841270508DB
:10010000394C0508394C05085D280508394C0508A7
:10011000B12F0508A92F0508394C0508394C0508E9
:100120002D2705081927050805270508F1260508C4
:10013000DD260508394C0508394C0508394C0508F9
:10014000394C0508394C0508394C0508151B0508BC
:10015000C9260508B5260508A1260508A12F05080A
:10016000394C0508394C0508394C0508394C050847
:10017000394C0508394C0508394C0508394C050837
:08018000394C0508394C050853
:1001880009284FF0010307D903EB83035B00B0FB99
:10019800F3F2092AF8D883B3F0B4DFF864C0002575
:1001A8000EE00A2A1E460F462346B4BF30245724C1
:1001B8002244092E01F1010105F101053A700FD918
:1001C800ACFB0324E408B0FBF3F203FB1200002DA0
:1001D800E7D1002AE5DC092B06D8303201F8012BDB
:1001E8000023F0BC0B707047ACFB0436B0FBF4F294
:1001F800234604FB1200F408EBE700230B7070475A
:10020800CDCCCCCCF0B40D6800240CE0BCF1050FCB
:1002180018D8A0F137030A2B14D104EB840415F87D
:10022800010B03EB4404A0F13003DEB2092EA0F168
:100238006107A0F1410CF0D9052FE7D8A0F15703C9
:100248000A2BEAD00D601460F0BC704700B583B08B
:100258000268074B8188CDF8012032221B68ADF86F
:1002680005108DF800206846984703B05DF804FB38
:10027800581E0020204B2DE9F0415D68064600F12C
:100288000708002406E01B68394698473C44464561
:10029800A4B215D016F8017BA7F17D03012B2846DF
:1002A8002B684FF07D01EED81B6898472B6887F0C4
:1002B80020011B6828469847E8E7E3B203EB1424BB
:1002C800FF2CFAD8C4F1FF04E4B2A4F17D03012B9A
:1002D8002B6805D9214628461B68BDE8F041184718
:1002E80028461B687D2198472B6884F02001284602
:1002F8001B68BDE8F0411847581E00200A4AD36918
:1003080030B41C6855695D6019810025611C19604D
:100318009D812070D36951691A685A604FF6F67248
:1003280030BC19609A817047581E0020F8B5CE1E5F
:100338000F4606440239421E04464FF6FF7312F870
:10034800015F5B1BB2429BB2F9D1C5194354064EFB
:100358001B0A05F8013C14F8011B306A45F002FD40
:10036800A542F8D1F8B2F8BD581E002010B582B0E9
:100378000B4660F05F001A0E08211C14ADF802301D
:100388008DF80100002368468DF804408DF805209B
:100398008DF80010ADF80630FFF7C8FF02B010BDA9
:1003A80030B5062283B060F05F030D460024114685
:1003B80068468DF80130ADF802508DF80020ADF890
:1003C8000440FFF7B3FF03B030BD00BF284A1168EF
:1003D80021F0704323F07F03002B0CBF0120022083
:1003E8004B07536848BF0430D90744BF0A3080B26E
:1003F8009A0744BF143080B2D90544BF283080B270
:100408005A0744BF643080B2190744BFC83080B26D
:100418009A0644BF00F5C87080B2D90644BF00F5FB
:100428007A7080B2DA040FD500F5FA5080B29904D8
:1004380003D500F51C50103080B29A050AD5A0F5F6
:10044800C740403880B2704719050AD500F5FA60F0
:1004580080B2ECE75B0503D500F59C40203080B204
:1004680070475A0644BF00F57A6080B2DFE700BFE4
:1004780000000010022805D0A0F10100B0FA80F0B9
:1004880040097047054B93F82C3023B9044B186882
:10049800C0F38000704710202CF058BD581E002073
:1004A80000000010014B93F864007047581E0020AC
:1004B800F0B4424D424BAB66C823013885F86C3026
:1004C80005F16D0205F1A7014D2428E0DCB25BB20D
:1004D800002B34DB6300DCB25BB2002B36DB64003C
:1004E800E3B264B2002C38DB5C00E3B264B2002CE7
:1004F8003ADB5C00E3B264B2002C3CDB5C00E3B2A4
:1005080064B2002C3EDB5C00E3B264B2002C4FEA1C
:100518004303B8BF83F0D5038A42DCB238D010F861
:10052800013F02F8013B634013F0800F4FEA430399
:10053800CCD083F0D50463B2002BE4B2CADA6400ED
:1005480084F0D50463B2002BE4B2C8DA630083F008
:10055800D5035CB2002CDBB2C6DA5B0083F0D503AE
:100568005CB2002CDBB2C4DA5B0083F0D5035CB26A
:10057800002CDBB2C2DA5B0083F0D5035CB2002C3E
:10058800DBB2C0DA5B0083F0D5035CB2DBB2BDE757
:100598000C4E85F8A740A6F144070FCF0FC60FCF22
:1005A8000FC60FCF0FC697E80F00402785F8A84061
:1005B80086E80F0085F8EC70F0BC7047581E0020E4
:1005C800C83E7BEA041F002070B5214D95F8ED3038
:1005D800EA181C4692F8F0208AB11E4E09225C1CCB
:1005E800A6FB04135B0803EBC303E31AE918DCB2A8
:1005F80091F8F01009B1013AF1D185F8ED4002689F
:100608001549561C06600C2616700268561C0660B2
:10061800002616700268561C066003EB430603EBBF
:100628008603147019440D224EF024FE95F8ED103F
:10063800084B4A1CA3FB02035B08294403EBC303D2
:100648000120D31A81F8F00085F8ED3070BD00BFA5
:10065800581E0020398EE338541F002038B5044650
:100668000D460A460068FF215AF02DFC21682944EE
:10067800216038BD026810B57F21541C04601170D8
:1006880002680024511C01600E211470FFF7E6FF78
:10069800012010BD30B53E4C94F87131012B85B066
:1006A80001D005B030BD94F87201022826D0A0F11F
:1006B8000100B0FA80F0400948B36368002BF0D11C
:1006C800D4F87421002AECD094F8345094F82D1002
:1006D80092F90400002D14BF08220022002908BF47
:1006E80042F0010203254FF46141CDE90152009126
:1006F8001A4620212BF036FD6060D2E794F82C30A2
:100708005BBB244B1868C0F380000028D5D1626811
:10071800002AC6D0D4F87C31934223D0D4F888314B
:100728009A4228D0D4F894319A4226D0D4F8A031ED
:100738009A4216D0D4F8AC319A4220D0D4F8B831C5
:100748009A421ED0D4F8C4319A421CD0D4F8D03181
:100758009A421AD000236360A3E710202CF0F6FB1E
:10076800AAE7032000EB4000002104EB8003D162DC
:10077800C3E95F11EEE70120F4E70220F2E7042065
:10078800F0E70520EEE70620ECE70720EAE700BFE0
:10079800581E00200000001070B51D4E1D4D96F823
:1007A800E001632200214FF049FCB6F80432044608
:1007B8001948333B80FB0320DB17C3EB20100922C9
:1007C80000214FF03BFCAA68C0F10903642000FB3C
:1007D8000344A4B2910744BF04F57A74A4B22B6809
:1007E800D20744BF04F5FA64A4B25B0701D42046DB
:1007F80070BD15202CF0AAFB0028F8D06B6813F404
:10080800016F04BF04F57A64A4B2204670BD00BF2E
:10081800581E0020000000101F85EB512DE9F047FD
:10082800724C82B0E269D2E900239B1A002B00AF18
:1008380040F39B80002384F820326D4B236103F141
:100848008002A3F11406C4E98433C4E90526C4E987
:10085800E92203F5C075E5610025421800F1010998
:10086800C4E9029203785909012940F0858003F010
:100878000F0813F0100310D1002D00F0968094F8A3
:10088800B513013101F00F0141457ED018460837F4
:1008980084F82032BD46BDE8F087831CA360C31CE2
:1008A8004278D4F810A0A3608078C6F800A00AEBBC
:1008B80002037360424084F8B423D4E9029200250D
:1008C80084F820123081B581A2EB0902D5B2A3EBDE
:1008D8000A0A5FFA8AFAEB1D03F4FC73AA45ADEB2A
:1008E800030D67D25246494668465AF001F909EBAA
:1008F8000A03524630466946A3604EF0BBFC2369A2
:10090800306894F8B4238342C6E9003009D0013333
:10091800336013F8011C984282EA0102F7D184F887
:10092800B423A3681B78934232D12369E169C6E9ED
:10093800003063694B600023A0690B818B813A1DED
:1009480084F820327B6038F095FF013046D07B6810
:100958000BB100209847E3696269196801200837DC
:10096800C3E90021BD46BDE8F08794F82052002D68
:100978003FF463AFA66970E700210846FFF7BEFCA5
:1009880001200837BD46BDE8F087D6E900A39BE7FC
:100998000023B6F9081084F820320120FFF7AEFCD6
:1009A80001200837BD46BDE8F08728460837BD4610
:1009B800BDE8F0872A46494668465AF099F809EB97
:1009C800050330462A466946A3604EF053FC0020D2
:1009D800083784F8B583BD46BDE8F087E269136837
:1009E8000221581C10601970B1E700BF581E002082
:1009F8007C2000202DE9F04D2D4D2E4EB5F9B61373
:100A0800B5F8BCC3B5F8B88386FB0146CC17C4EB70
:100A1800A604A4B2A44582B016461F4603D1B5F871
:100A2800BE33434533D003680190591C342201601A
:100A38001A7003680022591C01601A7021464EF092
:100A480049FC019841464EF045FC019847F6FF7174
:100A58004EF040FC019847F6FF714EF03BFC0198C0
:100A680047F6FF714EF036FC019847F6FF714EF0DD
:100A780031FC01980221FFF7F1FD0120C5E9F0677B
:100A8800A5F8BC43A5F8BE8302B0BDE8F08DD5E952
:100A9800F032B6EB030A67EB020B0023064A5B450C
:100AA80008BF5245BFD3002002B0BDE8F08D00BF9B
:100AB800581E00206766666680841E00604AD368F8
:100AC8002DE9F041064613F0800000F09A80906806
:100AD80010F0020000F095805A4F97F8E0110529B0
:100AE80040F29380632900F28E800024DFF860C111
:100AF80089B22546ACFB0132D20802EB8203A1EB96
:100B08004303E0B28E469BB280008340BEF1090FDA
:100B180091B245EA030504F10104EBD8EDB2D7F828
:100B2800EC31494A82FB0312D917C1EB623189B211
:100B3800002900F082804FF0000CDFF814E16446D1
:100B4800AEFB0132D20802EB8203A1EB43035FFA4A
:100B58008CF088469BB280008340B8F1090F91B2AF
:100B680044EA03040CF1010CEAD8E4B2B7F8FC310A
:100B780036494FF4F36213FB02F381FB0312D917D2
:100B8800C1EBA21189B242F20F73994240D8C9B1A0
:100B98000027DFF8BCE0BC46AEFB0132D20802EB0E
:100BA8008203A1EB4303F8B288469BB280008340DE
:100BB800B8F1090F91B24CEA030C07F10107EBD821
:100BC8001FFA8CF133681722581C30601A7033688A
:100BD8000022581C30601A7030464EF07BFB4FF0F4
:100BE800FF3130464EF05EFB33685A1C32601D7090
:100BF80033685A1C326030461C700621FFF72EFD00
:100C08000120BDE8F081992589E70020BDE8F08141
:100C18000020DFF83CC00146ACFB0372D20802EBAF
:100C28008207A3EB47039BB283400430102841EAB4
:100C3800030193B2F0D189B2C4E70C4696E700BF2E
:100C480000000010581E002089B5F814D34D62101A
:100C5800CDCCCCCC2DE9F04FC14AD368804613F0F7
:100C6800800083B000F06F81906810F0020000F0FF
:100C78006A81DFF80CB39BF8E031052B40F26881FC
:100C8800DBF8E431B74D0093002BB8BF5B42A5FBFE
:100C98000342B548B549920D00FB0233C3EB031379
:100CA8009B0085FB034502EB8202DC1702EB820204
:100CB800C4EBA55400FB043304EB8204A4B281FB0B
:100CC8000321DB17C3EBA111BCB10025A84F2E46A9
:100CD800A7FB0432D20802EB8203A4EB4303E8B279
:100CE800A4469BB280008340BCF1090F94B246EA47
:100CF800030605F10105EBD8340489B2B9B1002522
:100D08009B4F2E46A7FB0132D20802EB8203A1EBD0
:100D18004303E8B28C469BB280008340BCF1090FC4
:100D280091B246EA030605F10105EBD83443DBF836
:100D3800E8E18C4D8C4E8D498EEAEE70A0EBEE709A
:100D4800A5FB0032920D06FB0200C0EB00108300E9
:100D580085FB035002EB8202DD1702EB8202C5EB32
:100D6800A05506FB053305EB8205ADB281FB0321D7
:100D7800DB17C3EBA111C5B10020DFF8F4C10646AB
:100D8800ACFB0532D20802EB8203A5EB4303C7B2E2
:100D9800A9469BB2BF00BB40B9F1090F95B246EA1C
:100DA800030600F10100EBD8350489B2C1B1002077
:100DB800DFF8BCC10646ACFB0132D20802EB820365
:100DC800A1EB4303C7B289469BB2BF00BB40B9F150
:100DD800090F91B246EA030600F10100EBD835434A
:100DE800DBF8EC31624A0193002B1846B8BF584231
:100DF800A2FB00305F4E6049030AA6FB0363DB09D0
:100E080001FB03F1C1EBD00189B2B9B100269146CB
:100E18003746A9FB0132D20802EB8203A1EB430358
:100E2800F0B28C469BB280008340BCF1090F91B2AE
:100E380047EA030706F10106EBD8B9B2BBF8FE7121
:100E4800DFB10026DFF828A1B446AAFB0732D20892
:100E580002EB8203A7EB43035FFA86F938469BB29D
:100E68004FEA890903FA09F3092897B24CEA030CF7
:100E780006F10106E9D81FFA8CF7BBF804323C4AA0
:100E8800A2FB0306F608632E28BF6326092B63D945
:100E9800002093468146ABFB0632D20802EB820360
:100EA800A6EB43035FFA80FAB4469BB24FEA8A0A7C
:100EB80003FA0AF3BCF1090F96B249EA030900F1F3
:100EC8000100E8D85FFA89F9009B019A002BCCBF92
:100ED800392338231616BEF1000F26F07F0635DDBC
:100EE800264A3343964543F00206C8BF43F0060638
:100EF800D8F800301622581CC8F800001A70D8F824
:100F080000300022581CC8F800001A7040464EF005
:100F1800E1F9214640464EF0C5F9294640464EF0D3
:100F2800C1F9404639464EF0D5F9D8F800305A1C78
:100F3800C8F8002083F80090D8F800305A1CC8F888
:100F4800002001201E7003B0BDE8F08F1E43CFE7DC
:100F5800002003B0BDE8F08F4FF00009B4E700BFF0
:100F6800000000106BCA5F6B806967FFD34D621089
:100F7800CDCCCCCCC55A7C0AA0860100FFC99A3BCF
:100F8800581E002003687E22591C10B501601A7093
:100F980003680022591C01601A704FF6FF7104465D
:100FA8004EF072F90D4B93F8323083B126F034FBD2
:100FB800014620464EF068F9204647F6FF714EF08C
:100FC80063F920460821FFF749FB012010BD26F0F0
:100FD80039FB014620464EF057F9EDE7581E002030
:100FE800F0B5334D334FD5E904322DED028BC01ADD
:100FF80083B061EB020153F0A5FB9FED2F8AB7F890
:10100800306407EE900A27EE888A32F069FA0028E1
:1010180048D1BCEEC88A18EE103A9E4204D201208C
:1010280003B0BDEC028BF0BDB5F92630DFED230A25
:1010380002EE103AB7F82A3407EE906AB8EEC88A7A
:1010480001EE903AB8EE671AB8EEC22AF8EE611AC5
:10105800B0EE480A04468DED011A4EF0BFFF97F82E
:101068003834DFED160A9DED011A01EE903AB5F914
:101078002230FDEEC07A02EE103A17EE903AF8EE02
:10108800611AB8EEC22AB0EE480AEB844EF0A6FF09
:10109800FCEEC07A204617EE903A6B7603B0BDECB2
:1010A800028BF0BD032003B0BDEC028BF0BD00BF86
:1010B80000000010581E00206F12833A0000000044
:1010C8002DE9F041274E284DD6E90432C01A61EBCC
:1010D800020153F037FBDFED257AB5F82C34B5F86B
:1010E800322407EE100A67EE277AFCEEE77A17EE4D
:1010F800904A234493422ED8B5F82E74B5F82A8422
:10110800A74204D2A6F826800120BDE8F0812CF081
:1011180067FCB5F82834DFED160A07EE908A984286
:10112800B8BF1846B8EE672A07EE907A83B201EE88
:10113800903AB8EE671A07EE904AF8EE611AB8EEE0
:10114800E70A4EF04BFFBDEEC00A002010EE103A41
:10115800F384BDE8F08132F0C3F90028CCD0032035
:10116800BDE8F08100000010581E00206F12833A7D
:101178000000000000F01F0240090123032803FAC1
:1011880002F304D0042807D002280AD07047074A7F
:10119800116C0B4313647047044A116B0B431363C0
:1011A8007047024A516C0B43536470470038024041
:1011B8000B68144A30B40568CC682A402343D1E947
:1011C800054513432343D1E907242B4313434A6AB4
:1011D8004D6B234313438C6BCA6A2B43234343F45D
:1011E8000033036044690B6B0D6924F00704134353
:1011F8002343D1E9014243614560846030BCC26049
:10120800704700BF3F801CF070B50B46ADF5815D9F
:10121800014614460DF581501A460023CDE9010315
:1012280004AD6846FD260393ADF8086000954EF0BE
:1012380021F8009B0193204669460222009528F078
:10124800BFFD0DF5815D70BD2DE9F047041E0D460B
:1012580012DB092C26DC824A0B468248A0FB0410CC
:10126800C00800EB8000A4EB40000021125C1A705B
:1012780059702846BDE8F08764422D23092C01F8EF
:10128800013B24D8764A774BA3FB0403DB0803EB26
:101298008303A4EB43030020D35C48700B702846FB
:1012A800BDE8F0876F4B632CA3FB04264FEAD606F4
:1012B80021DC6B4A0B466B49A1FB0601C90801EB0F
:1012C8008101A6EB4101515C03F8011BC5E7654AA2
:1012D800632CA2FB04364FEAD60637D8604A614B26
:1012E800A3FB0603DB0803EB8303A6EB4303D35CF2
:1012F80001F8013BC7E7A3FB0627B4F57A7F4FEA5D
:10130800D7070DD2564A0B465649A1FB0701C90813
:1013180001EB8101A7EB4101515C03F8011BCAE70E
:10132800A3FB072842F20F7294424FEAD80836D836
:101338004B4A0B464B49A1FB0801C90801EB810147
:10134800A8EB4101515C03F8011BDDE7A2FB06375E
:10135800B4F57A7F4FEAD7070CD2414A414BA3FB39
:101368000703DB0803EB8303A7EB4303D35C01F814
:10137800013BB4E7A2FB073842F20F739C424FEAE5
:10138800D80821D8364A374BA3FB0803DB0803EB00
:101398008303A8EB4303D35C01F8013BDEE7324A41
:1013A800A3FB080994424FEAD90921D82C4A0B46D5
:1013B8002C49A1FB0901C90801EB8101A9EB4101F5
:1013C800515C03F8011BB5E7274BA2FB08099C42B7
:1013D8004FEAD90921D8224A224BA3FB0903DB088B
:1013E80003EB8303A9EB4303D35C01F8013BCAE792
:1013F8001E4AA3FB090394424FEAD30A21D80B469D
:101408001849174AA1FB0A01C90801EB8101AAEB97
:101418004101515C03F8011BCAE7144BA2FB090206
:101428009C424FEAD20A13D80E4B0D4AA3FB0A037B
:10143800DB0803EB8303AAEB4303D35C01F8013B0E
:10144800CAE70A22BAFBF2F04DF070FC0346D7E770
:101458000A22BAFBF2F04DF069FC0146E4E700BF4E
:10146800CC2D0608CDCCCCCC9F8601003F420F0086
:101478002DE9F04788B0541C03941478002C00F030
:1014880040810025074688461E46A9460BE0791C80
:1014980002D021463846C047039A0135531C0393AE
:1014A8001478002C58D0252CF1D1931CCDE90339A0
:1014B80050782D2800F0C8804FF0000A302800F03E
:1014C800AB80A0F13003DBB2092B4FF0000440F2EF
:1014D800AF806C284ED0782838D8572840D9A0F14A
:1014E8005803202B32D8DFE813F0F4003100310024
:1014F800310031003100310031003100310031005C
:10150800DA0000013100C100310031003100310042
:10151800310031003100E300310031003100310089
:10152800BB003100210031003100F40056F8040BF3
:1015380005A9FEF725FE05ABCDE90043049B42460D
:101548004FF0FF3138464EF09FF90544039A531C7B
:1015580003931478002CA6D1284608B0BDE8F0877C
:101568000028F9D02528F1D17B1C95D025213846B3
:10157800C04791E7039B5A1C0392197878298DD8A4
:10158800572967D9A1F15803202B87D801A050F813
:1015980023F000BFC3160008A5140008A51400080E
:1015A800A5140008A5140008A5140008A51400082F
:1015B800A5140008A5140008A5140008A51400081F
:1015C800A7160008FF160008A514000875160008DD
:1015D800A5140008A5140008A5140008A5140008FF
:1015E800A5140008A5140008A5140008BB160008D7
:1015F800A5140008A5140008A5140008A5140008DF
:1016080069160008A514000835150008A514000877
:10161800A5140008C3160008039B5A1C03921878E7
:10162800A0F13003DBB2092B4FF001043FF651AFB4
:1016380004AA03A9FEF7E6FDBAF1000F3FF449AF8B
:10164800049B5B42049344E7D31C039390784FF0C8
:10165800010A33E700293FF47FAF252984D01DE72D
:1016680056F8042B049BCDE9009268E7073626F06C
:101678000706F6E8020152F02DFF00EE100A05A851
:101688004DF0EAFA05ABCDE900434246049B4FF022
:10169800FF3138464EF0F8F8039A0544FEE67A1C06
:1016A8003FF4FAAE56F8041B3846C9B2C047F3E611
:1016B800039A56F8043B1D60F0E6A1F15802B2FA0D
:1016C80082F256F8040B520905AB10214DF08AFB43
:1016D80031E7A0F15802B2FA82F256F8040B520927
:1016E80005AB10214DF07EFB25E756F8040B05A944
:1016F8004DF034FB1FE756F8040B05A94DF02EFBFF
:1017080019E7254628E700BF30B44368404C5A79AA
:101718001B68A05C002914BF0024022400BB198C9C
:1017280021F001010904090C1984198B1A8C21F084
:10173800F30192B2090422F00A02090C224342F092
:10174800010241F0010119831A841A8B22F00C025C
:101758001204120C1A831A8B92B230BC1A83704787
:1017680004281A8C21D0082838D022F48052120478
:10177800120C1A84988B1D8C45F6FF7240F6FF41B7
:101788002A40014042EA043242F4805241F4807116
:1017980099831A849A8B22F440621204120C9A8359
:1017A8009A8B92B230BC9A83704722F010021204CE
:1017B800120C1A84188B1A8C92B240F6FF4122F050
:1017C800A002014042EA041242F0100241F4807182
:1017D80019831A841A8B22F44062B9E722F48072C2
:1017E8001204120C1A84998B1A8C21F0F30192B20C
:1017F800090422F42062090C42EA042242F48072AD
:1018080041F0010199831A849A8B22F00C02C4E7F3
:1018180020B00508F8B5B44CB44DB54BC4F84454E1
:101828000225B44AB44FB54EB54984F848544FF030
:10183800A045C4F84C54C4F8983405F51465A3F5CC
:10184800DC63C4F85024C4F8587402F55072603749
:10185800C4F89464C4F85C146036A1F5A461C4F8B3
:101868006054C4F80C35A5F5886503F5B073C4F861
:101878009C24C4F86474A2F5C462A7F58467C4F80C
:10188800A064C4F85414A6F5C06601F5C071C4F884
:10189800D054C4F8E434C0359A4B9B48C4F8D424D7
:1018A800C4F8D874C03207F52C67C4F8DC64C4F8EF
:1018B800E01406F5D55601F52A51C4F8E8544FF05E
:1018C8005025C4F84004C4F8EC2400208F4AC4F81A
:1018D8001075C4F81465C4F8181506F5C04601213A
:1018E800C4F81C35C4F82055A3F5485307F5C0477C
:1018F80004F58865C4F82425C4F82C650246C4F8A4
:1019080028750E4684F84B14C4F84C3584F85215E3
:1019180084F8540501462B46402083F81C21A3F87F
:1019280022210132042AC3E9490183F81D6183F8A1
:101938001F11C3F8301103F12803EED1002211461C
:101948002B46402083F87423A3F87A230132042A13
:10195800C3E9DF0183F8751383F87713C3F8881395
:1019680003F12803EED14FF0A04369489A6822F0AA
:1019780001029A60DA6842F04002DA604FF032FC05
:1019880094F849340022212161F317420BB142F443
:10199800801294F84314D4F84C3401299A6307D17F
:1019A8009A6822F03E0141F02A0161F307029A6029
:1019B800DA68D4F84C65D4F85004C2F3076121F012
:1019C800600141F0400161F31F620021DA6031607B
:1019D800026861F3CC22026094F84B24012A10D1EA
:1019E80001684C4A4C4E41F0030101608021596264
:1019F8009E62C3F804214FF4A072C3F80821C3F80B
:101A08000C21102145484FF035FF44484FF018FF8E
:101A1800D4F8506494F8413400204FF0FF3230611C
:101A28007061B261F06143B305F114073C4A07EBFA
:101A380083074FEA830E4FF0FF0C52F8043F1968F2
:101A48000029ACBF00214FF09041BA4219601861DB
:101A5800C3F808C0F1D15035324A75440027FF2039
:101A680052F8043F19680029ACBF00214FF090419B
:101A7800954219601F619860F2D1336994F8431454
:101A880043F48073012933611ED0D4F84C242648CE
:101A980000294FF000036FF080414FF0FF3493614D
:101AA800516108BF102354605161906143F4701371
:101AB800916943F4605343F008030B4393619368BF
:101AC80043F001039360F8BDD4F84C24174B3363FB
:101AD8006FF08041144800234FF0FF349361516147
:101AE800546051619061E1E7581E002040004001B8
:101AF800200B00500008005000090050000B005057
:101B08002009005000400050080401000060005007
:101B1800A4220020C00080008000400098220020FD
:101B2800AC220020E8220020000800800301810088
:101B380030B51C4B5021082283B083F84313C3F8F7
:101B48008820BFF34F8FBFF36F8F174D174C2B6B48
:101B580043F001032B634FF4C05240F2023369464D
:101B68002046CDE9002350F00BFB636A104A23F4AA
:101B780070436362636A43F420436362636A23F4D5
:101B880070236362636A43F4202363626B6C43F4DB
:101B980080436B646B6B012143F080036B6351617D
:101BA80003B030BD00E100E0003802400000024010
:101BB800003C014010B5802104464FF079F82046DA
:101BC80000214FF075F82046BDE810404FF030BBBB
:101BD8002DE9F041B14C94F8473AC4F8340A82B080
:101BE80088465A2B00F2B980DFE813F0CC00B70022
:101BF800B700DC00B700B700B700B700B700B70000
:101C0800B700B700B700B700B700B700B700B70014
:101C18001D01B700B700B700B700B700B700B7009D
:101C280041017400B700B7007400B700B700B700EF
:101C3800B700B801B7006201B700B7007C00B70071
:101C4800FB01B700B700B700B7005B00B700B700EB
:101C5800B700B700B700B700B700B700B700B700C4
:101C6800B700B700B700B700B700B700B700B700B4
:101C7800B700B700B700B700B700B700B700B700A4
:101C8800B700B700B700B700B700B700B700B70094
:101C9800B700B700B700B700B700B700B700B70084
:101CA800E40194F8483A9B0700F14D82B4F84E3AA3
:101CB800D4F8492AD4F8881A5BBA9BB212BAD01859
:101CC8008842C4F8943AC4F8902A03D94EF0D0FF59
:101CD800002854DB0020A4F8800A0546284602B0F4
:101CE800BDE8F08194F88C3A002B40F0FF8094F91D
:101CF800443A002B31DAD4F87C3A08469B68984776
:101D0800002840F00482B4F84E0AD4F8492AD4F8DE
:101D1800883A40BA80B212BA15189D42C4F8940A9B
:101D2800C4F8902A07D94EF0A3FF002827DBD4F87F
:101D3800902AD4F8940AD4F8843AD4F8406A00FB7C
:101D480003F002FB03F20225B042C4F8902AC4F85B
:101D5800940A84F88C5A00F0CF8094F8583A5A1CA8
:101D6800D2B204EBC30305204FF40051042A84F8CF
:101D7800582A83F85C0AC3F8601A00F092814FF081
:101D8800FF35ABE7D4F8403A002BE6D1D4F87C3ADB
:101D980008469B6898470546002840F0B881A4F893
:101DA800800A9BE73E4B002203F1120103F8012F42
:101DB8008B42FBD13B4994F8823A94F8580A702533
:101DC8000D7098424FF00C05CD7110D004EBC30094
:101DD800013390F85C5A8D70B0F8600ADBB2042BBE
:101DE80040BA888114BF84F8823A84F8822A94F829
:101DF8004B3A12229342A4F8802A0FD8A4F8803ACA
:101E080000256BE7B5F5805F28BF4FF48055D4F8FF
:101E1800340A244AABB201214FF044F80025284681
:101E280002B0BDE8F08194F8483ADA0700F122815F
:101E3800D4F87C3A94F84B0ADA6901EBC10102EB59
:101E480081010A79531D834228BF0346A4F8803ACA
:101E5800002BE3D0013B13489BB2013319440344E0
:101E680011F8012D03F8012D8342F9D1D6E70E4868
:101E78000E4E014608230738C1F10705A4F8803A39
:101E8800002201E0127B19460B46814203F8012922
:101E980005EB030216FA82F2F4D1BFE7581E0020C0
:101EA800DB530020DC530020E353002020B005085A
:101EB800D4F87C3ABA4A5B680846111D984705462B
:101EC800002840F02481D4F8883AB64AD4F8841A15
:101ED800013B180E1070180C09BAD37050701B0A09
:101EE800082093705160A4F8800AF7E6D4F8946A41
:101EF800D4F8902AD4F8843AD4F87C5AB2FBF3F296
:101F08004FF48057BE4228BF3E462D69A549A4F824
:101F1800807A4046B6FBF3F39BB2A8470028C0F28C
:101F2800AE8033469F4AD4F8340A81214EF0F4FE3D
:101F3800D4F8902AD4F8940AD4F8A03A3244851BED
:101F48009E1BC4F8902AC4F8945AC4F8A06A002DBD
:101F58007FF464AF032384F88C3ABFE6914F0026E0
:101F68003B4607F10C0203F8016B9A42FBD1D4F807
:101F78007C3A40465B686A4601A9984705460028AE
:101F880040F0CF80019BBDF80020013B190E52BAEA
:101F9800FB713971190C1B0A79710820BB71022178
:101FA8007A810C23BDF80220F87039727A72A4F88D
:101FB800803A93E67C487D4E014608230738C1F1F4
:101FC8000705A4F8803A002201E0127D19460B4665
:101FD800884203F8012905EB030216FA82F2F4D1CC
:101FE8001CE794F88C3A002B61D194F9443A002B01
:101FF800FFF6B3AED4F87C3A08469B6898470028A9
:1020080040F08580D4F87C3A4046DB68984705461E
:10201800002840F0AC80B4F84E3AD4F8492AD4F8F5
:10202800880A5BBA99B212BA53188342C4F8941A50
:10203800C4F8902A00F29180D4F8843AD4F8400A7F
:1020480003FB02F203FB01F38342C4F8902AC4F8AD
:10205800943A7FF482AEB3F5805F28BF4FF4805383
:102068000121D4F8340A4F4A84F88C1A9BB24EF0F6
:1020780019FF33E607234E49A4F8803AEAE694F8B4
:10208800583A5A1CD2B204EBC30304204FF48851C7
:10209800824284F8582A83F85C0AC3F8601A7FF4ED
:1020A8006EAE002384F8583A4FF0FF3516E6D4F8A0
:1020B800946AD4F87C0AD4F8843AD4F8902A45690A
:1020C800B2FBF3F2B6F5805F28BF4FF4805608469E
:1020D800B6FBF3F333499BB2A847002856DBD4F884
:1020E800902AD4F8945AD4F8A03A3244AD1B9B1BDA
:1020F800C4F8902AC4F8945AC4F8A03A002D7FF482
:1021080081AED4F8340A29464EF020FFE6E594F86B
:10211800583A5A1CD2B204EBC30302204FF4685158
:1021280024E694F8583A04EBC3020133DBB20220E8
:102138004FF46851042B82F85C0AC2F8601A20D068
:1021480084F8583A1BE694F8583A5A1CD2B204EB71
:10215800C30305204FF4105108E64EF089FD00280E
:10216800FFF60DAED4F8902AD4F8941A64E794F8E0
:10217800583A5A1CD2B204EBC30302204FF41C5144
:10218800F4E584F8586A4FF0FF35A7E594F8583A13
:102198005A1CD2B204EBC30304204FF4407177E712
:1021A800DC280020DC530020E353002020B0050881
:1021B80024B00508704700BF99B10A6B824216D94E
:1021C800154BD3F8D42A914221D34C3991421ED3CE
:1021D8000B6B9842F9D38B6B9842F6D80B4618468E
:1021E80070470D4BD3F8D41A0A6B904212D30B6880
:1021F8000BB9F4E70A6B90420B4602D38A6B904204
:10220800EDD951F84C3F002BF4D118467047002304
:10221800184670470A46D8E7581E00202DE9F047AF
:10222800CC0143D10346224A43F8082B4FF0FF3232
:102238004260022418467E26DFF87880D8F8D89ABB
:102248002644013E051D49466FF070474FF0010ACC
:1022580008E0A3421CD0631C45F8043C321B1C4612
:102268000435CAB10B6BA34202D88B6BA34204D2CC
:102278002046FFF7A1FF014690B10A794B6B002A6F
:10228800E7D1A34204D0E6D245F8042C631CE5E765
:1022980045F8047C631CE1E7C8F8D81ABDE8F08764
:1022A80045F804AC321B631C4946D8E78026C3E7CF
:1022B800F8FFFF0F581E002070B50546134895F922
:1022C8001030AA6803EB8303920750F823600C468A
:1022D80010D5D4E901232168304651F091FBD4E9A7
:1022E8000423E168304651F08BFBAB689B0706D5A9
:1022F800012070BD686943F0E5FD00BFE9E700BF54
:10230800686944F011FA012070BD00BF0000002088
:102318002DE9F04F2DED108B034693B00433119344
:10232800DFEDC1AA109002230F928B460E938946C7
:10233800109C4FEADB0504EB451202EB0511A5EBF7
:1023480085034FEAC5084FEA051E05EB850A00918B
:1023580001EBC30308F104000EF104012E462044EA
:1023680005EB450521444FEACA040D9602942C0159
:10237800C6EBC60C0394EC000D9D04944FEACC0404
:1023880005946C010194119D009C03EB46174FEADC
:10239800CB0A02EBC6064FF0000C55ED011A11ED01
:1023A800012AD6ED005AD7ED004A92ED003AD4ED55
:1023B800003A10ED015A93ED004A72EE238A34EE8A
:1023C800248A71EE836A35EE257A36EEA86A77EEAE
:1023D800087A35EE655A76EE275A36EE676A45ED85
:1023E800015A82ED006A90ED00AAD6ED012A93ED1C
:1023F800016AD7ED019A94ED010AD1ED005AD5EDA5
:10240800007A92ED019A34EE644A76EE690A7AEE21
:10241800624A35EEC01A31EEC33A72EE633A34EED0
:10242800A02A77EEC91A74EEE04A75EE805A75EE66
:10243800440AB0EE410A35EE045AA2EE2A0ADC44F8
:10244800E145A2EE6A1AB0EE434AB0EE432AA0EE86
:10245800AA2AA0EEEA4AB0EE613AF0EE610AE4EE8A
:10246800AA0AA4EEEA3AF0EE634AE5EE6A3AE5EE25
:102478002A4A7AEE222A36EE296A77EE897A72EEAD
:10248800861A37EE487A32EEC66A76EEE86AB0EE19
:10249800635A77EEA53A77EEE57A73EEA18A36EEBF
:1024A800868A73EEE13A76EEC66A77EEC71A72EE5E
:1024B800002A77EE277A74EE015A30EEE46A33EE9A
:1024C800457A32EE402A34EE414A74EEA04A35EE9F
:1024D800035AC5ED008AC2ED013A554401ED018A5F
:1024E8005244C4ED006AC1ED001AC4ED017A5144AA
:1024F80040ED012A544487ED002AC6ED005A83EDC9
:10250800004A80ED006AC7ED014A504486ED017A21
:10251800574483ED015A564453443FF63EAF0D9B52
:10252800072B40F2A3810198109D059B049A0399FB
:10253800029C0830281808330A902846C318083225
:1025480082180593034608F108080EF10C0E0C33A7
:102558000834083106920246454472440419411869
:1025680004934B460995D1460894079103924FF07E
:1025780001084FF0000E9A460E9B9E440F9B03EBFA
:10258800CE0303EBCE0202EBCE0000EBCE0404EB4D
:10259800CE0505EBCE060C9306EBCE07AEEB8E030D
:1025A8000B9207EB031202EBCE0C0CEBCE0302925C
:1025B80003EBCE0201931346D3ED01DA019BD0ED74
:1025C800007A93ED01DA029BCDED027A93ED01CA10
:1025D8000B9BDCED01CAD3ED007A0C9BCDED017AA3
:1025E80002EBCE0202EBCE01009201EBCE02D3ED5C
:1025F800007A92ED01FA009AD1ED01EA92ED01EA32
:10260800D7ED00BA96ED00BA95ED00AAD4ED009A80
:10261800CDED007ADDE90376DDE90554DDE9070152
:10262800DDE90923C44601E0F304353F91ED006A72
:1026380056ED01FAD0ED002AD4ED005AD5ED006A26
:1026480093ED007A57ED017A92ED002A96ED008A13
:102658007FEE870A32EE061A37EEA24A75EEA64AD0
:1026680070EE841A31EE245A32EE462A31EE856A2B
:1026780075EEE65A06ED016AD4ED018A92ED019AEB
:1026880091ED013A95ED016A97ED000AD0ED016AE6
:10269800D3ED013A3FEEC77A77EEE27A78EEC6FAE2
:1026A80079EE432A39EE033A30EE669A38EE866AB6
:1026B80070EE266A78EE638A32EEEF0A72EEAF2A7F
:1026C80078EE233A30EEC44A32EE258AF0EE490A13
:1026D80072EE655AE2EEAA0ADC44E245A2EEEA9AF4
:1026E800B0EE682AF0EE472AE5EEAA2AA5EEEA7AC5
:1026F800A0EE2A2A73EE065AE0EE6A8AF0EE67FA2E
:1027080033EEA60AE8EE6A7A71EE644A31EEC55AEB
:1027180033EE463A70EE651A73EEE63A34EE036A23
:1027280072EEA06A34EE434A72EEE00A33EEE43AFF
:10273800E8EE2AFA74EEA33A65EE6D2A77EE094AB6
:1027480037EE499A38EEE77A77EEA88A6DEEA17AE5
:102758009DED018AE9EE857AE9EEA12A26EE6C5A0A
:102768006CEE831A32EE6F1AA8EE035AE8EE061AD8
:102778002EEEA33A24EE6E6A9DED008A3FEE822A81
:10278800ABEE043AABEE236A2CEE014A66EECC3A85
:10279800A8EE264AE8EE013A6FEE026A20EECF1A5A
:1027A800EBEEA06AABEE821A64EECE0A2EEE072A92
:1027B8009DED028AEAEE070AAAEE242A2DEE287A6F
:1027C80069EE4D4AA8EE097AE8EE284A70EE255AD5
:1027D800C6ED005AC3ED007AC3ED012A4E4447ED19
:1027E800011A87ED005A4B4480ED003A80ED016AEA
:1027F8004F4482ED004AC2ED013A4844C5ED006AF3
:1028080085ED011A4A4481ED002A4D44C1ED010AC3
:1028180084ED007AC4ED014A49444C443FF606AFC2
:102828000A9B08330A93099B08330993089B0833CA
:102838000893079B08330793069B08330693059B69
:1028480008330593049B08330493039B08330393CD
:102858000D9B08F1010843457FF48EAE0E9BDDF811
:1028680034B0DB009BB2D1460E9361E513B0BDECEA
:10287800108BBDE8F08F00BF804BB3FBF2F3994299
:102888000DD300234FF07E5243608360C360036121
:1028980002600023836143610362C361704707EEEE
:1028A800902A9FED777AF8EE676A07EE901A66EE3F
:1028B800876AF8EE677A66EEA76AFDEEE67A17EEA3
:1028C800903A2033402B00F2CA80DFED6E7AF4EEA6
:1028D800E76AF1EE10FAF0EE667A0CDDDFED6A5A7F
:1028E8009FED6A6AB0EE677AB4EEC67AF1EE10FA36
:1028F80077EEE57AF6DC9FED667AF4EEC77AF1EECC
:1029080010FA0CD5DFED605A9FED626AB0EE677A77
:10291800B4EEC67AF1EE10FA77EEA57AF6D49FED0A
:102928005E7AF4EEC77AF1EE10FA00F390809FED2C
:102938005B7AF4EEC77AF1EE10FA44BF9FED547A51
:1029480077EE677A27EEA76ADFED554A9FED557A4D
:102958009FED555ADFED555AA6EE247A67EE864A62
:10296800A6EE075AB6EE007AE6EE055AE4EEA57A28
:1029780027EE877A9FED486A76EE867AFDEEE75A6B
:1029880015EE903A2033402B66D8F4EEC66AF1EE85
:1029980010FA0CDDDFED3C5A9FED3C6AF0EE676AF9
:1029A800F4EEC66AF1EE10FA77EEE57AF6DCDFEDC2
:1029B800386AF4EEE67AF1EE10FA0CD5DFED325A09
:1029C8009FED346AF0EE676AF4EEC66AF1EE10FA2B
:1029D80077EEA57AF6D4DFED306AF4EEE67AF1EE1A
:1029E80010FA3FDDDFED276A76EEE77A67EEA76A31
:1029F800DFED2B4A9FED2B5ADFED2B5A9FED2B6A0B
:102A0800A6EEA45A67EEA64AE6EE855AB8EE005A34
:102A1800A6EEA56AE4EE867A67EE857AC7EE006AC6
:102A2800B7EE006A76EE865A76EE666A86EE257A04
:102A380067EE277A66EE876AC0ED017AC0ED037A01
:102A480080ED007A80ED027AC0ED046A21E79FEDFF
:102A58000D7A77EE677A75E7DFED157ADEE79FED99
:102A6800147A87E7DFED0D6AF4EEE67AF1EE10FAF4
:102A780044BFDFED076A76EEE77AB7E720A10700E3
:102A880027D4D236DB0F4940DB0FC940E4CB1641CF
:102A9800DB0F49C0E4CB16C1DB0FC93FDB0FC9BF51
:102AA8009A7C2E36FAAF4FB93587083CA4AA2ABEBD
:102AB800000000000023024A426003608360704700
:102AC80083F9223E034A044B42600021016083607F
:102AD800704700BF5B128B3A6F12033B034B6428AD
:102AE800B8BF6420C3F8BC03704700BF00000020D3
:102AF800034B64289B6AB8BF6420D860704700BF46
:102B0800000000102DE9F04790B0DDE918480E46A6
:102B18000746914601A83C2200219A461A9D58F082
:102B2800D2F92E4B8DF80460CDF834800293002E34
:102B380050D0B31E012B4FD9042E14BF00230323FA
:102B4800DFF89C808DF80530D8F8203B03941C44AE
:102B58000123CDE9055704948DF83130B9F1000F00
:102B680006D05246494607A857F0C2FF8DF830A054
:102B780098F826EB0023BEF1010F0E931CD801AC88
:102B88000FCC98F825CBCCEB0C1508EB850505F692
:102B980028350FC50FCC0FC50FCC0FC594E807001B
:102BA800BCFA8CFC0EF1010E4FEA5C1C85E80700AC
:102BB80088F826EB88F825CB3B6843B153464A464C
:102BC8003146384610B0BDE8F04727F02DBC10B0AC
:102BD800BDE8F0870523B3E70223B1E738290020D1
:102BE800581E002000230360704700BFB4EEE00ABF
:102BF800F1EE10FA09D4F7EE007AB4EEE70AF1EE36
:102C080010FA88BFB0EE670A7047B0EE600A7047E6
:102C1800074B0849D3F8D42BC3F8C41B931E4FF4B1
:102C28007871223223F8021F9342FBD1704700BF0C
:102C3800581E0020DD23020870B5244E244BC6F828
:102C4800C43B11244FF4787506F53E634FF4787051
:102C580086F8A84B4FF47874C3E90045C3E90245E8
:102C6800C3E90445C3E90645C3E90845C3E90A457C
:102C7800C3E90C45C3E90E451649C6F8200C84B0D3
:102C880006F6A83241F60B2400254020C2E9024589
:102C9800C6F8C81B29F05EFCB0B196F82B3C0E4A6A
:102CA80090F904000092012B0CBF08220022032394
:102CB800CDE901324021094A002329F053FAC6F828
:102CC8004C0C003818BF012004B070BD581E0020FD
:102CD800A52E0208C52E0208A06806006D4102084C
:102CE800642828BF64201C4B00EB800070B54500A9
:102CF800A3FB05235E095B0918BF002422D0013419
:102D08009F2044F085FDE3B29E42F8D80A2E00D1F8
:102D180070BD1248A0FB05300009C6EB8613C6EB50
:102D2800830366381844C0B244F072FD092E06F1D8
:102D38000104EDD001349A20E4B244F069FD0A2C74
:102D4800F8D170BD0548A0FB053000096638C0B24F
:102D580044F05EFD0124EDE71F85EB51CDCCCCCCD2
:102D6800F0B41B4E96F8503C072B2FD80C2404FBCC
:102D78000364013304F65844DBB254F8042CD10739
:102D88000ED502420CD094F900701249002291F934
:102D98000050BD4201F10C010ED00132082AF6D1D3
:102DA8000133DBB2092B04F10C04E6D1082386F8C1
:102DB800503C0020F0BC704702EB420206EB820256
:102DC80086F8503CD2F87C01F0BC70470020F1E74F
:102DD800581E0020D01F00200144884218D030B46B
:102DE800441E4D1E002041F2210114F8012F082332
:102DF80080EA022010F4004F81EA40020ABF400036
:102E080090B280B2013BF5D1AC42EED130BC7047F4
:102E180000207047D0ED017AF5EE407AF1EE10FA15
:102E280005D19FED0B7AF0EE477A80ED017A30EE0E
:102E3800A77AD0ED007AC0ED020AC0EE876A30EEBC
:102E4800670AE6EE807AB0EE670AC0ED007A70474E
:102E580083F9223EBCEEC00A7F4AB2FBF1F210EEC3
:102E6800103A9BB2934208D300234FF07E5243603E
:102E78008360C36003610260704707EE901A9FED9C
:102E8800777AF8EE676A07EE903A66EE876AF8EEA8
:102E9800677A66EEA76AFDEEE67A17EE903A203377
:102EA800402B00F2CA80DFED6E7AF4EEE76AF1EEAD
:102EB80010FAF0EE667A0CDDDFED6A5A9FED6A6A69
:102EC800B0EE677AB4EEC67AF1EE10FA77EEE57AEC
:102ED800F6DC9FED667AF4EEC77AF1EE10FA0CD5BF
:102EE800DFED605A9FED626AB0EE677AB4EEC67A9B
:102EF800F1EE10FA77EEA57AF6D49FED5E7AF4EE4D
:102F0800C77AF1EE10FA00F390809FED5B7AF4EE49
:102F1800C77AF1EE10FA44BF9FED547A77EE677ADC
:102F280027EEA76ADFED554A9FED557A9FED555A72
:102F3800DFED555AA6EE247A67EE864AA6EE075AC2
:102F4800B6EE007AE6EE055AE4EEA57A27EE877A21
:102F58009FED486A76EE867AFDEEE75A15EE903ACE
:102F68002033402B66D8F4EEC66AF1EE10FA0CDD79
:102F7800DFED3C5A9FED3C6AF0EE676AF4EEC66AF4
:102F8800F1EE10FA77EEE57AF6DCDFED386AF4EE6A
:102F9800E67AF1EE10FA0CD5DFED325A9FED346A7D
:102FA800F0EE676AF4EEC66AF1EE10FA77EEA57AEB
:102FB800F6D4DFED306AF4EEE67AF1EE10FA3FDD92
:102FC800DFED276A76EEE77A67EEA76ADFED2B4A30
:102FD8009FED2B5ADFED2B5A9FED2B6AA6EEA45AD4
:102FE80067EEA64AE6EE855AB8EE005AA6EEA56A3E
:102FF800E4EE867A67EE857AC7EE206AB7EE006A55
:1030080076EE865A76EE666A86EE257A67EE277A37
:1030180066EE876AC0ED017AC0ED037A80ED007A2A
:1030280080ED027AC0ED046A70479FED0D7A77EE65
:10303800677A75E7DFED157ADEE79FED147A87E7A3
:10304800DFED0D6AF4EEE67AF1EE10FA44BFDFED3B
:10305800076A76EEE77AB7E720A1070027D4D236C9
:10306800DB0F4940DB0FC940E4CB1641DB0F49C0F9
:10307800E4CB16C1DB0FC93FDB0FC9BF9A7C2E36E4
:10308800FAAF4FB93587083CA4AA2ABE0000000051
:1030980070B4344890F8B83CA3F13001092957D8E6
:1030A80000F6B844224600F6C74012F8015FA5F1C1
:1030B8003001092904D88242F7D1002070BC70473A
:1030C800141B022C4ADD2848002101E010F8013BBE
:1030D80001EB810103EB4103161A303B022E044633
:1030E80003F0FF01F2DC214B03FB01F1A2424FF098
:1030F80000030DD903EB830314F8016B5B00303B2D
:103108003344A24203F0FF03F4D1194800FB03F350
:103118002E2D06D01748A0FB032301EB930070BCAB
:103128007047013204200024157804EB8404303DF4
:103138006400092D00F1FF30A4B202D82C44A4B2D7
:10314800013210F0FF00EFD1642202FB0433E1E703
:1031580000211D4600F6B8420B46D9E7064C00216F
:10316800C4E700BF581E0020112B0020809698004D
:1031780040420F00ABAAAAAA102B0020094BD3F893
:10318800C80CD3F8CC2CD3F8D03C824202DB1146D1
:1031980002460846984204DD9A42B8BF1A461046CD
:1031A80070477047581E002030B4144AD2F8D40C27
:1031B800D2F8D83CD2F8DC4CD2F8E01CD2F8E42C97
:1031C800834202DB1D46034628468A4202DB154637
:1031D8000A4629468842A8BF08469342B8BF134604
:1031E800A04202DC224604461046834203DAA34288
:1031F800B8BF2346184630BC704700BF581E002091
:103208000B6810B414681B1B036054684B681B1BC5
:1032180043608B6892685DF8044B9B1A8360704723
:103228002DE9F041804684B0084616464BF060FF11
:103238004FF47A72002304460D4651F0C9FAB6F9E4
:1032480000C00746294620464FF47A723C240023E2
:103258000CFB047751F0BCFA002594B24FF47A7352
:10326800C3FB07452B46224601A84BF08BFE404B7B
:1032780093F8EA3C012B2FD0022B10D19DF8067051
:10328800FB1E082B0BD83B1F062B1BD9BDF80400CF
:1032980039464BF00DFE032F36D00B2F41D0224676
:1032A8002B4640464BF06EFE04B0BDE8F081032F7C
:1032B80055D00A2FF3D19DF80870B7FA87F77F0920
:1032C800002FECD033882B4A3C33A4184FF000026F
:1032D800338042EB0505E2E79DF80670FB1E072BDD
:1032E800DDD83B1F052BEDD9BDF8040039464BF05E
:1032F800DFFD9DF807309842D9D0033F18BF01275A
:10330800002FDFD1CBE707380E28FCDC9DF807300B
:10331800834212D0CCBF01270027002FD2D1BEE7AD
:1033280007380728FCDC9DF8073083420ED0B4BF6D
:1033380001270027002FC5D1B1E79DF80870012F9C
:1033480094BF00270127002FBCD1A8E79DF808707B
:10335800012F8CBF00270127002FB3D19FE79DF8CD
:103368000870003F18BF0127002FABD197E700BFB7
:10337800581E002080EE360030B50468E46985B038
:103388002CB10DF10F050095A04705B030BD2046C2
:1033980005B030BD38B50A4C0A4D2321D5F8EC0CE0
:1033A80046F07AF814F8011F0029F7D1064848F0CA
:1033B80047FD95F8F03C13B1012385F8F13C38BD81
:1033C800F42D0608581E0020002E06082DE9F04F9F
:1033D80089B0CDE90621DFF8B08007469946002676
:1033E800069B002B07DBB34205D00136042EF7D12C
:1033F80009B0BDE8F08FEE2303FB06FB079B03EB48
:103408000B0A204B00249B44B9F1000F3346424677
:10341800384601DBA14530D13BF814503AF8141076
:10342800009415F4006FA1EB050114BF4FF0560E80
:103438004FF0480E05F01F0CB1FA81F1C5F34415A1
:103448004909CDE901C5CDF80CE0059147F040F9EF
:103458003AF814300599009413F4006F03F01F0232
:1034680014BF56204820C3F34413CDE90123039029
:1034780033464246384647F047F90134772CC3D1E2
:10348800B3E700BF4C2B0020102E06082DE9F04FA3
:103498003B4C3C4B94F8F4583B4ADFF8F48089469F
:1034A800002D08BF1A4694F9F5188BB0074637481F
:1034B80046F092FD04F555744D460026B9F1000F0B
:1034C8003ED022782B789A426A683BD0D5E902CE62
:1034D8000021A87D0790B5F914000690B5F91200EF
:1034E8000590B5F910000093CDE903E0CDE9012C72
:1034F800334642463846099147F0EAF80999A37DD0
:103508006268B4F914B0B4F912A0B4F910E0D4E9BF
:10351800020C079314F8183B0093CDE901203346B9
:10352800CDE905ABCDE903CE42460136384647F032
:10353800EBF83C2E05F11805C0D10BB0BDE8F08FB3
:103548004946DCE76168D5F808C0914202D0D5F851
:103558000CE0BDE7A168D5F80CE06145B8D1E16899
:103568007145B5D1206929698842B1D16069696915
:1035780020F07F4021F07F418842A9D10121A8E7AE
:10358800502F00202C2E06082C330608302E060853
:10359800402E060870B51D4E96F8E0322DED028BD0
:1035A80004460D465BB3D6E9BA12D6F8F03296ED6A
:1035B800B98A8360C0E90012DFED158A95ED000A2B
:1035C80080EE280A53F076FF23681844206028EE1E
:1035D800288A95ED010A80EE080A53F06BFF6368AC
:1035E8001844606095ED020A53F064FFBDEC028B4D
:1035F800A3680246134496F8E002A36070BDC0E9D0
:1036080000338360B7EE008AD6E700BF502F002052
:103618002C7D8E3F204BF0B493F8E04234B9002360
:103628000360436083602046F0BC70470D68D3F8A0
:10363800E872D3F8EC62D3EDB96A9FED186AED1B16
:1036480007EE105A4D68AD1B07EE905AB8EEC77AD0
:1036580066EE866AF8EEE77A27EE067A67EEA67ACD
:10366800012A80ED007AC0ED017A0CD08A68D3F87F
:10367800F032D21A07EE902AF8EEE77AC0ED027A15
:103688002046F0BC7047D1ED027AF8EEE77AC0ED3B
:10369800027A2046F0BC7047502F00202C7D8E3FC8
:1036A8001A4AF0B4D46A1A4D002CD5F8B033036026
:1036B8000EDD3032002305F56C7601E09C4207D020
:1036C80052F8041BB14203F10103F7D1012200E0D3
:1036D8000022D5F8BC338360027195F8C03343717A
:1036E800D5E9F832D5E9FA67D5F8D813D5E9FC4514
:1036F8005B0943EAC2635209C0E90467C0E90645A9
:10370800C0E90832F0BC8162704700BF00000010B9
:1037180000000020014B986F704700BF0000002098
:10372800014BD3F80801704700000020014BD3F883
:10373800C0007047000000200C4608B5054628F078
:10374800E7FC204628F0E4FC284642F0E5FA80B978
:10375800204642F0E1FA0028F6D0204642F0D4FA9A
:103768000146284642F0FEFA284642F0D5FA0028DB
:10377800EED0284642F0C8FA0146204642F0F2FA56
:10378800E6E700BF10B4414A92F8B530D2F89C0081
:10379800023BD2E92514062B74D8DFE803F05A5C03
:1037A80060500655040064424942404280EAE07392
:1037B800A3EBE07306EE903A84EAE473A3EBE473B8
:1037C80007EE103AF8EEE66A9FED316AB8EEC77A6E
:1037D80026EE866A81EAE173A3EBE17307EE903A7D
:1037E800B4EEC76AF1EE10FAF8EEE77A04DDB4EE4B
:1037F800E76AF1EE10FA34DC9FED256A27EE066AD7
:10380800B4EEE76AF1EE10FA04DDF4EEC66AF1EE02
:1038180010FA2DD49FED1E6A67EE867AB4EEE77A29
:10382800F1EE10FA2BD5F4EEE76AF1EE10FA26D590
:103838000029CCBF042005205DF8044B70474B429B
:10384800404221461C46B1E7634240420C461946B5
:10385800ACE74942AAE74B4261421C46A6E76442EC
:10386800A4E70028CCBF002001205DF8044B704776
:10387800002CCCBF022003205DF8044B70474FF0AA
:10388800FF30D9E723460C4619468FE700000010A1
:10389800ABAA2A3F70B5294B294C93F8381C93F8EA
:1038A800393CDFED286A94F82829D4F84C5907EEFA
:1038B800101A07EE903AB8EEC77AF8EEE77A27EED4
:1038C800267A67EEA67A04EB4206BDEEC77A013285
:1038D800FDEEE77A02F00F01B6F82C3984F82819C2
:1038E80017EE102A17EE901AC31A2B448A42C4F80E
:1038F8004C3982B0A6F82C094FEA131312DC17EEE4
:10390800101A17EE902A98B240F2FF35002300955E
:103918004CF072FB2A4600214CF090FBA4F85009A9
:1039280002B070BD9BB29942D4BF581A002082429F
:10393800A6BF101A80B20020E6E700BF581E00207C
:10394800502F002014AE234138B503782DED0A8B93
:10395800D0ED01AA70EE609A044669EEAAAAF0EECC
:10396800408AB0EE607A0D46B0EE41AAF0EE61BA38
:10397800B0EE42CAB0EE629A002B61D1D0ED0B7A5C
:1039880001F00103002B54D079EEE77AB0EE697AA2
:1039980087EE8A0AD4ED090A84ED0B7AF5EEC00A9F
:1039A800F1EE10FA57DCD4ED032A20EE220A94ED4A
:1039B8000ABAD4ED057A20EE099A3AEE8B8A68EEB7
:1039C800A78A38EE098AB0EE4C1A38EE288AF0EE4B
:1039D8006B0AB0EE480A4CF021FBD4ED027A94ED64
:1039E800047A84ED0E9A69EEA77AF0EE4B6AEAEE55
:1039F800276A6B0730EE488AF0EE667A28EE078A67
:103A0800C4ED0F8AEAEE087A84ED0CBAC4ED0DAA6B
:103A180084ED100A08D5B0EECBBAB0EEE77AB4EE72
:103A2800CB7AF1EE10FA01D5C4ED0A7ABDEC0A8B17
:103A380038BD77EE677AF1EE677A87EE8A0AA9E7EA
:103A480011F001034FF000020CBFF0EE607AF0EEC7
:103A5800697A027096E7B0EE4A1A04F1180094EDFC
:103A6800038A49F0F9F828EE000AA0E7064B13F894
:103A78003B1C03F5247203F51E73002918BF134677
:103A880093ED020A704700BF502F0020F8B5384C5C
:103A9800384FB4F83664B4F82A34FB842DED028B21
:103AA8000D461EBBD7E90431C01A65EB010150F081
:103AB80049FEDFED317AB4F82C34B4F82E14B4F89A
:103AC800322407EE100A67EE277A0B44FCEEE77AF9
:103AD80017EE905A2B449A4239D3BDEC028BB4F8B6
:103AE8003404A8422CBF00200120F8BDFFF7BEFF18
:103AF80007EE906AB8EEE78AF0EE408AB4EEC80A9C
:103B0800F1EE10FA1FDAD7E90431C01A65EB0101AA
:103B180050F018FEDFED187AB4F82C34B4F82E14EF
:103B2800B4F8322407EE100A67EE277A0B44FCEE4D
:103B3800E77A17EE905A2B44934210D8F4EEC88ACD
:103B4800F1EE10FAC9DBBDEC028B0120F8BD2FF0B5
:103B5800C7FC0028C1D0BDEC028B0320F8BD2FF0B4
:103B6800BFFC0028F7D1FFF781FFF0EE408AE5E7B8
:103B7800581E0020000000106F12833A2DE9F04F04
:103B88002DED028B87B00446324D039310460E4646
:103B9800B0EE408A174650F029F8D5F854B99DF888
:103BA80048A0DBF800308BF80B604FF00008204489
:103BB8008BF80A00CDF8008058463246D3F814B086
:103BC8009DF84C903B462146D8479FED230A039B1E
:103BD800019328EE000A5346FDEEC07ACDF8008026
:103BE80017EE901A424604A80FF0C2FCD5F85839CF
:103BF80013B11B784B452AD0D5F8643913B11B781B
:103C08004B4524D0D5F8703913B11B784B451ED0DD
:103C1800D5F87C39CBB11B78A3EB0909B9FA89F936
:103C28004FEA591938464FF0E1FF01340444E1B234
:103C3800D5F85409CDF8009004AB324643F0E6FEBF
:103C480007B0BDEC028BBDE8F08F9946EAE74FF06C
:103C58000109E7E7502F00200000C84230B41C7863
:103C680084B1012C0CD1B3F902408AB1157B94FBC5
:103C7800F5F40470B3F90430527B93FBF2F30B7044
:103C880030BC70479A780270DB780B7030BC704794
:103C9800054A82FB0452E417C4EB62040470B3F9CA
:103CA80004301222E9E700BFABAAAA2A30B41C7874
:103CB8004CB1012C05D1B3F90220B3F904300260EC
:103CC8000B6030BC70479C7852B1157BDB7815FBD4
:103CD80004F40460527B03FB02F330BC0B607047B2
:103CE80004EB4404A400DB7804601222F3E700BF6D
:103CF80030B583B00C46054601920DF06BFF019B71
:103D08002246294643F038FF094A92F9883902EBDE
:103D1800430101335BB2352BC8BF0023012081F872
:103D28008C5981F88D4982F8883903B030BD00BFBD
:103D3800502F00200F4B93F8402B012A12D910B5B1
:103D480082B004220C888B788DF804000DEB0201F8
:103D58007420ADF805408DF8073028F011FD0120DA
:103D680002B010BD01D00020704793F8413B622B90
:103D7800E5D8F8E7502F0020F8B5214D1D260C4650
:103D8800074685F8686B26F001FF002026F07EFEC6
:103D9800082026F07BFE0E2026F078FE304626F01E
:103DA80075FE042026F072FE042026F06FFE002027
:103DB80026F06CFE302026F069FE002026F066FE14
:103DC800204626F063FE002026F060FE26F0BCFEAA
:103DD80005F66C3026F0B8FD00B9F8BD95F86C3BD7
:103DE80063B995F86D3B302B00D03BB995F86E3B25
:103DF80023B995F86F3B3B700120F8BD0120F8BD51
:103E0800502F00202DE9F04FB64CDFF8E4922DED4D
:103E1800028B0022002304F54075C9E93E239FED7B
:103E2800B28A89B02E46A4F67C3800270CE008EB4D
:103E3800C3032278D3F87C3E02B163B92F601834EB
:103E4800A64205F108053ED094F90130002BEEDAC0
:103E58002378002BF2D02B79DB07F0D4A1682079E6
:103E680025F09AFD21698246207B25F095FDA278F0
:103E78008346252AE2D8DFE812F0360004028701DB
:103E88008E016B0174017E0131002B013D0143015C
:103E98000B024B0150015A0162014F0064006F0090
:103EA800760084009200AB00BD00CD00D300EB008B
:103EB800F100F700FD0006011C01B401BD01D401A9
:103EC800E1019501A40198F88C3F13B198F88E3F51
:103ED8009BB909B0BDEC028BBDE8F08FBAF1000FB9
:103EE800ACD00028AAD0237D01222A60DA07A6D503
:103EF8002B7943F001032B71A1E798F88D2FD8F89F
:103F0800900F402143F004F8002388F88E3F09B051
:103F1800BDEC028BBDE8F08F00FB0AF0734947F651
:103F2800FF724CF08BF88246227DC5F800A0D307BB
:103F380085D5BAF1000F82D02B7943F001032B719C
:103F48007DE70028F0D09AFBF0F0684947F6FF7249
:103F58004CF074F88246E7E75FFA8AF0594625F094
:103F6800F5FCDA46E0E75FFA8AF21046039225F09C
:103F780007FD039A0BEB000A5146104625F0E6FCB4
:103F8800D2E75FFA8AF21046039225F0F9FC039A09
:103F9800A0EB0B0A5146104625F0D8FCC4E75FFA9F
:103FA8008AF0072800F279815FFA8BF3003B98F8D2
:103FB8008D2F18BF012301215B42534001FA00F005
:103FC80003405A40DA4688F88D2F88F88E1FABE7F1
:103FD800D9F8F830227D43F00103C9F8F830D0074A
:103FE8004FF001032B607FF52AAF2B7943F00103D3
:103FF8002B7124E7D9F8F820237DC9F85CA142F099
:104008000202C9F8F820D9074FF001022A603FF5EB
:104018006FAF14E7D9F8F830227D43F00403DCE7EA
:10402800D9F8642192453FF409AFD8F87C0F04A968
:1040380041F0F6FC002849D050469DF81220012195
:104048004BF0FCFF8246C9F8640188F8820F6BE7E1
:10405800D9F8F830227D43F00803BEE7D9F8F830E4
:10406800227D43F01003B8E7D9F8F830227D43F0F9
:104078002003B2E7D9F8F820C9F874A142F0400249
:10408800C9F8F82050E7D9F8782192453FF4D6AE20
:10409800D8F87C0F04A941F0C3FCB8B150460522FA
:1040A80001214BF0CBFF8246C9F8780188F8800FD0
:1040B8003AE7D9F87C2192453FF4C0AED8F87C0F96
:1040C80004A941F0ADFC002840F0EC802860B6E679
:1040D800BAF1000F7FF407AF00287FF404AF28601F
:1040E800ADE600BFCC3A002035FA8E3C0080FFFFD9
:1040F80000000010BAEB000A18BF4FF0010A13E7DE
:10410800BAF1000F3FF4EFAE00283FF4ECAE95E6AD
:10411800BAFA8AFA4FEA5A1A06E7BAF1000F7FF498
:10412800E2AE002840F0BB80D5F800A0FCE6504481
:10413800624947F6FF724BF081FF8246F4E6AAEB2C
:1041480000005E4947F6FF724BF078FF8246EBE6C7
:1041580040F234529245CCBF4FF0000A4FF0010AAA
:10416800E2E6AAF23550B0F5A77F2CBF4FF0000A5F
:104178004FF0010AD8E640F282629245D4BF4FF070
:10418800000A4FF0010ACFE68245D4BF4FF0000A7B
:104198004FF0010AC8E68245ACBF4FF0000A4FF065
:1041A800010AC1E650465A4600214BF047FF4FF43A
:1041B8007A71002300915A4619464BF01DFF82463A
:1041C800B2E650464FF47A7200214BF037FF0023D5
:1041D800CDF800B019464FF47A724BF00DFF8246C5
:1041E800A2E6D9F8F820C9F880A142F08002C9F8FF
:1041F800F82099E607EE90AAB8EEE70A002820EE24
:10420800080A08BF4FF4FA7B4CF082F807EE90BA20
:10421800F8EEE77A27EE800AFDEEC07A17EE90AA4C
:1042280082E607EE90AAB8EEE70A002820EE080A10
:1042380008BF4FF4FA7B4BF0F1FFE7E707EE90AACF
:10424800F8EEE78A002868EE888A08BF4FF4FA7B00
:10425800B0EE680A4CF05CF8F0EE407AB0EE680A0E
:10426800F0EE678A4BF0DAFFC8EE807A07EE10BAF4
:10427800B8EEC77A67EE877AFDEEE77A17EE90AA6E
:1042880052E6AAEB000ABAFA8AFA4FEA5A1A4BE639
:104298005AEA00033FF427AED0E5DA4644E6C5F80B
:1042A80000A0CCE55046082201214BF0C7FE82460B
:1042B800C9F87C0188F8810F36E600BF0080FFFF4F
:1042C800164991F8B82C32B3F0B4064600200346DC
:1042D800074602E092F8B82CDAB100EB80002E2AEB
:1042E8004FEA400004D10133CA18324482F8B87C3E
:1042F800CA18A0F1300592F8B82CA2F13004092CA4
:1043080098BF50190E2B03F1010301EB0302E1D909
:104318000020F0BC70470020704700BF581E0020E6
:1043280070B5164ED6F8943F1A791E3A012A0546FA
:1043380005D91846002141F015FDD6F8943F002D07
:104348000ADD0F4C254414F8011B184641F00AFDFC
:10435800A542D6F8943FF6D11846002141F002FD57
:104368000849B6F8C03FD1F8201B074AC6F8B81F5D
:1043780001330021A6F8C03F516070BD502F0020C6
:10438800E83E0020581E0020083F002010B50A4CC7
:1043980004F6F80009F09AFCD4F80439C01A4BF076
:1043A80071FE0028B8BF404242F210739842D4BF51
:1043B8000020012010BD00BF502F0020036813F01B
:1043C800400004D013F4057F14BF0120002070477B
:1043D8002DE9F04D234B244C03F1280884B0C4F890
:1043E800D43B07460E461546C4F8D88BFEF710FC9A
:1043F800122384F8A83B1D4AC4F8C82B04F6A83336
:10440800402042F6F82A4FF0000BC3E902AB28F02F
:10441800A1F80446F8B1FFF7D1FF3A783678034699
:1044280094F9040000951C1E14BF03210121002AE1
:104438000CBF07220622012E0CBF082300231A43B3
:10444800CDE9011243460A4A402127F08BFE2CB9D8
:10445800003818BF012004B0BDE8F08D054B43F8C3
:10446800C00CF5E7203F0020581E00205125020807
:10447800A13A0208484000200348044A00F62B41AC
:1044880000F62A40A4E700BF581E0020400D030094
:104498000348044A00F62B4100F62A4098E700BF7B
:1044A800581E0020A086010008490138002310F892
:1044B800012F222A04D001330F2B01F8012FF6D146
:1044C800034A1344002283F8462070479D1E0020AB
:1044D800581E002010B5084C82B0022344F8BC3C9A
:1044E80001904FF083FB0199C2B254F8B80C02B0A6
:1044F800BDE8104041F014BC484000202A49002380
:10450800421E01F8B43C043012F8013F33B3413B7A
:10451800332B21D8DFE803F01A202020203E352055
:104528002020202C20202020202020232020202074
:1045380020202020202020201A202020203E352046
:104548002020202C202020202020202311F8B43CDB
:1045580043F0080301F8B43C8242D5D1704711F802
:10456800B43C824243F0010301F8B43CCCD1F5E7F6
:1045780011F8B43C824243F0100301F8B43CC3D1B3
:10458800ECE711F8B43C824243F0040301F8B43C70
:10459800BAD1E3E711F8B43C824243F0020301F8D0
:1045A800B43CB1D1DAE700BF4840002070B5C54C33
:1045B80054F8B06C84B02EB13046FFF7FFFE0028E7
:1045C80040F0708114F8A40CFBF754FF14F8AC3CCD
:1045D800834205461CD0002800F08081C6B1BA4B42
:1045E80096F9040093F82D20B2FA82F252094FF49A
:1045F800165100230225CDE9015200911A460421E3
:1046080027F0B0FD44F8A80C10B1012304F8AC3C25
:1046180014F8A30CFBF72EFF14F8A23C83420546BE
:104628001ED0002800F01A8154F8A03CC3B1A64A55
:1046380093F9040092F83420002A18BF08224FF496
:10464800964100230325CDE9015200911A4608211D
:1046580027F088FD44F89C0C10B1012304F8A23C13
:10466800FCF718F854F8985C2DB12846FFF7A6FE19
:10467800002840F0FC8014F8880CFBF7FBFE14F8C7
:10468800943C8342064632D0002800F030818E4B9D
:1046980093F83730012B00F03981022B0CBF8B4A7D
:1046A8008B4A44F88C2C15B32A7A002A00F02B8107
:1046B800022A00F02F81012A40F03A81834B44F806
:1046C8008C3C4FF4966395F9040000930025022171
:1046D800019102952B462A46102127F043FD44F804
:1046E800900C20B1012304F8875C04F8943C14F87A
:1046F800860CFBF7BFFE14F8853C8342054635D08F
:10470800002800F0A28054F8843CCBB11A7A002A21
:1047180000F0F6806F4901EB8202D26993F9040038
:10472800009200230321019102931A464FF48071ED
:1047380027F018FD44F8800C10B1012304F8853CDB
:10474800614A654BB2F85E1092F8605092F86100C9
:10475800A3F8361792F8621092F8632083F83A5754
:1047680083F83E0783F83F1783F8402714F87C0C3A
:10477800FBF780FE14F87B3C8342054627D058B3EC
:104788004FF4FA70FEF7AAF954F8783CFBB11A68AE
:1047980002F41072B2F5107F19D093F904000321C6
:1047A8004FF4E13200230825CDE9011500924FF4BA
:1047B80000711A4627F0D6FC44F8700C38B142490B
:1047C80001220023086204F87B2C04F8743C14F8D6
:1047D8006C5C6DB104B070BD54F8700C27F0A6FC89
:1047E80044F8705C04F87B5C14F86C5C002DF1D123
:1047F80054F8683C002BEDD0032293F90400CDE96E
:1048080001251A7A334B03EB82034FF40021DB694D
:1048180000932A462B4627F0A5FC44F8B80C00283C
:10482800D8D0294844F8605CD0F8203B04F85C5C98
:1048380003F51C5310333A3044F8643CFFF75EFE2E
:10484800012304F86C3C04B070BD54F8800C27F0C8
:104858006DFC44F8805C04F8855C87E754F89C0C90
:1048680027F064FC44F89C5C04F8A25CF8E614F8B1
:10487800943C002B7FF43BAF54F8C03C002B3FF432
:1048880036AF114A44F8903C92F83730012B48D0A3
:10489800022B0CBF0D4B0E4B44F88C3C012304F843
:1048A800943C24E714F8AC3C002B7FF4B1AE54F8E8
:1048B800C03C002B3FF4ACAE012244F8A83C04F8FD
:1048C800AC2CA5E648400020581E00201C070020FC
:1048D8002807002020B005080000002054F8A80C84
:1048E80027F024FC44F8A85C04F8AC5C90E654F883
:1048F800900C27F01BFC44F8906C04F8946CF6E6D6
:104908004FF461420AE74FF49643DCE60B4A44F859
:104918008C2CC8E64BB9094B44F88C3C4FF4166311
:10492800D1E6064B44F88C3CB8E74FF41663CAE668
:10493800034B03EB8202D369C5E600BF10070020D2
:1049480020B0050870B5254C064604F146004FF026
:104958004DF994F846502B2D38D0302D27D0382DCE
:104968002ED01F49002301E011F8015F0C464DB31A
:104978000133102BF8D1324606F11005134612F810
:10498800011B222926D0AA42F8D1002820DDC0F137
:1049980001001918621C013301E08B4218D013F88A
:1049A800014D12F8010D8442F7D0002070BD94F833
:1049B8004720A2F13101012903460DD9362A0BD02F
:1049C8000138CEE7002BF0D04C1ED4E70538C8E7F5
:1049D800012070BD013BD8E7981EC2E7581E002091
:1049E8009E1E00202DE9F04F2DED028B87B08846E2
:1049F80000AF164620B10378303B012B40F284818A
:104A0800DFF83093DFEDC48A9FEDC48A98F8003050
:104A1800002B3CD036B1C24B3268D3F8203B9A42C7
:104A280040F2B983BF4C14F85B5C002D40F0B882AB
:104A380014F8580CBC4B03EB4003B3F8603063BB6D
:104A4800012304F8583CB94BDA6811061DD59A6859
:104A5800920740F17D83B24AB2F8FC3112684FF4F4
:104A6800F36113FB01F389FB0301DB17C3EB61134C
:104A780010203021C7F81330082338747974BB74B8
:104A880038180024904788F80040002EBED11C3703
:104A9800BD46BDEC028BBDE8F08F0130C0B2B3F566
:104AA8008A6F04F8580C00F0848127D8B3F5806F1A
:104AB80000F025826AD9B3F5866F00F005824ED9D9
:104AC800B3F5886FE1D1DFF858A29AF83130002B9E
:104AD800DBD0964ADAF80030B2F99C21C7F81320E7
:104AE80010204021042238747974BA7438180024CC
:104AF800984788F80040002E88D1C8E7B3F5006FC2
:104B080000F0328140F28780B3F5046F00F0148121
:104B18006BD9B3F5116F00F01682B3F5206FB4D1DD
:104B2800824BD3F898319A06AFD554ED077A7C4B6F
:104B380067EEA87A1B68FCEEE77A102117EE902A38
:104B48000024C7F813200A2239747C74BA747818C0
:104B5800984788F80040002E7FF458AF97E7B3F5E0
:104B6800826F00F0DF81B3F5846F8ED16F4BDA6806
:104B780012068AD59A68950740F1C582226C684B5F
:104B8800C7F8132010202021042242E0B3F5007F4B
:104B980000F0768169D9B3F5047F7FF476AF634B73
:104BA800DB689D077FF571AFDFF874A19AF83230A2
:104BB800002B40F0B08214F84A3C012B0CBF34F8AB
:104BC8003C3C34F83A3CC7F8133010220221DAF89A
:104BD80000303A747A74B974B8180024984788F881
:104BE8000040002E7FF412AF51E7B3F5026F5ED19B
:104BF8004E4BDA6811067FF548AF9A68920740F184
:104C08009A82474BD3F8EC21C7F8132010202021B3
:104C180008221B6867E7B3F5E26F00F014814ED9EC
:104C2800B3F5E46F7FF431AFDFF8F4A09AF83130D0
:104C3800002B7FF42AAF3D4B93ED310A20EE080A92
:104C480052F038FC102420210722C7F813003C74C6
:104C58003819DAF800307974BA740024984788F85B
:104C68000040002E7FF4D2AE11E7B3F5807F00F04C
:104C7800C280B3F5887F7FF408AF2C4BD3F8983106
:104C88005B077FF502AF2A4B13F83B1C03F5247230
:104C980003F51E73002918BF134693ED050A52F059
:104CA80009FC1F4AC7F813001023012162E1B3F57C
:104CB800036F3FF4C8AE002E7FF4A8AEE7E6B3F565
:104CC800C06F00F08780B3F5E06F7FF4DEAE144D5F
:104CD80095F83140002C7FF4D8AE144B93ED2F0A91
:104CE80020EE080A52F0E6FB102107222B68C7F8CD
:104CF80013007C743974BA747818984788F800409F
:104D0800002E7FF483AEC2E601300621FBF786FD54
:104D1800044B03F85B0C73E6B80C473E0000C8422E
:104D2800581E00204840002020B005080000001050
:104D3800502F00201F85EB51954B964AB3F9A031AF
:104D4800126803EB83035B001020C7F8133040217F
:104D5800082338747974BB743818904788F8005061
:104D6800002E7FF453AE92E6894BDA6815067FF57C
:104D78008CAE9A68940740F10982C30700F1F2816A
:104D8800DFF810A2DAF8E42182EAE273A3EBE27317
:104D980003EB5303A9FB0313DB08002AB8BF43F056
:104DA8008043C7F813301021DAF8003000240822B5
:104DB800CAE6774BDA6815067FF567AE9A689407F6
:104DC80040F1CB81734BB3F9FE21C7F813201020B3
:104DD8005021D9E6DFF8BCA19AF83530002B40F015
:104DE8005E8122F0B7FB0024DAF80030C7F8130020
:104DF80010210622A8E6664BD3F8983159077FF5AB
:104E080044AE654B634A13F83B0C116803F52472F2
:104E180003F51E73002818BF1346D3ED027AFCEE83
:104E2800E77A102217EE903A0024C7F813300123CE
:104E38003A747C74BB74B818884788F80040002E10
:104E48007FF4E4AD23E6534D95F83140002C7FF410
:104E58001CAE4F4B93ED300A20EE080A52F02AFBA5
:104E680010230721C7F813002A683B747B74B974B0
:104E7800F818904788F80040002E7FF4C7AD06E682
:104E8800434BDB6818057FF500AE14F84C3C002B4B
:104E98003FF4FBAD3F49414AB1F9B6337D7482FB1B
:104EA8000302DB17C3EBA2031BB210240220B87461
:104EB8000A68C7F813303C743819904788F80050CE
:104EC800002E7FF4A3ADE2E5324B93F83120002A9F
:104ED8003FF4DBAD2E4A1B68B2F99E21C7F81320B8
:104EE800102230213A7404227974BA7407F1100040
:104EF800984788F80050002E7FF488ADC7E5FBF787
:104F080065FA244BC7F81300102104221B687D742E
:104F18003974BA747818984788F80050002E7FF4CE
:104F280075ADB4E51A4BDA6815067FF5AEAD9A682B
:104F3800940740F10881FBF72FFC164AC7F81300C5
:104F48001023042116E0124BDB6899077FF59DAD0D
:104F580014F8573C4BB114F84A2C012A0CBF34F80A
:104F68003C2C34F83A2CB2FBF3F30A4AC7F8133056
:104F78000921102312683B747B74B974F818002453
:104F8800904788F80040002E7FF440AD7FE500BFD1
:104F980000000010581E0020502F0020676666662B
:104FA800DFF83CA207F108033B61DAF81C9007F12F
:104FB8000E037B61D9F80020DAF814309A426E4665
:104FC80014F85A3C00F0828007F109023A615A1C31
:104FD80004F85A2C03F00F030522D9F804B03B72E9
:104FE80094461346D9F80010ABEB010BD01D5FFABD
:104FF8008BFB20F00700DC45ADEB000D40F2D480C0
:105008005A46684655F074FDD9F800305B44C9F833
:1050180000305A46694607F110004AF02BF9DAF8D1
:105028001C20DAF81430D9F80000117AC9F8040005
:10503800C21A4A40D2B28342C9F8003004F8592C47
:105048000AD00133C9F8003013F8011C984282EAEB
:105058000102F6D104F8592C3B69591C39611A70C0
:10506800D7E90432D21A012A08DD00215A1C3A6114
:105078001970D7E90432D21A012AF7DC07F10800BF
:10508800FBF7E4F8002500231C37B54604F85B5C01
:1050980088F80030BD46BDEC028BBDE8F08F4F4A62
:1050A800D26812057FF5F1AC14F84C2C002A3FF4B5
:1050B800ECAC012B00F08F8054F8383CC7F8133063
:1050C8001021DAF80030002406223DE5B9F90C2059
:1050D800591C03F00F0343F01003002AB8BF43F034
:1050E800200307F109023A613B72D9E9003B042227
:1050F800ABEB030304F85A1C07F10A017B72396110
:10510800134694466EE71B6818077FF537AD002EE7
:105118007FF47CACBBE414F8573C002B3FF453AD50
:1051280014F84A2C012A0CBF34F83C2C34F83A2CD9
:10513800B2FBF3F347E51B681B077FF562AD002E52
:105148007FF464ACA3E41B6818077FF5F4AE9CE415
:105158001B681B077FF57FAC97E41B6818077FF572
:1051680031AE92E4DFF878A0DAF8E82182EAE27357
:10517800A3EBE27303EB5303A9FB0313DB08002A39
:10518800ACBF43F0004343F040430AE61B681907ED
:105198007FF5F3AD79E400231C3788F80030BD466D
:1051A800BDEC028BBDE8F08F6846C7E9003255F0C8
:1051B8009FFCD9F800107A683B681144C9F80010C0
:1051C80007F110001A4669464AF054F807F108003A
:1051D800FBF73CF857E7DAF8B8336FE70000001040
:1051E800581E00202DE9F041DFF8208198F8713130
:1051F800012B82B002D002B0BDE8F081D8F80400DB
:105208000028F8D0D8F8203B3E4C3F4E013300250B
:10521800019304F144078DF803500AE01B2B84F82E
:105228004C5048D00D2B5CD0012386F84137D8F874
:10523800040003685B689847002849D0002D47D1CF
:10524800D8F804000368DB68984783B27E2B4BD0FC
:1052580096F84127002AEAD194F84C20002ADDD19B
:105268007D2B4BD094F850202AB180F02003D8B27F
:1052780084F85050034694F84B20062A0BD8B4F80B
:105288004EC0A11863440132A4F84E3081F844009E
:1052980084F84B20CBE7B4F84E201344C3F307221D
:1052A80052FA83F30122A4F84E30FF2B08BF3D4683
:1052B80086F84127BBE7D8F8040003685B6898477D
:1052C8000028B1D101238DF8033086F84137AEE7C5
:1052D800284601AA0DF10301FFF784FB02B0BDE8DF
:1052E800F081A4F84E50A2E701238DF8035084F80A
:1052F8004B5086F8415784F84C3098E7012384F8DE
:10530800503094E74840002000000020581E00203C
:10531800054B93F871210AB10020704702221860EA
:1053280083F8712101207047581E0020F0B5214CE8
:10533800214DC4F8D45B85B0FDF76AFC12231F49E0
:105348001F4A84F8A83B42F6F82604F6A83300273B
:105358004020C3E90267C4F8C81BC4F8CC2B27F067
:10536800F9F820B394F82B3C94F82A1C90F904001F
:10537800144A022B14BF08230023002908BF43F056
:10538800010303244FF4E131CDE9014300910023E7
:10539800402126F0E7FE543DA867014620B10A489F
:1053A800FFF7B6FF85F87C00081E18BF012005B07E
:1053B800F0BD00BF581E00209C400020013C0208A0
:1053C80055470208793F0208F92D020810B50C4C20
:1053D80094F871310BB1002010BD202027F0BAF8E5
:1053E800C4F8740150B1202127F0AAF8054B84F8BD
:1053F80072010120236084F8710110BD012010BDE5
:10540800581E00207D02000870B5104E96F8835093
:10541800C2B0AC1D224606F18201684655F068FB11
:10542800B6F880300DF804300DEB040208351B0A7D
:105438006C465370254414F8011B56F8800C40F054
:1054480091FCAC42F7D142B070BD00BF484000208B
:105458002DE9F04FD24CD34FDFF8608393B004F5B9
:10546800347654F8800C40F057FC002800F08C800B
:1054780054F8800C40F048FC94F89331002205461B
:1054880084F890210A2B00F2FE87DFE813F0BF00B2
:10549800BF009901700157013E0122010101DD00A1
:1054A80080008000022D2A46BF4928BF022200251D
:1054B80002A8ADF8085055F01BFB9DF80830012BE9
:1054C80040F03E82B94A94F8C50192F9F55894F82B
:1054D800C61194F89621ADF820508DF822008DF869
:1054E8002310B34D089E84F88530511C40F2FE40CD
:1054F80042F6FA4384F8842084F89611A4F88200CE
:10550800C4F88860291DA4F8863004224FF6FF707D
:1055180001E015F8012B424082EA0212D2B21309C7
:1055280083EA102343EA0223A94283EAC200F0D1A6
:10553800A04DA4F88000291D15F8012B82EA00036C
:1055480083EA0312D2B2130983EA102383EA0223FF
:1055580083EAC20398B28D42A4F880001BB2EBD153
:1055680083F0DD0282EA0212D2B2130983EA102321
:1055780083EA022383EAC2031BB2A4F88030A4F8AA
:105588008C30FFF741FF012013B0BDE8F08F0A2BE4
:1055980006D0B4F8D02283B2B3EB122F00F02981E1
:1055A80094F894A1844804EB0A094FF488723146B0
:1055B80089F8D95255F09CFA99F8D91299F8D82255
:1055C80094F8953194F8920194F8D3C2B4F898E11C
:1055D80084F814A742EA012201330121A4F8C0216A
:1055E800FE2D4FF0000284F8153784F8C3C184F803
:1055F800131784F89211A4F81A07A4F818E784F886
:10560800902100F0A18184F893112AE7FE2800F088
:10561800048394F8D35294F8941194F8952194F84B
:1056280092C1B4F898E184F8C3510132002084F89B
:10563800133784F8141784F81527A4F818E7A4F882
:105648001AC784F892010CE794F8D702B4F8D0C2CC
:1056580094F89411384490F88C3083EA0C0383EA68
:105668000313DBB21A0982EA1C2242EA032282EA05
:10567800C3036218D8B2A4F8D032854214BF0A23F3
:10568800092382F8D85294F8D35284F89331C4E7A6
:1056980094F894116218013182F8D802B4F8D0C293
:1056A80094F8D35280EA0C0080EA0010C0B20209D4
:1056B80082EA1C22C9B242EA002282EAC000A94258
:1056C80084F89411A4F8D002A7D1082384F8933160
:1056D800A3E7B4F8D02284F8D702504080EA00103B
:1056E800C0B2030983EA122343EA002394F8D35291
:1056F80083EAC000A4F8D002002D40F02F810823CF
:1057080094F8941184F8933187E7B4F8D02294F888
:10571800941184F8D602554085EA0515EDB22B0997
:1057280083EA122343EA052383EAC5050623A4F87E
:10573800D05284F8933194F8D3526EE7B4F8D0225B
:1057480094F8941184F8D402554085EA0515EDB211
:105758002B0983EA122343EA052383EAC5050323B9
:10576800A4F8D05284F8933194F8D35255E7B4F89A
:10577800D02294F8941184F8D502554085EA05158D
:10578800EDB22B0983EA122343EA052383EAC50510
:105798000523A4F8D05284F8933194F8D3523CE707
:1057A8004840002020B0050810420020502F00205B
:1057B800CC400020D040002008420020FFFFFE001F
:1057C800B4F8D01284F8D30280EA010383EA031301
:1057D800DBB21A0982EA112242EA032282EAC302F0
:1057E80000210423A4F8D02284F8941184F893317A
:1057F80013E794F89491CB4804EB0902012382F84B
:10580800D95231464FF4887284F8903184F8933134
:1058180055F06EF9B4F8983194F8D42284F89521AB
:105828000BB9A4F89A3101339BB20132A4F898312C
:10583800A4F8183794F8C71194F8D35284F81527A8
:10584800012394F8922184F81337002384F81497DD
:1058580084F8C351A4F81A2784F892312D296FD8F7
:1058680001A353F821F000BF6B5400084959000800
:105878004959000849590008495900084959000878
:105888004959000849590008495900084959000868
:105898004959000849590008495900084959000858
:1058A8004959000849590008495900084959000848
:1058B8004959000849590008495900084959000838
:1058C8004959000849590008495900084959000828
:1058D8004959000849590008495900084959000818
:1058E8004959000849590008495900084959000808
:1058F80049590008495900084959000849590008F8
:1059080049590008415B000829590008495900080D
:1059180049590008AD5400085D5A0008715900083B
:10592800042D2A46804928BF0422002501A8019594
:1059380055F0DEF89DF80680B8F1010F00F0768189
:10594800002013B0BDE8F08F02214FF6FF7384F8F2
:10595800D32284F89311A4F8D03282E5072394F86F
:10596800941184F8933158E6022D2A466E4928BFCF
:105978000222002502A8ADF8085055F0B9F89DF8A4
:105988000860012EDCD108F07BF894F8C62194F861
:10599800C5318DF822508DF820308DF82120089AD5
:1059A80094F89631614D84F88560591C160C40F2C4
:1059B800FE30A4F8882042F6FA7284F89611A4F80A
:1059C8008200A4F8862084F88A6084F88430291D2F
:1059D80003224FF6FF7001E015F8012B424082EADE
:1059E8000212D2B2130983EA102343EA0223A9421E
:1059F80083EAC200F0D14E4DA4F88000E91C15F8E6
:105A0800013B434083EA0312D2B2130983EA10230D
:105A180083EA022383EAC20398B28D42A4F8800085
:105A28001BB2ECD183F0990282EA0212D2B21309B6
:105A380083EA102383EA022383EAC20293B2190A93
:105A480084F88B20A4F8803084F88C10FFF7DCFCF5
:105A5800012099E5042D2A46334928BF0422002550
:105A680002A8029555F044F89DF80A30012B7FF4FE
:105A780067AFBDF808203C2A40F28C812D4A126895
:105A8800510740F1B28294F8C61194F8C5218DF8F7
:105A980022308DF820208DF82110089994F896214D
:105AA800224D84F885300B0C561C40F2FE3084F8E9
:105AB8008A3042F6FA73A4F8881084F88420A4F88F
:105AC800820084F89661291DA4F8863003224FF6D7
