:020000040800F2
:100000000000011075760408253F0408C1EB0208C2
:100010001577040815770408157704080000000018
:10002000000000000000000000000000313F040854
:100030002D3F040800000000293F04085DD3030899
:100040001577040815770408157704081577040850
:10005000157704081577040855E4030865E40308D8
:100060001577040861E403085DE40308ED5404080F
:10007000DD540408CD540408BD540408A9540408F0
:10008000955404088154040815770408157704086A
:1000900015770408157704081577040859E4030850
:1000A00011560408ED550408C955040835560408CE
:1000B000B9550408A5550408915504081577040896
:1000C00015770408157704081577040815770408D0
:1000D00015770408555A0408495A04083D5A04087B
:1000E00051E4030815770408916304084555040892
:1000F00021550408FD540408695504086D5404088A
:1001000015770408157704087D5504081577040849
:10011000315A0408255A040815770408157704088D
:100120005954040845540408315404081D54040863
:10013000095404081577040815770408157704088E
:100140001577040815770408157704087D46040818
:10015000F5530408E1530408CD530408195A040860
:10016000157704081577040815770408157704082F
:10017000157704081577040815770408157704081F
:08018000157704081577040847
:10018800F0B40D6800240CE0BCF1050F18D8A0F1FC
:1001980037030A2B14D104EB840415F8010B03EB85
:1001A8004404A0F13003DEB2092EA0F16107A0F1EA
:1001B800410CF0D9052FE7D8A0F157030A2BEAD054
:1001C8000D601460F0BC704700B583B00268074B3F
:1001D8008188CDF8012032221B68ADF805108DF812
:1001E80000206846984703B05DF804FB601D0020B6
:1001F800204B2DE9F0415D68064600F10708002410
:1002080006E01B68394698473C444645A4B215D0D9
:1002180016F8017BA7F17D03012B28462B684FF0C8
:100228007D01EED81B6898472B6887F020011B6872
:1002380028469847E8E7E3B203EB1424FF2CFAD8E2
:10024800C4F1FF04E4B2A4F17D03012B2B6805D9A6
:10025800214628461B68BDE8F041184728461B6818
:100268007D2198472B6884F0200128461B68BDE84B
:10027800F0411847601D00200A4AD36930B41C6851
:1002880055695D6019810025611C19609D81207088
:10029800D36951691A685A604FF6F67230BC196012
:1002A8009A817047601D0020F8B5CE1E0F4606449F
:1002B8000239421E04464FF6FF7312F8015F5B1BBA
:1002C800B2429BB2F9D1C5194354064E1B0A05F830
:1002D800013C14F8011B306A3DF0EAF8A542F8D158
:1002E800F8B2F8BD601D002010B582B00B4660F072
:1002F8005F001A0E08211C14ADF802308DF80100B9
:10030800002368468DF804408DF805208DF800100C
:10031800ADF80630FFF7C8FF02B010BD30B50622B1
:1003280083B060F05F030D460024114668468DF8DF
:100338000130ADF802508DF80020ADF80440FFF709
:10034800B3FF03B030BD00BF284A116821F07043E5
:1003580023F07F03002B0CBF012002204B075368BA
:1003680048BF0430D90744BF0A3080B29A0744BF57
:10037800143080B2D90544BF283080B25A0744BF30
:10038800643080B2190744BFC83080B29A0644BFAF
:1003980000F5C87080B2D90644BF00F57A7080B203
:1003A800DA040FD500F5FA5080B2990403D500F5A8
:1003B8001C50103080B29A050AD5A0F5C7404038C5
:1003C80080B2704719050AD500F5FA6080B2ECE7EB
:1003D8005B0503D500F59C40203080B270475A0673
:1003E80044BF00F57A6080B2DFE700BF000000106C
:1003F800022805D0A0F10100B0FA80F0400970474A
:10040800054B93F82C3023B9044B1868C0F38000CF
:100418007047102027F028BA601D00200000001047
:10042800014B93F864007047601D0020F0B4424D02
:10043800424BAB66C823013885F86C3005F16D0274
:1004480005F1A7014D2428E0DCB25BB2002B34DBB8
:100458006300DCB25BB2002B36DB6400E3B264B24B
:10046800002C38DB5C00E3B264B2002C3ADB5C00A1
:10047800E3B264B2002C3CDB5C00E3B264B2002C53
:100488003EDB5C00E3B264B2002C4FEA4303B8BF22
:1004980083F0D5038A42DCB238D010F8013F02F865
:1004A800013B634013F0800F4FEA4303CCD083F045
:1004B800D50463B2002BE4B2CADA640084F0D50430
:1004C80063B2002BE4B2C8DA630083F0D5035CB2F0
:1004D800002CDBB2C6DA5B0083F0D5035CB2002CDB
:1004E800DBB2C4DA5B0083F0D5035CB2002CDBB26C
:1004F800C2DA5B0083F0D5035CB2002CDBB2C0DA51
:100508005B0083F0D5035CB2DBB2BDE70C4E85F827
:10051800A740A6F144070FCF0FC60FCF0FC60FCFC6
:100528000FC697E80F00402785F8A84086E80F0017
:1005380085F8EC70F0BC7047601D0020C83E7BEA6F
:100548000C1E00200020704710B5144BD3F8F03073
:1005580093F88830012B14D0022B09D1104BB3F932
:100568000C3013F1FA0F0FDA0E4B01241C7000E067
:100578000124282027F078F908B1644264B22046A3
:1005880010BD4FF0FF34F4E7FA2B064BC9BFFF222A
:1005980093F900401A704FF0FF34EAE7601D00201D
:1005A800000000100000002038B504460D460A4639
:1005B8000068FF214CF07DFD21682944216038BD89
:1005C800026810B57F21541C046011700268002471
:1005D800511C01600E211470FFF7E6FF012010BDC9
:1005E80030B53B4C94F8F430012B85B001D005B000
:1005F80030BD94F8F500022826D0A0F10100B0FA29
:1006080080F0400948B36368002BF0D1D4F8F82093
:10061800002AECD094F8345094F82D1092F9040084
:10062800002D14BF08220022002908BF42F0010251
:1006380003254FF46141CDE9015200911A4620216A
:100648001FF0CAF96060D2E794F82C303BBB214B0D
:100658001868C0F380000028D5D16268002AC6D087
:10066800D4F8003193421FD0D4F80C319A4224D0E8
:10067800D4F818319A4216D0D4F824319A421ED0B0
:10068800D4F830319A421CD0D4F83C319A421AD06E
:10069800D4F848319A4218D000236360A7E71020A5
:1006A80027F0E2F8AEE7022000EB4000002104EB5F
:1006B8008003D162C3E94011EEE70120F4E703208B
:1006C800F2E70420F0E70520EEE70620ECE700BF9C
:1006D800601D00200000001070B51D4E1D4D96F8DD
:1006E80058016322002140F0D3FFB6F87C3104465C
:1006F8001948333B80FB0320DB17C3EB201009228A
:10070800002140F0C5FF2A69C0F10903642000FBFD
:100718000344A4B2910744BF04F57A74A4B22B68C9
:10072800D20744BF04F5FA64A4B25B0701D420469B
:1007380070BD152027F098F80028F8D06B6813F4DE
:10074800016F04BF04F57A64A4B2204670BD00BFEF
:10075800601D0020000000101F85EB5110B5044CEF
:10076800236943F08003236123F0F6FDE08110BD87
:100778000000001038B5074CB4F8E85123F0ECFD40
:10078800854204DD044BB4F8E821DA8138BDBDE8C0
:100798003840E3E7601D00200000001008B5FFF7AF
:1007A800E9FF002008BD00BF70B5214D95F8FE3166
:1007B800EA181C4692F800228AB11E4E09225C1CD7
:1007C800A6FB04135B0803EBC303E31AE918DCB2C6
:1007D80091F8001209B1013AF1D185F8FE41026899
:1007E8001549561C06600C2616700268561C0660D1
:1007F800002616700268561C066003EB430603EBDE
:100808008603147019440D2240F096FB95F8FE11EA
:10081800084B4A1CA3FB02035B08294403EBC303F0
:100828000120D31A81F8000285F8FE3170BD00BF9F
:10083800601D0020398EE3386C1F00202DE9F04739
:10084800734C82B0E269D2E900239B1A002B00AFF7
:1008580040F39D80002384F894326E4B236103F1AA
:100868008002A3F11406C4E9A133C4E9052603F5FF
:10087800C075E561C4F81824C4F81C240025421882
:1008880000F10109C4E9029203785909012940F0ED
:10089800858003F00F0813F0100310D1002D00F02D
:1008A800968094F82914013101F00F0141457ED05A
:1008B8001846083784F89432BD46BDE8F087831C93
:1008C800A360C31C4278D4F810A0A3608078C6F84F
:1008D80000A00AEB02037360424084F82824D4E99C
:1008E8000292002584F894123081B581A2EB0902A6
:1008F800D5B2A3EB0A0A5FFA8AFAEB1D03F4FC737C
:10090800AA45ADEB030D67D25246494668464CF0FE
:10091800E5F909EB0A03524630466946A36040F000
:100928000BFB2369306894F828248342C6E9003019
:1009380009D00133336013F8011C984282EA01029E
:10094800F7D184F82824A3681B78934232D123690D
:10095800E169C6E9003063694B600023A0690B8137
:100968008B813A1D84F894327B6027F005FB0130B7
:1009780046D07B680BB100209847E3696269196823
:1009880001200837C3E90021BD46BDE8F08794F887
:100998009452002D3FF461AFA66970E70021084624
:1009A800FFF76AFC01200837BD46BDE8F087D6E9A5
:1009B80000A39BE70023B6F9081084F894320120BD
:1009C800FFF75AFC01200837BD46BDE8F0872846E6
:1009D8000837BD46BDE8F0872A46494668464CF0C8
:1009E8007DF909EB050330462A466946A36040F0C5
:1009F800A3FA0020083784F82984BD46BDE8F087AB
:100A0800E26913680221581C10601970B1E700BF31
:100A1800601D0020F81F002038B5002024F08AF857
:100A280048B10D4CB4F8E85123F096FC85420BDD33
:100A38000124204638BD044623F08EFCFFF78EFEC5
:100A4800064B5C77204638BD044B94F8F8215A775A
:100A58000224204638BD00BF601D002000000010A1
:100A68002DE9F04F304D314EB5F92A14B5F830C4A0
:100A7800B5F82C7486FB0146CC17C4EBA604A4B2C7
:100A8800A44583B016469A464BD1B5F83234BB42DA
:100A980005F5876B33D003680190591C3422016037
:100AA8001A7003680022591C01601A70214640F030
:100AB80073FA0198394640F06FFA019847F6FF71CA
:100AC80040F06AFA019847F6FF7140F065FA01981C
:100AD80047F6FF7140F060FA019847F6FF7140F061
:100AE8005BFA01980221FFF75FFD0120CBE9006A5C
:100AF800A5F83044A5F8327403B0BDE8F08FD5F8F6
:100B08003834D5F83C14B2EB03086AEB0109084AFB
:100B180000234B4508BF4245BDD3002003B0BDE8C4
:100B2800F08F05F5876BB6E7601D0020676666667F
:100B380080841E00604A536A2DE9F041064613F08E
:100B4800800000F09A80106910F0020000F0958093
:100B58005A4F97F85811052940F29380632900F2FB
:100B68008E800024DFF860C189B22546ACFB0132D3
:100B7800D20802EB8203A1EB4303E0B28E469BB29C
:100B880080008340BEF1090F91B245EA030504F1E4
:100B98000104EBD8EDB2D7F86431494A82FB03125D
:100BA800D917C1EB623189B2002900F082804FF079
:100BB800000CDFF814E16446AEFB0132D20802EB08
:100BC8008203A1EB43035FFA8CF088469BB2800056
:100BD8008340B8F1090F91B244EA03040CF1010C07
:100BE800EAD8E4B2B7F8743136494FF4F36213FB2C
:100BF80002F381FB0312D917C1EBA21189B242F2A9
:100C08000F73994240D8C9B10027DFF8BCE0BC4651
:100C1800AEFB0132D20802EB8203A1EB4303F8B228
:100C280088469BB280008340B8F1090F91B24CEA24
:100C3800030C07F10107EBD81FFA8CF13368172270
:100C4800581C30601A7033680022581C30601A70C3
:100C5800304640F0A1F94FF0FF31304640F084F9BA
:100C680033685A1C32601D7033685A1C3260304633
:100C78001C700621FFF798FC0120BDE8F08199253A
:100C880089E70020BDE8F0810020DFF83CC001467C
:100C9800ACFB0372D20802EB8207A3EB47039BB2BB
:100CA80083400430102841EA030193B2F0D189B29D
:100CB800C4E70C4696E700BF00000010601D002046
:100CC80089B5F814D34D6210CDCCCCCC2DE9F04FBA
:100CD800C14A536A804613F0800083B000F06F81E8
:100CE800106910F0020000F06A81DFF80CB39BF87D
:100CF8005831052B40F26881DBF85C31B74D009321
:100D0800002BB8BF5B42A5FB0342B548B549920D1D
:100D180000FB0233C3EB03139B0085FB034502EB87
:100D28008202DC1702EB8202C4EBA55400FB0433F9
:100D380004EB8204A4B281FB0321DB17C3EBA111EE
:100D4800BCB10025A84F2E46A7FB0432D20802EBFF
:100D58008203A4EB4303E8B2A4469BB2800083401D
:100D6800BCF1090F94B246EA030605F10105EBD878
:100D7800340489B2B9B100259B4F2E46A7FB013236
:100D8800D20802EB8203A1EB4303E8B28C469BB284
:100D980080008340BCF1090F91B246EA030605F1D1
:100DA8000105EBD83443DBF860E18C4D8C4E8D495E
:100DB8008EEAEE70A0EBEE70A5FB0032920D06FBFA
:100DC8000200C0EB0010830085FB035002EB820297
:100DD800DD1702EB8202C5EBA05506FB053305EBD8
:100DE8008205ADB281FB0321DB17C3EBA111C5B1AD
:100DF8000020DFF8F4C10646ACFB0532D20802EB4E
:100E08008203A5EB4303C7B2A9469BB2BF00BB4010
:100E1800B9F1090F95B246EA030600F10100EBD8D3
:100E2800350489B2C1B10020DFF8BCC10646ACFB6D
:100E38000132D20802EB8203A1EB4303C7B2894611
:100E48009BB2BF00BB40B9F1090F91B246EA030655
:100E580000F10100EBD83543DBF86431624A0193B5
:100E6800002B1846B8BF5842A2FB00305F4E6049BD
:100E7800030AA6FB0363DB0901FB03F1C1EBD00105
:100E880089B2B9B1002691463746A9FB0132D2088A
:100E980002EB8203A1EB4303F0B28C469BB28000C5
:100EA8008340BCF1090F91B247EA030706F1010636
:100EB800EBD8B9B2BBF87671DFB10026DFF828A10C
:100EC800B446AAFB0732D20802EB8203A7EB43031E
:100ED8005FFA86F938469BB24FEA890903FA09F3A3
:100EE800092897B24CEA030C06F10106E9D81FFA63
:100EF8008CF7BBF87C313C4AA2FB0306F608632E4C
:100F080028BF6326092B63D9002093468146ABFB93
:100F18000632D20802EB8203A6EB43035FFA80FA9B
:100F2800B4469BB24FEA8A0A03FA0AF3BCF1090FE6
:100F380096B249EA030900F10100E8D85FFA89F995
:100F4800009B019A002BCCBF392338231616BEF11B
:100F5800000F26F07F0635DD264A3343964543F0D9
:100F68000206C8BF43F00606D8F800301622581CFF
:100F7800C8F800001A70D8F800300022581CC8F8C9
:100F880000001A70404640F007F8214640463FF0FE
:100F9800EBFF294640463FF0E7FF404639463FF021
:100FA800FBFFD8F800305A1CC8F8002083F80090DE
:100FB800D8F800305A1CC8F8002001201E7003B071
:100FC800BDE8F08F1E43CFE7002003B0BDE8F08FE7
:100FD8004FF00009B4E700BF000000106BCA5F6B58
:100FE800806967FFD34D6210CDCCCCCCC55A7C0A42
:100FF800A0860100FFC99A3B601D002003687E227D
:10100800591C10B501601A7003680022591C016050
:101018001A704FF6FF7104463FF098FF0D4B93F896
:10102800323083B117F0CAFE014620463FF08EFFEA
:10103800204647F6FF713FF089FF20460821FFF759
:10104800B3FA012010BD17F0CFFE014620463FF04D
:101058007DFFEDE7601D002070B504462DED028B85
:1010680000200D4623F066FD002850D02A4ED6E910
:101078000501201A65EB010146F0D2F89FED270A19
:1010880007EE900A27EE800A40F2DC53BCEEC00A55
:1010980010EE102A9A4234D8214CB8EEC08A23F0B8
:1010A8005BF9B4F8E8319FED1F1ADFED1F0A07EE70
:1010B800900A02EE103AF8EEE71AB8EE422AB0EEBD
:1010C800480A40F0B5FA94F8F831DFED171A9FEDA9
:1010D800151AFDEEC07A02EE103A17EE903AB0EE0D
:1010E800480AB8EE422AF0EE610AF38140F0A0FA0D
:1010F800BDEC028BFCEEC07A002017EE903A7377B5
:1011080070BDFFF737FBBDEC028B012070BDBDEC55
:10111800028B042070BD00BF000000106F12833ADC
:10112800601D00200080BB4400000000F0B5334D76
:10113800334FD5E905322DED028BC01A83B061EB30
:10114800020146F06DF89FED2F8AB7F8F06107EEBF
:10115800900A27EE888A26F097FB002848D1BCEE33
:10116800C88A18EE103A9E4204D2012003B0BDECA2
:10117800028BF0BDB5F90E30DFED230A02EE103A0E
:10118800B7F8EA3107EE906AB8EEC88A01EE903AED
:10119800B8EE671AB8EEC22AF8EE611AB0EE480A3D
:1011A80004468DED011A40F043FA97F8F831DFED67
:1011B800160A9DED011A01EE903AB5F90A30FDEED6
:1011C800C07A02EE103A17EE903AF8EE611AB8EECD
:1011D800C22AB0EE480AEB8140F02AFAFCEEC07A47
:1011E800204617EE903A6B7703B0BDEC028BF0BD4A
:1011F800032003B0BDEC028BF0BD00BF000000105F
:10120800601D00206F12833A000000002DE9F041B4
:10121800274E284DD6E90532C01A61EB020145F088
:10122800FFFFDFED257AB5F8EC31B5F8F22107EECE
:10123800100A67EE277AFCEEE77A17EE904A234405
:1012480093422ED8B5F8EE71B5F8EA81A74204D2D8
:10125800A6F80E800120BDE8F08123F07DF8B5F8EE
:10126800E831DFED160A07EE908A9842B8BF1846B3
:10127800B8EE672A07EE907A83B201EE903AB8EE9C
:10128800671A07EE904AF8EE611AB8EEE70A40F0DE
:10129800CFF9BDEEC00A002010EE103AF381BDE888
:1012A800F08126F0F1FA0028CCD00320BDE8F081C7
:1012B80000000010601D00206F12833A000000003B
:1012C80070B504460D46FFF755FA124B124ED3E996
:1012D8000501201A65EB010145F0A2FFDFED0F7A49
:1012E800B6F8F23107EE100A67EE277AFCEEE77AD5
:1012F80017EE904A9C4206D8B6F8EC01A0422CBFE3
:101308000020012070BD26F0BFFA0028F4D0032089
:1013180070BD00BF00000010601D00206F12833AEE
:10132800F8B504462DED048B00200F4623F002FC8F
:10133800002800F08180424D9FED427AD5ED0C7A6D
:10134800414E9FED420A96F8F931F0EEE76AF4EE65
:10135800C76AF1EE10FA46DD07EE103AB8EEC77A22
:10136800D5ED0E6AD5ED0D8A27EE000A86EEA79A0E
:1013780040F042FAB6F8E43107EE903AF8EEE77A30
:10138800B0EE408AF4EEE78AF1EE10FA44DCB6F8E3
:10139800E23107EE903AF8EEE77AF4EEC97AF1EE28
:1013A80010FA41D5F5EEC08AF1EE10FA3CDDFFF7F0
:1013B800E1F9D5E90501201A67EB010145F030FF95
:1013C800DFED237AB6F8E65107EE100A67EE277AC2
:1013D800BDEC048BFCEEE77A17EE903A9D422CBFE9
:1013E80000200120F8BD07EE903AF8EEE77AD5ED37
:1013F8000D8A27EE800A40F0FFF9B6F8E43107EECF
:10140800903AF8EEE77AB0EE408AF4EEE78AF1EE29
:1014180010FA09DD9FED0F9A24F036FAB4EEC80AE7
:10142800F1EE10FAC3DAB2E7FFF7A4F9BDEC048BCA
:101438000020C5E90547F8BDBDEC048B0420F8BDC4
:1014480000000010F366DF3F601D002035FA8E3C77
:101458006F12833A0000000000F01F0240090123C8
:10146800032803FA02F304D0042807D002280AD07C
:101478007047074A116C0B4313647047044A116B99
:101488000B4313637047024A516C0B435364704714
:10149800003802400B68144A30B40568CC682A400A
:1014A8002343D1E9054513432343D1E907242B43BB
:1014B80013434A6A4D6B234313438C6BCA6A2B430D
:1014C800234343F40033036044690B6B0D6924F034
:1014D800070413432343D1E9014243614560846013
:1014E80030BCC260704700BF3F801CF02DE9F04758
:1014F800041E0D4612DB092C26DC824A0B46824864
:10150800A0FB0410C00800EB8000A4EB4000002101
:10151800125C1A7059702846BDE8F08764422D2382
:10152800092C01F8013B24D8764A774BA3FB040326
:10153800DB0803EB8303A4EB43030020D35C487070
:101548000B702846BDE8F0876F4B632CA3FB04267D
:101558004FEAD60621DC6B4A0B466B49A1FB060114
:10156800C90801EB8101A6EB4101515C03F8011B9D
:10157800C5E7654A632CA2FB04364FEAD60637D87E
:10158800604A614BA3FB0603DB0803EB8303A6EB6E
:101598004303D35C01F8013BC7E7A3FB0627B4F577
:1015A8007A7F4FEAD7070DD2564A0B465649A1FB18
:1015B8000701C90801EB8101A7EB4101515C03F860
:1015C800011BCAE7A3FB072842F20F7294424FEAB5
:1015D800D80836D84B4A0B464B49A1FB0801C90825
:1015E80001EB8101A8EB4101515C03F8011BDDE728
:1015F800A2FB0637B4F57A7F4FEAD7070CD2414AE7
:10160800414BA3FB0703DB0803EB8303A7EB43036F
:10161800D35C01F8013BB4E7A2FB073842F20F7331
:101628009C424FEAD80821D8364A374BA3FB080317
:10163800DB0803EB8303A8EB4303D35C01F8013B0E
:10164800DEE7324AA3FB080994424FEAD90921D8B8
:101658002C4A0B462C49A1FB0901C90801EB810161
:10166800A9EB4101515C03F8011BB5E7274BA2FB2D
:1016780008099C424FEAD90921D8224A224BA3FBE8
:101688000903DB0803EB8303A9EB4303D35C01F8ED
:10169800013BCAE71E4AA3FB090394424FEAD30A57
:1016A80021D80B461849174AA1FB0A01C90801EBC2
:1016B8008101AAEB4101515C03F8011BCAE7144BF5
:1016C800A2FB09029C424FEAD20A13D80E4B0D4ADC
:1016D800A3FB0A03DB0803EB8303AAEB4303D35CF6
:1016E80001F8013BCAE70A22BAFBF2F03FF080F9A1
:1016F8000346D7E70A22BAFBF2F03FF079F9014630
:10170800E4E700BF54320508CDCCCCCC9F8601005D
:101718003F420F002DE9F04788B0541C0394147819
:10172800002C00F04A810025074688461E46A94637
:101738000BE0791C02D021463846C047039A013590
:10174800531C03931478002C54D0252CF1D1931CEE
:10175800CDE9033950782D2800F0C4804FF0000AF5
:10176800302800F0A780A0F13003DBB2092B4FF03E
:10177800000440F2AB806C284AD0782834D8572827
:101788003CD9A0F15803202B2ED8DFE813F0FE0037
:101798002D002D002D002D002D002D002D002D00D9
:1017A8002D002D00D500F8002D00BC002D002D00C7
:1017B8002D002D002D002D002D00B7002D002D002F
:1017C8002D002D0021002D00DE002D002D00FE0033
:1017D80056F8042B049BCDE9009242464FF0FF31A6
:1017E80038463FF017FC0544039A531C03931478BA
:1017F800002CAAD1284608B0BDE8F0870028F9D007
:101808002528F1D17B1C99D025213846C04795E77A
:10181800039B5A1C03921978782991D8572967D9BC
:10182800A1F15803202B8BD801A050F823F000BF5A
:10183800AB1900084917000849170008491700089C
:1018480049170008491700084917000849170008F0
:1018580049170008491700084917000841190008E6
:101868006B190008491700080F19000849170008E4
:1018780049170008491700084917000849170008C0
:1018880049170008491700080719000849170008F0
:10189800491700084917000849170008D917000810
:1018A8004917000877190008491700084917000860
:1018B800AB190008039B5A1C03921878A0F1300357
:1018C800DBB2092B4FF001043FF655AF04AA03A978
:1018D800FEF756FCBAF1000F3FF44DAF049B5B4294
:1018E800049348E7D31C039390784FF0010A37E735
:1018F80000293FF47FAF252984D021E7039A56F8C1
:10190800043B1D601CE7073626F00706F6E80201CF
:1019180045F04EFB00EE100A05A83EF0FFFF05ABB0
:10192800CDE900434246049B4FF0FF3138463FF073
:1019380071FB039A054403E77A1C3FF4FFAE56F89F
:10194800041B3846C9B2C047F8E656F8040B05AB85
:1019580000220A213FF0A8F805ABCDE90043049B1B
:101968003BE756F8040B05A93FF05AF8F4E756F898
:10197800040B05AB00220A213FF096F8ECE756F875
:10198800040B05A93FF04CF8E6E7A0F15802B2FABB
:1019980082F256F8040B520905AB10213FF084F887
:1019A800DAE7A1F15802B2FA82F256F8040B5209AA
:1019B80005AB10213FF078F8CEE725461AE700BFBF
:1019C80082B000230193019A0C490D4BD1F84C14B5
:1019D80042F020020192019A60F38A120192019A60
:1019E8000A610A69019203E00A690192013B02D087
:1019F800019A9206F8D4002002B07047601D0020BA
:101A0800400D030010B58021044642F08FFA2046AD
:101A1800002142F08BFA2046BDE8104042F0BABAE5
:101A2800037870B433B30246C0F10105531912F8B4
:101A3800014FDBB2002CF9D101335B00DAB20F4C55
:101A48000B80032384F8342A84F8353A017879B175
:101A5800022300265A1CE51854FA82F285F8341A33
:101A680082F8346A10F8011F0233DBB20029F1D181
:101A780070BC704702221346E1E700BF601D0020DA
:101A88002DE9F04F2DED108B034693B004331193DD
:101A9800DFEDC1AA109002230F928B460E93894660
:101AA800109C4FEADB0504EB451202EB0511A5EB90
:101AB80085034FEAC5084FEA051E05EB850A009124
:101AC80001EBC30308F104000EF104012E46204483
:101AD80005EB450521444FEACA040D9602942C01F2
:101AE800C6EBC60C0394EC000D9D04944FEACC049D
:101AF80005946C010194119D009C03EB46174FEA75
:101B0800CB0A02EBC6064FF0000C55ED011A11ED99
:101B1800012AD6ED005AD7ED004A92ED003AD4EDED
:101B2800003A10ED015A93ED004A72EE238A34EE22
:101B3800248A71EE836A35EE257A36EEA86A77EE46
:101B4800087A35EE655A76EE275A36EE676A45ED1D
:101B5800015A82ED006A90ED00AAD6ED012A93EDB4
:101B6800016AD7ED019A94ED010AD1ED005AD5ED3D
:101B7800007A92ED019A34EE644A76EE690A7AEEBA
:101B8800624A35EEC01A31EEC33A72EE633A34EE69
:101B9800A02A77EEC91A74EEE04A75EE805A75EEFF
:101BA800440AB0EE410A35EE045AA2EE2A0ADC4491
:101BB800E145A2EE6A1AB0EE434AB0EE432AA0EE1F
:101BC800AA2AA0EEEA4AB0EE613AF0EE610AE4EE23
:101BD800AA0AA4EEEA3AF0EE634AE5EE6A3AE5EEBE
:101BE8002A4A7AEE222A36EE296A77EE897A72EE46
:101BF800861A37EE487A32EEC66A76EEE86AB0EEB2
:101C0800635A77EEA53A77EEE57A73EEA18A36EE57
:101C1800868A73EEE13A76EEC66A77EEC71A72EEF6
:101C2800002A77EE277A74EE015A30EEE46A33EE32
:101C3800457A32EE402A34EE414A74EEA04A35EE37
:101C4800035AC5ED008AC2ED013A554401ED018AF7
:101C58005244C4ED006AC1ED001AC4ED017A514442
:101C680040ED012A544487ED002AC6ED005A83ED61
:101C7800004A80ED006AC7ED014A504486ED017ABA
:101C8800574483ED015A564453443FF63EAF0D9BEB
:101C9800072B40F2A3810198109D059B049A039994
:101CA800029C0830281808330A902846C3180832BE
:101CB80082180593034608F108080EF10C0E0C3340
:101CC8000834083106920246454472440419411802
:101CD80004934B460995D1460894079103924FF017
:101CE80001084FF0000E9A460E9B9E440F9B03EB93
:101CF800CE0303EBCE0202EBCE0000EBCE0404EBE6
:101D0800CE0505EBCE060C9306EBCE07AEEB8E03A5
:101D18000B9207EB031202EBCE0C0CEBCE030292F4
:101D280003EBCE0201931346D3ED01DA019BD0ED0C
:101D3800007A93ED01DA029BCDED027A93ED01CAA8
:101D48000B9BDCED01CAD3ED007A0C9BCDED017A3B
:101D580002EBCE0202EBCE01009201EBCE02D3EDF4
:101D6800007A92ED01FA009AD1ED01EA92ED01EACA
:101D7800D7ED00BA96ED00BA95ED00AAD4ED009A19
:101D8800CDED007ADDE90376DDE90554DDE90701EB
:101D9800DDE90923C44601E0F304353F91ED006A0B
:101DA80056ED01FAD0ED002AD4ED005AD5ED006ABF
:101DB80093ED007A57ED017A92ED002A96ED008AAC
:101DC8007FEE870A32EE061A37EEA24A75EEA64A69
:101DD80070EE841A31EE245A32EE462A31EE856AC4
:101DE80075EEE65A06ED016AD4ED018A92ED019A84
:101DF80091ED013A95ED016A97ED000AD0ED016A7F
:101E0800D3ED013A3FEEC77A77EEE27A78EEC6FA7A
:101E180079EE432A39EE033A30EE669A38EE866A4E
:101E280070EE266A78EE638A32EEEF0A72EEAF2A17
:101E380078EE233A30EEC44A32EE258AF0EE490AAB
:101E480072EE655AE2EEAA0ADC44E245A2EEEA9A8C
:101E5800B0EE682AF0EE472AE5EEAA2AA5EEEA7A5D
:101E6800A0EE2A2A73EE065AE0EE6A8AF0EE67FAC6
:101E780033EEA60AE8EE6A7A71EE644A31EEC55A84
:101E880033EE463A70EE651A73EEE63A34EE036ABC
:101E980072EEA06A34EE434A72EEE00A33EEE43A98
:101EA800E8EE2AFA74EEA33A65EE6D2A77EE094A4F
:101EB80037EE499A38EEE77A77EEA88A6DEEA17A7E
:101EC8009DED018AE9EE857AE9EEA12A26EE6C5AA3
:101ED8006CEE831A32EE6F1AA8EE035AE8EE061A71
:101EE8002EEEA33A24EE6E6A9DED008A3FEE822A1A
:101EF800ABEE043AABEE236A2CEE014A66EECC3A1E
:101F0800A8EE264AE8EE013A6FEE026A20EECF1AF2
:101F1800EBEEA06AABEE821A64EECE0A2EEE072A2A
:101F28009DED028AEAEE070AAAEE242A2DEE287A07
:101F380069EE4D4AA8EE097AE8EE284A70EE255A6D
:101F4800C6ED005AC3ED007AC3ED012A4E4447EDB1
:101F5800011A87ED005A4B4480ED003A80ED016A82
:101F68004F4482ED004AC2ED013A4844C5ED006A8B
:101F780085ED011A4A4481ED002A4D44C1ED010A5C
:101F880084ED007AC4ED014A49444C443FF606AF5B
:101F98000A9B08330A93099B08330993089B083363
:101FA8000893079B08330793069B08330693059B02
:101FB80008330593049B08330493039B0833039366
:101FC8000D9B08F1010843457FF48EAE0E9BDDF8AA
:101FD80034B0DB009BB2D1460E9361E513B0BDEC83
:101FE800108BBDE8F08F00BF034B6428B8BF642096
:101FF800C3F8BC03704700BF00000020034B6428EF
:102008001B6CB8BF6420D860704700BF0000001088
:102018002DE9F04790B0DDE918480E46074691468D
:1020280001A83C2200219A461A9D4BF042F82E4BFB
:102038008DF80460CDF834800293002E50D0B31E82
:10204800012B4FD9042E14BF00230323DFF89C80F3
:102058008DF80530D8F8743B03941C440123CDE96E
:10206800055704948DF83130B9F1000F06D0524667
:10207800494607A84AF032FE8DF830A098F87AEB66
:102088000023BEF1010F0E931CD801AC0FCC98F8B9
:1020980079CBCCEB0C1508EB850505F67C350FC51F
:1020A8000FCC0FC50FCC0FC594E80700BCFA8CFC09
:1020B8000EF1010E4FEA5C1C85E8070088F87AEB00
:1020C80088F879CB3B6843B153464A46314638468F
:1020D80010B0BDE8F0471CF011BE10B0BDE8F087A5
:1020E8000523B3E70223B1E794280020601D0020F0
:1020F80000230360704700BFB4EEE00AF1EE10FA67
:1021080009D4F7EE007AB4EEE70AF1EE10FA88BFC8
:10211800B0EE670A7047B0EE600A7047074B08498F
:10212800D3F8242CC3F8141C931E4FF47871223270
:1021380023F8021F9342FBD1704700BF601D0020A7
:1021480095BD010870B5244E244BC6F8143C1124E3
:102158004FF4787506F543634FF4787086F8F84BBA
:102168004FF47874C3E90045C3E90245C3E904455F
:10217800C3E90645C3E90845C3E90A45C3E90C456F
:10218800C3E90E451649C6F8700C84B006F6F83255
:1021980041F60B2400254020C2E90245C6F8181C68
:1021A8001DF0EEFCB0B196F87B3C0E4A90F90400A5
:1021B8000092012B0CBF082200220323CDE9013233
:1021C8004021094A00231DF007FCC6F89C0C003882
:1021D80018BF012004B070BD601D002075BD010846
:1021E800B9BD0108A068060021D001080023024AF1
:1021F800426003608360704783F9223E642828BFE9
:1022080064201C4B00EB800070B54500A3FB052340
:102218005E095B0918BF002422D001349F203DF0DD
:102228009FF9E3B29E42F8D80A2E00D170BD124839
:10223800A0FB05300009C6EB8613C6EB830366389E
:102248001844C0B23DF08CF9092E06F10104EDD016
:1022580001349A20E4B23DF083F90A2CF8D170BD1C
:102268000548A0FB053000096638C0B23DF078F992
:102278000124EDE71F85EB51CDCCCCCCF0B41B4E3F
:1022880096F8A03C062B2FD80C2404FB03640133DA
:1022980004F6A844DBB254F8042CD1070ED5024248
:1022A8000CD094F900701249002291F90050BD42F7
:1022B80001F10C010ED00132072AF6D10133DBB24D
:1022C800082B04F10C04E6D1072386F8A03C002073
:1022D800F0BC704702EB420206EB820286F8A03C93
:1022E800D2F80001F0BC70470020F1E7601D002023
:1022F8005C1E00200144884218D030B4441E4D1E94
:10230800002041F2210114F8012F082380EA02205D
:1023180010F4004F81EA40020ABF400090B280B238
:10232800013BF5D1AC42EED130BC7047002070477C
:10233800D0ED017AF5EE407AF1EE10FA05D19FED75
:102348000B7AF0EE477A80ED017A30EEA77AD0ED7D
:10235800007AC0ED020AC0EE876A30EE670AE6EE40
:10236800807AB0EE670AC0ED007A704783F9223EA2
:10237800BCEEC00A7F4AB2FBF1F210EE103A9BB2F3
:10238800934208D300234FF07E5243608360C360BA
:1023980003610260704707EE901A9FED777AF8EEB6
:1023A800676A07EE903A66EE876AF8EE677A66EE35
:1023B800A76AFDEEE67A17EE903A2033402B00F23A
:1023C800CA80DFED6E7AF4EEE76AF1EE10FAF0EE0D
:1023D800667A0CDDDFED6A5A9FED6A6AB0EE677ABD
:1023E800B4EEC67AF1EE10FA77EEE57AF6DC9FEDF8
:1023F800667AF4EEC77AF1EE10FA0CD5DFED605A82
:102408009FED626AB0EE677AB4EEC67AF1EE10FA22
:1024180077EEA57AF6D49FED5E7AF4EEC77AF1EE00
:1024280010FA00F390809FED5B7AF4EEC77AF1EE34
:1024380010FA44BF9FED547A77EE677A27EEA76AC1
:10244800DFED554A9FED557A9FED555ADFED555A08
:10245800A6EE247A67EE864AA6EE075AB6EE007A0A
:10246800E6EE055AE4EEA57A27EE877A9FED486AEC
:1024780076EE867AFDEEE75A15EE903A2033402B39
:1024880066D8F4EEC66AF1EE10FA0CDDDFED3C5AC0
:102498009FED3C6AF0EE676AF4EEC66AF1EE10FA58
:1024A80077EEE57AF6DCDFED386AF4EEE67AF1EEFF
:1024B80010FA0CD5DFED325A9FED346AF0EE676AF8
:1024C800F4EEC66AF1EE10FA77EEA57AF6D4DFEDEF
:1024D800306AF4EEE67AF1EE10FA3FDDDFED276AB6
:1024E80076EEE77A67EEA76ADFED2B4A9FED2B5A67
:1024F800DFED2B5A9FED2B6AA6EEA45A67EEA64A8B
:10250800E6EE855AB8EE005AA6EEA56AE4EE867A9B
:1025180067EE857AC7EE206AB7EE006A76EE865ACD
:1025280076EE666A86EE257A67EE277A66EE876A21
:10253800C0ED017AC0ED037A80ED007A80ED027A71
:10254800C0ED046A70479FED0D7A77EE677A75E7FC
:10255800DFED157ADEE79FED147A87E7DFED0D6A88
:10256800F4EEE67AF1EE10FA44BFDFED076A76EE94
:10257800E77AB7E720A1070027D4D236DB0F494016
:10258800DB0FC940E4CB1641DB0F49C0E4CB16C1D1
:10259800DB0FC93FDB0FC9BF9A7C2E36FAAF4FB9A4
:1025A8003587083CA4AA2ABE0000000070B434484D
:1025B80090F8FC3CA3F13001092957D800F6FC44F7
:1025C800224600F60B5012F8015FA5F130010929E7
:1025D80004D88242F7D1002070BC7047141B022C2B
:1025E8004ADD2848002101E010F8013B01EB810198
:1025F80003EB4103161A303B022E044603F0FF0199
:10260800F2DC214B03FB01F1A2424FF000030DD98C
:1026180003EB830314F8016B5B00303B3344A242A5
:1026280003F0FF03F4D1194800FB03F32E2D06D065
:102638001748A0FB032301EB930070BC70470132DD
:1026480004200024157804EB8404303D6400092D2F
:1026580000F1FF30A4B202D82C44A4B2013210F029
:10266800FF00EFD1642202FB0433E1E700211D469D
:1026780000F6FC420B46D9E7064C0021C4E700BF30
:10268800601D00205D2A00208096980040420F00BF
:10269800ABAAAAAA5C2A00209B1A00FB03F090FBB5
:1026A800F1F01044704700BF094BD3F80C0DD3F874
:1026B800102DD3F8143D824202DB1146024608462B
:1026C800984204DD9A42B8BF1A46104670477047D0
:1026D800601D002030B4144AD2F8180DD2F81C3D01
:1026E800D2F8204DD2F8241DD2F8282D834202DBDF
:1026F8001D46034628468A4202DB15460A462946F5
:102708008842A8BF08469342B8BF1346A04202DCDD
:10271800224604461046834203DAA342B8BF234642
:10272800184630BC704700BF601D00200B6810B40D
:1027380014681B1B036054684B681B1B43608B6841
:1027480092685DF8044B9B1A836070472DE9F04747
:1027580005468CB0084614463EF02CFB4FF47A72BE
:10276800002306460F4644F0A1FD394680464FF443
:102778007A723046002344F099FD3C2604FB068813
:102788004FF47A7396B20027C3FB08673B4609A843
:1027980032463EF059FA764B93F82E3D012B00F065
:1027A8009880022B17D19DF82680A8F10303082BE7
:1027B80011D8A8F10403062B40F28280BDF824004A
:1027C80041463EF0D7F9B8F1030F00F09E80B8F10A
:1027D8000B0F00F0A78032463B4609A83EF034FABA
:1027E8006449BDF8242081FB04310B19E117C1EBC2
:1027F8006311C1EB0113A4EB83031BB2002BB8BF19
:102808005B42B2F5FA6F9EB209B220D39DF826302A
:10281800581E0B281BD89DF82770781E1E2816D81E
:102828009DF828C0BCF1170F11D89DF829E0BEF11A
:102838003B0F0CD89DF82A90B9F13B0F07D8BDF88B
:102848002C00B0F57A7F02D24FF0010812E0002385
:10285800DFF82CA1ADF82830012718468DF82A306A
:10286800ADF82C3099469E469C461A469846CDF8B7
:1028780024A03B4614F13B0FB4BF2D242B24002980
:10288800B8BF494289B2CDE90390CDE90541CDE908
:1028980001CE39490796009728463EF087FB404607
:1028A8000CB0BDE8F087B8F1030F59D0B8F10A0FA2
:1028B80091D19DF82810B1FA81F1490900298AD0EF
:1028C8002E4B3C34F6184FF0000324B243EB0707B5
:1028D80081E79DF82680A8F10303072B3FF67BAF1D
:1028E800A8F10403052BEBD9BDF8240041463EF0BE
:1028F80041F99DF827309842D5D0B8F1030118BFA7
:1029080001210029DCD166E707380E28FCDC9DF898
:102918002730834212D0CCBF012100210029CFD11A
:1029280059E707380728FCDC9DF8273083420ED08A
:10293800B4BF012100210029C2D14CE79DF828101D
:10294800012994BF002101210029B9D143E79DF84D
:10295800281001298CBF002101210029B0D13AE7B4
:102968009DF82810003918BF01210029A8D132E7A5
:10297800601D0020898888887C32050880EE360032
:1029880000000101074BD3F8382DD3F8301DD3F8D8
:10299800340DC3F8300D5242C3F8341DC3F8382D36
:1029A800704700BF601D002038B50A4C0A4D23212E
:1029B800D5F83C0D3DF098FB14F8011F0029F7D11C
:1029C80006483DF0CBFB95F8403D13B1012385F84F
:1029D800413D38BDAC320508601D0020B8320508FD
:1029E8002DE9F04F3C4B3D4D3D4A3E4CDFF8FC8015
:1029F80041F284668946074641F28561985D5956D9
:102A0800002808BF2A468BB0374833F093FF4D465D
:102A18000026B9F1000F3ED022782B789A426A68D6
:102A28003BD0D5E902CE0021A87D0790B5F9140066
:102A38000690B5F912000590B5F910000093CDE99C
:102A480003E0CDE9012C334642463846099135F07A
:102A5800C5F809996268A37DB4F914B0B4F912A055
:102A6800B4F910E00793D4E9020C14F8183B00936A
:102A7800CDE901203346CDE905ABCDE903CE424689
:102A88000136384635F0C6F83C2E05F11805C0D198
:102A98000BB0BDE8F08F4946DCE76168D5F808C09F
:102AA800914202D0D5F80CE0BDE7A168D5F80CE05A
:102AB8006145B8D1E1687145B5D120692969884275
:102AC800B1D16069696920F07F4021F07F41884277
:102AD800A9D10121A8E700BF601D0020C832050860
:102AE800F4370508442E0020CC320508DC320508EE
:102AF80070B541F27003204EF35C2DED028B044655
:102B08000D4693B341F27C0106F5845241F27803F5
:102B180071581268F3580360C0E9011206F644536D
:102B280093EDCC8ADFED158A95ED000A80EE280A30
:102B380047F0A6F823681844206028EE288A95ED07
:102B4800010A80EE080A47F09BF863681844606041
:102B580095ED020A47F094F8BDEC028BA36841F2A8
:102B680070021844A060B05C70BDC0E90033836097
:102B7800B7EE008AD6E700BF601D00202C7D8E3F8F
:102B8800F0B4264B41F2700482B01C5D3CB90023BE
:102B9800036043608360204602B0F0BC704741F296
:102BA8007C0541F278065F594D689E5901950D687C
:102BB8009FED1B6AAE1B019DED1B07EE905A03F6B5
:102BC8004455D5EDCC6A07EE106A66EE866AB8EE13
:102BD800C77AF8EEE77A27EE067A67EEA67A012A30
:102BE80080ED007AC0ED017A0ED003F584538A682F
:102BF8001B68D21A07EE902AF8EEE77AC0ED027A3F
:102C0800204602B0F0BC7047D1ED027AF8EEE77AC0
:102C1800C0ED027A204602B0F0BC7047601D00206B
:102C28002C7D8E3F1A4AF0B4546C1A4D002CD5F8FE
:102C3800B03303600EDD4832002305F56C7601E001
:102C48009C4207D052F8041BB14203F10103F7D1AB
:102C5800012200E00022D5F8BC338360027195F8A8
:102C6800C0334371D5E9F832D5E9FA67D5F8D813F6
:102C7800D5E9FC455B0943EAC2635209C0E9046728
:102C8800C0E90645C0E90832F0BC8162704700BF60
:102C98000000001000000020014B186B704700BFB7
:102CA80000000020014BD3F8C0007047000000204E
:102CB800014B986F704700BF000000200C4608B514
:102CC80005461CF0AFFC20461CF0ACFC0021084671
:102CD8003BF09EFA002101203BF09AFA28463AF090
:102CE800C1FBC0B920463AF0BDFB0028F6D001214F
:102CF80000203BF08DFA20463AF0ACFB014628460E
:102D08003AF0D6FB002108463BF082FA28463AF012
:102D1800A9FB0028E6D0012100203BF079FA2846DB
:102D28003AF098FB014620463AF0C2FB00210846DB
:102D38003BF06EFAD6E700BFF0B500230B604B609E
:102D48008B60CB600B610268DFF884C089B004AD8A
:102D5800C2F385572E4647FA03F0C007344604D518
:102D68001CF8030004F8010B26460133062BF2D1A8
:102D7800C2F303239C4400239CF80800DFF854C0E6
:102D880033708DF81800C2F305370DF1190647FAAC
:102D980003F0C007344604D513F80C0004F8010BFF
:102DA80026460133062BF2D100233370C2F3834445
:102DB80006ABCDE90134084602F00F03034900953C
:102DC800C2F303123EF0F2F809B0F0BDFC32050878
:102DD800F0D1040800D2040810B4414A92F8CD306A
:102DE800D2F8B400023BD2E92B14062B74D8DFE8E2
:102DF80003F05A5C60500655040064424942404260
:102E080080EAE073A3EBE07306EE903A84EAE47399
:102E1800A3EBE47307EE103AF8EEE66A9FED316A29
:102E2800B8EEC77A26EE866A81EAE173A3EBE1730E
:102E380007EE903AB4EEC76AF1EE10FAF8EEE77AC8
:102E480004DDB4EEE76AF1EE10FA34DC9FED256A92
:102E580027EE066AB4EEE76AF1EE10FA04DDF4EE46
:102E6800C66AF1EE10FA2DD49FED1E6A67EE867AD7
:102E7800B4EEE77AF1EE10FA2BD5F4EEE76AF1EE4C
:102E880010FA26D50029CCBF042005205DF8044B94
:102E980070474B42404221461C46B1E763424042DC
:102EA8000C461946ACE74942AAE74B4261421C4628
:102EB800A6E76442A4E70028CCBF002001205DF803
:102EC800044B7047002CCCBF022003205DF8044B54
:102ED80070474FF0FF30D9E723460C4619468FE775
:102EE80000000010ABAA2A3F70B5294B294C93F873
:102EF800881C93F8893CDFED286A94F8C025D4F83B
:102F0800E45507EE101A07EE903AB8EEC77AF8EED5
:102F1800E77A27EE267A67EEA67A04EB4206BDEE3C
:102F2800C77A0132FDEEE77A02F00F01B6F8C43530
:102F380084F8C01517EE102A17EE901AC31A2B44FE
:102F48008A42C4F8E43582B0A6F8C4054FEA1313E0
:102F580012DC17EE101A17EE902A98B240F2FF35DD
:102F6800002300953EF072FB2A4600213EF090FBBC
:102F7800A4F8E80502B070BD9BB29942D4BF581AB4
:102F880000208242A6BF101A80B20020E6E700BFE8
:102F9800601D0020582E002014AE234138B5037858
:102FA8002DED0A8BD0ED01AA70EE609A044669EE09
:102FB800AAAAF0EE408AB0EE607A0D46B0EE41AAB9
:102FC800F0EE61BAB0EE42CAB0EE629A002B61D15F
:102FD800D0ED0B7A01F00103002B54D079EEE77A9B
:102FE800B0EE697A87EE8A0AD4ED090A84ED0B7A85
:102FF800F5EEC00AF1EE10FA57DCD4ED032A20EE04
:10300800220A94ED0ABAD4ED057A20EE099A3AEE2E
:103018008B8A68EEA78A38EE098AB0EE4C1A38EE29
:10302800288AF0EE6B0AB0EE480A3EF021FBD4ED98
:10303800027A94ED047A84ED0E9A69EEA77AF0EE9E
:103048004B6AEAEE276A6B0730EE488AF0EE667A3A
:1030580028EE078AC4ED0F8AEAEE087A84ED0CBAE6
:10306800C4ED0DAA84ED100A08D5B0EECBBAB0EEC7
:10307800E77AB4EECB7AF1EE10FA01D5C4ED0A7A0C
:10308800BDEC0A8B38BD77EE677AF1EE677A87EE8A
:103098008A0AA9E711F001034FF000020CBFF0EE15
:1030A800607AF0EE697A027096E7B0EE4A1A04F197
:1030B800180094ED038A39F0E1FE28EE000AA0E733
:1030C80070B5394D394B2DED028B95ED008AB5EE73
:1030D800408AF1EE10FA08EE900A0C460DD1D3F8AA
:1030E800F0109FED332AB1F8AE1008EE101AB8EEC2
:1030F800C88A28EE028A85ED008A93F8FD312D4DA5
:1031080003EB830303EB8303002A4FEA8301204682
:1031180014BF042600263EF0C3FAF8EEE88A07EE4C
:10312800900A9FED251A9FED250AF8EEE70A28EE8A
:10313800811A314605F51E70F7EE002AB0EE482ACE
:10314800F1EE481AFFF72AFF1D4B9FED197A93F805
:10315800F025112AC0EE077A21D1C3F80046D5ED33
:10316800AB5A95EDAA6AD5EDAC6A95EDAE7AFDEE4F
:10317800E55ABDEEC66A15EE902AFDEEE66AC3F87A
:10318800F42516EE102ABDEEC77AC3F8F82516EE18
:10319800902AC3F8FC2517EE102AC3F80426BDECC4
:1031A800028BB0EE670A70BD44340020601D002019
:1031B8000000C842A42A0020BD3786350000000060
:1031C800582E0020064B93F8552D1AB9054B93ED50
:1031D800020A704703F5815393ED020A704700BF56
:1031E800601D0020682D002070B5384C384EB4F8AA
:1031F800F651B4F8EA31F3812DED028B1DBBD6E907
:103208000532C01A61EB020144F00AF8DFED317AA9
:10321800B4F8EC31B4F8EE11B4F8F22107EE100A64
:1032280067EE277A0B44FCEEE77A17EE905A2B44A8
:103238009A4239D3BDEC028BB4F8F401A8422CBFF2
:103248000020012070BDFFF7BDFF07EE905AB8EED1
:10325800E78AF0EE408AB4EEC80AF1EE10FA1FDAF7
:10326800D6E90532C01A61EB020143F0D9FFDFED60
:10327800197AB4F8EC31B4F8EE11B4F8F22107EE8B
:10328800100A67EE277A0B44FCEEE77A17EE905A9D
:103298002B44934210D8F4EEC88AF1EE10FAC9DB39
:1032A800BDEC028B012070BD24F0EEFA0028C1D0DD
:1032B800BDEC028B032070BD24F0E6FA0028F7D19C
:1032C800FFF780FFF0EE408AE5E700BF601D0020B1
:1032D800000000106F12833AF8B5214D1D260C46E8
:1032E800074685F814661CF0BDF800201CF03EF86F
:1032F80008201CF03BF80E201CF038F830461CF073
:1033080035F804201CF032F804201CF02FF80020B7
:103318001CF02CF830201CF029F800201CF026F8AE
:1033280020461CF023F800201CF020F81CF07AF846
:1033380005F5C3601BF07CFF00B9F8BD95F8183699
:1033480063B995F81936302B00D03BB995F81A3681
:1033580023B995F81B363B700120F8BD0120F8BD54
:10336800582E00202DE9F04FB74CDFF8E492DFF833
:10337800E4A22DED028B0022002304F54075C9E973
:1033880044239FEDB28A87B02E46A4F5C56800276E
:103398000CE008EBC3032278D3F8283902B163B9EB
:1033A8002F601834A64205F108053ED094F9013083
:1033B800002BEEDA2378002BF2D02B79D807F0D443
:1033C800A16820791BF062F921698346207B1BF0F4
:1033D8005DF9A2780346252AE2D8DFE812F0360024
:1033E800F6005100EF0021012A014F003100EC01E5
:1033F800F501FB010802030206011001180164002F
:103408006D00780081004C015C0176018801900113
:103418009601AE01B401BA01C001C901DF01FD0086
:10342800B700D10091003D01E00098F8383A13B197
:1034380098F83A3A9BB907B0BDEC028BBDE8F08F1B
:10344800BBF1000FACD00028AAD0237D01222A604E
:10345800DA07A6D52B7943F001032B71A1E798F879
:10346800392AD8F83C0A40213BF088FA002388F82A
:103478003A3A07B0BDEC028BBDE8F08F40F28263A8
:103488009B45D4BF4FF0000B4FF0010B237DC5F8CF
:1034980000B0DB0785D5BBF1000F82D02B7943F054
:1034A80001032B717DE700FB0BF047F6FF725146D5
:1034B8003EF0EEF88346E9E70028E7D09BFBF0F002
:1034C80047F6FF7251463EF0E3F88346DEE75FFABF
:1034D8008BF0194600931BF0B7F8009B9B46D5E785
:1034E8005FFA8BF20190104600921BF0C5F8019B21
:1034F800009A03EB000B594610461BF0A5F8C5E7E8
:1035080007EE90BAF8EEE78A002868EE888A08BFC6
:103518004FF4FA73B0EE680ACDE900333EF072FA60
:10352800F0EE407AB0EE680AF0EE678A3EF064F991
:10353800C8EE807A009B07EE103AB8EEC77A67EEBD
:10354800877AFDEEE77A17EE90BA9FE707EE90BA12
:10355800B8EEE70A002808BF4FF4FA7320EE080A0D
:10356800CDE900333EF04EFA009B07EE903AF8EEB4
:10357800E77A27EE800AFDEEC07A17EE90BA85E763
:1035880007EE90BAB8EEE70A002808BF4FF4FA73BE
:1035980020EE080ACDE900333EF02EF9E4E700906A
:1035A8004FF47A72584600213EF072F8009B0022D0
:1035B8004FF47A71FFF770F8834667E78345ACBF2D
:1035C8004FF0000B4FF0010B60E7ABEB000BBBFAC1
:1035D8008BFB4FEA5B1B59E7D9F81031C9F898B152
:1035E80043F08003C9F8103150E7BBF1000F7FF4B6
:1035F8002CAF002840F00281D5F800B046E75844C7
:1036080047F6FF7251463EF043F883463EE7ABEB80
:10361800000047F6FF7251463EF03AF8834635E718
:1036280040F234539B45CCBF4FF0000B4FF0010BD9
:103638002CE7ABF23550B0F5A77F2CBF4FF0000B4D
:103648004FF0010B22E700BF8034002035FA8E3C92
:10365800000000100080FFFF1A4658460021009322
:103668003EF016F8009B002219464FF47A73FFF7D4
:1036780013F883460AE75FFA8BF20190104600922E
:103688001AF0FAFF019B009AA0EB030B594610466B
:103698001AF0DAFFFAE65FFA8BFBBBF1070F00F2CC
:1036A800AB80C2B2003A98F8391A18BF012201203B
:1036B800524200FA0BFB4A4002EA0B024A409B4680
:1036C80088F8392A88F83A0AE0E6D9F81031227DD4
:1036D80043F00103C9F81031D1074FF001032B6003
:1036E8007FF55FAE2B7943F001032B7159E6D9F8CA
:1036F8001031227DC9F874B143F00203EAE7D9F822
:103708001031227D43F00403E4E7D9F87C319B456E
:103718003FF446AED8F8280A02A939F04FFD002830
:1037280047D058469DF80A2001213DF0B1FF834655
:10373800C9F87C0188F82E0AA8E6D9F81031227D4C
:1037480043F00803C6E7D9F81031227D43F010038F
:10375800C0E7D9F81031227D43F02003BAE7D9F841
:103768001031C9F88CB143F04003C9F810318DE627
:10377800D9F890319B453FF413AED8F8280A02A92E
:1037880039F01CFDA8B15846052201213DF080FF03
:103798008346C9F8900188F82C0A77E6D9F894315D
:1037A8009B453FF4FDADD8F8280A02A939F006FD7B
:1037B80038BB2860F5E5BBF1000F7FF446AE002862
:1037C8007FF443AE2860ECE5BBEB000B18BF4FF06D
:1037D800010B5BE6BBF1000F3FF437AE00283FF466
:1037E80034AEDDE5BBFA8BFB4FEA5B1B4EE65BEACA
:1037F80003033FF42AAED3E5834647E6C5F800B095
:10380800CFE55846082201213DF042FF8346C9F81A
:10381800940188F82D0A39E6164991F8FC2C32B340
:10382800F0B4064600200346074602E092F8FC2C56
:10383800DAB100EB80002E2A4FEA400004D10133B0
:10384800CA18324482F8FC7CCA18A0F1300592F8F4
:10385800FC2CA2F13004092C98BF50190E2B03F14F
:10386800010301EB0302E1D90020F0BC70470020FE
:10387800704700BF601D002070B5164ED6F8403A5C
:103888001A791E3A012A054605D91846002139F049
:103898000FFED6F8403A002D0ADD0F4C254414F8E7
:1038A800011B184639F004FEA542D6F8403AF6D175
:1038B8001846002139F0FCFD0849B6F8703AD1F8ED
:1038C800741B074AC6F8681A01330021A6F8703A33
:1038D800516070BD582E00209C380020601D0020CB
:1038E800C038002010B50B4C04F5B45008300DF06A
:1038F8005FF941F29463E358C01A3DF0EDFE0028E9
:10390800B8BF404242F210739842D4BF0020012051
:1039180010BD00BF601D0020036813F0400004D0F4
:1039280013F4057F14BF0120002070472DE9F043F0
:10393800244D254C85B005F1280980460F461646CA
:10394800C4F8289CC4F8245CFEF7E8FB1F4BC4F8B5
:10395800183C122284F8F82B04F6F83142F6F822C3
:1039680000234020C1E902231CF00AF9044610B3E1
:10397800FFF7D2FF98F800203F78034694F9040037
:1039880000961C1E14BF03210121002A0CBF072228
:103998000622012F0CBF082300231A43CDE9011288
:1039A8004B460B4A40211CF017F8A5F528652CB9A1
:1039B800003818BF012005B0BDE8F083C5F8E80A53
:1039C800F6E700BFD8380020601D0020ADB201081E
:1039D80055C901080348044A00F67B4100F67A40BD
:1039E800A4E700BF601D0020400D03000348044AFF
:1039F80000F67B4100F67A4098E700BF601D002082
:103A0800A086010008490138002310F8012F222A56
:103A180004D001330F2B01F8012FF6D1034A1344C8
:103A2800002283F846207047A51D0020601D002055
:103A380010B5084C82B00223C4F8EC3A019042F069
:103A480043FE0199C2B2D4F8F00A02B0BDE81040B2
:103A580039F00CBD582E00202A490023421E81F857
:103A6800F43A043012F8013F33B3413B332B21D8E9
:103A7800DFE803F01A202020203E35202020202CCB
:103A8800202020202020202320202020202020202B
:103A9800202020201A202020203E35202020202CE5
:103AA800202020202020202391F8F43A43F0080316
:103AB80081F8F43A8242D5D1704791F8F43A8242BB
:103AC80043F0010381F8F43ACCD1F5E791F8F43AE0
:103AD800824243F0100381F8F43AC3D1ECE791F83D
:103AE800F43A824243F0040381F8F43ABAD1E3E7A6
:103AF80091F8F43A824243F0020381F8F43AB1D1E2
:103B0800DAE700BF582E002070B5C54CD4F8F86A23
:103B180084B02EB13046FFF7FFFE002840F07081D8
:103B280094F8040BFCF764FC94F8FC3A83420546CD
:103B38001CD0002800F08081C6B1BA4B96F9040069
:103B480093F82D20B2FA82F252094FF4165100234D
:103B58000225CDE9015200911A4604211BF03CFFD1
:103B6800C4F8000B10B1012384F8FC3A94F8050B53
:103B7800FCF73EFC94F8063B834205461ED000281D
:103B880000F01A81D4F8083BC3B1A64A93F904009F
:103B980092F83420002A18BF08224FF496410023D7
:103BA8000325CDE9015200911A4608211BF014FFA4
:103BB800C4F80C0B10B1012384F8063BFCF710FD88
:103BC800D4F8105B2DB12846FFF7A6FE002840F078
:103BD800FC8094F8200BFCF70BFC94F8143B834210
:103BE800064632D0002800F030818E4B93F83730EB
:103BF800012B00F03981022B0CBF8B4A8B4AC4F889
:103C08001C2B15B32A7A002A00F02B81022A00F017
:103C18002F81012A40F03A81834BC4F81C3B4FF4B2
:103C2800966395F9040000930025022101910295FD
:103C38002B462A4610211BF0CFFEC4F8180B20B1E2
:103C4800012384F8215B84F8143B94F8220BFCF7D9
:103C5800CFFB94F8233B8342054635D0002800F07B
:103C6800A280D4F8243BCBB11A7A002A00F0F6805F
:103C78006F4901EB8202926993F9040000920023D4
:103C88000321019102931A464FF480711BF0A4FEA0
:103C9800C4F8280B10B1012384F8233B614A654B13
:103CA800B2F85E1092F8605092F86100A3F8EE1630
:103CB80092F8621092F8632083F8F25683F8F606B9
:103CC80083F8F71683F8F82694F82C0BFCF790FB8A
:103CD80094F82D3B8342054627D058B34FF4FA7029
:103CE800FEF782F9D4F8303BFBB11A6802F410727F
:103CF800B2F5107F19D093F9040003214FF4E13293
:103D080000230825CDE9011500924FF400711A46E9
:103D18001BF062FEC4F8380B38B142490122002377
:103D2800086284F82D2B84F8343B94F83C5B6DB121
:103D380004B070BDD4F8380B1BF032FEC4F8385B01
:103D480084F82D5B94F83C5B002DF1D1D4F8403B0E
:103D5800002BEDD0032293F90400CDE901251A7A4E
:103D6800334B03EB82034FF400219B6900932A46EF
:103D78002B461BF031FEC4F8F00A0028D8D0294899
:103D8800C4F8485BD0F8743B84F84C5B03F51C53CB
:103D980010333A30C4F8443BFFF75EFE012384F841
:103DA8003C3B04B070BDD4F8280B1BF0F9FDC4F8F7
:103DB800285B84F8235B87E7D4F80C0B1BF0F0FD35
:103DC800C4F80C5B84F8065BF8E694F8143B002B07
:103DD8007FF43BAFD4F8E83A002B3FF436AF114AF2
:103DE800C4F8183B92F83730012B48D0022B0CBF8F
:103DF8000D4B0E4BC4F81C3B012384F8143B24E7FD
:103E080094F8FC3A002B7FF4B1AED4F8E83A002BD2
:103E18003FF4ACAE0122C4F8003B84F8FC2AA5E6C6
:103E2800582E0020601D0020D4060020E006002047
:103E3800F0D1040800000020D4F8000B1BF0B0FDFE
:103E4800C4F8005B84F8FC5A90E6D4F8180B1BF011
:103E5800A7FDC4F8186B84F8146BF6E64FF46142BA
:103E68000AE74FF49643DCE60B4AC4F81C2BC8E675
:103E78004BB9094BC4F81C3B4FF41663D1E6064B0B
:103E8800C4F81C3BB8E74FF41663CAE6034B03EBD0
:103E980082029369C5E600BFC8060020F0D1040875
:103EA80070B5254C064604F1460042F00DFC94F826
:103EB80046502B2D38D0302D27D0382D2ED01F49E5
:103EC800002301E011F8015F0C464DB30133102BBC
:103ED800F8D1324606F11005134612F8011B2229C3
:103EE80026D0AA42F8D1002820DDC0F10100191817
:103EF800621C013301E08B4218D013F8014D12F80F
:103F0800010D8442F7D0002070BD94F84720A2F13B
:103F18003101012903460DD9362A0BD00138CEE7E5
:103F2800002BF0D04C1ED4E70538C8E7012070BD3F
:103F3800013BD8E7981EC2E7601D0020A61D00209F
:103F48002DE9F04F2DED028B87B00E4600AF1446D9
:103F580020B10378303B012B40F26881DFF828A3B9
:103F6800DFF82893DFEDC18A9FEDC18A0AF58058F2
:103F780008F108083378002B3BD02CB1DAF8743BF1
:103F880022689A4240F27B83DFF8F8B29BF84D5BD7
:103F9800002D40F077829BF8502BB64B03EB420381
:103FA800B3F85C305BBB01238BF8503BB24B5A6AC9
:103FB80011061CD51A69920740F14083BAF874219A
:103FC800DAF800304FF4F36112FB01F289FB0201C9
:103FD800D217C2EB61121020C7F813203021082233
:103FE80038747974BA743818002598473570002CDD
:103FF800C0D11C37BD46BDEC028BBDE8F08F013245
:10400800D2B2B3F58A6F8BF8502B00F0648125D8B3
:10401800B3F5806F00F0FC8167D9B3F5866F00F0C7
:10402800DD814BD9B3F5886FE1D19AF83130002B97
:10403800DDD0914ADAF80030B2F9B421C7F813207C
:10404800102240213A7404227974BA7407F11000DE
:10405800002598473570002C8CD1CAE7B3F5006F5E
:1040680000F016817FD9B3F5046F00F0E7805AD9C4
:10407800B3F5116F00F0E381B3F5206FB7D17E4B34
:10408800D3F8B0319A06B2D57C4ADAF80030D2EDCE
:10409800057A67EEA87A1021FCEEE77A002517EE7C
:1040A800902AC7F813200A2239747D74BA747818D4
:1040B80098473570002C7FF45DAF9AE7B3F5826FAF
:1040C80000F0AF81B3F5846F91D16B4A536A18063B
:1040D8008DD51369990740F18F82DBF8E83BC7F863
:1040E800133010212022042330E0B3F5007F00F0C4
:1040F800528153D9B3F5047F7FF479AF5E4B5B6A85
:104108009A077FF574AF9AF83230002B40F0798225
:104118009BF85E3B012B0CBFBBF86C3BBBF86E3BBE
:10412800102202219FE1B3F5026F61D1524B5A6A06
:1041380015067FF55CAF1A69900740F17282DAF8CC
:104148006431C7F81330102120220823BB74397456
:10415800DAF800307A747818002598473570002C02
:104168007FF408AF45E7B3F5E26F00F0F78047D971
:10417800B3F5E46F7FF43BAF9AF83130002B7FF44E
:1041880036AF3D4B93ED370A20EE080A45F078FD2F
:1041980010212022C7F813000723D7E7B3F5807F43
:1041A80000F0C280B3F5887F7FF421AF324BD3F89B
:1041B800B03159077FF51BAF9AF8552D304B002ABF
:1041C80008BF434693ED050A45F05AFD1023012226
:1041D800C7F813003B747B74BA74DAF8003007F13F
:1041E8001000002598473570002C7FF4C3AE00E717
:1041F800B3F5036F3FF4DAAE002C7FF4BBAEF8E6FC
:10420800B3F5C06F78D0B3F5E06F7FF4F0AE9AF8ED
:104218003150002D7FF4EBAE174B93ED350A20EEAD
:10422800080A45F02DFD10220723F5E0013006218C
:10423800FCF704FB134B83F84D0B8FE60E4ADAF8B4
:104248000030B2F9B82102EB820252001020C7F800
:1042580013204021082238747974BA7438189847A2
:104268003570002C7FF486AEC3E600BFB80C473E1D
:104278000000C842F0D1040800000010D039002026
:10428800802D0020582E0020601D00201F85EB5136
:10429800D5494B6A18067FF5AAAE0B699B0740F112
:1042A800E981D30700F1D481DAF85C2182EAE2736C
:1042B800A3EBE27303EB5303A9FB0313DB08002A08
:1042C800B8BF43F08043102100250822C7F81330F7
:1042D80039747D7478E0C44B5A6A12067FF587AE4C
:1042E8001A69950740F1AF81BAF97631C7F81330EA
:1042F80010215022042329E79AF83530002B40F08A
:104308003F8114F0FDFC002510220623C7F8130096
:104318003A747D74BB74B818DAF800309847357071
:10432800002C7FF427AE64E6AF4BD3F8B0315D07BD
:104338007FF55DAE9AF8551DAC4ADAF800300029D1
:1043480008BF4246D2ED027AFCEEE77A102117EE5A
:10435800902A0025C7F813200122A5E69AF83150C3
:10436800002D7FF444AEA04B93ED360A20EE080AE8
:1043780045F086FC10230722C7F813003B747B74B2
:10438800BA74DAF8003007F1100098473570002C3D
:104398007FF4F0AD2DE6944B5B6A1B057FF527AEE5
:1043A8009BF85C3B002B3FF422AEBAF92A34904AC2
:1043B8007D7482FB0312DB17C3EBA2031BB210212F
:1043C8000222C7F813303974DAF80030BA74781852
:1043D80098473570002C7FF4CDAD0AE69AF8313055
:1043E800002B3FF404AE804ADAF80030B2F9B62167
:1043F800C7F81320102230213A7404227974BA7451
:1044080007F1100098473570002C7FF4B3ADF0E544
:10441800FBF79AFF10220423C7F813007D743A743F
:1044280078E7714B5A6A12067FF5E1AD1A6995076C
:1044380040F1FF80FCF750F910230422C8E66A4BCC
:104448005B6A99077FF5D3AD9BF8513B4BB19BF85D
:104458005E2B012A0CBFBBF86C2BBBF86E2BB2FB92
:10446800F3F310220921C7F813303A74DAF8003050
:104478007A74B974B818002598473570002C7FF401
:1044880079ADB6E5DFF86CA107F108033B61DAF80E
:104498001C8007F10E037B61D8F80020DAF814308D
:1044A8009A426C469BF84E3B00F0818007F1090266
:1044B8003A615A1C8BF84E2B03F00F030522D8F8EB
:1044C80004903B7294461346D8F80010A9EB0109F2
:1044D800D01D5FFA89F920F00700CC45ADEB000D3F
:1044E80040F2D5804A46684648F0F8FBD8F80030D4
:1044F8004B44C8F800304A46694607F110003CF0C2
:104508001BFDDAF81C20DAF81430D8F80000117A0C
:10451800C8F80400C21A4A40D2B28342C8F8003030
:104528008BF84F2B0AD00133C8F8003013F8011C60
:10453800984282EA0102F6D18BF84F2B3B69591C4D
:1045480039611A70D7E90432D21A012A08DD00212C
:104558005A1C3A611970D7E90432D21A012AF7DCD9
:1045680007F10800FBF730FE002500231C37A5469D
:104578008BF84D5B3370BD46BDEC028BBDE8F08F08
:10458800194A526A10057FF532AD9BF85C2B002A58
:104598003FF42DAD012B00F09180DBF8703BC7F89C
:1045A80013301022002506233A747D74B2E6B8F958
:1045B8000C20591C03F00F0343F01003002AB8BF66
:1045C80043F0200307F109023A613B72D8E9003948
:1045D8000422A9EB03038BF84E1B07F10A017B7237
:1045E8003961134694466FE700000010802D0020C3
:1045F80067666666601D002013681B077FF56DAD52
:10460800F5E49BF8513B002B3FF48AAD9BF85E2BF9
:10461800012A0CBFBBF86C2BBBF86E2BB2FBF3F373
:104628007EE51B6819077FF58AAD002C7FF4A2ACE4
:10463800DFE41B6818077FF5FDAED8E41B681D078B
:104648007FF5BCACD3E41B6818077FF54DAECEE40C
:10465800DAF8602182EAE273A3EBE27303EB530317
:10466800A9FB0313DB08002AACBF43F0004343F067
:10467800404328E60B681D077FF513AEB7E4002317
:104688001C373370BD46BDEC028BBDE8F08F684621
:10469800C7E9003248F022FBD8F800107A683B6876
:1046A8001144C8F8001007F110001A4669463CF09A
:1046B80043FC07F10800FBF787FD56E7DAF82C34CE
:1046C8006DE700BF2DE9F041DFF8208198F8F4305C
:1046D800012B82B002D002B0BDE8F081D8F8040006
:1046E8000028F8D0D8F8743B3E4C3F4E01330025E3
:1046F800019304F6EC378DF803500AE01B2B84F87D
:10470800F45B48D00D2B5CD0012386F8F936D8F835
:10471800040003685B689847002849D0002D47D1FA
:10472800D8F804000368DB68984783B27E2B4BD027
:1047380096F8F926002AEAD194F8F42B002ADDD15C
:104748007D2B4BD094F8F82B2AB180F02003D8B2F7
:1047580084F8F85B034694F8F32B062A0BD8B4F8D0
:10476800F6CBA11863440132A4F8F63B81F8EC0BB0
:1047780084F8F32BCBE7B4F8F62B1344C3F30722E2
:1047880052FA83F30122A4F8F63BFF2B08BF3D46FB
:1047980086F8F926BBE7D8F8040003685B689847F1
:1047A8000028B1D101238DF8033086F8F936AEE739
:1047B800284601AA0DF10301FFF7C2FB02B0BDE8CC
:1047C800F081A4F8F65BA2E701238DF8035084F882
:1047D800F35B86F8F95684F8F43B98E7012384F8EC
:1047E800F83B94E7582E002000000020601D0020B0
:1047F800084B93F8552D2AB9074B03EB800090ED31
:10480800030A704703F5815303EB800090ED030A18
:10481800704700BF601D0020682D0020054B93F8ED
:10482800F4200AB1002070470222186083F8F420AF
:1048380001207047601D0020F0B5224C224DC4F8BD
:10484800245C85B0FDF76AFC12232049204A84F8CD
:10485800F83B42F6F82604F6F83300274020C3E96F
:104868000267C4F8181CC4F81C2C1BF089F930B373
:1048780094F87B3C94F87A1C90F90400154A022BB2
:1048880014BF08230023002908BF43F001030324B1
:104898004FF4E131CDE901430091002340211BF0A1
:1048A8009BF8A5F6FC35C5F8200C014620B10A484E
:1048B800FFF7B4FF85F8240C081E18BF012005B0C7
:1048C800F0BD00BF601D0020543A0020B5CA0108A1
:1048D800BDD801082DCE0108C9BC010810B50C4C83
:1048E80094F8F4300BB1002010BD20201BF048F9DB
:1048F800C4F8F80050B120211BF038F9054B84F8B2
:10490800F5000120236084F8F40010BD012010BDDB
:10491800601D0020F901000870B5104E96F82B5C58
:10492800C2B0AC1D224606F62A41684648F0D6F9C0
:10493800B6F8283C0DF804300DEB040208351B0AC4
:104948006C465370254414F8011BD6F8280B38F030
:10495800AFFDAC42F7D142B070BD00BF582E002069
:104968002DE9F04FD34CD44EDFF8648393B004F6AE
:104978007867D4F8280B38F075FD002800F08D8092
:10498800D4F8280B38F066FD94F83B3D0022054624
:1049980084F8382D0A2B01F20480DFE813F0C000F8
:1049A800C0009B01710158013F0123010201DE0093
:1049B80081008100022D2A46C04928BF0222002515
:1049C80002A8ADF8085048F089F99DF80830012B85
:1049D80040F0408294F86D1DB9488DF8221041F2DC
:1049E800856194F83E2D415694F86E5D8DF82350FC
:1049F800ADF82010B34D089E84F82D3C511C40F2B0
:104A0800FE4042F6FA4384F82C2C84F83E1DA4F8A4
:104A18002A0CC4F8306C291DA4F82E3C04224FF649
:104A2800FF7001E015F8012B424082EA0212D2B26F
:104A3800130983EA102343EA0223A94283EAC20046
:104A4800F0D1A14DA4F8280C291D15F8012B82EAF4
:104A5800000383EA0312D2B2130983EA102383EA1C
:104A6800022383EAC20398B28D42A4F8280C1BB231
:104A7800EBD183F0DD0282EA0212D2B2130983EA93
:104A8800102383EA022383EAC2031BB2A4F8283C5A
:104A9800A4F8343CFFF740FF012013B0BDE8F08FC5
:104AA8000A2B06D0B4F8782E83B2B3EB122F00F09D
:104AB8002A8194F83CAD854804EB0A094FF48872C2
:104AC800394689F8815E48F009F999F8811E99F804
:104AD800802E94F83D3D94F83A0D94F87BCEB4F8C6
:104AE80040ED86F8C4A142EA012201330121A4F86D
:104AF800682DFE2D4FF0000286F8C53184F86BCD85
:104B080086F8C31184F83A1DA6F8CA01A6F8C8E1C8
:104B180084F8382D00F0A28184F83B1D29E7FE288F
:104B280000F0058394F87B5E94F83C1D94F83D2DC5
:104B380094F83ACDB4F840ED84F86B5D013200206A
:104B480086F8C33186F8C41186F8C521A6F8C8E1ED
:104B5800A6F8CAC184F83A0D0BE794F87F0EB4F8AA
:104B680078CE94F83C1D404490F8883083EA0C03D2
:104B780083EA0313DBB21A0982EA1C2242EA0322FF
:104B880082EAC3036218D8B2A4F8783E854214BFFB
:104B98000A23092382F8805E94F87B5E84F83B3D03
:104BA800C4E794F83C1D6218013182F8800EB4F80D
:104BB80078CE94F87B5E80EA0C0080EA0010C0B2E0
:104BC800020982EA1C22C9B242EA002282EAC00033
:104BD800A94284F83C1DA4F8780EA7D1082384F8CC
:104BE8003B3DA3E7B4F8782E84F87F0E504080EA66
:104BF8000010C0B2030983EA122343EA002394F8A1
:104C08007B5E83EAC000A4F8780E002D40F0308166
:104C1800082394F83C1D84F83B3D87E7B4F8782EC8
:104C280094F83C1D84F87E0E554085EA0515EDB2D2
:104C38002B0983EA122343EA052383EAC5050623E1
:104C4800A4F8785E84F83B3D94F87B5E6EE7B4F890
:104C5800782E94F83C1D84F87C0E554085EA05159D
:104C6800EDB22B0983EA122343EA052383EAC5053B
:104C78000323A4F8785E84F83B3D94F87B5E55E7FF
:104C8800B4F8782E94F83C1D84F87D0E554085EADA
:104C98000515EDB22B0983EA122343EA052383EABB
:104CA800C5050523A4F8785E84F83B3D94F87B5E3F
:104CB8003CE700BF582E0020503F0020C83B002092
:104CC800601D0020843A0020883A0020C03B002064
:104CD800F0D10408B4F8781E84F87B0E80EA01034A
:104CE80083EA0313DBB21A0982EA112242EA032299
:104CF80082EAC30200210423A4F8782E84F83C1D1C
:104D080084F83B3D12E794F83C9DCB4804EB09023C
:104D1800012382F8815E39464FF4887284F8383D61
:104D280084F83B3D47F0DAFFB4F8403D94F87C2E18
:104D380084F83D2D0BB9A4F8423D01339BB20132F2
:104D4800A4F8403DA6F8C83194F86F1D94F87B5E2E
:104D580086F8C521012394F83A2D86F8C33100233B
:104D680086F8C49184F86B5DA6F8CA2184F83A3DA8
:104D78002D296FD801A353F821F000BF7B49000803
:104D88005D4E00085D4E00085D4E00085D4E00084F
:104D98005D4E00085D4E00085D4E00085D4E00083F
:104DA8005D4E00085D4E00085D4E00085D4E00082F
:104DB8005D4E00085D4E00085D4E00085D4E00081F
:104DC8005D4E00085D4E00085D4E00085D4E00080F
:104DD8005D4E00085D4E00085D4E00085D4E0008FF
:104DE8005D4E00085D4E00085D4E00085D4E0008EF
:104DF8005D4E00085D4E00085D4E00085D4E0008DF
:104E08005D4E00085D4E00085D4E00085D4E0008CE
:104E18005D4E00085D4E0008555000083D4E0008E4
:104E28005D4E00085D4E0008BD490008714F00083E
:104E3800854E0008042D2A46804928BF04220025F3
:104E480001A8019547F04AFF9DF80680B8F1010FC7
:104E580000F07781002013B0BDE8F08F02214FF6F3
:104E6800FF7384F87B2E84F83B1DA4F8783E80E518
:104E7800072394F83C1D84F83B3D57E6022D2A464B
:104E88006E4928BF0222002502A8ADF8085047F055
:104E980025FF9DF80860012EDCD10BF001FD94F888
:104EA8006E2D94F86D3D8DF822508DF820308DF8D8
:104EB8002120089A94F83E3D614D84F82D6C591CC8
:104EC800160C40F2FE30A4F8302C42F6FA7284F840
:104ED8003E1DA4F82A0CA4F82E2C84F8326C84F811
:104EE8002C3C291D03224FF6FF7001E015F8012B19
:104EF800424082EA0212D2B2130983EA102343EA3B
:104F08000223A94283EAC200F0D14E4DA4F8280C2E
:104F1800E91C15F8013B434083EA0312D2B2130996
:104F280083EA102383EA022383EAC20398B28D42FC
:104F3800A4F8280C1BB2ECD183F0990282EA021281
:104F4800D2B2130983EA102383EA022383EAC20256
:104F580093B2190A84F8332CA4F8283C84F8341C3A
:104F6800FFF7DAFC012098E5042D2A46334928BFCB
:104F78000422002502A8029547F0B0FE9DF80A30E9
:104F8800012B7FF467AFBDF808203C2A40F28E81E0
:104F98002D4A1268510740F1B68294F86E1D94F8B4
:104FA8006D2D8DF822308DF820208DF8211008996C
:104FB80094F83E2D224D84F82D3C0B0C561C40F2E3
:104FC800FE3084F8323C42F6FA73A4F8301C84F8B8
:104FD8002C2CA4F82A0C84F83E6D291DA4F82E3C2C
:104FE80003224FF6FF7001E015F8012B424082EAD8
:104FF8000212D2B2130983EA102343EA0223A94218
:1050080083EAC200F0D10F4DA4F8280CE91C15F86A
:10501800012B82EA000383EA0312D2B2130983EA5E
:10502800102383EA022383EAC20398B28D42A4F8CC
:10503800280C1BB2EBD17FE7C03B0020C83B002007
:10504800843A0020883A0020000000102522002120
:1050580008A848F02EF8252D2A46D64928BF25222B
:1050680008A847F03BFE9DF84030012B7FF4F2AED4
:10507800D14A1268520700F175819DF8442032B177
:10508800BDF83E2022F00401102900F0E28194F8D6
:105098006E3D94F86D2D8DF8093003238DF80820A6
:1050A8008DF80A30029A94F83E1DA4F8302C120CA0
:1050B800C24D84F8322C40F2FE324E1C0120A4F876
:1050C8002A2C42F6FA7284F82C1C84F82D0C84F8E9
:1050D8003E6D291DA4F82E2C4FF6FF7001E015F83F
:1050E800013B434083EA0313DBB21A0982EA10202A
:1050F80040EA0320A94280EAC300F0D1B04DA4F8E9
:10510800280CE91C15F8012B82EA000383EA031234
:10511800D2B2130983EA102383EA022383EAC20383
:1051280098B28D42A4F8280C1BB2EBD104E7A54A2B
:1051380094F83C1DC4F8782E022384F83B3D0025E2
:10514800F4E4A14ABDF8046041F28563D3569E4257
:1051580080F22982701CC0B202A90BF0AFFBDDED12
:10516800037A9FED9A6ADFED9A5A9DF80820ADF808
:105178003C60F8EEE76ADDED047A94F86D1D8DF871
:105188004350B8EEE77ADDED057A8DF84480F8EE05
:10519800E77A86EE865A042A4FF0000394F86E2DBB
:1051A800089315BF03260226102014208DF84260AC
:1051B800ADF83E0009930A930B93C7EE066A8DF883
:1051C80040108DF841200DF12009DFF8F4C1E646C2
:1051D80042F2FE5B42F2FA7AACF1040725264FF65A
:1051E800FF7587EEA57A8DED0C5ACDED0D6A8DED24
:1051F8000E7AB9E80F00AEE80F00B9E80F00AEE884
:105208000F0099E8030094F83E3D4EF8040B5A1C31
:1052180084F82D8C8EF8001084F82C3C84F83E2DF0
:10522800A4F82ABCA4F82EAC01E017F8016B86EAB2
:10523800050383EA0313DBB21A0982EA152242EA5C
:105248000322BC4582EAC305EFD15D49A4F8285C76
:1052580001F1250011F8013B6B4083EA0313DBB22F
:105268001A0982EA152282EA032282EAC3039DB25E
:105278008142A4F8285C1BB2ECD183F0FE0383EAD8
:105288000313DBB21A0982EA152282EA032282EAB0
:10529800C3039AB2110A84F8553CA4F8282C84F860
:1052A800561CFFF739FB0120FFF7F7BB94F86D1D7B
:1052B8008DF8221094F86E1D8DF8231094F83E1D79
:1052C8003E4FADF82050481CC6F8CC21C6F8D05146
:1052D80040F2FE42089D84F82D3C42F6FA0384F819
:1052E8002C1C84F83E0DA4F82A2CC4F8305C391D17
:1052F800A4F82E3C04224FF6FF7001E017F8012BAA
:10530800424082EA0212D2B2130983EA102343EA26
:105318000223B94283EAC200F0D1294DA4F8280C2F
:10532800291D15F8013B434083EA0312D2B2130941
:1053380083EA102383EA022383EAC20398B28D42E8
:10534800A4F8280C1BB2ECD183F0E60383EA03131C
:10535800DBB21A0982EA102282EA032282EAC30334
:10536800FFF793BB94F86E1D94F86D2D8DF80A30F5
:105378008DF808208DF80910029994F83E2D0F4DEC
:1053880084F82D3C0B0C561C40F2FE3084F8323C5D
:1053980042F6FA73A4F8301C84F82C2CA4F82A0CD2
:1053A80084F83E6D291DA4F82E3C03224FF6FF70A9
:1053B80012E000BFC83B002000000010843A002023
:1053C800883A0020FFFFFE00601D00208096184BE1
:1053D8000000C84215F8012B424082EA0212D2B2FC
:1053E800130983EA102343EA0223A94283EAC2008D
:1053F800F0D1CC4DA4F8280CE91C15F8013B43402A
:1054080083EA0312D2B2130983EA102383EA022340
:1054180083EAC20398B28D42A4F8280C1BB2ECD1DF
:1054280083F0990383EA0313DBB21A0982EA102294
:1054380082EA032282EAC3039AB2110A84F8333C4F
:10544800A4F8282C84F8341CFFF766FA0120FFF72B
:1054580024BB9DF84210032900F0F480022902D1F0
:10546800142A00F0F78194F86E3D94F86D2D8DF8AC
:10547800093002238DF808208DF80A30029B94F831
:105488003E2DA94DA4F8303C1B0C511C012040F2C4
:10549800FE3684F8323C42F6FA7384F82C2C84F8F1
:1054A8003E1D84F82D0C291DA4F82A6CA4F82E3C66
:1054B80003224FF6FF7001E015F8012B424082EA03
:1054C8000212D2B2130983EA102343EA0223A94243
:1054D80083EAC200F0D1934DA4F8280CE91C15F812
:1054E800013B434083EA0312D2B2130983EA102333
:1054F80083EA022383EAC20398B28D42A4F8280CF7
:105508001BB2ECD118E594F86E2D94F86D1D8DF84A
:10551800212004228DF822208DF82010089994F873
:105528003E2D814D84F82D3C0B0C561C40F2FE306C
:1055380084F8323C42F6FA73A4F8301C84F82C2C18
:10554800A4F82A0C84F83E6D291DA4F82E3C0322E9
:105558004FF6FF7001E015F8012B424082EA021273
:10556800D2B2130983EA102343EA0223A94283EA49
:10557800C200F0D16B4DA4F8280CE91C15F8012BDA
:1055880082EA000383EA0312D2B2130983EA1023E2
:1055980083EA022383EAC20398B28D42A4F8280C56
:1055A8001BB2EBD1C8E494F86E3D94F86D2D8DF8DC
:1055B80021300D238DF822308DF8202094F83E3DBF
:1055C800089A594DA4F8302C591C160C40F2FE309C
:1055D80042F6FA7284F82C3C84F83E1DA4F82A0C92
:1055E80084F82D8C84F8326C291DA4F82E2C032302
:1055F8004FF6FF7001E015F8013B434083EA0313BF
:10560800DBB21A0982EA102242EA0322A94282EA9C
:10561800C300F0D1434DA4F8280CE91C15F8013B50
:10562800434083EA0313DBB21A0982EA102282EAB2
:10563800032282EAC30398B28D42A4F8280C1BB255
:10564800ECD1EDE6D6F8D011BDF83C00884240F028
:10565800B1800130142AC6F8D00108BF04239FED99
:10566800336ADDED0C6A9DED0D7ADDED0E7ADFED26
:10567800305AD6F8CC218DF8083066EE866A27EEC7
:10568800067A67EEA57AFDEEE66ABDEEC77AFDEE0C
:10569800E77A8242D4BFA52200220025C0B202A91F
:1056A8008DF81E20CDED036A8DED047ACDED057AD7
:1056B8000695ADF81C500BF001FBD6E973329A42FF
:1056C800C0F2D3801B4A41F28463D35C002B00F004
:1056D800188194F86E2D94F86D3D8DF806508DF86C
:1056E80005208DF80430019B94F83E2D0E4DA4F84A
:1056F800303C1B0C511C012040F2FE3684F8323C31
:1057080042F6FA7384F83E1D84F82D0CA4F82E3C5A
:1057180084F82C2C291DA4F82A6C03234FF6FF705B
:105728000CE000BF883A0020843A00208096184B8D
:105738000000C842601D002015F8013B434083EA81
:105748000313DBB21A0982EA102040EA0320A942B7
:1057580080EAC300F0D1A14DA4F8280CE91C15F883
:10576800013B434083EA0312D2B2130983EA1023B0
:1057780083EA022383EAC20398B28D42A4F8280C74
:105788001BB2ECD183F0990383EA0313DBB21A0945
:1057980082EA102282EA032282EAC3039AB2110A39
:1057A80084F8333CA4F8282C84F8341CFFF7B4F8A8
:1057B800FFF772B994F86E3D94F86D2D8DF80930A5
:1057C8000D238DF808208DF80A30029B94F83E2DA1
:1057D800834DA4F8303C1B0C511C012040F2FE36CE
:1057E80084F8323C42F6FA7384F83E1D84F82D0C96
:1057F800A4F82E3C84F82C2C291DA4F82A6C032329
:105808004FF6FF7001E015F8013B434083EA0313AC
:10581800DBB21A0982EA102040EA0320A94280EA92
:10582800C300F0D16D4DA4F8280CE91C15F8013B14
:10583800434083EA0312D2B2130983EA102383EAAE
:10584800022383EAC20398B28D42A4F8280C1BB243
:10585800ECD1E5E5D6F8D031BDF83C009842A9D1A5
:105868000130C6F8D0010423F9E694F86D0D94F8D8
:105878006E1D94F83E3D8DF806008DF80710ADF8C2
:105888000420019A564DC4F8302C591C40F2FE40B1
:10589800012284F82C3C42F6FA0384F83E1DA4F851
:1058A8002A0CA4F82E3C291D84F82D2C04234FF62D
:1058B800FF7001E015F8013B434083EA0313DBB2B4
:1058C8001A0982EA102040EA0320A94280EAC300AC
:1058D800F0D1424DA4F8280C291D15F8013B43408E
:1058E80083EA0312D2B2130983EA102383EA02235C
:1058F80083EAC20398B28D42A4F8280C1BB2ECD1FB
:1059080022E594F86E3D94F86D2D8DF80530052349
:105918008DF804208DF80630019B94F83E2D304D0B
:10592800A4F8303C1B0C511C012040F2FE3684F8D0
:10593800323C42F6FA7384F83E1D84F82D0CA4F824
:105948002E3C84F82C2C291DA4F82A6C03234FF62E
:10595800FF7001E015F8013B434083EA0313DBB213
:105968001A0982EA102040EA0320A94280EAC3000B
:10597800F0D11A4DA4F8280CE91C15F8013B434056
:1059880083EA0312D2B2130983EA102383EA0223BB
:1059980083EAC20398B28D42A4F8280C1BB2ECD15A
:1059A800F0E694F83D2D86F8C331531C86F8C531CE
:1059B80094F87B2EB4F8403D94F83C1D84F86B2D88
:1059C800A6F8C83194F83A2D86F8C4110023A6F831
:1059D800CA2184F83A3DFEF7CCBF00BF883A0020C0
:1059E800843A002010B40D4B04689C424FF000022A
:1059F80005D913F8011BA34282EA0102F9D1631CFD
:105A08000360227002680649064B426001605DF837
:105A1800044BD3F8180B521A37F028BD2741002041
:105A280024410020582E0020094B242203F2D511CE
:105A3800016010B483F8D421026803F5F373541C91
:105A48005421C0E9004311705DF8044B704700BF52
:105A5800503F00202DE9F041407800F0F003802B02
:105A680082B000F00F0407D0902B15D0A02B2FD0B8
:105A7800002002B0BDE8F0810421002364F07F0417
:105A880068468DF801408DF80010ADF80230FAF73D
:105A98000BFC02B0BDE8F081CB4B04EB440213448D
:105AA80064F06F0093F8FC5693F8FD268DF801001A
:105AB8000621002368468DF802508DF803208DF8E2
:105AC8000010ADF80430FAF7EFFB02B0BDE8F08142
