:020000040800F2
:1000000000000120D5B505085DB60508F1CD03084F
:100010005DB605085DB605085DB605080000000080
:100020000000000000000000000000005DB60508B0
:100030005DB60508000000005DB60508ADAF040818
:100040005DB605085DB605085DB605085DB6050830
:100050005DB605085DB60508D9CB0408EDCB0408EC
:10006000E9CB0408E5CB0408E1CB0408D18B0508F3
:10007000BD8B0508A98B0508958B0508818B0508A4
:10008000718B0508618B05085DB605085DB605082E
:100090005DB605085DB605085DB60508DDCB04084C
:1000A000C983050881840508B9830508A584050866
:1000B000718405085D840508498405085DB6050856
:1000C0005DB605085DB605085DB605085DB60508B0
:1000D0005DB60508798305086D8305086183050809
:1000E000D5CB04085DB605085DB60508A9830508EB
:1000F000FD830508D983050821840508518B05086F
:100100005DB605085DB60508358405085DB60508C9
:1001100055830508498305085DB60508C5590508D6
:10012000418B05082D8B0508198B0508058B0508E3
:10013000F18A050800000000000000000000000037
:10014000000000000000000000000000F16705084A
:10015000DD8A0508C98A0508B58A05083D830508B2
:100160005DB605085DB605085DB605085DB605080F
:100170005DB605085DB6050800000000000000003F
:100180005DB605085DB605085DB605085DB60508EF
:100190005DB605085DB60508000000005DB60508FF
:1001A0000000000000000000000000005DB605082F
:1001B0005DB605085DB605080000000000000000FF
:1001C000000000000000000000000000000000002F
:1001D0000000000000000000000000005DB60508FF
:0801E0002CB105000100000034
:1001E800A44302200208000003012C39C443022062
:1001F8000228010000021F00E4430220022E000032
:0402080000001400DE
:1080000009284FF00103F0B407D903EB83035B00A9
:10801000B0FBF3F2092AF8D84BB30026DFF858C0BA
:10802000ACFB03720D46B0FBF3F4002C03FB140011
:108030004FEAD202D4BF0027012756B94FB9092B06
:108040003E4612D8303405F8014B00232B70F0BCAB
:108050007047092C06F10106CCBF57213021092BAE
:108060000C4405F8014B2946EFD91346D8E70D46D5
:1080700000232B70F0BC7047CDCCCCCCF0B50023E6
:108080000E680DE0BCF1050F17D9BEF1050F18D829
:108090000A2C16D103EB830316F8010B04EB430300
:1080A000A0F13005A0F1610CA0F1410EA0F1370460
:1080B000EFB2092FE6D82C46ECE7A0F157040A2CC2
:1080C000E8D00E601360F0BD2DE9F04F02238A4620
:1080D0008B462DED108B93B0DFEDBB8A0E930346DC
:1080E000109004330F9211934FEADA06109DDDF8D9
:1080F00044C04FEACA0305EB46110D96F0004FF05D
:10810000000E01EB061437010390A6EB86020094E3
:10811000029706EB460804EBC202041D381D06EB6D
:1081200086072C44C6EBC60901972844019D02EB43
:1081300046174FEAC909ED0001EBC60601954FEA63
:10814000081504954FEAC80505950D9D4FEA451899
:10815000009DD1ED006AD64495ED007A96ED003A87
:10816000F34597ED004A1CED015A50ED017A14EDEC
:10817000016A75EE262AD2ED005A35EE665A76EE81
:10818000033A77EE876A36EE436A77EEC77A35EEC2
:10819000847A75EEC45A72EEA64A72EEE62A76EE3C
:1081A000656A33EE874AF0EE451AA6EEE85A34EED9
:1081B000843A74EEC44A36EE256A0CED013AB0EE0C
:1081C000672AC1ED004AE6EEA81AD7ED015AB0EED3
:1081D000453AD5ED010AA6EE282A96ED015AE6EEBB
:1081E000687AD4ED006A33EEC76A92ED014AD0EDA9
:1081F000004A76EEC53A34EE658A91ED010A76EED4
:10820000856A9CED007A34EEE05A34EE254A33EE6E
:10821000881A77EE405A74EEA04AF0EE450A73EEE3
:10822000C83AA1EE685AE1EE280A37EE007AB0EEBD
:10823000651AE3EEE85AA3EEA81A76EE843A76EED3
:10824000C46A37EE244A37EE647A32EEA60A74EE38
:10825000234A72EEE66A34EE634A77EE462ACCEDA4
:10826000004A36EE077A9C4481ED014A71EEA03A4D
:1082700000ED010A33EE054AC5ED006A71EEE04AF1
:10828000C0ED002A33EE455A85ED017A31EE426A9F
:1082900035EEE77A44ED013A72EE016AC7ED004A25
:1082A00077EEA57A86ED004A194482ED005A1D4406
:1082B00084ED006A1844C7ED016A1C4486ED017A1A
:1082C0001F44C2ED017A1E441A443FF642AF0D9A94
:1082D000072A40F2A081039A08F10808109F09F1CB
:1082E00008000832019E049D94463A460836059CD3
:1082F00042440835083402990A9207EB0C020C310B
:108300004FF000080992BA1908927A1907923A199F
:1083100006923A1805927A18039207F10C02049219
:10832000012202920E9ADDF80CC090440F9A049F2D
:1083300002EBC802059EA8EB880E069D02EBC80161
:1083400092ED00DA079C01EBC802D1ED00CA089853
:1083500002EBC80192ED00CA01EBC802D1ED00BAF0
:1083600002EBC80192ED00BA01EBC802D1ED00AA00
:10837000099902EB0E1E92ED00AA0A9A0EEBC809AB
:10838000DEED019A0B9209EBC80299ED019A0C916E
:1083900002EBC80992ED018ADDF808E009EBC8029A
:1083A00099ED010A02EBC809D2ED010AD9ED017A73
:1083B00009EBC802CDED007AD2ED017ADDE90B219F
:1083C000CDED017A02E000BFF304353FD0ED003A75
:1083D000D64492ED007AD4ED007AF34595ED006A2B
:1083E000D6ED006A57ED014A1CED015A91ED004AA5
:1083F00034EE872A74EEC74A97ED00FA35EE277AF5
:1084000074EE232A35EE675A76EE267A72EE07EA84
:1084100036EE666A32EEA73A34EE634A32EE472A07
:108420007EEE836A34EE067AB0EE45EA47ED016AE5
:1084300034EE464AD0ED016AA7EE685A91ED016A22
:10844000A7EE28EAD6ED013AF0EE64DA95ED017A6E
:1084500076EE66FA92ED011A76EE266A37EE636AD8
:108460007FEE415AE4EE28DA72EEE72ADCED007A7C
:10847000E4EE684A94ED014A37EE237A77EEC41AA7
:108480007FEEC63A77EE847A3FEE866AB0EE654AB2
:10849000E3EEE85A3FEE01FAA3EEA84AF0EE613AA5
:1084A000E6EE681A36EE871AE6EE283A36EEC77A16
:1084B0003EEEC33A74EE4EEAB0EE616A7FEE271AE2
:1084C0007FEE677A72EE076A31EEC1FA32EE477AD2
:1084D00037EEE22A72EEA77A7DEEA32A7DEEE33A2A
:1084E00075EEC5DA35EE255A60EE0F5A63EE40FAA6
:1084F0003EEE044AEBEE835A34EE86EA74EEC64A48
:1085000026EEC96AEBEE8FFA9DED00FA71EE811A44
:10851000B0EE653A69EE025AACEE826A9DED002A31
:108520002FEE27FAC7ED001AECEEA65A82ED003ABC
:1085300027EE422AC2ED01FA69EEAE6A1F44AAEEA6
:1085400087FA1A4422EEE97A8CED006AAAEEA72A8D
:10855000DDED017AEDEE226ADDED012AADEE2E7A37
:108560004CED015A67EE847A9C4463EEE22A84ED76
:1085700000FA6EEE60EAEAEE237A84ED012AEAEE72
:10858000042AC1ED006AEBEE2DEA81ED017A60EE7E
:10859000AD3A1C4428EE054A194464EEC8DAEBEE05
:1085A0000E3AC6ED007AACEE244AC6ED012AECEE96
:1085B00005DA1E44C0ED003AC0ED01EA184485ED2D
:1085C000004AC5ED01DA1D443FF600AF0A99029A50
:1085D000083101320A9109990292083109910899EA
:1085E00008310891079908310791069908310691D9
:1085F00005990831059104990831049103990831CE
:1086000003910D9991427FF48DAE0E9B8A46DB005B
:108610009BB20E9368E513B0BDEC108BBDE8F08FF4
:1086200000B5034683B03221074A68468DF8001032
:1086300019689B881268CDF80110ADF80530904795
:1086400003B05DF804FB00BFF8200120204B2DE9AA
:10865000F041002406465D6800F1070806E039464F
:108660001B6898473C444645A4B214D016F8017BD9
:1086700028467D21A7F17D03012B2B68EFD81B68CD
:1086800098472B6887F0200128461B689847E9E740
:10869000E3B203EB1424FF2CFAD8C4F1FF04E4B2D4
:1086A000A4F17D03012B2B6805D9214628461B68C0
:1086B000BDE8F041184728467D211B6898472B6884
:1086C00084F0200128461B68BDE8F041184700BF30
:1086D000F82001200A4AD369F0B41C6800275669C3
:1086E0004FF6F6751981611C9F81C3E90016207051
:1086F000D36951691A689D81C3E90012F0BC7047C3
:10870000F8200120F8B5CE1E0F464FF6FF73023950
:10871000421E0446064412F8015F5B1BB2429BB244
:10872000F9D14354C5191B0A054E05F8013C14F84C
:10873000011B306A42F0C0FCA542F8D1F8B2F8BD86
:10874000F820012070B50B4682B0082460F05F026B
:108750001E14ADF8023000251B0E214668468DF828
:1087600001208DF804608DF805308DF80040ADF8DB
:108770000650FFF7C7FF02B070BD00BF062260F0D1
:108780005F0330B583B00D46002411466846ADF84E
:1087900002508DF801308DF80020ADF80440FFF74D
:1087A000B1FF03B030BD00BF264A274B11680B4014
:1087B000002B0CBF012002204B07536848BF043038
:1087C000D90701D50A3080B29A0701D5143080B29A
:1087D000D90501D5283080B25A0701D5643080B25E
:1087E000190701D5C83080B29A0602D500F5C870C5
:1087F00080B2D90602D500F57A7080B2DA040ED5BF
:1088000000F5FA5080B2990403D542F21072024486
:1088100090B29A0509D50D4B034498B270471905DB
:108820000AD500F5FA6080B2EDE75B0503D544F6A2
:108830002063034498B270475A06E4D500F57A6085
:1088400080B2E0E70000002080FFFF0F409CFFFFA8
:10885000022805D0A0F10100B0FA80F0400970476D
:10886000054B93F82C3023B9044B1868C0F38000F3
:10887000704710202CF0DCBAF82001200000002006
:10888000014B93F864007047F8200120424B0138F7
:10889000F0B4424CC825A36604F16D0204F1A701AF
:1088A0004D2384F86C5027E0DDB25BB2002B33DB44
:1088B0006B00DDB25BB2002B35DB6D00EBB26DB24D
:1088C000002D37DB5D00EBB26DB2002D39DB5D00B2
:1088D000EBB26DB2002D3BDB5D00EBB26DB2002D53
:1088E0003DDB5D00EBB26DB25B00002DB8BF83F0E5
:1088F000D5038A42DBB238D010F8015F6B4002F832
:10890000015B13F0800F4FEA4303CDD083F0D50510
:108910006BB2EDB2002BCBDA6D0085F0D5056BB2F2
:10892000EDB2002BC9DA6B0083F0D5035DB2DBB288
:10893000002DC7DA5B0083F0D5035DB2DBB2002DFA
:10894000C5DA5B0083F0D5035DB2DBB2002DC3DA7C
:108950005B0083F0D5035DB2DBB2002DC1DA5B00B2
:1089600083F0D5035DB2DBB2BEE70D4D402784F83E
:10897000A730A5F1440684F8A8300FCE0FC50FCE5E
:108980000FC50FCE0FC596E80F0085E80F0084F8DD
:10899000EC70F0BC704700BFC83E7BEAF8200120B5
:1089A000A421012000207047F8B5224C94F8ED1066
:1089B000621892F8F020002A3AD000231E4D4A1C7B
:1089C0000133A5FB0261490801EBC101511A62188C
:1089D00092F8F0200AB1092BF1D1CBB284F8ED3036
:1089E00002680C260025571C076001EB4107167032
:1089F000026801EB8701561C066015700D220568A0
:108A00000E4E6F1C314407602B704BF0E1FB94F865
:108A1000ED100120084B0A182144A3FB025381F8F2
:108A2000F000C34003EBC303D31A84F8ED30F8BD64
:108A30000B46D5E7F8200120398EE338F4210120D8
:108A400038B50D460446FF2100682A4658F05CFD03
:108A500022682A44226038BD02680E2170B5561C77
:108A60007F250024066015700268551C056014708F
:108A7000FFF7E6FF012070BD30B53B4C85B094F8A0
:108A80007131012B01D005B030BD94F8720102287C
:108A900026D0A0F10100B0FA80F0400948B3636825
:108AA000002BF0D1D4F87421002AECD094F83400D3
:108AB000032594F82D10002892F9040001954FF435
:108AC000614214BF0825002500921A46002908BFFC
:108AD00045F00105202102952BF034F96060D2E7C2
:108AE00094F82C303BBB214B1868C0F38000002861
:108AF000D5D16268002AC6D0D4F87C3193421FD009
:108B0000D4F888319A4224D0D4F894319A4216D0BD
:108B1000D4F8A0319A421ED0D4F8AC319A421CD07D
:108B2000D4F8B8319A421AD0D4F8C4319A4218D045
:108B300000236360A7E710202CF07AF9AEE702204B
:108B400000EB4000002104EB8003D162C3E95F1118
:108B5000EEE70120F4E70320F2E70420F0E7052028
:108B6000EEE70620ECE700BFF8200120000000201F
:108B700070B51C4E632200211B4D96F8D4014CF0B9
:108B80001BFAB6F8F831194E0446333B092200218E
:108B900086FB0360DB17C3EB20104CF00DFA642159
:108BA000AA68C0F1090301FB0340910784B202D512
:108BB00004F57A74A4B2D20702D504F5FA64A4B21B
:108BC0002B685B0701D4204670BD15202CF030F9CE
:108BD0000028F8D06B6813F4016FF4D104F57A64BF
:108BE000A4B2F0E7F8200120000000201F85EB511F
:108BF00010B5044CA36843F08003A3602CF092F8F6
:108C0000608210BD0000002038B5074CB4F86452F3
:108C10002CF088F8854204DDB4F86422034B5A82B4
:108C200038BDBDE83840E3E7F8200120000000200F
:108C300008B5FFF7E9FF002008BD00BF2DE9F047A8
:108C4000764C82B0E56900AFD5E900535B1B002B81
:108C500040F3A280002384F88C32714D4FF0000C59
:108C6000A5F1140205F1800305F5C07E25611646C5
:108C7000C4F87C52C4F88052C4F81034C4F81434D8
:108C8000C4F81CE0C4E90532421800F10109C4E946
:108C9000029203785909012940F0868003F00F08F9
:108CA00013F0100311D1BCF1000F00F0968094F87E
:108CB0002114013101F00F0141457ED018460837DB
:108CC00084F88C32BD46BDE8F087821CC31C256940
:108CD0004FF0000CA2604278A3608078AB1835603A
:108CE0004240736084F88C1284F820243081A6F806
:108CF0000CC0D4E90292A2EB0902A3EB050AD5B29B
:108D00005FFA8AFAEB1DAA4503F4FC73ADEB030D81
:108D100068D252464946684658F0FAF909EB0A0308
:108D2000524630466946A3604BF052FA23693068D8
:108D300094F820248342C6E9003009D0013333601F
:108D4000984213F8011C82EA0102F7D184F820242A
:108D5000A3681B78934233D12169002370603A1DC8
:108D60003160E16960690B8148608B81A06984F89A
:108D70008C327B6036F00CF9013047D07B680BB148
:108D800000209847E3690120616908371A68C3E940
:108D90000012BD46BDE8F08794F88CC2BCF1000F0C
:108DA0003FF45BAFA6696FE700210846FFF792FC2E
:108DB00001200837BD46BDE8F087D6E900539AE7A1
:108DC0000023B6F90810012084F88C32FFF782FCEA
:108DD00001200837BD46BDE8F08760460837BD462C
:108DE000BDE8F0872A464946684658F091F909EBF4
:108DF000050330462A466946A3604BF0E9F9002096
:108E0000083784F82184BD46BDE8F087E269022175
:108E10001368581C10601970B0E700BFF8200120DB
:108E2000882301202DE9F041064600200F462DED54
:108E3000048B58F009FD002800F098804E4D9FEDFE
:108E40004F7AD5ED077ADFF84081F0EEE76AF4EE6D
:108E5000C76AF1EE10FA57DDB8F86032D5ED088A2E
:108E600007EE103AD5ED096AB8EEC77A86EEA79AF2
:108E7000F4EEC78AF1EE10FACCBF012400242CF0E6
:108E8000B1FA98F875329FED3E7AB0EE408A07EE5F
:108E9000903A04F00104F8EEE77A27EE870A4CF0E6
:108EA0006DF9B8F85E32B4EEC08A07EE903AF8EE8B
:108EB000E77AF1EE10FAF4EEC97AB8BF0024F1EEC9
:108EC00010FA48D5F5EEC08AF1EE10FA43DDFFF74F
:108ED0009BFEB8F86242D5E90B01301A67EB01013D
:108EE00052F052F9DFED277A07EE100A67EE277A83
:108EF000BDEC048BFCEEE77A17EE900A84422CBF9F
:108F000000200120BDE8F081B8F8603295ED087AC4
:108F100007EE903AF8EEE77AB4EEE77AF1EE10FA5F
:108F2000CCBF012400242CF05DFA98F87532B0EE25
:108F3000408A9FED137A07EE903A04F00104F8EEB0
:108F4000E77A27EE870A4CF019F9B4EEC08AF1EE01
:108F500010FAB8BF0024FFF757FE002CB9D1204605
:108F6000EE622F63BDEC048BBDE8F081BDEC048B99
:108F70000420BDE8F08100BF00000020F366DF3F61
:108F800035FA8E3C6F12833AF820012038B5002064
:108F900058F05AFC48B10E4CB4F864522BF0C2FEA3
:108FA00085420CDD0124204638BD04462BF0BAFE74
:108FB000FFF71EFE074B204683F8354038BD94F876
:108FC00074220224034B204683F8352038BD00BFAD
:108FD000F8200120000000202DE9F04F324D83B031
:108FE000324C1F46B5F9221405F5866AB5F828C437
:108FF00084FB0164C9171646B5F824B4C1EBA4017B
:109000008CB2A44516D1D5F83014D5F83434B2EB6F
:109010000108274AB5F8381467EB030900234B45CC
:1090200008BF424534BF01230023594518BF43F010
:109030000103A3B3036834210022019003F1010C62
:10904000C0F800C019702146036803F1010CC0F894
:1090500000C01A704BF0EAF8594601984BF0E6F858
:1090600047F6FF7101984BF0E1F847F6FF71019860
:109070004BF0DCF847F6FF7101984BF0D7F847F654
:10908000FF7101984BF0D2F801980221FFF7D8FC4C
:109090000123A5F82844A5F838B4CAE900671846A2
:1090A00003B0BDE8F08F00BFF82001206766666658
:1090B00080841E00604AD36B2DE9F041054613F011
:1090C000800000F09B80906810F0020000F0968015
:1090D000DFF874E19EF8D411052940F293806329EA
:1090E00000F28E80002089B2544F0646A7FB013C57
:1090F000C3B20C4601304FEADC0C9A00092C0CEB91
:109100008C03A1EB43031FFA8CF19BB203FA02F329
:1091100046EA0306EAD8F6B2DEF8E031484AD91743
:1091200082FB0323C1EB633399B2002900F08280F4
:109130000024DFF808C12046ACFB0138E3B20F463B
:1091400001344FEAD8089A00092F08EB8803A1EBF5
:1091500043031FFA88F19BB203FA02F340EA0300CB
:10916000EAD8C4B24FF4F362BEF8F031354942F2A6
:109170000F7713FB02F381FB0312D917C1EBA21186
:1091800089B2B94241D8D1B10020DFF8B0E007463A
:10919000AEFB0138C3B28C4601304FEAD8089A00C2
:1091A000BCF1090F08EB8803A1EB43031FFA88F118
:1091B0009BB203FA02F347EA0307E9D8B9B22B6876
:1091C000172000225F1C2F60187028462B685F1C38
:1091D0002F601A704BF02AF84FF0FF3128464BF001
:1091E0000FF82B68284606215A1C2A601E702B682F
:1091F0005A1C2A601C70FFF723FC0120BDE8F08197
:10920000992689E70020BDE8F0810020DFF82CC016
:109210000146ACFB0732D20802EB8203A7EB430303
:1092200097B29BB283400430102841EA0301F0D189
:1092300089B2C4E70C4695E700000020CDCCCCCC29
:1092400089B5F814D34D6210F8200120C64AD36BBB
:109250002DE9F04F814613F0800083B000F0778154
:10926000906810F0020000F07281DFF81CA39AF8F9
:10927000D431052B40F27281DAF8D831BB4C002B87
:109280000093BB48B8BF5B42BA49A4FB0352920D9E
:1092900000FB023302EB8202C3EB031302EB8202F8
:1092A0009B0084FB0354DD17C5EBA45500FB05337D
:1092B00005EB820581FB0321ADB2DB17C3EBA111E6
:1092C000C5B10020AC4F0446A7FB053CC3B22E46F7
:1092D00001304FEADC0C9A00092E0CEB8C03A5EB55
:1092E00043031FFA8CF59BB203FA02F344EA03042A
:1092F000EAD8250489B2C1B100209F4F0446A7FBDC
:10930000013CC3B20E4601304FEADC0C9A00092E34
:109310000CEB8C03A1EB43031FFA8CF19BB203FA15
:1093200002F344EA0304EAD82543DAF8DCB18F4CAF
:109330008BEAEB738E488F4AA3EBEB73A4FB0361BC
:10934000890D00FB013301EB8101C3EB031301EB3A
:1093500081019B0084FB0364DE17C6EBA45600FB6F
:10936000063306EB810682FB0312B6B2DB17C3EBB2
:10937000A212CEB10021804F0846A7FB063ECBB219
:10938000344601314FEADE0E4FEA830C092C0EEB16
:109390008E03A6EB43031FFA8EF69BB203FA0CF37F
:1093A00040EA0300E9D8060492B2CAB10021724F24
:1093B0000846A7FB023ECBB2144601314FEADE0E4F
:1093C0004FEA830C092C0EEB8E03A2EB43031FFA2A
:1093D0008EF29BB203FA0CF340EA0300E9D806438D
:1093E000DAF8E031644A002B18460193B8BF5842BE
:1093F000624C6349A2FB0030030AA4FB0343DB0970
:1094000001FB03F1C1EBD00189B2C1B10024964642
:109410002746AEFB013CE3B20A4601344FEADC0CBE
:109420009800092A0CEB8C03A1EB43031FFA8CF183
:109430009BB203FA00F347EA0307EAD8B9B2BAF8D5
:10944000F281B8F1000F1AD00024DFF82CE1274692
:10945000AEFB083CE3B2424601344FEADC0C980014
:10946000092A0CEB8C03A8EB43031FFA8CF89BB280
:1094700003FA00F347EA0307EAD81FFA87F8BAF8B5
:10948000F8313D4AA2FB0307FF08632F28BF63277B
:10949000092B67D94FF0000C92466046AAFB073EA5
:1094A0005FFA8CF33A460CF1010C4FEADE0E9C0099
:1094B000092A0EEB8E03A7EB43031FFA8EF79BB22C
:1094C00003FA04F340EA0300E8D8C4B2009B019A0F
:1094D000002BCCBF39233823BBF1000F4FEA2267A2
:1094E00038DD27F07F07274A3B43934543F00207C7
:1094F000C8BF43F00607D9F800301620002203F158
:10950000010CC9F800C018704846D9F8003003F1C2
:10951000010CC9F800C01A704AF088FE2946484676
:109520004AF06EFE314648464AF06AFE48464146D9
:109530004AF07CFED9F8003001201A18C9F8002042
:109540001C70D9F800301A18C9F800201F7003B039
:10955000BDE8F08F27F07F071F43CCE7002003B062
:10956000BDE8F08F0024B1E7000000206BCA5F6BFC
:10957000806967FFD34D6210CDCCCCCCC55A7C0A34
:10958000A0860100FFC99A3BF82001200368002251
:109590004FF6FF7170B57E255E1C044606601D7097
:1095A00003685D1C05601A704AF01CFE0D4B93F8B1
:1095B000323083B126F002F8014620464AF012FE0E
:1095C000204647F6FF714AF00DFE20460821FFF7BE
:1095D00037FA012070BD26F007F8014620464AF010
:1095E00001FEEDE7F820012070B5044600200D468D
:1095F0002DED028B58F028F9002853D02B4ED6E9D8
:109600000B01201A65EB010151F0BEFD9FED280A08
:1096100007EE900A40F2DC5327EE800ABCEEC00A47
:1096200010EE102A9A4237D8224CB8EEC08A2BF09E
:1096300079FB07EE900AB4F86432F8EEE71A9FED72
:109640001E1A02EE103AB0EE480ADFED1C0AB8EE20
:10965000422A4BF087FCF0EE407A94F87432B0EE78
:10966000480ADFED161AFDEEE77A02EE103AF0EE48
:10967000610A9FED111AB8EE422A17EE903A7382F2
:109680004BF070FCFCEEC07A0020BDEC028B17EEB4
:10969000903A86F8353070BDFFF7B6FA0120BDEC80
:1096A000028B70BDBDEC028B042070BD0000002059
:1096B0006F12833AF82001200080BB4400000000B4
:1096C000F0B5334D334FD5E90B322DED028BC01A77
:1096D00083B09FED318A61EB020151F055FD07EE39
:1096E000900AB7F86C6227EE888A2FF08FFD002869
:1096F00049D1BCEEC88A18EE103A9E4204D201202D
:1097000003B0BDEC028BF0BDB5F9123007EE906AE4
:10971000B8EEC88ADFED210A02EE103AB7F86632D9
:10972000B8EE671A044601EE903AB8EEC22AB0EEDF
:10973000480AF8EE611A8DED011A4BF013FC97F808
:109740007432FDEEC07AB5F90E2001EE903AB0EE1B
:10975000480A02EE102A9DED011A17EE903AF8EE33
:10976000611AB8EEC22ADFED0D0A6B824BF0FAFBEC
:10977000FCEEC07A204617EE903A85F8353003B0FB
:10978000BDEC028BF0BD032003B0BDEC028BF0BD3D
:1097900000000020F82001206F12833A0000000032
:1097A0002DE9F041274E284DD6E90B32C01A61EB66
:1097B000020151F0E9FCDFED257A07EE100AB5F859
:1097C0006832B5F86E2267EE277AFCEEE77A17EE7C
:1097D000904A234493422ED8B5F86A72B5F866824F
:1097E000A74204D20120A6F81280BDE8F0812BF038
:1097F00099FAB5F8643207EE908ADFED150A9842BF
:10980000B8EE672A07EE907AB8BF1846B8EE671A26
:1098100007EE904A83B2B8EEE70A01EE903AF8EE0E
:10982000611A4BF09FFBBDEEC00A002010EE103A0B
:109830007382BDE8F0812FF0E9FC0028CCD0032032
:10984000BDE8F08100000020F82001206F12833A6B
:109850000000000070B504460D46FFF7D5F9124B25
:10986000124ED3E90B01201A65EB010151F08CFC7B
:10987000DFED0F7A07EE100AB6F86E3267EE277A40
:10988000FCEEE77A17EE904A9C4206D8B6F86802DA
:10989000A0422CBF0020012070BD2FF0B7FC002893
:1098A000F4D0032070BD00BF00000020F82001208C
:1098B0006F12833A154BDB68C3F3022310B4C3F174
:1098C00007041A1D042C28BF0424062A4FF0FF3277
:1098D0008CBF033B0023A240002821EA020101FAC9
:1098E00003F108DB09010A4BC9B2034483F80013F2
:1098F0005DF8044B704700F00F000901054BC9B239
:10990000034419765DF8044B704700BF00ED00E09A
:1099100000E100E0FCEC00E038B50D4B0D4A1B689F
:10992000A2FB03239B09013BB3F1807F09D20A4AC2
:10993000F0250A4C00200721536084F823509060E2
:10994000116000214FF0FF30FFF7B4FF002038BD59
:1099500000000120D34D621010E000E000ED00E0B7
:10996000334A0023334910B4C2F854344CF2503413
:10997000D2F8580404E0D2F858341B1AA34210D885
:10998000CB68DB03F7D4CC6814F4F9740DD1C86844
:1099900010F0010002D001232046CB605DF8044B9B
:1099A000704703205DF8044B7047CB68990705D5D5
:1099B000D2F8543443F02003C2F854341D4BDB6812
:1099C000DB0605D5D2F8543443F01003C2F8543402
:1099D000184BDB689C0605D5D2F8543443F00803D5
:1099E000C2F85434134BDB68580605D5D2F854340A
:1099F00043F00403C2F854340E4BDB68190605D556
:109A0000D2F8543443F00203C2F85434094BDB68F3
:109A1000DB0505D5D2F8543443F04003C2F8543482
:109A2000044B4FF4F97201205DF8044BDA60704783
:109A3000F8200120003C024000F01F0240090123F1
:109A4000032803FA02F304D0042807D002280AD01E
:109A50007047074A116C0B4313647047044A116B3B
:109A60000B4313637047024A516C0B4353647047B6
:109A700000380240F0B5ADF5815D00230F46014688
:109A800081B0FD2614463A460DF5815004AD03938E
:109A90000095CDE901036846ADF808604AF098FBEF
:109AA000009B694602222046CDE9005328F0A8F821
:109AB0000DF5815D01B0F0BD2DE9F047041E0D46A6
:109AC00012DB092C26DC0B46814A82480021A0FBD0
:109AD00004605970C00800EB8000A4EB4000125CE9
:109AE00028461A70BDE8F08764422D23092C01F83E
:109AF000013B24D8764A774B0020A3FB04634870CF
:109B00002846DB0803EB8303A4EB4303D35C0B7011
:109B1000BDE8F0876F4B632CA3FB04264FEAD60603
:109B200021DC0B466A4A6B49A1FB0601C90801EB1F
:109B30008101A6EB4101515C03F8011BC5E7654AB1
:109B4000632CA2FB04364FEAD60637D8604A614B35
:109B5000A3FB0603DB0803EB8303A6EB4303D35C01
:109B600001F8013BC7E7A3FB0627B4F57A7F4FEA6C
:109B7000D7070DD20B46564A5649A1FB0701C90823
:109B800001EB8101A7EB4101515C03F8011BCAE71E
:109B9000A3FB072842F20F7294424FEAD80836D846
:109BA0000B464B4A4B49A1FB0801C90801EB810157
:109BB000A8EB4101515C03F8011BDDE7A2FB06376E
:109BC000B4F57A7F4FEAD7070CD2414A414BA3FB49
:109BD0000703DB0803EB8303A7EB4303D35C01F824
:109BE000013BB4E7A2FB073942F20F739C424FEAF4
:109BF000D90921D8364A374BA3FB0903DB0803EB0D
:109C00008303A9EB4303D35C01F8013BDEE7A3FB2D
:109C10000829314A94424FEAD90921D80B462C4AE7
:109C20002C49A1FB0901C90801EB8101A9EB410104
:109C3000515C03F8011BB5E7A2FB093A264B9C4295
:109C40004FEADA0A21D8224A224BA3FB0A03DB0897
:109C500003EB8303AAEB4303D35C01F8013BCAE7A0
:109C6000A3FB09231D4A94424FEAD30A21D80B468D
:109C70001849174AA1FB0A01C90801EB8101AAEBA7
:109C80004101515C03F8011BCAE7A2FB0A38134BE0
:109C90009C424FEAD80813D80E4B0D4AA3FB080389
:109CA000DB0803EB8303A8EB4303D35C01F8013B20
:109CB000CAE70A22BAFBF2F049F0E0FF0346D7E711
:109CC0000A22B8FBF2F049F0D9FF0146E4E700BFF1
:109CD000A8940608CDCCCCCC9F8601003F420F0053
:109CE0002DE9F0471D4688B0531C0F4603931178A9
:109CF000002900F0D28000240646A0460BE0701C2C
:109D000001D03046B8470134039A531C03931178AD
:109D1000002900F0C3802529F1D1931CCDE9033837
:109D200050782D2800F0AF804FF0000A302800F066
:109D30009180A0F130034FF00009DBB2092B40F213
:109D400096806C2835D0782800F2F480572827D9DF
:109D5000A0F15803202B00F2ED80DFE813F005019D
:109D6000EB00EB00EB00EB00EB00EB00EB00EB009B
:109D7000EB00EB00DD00ED00EB00C400EB00EB00BE
:109D8000EB00EB00EB00EB00EB00E600EB00EB0080
:109D9000EB00EB00B600EB00A300EB00EB000501CD
:109DA00000287BD0252840F0C580731CABD025212E
:109DB000A7E7039B5A1C039219787829A5D857293D
:109DC00067D9A1F15803202B9FD801A050F823F0A8
:109DD000459F00080B9D00080B9D00080B9D000887
:109DE0000B9D00080B9D00080B9D00080B9D0008B3
:109DF0000B9D00080B9D00080B9D0008199F000893
:109E00005D9F00080B9D0008E79E00080B9D000861
:109E10000B9D00080B9D00080B9D00080B9D000882
:109E20000B9D00080B9D00082D9F00080B9D00084E
:109E30000B9D00080B9D00080B9D0008CB9E0008A1
:109E40000B9D0008A59E00080B9D00080B9D0008B7
:109E5000459F0008039B4FF0010903EB09020392A1
:109E60001878A0F13003DBB2092B3FF66AAF04AAE1
:109E700003A9FEF703F9BAF1000F3FF462AF049BA8
:109E80005B4204935DE7D31C4FF0010A0393907883
:109E90004CE719B1252988D037E70C46204608B091
:109EA000BDE8F08705A955F8040BFEF7A9F805AB46
:109EB0003A464FF0FF3130460193CDF80090049BB5
:109EC0004AF098FC039A04441FE755F804CB3A463D
:109ED000049B4FF0FF313046CDE9008C4AF08AFCFC
:109EE000039A044411E7073525F00705F5E8020158
:109EF00051F012F800EE100A05A849F04DFE05AB2E
:109F00003A464FF0FF313046CDE90093049B4AF0CA
:109F100071FC039A0444F8E6721C3FF4F4AE55F861
:109F2000041B3046C9B2B847EDE6039A55F8043B26
:109F30001C60EAE6039AE8E605A955F8040B49F027
:109F4000B5FEB4E7A1F1580205AB102155F8040B9A
:109F5000B2FA82F2520949F0EFFEA8E705A955F8D6
:109F6000040B49F0A3FEA2E7A0F1580205AB1021B3
:109F700055F8040BB2FA82F2520949F0DDFE96E779
:109F80002DE9F84F064640689146A94F028A884657
:109F9000D6F80CB002F00F01C2F30212DBF8043065
:109FA00057F8224007EB810114F5803FD1F820A03B
:109FB00000F09D803A19B4F1000C9E4992F840508F
:109FC00018BF4FF0010C591A5A5918BF012122F03D
:109FD00001025A5100297BD1BCF1000F78D1964A79
:109FE00000214FF0210C116051609160D16011612E
:109FF000C2F814C05A5922F0F0525A513F229A60C6
:10A000004379032B00F2BA81DFE803F05F5C590269
:10A010000568403558463C444EF024FD0A23ABF811
:10A020001C30D6F80CB058464EF01CFD834B032173
:10A030009BF91400CBF80C30CBF81860FFF73AFC12
:10A040009BF9140050F0E8F9F26894F84030526837
:10A050007B48D458D11820407A4C04437A48D450D5
:10A060004C6944F0070C7468C1F814C052F803C07E
:10A070002CF0C07C42F803C052F803C02CF4C00C92
:10A0800042F803C0C1F80C808D604D68284040EA5A
:10A0900009004860D15821F0F05141EA0A01D1503D
:10A0A000A379326813F0040F637950681F4497F85E
:10A0B000481017D04FF02EFA0120BDE8F88F056840
:10A0C0003C35A7E705683835A4E705683435A1E7CE
:10A0D0005E4A9A1A18BF0122BCF1000F17D1B2B91B
:10A0E0005B4A7DE74FF070FB0120BDE8F88F514AD5
:10A0F000934228D0554A934282D1564B1A6942F472
:10A1000080021A611A6922F480021A6178E7B4F1B8
:10A11000010C18BF4FF0010CF9B9BCF1000F1CD1B4
:10A120004D4A00214FF0210C116051609160D160C7
:10A130001161C2F814C05A5922F0F0525A514FF42A
:10A1400074629A605CE7434B1A6942F400121A6128
:10A150001A6922F400121A6152E722B9BCF1000F09
:10A1600001D13E4ADDE7B4F1020C18BF4FF0010CFB
:10A17000A9B9BCF1000F12D1394A00214FF0210CCE
:10A18000116051609160D1601161C2F814C05A59D8
:10A1900022F0F0525A514FF47C129A6030E722B903
:10A1A000BCF1000F01D12F4AE7E7B4F1030C18BF4F
:10A1B0004FF0010CA9B9BCF1000F12D12A4A0021BD
:10A1C0004FF0210C116051609160D1601161C2F8B3
:10A1D00014C05A5922F0F0525A514FF074629A60EA
:10A1E0000EE722B9BCF1000F01D1204AE7E7B4F134
:10A1F000040C18BF4FF0010CA1B9BCF1000F11D134
:10A200001B4A00214FF0210C116051609160D16018
:10A210001161C2F814C05A5922F0F0525A513F222B
:10A22000DA60EDE642BBBCF1000F25D1114AE8E748
:10A230007018060800600240106002407176050840
:10A240001F80FCFF405402000000FFFF006402403A
:10A250001064024000380240286002402864024036
:10A26000406002404064024058600240586402402E
:10A270007060024070640240B4F1050C18BF4FF0EA
:10A28000010CA9B9BCF1000F12D13D4A00214FF0D9
:10A29000210C116051609160D1601161C2F814C04D
:10A2A0005A5922F0F0525A514FF47462DA60A7E61C
:10A2B00022B9BCF1000F01D1324AE7E7B4F1060C34
:10A2C00018BF4FF0010CA9B9BCF1000F12D12E4AF2
:10A2D00000214FF0210C116051609160D16011613B
:10A2E000C2F814C05A5922F0F0525A514FF47C125D
:10A2F000DA6085E622B9BCF1000F01D1234AE7E715
:10A30000234A934214D1072C12D1224A00214FF044
:10A31000210C116051609160D1601161C2F814C0CC
:10A320005A5922F0F0525A514FF07462DA6067E6DF
:10A33000194A00214FF0210C116051609160D160E9
:10A340001161C2F814C05A5922F0F0525A51002C2F
:10A350003FF454AE012C3FF4F2AE022C3FF41BAF9D
:10A36000032C3FF43AAF042C3FF459AF052C9BD09B
:10A37000062CBBD0072C7FF443AED5E7002549E679
:10A380008860024088640240A0600240A0640240ED
:10A3900000600240B8600240B8640240014B58605F
:10A3A000704700BF50280040014B5868704700BFFD
:10A3B000502800400E48D0F8743610B5A3B190F87C
:10A3C0006C4400F25C40D3F8042234B100244023F2
:10A3D00001214BF097FB204610BD4FF40073012183
:10A3E0004BF090FB204610BD0224204610BD00BF5C
:10A3F000F82001202DE9F047BF4B0321BF4C4FF05F
:10A40000A04088B0402584F8491A1A6BC4F8900619
:10A41000042042F00102C4F8940604F25C401A637E
:10A420001A6B04F5D263C4F88C0A4FF4C05002F0E2
:10A430000102C4F88C360223C4F8A4560292002507
:10A440000A220691029903A9C4F8A836C4F89C36DA
:10A45000C4F8C056C4F8A056C4F8B056C4F8AC56F8
:10A46000C4F8BC56C4F8B45605950792CDE9030369
:10A47000A3484FF0BFFED4F8BC36012B00F0948106
:10A480009D4B062143205A6B42F080025A635A6B5F
:10A4900002F080020092009A5A6C42F480425A64A0
:10A4A0005B6C03F480430193019BFFF703FAD4F83C
:10A4B00090560822934B9A60AB68D4F8A82623F0F4
:10A4C0000103D4F8A066012AAB6040F03981AA6B81
:10A4D0008D4B22F48032D4F8C416AA630129EA68AD
:10A4E00003EA0203EB60EB6823F44013EB6000F037
:10A4F000568128464EF07AFE012E07D1AB6843F014
:10A500000603AB60AB6843F02003AB60D4F8903631
:10A5100032200125DA6822F0C042DA60DA6842F0BF
:10A520008042DA604FF0ECFF784A0021134608467B
:10A5300083F83810D987013183F839500F2983F80F
:10A540003B00D864C3E9100003F11C03F0D10021E3
:10A55000D4F89036084682F8F81101F14005D18709
:10A56000013103EB850582F8F9010F2982F8FB011F
:10A57000C2F80C02C2E9800002F11C026860EAD154
:10A580009A6BD4F8BC6642F40012D4F89456D4F80E
:10A590009CE6D4F8A0C6D4F8A816D4F8AC769A6392
:10A5A0005EB99A6B22F400129A631A6842F0400274
:10A5B0001A601A6842F080021A600020012903F52F
:10A5C0000062C3F8000ED3F80008C3F8000800F0DA
:10A5D000D1800329D3F8001838D041F00301C3F823
:10A5E00000184FF484604A49186101E0013902D033
:10A5F00018698006FAD410204549186101E0013934
:10A6000002D01869C006FAD400214FF0FF30116162
:10A6100051619061D1610DB303F510604FF0904A24
:10A620004FF0FF098E4609E0C0F800E00131C0F8A4
:10A6300010E0C0F808902030A94253D0D0F8008034
:10A64000B8F1000FF0DAC0F800A0EFE7BEF1000F9C
:10A65000C5D041F00101C3F80018C2E71169BCF18F
:10A66000010F21F48071116175D000206FF08041DD
:10A6700098615961BCF1000F03D1996941F0100153
:10A68000996198692349014399611FB1996941F022
:10A6900008019961012E03D198691F49014399610D
:10A6A0000120D4F8B416814284F8490A69D053686D
:10A6B000032043F0020353604FF022FFD4F890369A
:10A6C000802200205A625A6A42F480029A625A6AD0
:10A6D000996A02EB114242F40002C3F8042108B067
:10A6E000BDE8F087002003F530614FF0904A4FF04D
:10A6F000FF0986461CE000BF00380240F820012018
:10A700000000024000E100E0BFFFBDFF88270120FC
:10A71000400D030000383C8004000040C1F800E018
:10A720000130C1F810E0C1F808902031A84295D05E
:10A73000D1F80080B8F1000FF0DAC1F800A0EFE71F
:10A74000EB68284643F04003EB604EF04FFD4FF4BA
:10A750008033AB63D0E619480025194910636FF0C8
:10A760008040D2F830C04CEA01011163116B9D6149
:10A77000586186E7D3F80018BEF1000F7FF469AF87
:10A780002DE70020C4F8841A0E4984F87C0A9869E1
:10A7900040F000609861586D0143596587E7EB68A8
:10A7A00043F48013EB60A4E64FF4007303A906485A
:10A7B0000393CDE904554FF01DFD61E600018000D3
:10A7C000030001000300001000000240037870B491
:10A7D00033B30246C0F10105531912F8014FDBB241
:10A7E000002CF9D101335B00DAB20F4C03250B804A
:10A7F00084F8902A84F8915A017879B102230026CE
:10A800005A1CE518023354FA82F285F8901ADBB22A
:10A8100082F8906A10F8011F0029F1D170BC7047CE
:10A8200002221346E1E700BFF8200120002170B5A5
:10A830000124084642F06CF8002120464FF40676C9
:10A8400042F066F80E4B0F4D012118461BB1DE8019
:10A850001C7240F097FC032C08D055F824300121DD
:10A8600001341846002BF2D1032CF6D10021084602
:10A8700042F04EF800210120BDE8704042F048B897
:10A88000B02E0120BC18060899B10A6B824216D975
:10A89000154BD3F80C2E914221D34C3991421ED343
:10A8A0000B6B9842F9D38B6B9842F6D80B4618463F
:10A8B00070470D4BD3F80C1E0A6B904212D30B68F5
:10A8C0000BB9F4E70A6B90420B4602D38A6B9042B5
:10A8D000EDD951F84C3F002BF4D1184670470023B6
:10A8E000184670470A46D8E7F82001202DE9F047BE
:10A8F000CC0143D1034622494FF0FF32022443F8F2
:10A90000081B7E2642601846DFF878802644051D25
:10A910006FF07047D8F8109E4FF0010A013E49468B
:10A9200008E0A3421CD0631C45F8043C321B1C46C3
:10A930000435CAB10B6BA34202D88B6BA34204D27D
:10A940002046FFF7A1FF014690B10A794B6B002A20
:10A95000E7D1A34204D0E6D2631C45F8042CE5E716
:10A96000631C45F8047CE1E7C8F8101EBDE8F087D9
:10A97000321B631C494645F804ACD8E78026C3E780
:10A98000F8FFFF0FF820012090F91030134A03EB75
:10A99000830370B50C46816802EB830305468A0782
:10A9A0005E6810D5A3683046D4E900124EF014F862
:10A9B0003046E168D4E904234EF00EF8AB689B07FB
:10A9C00006D5012070BD406940F0D6FB00BFE9E725
:10A9D00000BF686941F086F8012070BD00000120C9
:10A9E000804BB3FBF2F399420DD300234FF07E521C
:10A9F000436002608360C36003610023836143613D
:10AA00000362C361704707EE902A9FED777AF8EEF4
:10AA1000676A07EE901AF8EE677A66EE876A66EE66
:10AA2000A76AFDEEE67A17EE903A2033402B00F24B
:10AA3000CA80DFED6E7AF4EEE76AF0EE667AF1EE48
:10AA400010FA0CDDDFED6A5A9FED6A6AB0EE677AA4
:10AA500077EEE57AB4EEC67AF1EE10FAF6DC9FED09
:10AA6000667AF4EEC77AF1EE10FA0CD5DFED605A93
:10AA70009FED626AB0EE677A77EEA57AB4EEC67A99
:10AA8000F1EE10FAF6D49FED5E7AF4EEC77AF1EEAD
:10AA900010FA00F390809FED5B7AF4EEC77AF1EE46
:10AAA00010FA03D59FED547A77EE677A27EEA76AFE
:10AAB000DFED555ADFED554AB6EE007A9FED545A58
:10AAC000E6EE254ADFED535A27EE864AA6EE245AD3
:10AAD000E6EE055AE4EE257A27EE877A9FED486A7E
:10AAE00076EE867AFDEEE75A15EE903A2033402B4B
:10AAF00066D8F4EEC66AF1EE10FA0CDDDFED3C5AD2
:10AB00009FED3C6AF0EE676A77EEE57AF4EEC66A8E
:10AB1000F1EE10FAF6DCDFED386AF4EEE67AF1EEEB
:10AB200010FA0CD5DFED325A9FED346AF0EE676A09
:10AB300077EEA57AF4EEC66AF1EE10FAF6D4DFED00
:10AB4000306AF4EEE67AF1EE10FA3FDDDFED276AC7
:10AB500076EEE77A67EEA76A9FED2B6A9FED2B5A98
:10AB6000F8EE004ADFED2A5AA6EE865A9FED296AD2
:10AB700027EEA64AE6EE855AA6EEA56AE4EE067A28
:10AB800067EEA47AC7EE006AB7EE006A76EE865AE0
:10AB900076EE666A86EE257A67EE277A80ED007A91
:10ABA00066EE876A80ED027AC0ED017AC0ED037A25
:10ABB000C0ED046A21E79FED0D7A77EE677A75E7BD
:10ABC000DFED157ADEE79FED147A87E7DFED0D6A9A
:10ABD000F4EEE67AF1EE10FABCD5DFED076A76EE18
:10ABE000E77AB7E720A1070027D4D236DB0F494028
:10ABF000DB0FC940E4CB1641DB0F49C0E4CB16C1E3
:10AC0000DB0FC93FDB0FC9BF9A7C2E36FAAF4FB9B5
:10AC10003587083CA4AA2ABE000000000023024A8F
:10AC2000036042608360704783F9223E0021034A3B
:10AC3000034B016042608360704700BF5B128B3A38
:10AC40006F12033B6428034BB8BF6420C3F834037E
:10AC5000704700BF00000120034B64281B6CB8BF85
:10AC60006420D860704700BF000000202DE9F04745
:10AC700090B00E460746914601A83C2200219A4614
:10AC80001A9DDDE9184856F03FFC2E4B8DF8046004
:10AC9000CDF834800293002E4FD0B31E012B4ED935
:10ACA000042E14BF00220322DFF89C8001238DF8BC
:10ACB0000520D8F8582E039414448DF83130CDE98E
:10ACC00005570494B9F1000F2CD198F85E3E00228C
:10ACD000012B0E921BD898F85DCE013301ACCCEB62
:10ACE0000C1588F85E3EBCFA8CFC08EB85054FEA33
:10ACF0005C1C05F566650FCC0FC50FCC0FC50FCCDE
:10AD00000FC594E8070085E8070088F85DCE3B682A
:10AD100083B153464A463146384610B0BDE8F04745
:10AD200027F0B6BA5246494607A856F0F1F98DF811
:10AD300030A0CAE710B0BDE8F0870522B4E70222D0
:10AD4000B2E700BF102F0120F8200120002303608C
:10AD5000704700BFB4EEE00AF1EE10FA04D4F7EE4B
:10AD6000007A80FE670A7047B0EE600A704700BF45
:10AD7000074B4FF478710748D3F80C2FC3F8FC0E3B
:10AD8000931E223223F8021F9342FBD1704700BF6B
:10AD9000F82001200DB30208F0B54FF47871244C6F
:10ADA0001122244E4FF4787004F61873C4F8581F1B
:10ADB0004FF47871204D002784F8E02E04F56E6280
:10ADC000C4F8FC6E41F60B2685B0C4F8005FC3E9F9
:10ADD0000001C3E90201C3E90401C3E90601C3E9B3
:10ADE0000801C3E90A01C3E90C01C3E90E014020CF
:10ADF000C2E9026729F066F8B8B194F8632F00231E
:10AE0000032190F90400012A0C4A01914FF04001FE
:10AE10000CBF08251D4600920295094A28F092FFB2
:10AE2000C4F8840F003818BF012005B0F0BD00BF82
:10AE3000F820012071BE020891BE0208A068060039
:10AE400049D10208F0B41A4F97F8882F062A2DD856
:10AE50000C21531C01FB0272DBB202F5796252F83D
:10AE6000044CE1070DD504420BD092F9006000219B
:10AE7000104C94F900500C34B5420DD00131072923
:10AE8000F7D101330C32DBB2082BE8D107230020C5
:10AE900087F8883FF0BC704701EB410187F8883F95
:10AEA00007EB8101F0BCD1F87C0170470020F1E78D
:10AEB000F8200120702201200144884219D030B4CA
:10AEC000441E4D1E002041F2210114F8012F0823D9
:10AED00080EA022010F4004F4FEA400281EA40006D
:10AEE0000CBF90B280B2013BF4D1AC42EDD130BC8A
:10AEF00070470020704700BF344870B490F8E43FBA
:10AF0000A3F13001092958D800F6E47400F6F37073
:10AF1000224612F8015FA5F13001092904D88242C6
:10AF2000F7D1002070BC7047141B022C4BDD284861
:10AF3000002101E010F8013B01EB8101161A0446E3
:10AF400003EB4103022EA3F1300303F0FF01F1DC18
:10AF5000204B03FB01F1A2424FF000030ED903EB9B
:10AF6000830314F8016B5B00A242A3F13003334466
:10AF700003F0FF03F3D1184800FB03F32E2D06D096
:10AF80001648A0FB032370BC01EB9300704701320D
:10AF90000425002404EB84041078013D303864005B
:10AFA0000928A4B2204401D8013284B215F0FF056B
:10AFB000F0D1642202FB0433E2E700211D4600F6D3
:10AFC000E4720B46DAE70021054CC4E7F8200120C3
:10AFD000DD3001208096980040420F00ABAAAAAA5B
:10AFE000DC3001209B1A00FB03F393FBF1F188187E
:10AFF000704700BF154A30B4D2F8F40F02F5805103
:10B00000D2F8F83F41F20405D2F8FC4F83420968B8
:10B01000525902DB1D46034628468A4202DB15468A
:10B020000A4629468842A8BF08469342B8BF13463D
:10B03000A04202DC224604461046834203DAA342C1
:10B04000B8BF2346184630BC704700BFF820012027
:10B050000B6810B414681B1B036054684B681B1BFF
:10B060005DF8044B43608B6892689B1A836070475D
:10B070002DE9F043164685B08046084648F0E4FFC7
:10B080004FF47A720546002389463C2450F0C2F8FA
:10B09000B6F900C00746494628464FF47A720023A5
:10B0A0000CFB0477002550F0B5F84FF47A7394B296
:10B0B00001A8C3FB07452B46224648F009FF404B39
:10B0C00013F8EE3C012B2FD0022B10D19DF8067007
:10B0D000FB1E082B0BD83B1F062B1BD93946BDF88E
:10B0E000040048F089FE032F36D00B2F41D02246B2
:10B0F0002B46404648F0ECFE05B0BDE8F083032F38
:10B1000055D00A2FF3D19DF80870B7FA87F77F0959
:10B11000002FECD02B4B0022E418338803F13C03C2
:10B1200042EB05053380E2E79DF80670FB1E072B16
:10B13000DDD83B1F052BEDD93946BDF8040048F09A
:10B140005BFE9DF807309842D9D0033F18BF012716
:10B15000002FDFD1CBE707380E28FCDC9DF8073045
:10B16000834212D0CCBF01270027002FD2D1BEE7E7
:10B1700007380728FCDC9DF8073083420ED0B4BFA7
:10B1800001270027002FC5D1B1E79DF80870012FD6
:10B1900094BF00270127002FBCD1A8E79DF80870B5
:10B1A000012F8CBF00270127002FB3D19FE79DF807
:10B1B0000870003F18BF0127002FABD197E700BFF1
:10B1C000F031012080EE360030B5046885B0E469C6
:10B1D0002CB10DF10F050095A04705B030BD2046FC
:10B1E00005B030BD38B52321094C0A4D55F8EC0C9B
:10B1F00043F0B0FA14F8011F0029F7D1064846F0D1
:10B2000081FA15F8E83C13B1012305F8E73C38BD95
:10B21000D0940608F0310120DC9406082DE9F04FA7
:10B220009946D34389B006466FEA090BDB0F002528
:10B2300005924FEADB7B07910693059BAB4207D053
:10B24000069B2BB10135042DF7D109B0BDE8F08F75
:10B25000EE23244A0799002403FB05F3224F01EB58
:10B26000030802EB030AA1452B463A46304602D0BA
:10B27000BBF1000F31D13AF814C038F814100CF0BB
:10B280001F0E1CF4006FA1EB0C01CCF3441CCDF895
:10B2900004E018BF4FF0560EB1FA81F108BF4FF02D
:10B2A000480E00944909CDE902CE049144F066FBB2
:10B2B00038F81430049913F4006FC3F3441203F008
:10B2C0001F0C009414BF562048202B460390304694
:10B2D000CDE901C23A4644F06BFB0134772CC2D170
:10B2E000B0E700BF0C310120EC940608404B414A06
:10B2F0002DE9F04F93F8146C89463F4D8BB0DFF881
:10B3000000B18046002E08BF2A464D46002693F91C
:10B31000151C3A4803F2746443F0B0FFB9F1000F12
:10B3200047D02F782378D5F804C0BB4243D0D5E965
:10B3300002E0002195F816A033465A460991CDF84F
:10B340001CA0B5F914A0CDF818A0B5F912A0CDF83D
:10B3500014A0B5F910A00097CDE9030ACDE901CEFC
:10B36000404644F00BFB0999A07D3346B4F914A084
:10B370000136B4F912E05A46B4F910C01835E7683E
:10B3800007904046CDF818A0D4F808A0CDF814E0F6
:10B39000D4F804E0CDF810C014F818CBCDE902A71A
:10B3A000CDE900CE44F004FB3C2EB7D10BB0BDE894
:10B3B000F08F4946D8E76368D5F808E0634501D0C7
:10B3C000E868B6E7A368E8687345B2D1E3688342EA
:10B3D000AFD122692B699A42ABD162696B6922F0C5
:10B3E0007F4223F07F439A42A3D10121A2E700BF0D
:10B3F000F0310120149A0608089506080C950608F5
:10B400001C95060870B51F4E04460D4696F800368A
:10B410002DED028B7BB3D6F8082606F20463D6F82E
:10B420000C1693ED008A0260D6F81026C0E90112CE
:10B43000DFED158A95ED000A80EE280A52F06EFBCA
:10B44000236895ED010A184428EE288A206080EED2
:10B45000080A52F063FB636895ED020A18446060C5
:10B4600052F05CFBA368024696F800061344BDEC5C
:10B47000028BA36070BDB7EE008A8360C0E9003321
:10B48000D6E700BFF03101202C7D8E3FF0B4224C76
:10B4900094F8005635B90023036043608360284662
:10B4A000F0BC70470B6804F20466D4F80876012AF1
:10B4B000D6ED007AA3EB0703D4F80C669FED176A6C
:10B4C00007EE103A4B6867EE866AA3EB0603B8EE08
:10B4D000C77A07EE903A27EE067AF8EEE77A80ED23
:10B4E000007A67EEA67AC0ED017A0CD0D4F8102667
:10B4F0008B689B1A07EE903AF8EEE77AC0ED027A75
:10B500002846F0BC7047D1ED027AF8EEE77AC0ED3C
:10B51000027A2846F0BC7047F03101202C7D8E3F26
:10B520001A4A2DE9F003546C194D002CD5F8283334
:10B5300003600DDD4832002305F54A7601E09C42A8
:10B5400006D052F8041B0133B142F8D1012200E0C9
:10B550000022D5F834330271836095F83833437193
:10B56000D5F85013D5E9D632D5E9D8675B09540927
:10B5700043EAC263D5E9DA89C0E90467C0E908345F
:10B58000C0E906898162BDE8F00370470000002031
:10B5900000000120014BD3F880007047000001201B
:10B5A000014BD3F81001704700000120014BD3F884
:10B5B000C8007047000001200C46054608B528F079
:10B5C00097FB204628F094FB0021084641F0A0F9A3
:10B5D0000021012041F09CF928463FF047FDC0B909
:10B5E00020463FF043FD0028F6D00121002041F025
:10B5F0008FF920463FF032FD014628463FF05CFDC2
:10B600000021084641F084F928463FF02FFD00282C
:10B61000E6D00121002041F07BF928463FF01EFDD5
:10B62000014620463FF048FD0021084641F070F9F0
:10B63000D6E700BFF0B5002289B0DFF898C004AFAC
:10B6400013460A604A603E468A60CA600A61026820
:10B65000C2F3855040FA03F43546E40704D513F8E5
:10B660000C4005F8014B2E460133062BF2D1174D45
:10B67000C2F303240023C2F305302C4405F1680C07
:10B6800033700DF1190694F860408DF8184040FAB7
:10B6900003F43546E40704D513F80C4005F8014BD4
:10B6A0002E460133062BF2D10023C2F3834506ACAC
:10B6B0000846337002F00F030549C2F303120097E6
:10B6C000CDE9014548F0C0FD09B0F0BD701806088D
:10B6D0003C950608C8180608414A10B492F8C930CB
:10B6E000D2F8A810023BD2E92B40062B74D8DFE831
:10B6F00003F05A5C605006550400644249424042DF
:10B7000080EAE0739FED376AA3EBE07307EE103A2F
:10B7100084EAE473A3EBE473B8EEC77A06EE903ADA
:10B7200081EAE17327EE066AF8EEE66AA3EBE173BD
:10B7300007EE903AB4EEE66AF8EEE77AF1EE10FA28
:10B7400004DDB4EEE76AF1EE10FA34DC9FED256A11
:10B7500026EE866AB4EE467AF1EE10FA04D5B4EE1F
:10B76000676AF1EE10FA2DDC9FED1E6A67EE867AAD
:10B77000B4EE677AF1EE10FA2BD5F4EE676AF1EECB
:10B7800010FA26D50029CCBF042005205DF8044B13
:10B7900070474B42404221461C46B1E7634240425B
:10B7A0000C461946ACE74942AAE74B4261421C46A7
:10B7B000A6E76442A4E700285DF8044BCCBF002054
:10B7C00001207047002C5DF8044BCCBF0220032001
:10B7D00070474FF0FF30D9E723460C4619468FE7F4
:10B7E00000000020ABAA2A3F284BDFED296A30B5C4
:10B7F00093F8702F83B093F8713F07EE902A254C91
:10B8000007EE103AF8EEE77A94F8483CB8EEC77ABB
:10B81000D4F86C5C04EB4302013367EEA67A27EEA2
:10B82000267AB2F84C1CA2F84C0C03F00F03FDEE84
:10B83000E77A401A84F8483C284417EE902AFDEE37
:10B84000C77AC4F86C0C000917EE901A8A4211DC12
:10B85000114680B217EE902A40F2FF350023009582
:10B8600049F08EFB2A46002149F0A6FBA4F8700C93
:10B8700003B030BD80B28142D4BF401A0020824262
:10B8800002DB101A80B2E7E70020E5E7F82001208C
:10B8900014AE2341F03101202DE9F047084C94F813
:10B8A000A5322DED048B82B0062B00F20884DFE870
:10B8B00013F055056C0418040900CC0012067A0434
:10B8C0000000002094EDD17A0423D4EDD37AD4ED96
:10B8D000D56A67EE072A27EEA73A94EDD77AD4ED1A
:10B8E000D97A66EEA63AD4EDD01A27EE074A94ED3F
:10B8F000D22A67EEA74AD4EDDB6AE1EEA12A94EDE5
:10B90000DD7AA2EE023AD4EDDF7A26EEA65A94ED65
:10B91000D41A67EE075AD4EDD61A27EEA76A94ED2B
:10B92000D82AE1EE013AD4EDE16AA1EEA14A94ED04
:10B93000E37AE2EE024AD4EDE57A66EEA66A94ED89
:10B94000DA1A27EE077AD4EDDC1A67EEA77A94EDBF
:10B95000DE2AA1EE015AE1EEA15A94EDE01AA2EE20
:10B96000026AD4EDE21A94EDE42AE1EE016AA1EE56
:10B97000A17AE2EE027AB1EEE22AF1EEC32AB1EE4A
:10B98000E33AF1EEC43A84EDB02AB1EEE44AC4EDF4
:10B99000B12AF1EEC54A84EDB23AB1EEE55AC4EDF2
:10B9A000B33AF1EEC65A84EDB44AB1EEE66AC4ED9C
:10B9B000B54AF1EEC76A84EDB65AB1EEE77AC4ED46
:10B9C000B75A84EDB86AC4EDB96A84EDBA7A94EDD9
:10B9D000E77AD4EDE97A67EE075AD4EDEB6A27EE01
:10B9E000A76A94EDED7AD4EDEF7A66EEA66AD4ED0F
:10B9F000E64A27EE077A94EDE85A67EEA77AE4EE76
:10BA0000A45A94EDEA4AA5EE056AD4EDEC4A94ED09
:10BA1000EE5AE4EE046AA4EEA47A84F8A532E5EEC8
:10BA2000057AB1EEE55AF1EEC65AB1EEE66AF1EEEC
:10BA3000C76A84EDBB5AB1EEE77AC4EDBC5A84ED17
:10BA4000BD6AC4EDBE6A84EDBF7A94F83E240F2A25
:10BA500000F36E8500231B4D02F16D019FED1A7AF4
:10BA60001E46184605EB8101D1ED007A38B951ED3B
:10BA7000016AF4EEE67AF1EE10FA09DDD6B2B4EE20
:10BA8000E77A0120F1EE10FA02D5B0EE677AD3B270
:10BA900001320431102AE7D104EB8302591C0F2B29
:10BAA00006F10106D2EDB07A07EE101A67EEA76A2A
:10BAB000B8EEC77A66EEA77A27EE277A00F069819A
:10BAC00004E000BF0C0100200000000004EB830133
:10BAD000581C91EDB06A0A46D1EDB16AF4EEC66A1F
:10BAE000F1EE10FA40F1558166EE065A05EE100AA5
:10BAF0000F28B8EEC55A25EE866AA5EE067A77EECF
:10BB0000867A00F0278592EDB26A991CB4EEE66A57
:10BB1000F1EE10FA40F13D8166EEA65A05EE101ADC
:10BB20000F29B8EEC55A65EEA66AA5EE267A77EE1D
:10BB3000A67A00F01185D2EDB36AD91CF4EEC66A7C
:10BB4000F1EE10FA40F1258166EE065A05EE101A64
:10BB50000F29B8EEC55A25EE866AA5EE067A77EE6D
:10BB6000867A00F0FB8492EDB46A191DB4EEE66AA1
:10BB7000F1EE10FA40F10D8166EEA65A05EE101AAC
:10BB80000F29B8EEC55A65EEA66AA5EE267A77EEBD
:10BB9000A67A00F0E584D2EDB56A591DF4EEC66AC6
:10BBA000F1EE10FA40F1F58066EE065A05EE101A35
:10BBB0000F29B8EEC55A25EE866AA5EE067A77EE0D
:10BBC000867A00F0E68092EDB66A991DB4EEE66AD8
:10BBD000F1EE10FA40F1DD8066EEA65A05EE101A7D
:10BBE0000F29B8EEC55A65EEA66AA5EE267A77EE5D
:10BBF000A67A00F0CE80D2EDB76AD91DF4EEC66AFF
:10BC0000F1EE10FA40F1C58066EE065A05EE101A04
:10BC10000F29B8EEC55A25EE866AA5EE067A77EEAC
:10BC2000867A00F0B68092EDB86A03F10801B4EEAE
:10BC3000E66AF1EE10FA40F1AC8066EEA65A05EE27
:10BC4000101A0F29B8EEC55A65EEA66AA5EE267A37
:10BC500077EEA67A00F09D80D2EDB96A03F1090172
:10BC6000B4EEE66AF1EE10FA40F3938066EE065AFF
:10BC700005EE101A0F29B8EEC55A25EE866AA6EE13
:10BC8000057A77EE867A00F0848092EDBA6A03F145
:10BC90000A01F4EEC66AF1EE10FA7ADD66EEA65AF3
:10BCA00005EE101A0F29B8EEC55A65EEA66AA6EE83
:10BCB000857A77EEA67A6CD0D2EDBB6A03F10B01E0
:10BCC000B4EEE66AF1EE10FA63DD66EE065A05EEB2
:10BCD000101A0F29B8EEC55A25EE866AA6EE057A27
:10BCE00077EE867A55D092EDBC6A03F10C01F4EE42
:10BCF000C66AF1EE10FA4CDD66EEA65A05EE101A91
:10BD00000F29B8EEC55A65EEA66AA6EE857A77EEDB
:10BD1000A67A3ED0D2EDBD6A03F10D01B4EEE66A1B
:10BD2000F1EE10FA35DD66EE065A05EE101A0F290F
:10BD3000B8EEC55A25EE866AA6EE057A77EE867AC3
:10BD400027D092EDBE6A03F10E01F4EEC66AF1EE61
:10BD500010FA1EDD66EEA65A05EE101A0F29B8EE8F
:10BD6000C55A65EEA66AA6EE857A77EEA67A10D059
:10BD7000D4EDBF6AF4EEC66AF1EE10FA09D566EEAC
:10BD8000066AF2EE0E5A26EE866AA6EE257A77EE5F
:10BD9000867AB34240F34B8104EB83005A1E90ED48
:10BDA000B06AD0EDAF6AF4EEC66AF1EE10FA40F177
:10BDB0003E81591C66EE065AB24205EE101A25EE77
:10BDC000866AB8EEC55A77EE867AA5EE067A40F313
:10BDD0002E8190EDAE6A991EB4EEE66AF1EE10FA8D
:10BDE00040F1258166EEA65AB14265EEA66A05EEDF
:10BDF000903AF8EEE55A77EEA67AA5EEA67A40F3E9
:10BE000016810746D81ED7EDAD6AF4EEC66AF1EE8C
:10BE100010FA40F10C8126EE065A05EE902AB04247
:10BE2000F8EEE55A25EE066AA5EE867A77EE867A72
:10BE300040F3FD8097EDAC6A1A1FB4EEE66AF1EEAE
:10BE400010FA40F1F48026EEA65A05EE901AB2429E
:10BE5000F8EEE55A65EE266AA5EEA67A77EEA67AA2
:10BE600040F3E580D7EDAB6A591FF4EEC66AF1EEF8
:10BE700010FA40F1DC8026EE065A05EE900AB14237
:10BE8000F8EEE55A25EE066AA5EE867A77EE867A12
:10BE900040F3CD8097EDAA6A981FB4EEE66AF1EE02
:10BEA00010FA40F1C48026EEA65A05EE902AB04260
:10BEB000F8EEE55A65EE266AA5EEA67A77EEA67A42
:10BEC00040F3B580D7EDA96ADA1FF4EEC66AF1EE49
:10BED00010FA40F1AC8026EE065A05EE901AB242F6
:10BEE000F8EEE55A25EE066AA5EE867A77EE867AB2
:10BEF00040F39D8097EDA86AA3F10801B4EEE66ACD
:10BF0000F1EE10FA40F1938026EEA65A05EE900A63
:10BF1000B142F8EEE55A65EE266AA5EEA67A77EE0E
:10BF2000A67A40F38480D7EDA76AA3F10900F4EE66
:10BF3000C66AF1EE10FA7AD526EE065A05EE902A78
:10BF4000B042F8EEE55A25EE066AA5EE867A77EE5F
:10BF5000867A6CDD97EDA66AA3F10A02B4EEE66A72
:10BF6000F1EE10FA63D526EEA65A05EE901AB2420B
:10BF7000F8EEE55A65EE266AA5EEA67A77EEA67A81
:10BF800055DDD7EDA56AA3F10B01F4EEC66AF1EE1B
:10BF900010FA4CD526EE065A05EE900AB142F8EE9C
:10BFA000E55A25EE066AA5EE867A77EE867A3EDDBC
:10BFB0003846A3F10C0790EDA46AB4EEE66AF1EE00
:10BFC00010FA34D526EEA65A05EE902AB742F8EEBE
:10BFD000E55A65EE266AA5EEA67A77EEA67A26DD04
:10BFE000D0EDA36A0D3BF4EEC66AF1EE10FA1ED551
:10BFF00026EE065A05EE901AB342F8EEE55A25EE03
:10C00000066AA5EE867A77EE867A10DD94EDB16A3F
:10C01000B4EEE66AF1EE10FA09D526EEA66AF0EE65
:10C02000085A66EE266AA6EEA57A77EEA67AF5EEAF
:10C03000C07AF1EE10FA40F3708287EE278AC24B85
:10C0400094F8A6A2D3ED007AB7EE007A38EE478ACC
:10C0500028EE278AB4F844044EF034FC064618EE65
:10C06000100A0F464EF050FC80468946304639464D
:10C0700042464B464EF026FF08B946464F463946E3
:10C0800030464EF049FF00EE100A0AEBCA0305EBFA
:10C09000830000F52D7055F0BBFB94F8A622BCEE92
:10C0A000C00A94F8A53202F5C87204EB420210EE01
:10C0B000100AB2F80C11A2F80C01A2F812115A1CC5
:10C0C000A24BA3FB0213D11A03EB51039B08C3EB52
:10C0D000C303D31A84F8A53202B0BDEC048BBDE8CB
:10C0E000F0879B4DD4EDB17AB0EE006AD4EDB05A32
:10C0F000F6EE006A77EEA77AB4F8A812D4F8BC225C
:10C100000139B0EE664AB0EE677A1032D5EE867A23
:10C1100005EBC1008F4BA5EE867A083867EEA67A4C
:10C1200027EE267AC4EDD17A84EDD07AD0ED036A79
:10C130000139D0ED027A02F10802D3ED705AA0F174
:10C140000800D3ED6F4A03F1080335EEE67A12EDED
:10C15000036A37EEE45A77EEA47A76EEA56A52EDDA
:10C16000045AA6EE057AE5EE857AA5EEE67AE6EEC5
:10C17000267A27EE047A67EE847A83ED8E7AC3ED11
:10C180008D7AD3D194F8A53299E7714DD4F8B022C5
:10C190002846B4F8B4124EF0E1F994F8A532013310
:10C1A00084F8A5329EE794F8A62294F82031694DD0
:10C1B0009E1DC3F1200306EB421213F0FC0FC3F3E4
:10C1C0008501DFB205EB820600F0BF81013106F187
:10C1D00010022B46080106EB011112ED026A103223
:10C1E00093EDD17A103352ED076A52ED057A26EEBF
:10C1F000076AD3EDCC4A12ED087A8A4293EDCB5A06
:10C2000066EEA46AD3EDCE5A27EE057A83ED6B6A0B
:10C2100067EEA57AC3ED6A6A83ED697AC3ED6C7A3D
:10C22000DBD14D4BA0F11001A3F5C4720E440B44B9
:10C23000114417F003021BD0D6ED007A013A93EDBA
:10C24000007A67EE877AC1ED007A11D0D6ED017AD7
:10C25000012A93ED017A67EE877AC1ED017A07D062
:10C26000D6ED027A93ED027A67EE877AC1ED027A13
:10C2700094F82061002E85D0CF3794F8A632B0080C
:10C2800005EB870C05EBC313ACF5C47C05EB870508
:10C2900003F1180734D0013007F1100305F1100144
:10C2A0000CF110024FEA001E07EB001013ED046AB8
:10C2B000103351ED047A103253ED066A103126EE38
:10C2C000276A51ED067A13ED077A51ED075A66EEAB
:10C2D000A76A53ED057A834202ED086A27EE257AB4
:10C2E00011ED056A42ED066A67EE867A02ED077A7D
:10C2F00042ED057ADAD1AEF110031F441D449C448F
:10C3000016F003033FF43EAFD7ED007A013B95ED05
:10C31000007A67EE877ACCED007A3FF433AFD7ED41
:10C32000017A012B95ED017A67EE877ACCED017ADF
:10C330003FF428AFD7ED027A95ED027A67EE877A5F
:10C34000CCED027A1EE700BF40040020254992246C
:10C35000C00200200C01002048040020B4F8A832DC
:10C36000804D5908D4F8AC2205EB8308DB084FEA6E
:10C37000810005EB810E00F0A0805E1C10300EF1F4
:10C38000100302F1100C0EEB061E404408F11007DA
:10C39000A5F5DA7657ED047A103396ED6D1A0CF1A7
:10C3A000100C50ED041A103613ED086A71EE278A4E
:10C3B00057ED032A31EE671A10ED032A36EE218A73
:10C3C00057ED013A71EEC61A13ED064A103753EDD8
:10C3D000054A103057ED066A53ED075A50ED067ABC
:10C3E00010ED057A35EE820A96ED6B3A72EE655ADB
:10C3F00096ED6A5A74EE270A96ED6C6A77EEC47A67
:10C40000C6ED698A35EE229A36EE232A35EE625A57
:10C4100073EE268A86ED6A9A74EE872A86ED6C2A78
:10C4200037EE647AC6ED6B8A73EE666A43ED052AD1
:10C4300036EE636A03ED088A03ED070A43ED060A48
:10C4400073455CED074A1CED084A24EEC12A24EE30
:10C45000653A65EE242AA5EE042A61EE843AB0EE30
:10C46000435AE1EE042AE5EEA43AA1EEA45A07ED00
:10C47000072A47ED082A40ED073A00ED085A5CED1F
:10C48000055A1CED065A26EE253A65EEE63A27EEE9
:10C49000854A65EE474AE6EE053AA6EE853AA7EEEE
:10C4A000254AE7EEA54A07ED063A47ED053A00EDC5
:10C4B000054A40ED064A7FF46DAF89B228460191E6
:10C4C000FBF702FE01994046D4F8AC22FBF7FCFDD5
:10C4D00094F8A532F3E594F8A62202F5C87304EBAC
:10C4E0004303B3F80C11B3F812318B4206D0012389
:10C4F00084F83924A4F83A1484F8383401321A4BF9
:10C500000621A3FB020384F8A51203F4FF7101EBDB
:10C510005303D21A84F8A62247E694F8A6A204EBA5
:10C520004A03B3F8323408EE103AB8EE488A91E57F
:10C53000D4EDB07A012600230C4D27EEA77A67EEE2
:10C54000277AB0EE677AFFF7C1BA05F5DA7105F51B
:10C550004F736EE60E231CE40D231AE40C2318E43B
:10C560000B2316E4C0020020ABAAAAAA0C010020EB
:10C57000D9498B6813F4003030B440F0B08001F238
:10C580003C5201F5AB63D54CD3ED937AD2ED014A21
:10C5900092ED024AD4F8285D67EEA42AD2ED033A60
:10C5A00092ED003A27EE842A63EEA71AD3ED076ACC
:10C5B00022EEA37AD4F82C1D63EE277A62EE835A1A
:10C5C0008A7AA1EEA47A23EE276A5442E1EE845AD5
:10C5D00005EE104AA3EEA16AB8EEC55A36EE877A88
:10C5E000F2EE041AE7EEA45AA2EE437AF0EE466A9F
:10C5F00025EE215AE2EE446AB0EE656AA7EEC47AEF
:10C60000A2EE236AF0EE477AB0EE667AF4EEC57ACF
:10C61000A2EEE47AF1EE10FA07D406EE902AB8EE14
:10C62000E65A25EE215A85FE675A83ED075AF2EE47
:10C63000045ACA7A95ED205A5442D3ED4D6A07EE5A
:10C64000904AE5EE066AF8EEE77A67EEA57AF4EE30
:10C65000E76AF1EE10FA07D407EE902AF8EEE77ACF
:10C6600067EEA57AC7FEE67AC3ED4D7A0A7BC8B9B4
:10C670005142F2EE046A07EE901AF8EEE77A67EE9E
:10C68000A67AF4EEC77AF1EE10FA07DC07EE902AEC
:10C69000F8EEE77A67EEA67AC7FEC77AC3ED937A1B
:10C6A00030BC70475142D5ED1F5AD3ED936AB2EEBC
:10C6B000046A07EE901AE5EE876AF8EEE77A67EE0D
:10C6C000867AF4EEE76AF1EE10FAE7D407EE902AE4
:10C6D000F8EEE77A67EE867AC7FEE67ADEE701F2E1
:10C6E0003C529FED7F7A92ED024AD2ED014A64EE10
:10C6F000047AE4EEA47AF4EEC77AF1EE10FACFD819
:10C70000D1F84C35754C9B0640F1C18004F6B84316
:10C71000D4F8285D93ED056AB1F95015DFED713A53
:10C7200007EE901A9FED707ADFED706AF8EEE77A07
:10C7300086FE666A86FE076A67EEA33AB1EE637A02
:10C74000FDEEC77A17EE903A2033402B00F2A78017
:10C7500011F5E16F0CDA9FED665ADFED665AF0EEE7
:10C76000476A37EE457AF4EEE56AF1EE10FAF6DC48
:10C77000DFED617AB4EEE77AF1EE10FA0CD59FEDB9
:10C780005C5ADFED5E5AF0EE476A37EE057AF4EE5A
:10C79000E56AF1EE10FAF6D4DFED597AB4EEE77AF5
:10C7A000F1EE10FA7EDDDFED577A37EEC77A67EEED
:10C7B000077ADFED556A9FED555ADFED555AA7EE22
:10C7C000A65ADFED546A27EE273AE7EE855AE7EEE0
:10C7D000A56AA3EE267ADFED4A7A77EEE37AFDEEDC
:10C7E000E76A16EE903A2033402B55D811F5617F59
:10C7F0000CDA9FED3F5ADFED3F5AF0EE676A77EEB5
:10C80000C57AF4EEE56AF1EE10FAF6DCDFED3A6A8D
:10C81000F4EEE67AF1EE10FA0CD59FED355ADFED25
:10C82000375AF0EE676A77EE857AF4EEE56AF1EE54
:10C8300010FAF6D4DFED326AF4EEE67AF1EE10FA91
:10C840003DDDDFED306A76EEE77A67EEA76ADFED71
:10C850002E5ADFED2E3A9FED2E5AE6EEA53ADFED89
:10C860002D5A27EEA63AA6EEA35AE6EE855AE3EE37
:10C87000257AC7EE276A9FED287ADFED285A284BE4
:10C8800026EE877AC7EE067A67EEA57A84E6D4F8B4
:10C89000285D95ED1E6A3FE7DFED227AE9E79FED1F
:10C8A000217A98E7DFED207AB4EEE77AF1EE10FA1C
:10C8B0007FF57DAFDFED107A37EEC77A77E7DFEDF2
:10C8C0001A6AF4EEE67AF1EE10FABED5DFED0A6AE6
:10C8D00076EEE77AB9E700BF00000020F0310120D2
:10C8E000CE8BD33E88C3E43A000096430080BB451C
:10C8F000DB0FC940E4CB1641DB0F49C0E4CB16C1C6
:10C90000DB0FC93FDB0F49409A7C2E36FAAF4FB997
:10C910003587083CA4AA2ABE8F2A7544E12E6542B9
:10C920005805002000000000DB0FC9BF38B52DED11
:10C930000A8B70EE609AD0ED01AA0378F0EE408A7F
:10C94000B0EE607A044669EEAAAA0D46B0EE41AA9E
:10C95000F0EE61BAB0EE42CAB0EE629A002B61D13D
:10C9600001F00103D0ED0B7A002B54D079EEE77A79
:10C97000B0EE697A87EE8A0AD4ED090A84ED0B7A63
:10C98000F5EEC00AF1EE10FA54DCD4ED032A20EEE5
:10C99000220A94ED0ABA20EE099A94ED050AB0EE47
:10C9A0004C1A3AEE8B8A68EE808AF0EE6B0A38EE0B
:10C9B000098A38EE288AB0EE480A48F0F1FAD4ED38
:10C9C000027AF0EE4B6A94ED047A69EEA77A6B076F
:10C9D00030EE488A84ED0E9AC4ED0F8AEAEE276A9B
:10C9E00084ED0CBA28EE078AC4ED0DAA84ED100A76
:10C9F000F0EE667AEAEE087A08D5B0EECBBAB0EE81
:10CA0000E77AB4EECB7AF1EE10FA01D5C4ED0A7AEA
:10CA1000BDEC0A8B38BD77EE677AF1EE677A87EE68
:10CA20008A0AA9E711F001034FF0000240FEA97A3B
:10CA3000027099E794ED038AB0EE4A1A04F11800E7
:10CA400054F0E2FE28EE000AA3E700BF064B93F87D
:10CA5000E51203F5B66203F5B363002918BF134668
:10CA600093ED020A704700BFF0310120F8B5384C51
:10CA70000D46384FB4F86632B4F872627B822DED01
:10CA8000028B1EBBD7E90B31C01A65EB01014EF0DA
:10CA90007BFBDFED317A07EE100AB4F86832B4F8A8
:10CAA0006A1267EE277AB4F86E220B44FCEEE77A3E
:10CAB00017EE905A2B449A4239D3B4F87002BDEC69
:10CAC000028BA8422CBF00200120F8BDFFF7BEFF5B
:10CAD00007EE906AF0EE408AB8EEE78AB4EEC80A34
:10CAE000F1EE10FA1FDAD7E90B31C01A65EB01013C
:10CAF0004EF04AFBDFED187A07EE100AB4F8683200
:10CB0000B4F86A1267EE277AB4F86E220B44FCEE92
:10CB1000E77A17EE905A2B44934210D8F4EEC88A65
:10CB2000F1EE10FAC9DB0120BDEC028BF8BD2CF050
:10CB30006DFB0028C1D00320BDEC028BF8BD2CF0AA
:10CB400065FB0028F7D1FFF781FFF0EE408AE5E7AB
:10CB5000F8200120000000206F12833A2DE9F04FE9
:10CB60002DED028B87B0354D0446B0EE408A039020
:10CB70001046D5F8309D0E4617469B464DF058FDA1
:10CB80000146D9F800C04FF00008214489F80B6035
:10CB900048463B4689F80A1032462146CDF80080C7
:10CBA000DCF814409DF848A09DF84C90A0479FEDFC
:10CBB000240A5346424604A828EE000ACDF804B0E1
:10CBC000CDF80080FDEEC07A17EE901A0FF016FB3C
:10CBD000D5F8343D13B11B784B452BD0D5F8403DEB
:10CBE00013B11B784B4525D0D5F84C3D13B11B78BC
:10CBF0004B451FD0D5F8583DD3B11B78A3EB09099D
:10CC0000B9FA89F94FEA591938464DF011FD039CDC
:10CC100004AB32460134CDF800902118D5F8300D20
:10CC2000C9B240F045F807B0BDEC028BBDE8F08F0B
:10CC30009946E9E74FF00109E6E700BFF03101202E
:10CC40000000C84230B41C7884B1012C0CD1B3F977
:10CC500002408AB1157B94FBF5F40470B3F90430FB
:10CC6000527B93FBF2F30B7030BC70479A780270E2
:10CC7000DB7830BC0B707047054AE51782FB042453
:10CC80001222C5EB64040470B3F90430E9E700BF75
:10CC9000ABAAAA2A30B41C784CB1012C05D1B3F947
:10CCA0000220B3F9043002600B6030BC70479C78FE
:10CCB00052B1157BDB7815FB04F40460527B03FB57
:10CCC00002F330BC0B60704704EB4404DB781222A3
:10CCD000A4000460F3E700BF30B50C4683B00546FE
:10CCE00001920DF0DDFD019B2246294640F09AF8A5
:10CCF0000B4991F9643D5A1C01EB430352B283F88E
:10CD0000685D83F8694D352A05DD0023012081F82F
:10CD1000643D03B030BD012081F8642D03B030BD07
:10CD2000F0310120104A034630B592F81C4F83B011
:10CD3000012C10D904220D888C7874200DEB02018F
:10CD40008DF80430ADF805508DF8074027F0D4F980
:10CD5000012003B030BD02D0002003B030BD92F8F6
:10CD60001D2F622AE6D8F7E7F0310120F8B5214DF2
:10CD70001D260C46074685F8446F25F053FE00201B
:10CD800025F0D0FD082025F0CDFD0E2025F0CAFDB0
:10CD9000304625F0C7FD042025F0C4FD042025F011
:10CDA000C1FD002025F0BEFD302025F0BBFD002098
:10CDB00025F0B8FD204625F0B5FD002025F0B2FD98
:10CDC00025F00EFE05F6487025F00CFD00B9F8BD03
:10CDD00095F8493F0BB1302B0AD195F8482F95F8BB
:10CDE0004A3F134304D195F84B3F01203B70F8BDF7
:10CDF0000120F8BDF03101202DE9F04F0022DFF8CD
:10CE0000F8820023B94CBA4DA8F50A6904F54076BA
:10CE1000DFF8E8A2A5F5B0772DED028BC8E9002375
:10CE200087B09FEDB48A0CE0227822B107EBC303F0
:10CE3000D3F8603163B900232B6018340835A6425B
:10CE40003ED094F90130002BEEDA2378002BF2D09B
:10CE50002B79DB07F1D4A168207924F0B3FC216998
:10CE60008346207B24F0AEFCA2780346252AE2D834
:10CE7000DFE812F059000B01420013014601500196
:10CE800040005B0128023102380243024C02550087
:10CE900037013901AF00BB005F006B007E009100DD
:10CEA0008A019601A501B201CD01DA01E701F40181
:10CEB00001021A021B012801C300E100660178018A
:10CEC00097F8703213B197F8723223B907B0BDECFE
:10CED000028BBDE8F08F97F871224021D7F87402D9
:10CEE0003FF0B4F8002387F8723207B0BDEC028B34
:10CEF000BDE8F08F40F282639B45D4BF4FF0000B3A
:10CF00004FF0010B5A46237DC5F800B0DB0794D5DE
:10CF1000002A92D02B7943F001032B718DE7BBF1EE
:10CF2000000F00F0F9810122237D2A60DA07F1D495
:10CF300083E75FFA8BF01946009324F001FC009B15
:10CF40001A1E9B4618BF0122DDE75FFA8BFB00909B
:10CF5000584624F00DFC009B0246584603EB020B9A
:10CF6000594624F0EDFBBBF1000218BF0122CAE7CD
:10CF70005FFA8BFB0090584624F0FAFB009B0246B8
:10CF80005846A2EB030B594624F0DAFBBBF1000232
:10CF900018BF0122B7E75FFA8BFCBCF1070F00F264
:10CFA000C2811A1EC1B24FF0010E97F8710218BF6C
:10CFB000012200399B460EFA0CFC18BF012187F8AC
:10CFC00072E24B42434003EA0C03434087F871325C
:10CFD00099E700FB0BF047F6FF72514647F0ECFF74
:10CFE000021E834618BF01228DE7002840F0988179
:10CFF000BBF1000218BF012285E707EE90BA0028B6
:10D00000B8EEE70A08BF4FF4FA73CDE9003320EE1B
:10D01000080A48F0B3F8009B07EE903AF8EEE77A7A
:10D0200027EE800AFDEEC07A17EE90BABBF100023F
:10D0300018BF012267E707EE90BA0028F8EEE78AEA
:10D0400008BF4FF4FA73CDE9003368EE888AB0EE7A
:10D05000680A48F00DF9F0EE407AB0EE680AF0EE9A
:10D06000678A48F08BF8009B07EE903AB8EEE77AB3
:10D07000C8EE807A67EE877AFDEEE77A17EE90BA0F
:10D08000BBF1000218BF01223DE7ABEB000BBBFA7E
:10D090008BFB4FEA5B1B5A4635E78345ACBF4FF02D
:10D0A000000B4FF0010B5A462DE7D8F80030BBF1CA
:10D0B0000002C9F828B943F0800318BF0122C8F85C
:10D0C000003020E707EE90BA0028B8EEE70A08BF64
:10D0D0004FF4FA73CDE9003320EE080A48F0C8F89F
:10D0E00099E7584477E7ABEB000074E7484101202B
:10D0F0004844012035FA8E3CA00800200080FFFF44
:10D1000040F234539B45CCBF4FF0000B4FF0010B66
:10D110005A46F8E6ABF23550B0F5A77F2CBF4FF07A
:10D12000000B4FF0010B5A46EDE6031E18BF01231A
:10D13000BBF1000F14BF9B464FF0000B5A46E2E6CE
:10D140001A4658460021009347F036FF009B002204
:10D1500019464FF47A73FDF745FF021E834618BF48
:10D160000122D0E64FF47A7200210090584647F031
:10D1700023FF0022009B4FF47A71FDF733FF021E5C
:10D18000834618BF0122BEE6D8F800300121227D77
:10D190000B432960D007C8F800307FF54EAEB9E6E2
:10D1A0000122D8F80030C9F804B92A6043F002031C
:10D1B000227DC8F80030D1073FF5ACAE3DE6D8F887
:10D1C00000300121227D43F004032960D207C8F812
:10D1D00000303FF59FAE30E6D9F80C399B453FF45F
:10D1E0002AAE02A9D7F860023DF012FE002867D0EF
:10D1F00058469DF80A20012147F0DEFE021E8346B4
:10D20000C9F80C0918BF012287F866027BE6D8F836
:10D2100000300121227D43F008032960C8F8003066
:10D22000D3073FF577AE08E6D8F800300121227D1C
:10D2300043F010032960D007C8F800303FF56AAE0C
:10D24000FBE5D8F800300121227D43F0200329605E
:10D25000D107C8F800303FF55DAEEEE5D8F80030F4
:10D26000BBF10002C9F81CB943F0400318BF01220A
:10D27000C8F8003047E6D9F820399B453FF4DBADCC
:10D2800002A9D7F860023DF0C3FDC8B15846052297
:10D29000012147F091FE021E8346C9F8200918BFFC
:10D2A000012287F864022EE6D9F824399B453FF421
:10D2B000C2AD02A9D7F860023DF0AAFD00283AD11C
:10D2C0002860BAE55BEA030314BF4FF0010B4FF08F
:10D2D000000B5A4617E6BBEB000B18BF4FF0010BD3
:10D2E0005A4610E6B0FA80F35B09BBF1000F14BF99
:10D2F0009B464FF0010B5A4605E65BEA03030CBF61
:10D300004FF0010B4FF0000B5A46FCE5BBFA8BFBCC
:10D310004FEA5B1B5A46F6E550B9D5F800B067E610
:10D320009BFBF0F057E6021E834618BF0122EAE598
:10D33000C5F800B081E558460822012147F03CFEBF
:10D34000021E8346C9F8240918BF012287F8650226
:10D35000D9E500BF164991F8E42F32B3F0B4064680
:10D3600000200346074602E092F8E42FDAB100EB12
:10D3700080002E2A4FEA400004D10133CA183244FB
:10D3800082F8E47FCA18A0F1300592F8E42FA2F1E8
:10D390003004092C98BF50190E2B03F1010301EB47
:10D3A0000302E1D90020F0BC70470020704700BFA5
:10D3B000F820012070B5144D0646D5F8780203799F
:10D3C0001E3B012B04D900213DF076FED5F87802F2
:10D3D000002E09DD0D4C264414F8011B3DF06CFEB7
:10D3E000D5F87802A642F7D100213DF065FEB5F8E8
:10D3F000A832074A00210133D2F8582EA5F8A832E6
:10D40000C5E9A82170BD00BFE842012064450120A4
:10D41000F820012010B50A4C04F6184009F042FA31
:10D42000D4F8243CC01A47F0E9FD002842F21073FA
:10D43000B8BF40429842D4BF0020012010BD00BFB9
:10D44000F0310120036813F0400004D013F4057F8D
:10D4500014BF0120002070472DE9F043264D85B010
:10D46000264C804605F128090F461646C4F80C5F85
:10D47000C4F8109FFDF77CFC214804F56E614FF065
:10D48000120C42F6F8220023C4F8000F402084F862
:10D49000E0CEC1E9022326F015FD044630B3FFF7C4
:10D4A000D1FF98F800C0B0F100083F7894F904006B
:10D4B0004B4614BF03220122BCF1000F00960192DB
:10D4C0004FF040010CBF07240624012F0D4AA5F59B
:10D4D0002E750CBF082600263443029426F032FC39
:10D4E000B8F1000F05D1003818BF012005B0BDE824
:10D4F000F083C5F82003F6E7A0450120F8200120BD
:10D500009DB402087DCA02080348044A00F663710C
:10D5100000F66270A0E700BFF8200120400D030074
:10D520000348044A00F6637100F6627094E700BF96
:10D53000F8200120A086010008490023013810F8D6
:10D54000012F222A04D0013301F8012F0F2BF6D12D
:10D55000034A0021134483F8461070473D210120FF
:10D56000F820012010B5022382B0084C0190C4F8C5
:10D5700024334DF05DF802460199D4F82803D2B265
:10D5800002B0BDE810403DF075BD00BFE84201208B
:10D590000023421E043010B42A4C84F82C3312F8B5
:10D5A000011FA1F1410329B3332B21D8DFE803F098
:10D5B0001A202020204037202020202E202020202C
:10D5C0002020202520202020202020202020202056
:10D5D0001A202020204037202020202E202020200C
:10D5E0002020202594F82C3343F0080384F82C33B2
:10D5F0008242D4D15DF8044B704794F82C338242B8
:10D6000043F0010384F82C33C9D1F3E794F82C33A9
:10D61000824243F0100384F82C33C0D1EAE794F837
:10D620002C33824243F0040384F82C33B7D1E1E772
:10D6300094F82C33824243F0020384F82C33AED1A9
:10D64000D8E700BFE8420120F0B5BD4C85B0D4F862
:10D6500030632EB13046FFF7F5FE002840F07C81A4
:10D6600094F83C03FBF7F4F894F83433054683420E
:10D670001CD0002800F08081C6B1B24B02214FF4CB
:10D68000165296F9040093F82D50002301910421BD
:10D69000B5FA85F500921A466D09029526F052FBFF
:10D6A000C4F8380310B1012384F8343394F83D03EF
:10D6B000FBF7CEF894F83E33054683421ED000288F
:10D6C00000F01A81D4F84033C3B19E4D032193F981
:10D6D0000400002395F834504FF49642019108213C
:10D6E0009D4200921A4618BF0D46029526F02AFB6D
:10D6F000C4F8440310B1012384F83E33FBF7BCF9AE
:10D70000D4F848532DB12846FFF79CFE002840F07E
:10D71000FC8094F85803FBF79BF894F84C330646CA
:10D72000834232D0002800F03081864B93F83730A6
:10D73000012B00F03981022B0CBF834A834AC4F8C5
:10D74000542315B32A7A002A00F02B81022A00F014
:10D750002F81012A40F03A817B4A4FF49663C4F846
:10D76000542395F904000221002500930191102112
:10D770002B462A46029526F0E5FAC4F8500320B15C
:10D78000012384F8595384F84C3394F85A03FBF777
:10D790005FF894F85B330546834235D0002800F0EB
:10D7A000A280D4F85C33CBB11A7A002A00F0F6805C
:10D7B000674901EB8202126F93F9040003210023F1
:10D7C000009201914FF480711A46029326F0BAFA42
:10D7D000C4F8600310B1012384F85B33594A5D4BF0
:10D7E000B2F85E1092F8605092F86100A3F8FA1651
:10D7F00092F8621092F8632083F8FE5683F80207CD
:10D8000083F8031783F8042794F86403FBF720F8E0
:10D8100094F865330546834227D058B34FF4FA7025
:10D82000FDF710FAD4F86833FBB11A6802F41072ED
:10D83000B2F5107F19D093F90400082103220023C8
:10D840004FF4E135029101924FF400711A460095B0
:10D8500026F078FAC4F8700338B13A49012200235F
:10D86000086284F8652384F86C3394F874536DB1BE
:10D8700005B0F0BDD4F8700326F048FAC4F8705330
:10D8800084F8655394F87453002DF1D1D4F87813CB
:10D890000029EDD0032291F904002D4E2B46CDE94D
:10D8A00001250F7A2A464FF4002106EB8706366FD2
:10D8B000009626F047FAC4F828030028D8D021485B
:10D8C00042F21073C4F88053D0F8582E3A3084F8DE
