:020000040800F2
:10000000000002202D81050811E20008C1F6030856
:10001000DD810508DD810508DD810508000000009F
:100020000000000000000000000000000DE20008D9
:1000300009E200080000000005E2000885D7040876
:10004000DD810508DD810508DD810508DD81050804
:10005000DD810508DD81050841E0040851E0040860
:10006000DD8105084DE0040849E0040865E6000864
:1000700051E600083DE6000829E6000815E60008FC
:1000800001E60008EDE50008DD810508000000003C
:1000900000000000000000000000000045E004082F
:1000A00019E70008F1E60008C9E6000841E7000882
:1000B000B5E60008A1E600088DE60008DD81050828
:1000C000DD810508DD810508DD810508DD81050884
:1000D000DD81050861EA000855EA0008000000001B
:1000E0003DE00408DD81050881FC000800000000F7
:1000F000000000000000000000000000D9E500083A
:1001000000000000DD81050879E60008DD810508B2
:1001100000000000000000000000000000000000DF
:10012000C5E50008B1E500089DE5000889E500087F
:1001300075E500080000000000000000000000005D
:100140000000000000000000000000009DDB00082F
:1001500061E500084DE5000839E50008DD81050886
:10016000DD810508DD8105080000000000000000B9
:10017000000000000000000000000000000000007F
:1001800000000000DD810508000000000000000004
:08019000DD810508DD81050891
:08019800CC7C05000100000011
:1001A00094B600200208000003001411B4B6002029
:1001B000020A000003001411D4B60020010E000052
:1001C00000007700F4B60020010F00000000760068
:1001D00014B70020011001000000770034B70020A0
:1001E0000115000000001E0054B70020011B000094
:1001F00000000D0074B70020011C000000000E007C
:1002000094B70020011D000000001E00B4B70020BC
:100210000118000000000C00D4B7002001190000F4
:1002200000000E00F4B700200126010000001800B5
:1002300014B80020011E00000000480034B800205F
:10024000011F00000000490054B8002001200000F8
:1002500000004A0074B800200121000000004B009B
:1002600094B800200122000000004C00B4B8002027
:100270000123000000004D00D4B80020012400003C
:1002800000004E00F4B800200125000000004F00DF
:1002900014B90020012B01000000280034B900200F
:1002A0000227010000012C0054B90020012E00009B
:1002B00000003C0074B90020012C00000000400048
:10800000037830B403B30246C0F10105531912F8E6
:10801000014FDBB2002CF9D101335B00DAB20C4C1A
:108020000B80032322706370017859B1022300256D
:108030005A1CD2B2E154A55410F8011F0233DBB22E
:108040000029F5D130BC704702221346E7E700BF94
:108050004814002009284FF0010307D903EB8303DC
:108060005B00B0FBF3F2092AF8D883B3F0B4DFF871
:1080700064C000250EE00A2A1E460F462346B4BF00
:10808000302457242244092E01F1010105F1010594
:108090003A700FD9ACFB0324E408B0FBF3F203FB06
:1080A0001200002DE7D1002AE5DC092B06D830327A
:1080B00001F8012B0023F0BC0B707047ACFB0436B9
:1080C000B0FBF4F2234604FB1200F408EBE70023B4
:1080D0000B707047CDCCCCCCF0B40D6800240CE014
:1080E000BCF1050F18D8A0F137030A2B14D104EB0B
:1080F000840415F8010B03EB4404A0F13003DEB255
:10810000092EA0F16107A0F1410CF0D9052FE7D8A5
:10811000A0F157030A2BEAD00D601460F0BC704741
:10812000054AD2E94032581E801A934294BF4FF458
:10813000006300231844704748140020012380F88E
:1081400049307047064BD3F8080100B97047D3F89F
:108150000801A0F10500B0FA80F04009704700BFA7
:10816000481400200649D1E943329342FDD05A1CFD
:108170000B44C2F30A0293F81401C1F80C217047B2
:1081800048140020044BD3E94303984288BF03F509
:108190000063181A704700BF481400200120704780
:1081A000704700BF704700BF704700BF30B4134D29
:1081B000D5E943239A4286BF03F50064A21A9A1AAE
:1081C0000A44B2F5006F13D8A9B101444A1E013820
:1081D00010F8014FE918824203F1010381F81441BC
:1081E000C3F30A03F4D1C5F81031002030BC704746
:1081F000022030BC70470846F8E700BF4814002052
:10820000212838B50C4605D022282DD0202813D09F
:10821000002038BD0029FBD0072AF9D1194BD3F82B
:10822000180993F81C1993F81D2993F81E3920603A
:1082300021716271A371EBE70029E9D0072AE7D128
:10824000104DD5F8143913B10968002098472068FB
:1082500021796279A379C5F8180985F81C1985F880
:108260001D2985F81E39D3E70029D1D0022ACFD1A4
:10827000044BD3F82039002BCAD009880020984736
:10828000C6E700BF48140020024B0020C3F80801D5
:10829000704700BF48140020044B00200522C3F89B
:1082A0000821C3F82009C3F81409704748140020B6
:1082B000704700BF704700BF704700BF704700BFE6
:1082C000704700BF704700BF704700BF08B5024845
:1082D000FFF796FE014808BDE45006084814002048
:1082E00008B50248FFF78CFE014808BDF4500608A7
:1082F0004814002008B50248FFF782FE014808BD77
:10830000005106084814002008B50248FFF778FE1F
:10831000014808BD0C5106084814002008B5024861
:10832000FFF76EFE014808BD1451060848140020EE
:10833000042301480B8070470000002012230148ED
:108340000B8070470400002010B504460022212154
:10835000006846F083F92068FC22202146F07EF96F
:1083600020684022242146F079F920680C2223213C
:1083700046F074F920680022222146F06FF90120AE
:1083800010BD00BF10B5012204460B21006846F065
:1083900065F930B120681D22BDE81040092146F082
:1083A0005DB910BD7C4B2DE9F04FB3F832C9D3F85D
:1083B0002409B3F83069B3F834A94FEA0C2CB0EBB8
:1083C0000C0C4FF0000464EB0400B3F82E4989B0A4
:1083D0000025CDE90445A6FB0C8906FB0099079012
:1083E0000498079EA0FB0C45CDE902452C46049D50
:1083F00005FB06440394B3F82C494FEA044EAAFB4C
:108400000C45CDE904450AFB06540594029C260A56
:10841000039C46EA0466049C4FEAD810B3F82A8904
:1084200040EA49604FEAE91A4FEAD459039C10EB3D
:108430000E004FEAC8384FF0000E4AEB0E0A271222
:1084400016EB0804059E029449EA4629744644EB5B
:1084500007074FEAE65E19F5FA6400944EF100044E
:108460000194DDE90045B4F5FA6F934675F1000219
:1084700006976EDAA9FB095609FB0EF206EB4206D7
:10848000B2004FEA850818EB050442EA957246EB04
:108490000202650845EAC275401B4FEA62056AEBB5
:1084A000050AA408029D44EA82742C1B4FEAA2022A
:1084B00067EB0202DDE900670294384C06924FF048
:1084C000FF35A64277EB050236DA40F6AC5419EBDD
:1084D00004044FF000024EEB020E04FB0EFEA4FB60
:1084E000044505EB4E05EA004FEAC40EB4EB0E0E50
:1084F00042EA547265EB020210EB0E004AEB020AEC
:10850000221945EB050E12194EEB050E4FEA8E0EA1
:108510004FEA82084EEA927EB8EB04026EEB050E3B
:10852000029C520842EACE72A41A069A02944FEABA
:108530006E0E62EB0E020692079AACFB0C450CFB2A
:1085400002F205EB4205E20F009C42EA4502A21A44
:108550000092B1B1D3F83839029AA3FB0289069A86
:108560004FEA585E03FB02994EEAC92EBEEB0000AB
:108570004FEA695E4FEAD0306EEB0A0A40EA4A40A1
:108580000860BBF1000F02D0009BCBF80030012047
:1085900009B0BDE8F08F00BF4814002024FAFFFFA7
:1085A00000680122482146F059B800BF0068012246
:1085B000582146F053B800BF2DE9F04F874DD5F84C
:1085C0003C79B5F84039B5F94449B5F94269B5F98E
:1085D00048A9C3EB271000FB00F000135B00C3EBBE
:1085E000E70304FB00F406FB03F3A41304EBE3240A
:1085F000B4F5FA334FEAE47747F1FF30A3FB038980
:1086000003FB00F609EB4609B5F94A69C5F8584974
:10861000F71706FB09FE83B008FB07EEA6FB086709
:10862000CDE900673E46764401964FEAEA7B009E1C
:10863000019F0AFB00FC03FB0BCCAAFB03ABE3444A
:10864000360A46EA07664FEA0A3E4FEA0B3C16EB4B
:108650000E0E4FEA2727B5F846694CEA1A5C47EB3D
:108660000C0C0027CDE90067009E00921EF1000A65
:108670004CF50047AAFB06AB06FB07BB4FEA6B06AF
:108680004FEAEB7756EA07028A4600F0A480B5F974
:108690004E19B5F950B9CA1701FB00F003FB0200EF
:1086A0004FEAEB7CA1FB03230BFB09F1034408FB1E
:1086B0000C10D5F85C19ABFB08894FEA434C4FEA24
:1086C000424EC1F580111EEB080E81444CEAD23CAB
:1086D000B5F94C294CEB090C00204FEAE17910EB7D
:1086E0000E004FEAC9734FEAC17E4FEAC20242EB65
:1086F0000C0243EA5103BEEB000063EB020C0318CB
:108700004CEB0C011B1841EB0C014FEA831E8A0154
:1087100042EA936213EB0E0342EB010189009A00D7
:1087200041EA9371131841EB0C019A00890010186B
:1087300041EA937132463B4641EB0C014FF016FB88
:10874000B5F956294E134FEA503C4CEAC14C02FB96
:1087500006F7D3170CFB0377A2FB0C2302FB06FEE4
:10876000B5F954693B44A2FB0C89F7170CFB03EEE7
:1087700006FB01FCA6FB002300FB07CCF1441646D8
:1087800063444FEA58621F4642EAC912F60C1018B9
:108790004FEA696346EA473643EB0101B5F95229CE
:1087A00080194FEAE74343EB0101000A40EA016008
:1087B00012011044BAF1000F02D0000ACAF80000FA
:1087C000009B23B104EB8404803424121C6001203C
:1087D00003B0BDE8F08F0020ECE700BF4814002094
:1087E00008B53122F421006845F038FF012008BDAA
:1087F00001207047012070473A48F0B5B0F86EC9C3
:10880000B0F86079B0F86C49B0F97869B0F97639A8
:10881000B0F96659B0F972E9A7EB0C0704FB07F44D
:1088200006EBE436DB0293FBF6F303EBE433A3F54C
:108830007A66B0F97049B0F96879C0F87C3906FBFE
:1088400006FC4FEA2C3C06FB05F50CFB04F4ED128C
:108850000CFB0EFCB0F964E906FB07F705EBEC2511
:10886000B0F98069D0F884C9241404EB673405EBAF
:108870008E050234B540B0F86A79A010AC1C4CF2F9
:108880005035ACEBA40C00F5004045FA06F404FBAF
:108890000CF407FB00F0002C4FEAD030ABBF6400B3
:1088A000B4FBF0F0B4FBF0F0400089B1041204FB1B
:1088B00004F50D4E40F6DE3404FB05F4241406FBEB
:1088C00000F504EB254404F6CF6400EB24100860A7
:1088D0002AB103EB83035B0008331B1113600120F3
:1088E000F0BD00BF4814002043E3FFFF054B0068C4
:1088F00093F880299201343202F0FC02F42145F011
:10890000ADBE00BF4814002000682E22F42145F0BF
:10891000A5BE00BF4FF40063838170474FF400632E
:108920008381704703691F2B30B40CD94268A3F1CF
:10893000200451682022A2400A4214BF01220022D2
:108940005AB930BC70474168202209689A400A42EF
:1089500014BF01220022002AF3D08269114DD16890
:1089600000241474896854680A6822F001020A60BD
:10897000216864798A8935F8144092B222EA0402A7
:108980001F2B8A8107D9A3F12001426820238B4045
:1089900030BCD36070474168202202FA03F330BC38
:1089A0008B60704788E3050838B5436B99891A884E
:1089B000890604460AD592B2920607D5C26A002AF1
:1089C00029D09888216B80B29047636B99891A8867
:1089D0000D0692B20FD510060DD5D4E909128A42C0
:1089E00014D0A1692569885C98800132B2FBF5F149
:1089F00005FB1122A262998A1A88C90592B204D590
:108A0000D20744BF4FF6F7721A8038BDDA6822F0F9
:108A10008002DA60EFE79B884169C269DBB28B5460
:108A2000C269C068636B0132B2FBF0F100FB112236
:108A3000E261CBE7D0E90920101AB0FA80F04009D2
:108A4000704700BF4171704743799B070AD5436A5D
:108A50008269D154436A01690133B3FBF1F201FB2E
:108A600012334362704700BF437913F0010314D0FF
:108A7000D0E90731C26810B45B1A541E234008D0F5
:108A800043694C1C5B5CB4FBF2F102FB11420262D5
:108A9000DBB218465DF8044B70471846704700BFBC
:108AA000437913F0020308D0D0E909210369581E65
:108AB000531A0340DBB2C01A70471846704700BF14
:108AC000437913F0010306D0D0E90731C268581A80
:108AD000531E184070471846704700BF90F8342066
:108AE000034602F0FF0012B1002283F834207047E1
:108AF00050F8043C012202770BB118381847704730
:108B000048B3154BD3F8880928B393F88C0910B3F0
:108B1000F0B5124AD3F8A849D3F8AC69104FD3F88E
:108B2000B8590C6002EB840C02EB8602DCF808E01A
:108B3000D2F814C0E25DD3F8B079D3F8B4390B6140
:108B400005F13004C1E906ECC1E902754E6081F817
:108B500020400A75F0BD70474814002088E30508DE
:108B60002051060880B1094BD3F8880960B193F809
:108B70008C0948B110B4D3F8B8490C70D3F8B439A3
:108B80005DF8044B13807047704700BF4814002005
:108B900048B1054BD3F8880928B193F88C0910B176
:108BA000D3F8B0390B8070474814002040B1054B12
:108BB000D3F8880920B193F88C0908B100230B7011
:108BC000704700BF4814002048B1054BD3F888090E
:108BD00028B193F88C0910B1D3F8B8390B707047ED
:108BE0004814002080B1094BD3F8880960B193F88C
:108BF0008C0948B110B4D3F8A8490C70D3F8AC393B
:108C00005DF8044B13707047704700BF4814002094
:108C10004A1E93B2032B1DD80F4B93F88C09C8B191
:108C20000E4800EB820210B4926BD3F8A049A24226
:108C30000DD3D3F8A409824209D8D3F89409C3F814
:108C4000B42940F00200C3F8B819C3F894095DF8DC
:108C5000044B7047704700BF4814002088E30508A4
:108C60004B1ED8B2012825D8501E30B4C4B2072CF0
:108C70001ED8114C94F88C59D5B1104D00EBC3039C
:108C800005EB4303D4F89809B3F8483083420FD377
:108C9000D4F89C0983420BD8D4F89409C4F8B039AD
:108CA00040F00100C4F8A819C4F8AC29C4F894092C
:108CB00030BC7047704700BF4814002088E30508A7
:108CC00028B1034BD3F8880908B193F88C09704791
:108CD000481400200520704748B1164BD3F85C0AB1
:108CE00028B193F8EC29022A02D800207047704777
:108CF00070B4114AD3F8105AD3F80C4AD3F8186A52
:108D00000C6002EB850002EB8404D3F8142AD3F83C
:108D10001C3AA46E4D60C1E902620B61D0F880304C
:108D2000207808753032C1E90643012070BC81F813
:108D3000202070474814002088E3050880B1094BC3
:108D4000D3F85C0A60B193F8EC09022801D800203E
:108D50007047D3F8140A0870D3F81C3A1380012026
:108D6000704700BF4814002068B1074BD3F85C0A75
:108D700048B193F8EC29022A01D800207047D3F8B3
:108D8000183A0B80012070474814002068B1074B47
:108D9000D3F85C0A48B193F8EC29022A01D80020E4
:108DA000704793F82C3A0B7001207047481400204C
:108DB00068B1074BD3F85C0A48B193F8EC29022A52
:108DC00001D800207047D3F8143A0B700120704787
:108DD0004814002080B1094BD3F85C0A60B193F8C5
:108DE000EC09022801D800207047D3F80C0A08705B
:108DF000D3F8103A13700120704700BF48140020C8
:108E000031B9044AD2F8FC3943F00403C2F8FC3902
:108E1000704700BF4814002040B1154BD3F85C2ABE
:108E200022B193F8EC29022A01D870477047E9B1C2
:108E3000D3F8302A9142F9DC01F10042013AD3F82B
:108E4000340A10B430F81200D3F8084AD3F8FC29D9
:108E5000C3F8141AA04228BF204642F002025DF86F
:108E6000044BC3F81C0AC3F8FC297047704700BFC5
:108E70004814002040B11A4BD3F85C0A20B193F893
:108E8000EC09022801D870477047481E30B4C4B2BC
:108E9000042C03D8541EE5B2072D10D9D3F8000ACC
:108EA00058B9D3F8FC49C3F80C1A44F00104C3F8CC
:108EB000102AC3F8180AC3F8FC4930BC7047094DA2
:108EC00004EBC00005EB4000D3F8004AB0F8A40062
:108ED000A042F2D3D3F8044AA042E2D930BC704792
:108EE0004814002088E3050848B1054BD3F85C0A14
:108EF00028B193F8EC09022894BF002001207047A4
:108F000048140020042070472C4B93F8492A722AF9
:108F100012D0762A1FD193F84F2AB3F84A0AB3F831
:108F20004C1AC3F8200A003A18BF012283F82C2AF1
:108F3000C3F8241A02207047B3F84A0AB3F84C2A3F
:108F4000B3F84E1AC3F8000AC3F8042AC3F8081A83
:108F500010B1904201D300207047B1F5487F0BD388
:108F6000174A1848C3F8342A05210C3282628177E7
:108F7000C3F8301A01207047B1F5167F0ED2B1F553
:108F8000C87F0DD3104A0F48C3F8342A04210C328D
:108F900082628177C3F8301A012070470B4AE0E7FC
:108FA000C729FBD90A4A0748C3F8342A03210C32DF
:108FB00082628177C3F8301A01207047481400207C
:108FC0007CE4050800000020C4E40508A0E40508CE
:108FD000E8E40508134A92F83030012B04D092F8E7
:108FE000323003700120704710B492F83A1092F9B1
:108FF00032404B1E79B13C3201E0013B0BD302EB16
:10900000C301B1F904108C42F7DBDBB203705DF8E9
:10901000044B01207047002303705DF8044B0120CE
:10902000704700BF00000020164B93F83320D20792
:1090300003D59B8E03800120704793F93130002BBC
:109040001A46B8BFDA1DC2F3C702042A09D859422A
:1090500001F0070103F0070358BF4B42DBB2072BB7
:1090600003D90023038001207047013201330649F0
:10907000D2B2DBB203EBC20301EB4303B3F892308D
:10908000D8E700BF0000002088E30508D0B170B524
:109090000D4E96F9323082B013B9002002B070BD87
:1090A0000DF107000C461546FFF794FF0028F4D099
:1090B0009DF80730237013B106EBC3039B8E2B8002
:1090C00002B070BD0020704700000020002841D091
:1090D000294B93F93220002A3CD0F0B593F8332085
:1090E00093F93170D30783B00D46044634D501A8F7
:1090F0000026FFF799FF00283AD020460DF106021E
:109100000DF10301FFF7C2FF002831D07B4203F0CD
:1091100007031A4ABDF804402E6007F0070758BF3E
:109120005F4201379DF8033002EB8606FFB2C5E9C6
:1091300002436F6002EB8707B16EBDF806202A611B
:10914000D7F880200C782C753033C5E9061285F8E5
:1091500020300EE000207047002F3E46B8BFFE1DB5
:10916000F610013601A8F6B2FFF75EFF0028C4D161
:10917000002003B0F0BD00BF0000002088E3050818
:1091800028B1044B93F932300BB108464CE700206C
:10919000704700BF0000002070B1094B93F9320006
:1091A00058B193F83020012A08D893F83330C3F32C
:1091B00040030B70012070477047704700207047D4
:1091C0000000002028B1044B93F932300BB108465F
:1091D00000E70020704700BF0000002010B310B46B
:1091E000114C94F9320088B194F83330DB0710D574
:1091F00000230B7094F93130594201F0070103F05C
:10920000070358BF4B420133137001205DF8044B34
:10921000704794F93130002BB8BF0733DB100133AE
:10922000DBB2E6E7704700BF0000002028B1034B27
:1092300093F93200003818BF012070470000002069
:109240000320704700B583B00268084B8188CDF8D1
:1092500001203222D3F8603AADF805108DF80020D5
:109260006846984703B05DF804FB00BF481400202F
:1092700070B5164DD5F8643A1A791E3A012A064699
:1092800005D91846002144F095FBD5F8643A002E24
:109290000ADD0F4C264414F8011B184644F08AFBE3
:1092A000A642D5F8643AF6D11846002144F082FB74
:1092B000B5F8983AD5F8881A064AC5F8901A0133D5
:1092C0000021A5F8983A516070BD00BF48140020F5
:1092D000B01E0020D81E002070B5184C94F8A63A95
:1092E00094F8A72A9A4227D004EBC303D3F8AC0A18
:1092F000D3F8A85A00280ADD2A18013A6B1E04F692
:10930000682113F8016F01F8016B9342F9D1AB7832
:10931000C4F8D80A5B0884F8DC3AFFF7A9FF94F890
:10932000A62A074B0132A3FB02139B0803EB43035E
:10933000A2EB430384F8A63A70BD00BF4814002096
:10934000ABAAAAAA214B2DE9F041D3F8E05A064670
:1093500000F10708002406E01B68394698473C44A2
:109360004645A4B215D016F8017BA7F17D03012B69
:1093700028462B684FF07D01EED81B6898472B6874
:1093800087F020011B6828469847E8E7E3B203EB23
:109390001424FF2CFAD8C4F1FF04E4B2A4F17D0335
:1093A000012B2B6805D9214628461B68BDE8F041F2
:1093B000184728461B687D2198472B6884F02001B8
:1093C00028461B68BDE8F041184700BF481400203C
:1093D0000C4AD2F8F83A30B41C68D2F8F05A5D6002
:1093E00019810025611C19609D812070D2F8F83A1E
:1093F000D2F8F01A1A685A604FF6F67230BC19604B
:109400009A8170474814002070B590F91030134DC0
:1094100003EB83030446806805EB8305134682074C
:109420006D6E82B00E460AD532462846002144F0C1
:109430003DFFA3689B0709D5012002B070BD60699C
:10944000019344F03BFB00BF019BEDE700BF606967
:1094500044F070FC012002B070BD00BF000000208D
:109460002DE9F04FDFF890C2A7B000230CF6FC24E2
:109470000A259CF8401B019327461E469E46184627
:109480000095A4E003EBCE0E0CEB4E03CEF30726C3
:10949000B3F8442B55075FFA8EF7D3B24FEA122A7E
:1094A00040F1CE804A0615D400F10208B8F18C0FC5
:1094B00041F0400100F2148126AD05EB0009421C89
:1094C0002A444FF0040509F88C5C012540460195BB
:1094D00002F88C1C00F10209B9F18C0F46F0020B66
:1094E00000F2038126AA024400F104084FF00505AA
:1094F000B8F18C0F02F88C5C02F88BBC00F2F5809E
:1095000026AD05EB090B00F106099B004FF006059F
:10951000B9F18C0F0BF88C5CDBB202F8897C00F29D
:10952000E4800DF1980BC34400F108084FF00705E3
:10953000B8F18C0F0BF88C5C02F8873C00F2D580F8
:1095400026AB994400F10A034FF005058C2B09F86E
:109550008C5C02F8856C00F2C88026AEB04400F145
:109560000C064FF006058C2E08F88C5C02F8837C04
:1095700000F2BB800B3026AA024426A803444FF019
:10958000070503F88C5C304602F88CAC4FEA5E1697
:109590000EF01F0254F82630012505FA02F223EAE4
:1095A000020344F82630009B013B009300F08A80C0
:1095B0000EF10106B6F5F07F80F084804FEA561E6A
:1095C0004B4B04EB8E079F424FEA8E0E7AD23A68DD
:1095D00006F01F034FF0FF3505FA03F3134093FA2B
:1095E000A3F3B3FA83F3DBB2202B7FF44BAF404BF2
:1095F0003A1D9A421BD23F4B009DDB1B23F0030315
:1096000008371F4401E0BA4211D0164604323368CD
:1096100093FAA3F3B3FA83F35FFA83FEBEF1200F4C
:10962000F1D0361B1EEBC60E00957FF52DAF019BCA
:109630000BB18CF8401B002848D127B0BDE8F08F53
:109640004D0603D401F03808984514D021F0780174
:109650001143821C8C2AC9B242D826AD431C05EBAB
:1096600000082B4410464FF0040208F88C2C01220D
:10967000019203F88C1C831C8C2B36D826AA02EB93
:109680000008021D4FF005058C2A08F88C5C08F8CC
:109690008B6C2AD826AD2B44861D4FF006058C2EE8
:1096A00003F88C5C08F8897C1FD8053026AB03448E
:1096B00026A802444FF0070502F88C5C304603F8F8
:1096C0008CAC63E7019B0BB18CF8401B024603A9ED
:1096D000DCF8380BFFF798FE012027B0BDE8F08FCB
:1096E000012301936FF0004050E76FF000404DE719
:1096F000801F00207B1F0020481400202DE9F04F20
:109700003F4E96F83E7BC3B007B1FEE796F83F2B7D
:10971000DFF8F8B0044602F0F7020123D6F8380B60
:1097200086F83F2B8846394686F83E3B44F096FF44
:10973000FF2C4FF009038DF8054088BFA40801A94C
:1097400088BF04F0C007022200204FF00A0A0DF182
:1097500005094FF00B0E0DF1070C0B7012E0B4F57C
:10976000827F01F802A009F8023018F8003012D800
:109770000130362801F805E00CF8023002F1060548
:1097800022460FD0951C47EA0003B5F5827F02F10F
:109790000404DBB2E3D901306FF0004436282246DE
:1097A0005D46EFD1B5F5827F26D808200DF105037F
:1097B0000855A02098540232D6F8380B114CFFF708
:1097C00023FED6F8380B0DF10302A02144F07CFEF5
:1097D0000D4B38B91B68228859690A4214BF5A8355
:1097E0001A83EEE79DF8032012F02002F2D186F8EA
:1097F0003E2B43B0BDE8F08F6FF00042DCE700BFC6
:10980000481400206C2500206825002001000080FD
:109810002DE9F041274B86B09C1D1E4603F16008E0
:109820001F464FF0000C94F800E0A0EB0E05A0EBF3
:109830000C02002DB8BF6D42002AB8BF52429542BB
:10984000B8BF274604F10604B8BF4FFA8EFCA04506
:10985000E9D17C8803F15A0E002204E02546B64582
:1098600016D016F8062F6245F8D1B6F80280A1EBA3
:1098700008020B1B002AB8BF5242002BB8BF5B4244
:1098800093422546EBDDB645444645463746E8D18A
:109890007E793C7902953A78019200910346CDE9B0
:1098A0000346054A032101204BF052F8384606B022
:1098B000BDE8F0810CE5050824510608002853D0C6
:1098C00070B5384C94F9323082B0002B4AD00D4636
:1098D000002952D094F83A30AB4246D394F8B830CD
:1098E0000093314A2B46042109204BF031F894F8BB
:1098F0003030013D022BEDB241D0032B49D0012B7A
:1099000040D02A4D002228466E1D10F8013B082148
:109910005A40530012F0800F08BF520083F0D50365
:1099200014BFDAB2D2B20139F3D1B042EDD120483E
:10993000204B90F8A71A84F8B9204A1CA3FB0243D5
:109940009B0890F8A64A03EB4303A2EB4303A34210
:1099500008D000EBC1010622C1F8A85A80F8A73A46
:10996000C1F8AC2A02B070BD7047134A0421092027
:1099700002B0BDE870404AF0EBBF104AF6E784F849
:10998000B850BEE704EBC505B5F8403084F8B830F0
:10999000B7E704EBC50595F8403063F07F0384F822
:1099A000B830AEE7000000209C510608B40000204B
:1099B00048140020ABAAAAAA8851060860510608DC
:1099C0000139CBB2042B48D8013AD1B2072945D886
:1099D000F0B5DFF898C001EBC3070CF1BC05FFB28E
:1099E00083B02E468CF8C0700CF1C10E002016F822
:1099F000012B08245040420010F0800F08BF4000A7
:109A000082F0D50214BFD0B2C0B2013CF3D1B6454A
:109A1000EDD1CDE90017124A8CF8C10004210920CC
:109A20004AF096FF0F49104B91F8A72A91F8A64AE1
:109A3000501CA3FB00639B0803EB4303A0EB430311
:109A4000A34208D001EBC2020620C2F8A85A81F84E
:109A5000A73AC2F8AC0A03B0F0BD7047704700BF28
:109A6000C451060848140020ABAAAAAA000000208E
:109A700070B5314C94F8303040F00802022B84B0BD
:109A800084F8C8204ED800F004062C4B2C4A2D49EF
:109A9000039110F0010F14BF15461D4610F0020F80
:109AA0000CBF194611460095002E08BF1A46264DD8
:109AB000CDE901120346254A092004214AF048FF56
:109AC0006E1D0022284610F8013B08215A40530021
:109AD00012F0800F08BF520083F0D50314BFDAB232
:109AE000D2B20139F3D18642EDD11948194B90F821
:109AF000A71A84F8C9204A1CA3FB02439B0890F8CC
:109B0000A64A03EB4303A2EB4303A34208D000EBB6
:109B1000C1010622C1F8A85A80F8A73AC1F8AC2AB8
:109B200004B070BD10F00406AFD083071CBF012342
:109B300084F83830A9E700BF000000201052060862
:109B40000C52060844520608C400002014520608AD
:109B500048140020ABAAAAAA00286BD0534890F959
:109B60003230002B4BD090F83030002B48D070B5FD
:109B700084B0002947D0022B43D990F83820002A1E
:109B800040F08680802300F1CC0580F8D0302C4650
:109B900000F1D10614F8013B08215A40530012F09D
:109BA000800F08BF520083F0D50314BFDAB2D2B2DF
:109BB0000139F3D1B442EDD13D4C3E4B94F8A71A94
:109BC00080F8D1204A1CA3FB02039B0894F8A60A44
:109BD00003EB4303A2EB4303834208D004EBC10130
:109BE0000622C1F8A85A84F8A73AC1F8AC2A324A2A
:109BF0000421092004B0BDE870404AF0A9BE7047B6
:109C0000704704B070BD022B15D8042490F933209E
:109C100012F00800D3B218BF44F002045B0713D45B
:109C200039B3002C32D1002834D0244924480B46C3
:109C3000012410E0704790F83830002BE5D1042063
:109C4000FFF716FF1F4AD3E744F00104B1B150B348
:109C50001A490B460846CDE90021CDE902041A4A0B
:109C6000042109204AF074FE204604B0BDE870408B
:109C7000FEE6134B38B111491148ECE778B91049A9
:109C80000E480B46E7E70E490846E4E70B4BF1E7C1
:109C90000024BBE70A49094B08460124DBE7084BCF
:109CA00006490648D7E7054B0549FAE700000020BA
:109CB00048140020ABAAAAAA5052060880930608AE
:109CC0001052060878520608A452060810B5104A29
:109CD000042109204AF03CFE0E490F4B91F8A72AB7
:109CE00091F8A64A501CA3FB00C39B0803EB430357
:109CF000A0EB4303A34209D001EBC202074881F85D
:109D0000A73A0523C2F8A80AC2F8AC3A10BD00BFB2
:109D1000EC52060848140020ABAAAAAAD4000020DE
:109D2000F8B5184D95F85830002BFBD141B30144DC
:109D3000154F4E1E441ED7E94012531CC3F30A03AD
:109D40008B422CBF4FF400600020C91A2A44014402
:109D500014F801CF82F85CC00129C7F804310DD195
:109D6000012043F001FDD7E940318B4294BF4FF40D
:109D7000006200225B1A1344012BF1D0B442DAD105
:109D80000020F8BD402500204814002038B5FEF71B
:109D9000D9F900B938BD064D002A0C46D5F8883AE5
:109DA0001146F7DD2046FFF7BBFFD5F8883A38BDEE
:109DB0004814002090F84810002280F8482009B983
:109DC0000120704710B50A4CD4F8083173B1D4F8AB
:109DD0000831052B01D0104610BD3430D4F8883A34
:109DE000FFF79EFFD4F8883A012010BD184610BD39
:109DF00048140020002280F84920DBE790F8483022
:109E0000C2180133DBB280F8483082F8341090F881
:109E100049200AB1132B00D9CCE7704710B50722AF
:109E200004460A21006844F019FC052043F09CFC1C
:109E300024224121206844F011FC052043F094FCC9
:109E4000C0224221206844F009FC052043F08CFC2C
:109E5000012010BD10B5012204461021006844F015
:109E6000FDFB00B910BD142043F07EFC2068A02249
:109E7000BDE81040112144F0F1BB00BF10B57822BD
:109E800004460021006844F0E9FB052043F06CFC27
:109E900020220121206844F0E1FB052043F064FC0E
:109EA00000220221206844F0D9FB642043F05CFCCE
:109EB000012010BD10B584B00446002300688DF861
:109EC00007300DF10702272144F0FEFA28B19DF872
:109ED000073013F0080302D1184604B010BD206803
:109EE000062302AA282144F059FB28B39DF8092033
:109EF0009DF808309DF80B1043EA02231BB2002B9B
:109F00009DF80A20B8BF03339B1042EA0122E38682
:109F10009DF80D109DF80C3012B243EA0123002A7F
:109F20001BB2B8BF0332002BB8BF033392109B1093
:109F30002287638704B010BDE086A06304B010BD23
:109F400070B5002382B0C38683630446062300688D
:109F50006A46032144F022FBE0B19DF803209DF8FE
:109F600002309DF801609DF800109DF8055043EA0D
:109F700002239DF804201BB25B4241EA062142EA1B
:109F8000052203EB430301EB410102EB420223876D
:109F9000E186628702B070BDF0B5002585B0044649
:109FA000C58685630DF107020068062144F08CFA2E
:109FB00028B19DF8073013F0040302D1184605B00C
:109FC000F0BD20682946062302AA44F0E7FA0028DB
:109FD000F5D09DF809709DF808109DF80B609DF86C
:109FE0000A209DF80D509DF80C3041EA072142EA05
:109FF000062243EA0523E1862287638705B0F0BD88
:10A0000070B5002184B00446C18681630DF107025A
:10A01000006844F059FA28B19DF8073013F008039E
:10A0200002D1184604B070BD2068062302AA01219F
:10A0300044F0B4FA0028F5D09DF808209DF80C6093
:10A040009DF80D309DF809109DF80A5041EA022153
:10A0500043EA06239DF80B20E1865B42638742EAD0
:10A060000523238704B070BDF0B50446006803796A
:10A0700083B0022B0CBF4321032106236A4644F020
:10A080008DFAB0B19DF800709DF801109DF8026046
:10A090009DF803209DF804509DF8053041EA072102
:10A0A00042EA062243EA0523E1866287238703B05A
:10A0B000F0BDE086A06303B0F0BD00BF00B583B083
:10A0C00001AA0323002144F069FA9DF805309DF8A8
:10A0D00004209DF806001B0243EA0243184303B024
:10A0E0005DF804FB08B50068FFF7E8FF024B024685
:10A0F000C3F83829012008BD4814002008B50068BD
:10A10000FFF7DCFF024B0246C3F82429012008BDFB
:10A110004814002070B582B0006806236A46F72113
:10A1200044F03CFA08B39DF801209DF800409DF8EA
:10A1300004309DF802109DF803609DF8055012014F
:10A1400042EA04321B0142EA11120E4C0E49C4F8D5
:10A150005C2943EA063343EA1513C1F85C28C4F8C6
:10A160003C39C1F8603802B070BD074A054BD2F8DF
:10A170005C18D2F86028C3F85C19C3F83C2902B017
:10A1800070BD00BF481400204025002030B583B0CA
:10A190000068032301AAF62144F000FA88B10A49B5
:10A1A0009DF805309DF804509DF80640B1F98029CE
:10A1B0001B0243EA05432343C2F10802D340C1F81E
:10A1C000843903B030BD00BF4814002000B583B00F
:10A1D0000068022301AAF62144F0E0F940B19DF89D
:10A1E00004109DF80530044A43EA0123A2F86039BF
:10A1F00003B05DF804FB00BF481400202DE9F047D0
:10A20000038A8489A4B21C4082B045D08146884626
:10A210004FF0004501F14C0701F13406B4FA84F324
:10A2200025FA03F2D24391B21440A9F810101B3B57
:10A23000B8F1000F5DD0042B2CD8DFE803F05046B6
:10A240003B300300D8F80C30D9F82CA033B19B6810
:10A2500023B11FFA8AF108F104009847D8F8243096
:10A2600033B19B6823B11FFA8AF108F11C009847AB
:10A27000D8F83C302BB19B681BB11FFA8AF13046ED
:10A280009847D8F854302BB19B681BB11FFA8AF15C
:10A2900038469847002CC1D102B0BDE8F087D8F805
:10A2A0000C30D9F834105B6808F104009847002C92
:10A2B000B4D1F1E7D8F82430D9F838105B6808F148
:10A2C0001C009847002CA9D1E6E7D8F83C30D9F813
:10A2D0003C105B6830469847002C9FD1DCE7D8F8EB
:10A2E0005430D9F840105B6838469847002C95D117
:10A2F000D2E7042B07D8DFE803F00319140F0A0094
:10A30000D9F840300193019B002C87D1C4E7D9F8DC
:10A310002C300193019BF7E7D9F834300193019B6E
:10A32000F2E7D9F838300193019BEDE7D9F83C30DA
:10A330000193019BE8E700BF03682DE9F041044663
:10A340009869002800F0888040F615030021C3803A
:10A35000017243F0B9FB2268444B9169A361002963
:10A360007AD08B88B3FA83F3202BC3F11F0666D013
:10A3700006F0FC0505F1804505F59C3506F0030265
:10A38000D5F808E009683A4F3A484FEA820C4FF096
:10A390000F0808FA0CF801F13F422EEA080107EB1A
:10A3A000860E04F11808CEF8648802F57E02A960D2
:10A3B000D5F808E03049C2F3872202FA0CF24FF0D8
:10A3C000004C2CFA03F342EA0E02AA6043610268D1
:10A3D0002A4D22EA03020260426822EA0302426036
:10A3E00002681A430260826822EA03028260C2683D
:10A3F0000E4422EA0302C260286896F8E42103436F
:10A4000017442B6097F8A438042B16D91144042064
:10A4100091F9F43191F8F42187F8A408002B1DDBA1
:10A4200017480121C51802F01F025B0901FA02F268
:10A43000402185F8001340F823202368996959B119
:10A440008B884FF00042B3FA83F332FA03F303D060
:10A4500008490A6813430B60BDE8F081094B02F01C
:10A460000F02134440221A76E7E700BFF18A000882
:10A4700040250020003C014088E30508083C0140DD
:10A4800000E100E0FCEC00E0F8B50546016B354F5B
:10A4900090F82D00B7FBF1F189B22C68FFF7B8F9FD
:10A4A000064628467388B7FBF3F7AF63FFF744FF10
:10A4B0002046002144F080FB80226B21204644F09E
:10A4C000CDF8642043F050F907226821204644F07B
:10A4D000C5F8642043F048F900226B21204644F07F
:10A4E000BDF8642043F040F901226B21204644F07E
:10A4F000B5F80F2043F038F918221B21204644F00C
:10A50000ADF80F2043F030F918221C21204644F00A
:10A51000A5F80F2043F028F932791A21204644F09B
:10A520009DF80F2043F020F972791921204644F05C
:10A5300095F8642043F018F912223721204644F0A0
:10A540008DF80F2043F010F938212046012244F005
:10A5500085F80F2043F008F920460321BDE8F840B4
:10A5600044F02ABB40420F00F0B5054683B0016BB2
:10A57000534F90F82D00B7FBF1F189B22C68FFF72B
:10A5800047F9064628467388B7FBF3F7AF63FFF732
:10A59000D3FE2046002144F00FFB80226B21204691
:10A5A00044F05CF8962043F0DFF80322682120464F
:10A5B00044F054F8962043F0D7F803226B2120464C
:10A5C00044F04CF80F20002143F0BAF810226A2121
:10A5D000204644F043F80F20002143F0B1F8002258
:10A5E0006C21204644F03AF80F20002143F0A8F8EF
:10A5F00072791921204644F031F80F20002143F0F0
:10A600009FF818221B21204644F028F80F20002133
:10A6100043F096F818221C21204644F01FF80F2022
:10A62000002143F08DF810223721204644F016F81F
:10A630000F20002143F084F801223821204644F005
:10A640000DF80F20002143F07BF832791A212046C3
:10A6500044F004F80120002143F072F82046032161
:10A6600044F0AAFA286806236A46432143F096FF7D
:10A67000D0B19DF802609DF803309DF800409DF830
:10A6800001109DF804009DF8052043EA06231BB243
:10A690006B845BB241EA042142EA0022013329843F
:10A6A000AA8406D003B0F0BDB5F922305BB2013305
:10A6B000F8D195F920300133F4D1062043F0AAFBFC
:10A6C00040420F0010B500680C464BF0EFF883785D
:10A6D0000BB9184610BD817AC37A074A43EA0123B1
:10A6E0001BB282FB0312DB17C3EB221303F26D13C1
:10A6F0002380012010BD00BF7978787810B504461A
:10A7000000684BF0D3F80346807800B910BD197982
:10A710005A7942EA0122E2819979DA7942EA012200
:10A7200022821A7A5B7A43EA02236382012010BDF7
:10A7300070B50568064628464BF0B8F80446221D59
:10A7400028460E233B2143F029FFA07000B970BDBD
:10A75000227B637B43EA02233384A27BE37B43EACD
:10A7600002237384227C637C43EA0223B38470BD9A
:10A77000F8B52D4C002504F6D616D4F8880943F018
:10A78000F3F8B8B194F8E839002B4BD1D4F8880924
:10A7900043F0E2F8D4F8E4396BB90F28EDD1012386
:10A7A00084F8D409D4F88809C4F8E43943F0DCF813
:10A7B0000028E7D1F8BD0F2B07D8E2180133C4F801
:10A7C000E43982F8D409D4F8E439102BD5D194F8BF
:10A7D000D4390F2B04D084F8E859C4F8E459CCE7F5
:10A7E00094F8D53994F8C5299A42F4D194F8E3291C
:10A7F000002AF0D10D4A94F8E27902F10C0012F827
:10A80000011F0B448242DBB2F9D19F42E3D10849D8
:10A810000C22304653F0E7FC0028DCD0012084F8FD
:10A82000E809F8BD0020F8BD481400201D1E0020D6
:10A830000E1E0020F8B5334C002602270125D4F85F
:10A840005C0A43F091F890B1D4F85C0A43F084F8C4
:10A85000D4F8583A63B90F28F1D184F8480AD4F8EB
:10A860005C0AC4F8585A43F07FF80028ECD1F8BDD0
:10A87000012B1CD00F2B07D8E2180133C4F8583A2B
:10A8800082F8480AD4F8583A102BD8D11E4A94F8C6
:10A8900056CA02F10D00002312F8011B0B4482423C
:10A8A000DBB2F9D19C450ED0C4F8586AC7E7A0F1D5
:10A8B0007203DBB2012B01D97628F5D1C4F8587A9E
:10A8C00084F8490ABBE794F8573A002BECD1D4F846
:10A8D000482AD4F8383A9A4201D00120F8BDD4F879
:10A8E0004C2AD4F83C3A9A42F7D1D4F8502AD4F8FA
:10A8F000403A9A42F1D1D4F8542AD4F8443A9A42D0
:10A90000EBD1D1E748140020911E002070B51B4DFB
:10A910000F23044685F8C50985F8C43929B30868AA
:10A920008B684A68C5F8C60995F8C619C5F8CE39C6
:10A93000C5F8CA2905F6C61303F10B0201E013F8A6
:10A94000011F60189342C4B2F9D100260C49D5F812
:10A95000880985F8D249102285F8D36943F008F8B0
:10A9600085F8E869C5F8E46970BDC5F8C619C5F889
:10A97000CA19C5F8CE1905F6C613DDE7481400203C
:10A980000C1E002070B5A14DD5F8B03840F207126A
:10A99000934284B000F0E680B3F5847F27DB40F279
:10A9A0000D12934200F0BB8040F21B1293421CD167
:10A9B000974C94F8E839002B61D1FFF7D9FE0028B5
:10A9C00000F0D48094F8E839002B58D1D4F89039AD
:10A9D0000133C4F89039022B70DD002384F88C39E0
:10A9E0000023C5F8B438C5F8B03804B070BD002BEA
:10A9F00000F0A380F52B3ED1854C05F50B6694F84D
:10AA0000E8395BB9FFF7B4FE002800F0BA8094F88B
:10AA1000E8391BB994F88C3993B993E0B4F8D61996
:10AA2000B4F8D839B4F8DA29C4F89819C4F89C39BC
:10AA300000210123C4F8A019C4F8A42984F88C3992
:10AA40000023D4F8881AC4F890394FF47A72C4F805
:10AA50009439F36040F20713B160C5F8C028C5F817
:10AA6000B038D4F8883AB168D5F8C0285B1A934258
:10AA700044DCD5F8B038002BB2DB04B070BDB4F8BC
:10AA8000D629D4F8B019B4F8D839C4F8BC290020B4
:10AA90008A42C4F8C039C4F8900905D0D4F8942982
:10AAA00042F00102C4F89429D4F8B429934205D0A5
:10AAB000D4F8943943F00203C4F8943994F88C39EB
:10AAC000002B8DD0534ED4F8883AB36040F2071370
:10AAD00000214FF47A72C5F8B038D4F89439F16097
:10AAE000C5F8C028002B00F08E8013F0010252D16F
:10AAF00013F0020373D1C4F894391BE000217620CF
:10AB0000FFF704FFD4F8883AB3600021FA2240F23C
:10AB10001B13F160C5F8C028C5F8B03849E73C4CB4
:10AB2000D5F8B818D4F8883AD5F8C0285B1A9342FB
:10AB30007FF75BAFD4F890394DE7354C05F50B66E0
:10AB400084F88C3900217220FFF7E0FED4F8883AAF
:10AB5000B3600021FA22F523F160C5F8C028C5F8DA
:10AB6000B0384CE72A4CD4F89439BBE7294AD4F8DA
:10AB7000883A9168D5F8C0285B1A93423FF722AF14
:10AB800077E7D4F8883AB168D5F8C0285B1A9342C1
:10AB90003FF73DAF6DE7B4F8B039002601A9462074
:10ABA0000196CDE90266ADF80430FFF7AFFED4F8A8
:10ABB000880A1849D4F8883AD4F8942988601B1A6E
:10ABC000FA20CE6022F0010240F20D118342C4F857
:10ABD0009429C5F8C008C5F8B018ABDC05E7B4F88F
:10ABE000B439019201A95020CDE90222ADF8043018
:10ABF000FFF78CFED4F89429D4F8903922F00202A1
:10AC0000C4F89429E7E6034E2BE700BF4025002057
:10AC100048140020F02D002038B5134C00230F25D8
:10AC2000A4F83A1A84F8390A84F8385AC4F8403A31
:10AC3000C4F8443AC4F83C3A04F6392204F64521F3
:10AC400001E012F8010F03448A42DBB2F9D107494F
:10AC5000D4F85C0A84F8463A102242F089FE0023B8
:10AC6000C4F8583A38BD00BF48140020801E0020A8
:10AC700010B5774CD4F85C3AB3B394F8EC39062BA2
:10AC800032D8DFE803F0323F4B5B76860400FFF7F3
:10AC9000D1FD002800F09C800023C4F8F839FEF7AD
:10ACA00033F902286DD1D4F8FC39D90709D4D4F886
:10ACB000201AD4F8182A91421CBF43F00103C4F8AB
:10ACC000FC399A0709D4D4F8241AD4F81C2A9142E2
:10ACD0001CBF43F00203C4F8FC39D4F8883AC4F826
:10ACE000F039032384F8EC3910BD0023D4F8881A16
:10ACF000C4F8F8390122C4F8FC39C4F8F01984F812
:10AD0000EC2910BD00217220FFF786FFD4F8883AA5
:10AD1000C4F8F039022384F8EC3910BDFFF78AFD3E
:10AD2000002846D0FEF7F0F801286ED0D4F8883A13
:10AD3000C4F8F039002384F8EC3910BDD4F8FC399C
:10AD4000002B6DD0590759D4DA0772D49807CBD5A8
:10AD500023F00203B4F81C1AC4F8FC395020FFF7A2
:10AD60005BFFD4F8883AC4F8F039042384F8EC394E
:10AD700010BDD4F8883AD4F8F0299B1AB3F57A7F3D
:10AD8000B2D9D4F8883AC4F8F039052384F8EC39FC
:10AD900010BD00217620FFF73FFFD4F8883AC4F8B1
:10ADA000F439D4F8882AC4F8F029062384F8EC3959
:10ADB00010BDD4F8883AD4F8F0299B1AB3F57A7FFD
:10ADC00092D9D4F8883A84F8EC09C4F8F03910BD67
:10ADD000D4F8883AD4F8F0299B1AB3F57A7F83D94E
:10ADE000D4F8F8390133032BC4F8F839D4F8883A89
:10ADF00027DD84F8EC09C4F8F03910BD23F0040312
:10AE000000217320C4F8FC39A9E70023D4F8882A6C
:10AE1000C4F8F8390523C4F8F02984F8EC3910BDDA
:10AE2000D4F8883AD4F8F4299B1AB3F5FA6FA8D865
:10AE300010BD23F00103B4F8181AC4F8FC394620F9
:10AE40008DE7C4F8F039052384F8EC3910BD00BF54
:10AE5000481400202DE9F043584C94F8C85883B0AA
:10AE600015B103B0BDE8F083D4F8CC58002DF8D06C
:10AE7000DFF8508194F8D238D8F8002084F8DA3816
:10AE80000746B4F8D00894F8D638A4F8D8080E4687
:10AE90005007B4F8D418A4F8DC1884F8DE3894F815
:10AEA000D01814D594F81429012A02D0022A00D00F
:10AEB0005AB3434B0132A3FB021323F0010101EB10
:10AEC0005303D21A84F8142903B0BDE8F08394F830
:10AED000E40840B9012B03D0022B04D1120702D49D
:10AEE000012384F8DA3894F81439012B23D0022B8B
:10AEF00040D0002B5AD02B68196819B13A46334616
:10AF00002846884794F81429D3E72B68D3F81C9077
:10AF1000B9F1000FCDD00DF107012846C84728B17F
:10AF200094F8DA189DF807308B423AD1D8F80030FF
:10AF30005B07E0D5E6E70029DDD02B689B69002B95
:10AF4000D9D00DF107020DF10601284698470028D7
:10AF5000ECD094F8D8189DF8063094F8D9288B4294
:10AF600003D19DF807309342E0D028461CF060FCE6
:10AF70002B68C1E70DF1070128461CF023FC0028CF
:10AF8000D4D094F81539002BD0D09DF8073000218B
:10AF900084F81519002BC9D028461CF01BFC2B681F
:10AFA000AAE728461CF034FC2B68A5E72B68D3F8E9
:10AFB0001C90B9F1000F9FD0ADE700BF40250020E5
:10AFC000ABAAAAAAD0B90020022805D0A0F101009E
:10AFD000B0FA80F040097047054B93F8203923B947
:10AFE000044B1868C0F38000704710202AF06CBD35
:10AFF00040250020D0B9002070B5344C94F8583961
:10B00000012B84B001D004B070BD94F85909022816
:10B0100029D0A0F10100B0FA80F040092C4DD5F8FC
:10B02000E03A40B3002BEED1D4F85C29002AEAD0F4
:10B0300094F8286994F8211992F90400002E14BF9D
:10B0400008220022002908BF42F0010203244FF425
:10B050006141CDE9014200911A46202129F05CFFAF
:10B06000C5F8E00ACFE794F82039D3B9194B18682E
:10B07000C0F38000D2E7002BC5D0D4F864299A42EF
:10B0800014D0D4F8702993420FD0D4F87C2993427D
:10B0900017D0D4F88829934215D00023C5F8E03A98
:10B0A000B1E710202AF010FDB8E7012000EB4000C6
:10B0B00004EB80040022DA62C4F86829C4F8642929
:10B0C000EBE70220F2E70320F0E700BF4025002075
:10B0D00048140020D0B900200B68144A30B4056829
:10B0E000CC682A402343D1E9054513432343D1E9E2
:10B0F00007242B4313434A6A4D6B234313438C6B42
:10B10000CA6A2B43234343F40033036044690B6B47
:10B110000D6924F0070413432343D1E9014243613D
:10B120004560846030BCC260704700BF3F801CF047
:10B1300082B000230193019A0C490D4BD1F89C1960
:10B1400042F020020192019A60F38A120192019A60
:10B150000A610A69019203E00A690192013B02D087
:10B16000019A9206F8D4002002B0704740250020D2
:10B17000400D030010B5802104464BF0DFFA204655
:10B1800000214BF0DBFA2046BDE810404BF00ABB33
:10B1900000F01F0240090123032803FA02F304D040
:10B1A000042807D002280AD07047074A116C0B43C5
:10B1B00013647047044A116B0B4313637047024AD0
:10B1C000516C0B435364704700380240804BB3FB13
:10B1D000F2F399420DD300234FF07E524360836017
:10B1E000C360036102600023836143610362C36142
:10B1F000704707EE902A9FED777AF8EE676A07EEC0
:10B20000901A66EE876AF8EE677A66EEA76AFDEE38
:10B21000E67A17EE903A2033402B00F2CA80DFED39
:10B220006E7AF4EEE76AF1EE10FAF0EE667A0CDD73
:10B23000DFED6A5A9FED6A6AB0EE677AB4EEC67ABD
:10B24000F1EE10FA77EEE57AF6DC9FED667AF4EE31
:10B25000C77AF1EE10FA0CD5DFED605A9FED626A05
:10B26000B0EE677AB4EEC67AF1EE10FA77EEA57A10
:10B27000F6D49FED5E7AF4EEC77AF1EE10FA00F3A1
:10B2800090809FED5B7AF4EEC77AF1EE10FA44BF3E
:10B290009FED547A77EE677A27EEA76ADFED554A7D
:10B2A0009FED557A9FED555ADFED555AA6EE247A5B
:10B2B00067EE864AA6EE075AB6EE007AE6EE055A23
:10B2C000E4EEA57A27EE877A9FED486A76EE867AD5
:10B2D000FDEEE75A15EE903A2033402B66D8F4EE97
:10B2E000C66AF1EE10FA0CDDDFED3C5A9FED3C6AC8
:10B2F000F0EE676AF4EEC66AF1EE10FA77EEE57AE0
:10B30000F6DCDFED386AF4EEE67AF1EE10FA0CD5F1
:10B31000DFED325A9FED346AF0EE676AF4EEC66AEA
:10B32000F1EE10FA77EEA57AF6D4DFED306AF4EE9E
:10B33000E67AF1EE10FA3FDDDFED276A76EEE77A86
:10B3400067EEA76ADFED2B4A9FED2B5ADFED2B5AF4
:10B350009FED2B6AA6EEA45A67EEA64AE6EE855A42
:10B36000B8EE005AA6EEA56AE4EE867A67EE857A14
:10B37000C7EE006AB7EE006A76EE865A76EE666A27
:10B3800086EE257A67EE277A66EE876AC0ED017A47
:10B39000C0ED037A80ED007A80ED027AC0ED046A98
:10B3A00021E79FED0D7A77EE677A75E7DFED157A85
:10B3B000DEE79FED147A87E7DFED0D6AF4EEE67ABB
:10B3C000F1EE10FA44BFDFED076A76EEE77AB7E7F1
:10B3D00020A1070027D4D236DB0F4940DB0FC9403C
:10B3E000E4CB1641DB0F49C0E4CB16C1DB0FC93FEC
:10B3F000DB0FC9BF9A7C2E36FAAF4FB93587083CB0
:10B40000A4AA2ABE000000000023024A4260036092
:10B410008360704783F9223E034A044B4260002157
:10B4200001608360704700BF5B128B3A6F12033B71
:10B43000034B6428B8BF6420C3F89404704700BF6E
:10B4400000000020034B64285B68B8BF6420D8600C
:10B45000704700BFD0B900202DE9F04790B0DDE97A
:10B46000184A0E460746904601A83C2200219946FC
:10B470001A9D52F0E0FE2F4B8DF80460CDF834A0F9
:10B480000293002E51D0B31E012B50D9042E14BFAD
:10B4900000220322284B0394D3F8883A8DF8052024
:10B4A0001C440123CDE9055704948DF83130B8F1DF
:10B4B000000F06D04A46414607A852F0D1FC8DF84D
:10B4C0003090DFF878E09EF8C6AF0023BAF1010FA4
:10B4D0000E931CD801AC0FCC9EF8C5CFCCEB0C154D
:10B4E0000EEB850505F6C8750FC50FCC0FC50FCC43
:10B4F0000FC594E80700BCFA8CFC0AF1010A4FEA78
:10B500005C1C85E807008EF8C6AF8EF8C5CF3B6897
:10B5100043B14B4642463146384610B0BDE8F0478D
:10B5200027F0D2BD10B0BDE8F0870522B2E70222B5
:10B53000B0E700BFC434002048140020402500209C
:10B5400030B403681A6853797BB159B2002920DB03
:10B55000174C0120651803F01F03490900FA03F393
:10B56000302085F8000344F8213093797BB15AB23A
:10B57000002A15DB0E480121841803F01F0352092D
:10B5800001FA03F3302184F8001340F8223030BC74
:10B590007047084903F00F03194430230B76E4E7A2
:10B5A000044A03F00F031A443023137630BC70476B
:10B5B00000E100E0FCEC00E02DE9F047041E0D4640
:10B5C00012DB092C26DC824A0B468248A0FB0410C1
:10B5D000C00800EB8000A4EB40000021125C1A7050
:10B5E00059702846BDE8F08764422D23092C01F8E4
:10B5F000013B24D8764A774BA3FB0403DB0803EB1B
:10B600008303A4EB43030020D35C48700B702846EF
:10B61000BDE8F0876F4B632CA3FB04264FEAD606E8
:10B6200021DC6B4A0B466B49A1FB0601C90801EB03
:10B630008101A6EB4101515C03F8011BC5E7654A96
:10B64000632CA2FB04364FEAD60637D8604A614B1A
:10B65000A3FB0603DB0803EB8303A6EB4303D35CE6
:10B6600001F8013BC7E7A3FB0627B4F57A7F4FEA51
:10B67000D7070DD2564A0B465649A1FB0701C90808
:10B6800001EB8101A7EB4101515C03F8011BCAE703
:10B69000A3FB072842F20F7294424FEAD80836D82B
:10B6A0004B4A0B464B49A1FB0801C90801EB81013C
:10B6B000A8EB4101515C03F8011BDDE7A2FB063753
:10B6C000B4F57A7F4FEAD7070CD2414A414BA3FB2E
:10B6D0000703DB0803EB8303A7EB4303D35C01F809
:10B6E000013BB4E7A2FB073842F20F739C424FEADA
:10B6F000D80821D8364A374BA3FB0803DB0803EBF5
:10B700008303A8EB4303D35C01F8013BDEE7324A35
:10B71000A3FB080994424FEAD90921D82C4A0B46C9
:10B720002C49A1FB0901C90801EB8101A9EB4101E9
:10B73000515C03F8011BB5E7274BA2FB08099C42AB
:10B740004FEAD90921D8224A224BA3FB0903DB087F
:10B7500003EB8303A9EB4303D35C01F8013BCAE786
:10B760001E4AA3FB090394424FEAD30A21D80B4691
:10B770001849174AA1FB0A01C90801EB8101AAEB8C
:10B780004101515C03F8011BCAE7144BA2FB0902FB
:10B790009C424FEAD20A13D80E4B0D4AA3FB0A0370
:10B7A000DB0803EB8303AAEB4303D35C01F8013B03
:10B7B000CAE70A22BAFBF2F045F098FE0346D7E743
:10B7C0000A22BAFBF2F045F091FE0146E4E700BF21
:10B7D00004530608CDCCCCCC9F8601003F420F001D
:10B7E0002DE9F04FBE4D2DED028BD5F8640A8DB0DA
:10B7F000002800F0A580BB4CDFF810839FEDB68BCE
:10B80000CDE904ABA4F18C0942F0AEF8002847D092
:10B81000D5F8640A42F0A0F814F8B43C052B39D8E6
:10B82000DFE803F0939F99AB2D0354F8946C023634
:10B830004FFA86FCBCF1000F40F38082AA4F002330
:10B84000BC4417F8012B082153405A0013F0800F15
:10B8500008BF5B0082F0D50214BFD3B2DBB201395E
:10B86000F3D1BC45EDD1984200F0528114F8B03CC0
:10B87000D90740F19D80002304F8B43C0AE054E964
:10B880002523E1180133934201F8AE0C44F8903CB3
:10B8900000F08180D5F8640A42F066F80028B7D13C
:10B8A000B5F8982A092A0BD9B5F89A1A642303FB2C
:10B8B00001F3B3FBF2F3452B40F38C80C5F8980AF3
:10B8C00014F8463C012B00F0B480022B00F0DB8022
:10B8D000002B00F0D28095F8DC3AD5F8886A7BB16D
:10B8E000824AD2E90031B6EB030A4FF0000363EB62
:10B8F000010BBBF1000F08BFBAF1790F80F0CC80CB
:10B9000095F8A72A95F8A63A9A425AD154F83C3CA1
:10B91000F31AB3F57A7F13D2744AD2E90032F31ADC
:10B9200006934FF0000363EB02030793DDE906344F
:10B93000002C08BF962B03D3FEF7C8F9FDF7CCFC0B
:10B940000DB0BDEC028BBDE8F08FAA28A2D1012377
:10B9500004F8B43C9EE7032304F8B00C04F8B43CAC
:10B9600098E7552800F08580B5F89C3A002201330D
:10B97000A5F89C3A04F8B42C8CE7132804F8AF0C13
:10B9800044F8940C0BDC30B10022042344F8902CD2
:10B9900004F8B43C7EE7052304F8B43C7AE7B5F834
:10B9A0009E3A00220133A5F89E3A04F8B42C71E7C0
:10B9B000B5F8A03A0133A5F8A03A002304F8B43C46
:10B9C00068E7FDF789FC44F83C6C0DB0BDEC028BD8
:10B9D000BDE8F08F464E474A0421092048F0B8FFE1
:10B9E000D6F8D037B6F8D417012B60D05A1C03D143
:10B9F000B1F5965F00F0818203EB830303EB8303D1
:10BA000001EB43039BB23C4AA6F8D437042109203A
:10BA100048F09EFFD5F8640AB6F8D41703681B698E
:10BA200098470023C5F8983A14F8463C012B7FF458
:10BA30004CAF2F4E96F83030002B3FF44CAF022B1A
:10BA400000F01282032204F8462C012B7FF643AF4C
:10BA500096F8330029492A4B2A4AC0F340000028AF
:10BA600018BF0B4686F838000421092048F070FF03
:10BA700031E7022304F8B43C0CE7FEF727F9012371
:10BA800004F8463C27E71A4BDB8E002B3FF423AF2C
:10BA9000032304F8463C1EE7D5F8D80AFDF7E8FB77
:10BAA00044F83C6C0DB0BDEC028BBDE8F08F41F268
:10BAB00056329142A0D1144A4FF0FF33042109209D
:10BAC000C6F8D03748F044FFD6F8D037B6F8D417C8
:10BAD00092E700BFAFF300800000000000002440A8
:10BAE000481400203836002088350020D81E002059
:10BAF00000000020D45506081C56060834530608DA
:10BB00002C53060848560608E85506083000002061
:10BB100014F8B07C95F8DC3A9F4200F01481092FAC
:10BB200000F00E81112F00F00B81B5F8A21AB04A77
:10BB300000970131A5F8A21A0920042148F008FF56
:10BB4000013F102F00F20F81DFE817F011006700AE
:10BB50006700390113010D010D010D0111000D01E7
:10BB60000D010D010D010D010D010D011100062E3C
:10BB700053DD14F8B02C012A03D0092A0CBF02228D
:10BB8000032214F8AB0C14F8AA1C9A4F14F8AC3C1E
:10BB900014F8ADBC87F8302041EA0021B98614F8CA
:10BBA000AE0C87F83100990787F8333018D513F0B9
:10BBB0000C0397F8381014BF012000208142824600
:10BBC0000CD08D488D498E4A002B0CBF03460B4686
:10BBD0000421092048F0BCFE97F8302087F838A0EF
:10BBE000032A00F08D810BF1010387F8323014F83D
:10BBF000733C0C2B11D197F9332097F9311097F83A
:10BC0000303044F86C1C642101FB0323B98E97F992
:10BC1000322044F8703C44E91A127A4BD8F80010EC
:10BC20001A68914200F09380724F774A97F830304B
:10BC3000764EDFF830B20421092048F089FE97F9EA
:10BC4000333073487349744A13F0010F08BF01463B
:10BC500000910920042148F07BFE97F833306F4AA9
:10BC600013F0020F14BF5B4633460421092048F04D
:10BC70006FFE97F833306A4A13F0040F14BF5B4627
:10BC800033460421092048F063FE97F83330654AB3
:10BC900013F0080F14BF5B4633460421092048F017
:10BCA00057FE97F833006049604B614A10F0100F5F
:10BCB00018BF0B460920042148F04AFE97F83310BC
:10BCC0005C4B5D4A11F0200F08BF33460421092068
:10BCD00048F03EFE97F93130584A0421092048F0D7
:10BCE00037FEBB8E564A0421092048F031FE97F9F1
:10BCF0003230544A0421092048F02AFEFB8E524A71
:10BD00000421092048F024FE97F838004F49504B91
:10BD1000504A002808BF0B460421092048F018FEAD
:10BD200098E80700374B03C31A80B5F89A3A0133F5
:10BD3000A5F89A3A002304F8B43CABE5002392E559
:10BD4000012B7FF4F2AE002385F8DC3AF8E6424A94
:10BD50005968106888427FF467AF92881B899A42BD
:10BD60007FF462AFDCE7B5F8A43A0133A5F8A43A52
:10BD7000DBE714F8AE3C2F4A244914F8AD7C14F8E4
:10BD8000AC6C13F0010F14BF1046084613F0020FFD
:10BD9000009014BF10460846019017F0040F234886
:10BDA00008BF0A4616F0080F1F49029208BF014655
:10BDB00003912A4A0421092048F0CAFD2DE7042EE8
:10BDC0007FF72BAF14F8AE3C14F8AD2C42EA0322F7
:10BDD0001346580412B200F19B80002AC0F2A280E0
:10BDE00004491F4A8B860920042148F0B1FD14E75D
:10BDF0005C530608000000202C5306083453060844
:10BE000084530608E8350020185506081052060825
:10BE10004C53060844530608345506084C5506088A
:10BE20005855060860550608445206083C53060853
:10BE30006C5506088093060878550608885506084C
:10BE400098550608A4550608B05506085853060824
:10BE500054530608C055060834000020D054060884
:10BE6000AC5406080C520608A04A0920042148F0E8
:10BE70006FFD06F5FB674023A6F8DC37384606F26F
:10BE8000DE7C002210F8013B08215A40530012F0DA
:10BE9000800F08BF520083F0D50314BFDAB2D2B2CC
:10BEA0000139F3D18445EDD196F8333086F8DE2799
:10BEB00013F0010203D1B38EB3F5804F3CD095F857
:10BEC000A61A95F8A73A8A4A581CA2FB00C2920803
:10BED00002EB4202A0EB42028A4208D005EBC30308
:10BEE0000721C3F8A87A85F8A72AC3F8AC1A022359
:10BEF00004F8463C96F83030A7E57E4A0123DDE59C
:10BF0000092E56DC7C4A0421092048F021FD84E6F4
:10BF10007A497B4AC3F30D03CB860920042148F0FC
:10BF200017FD7AE67549774AC3F30D03CB860920DE
:10BF3000042148F00DFD70E697E80300DFF8D4C156
:10BF400044F8440C090C4FF4A07304F83E1C6046FE
:10BF50000CF1060E24F8403C10F8013B08215A4031
:10BF6000530012F0800F08BF520083F0D50314BFB6
:10BF7000DAB2D2B20139F3D18645EDD195F8A70AEC
:10BF80005B4B04F83E2C421CA3FB02E39B0895F894
:10BF9000A61A03EB4303A2EB43038B42A7D005EBA6
:10BFA000C0020720C2F8A8CA85F8A73AC2F8AC0AAE
:10BFB00089E714F9A80C0522002141F055FDC3B210
:10BFC000099387F83A3087F8A637002B4ED04FF008
:10BFD000000B5E46BA4605E0099B013676B29E42EA
:10BFE000B34642DAA1190AEBCB0311F8A67CA3F8F9
:10BFF000407007EE907AB8EEE77AF2EE047AC7EE78
:10C00000277A17EE900A4BF02BFAB0EE480AF0EEC2
:10C01000680A41EC110B4EF0C3FC51EC100B4BF0D5
:10C0200077FD394A80B200F11903A2FB03231B09F3
:10C030004FEACB010E2F514403EB830303D903EBEB
:10C0400083035B0098B2052EC863C5DC0AA9FFF71D
:10C05000B3FA0BEB8B034B440AA9184652F00FF9C5
:10C060000AEB8B0BCBF8BC07B6E75746B7F9500085
:10C07000B7F94810B7F95830B7F940200092CDE928
:10C080000110224A03930421099B092048F060FC17
:10C0900014F8A96C14F8AD3C00934FF0000B334634
:10C0A0001B4A87F832B00421092048F051FC97F868
:10C0B0003A30002B3FF49BAD97F93200DC465946ED
:10C0C000012207EBC10E51B2BEF940E0764504BF34
:10C0D00008464FF0010C01329942D2B2F1DBBCF1BB
:10C0E000000F3FF484AD87F8320080E52C56060837
:10C0F000ABAAAAAA04560608B853060800000020F6
:10C1000064540608885406081F85EB51F45306084A
:10C1100028540608F43500202DE9F04788B0541C57
:10C1200003941478002C00F04081002507468846CF
:10C130001E46A9460BE0791C02D021463846C0476E
:10C14000039A0135531C03931478002C58D0252CE6
:10C15000F1D1931CCDE9033950782D2800F0C88027
:10C160004FF0000A302800F0AB80A0F13003DBB2C2
:10C17000092B4FF0000440F2AF806C284ED0782895
:10C1800038D8572840D9A0F15803202B32D8DFE8FF
:10C1900013F0F40031003100310031003100310082
:10C1A0003100310031003100DA0000013100C100FE
:10C1B0003100310031003100310031003100E30045
:10C1C0003100310031003100BB003100210031006D
:10C1D0003100F40056F8040B05A9FBF73BFF05AB53
:10C1E000CDE90043049B42464FF0FF31384646F00C
:10C1F00001FE0544039A531C03931478002CA6D126
:10C20000284608B0BDE8F0870028F9D02528F1D1EC
:10C210007B1C95D025213846C04791E7039B5A1CCB
:10C220000392197878298DD8572967D9A1F1580335
:10C23000202B87D801A050F823F000BF63C300086B
:10C2400045C1000845C1000845C1000845C10008B6
:10C2500045C1000845C1000845C1000845C10008A6
:10C2600045C1000845C1000847C300089FC3000836
:10C2700045C1000815C3000845C1000845C10008B4
:10C2800045C1000845C1000845C1000845C1000876
:10C2900045C100085BC3000845C1000845C100084E
:10C2A00045C1000845C1000809C3000845C1000890
:10C2B000D5C1000845C1000845C1000863C3000896
:10C2C000039B5A1C03921878A0F13003DBB2092BB0
:10C2D0004FF001043FF651AF04AA03A9FBF7FCFE9F
:10C2E000BAF1000F3FF449AF049B5B42049344E76B
:10C2F000D31C039390784FF0010A33E700293FF4F1
:10C300007FAF252984D01DE756F8042B049BCDE987
:10C31000009268E7073626F00706F6E802014BF0C0
:10C32000A7FB00EE100A05A844F0CEFD05ABCDE951
:10C3300000434246049B4FF0FF31384646F05AFD19
:10C34000039A0544FEE67A1C3FF4FAAE56F8041B45
:10C350003846C9B2C047F3E6039A56F8043B1D605D
:10C36000F0E6A1F15802B2FA82F256F8040B520933
:10C3700005AB102145F016F931E7A0F15802B2FAE9
:10C3800082F256F8040B520905AB102145F00AF968
:10C3900025E756F8040B05A945F0C0F81FE756F845
:10C3A000040B05A945F0BAF819E7254628E700BFB0
:10C3B000094A00230133092B02F1140209D012F8B3
:10C3C000141C8142F6D1054803EB830300EB830084
:10C3D00070470020704700BF9CE5050884E505080C
:10C3E00000230360704700BFF0B5284C284B294953
:10C3F000294A2A4D44F80C4C122085B004F8380C18
:10C4000042F6F8260027402044E90C6744E906126A
:10C41000C4E90033C4E90233C4E90433C4E9063390
:10C4200044F81C5C236228F041FF20B394F82B30C1
:10C4300094F82A1090F90400194A002B14BF08231D
:10C440000023002918BF43F0010303254FF4E13115
:10C45000CDE9015300910023402128F05DFDE06407
:10C4600030B1104B93F858293AB1002384F850307A
:10C47000003818BF012005B0F0BD0B4A0B49C2F8C7
:10C48000601A022283F858290123EFE7383600208A
:10C49000E003E00301C8020839D202084DB40208E3
:10C4A000C5CC02084025002048140020D1B702085E
:10C4B00030B5224C224B44F81C3C4FF4787341F6C3
:10C4C0000B22C4F89830002344E90C231D4944F89A
:10C4D000181C4FF478724FF4787385B01125402002
:10C4E000C4E91623C4E91823C4E91A23C4E91C23A8
:10C4F000C4E91E23C4E92023C4E92223C4E9242378
:10C5000004F8385C28F0D2FEA8B194F82B300E4A1B
:10C5100090F904000092002B18BF08230322CDE9F4
:10C5200001234021094A002328F0F6FCC4F89C00AE
:10C53000003818BF012005B030BD00BF38360020DC
:10C540007DB802089DB80208A06806005DCE02080A
:10C5500070B40D4B0D4CA34203D311E00C33A34236
:10C560000ED25A798242F9D1DA798A42F6D11A6822
:10C570001E791579AE42F1D115689D42EED100E0E9
:10C580000022104670BC7047A0010008C0020008DD
:10C59000642828BF64201C4B00EB800070B5450068
:10C5A000A3FB05235E095B0918BF002422D00134D8
:10C5B0009F201BF097FBE3B29E42F8D80A2E00D1D1
:10C5C00070BD1248A0FB05300009C6EB8613C6EB10
:10C5D000830366381844C0B21BF084FB092E06F1B1
:10C5E0000104EDD001349A20E4B21BF07BFB0A2C4D
:10C5F000F8D170BD0548A0FB053000096638C0B20F
:10C600001BF070FB0124EDE71F85EB51CDCCCCCCAA
:10C61000F0B41A4F97F8A030032B2CD80C2202FB51
:10C620000372A83252F8041C0133CC07DBB20ED5DA
:10C6300001420CD092F90060114C002194F9005095
:10C64000B54204F10C040BD001310429F6D1042BBE
:10C6500002F10C02E6D187F8A0300020F0BC704750
:10C66000084A87F8A03001EB410102EB8101F0BCE0
:10C67000D1F8640970470020F0E700BF3836002089
:10C68000A02E002040250020D0ED017AF5EE407A62
:10C69000F1EE10FA05D19FED0B7AF0EE477A80EDBE
:10C6A000017A30EEA77AD0ED007AC0ED020AC0EE32
:10C6B000876A30EE670AE6EE807AB0EE670AC0ED70
:10C6C000007A704783F9223EBCEEC00A7F4AB2FB73
:10C6D000F1F210EE103A9BB2934208D300234FF0D0
:10C6E0007E5243608360C36003610260704707EE5F
:10C6F000901A9FED777AF8EE676A07EE903A66EE49
:10C70000876AF8EE677A66EEA76AFDEEE67A17EEBC
:10C71000903A2033402B00F2CA80DFED6E7AF4EEBF
:10C72000E76AF1EE10FAF0EE667A0CDDDFED6A5A98
:10C730009FED6A6AB0EE677AB4EEC67AF1EE10FA4F
:10C7400077EEE57AF6DC9FED667AF4EEC77AF1EEE5
:10C7500010FA0CD5DFED605A9FED626AB0EE677A91
:10C76000B4EEC67AF1EE10FA77EEA57AF6D49FED24
:10C770005E7AF4EEC77AF1EE10FA00F390809FED46
:10C780005B7AF4EEC77AF1EE10FA44BF9FED547A6B
:10C7900077EE677A27EEA76ADFED554A9FED557A67
:10C7A0009FED555ADFED555AA6EE247A67EE864A7C
:10C7B000A6EE075AB6EE007AE6EE055AE4EEA57A42
:10C7C00027EE877A9FED486A76EE867AFDEEE75A85
:10C7D00015EE903A2033402B66D8F4EEC66AF1EE9F
:10C7E00010FA0CDDDFED3C5A9FED3C6AF0EE676A13
:10C7F000F4EEC66AF1EE10FA77EEE57AF6DCDFEDDC
:10C80000386AF4EEE67AF1EE10FA0CD5DFED325A22
:10C810009FED346AF0EE676AF4EEC66AF1EE10FA44
:10C8200077EEA57AF6D4DFED306AF4EEE67AF1EE33
:10C8300010FA3FDDDFED276A76EEE77A67EEA76A4A
:10C84000DFED2B4A9FED2B5ADFED2B5A9FED2B6A24
:10C85000A6EEA45A67EEA64AE6EE855AB8EE005A4E
:10C86000A6EEA56AE4EE867A67EE857AC7EE206AC0
:10C87000B7EE006A76EE865A76EE666A86EE257A1E
:10C8800067EE277A66EE876AC0ED017AC0ED037A1B
:10C8900080ED007A80ED027AC0ED046A70479FED6A
:10C8A0000D7A77EE677A75E7DFED157ADEE79FEDB3
:10C8B000147A87E7DFED0D6AF4EEE67AF1EE10FA0E
:10C8C00044BFDFED076A76EEE77AB7E720A10700FD
:10C8D00027D4D236DB0F4940DB0FC940E4CB1641E9
:10C8E000DB0F49C0E4CB16C1DB0FC93FDB0FC9BF6B
:10C8F0009A7C2E36FAAF4FB93587083CA4AA2ABED7
:10C900000000000070B4334890F8D830A3F1300133
:10C91000092956D800F1D8042246E73012F8015F01
:10C92000A5F13001092904D88242F7D1002070BC5A
:10C930007047141B022C4ADD2748002101E010F843
:10C94000013B01EB810103EB4103161A303B022E40
:10C95000044603F0FF01F2DC204B03FB01F1A2428D
:10C960004FF000030DD903EB830314F8016B5B0058
:10C97000303B3344A24203F0FF03F4D1184800FBDC
:10C9800003F32E2D06D01748A0FB032301EB9300E1
:10C9900070BC7047013204200024157804EB840435
:10C9A000303D6400092D00F1FF30A4B202D82C44C0
:10C9B000A4B2013210F0FF00EFD1642202FB043375
:10C9C000E1E700211D4600F1D8020B46D9E7064CED
:10C9D0000021C4E7383600201137002080969800E7
:10C9E00040420F00ABAAAAAA10370020064B93F8CA
:10C9F000F91003F5717203F56B73002918BF134624
:10CA000093ED050A704700BF38360020064B93F8B7
:10CA1000F91003F5717203F56B73002918BF134603
:10CA200093ED020A704700BF38360020094BD3F857
:10CA30005C0AD3F8602AD3F8643A824202DB1146DA
:10CA400002460846984204DD9A42B8BF1A4610468C
:10CA5000704770473836002030B4144AD2F8680A5C
:10CA6000D2F86C3AD2F8704AD2F8741AD2F8782A0E
:10CA7000834202DB1D46034628468A4202DB1546F6
:10CA80000A4629468842A8BF08469342B8BF1346C3
:10CA9000A04202DC224604461046834203DAA34247
:10CAA000B8BF2346184630BC704700BF3836002058
:10CAB0000B6810B414681B1B036054684B681B1B85
:10CAC00043608B6892685DF8044B9B1A83607047E3
:10CAD0002DE9F041804684B00846164644F0E8FE51
:10CAE0004FF47A72002304460D464BF03FF9B6F935
:10CAF00000C00746294620464FF47A723C240023A2
:10CB00000CFB04774BF032F9002594B24FF47A73A2
:10CB1000C3FB07452B46224601A844F013FE404BB9
:10CB200093F87E3A012B2FD0022B10D19DF806707E
:10CB3000FB1E082B0BD83B1F062B1BD9BDF804008E
:10CB4000394644F095FD032F36D00B2F41D02246B5
:10CB50002B46404644F0F6FD04B0BDE8F081032FBB
:10CB600055D00A2FF3D19DF80870B7FA87F77F09DF
:10CB7000002FECD033882B4A3C33A4184FF000022E
:10CB8000338042EB0505E2E79DF80670FB1E072B9C
:10CB9000DDD83B1F052BEDD9BDF80400394644F024
:10CBA00067FD9DF807309842D9D0033F18BF012791
:10CBB000002FDFD1CBE707380E28FCDC9DF80730CB
:10CBC000834212D0CCBF01270027002FD2D1BEE76D
:10CBD00007380728FCDC9DF8073083420ED0B4BF2D
:10CBE00001270027002FC5D1B1E79DF80870012F5C
:10CBF00094BF00270127002FBCD1A8E79DF808703B
:10CC0000012F8CBF00270127002FB3D19FE79DF88C
:10CC10000870003F18BF0127002FABD197E700BF76
:10CC20003836002080EE360030B50468E46985B0FF
:10CC30002CB10DF10F050095A04705B030BD204681
:10CC400005B030BD38B50A4C0A4D2321D5F8800A0D
:10CC500042F01AFA14F8011F0029F7D1064843F0F0
:10CC600001F895F8843A13B1012385F8853A38BD67
:10CC70006C56060838360020785606082DE9F04F25
:10CC800089B0CDE90621DFF8B08007469946002635
:10CC9000069B002B07DBB34205D00136042EF7D1EB
:10CCA00009B0BDE8F08FD82303FB06FB079B03EB1D
:10CCB0000B0A204B00249B44B9F1000F3346424637
:10CCC000384601DBA14530D13BF814503AF8141036
:10CCD000009415F4006FA1EB050114BF4FF0560E40
:10CCE0004FF0480E05F01F0CB1FA81F1C5F3441561
:10CCF0004909CDE901C5CDF80CE0059142F080FB72
:10CD00003AF814300599009413F4006F03F01F02F1
:10CD100014BF56204820C3F34413CDE901230390E8
:10CD200033464246384642F087FB01346C2CC3D16F
:10CD3000B3E700BFC0400020885606082DE9F04F39
:10CD40003B4C3C4B94F8285A3B4ADFF8F480894628
:10CD5000002D08BF1A4694F9291A8BB007463748A8
:10CD600042F076FA04F591644D460026B9F1000FC1
:10CD70003ED022782B789A426A683BD0D5E902CE21
:10CD80000021A87D0790B5F914000690B5F91200AE
:10CD90000590B5F910000093CDE903E0CDE9012C31
:10CDA000334642463846099142F02AFB0999A37D51
:10CDB0006268B4F914B0B4F912A0B4F910E0D4E97F
:10CDC000020C079314F8183B0093CDE90120334679
:10CDD000CDE905ABCDE903CE42460136384642F0F7
:10CDE0002BFB3C2E05F11805C0D10BB0BDE8F08F30
:10CDF0004946DCE76168D5F808C0914202D0D5F811
:10CE00000CE0BDE7A168D5F80CE06145B8D1E16858
:10CE10007145B5D1206929698842B1D160696969D4
:10CE200020F07F4021F07F418842A9D10121A8E76D
:10CE300038360020A456060814550608A8560608D9
:10CE4000B856060870B51F4E96F814342DED028BB7
:10CE500004460D467BB3D6F82014D6F82424D6F821
:10CE60001C340360C0E9011206F5836393ED008A68
:10CE7000DFED158A95ED000A80EE280A4DF0D0FC12
:10CE800023681844206028EE288A95ED010A80EE78
:10CE9000080A4DF0C5FC63681844606095ED020A0D
:10CEA0004DF0BEFCBDEC028BA3680246134496F81D
:10CEB0001404A36070BDC0E900338360B7EE008A3C
:10CEC000D6E700BF383600202C7D8E3FF0B4244BCF
:10CED00093F8145482B03DB900230360436083602B
:10CEE000284602B0F0BC70474C68D3F81C7401941B
:10CEF0000C68D3F820649FED1B6AE71B019CA41B00
:10CF000007EE904A03F58364D4ED006A07EE107AC9
:10CF100066EE866AB8EEC77AF8EEE77A27EE067A0A
:10CF200067EEA67A012A80ED007AC0ED017A0DD075
:10CF30008A68D3F82434D21A07EE902AF8EEE77AFA
:10CF4000C0ED027A284602B0F0BC7047D1ED027AFB
:10CF5000F8EEE77AC0ED027A284602B0F0BC7047DE
:10CF6000383600202C7D8E3F1D4A2DE970039468D1
:10CF70001C4E002CD6F8883403600EDD0C320023E2
:10CF800006F5916501E09C4207D052F8041BA942C6
:10CF900003F10103F7D1012200E00022D6F8943416
:10CFA00083600271104A96F8983443711346F3E88F
:10CFB0000289D3E90045D6F8B83452F8042CD6F8E3
:10CFC000B01481625B0943EAC2635209C0E9048973
:10CFD000C0E90645C0E90832BDE87003704700BFEC
:10CFE000D0B9002000000020C0040020014BD3F87D
:10CFF0000801704700000020014BD3F898017047EA
:10D0000000000020014BD3F85001704700000020C1
:10D010000C4608B5054627F055FF204627F052FF7D
:10D020000021084640F0A2FE0021012040F09EFEB3
:10D03000284640F099FCC0B9204640F095FC0028F5
:10D04000F6D00121002040F091FE204640F084FC03
:10D050000146284640F0AEFC0021084640F086FE1E
:10D06000284640F081FC0028E6D00121002040F055
:10D070007DFE284640F070FC0146204640F09AFCB8
:10D080000021084640F072FED6E700BF10B4414AC6
:10D0900092F89130906F023BD2E91C14062B74D8A1
:10D0A000DFE803F05A5C60500655040064424942D0
:10D0B000404280EAE073A3EBE07306EE903A84EA24
:10D0C000E473A3EBE47307EE103AF8EEE66A9FED23
:10D0D000326AB8EEC77A26EE866A81EAE173A3EB7C
:10D0E000E17307EE903AB4EEC76AF1EE10FAF8EE8B
:10D0F000E77A04DDB4EEE76AF1EE10FA34DC9FED76
:10D10000266A27EE066AB4EEE76AF1EE10FA04DD4D
:10D11000F4EEC66AF1EE10FA2DD49FED1F6A67EEA9
:10D12000867AB4EEE77AF1EE10FA2BD5F4EEE76AE0
:10D13000F1EE10FA26D50029CCBF042005205DF8B9
:10D14000044B70474B42404221461C46B1E76342C4
:10D1500040420C461946ACE74942AAE74B426142BD
:10D160001C46A6E76442A4E70028CCBF00200120AB
:10D170005DF8044B7047002CCCBF022003205DF803
:10D18000044B70474FF0FF30D9E723460C46194651
:10D190008FE700BFD0B90020ABAA2A3F70B5284C5A
:10D1A000DFED286A94F8383094F8302ED4F8545EC5
:10D1B00007EE103A94F8393007EE903AB8EEC77A95
:10D1C000F8EEE77A27EE267A67EEA67A04EB4206B7
:10D1D000BDEEC77A0132FDEEE77A02F00F01B6F834
:10D1E000343E84F8301E17EE102A17EE901AC31A38
:10D1F0002B448A42C4F8543E82B0A6F8340E4FEA5B
:10D20000131312DC17EE101A17EE902A98B240F2A0
:10D21000FF350023009546F031FD2A46002140F0FD
:10D2200023FCA4F8580E02B070BD9BB29942D4BF43
:10D23000581A00208242A6BF101A80B20020E6E7EA
:10D240003836002014AE23412DE9F04F2DED108B20
:10D25000034693B004331193DFEDC1AA109002236B
:10D260000F928B460E938946109C4FEADB0504EB28
:10D27000451202EB0511A5EB85034FEAC5084FEAFD
:10D28000051E05EB850A009101EBC30308F10400BC
:10D290000EF104012E46204405EB450521444FEADA
:10D2A000CA040D9602942C01C6EBC60C0394EC0044
:10D2B0000D9D04944FEACC0405946C010194119DDA
:10D2C000009C03EB46174FEACB0A02EBC6064FF071
:10D2D000000C55ED011A11ED012AD6ED005AD7EDDB
:10D2E000004A92ED003AD4ED003A10ED015A93ED68
:10D2F000004A72EE238A34EE248A71EE836A35EE98
:10D30000257A36EEA86A77EE087A35EE655A76EE1B
:10D31000275A36EE676A45ED015A82ED006A90EDB4
:10D3200000AAD6ED012A93ED016AD7ED019A94ED9A
:10D33000010AD1ED005AD5ED007A92ED019A34EE52
:10D34000644A76EE690A7AEE624A35EEC01A31EE28
:10D35000C33A72EE633A34EEA02A77EEC91A74EE3D
:10D36000E04A75EE805A75EE440AB0EE410A35EE99
:10D37000045AA2EE2A0ADC44E145A2EE6A1AB0EE93
:10D38000434AB0EE432AA0EEAA2AA0EEEA4AB0EE43
:10D39000613AF0EE610AE4EEAA0AA4EEEA3AF0EE8F
:10D3A000634AE5EE6A3AE5EE2A4A7AEE222A36EE3A
:10D3B000296A77EE897A72EE861A37EE487A32EE6B
:10D3C000C66A76EEE86AB0EE635A77EEA53A77EE73
:10D3D000E57A73EEA18A36EE868A73EEE13A76EE4E
:10D3E000C66A77EEC71A72EE002A77EE277A74EED5
:10D3F000015A30EEE46A33EE457A32EE402A34EEDA
:10D40000414A74EEA04A35EE035AC5ED008AC2EDDA
:10D41000013A554401ED018A5244C4ED006AC1ED60
:10D42000001AC4ED017A514440ED012A544487EDBD
:10D43000002AC6ED005A83ED004A80ED006AC7ED70
:10D44000014A504486ED017A574483ED015A56440F
:10D4500053443FF63EAF0D9B072B40F2A38101984A
:10D46000109D059B049A0399029C083028180833E4
:10D470000A902846C318083282180593034608F11B
:10D4800008080EF10C0E0C330834083106920246DF
:10D49000454472440419411804934B460995D146FA
:10D4A0000894079103924FF001084FF0000E9A463E
:10D4B0000E9B9E440F9B03EBCE0303EBCE0202EBCD
:10D4C000CE0000EBCE0404EBCE0505EBCE060C93AC
:10D4D00006EBCE07AEEB8E030B9207EB031202EBCB
:10D4E000CE0C0CEBCE03029203EBCE02019313465B
:10D4F000D3ED01DA019BD0ED007A93ED01DA029BC6
:10D50000CDED027A93ED01CA0B9BDCED01CAD3EDA0
:10D51000007A0C9BCDED017A02EBCE0202EBCE013C
:10D52000009201EBCE02D3ED007A92ED01FA009A5F
:10D53000D1ED01EA92ED01EAD7ED00BA96ED00BA1D
:10D5400095ED00AAD4ED009ACDED007ADDE90376E1
:10D55000DDE90554DDE90701DDE90923C44601E001
:10D56000F304353F91ED006A56ED01FAD0ED002A43
:10D57000D4ED005AD5ED006A93ED007A57ED017AAB
:10D5800092ED002A96ED008A7FEE870A32EE061AA7
:10D5900037EEA24A75EEA64A70EE841A31EE245A8E
:10D5A00032EE462A31EE856A75EEE65A06ED016ADC
:10D5B000D4ED018A92ED019A91ED013A95ED016A5F
:10D5C00097ED000AD0ED016AD3ED013A3FEEC77A3C
:10D5D00077EEE27A78EEC6FA79EE432A39EE033A2C
:10D5E00030EE669A38EE866A70EE266A78EE638AC6
:10D5F00032EEEF0A72EEAF2A78EE233A30EEC44AEA
:10D6000032EE258AF0EE490A72EE655AE2EEAA0A77
:10D61000DC44E245A2EEEA9AB0EE682AF0EE472A30
:10D62000E5EEAA2AA5EEEA7AA0EE2A2A73EE065AB9
:10D63000E0EE6A8AF0EE67FA33EEA60AE8EE6A7A5E
:10D6400071EE644A31EEC55A33EE463A70EE651A11
:10D6500073EEE63A34EE036A72EEA06A34EE434AA1
:10D6600072EEE00A33EEE43AE8EE2AFA74EEA33AF8
:10D6700065EE6D2A77EE094A37EE499A38EEE77A79
:10D6800077EEA88A6DEEA17A9DED018AE9EE857AA2
:10D69000E9EEA12A26EE6C5A6CEE831A32EE6F1A6E
:10D6A000A8EE035AE8EE061A2EEEA33A24EE6E6AAE
:10D6B0009DED008A3FEE822AABEE043AABEE236A80
:10D6C0002CEE014A66EECC3AA8EE264AE8EE013A84
:10D6D0006FEE026A20EECF1AEBEEA06AABEE821A72
:10D6E00064EECE0A2EEE072A9DED028AEAEE070AC4
:10D6F000AAEE242A2DEE287A69EE4D4AA8EE097A80
:10D70000E8EE284A70EE255AC6ED005AC3ED007ABD
:10D71000C3ED012A4E4447ED011A87ED005A4B44F0
:10D7200080ED003A80ED016A4F4482ED004AC2ED7F
:10D73000013A4844C5ED006A85ED011A4A4481ED7D
:10D74000002A4D44C1ED010A84ED007AC4ED014A7E
:10D7500049444C443FF606AF0A9B08330A93099BA1
:10D7600008330993089B08330893079B08330793F2
:10D77000069B08330693059B08330593049B0833E7
:10D780000493039B083303930D9B08F10108434561
:10D790007FF48EAE0E9BDDF834B0DB009BB2D14639
:10D7A0000E9361E513B0BDEC108BBDE8F08F00BFA8
:10D7B00038B503782DED0A8BD0ED01AA30EE609AD2
:10D7C000044669EE2AAAF0EE408AF0EE607A0D4631
:10D7D000F0EE419AF0EE61BAB0EE42CA002B5DD194
:10D7E00090ED0B7A01F00103002B50D039EE477A0F
:10D7F000F0EE497A87EE290AD4ED090AC4ED0B7AD6
:10D80000F5EEC00AF1EE10FA53DC94ED03AA20EE17
