:020000040800F2
:1000000000000110C15305081156000889B5030806
:10001000615405086154050861540508000000009A
:100020000000000000000000000000000D56000865
:10003000095600080000000005560008519F0408FA
:1000400061540508615405086154050861540508A8
:10005000615405086154050811AA040821AA04087E
:10006000615405081DAA040819AA0408A17E000805
:100070008D7E0008797E0008657E0008517E0008AC
:100080003D7E0008297E000861540508615405087A
:1000900061540508615405086154050815AA04084F
:1000A000E57F0008BD7F0008957F00080D800008EF
:1000B000817F00086D7F0008597F000861540508A2
:1000C0006154050861540508615405086154050828
:1000D00061540508A1880008615405089588000846
:1000E0000DAA040861540508998C0008097F0008CE
:1000F000E17E0008B57E0008317F0008157E00080B
:100100006154050861540508457F000861540508DD
:1001100061540508615405086154050861540508D7
:10012000017E0008ED7D0008D97D0008C57D00082E
:10013000B17D000861540508615405086154050843
:10014000615405086154050861540508994F000879
:100150009D7D0008897D0008757D0008898800085C
:100160006154050861540508615405086154050887
:100170006154050861540508615405086154050877
:080180006154050861540508F3
:1001880009284FF0010307D903EB83035B00B0FB99
:10019800F3F2092AF8D883B3F0B4DFF864C0002575
:1001A8000EE00A2A1E460F462346B4BF30245724C1
:1001B8002244092E01F1010105F101053A700FD918
:1001C800ACFB0324E408B0FBF3F203FB1200002DA0
:1001D800E7D1002AE5DC092B06D8303201F8012BDB
:1001E8000023F0BC0B707047ACFB0436B0FBF4F294
:1001F800234604FB1200F408EBE700230B7070475A
:10020800CDCCCCCCF0B40D6800240CE0BCF1050FCB
:1002180018D8A0F137030A2B14D104EB840415F87D
:10022800010B03EB4404A0F13003DEB2092EA0F168
:100238006107A0F1410CF0D9052FE7D8A0F15703C9
:100248000A2BEAD00D601460F0BC704770B4C30884
:100258000D4CE25C00F00706B24004EBD004D2B2C9
:100268000020C6F108038B4228BF0B46C3F10805DE
:100278002A419840C91A40EA02004FF0000614F8D3
:10028800012FEED170BC704720180020054AD2E932
:100298001632581E801A934294BF4FF4006300230D
:1002A80018447047E0170020012380F84930704750
:1002B800054B186E00B97047186EA0F10500B0FA2A
:1002C80080F04009704700BFE01700200649D1E9D7
:1002D80019329342FDD05A1C0B44C2F30A0293F818
:1002E8006C004A66704700BFE0170020044BD3E952
:1002F8001903984288BF03F50063181A704700BFB6
:10030800E017002001207047704700BF704700BF0A
:1003180030B4124DD5E919239A4286BF03F500641B
:10032800A21A9A1A0A44B2F5006F12D8A1B1014470
:100338004A1E013810F8014FE918824203F10103FF
:1003480081F86C40C3F30A03F4D1AB66002030BCDB
:100358007047022030BC70470846F8E7E0170020D5
:10036800212838B50C4605D022282DD0202813D0B6
:10037800002038BD0029FBD0072AF9D1194BD3F842
:10038800700893F8741893F8752893F876382060F5
:1003980021716271A371EBE70029E9D0072AE7D13F
:1003A800104DD5F86C3813B10968002098472068BB
:1003B80021796279A379C5F8700885F8741885F8E9
:1003C800752885F87638D3E70029D1D0022ACFD10D
:1003D800044BD3F87838002BCAD0098800209847F6
:1003E800C6E700BFE0170020014B002018667047E1
:1003F800E0170020044B002005221A66C3F878088D
:10040800C3F86C08704700BFE0170020704700BFB2
:10041800704700BF704700BF704700BF704700BFFC
:10042800704700BF704700BF042301480B80704726
:1004380000000020122301480B80704704000020B0
:10044800A0B182680D4B12B107229A7070471978D3
:10045800DA6003294FF004000CBF80214FF480714B
:10046800C3E901111A611A7598707047034B41F27C
:10047800B41101225A545A70704700BF205B002003
:100488000378022B10D0006908B9012070470B4B84
:100498001B78032B0EBF0A4B80B24FF6F7739842B6
:1004A80094BF002001207047064A43681268B3EBE6
:1004B800422F2CBF01200020704700BF205B002086
:1004C800F7FFFF0F406D00200378022B14D030B4E3
:1004D800104A4368006941F2182441F21021155965
:1004E800515841F20C242B4012595B0A023801FB87
:1004F8000030104430BC7047064B426841F204217A
:1005080003F590505B58006800EB430000EB522065
:10051800704700BF205B0020004870470818002083
:10052800034B93F82400032894BF00200120704750
:10053800E0170020034B93F82400003818BF01206F
:10054800704700BFE0170020002070470020704768
:100558000023F0B452004F1C1E46B0F1204F4FEA62
:10056800107404F130052ABF3734CD54CC54FE54EE
:1005780002339A424FEA0010EFD1F0BC704700BF37
:100588000B4A0C4B10681B681A22C0180A8001D14C
:100598000948704710B5094B09491C680822FFF73C
:1005A800D7FF204607490422FFF7D2FF024810BDB3
:1005B800E8F7FF1FECF7FF1F18000020EAF7FF1FFE
:1005C8001A0000202A000020042301480B807047ED
:1005D80034000020122301480B80704738000020A7
:1005E80030B50B4D83B008240123686D00220DF14E
:1005F80007014AF0DBFF9DF80730FF2B04D0013CD0
:10060800F2D1204603B030BD012003B030BD00BF99
:10061800E017002070B50A4E82B0451C0024706DAA
:10062800012300220DF107014AF0C0FF9DF80700E1
:10063800FF2804F1010401D1AC42F0D102B070BD31
:10064800E017002070B5114D82B000242146022326
:1006580001AA686D2C624FF6FF56ADF804604AF0A7
:10066800A5FF0120FFF7D6FFFF2808D0D5F87C3872
:100678006B610922204685F8242002B070BD04234E
:10068800022085F8243002B070BD00BFE0170020BA
:1006980070B5044608200D46FFF7BCFFFF2812D0AE
:1006A800FE2801D0022070BD084E2B462146706DF1
:1006B80000224AF07BFF0022706D114602234AF0A7
:1006C80075FF002070BD012070BD00BFE01700203D
:1006D80070B582B040F0400604460D0E080C0A0AB8
:1006E80095238DF804108DF800608DF801508DF871
:1006F80002008DF803208DF80530FFF771FF00B96F
:100708005CB9074A06230021506D6A464AF04EFF3D
:100718000820FFF77FFF02B070BDFF2002B070BD58
:10072800E017002010B504460022212100684AF095
:100738008FFC2068FC2220214AF08AFC2068402295
:1007480024214AF085FC20680C2223214AF080FCF1
:100758002068002222214AF07BFC012010BD00BF46
:1007680010B5012204460B2100684AF071FC30B133
:1007780020681D22BDE8104009214AF069BC10BD5F
:100788007C4B2DE9F04FB3F88EC8D3F88008B3F846
:100798008C68B3F890A84FEA0C2CB0EB0C0C4FF017
:1007A800000464EB0400B3F88A4889B00025CDE959
:1007B8000445A6FB0C8906FB009907900498079E40
:1007C800A0FB0C45CDE902452C46049D05FB0644DB
:1007D8000394B3F888484FEA044EAAFB0C45CDE9C8
:1007E80004450AFB06540594029C260A039C46EA23
:1007F8000466049C4FEAD810B3F8868840EA49603A
:100808004FEAE91A4FEAD459039C10EB0E004FEA5D
:10081800C8384FF0000E4AEB0E0A271216EB0804F0
:10082800059E029449EA4629744644EB07074FEAB5
:10083800E65E19F5FA6400944EF100040194DDE9CE
:100848000045B4F5FA6F934675F1000206976EDA23
:10085800A9FB095609FB0EF206EB4206B2004FEA65
:10086800850818EB050442EA957246EB0202650812
:1008780045EAC275401B4FEA62056AEB050AA408FF
:10088800029D44EA82742C1B4FEAA20267EB020223
:10089800DDE900670294384C06924FF0FF35A64216
:1008A80077EB050236DA40F6AC5419EB04044FF046
:1008B80000024EEB020E04FB0EFEA4FB044505EB02
:1008C8004E05EA004FEAC40EB4EB0E0E42EA54722B
:1008D80065EB020210EB0E004AEB020A221945EB07
:1008E800050E12194EEB050E4FEA8E0E4FEA8208DE
:1008F8004EEA927EB8EB04026EEB050E029C52089B
:1009080042EACE72A41A069A02944FEA6E0E62EB7D
:100918000E020692079AACFB0C450CFB02F205EBA3
:100928004205E20F009C42EA4502A21A0092B1B1C8
:10093800D3F89438029AA3FB0289069A4FEA585EC4
:1009480003FB02994EEAC92EBEEB00004FEA695E2E
:100958004FEAD0306EEB0A0A40EA4A400860BBF121
:10096800000F02D0009BCBF80030012009B0BDE891
:10097800F08F00BFE017002024FAFFFF0068012273
:1009880048214AF065BB00BF0068012258214AF09F
:100998005FBB00BF3A48F0B5B0F8A6C8B0F8987881
:1009A800B0F8A448B0F9B068B0F9AE38B0F99E58BC
:1009B800B0F9AAE8A7EB0C0704FB07F406EBE4364A
:1009C800DB0293FBF6F303EBE433A3F57A66B0F9A5
:1009D800A848B0F9A078C0F8B43806FB06FC4FEA7E
:1009E8002C3C06FB05F50CFB04F4ED120CFB0EFC8D
:1009F800B0F99CE806FB07F705EBEC25B0F9B868F9
:100A0800D0F8BCC8241404EB673405EB8E05023417
:100A1800B540B0F8A278A010AC1C4CF25035ACEB45
:100A2800A40C00F5004045FA06F404FB0CF407FB9F
:100A380000F0002C4FEAD030ABBF6400B4FBF0F0FC
:100A4800B4FBF0F0400089B1041204FB04F50D4E2C
:100A580040F6DE3404FB05F4241406FB00F504EB31
:100A6800254404F6CF6400EB241008602AB103EB98
:100A780083035B0008331B1113600120F0BD00BF26
:100A8800E017002043E3FFFF054B006893F8B82800
:100A98009201343202F0FC02F4214AF0D9BA00BFC4
:100AA800E017002000682E22F4214AF0D1BA00BFD6
:100AB8002DE9F04F874DD5F8C078B5F8C438B5F9A9
:100AC800C848B5F9C668B5F9CCA8C3EB271000FB30
:100AD80000F000135B00C3EBE70304FB00F406FB24
:100AE80003F3A41304EBE324B4F5FA334FEAE477F1
:100AF80047F1FF30A3FB038903FB00F609EB460926
:100B0800B5F9CE68C5F8DC48F71706FB09FE83B0CF
:100B180008FB07EEA6FB0867CDE900673E4676446A
:100B280001964FEAEA7B009E019F0AFB00FC03FB4B
:100B38000BCCAAFB03ABE344360A46EA07664FEA46
:100B48000A3E4FEA0B3C16EB0E0E4FEA2727B5F884
:100B5800CA684CEA1A5C47EB0C0C0027CDE9006721
:100B6800009E00921EF1000A4CF50047AAFB06AB56
:100B780006FB07BB4FEA6B064FEAEB7756EA07021C
:100B88008A4600F0A480B5F9D218B5F9D4B8CA17C6
:100B980001FB00F003FB02004FEAEB7CA1FB0323FF
:100BA8000BFB09F1034408FB0C10D5F8E018ABFB6C
:100BB80008894FEA434C4FEA424EC1F580111EEBBB
:100BC800080E81444CEAD23CB5F9D0284CEB090C0C
:100BD80000204FEAE17910EB0E004FEAC9734FEAA3
:100BE800C17E4FEAC20242EB0C0243EA5103BEEB5C
:100BF800000063EB020C03184CEB0C011B1841EBD3
:100C08000C014FEA831E8A0142EA936213EB0E033A
:100C180042EB010189009A0041EA9371131841EBF4
:100C28000C019A008900101841EA937132463B463C
:100C380041EB0C0154F0E0F9B5F9DA284E134FEA0C
:100C4800503C4CEAC14C02FB06F7D3170CFB037768
:100C5800A2FB0C2302FB06FEB5F9D8683B44A2FBB5
:100C68000C89F7170CFB03EE06FB01FCA6FB00231F
:100C780000FB07CCF144164663444FEA58621F460E
:100C880042EAC912F60C10184FEA696346EA473679
:100C980043EB0101B5F9D62880194FEAE74343EB46
:100CA8000101000A40EA016012011044BAF1000F84
:100CB80002D0000ACAF80000009B23B104EB8404A8
:100CC800803424121C60012003B0BDE8F08F00209E
:100CD800ECE700BFE017002008B53122F4210068D6
:100CE8004AF0B6F9012008BD01207047012070477D
:100CF8004FF40063838170474FF40063838170472A
:100D080003691F2B30B40CD94268A3F12004516841
:100D18002022A2400A4214BF012200225AB930BC44
:100D280070474168202209689A400A4214BF01228C
:100D38000022002AF3D08269114DD168002414746E
:100D4800896854680A6822F001020A602168647997
:100D58008A8935F8144092B222EA04021F2B8A814C
:100D680007D9A3F12001426820238B4030BCD3600F
:100D780070474168202202FA03F330BC8B60704749
:100D880010B4050838B5436B99891A888906044652
:100D98000AD592B2920607D5C26A002A29D0988845
:100DA800216B80B29047636B99891A880D0692B2BD
:100DB8000FD510060DD5D4E909128A4214D0A169BD
:100DC8002569885C98800132B2FBF5F105FB112298
:100DD800A262998A1A88C90592B204D5D20744BF7B
:100DE8004FF6F7721A8038BDDA6822F08002DA60AE
:100DF800EFE79B884169C269DBB28B54C269C0685E
:100E0800636B0132B2FBF0F100FB1122E261CBE728
:100E1800D0E90920101AB0FA80F04009704700BFE5
:100E28004171704743799B070AD5436A8269D15457
:100E3800436A01690133B3FBF1F201FB12334362E8
:100E4800704700BF437913F0010314D0D0E907318C
:100E5800C26810B45B1A541E234008D043694C1C66
:100E68005B5CB4FBF2F102FB11420262DBB2184692
:100E78005DF8044B70471846704700BF437913F07C
:100E8800020308D0D0E909210369581E531A034008
:100E9800DBB2C01A70471846704700BF437913F099
:100EA800010306D0D0E90731C268581A531E18400A
:100EB80070471846704700BF2DE9F0432E4C2F4E5F
:100EC8002F4B304DC4F8046904F5126E4FF0120C24
:100ED800C4F8083985B0002304F6481980460F463F
:100EE800164604F6E80142F6F8224020C4F82059D4
:100EF800C4F82459C4F82859C4F82C59C4F83059EE
:100F0800C4F83459C4F83859C4F83C59C4F840599D
:100F1800C1E90223C4F814E984F8E8C8C4F81899A8
:100F28002FF0A0FE054600B30AF086FE98F80020D0
:100F38003F78034695F9040000961D1E14BF03214F
:100F48000121002A0CBF07220622002F14BF082304
:100F580000231A43CDE901124B460B4A40212FF0DA
:100F68008DFC2DB9003818BF012005B0BDE8F0830D
:100F7800C4F88809F6E700BFE01700206578020882
:100F880089780208E003E003258802082DE9F0418A
:100F9800274B86B09C1D1E4603F160081F464FF084
:100FA800000C94F800E0A0EB0E05A0EB0C02002D5D
:100FB800B8BF6D42002AB8BF52429542B8BF274613
:100FC80004F10604B8BF4FFA8EFCA045E9D17C882D
:100FD80003F15A0E002204E02546B64516D016F84D
:100FE800062F6245F8D1B6F80280A1EB08020B1B68
:100FF800002AB8BF5242002BB8BF5B429342254635
:10100800EBDDB645444645463746E8D17E793C791E
:1010180002953A78019200910346CDE90346054AC4
:101028000321012051F0AEFD384606B0BDE8F0813D
:1010380018B40508A0230608F0B583B0CDE900016F
:10104800184C05460A4694F88C39002BFBD132B36C
:101058002A44561E013DD4E91612531CC3F30A0351
:101068008B422CBF4FF400600020C91A224401446F
:1010780015F8017F82F890790129E3650DD10120E7
:1010880048F054FFD4E916318B4294BF4FF4006204
:1010980000225B1A1344012BF1D0B542DBD10020AA
:1010A80003B0F0BDE017002090F84810002280F847
:1010B800482009B90120704710B5094C236E6BB15F
:1010C800236E052B01D0104610BD3430D4F87C387F
:1010D800FFF7B2FFD4F87C38012010BD184610BDC8
:1010E800E0170020002280F84920DDE790F848301A
:1010F800C2180133DBB280F8483082F8341090F817
:1011080049200AB1132B00D9CEE7704738B5FFF74D
:10111800CFF800B938BD064D002A0C46D5F87C3802
:101128001146F7DD2046FFF787FFD5F87C3838BD34
:10113800E017002010B5012204461021006849F08C
:1011480087FF00B910BD142048F0F0FE2068A022E7
:10115800BDE81040112149F07BBF00BF10B5242223
:1011680004464121006849F073FF20B9052048F082
:10117800DDFE012010BD20682022302149F068FFE3
:101188000028F3D020680622312149F061FF0028A9
:10119800ECD000223421206849F05AFF052048F09D
:1011A800C5FE012010BD00BF10B5072204460A2164
:1011B800006849F04DFF052048F0B8FE242241217F
:1011C800206849F045FF052048F0B0FEC0224221C2
:1011D800206849F03DFF052048F0A8FE012010BD19
:1011E80010B5782204460021006849F031FF052037
:1011F80048F09CFE20220121206849F029FF0520A3
:1012080048F094FE00220221206849F021FF642062
:1012180048F08CFE012010BD10B5044C04480A4665
:10122800214652F015F8204610BD00BF7029002055
:10123800DC23060810B5044C04480A46214652F03F
:1012480007F8204610BD00BF70290020EC230608CF
:1012580010B5044C04480A46214651F0F9FF2046CF
:1012680010BD00BF70290020F823060810B5044CF3
:1012780004480A46214651F0EBFF204610BD00BF46
:10128800702900200424060810B5044C04480A46B6
:10129800214651F0DDFF204610BD00BF7029002017
:1012A8000C24060810B5044C04480A46214651F09F
:1012B800CFFF204610BD00BF702A00201824060862
:1012C80010B5044C04480A46214651F0C1FF204697
:1012D80010BD00BF702A00202824060810B5044C51
:1012E80004480A46214651F0B3FF204610BD00BF0E
:1012F800702A0020342406080A4608B5054920B992
:10130800054851F0A5FF034808BD044851F0A0FF67
:10131800004808BD702A00204824060860240608F2
:1013280070B50F2300222F2102204AF061FA234CC6
:10133800606500283ED000214AF014FA4FF47A7014
:1013480048F0F4FD606D0379022B2AD00022114683
:101358000A234AF02BF91A4D1A4E636D1A79022A9C
:1013680008D0D4F87C3863610122002384F8242053
:10137800237670BD93F9103003EB830306EB8303E8
:10138800D86C49F021FD0028EBD0013DE5D1606D16
:101398004AF0D4FB237E6565013384F82450237614
:1013A80070BD83689B07D1D500BF406949F0C8F973
:1013B800606DCBE784F8240070BD00BFE017002003
:1013C800A18601000000002038B5124C636D1A791F
:1013D800022A00D038BD104D93F9103003EB830377
:1013E80005EB8303D86C49F0EFFC28B100BF636DAF
:1013F8001A79022AF0D038BD636D1A79022AE9D128
:101408009A689207E6D500BF5869BDE8384049F0A8
:1014180097B900BFE0170020000000202DE9F8432D
:10142800194C94F82460042E0546894690461F46B8
:1014380008D0082E02D00020BDE8F883FFF702F993
:101448000228F8D1606D49F02BFDA37E93B969029B
:101458001120FFF73DF998B9D4F87C38C4F800900A
:101468000522C4E90387656084F8242063610120AC
:10147800BDE8F88329461120FFF72AF90028EBD0A8
:10148800FFF7A2FFD7E700BFE01700202DE9F04FD4
:101498004D4F97F89E52C5B005B1FEE797F89F22C9
:1014A800DFF82CB10446012302F0F70203AED7F8A7
:1014B800980287F89E328846294687F89F2249F085
:1014C800C7FDFF2C4FF00903747088BFA408337060
:1014D8008CBF04F0C00CAC46022300204FF00A0A6F
:1014E8000DF10D094FF00B0E0DF10F0111E0B4F5E0
:1014F800827F06F803A009F8032018F8002011D805
:101508000130362806F805E0CA5403F106052346DB
:101518000FD09D1C4CEA0002B5F5827F03F104044C
:10152800D2B2E4D901306FF00044362823465D4634
:10153800EFD1B5F5827F43D808210DF10D02315561
:10154800A021D1540233D7F89842204894F91020AA
:10155800A16802EB820200EB8202D56C8A0723D5D0
:1015680032462846002149F085FBA3689B0722D50F
:10157800D7F898020DF10B02A02149F09FFC48B959
:10158800D7F8A033B7F8A42359690A4214BF5A837D
:101598001A83EDE79DF80B3013F02003F0D187F89C
:1015A8009E3245B0BDE8F08F6069019348F050FE67
:1015B80000BF019BD4E700BF606949F0C1F8D7E7D5
:1015C8006FF00043BFE700BFD828002000000020CC
:1015D800010000802DE9F04FDFF8CCC2A7B000234E
:1015E8000CF2A4550A269CF8A01201932F4618461F
:1015F8009E461C460096A4E003EBCE0E0CEB4E0371
:10160800CEF30720B3F8E02556075FFA8EF7D3B27A
:101618004FEA122A40F1CF804A0615D404F1020895
:10162800B8F18C0F41F0400100F2258126AE06EB9F
:101638000409621C32444FF0040609F88C6C012638
:101648004446019602F88C1C04F10209B9F18C0F8A
:1016580040F0020B00F2148126AA224404F1040887
:101668004FF00506B8F18C0F02F88C6C02F88BBCB1
:1016780000F2068126AE06EB090B04F106099B0071
:101688004FF00606B9F18C0F0BF88C6CDBB202F840
:10169800897C00F2F5800DF1980BC34404F1080829
:1016A8004FF00706B8F18C0F0BF88C6C02F8873CEA
:1016B80000F2E68026AB994404F10A034FF00506D0
:1016C8008C2B09F88C6C02F8850C00F2D98026A8BE
:1016D800804404F10C004FF006068C2808F88C6C46
:1016E80002F8837C00F2CC800B3426AA224426AC74
:1016F80023444FF0070603F88C6C044602F88CACC0
:101708004FEA5E100EF01F0255F82030012606FA47
:1017180002F223EA020345F82030009B013B0093C4
:1017280000F08B800EF10100B0F5F07F80F085802D
:101738004FEA501E594B05EB8E079F424FEA8E0E1B
:101748007BD23A6800F01F034FF0FF3000FA03F332
:10175800134093FAA3F3B3FA83F3DBB2202B7FF49D
:101768004BAF4E4B3A1D9A421BD24D4B009EDB1B92
:1017780023F0030308371F4401E0BA4211D0104692
:101788000432036893FAA3F3B3FA83F35FFA83FE90
:10179800BEF1200FF1D0401B1EEBC00E00967FF566
:1017A8002DAF019B0BB18CF8A0122046002C48D11C
:1017B80027B0BDE8F08F4E0603D401F038089845ED
:1017C80014D021F078011143A21C8C2AC9B252D836
:1017D80026AE631C06EB0408334414464FF004029B
:1017E80008F88C2C0122019203F88C1CA31C8C2B6A
:1017F80046D826AA02EB0408221D4FF005068C2ABB
:1018080008F88C6C08F88B0C3AD826A80344A01D5D
:101818004FF006068C2803F88C6C08F8897C2FD8C2
:10182800053426AB234426AC224404464FF0070077
:1018380002F88C0C03F88CAC62E7019B0BB18CF8B6
:10184800A012DCF89852174A95F91030A96803EBF2
:10185800830302EB83038A07DE6C1AD523463046DE
:1018680003AA002149F006FAAB689B070BD50120B3
:1018780027B0BDE8F08F012301936FF000443FE7E4
:101888006FF000443CE700BF686948F059FF012049
:101898008EE7686948F0DCFC00BFDFE7B82E00205F
:1018A800B32E002000000020D828002070B50023A7
:1018B80084B00446C38683630DF1070200680221E1
:1018C80049F0FCFA18B19DF80730DB0703D400256E
:1018D800284604B070BD062302AA0321206849F0F7
:1018E80057FB20680DF10702092149F0E7FA054680
:1018F8000028ECD09DF8073013F00C0FE7D19DF8C5
:101908000D109DF80C309DF809609DF808209DF891
:101918000B0043EA01239DF80A1042EA062241EA35
:101928000021C2EB8232C3EB83339B009200890013
:10193800E28621872068638701220A2149F088FB13
:10194800284604B070BD00BF10B5002282B004461E
:101958000A21006849F07CFB142048F0E7FA0F22BE
:101968000A21206849F074FB0A2048F0DFFA0323B3
:1019780001AA1021206849F00BFB0A2048F0D6FA8A
:1019880000220A21206849F063FB0A2048F0CEFAB9
:101998000DF103022068022149F090FA0DF10302CB
:1019A8002068092149F08AFA206801220A2149F0B1
:1019B8004FFB012002B010BD10B584B004460023CF
:1019C80000688DF807300DF10702272149F076FAF3
:1019D80028B19DF8073013F0080302D1184604B067
:1019E80010BD2068062302AA282149F0D1FA28B39D
:1019F8009DF809209DF808309DF80B1043EA022352
:101A08001BB2002B9DF80A20B8BF03339B1042EA93
:101A18000122E3869DF80D109DF80C3012B243EABE
:101A28000123002A1BB2B8BF0332002BB8BF03330F
:101A380092109B102287638704B010BDE086A063D4
:101A480004B010BD70B5002184B00446C18681631E
:101A58000DF10702006849F031FA28B19DF8073006
:101A680013F0080302D1184604B070BD206806239D
:101A780002AA012149F08CFA0028F5D09DF8082027
:101A88009DF80C609DF80D309DF809109DF80A50DE
:101A980041EA022143EA06239DF80B20E1865B42D6
:101AA800638742EA0523238704B070BDF0B583B08D
:101AB8000446062300686A46112149F069FA00289D
:101AC80039D09DF801709DF800109DF803609DF8CD
:101AD80002209DF805509DF8043041EA072109B21B
:101AE80006EE901A42EA062212B207EE102A43EADC
:101AF8000523F8EEE66AB7EE086A1BB207EE903ADD
:101B080066EE866AB8EEC77AFDEEE66A27EE067AD2
:101B1800F8EEE77A16EE903A67EE867ABDEEC77A67
:101B2800FDEEE77AE38617EE103A238717EE903A30
:101B3800638703B0F0BDE086A06303B0F0BD00BFCB
:101B480070B5002382B0C386836304460623006809
:101B58006A46032149F01CFAE0B19DF803209DF87C
:101B680002309DF801609DF800109DF8055043EA89
:101B780002239DF804201BB25B4241EA062142EA97
:101B8800052203EB430301EB410102EB42022387E9
:101B9800E186628702B070BDF0B5002585B00446C5
:101BA800C58685630DF107020068062149F086F9AC
:101BB80028B19DF8073013F0040302D1184605B088
:101BC800F0BD20682946062302AA49F0E1F9002859
:101BD800F5D09DF809709DF808109DF80B609DF8E8
:101BE8000A209DF80D509DF80C3041EA072142EA81
:101BF800062243EA0523E1862287638705B0F0BD04
:101C0800F0B504460068037983B0022B0CBF43216A
:101C1800032106236A4649F0BBF9B0B19DF800706C
:101C28009DF801109DF802609DF803209DF804506E
:101C38009DF8053041EA072142EA062243EA0523D6
:101C4800E1866287238703B0F0BDE086A06303B016
:101C5800F0BD00BF00B583B001AA0323002149F0FD
:101C680097F99DF805309DF804209DF806001B02A1
:101C780043EA0243184303B05DF804FB08B5006863
:101C8800FFF7E8FF024B0246C3F89428012008BD7D
:101C9800E017002008B50068FFF7DCFF024B02469A
:101CA800C3F88028012008BDE017002030B583B0B4
:101CB8000068032301AAF62149F06AF988B10A49A4
:101CC8009DF805309DF804509DF80640B1F9B828F4
:101CD8001B0243EA05432343C2F10802D340C1F87B
:101CE800BC3803B030BD00BFE017002000B583B09A
:101CF8000068022301AAF62149F04AF940B19DF88B
:101D080004109DF80530044A43EA0123A2F89838E4
:101D180003B05DF804FB00BFE017002070B582B087
:101D2800006806236A46F72149F032F908B39DF89E
:101D380001209DF800409DF804309DF802109DF8A0
:101D480003609DF80550120142EA04321B0142EA81
:101D580011120E4C0E49C4F8E02843EA063343EA50
:101D68001513C1F8A029C4F8C038C1F8A43902B0C5
:101D780070BD074A054BD2F8A019D2F8A429C3F8B8
:101D8800E018C3F8C02802B070BD00BFE0170020FB
:101D9800D8280020F8B50546016B354F90F82D007E
:101DA800B7FBF1F189B22C68FFF7F0F80646284630
:101DB8007388B7FBF3F7AF6309F06EFE2046002186
:101DC80049F0D0FC80226B21204649F041F964207B
:101DD80048F0ACF807226821204649F039F9642018
:101DE80048F0A4F800226B21204649F031F964201C
:101DF80048F09CF801226B21204649F029F90F2070
:101E080048F094F818221B21204649F021F90F20A8
:101E180048F08CF818221C21204649F019F90F20A7
:101E280048F084F832791A21204649F011F90F2038
:101E380048F07CF872791921204649F009F96420A4
:101E480048F074F812223721204649F001F90F2092
:101E580048F06CF838212046012249F0F9F80F20A3
:101E680048F064F820460321BDE8F84049F07ABC00
:101E780040420F00F0B5054683B0016B534F90F810
:101E88002D00B7FBF1F189B22C68FFF77FF8064601
:101E980028467388B7FBF3F7AF6309F0FDFD2046CA
:101EA800002149F05FFC80226B21204649F0D0F8E0
:101EB800962048F03BF803226821204649F0C8F8EC
:101EC800962048F033F803226B21204649F0C0F8E9
:101ED8000F20002148F016F810226A21204649F008
:101EE800B7F80F20002148F00DF800226C21204699
:101EF80049F0AEF80F20002148F004F87279192152
:101F0800204649F0A5F80F20002147F0FBFF1822D2
:101F18001B21204649F09CF80F20002147F0F2FFD2
:101F280018221C21204649F093F80F20002147F081
:101F3800E9FF10223721204649F08AF80F200021B6
:101F480047F0E0FF01223821204649F081F80F20B0
:101F5800002147F0D7FF32791A21204649F078F856
:101F68000120002147F0CEFF2046032149F0FAFB6B
:101F7800286806236A46432149F00AF8D0B19DF83B
:101F880002609DF803309DF800409DF801109DF80F
:101F980004009DF8052043EA06231BB26B845BB25C
:101FA80041EA042142EA002201332984AA8406D0A6
:101FB80003B0F0BDB5F922305BB20133F8D195F921
:101FC80020300133F4D1062048F0D6FB40420F0000
:101FD8002DE9F047038A8489A4B21C4082B045D019
:101FE800814688464FF0004501F14C0701F134065F
:101FF800B4FA84F325FA03F2D24391B21440A9F853
:1020080010101B3BB8F1000F5DD0042B2CD8DFE873
:1020180003F050463B300300D8F80C30D9F82CA018
:1020280033B19B6823B11FFA8AF108F1040098477D
:10203800D8F8243033B19B6823B11FFA8AF108F12C
:102048001C009847D8F83C302BB19B681BB11FFA8D
:102058008AF130469847D8F854302BB19B681BB1A9
:102068001FFA8AF138469847002CC1D102B0BDE862
:10207800F087D8F80C30D9F834105B6808F1040000
:102088009847002CB4D1F1E7D8F82430D9F83810A3
:102098005B6808F11C009847002CA9D1E6E7D8F83E
:1020A8003C30D9F83C105B6830469847002C9FD1EB
:1020B800DCE7D8F85430D9F840105B6838469847C0
:1020C800002C95D1D2E7042B07D8DFE803F00319D9
:1020D800140F0A00D9F840300193019B002C87D1D6
:1020E800C4E7D9F82C300193019BF7E7D9F83430CD
:1020F8000193019BF2E7D9F838300193019BEDE792
:10210800D9F83C300193019BE8E700BF0B68144AFB
:1021180030B40568CC682A402343D1E90545134308
:102128002343D1E907242B4313434A6A4D6B2343C6
:1021380013438C6BCA6A2B43234343F40033036075
:1021480044690B6B0D6924F0070413432343D1E959
:10215800014243614560846030BCC260704700BF83
:102168003F801CF0F8B5B44CB44DB54BC4F8AC592D
:102178000225B44AB44FB54EB54984F8B0594FF06A
:10218800A045C4F8B459C4F8003A05F51465A3F598
:10219800DC63C4F8B829C4F8C07902F55072603716
:1021A800C4F8FC69C4F8C4196036A1F5A461C4F880
:1021B800C859C4F8743AA5F5886503F5B073C4F82E
:1021C800042AC4F8CC79A2F5C462A7F58467C4F8D8
:1021D800086AC4F8BC19A6F5C06601F5C071C4F850
:1021E800385AC4F84C3AC0359A4B9B48C4F83C2A34
:1021F800C4F8407AC03207F52C67C4F8446AC4F8BA
:10220800481A06F5D55601F52A51C4F8505A4FF028
:102218005025C4F8A809C4F8542A00208F4AC4F8E5
:10222800787AC4F87C6AC4F8801A06F5C046012199
:10223800C4F8843AC4F8885AA3F5485307F5C04748
:1022480004F6A815C4F88C2AC4F8946A0246C4F89F
:10225800907A0E4684F8B319C4F8B43A84F8BA1AD6
:1022680084F8BC0A01462B46402083F81C21A3F8B9
:1022780022210132042AC3E9490183F81D6183F848
:102288001F11C3F8301103F12803EED100221146C3
:102298002B46402083F87423A3F87A230132042ABA
:1022A800C3E9DF0183F8751383F87713C3F888133C
:1022B80003F12803EED14FF0A04369489A6822F051
:1022C80001029A60DA6842F04002DA6051F078FA66
:1022D80094F8B1390022212161F317420BB142F47D
:1022E800801294F8AB19D4F8B43901299A6307D14C
:1022F8009A6822F03E0141F02A0161F307029A60D0
:10230800DA68D4F8B46AD4F8B809C2F3076121F0DE
:10231800600141F0400161F31F620021DA60316021
:10232800026861F3CC22026094F8B329012A10D123
:1023380001684C4A4C4E41F003010160802159620A
:102348009E62C3F804214FF4A072C3F80821C3F8B1
:102358000C211021454851F085FD444851F068FD95
:10236800D4F8B86994F8A93900204FF0FF323061E9
:102378007061B261F06143B305F114073C4A07EBA1
:1023880083074FEA830E4FF0FF0C52F8043F196899
:102398000029ACBF00214FF09041BA421960186182
:1023A800C3F808C0F1D15035324A75440027FF20E0
:1023B80052F8043F19680029ACBF00214FF0904142
:1023C800954219601F619860F2D1336994F8AB198E
:1023D80043F48073012933611ED0D4F8B429264808
:1023E80000294FF000036FF080414FF0FF349361F4
:1023F800516108BF102354605161906143F4701318
:10240800916943F4605343F008030B439361936865
:1024180043F001039360F8BDD4F8B429174B336334
:102428006FF08041144800234FF0FF3493615161ED
:10243800546051619061E1E7D828002040004001D4
:10244800200B00500008005000090050000B0050FD
:1024580020090050004000500804010000600050AE
:102468008C320020C00080008000400080320020B4
:1024780094320020D032002000080080030181003F
:1024880010B58021044650F009FF2046002150F085
:1024980005FF2046BDE8104051F0B8B900F01F0212
:1024A80040090123032803FA02F304D0042807D0C3
:1024B80002280AD07047074A116C0B43136470470F
:1024C800044A116B0B4313637047024A516C0B4368
:1024D8005364704700380240034B42689A4201D067
:1024E8009620DBE79520D9E70060024030B51F4B06
:1024F8005021082283B083F84313C3F88820BFF320
:102508004F8FBFF36F8F1A4D1A4C2B6B43F001039B
:102518004FF4C0522B63694640F202332046CDE99E
:10252800002351F0BDFE636A23F470436362636A5B
:1025380043F420436362636A23F470236362636A2B
:1025480043F420236362352047F0E8FD002147F07B
:1025580053FE6B6C084A43F480436B646B6B012138
:1025680043F080036B63516103B030BD00E100E0CC
:102578000038024000000240003C01402DE9F041D3
:10258800B24C94F8AF3FC4F89C0F82B088465A2BDF
:1025980000F2B980DFE813F0CC00B700B700DC0028
:1025A800B700B700B700B700B700B700B700B7006B
:1025B800B700B700B700B700B700B7001D01B700F4
:1025C800B700B700B700B700B700B7004101740003
:1025D800B700B7007400B700B700B700B700BB0179
:1025E800B7006401B700B7007C00B700FF01B7006F
:1025F800B700B700B7005B00B700B700B700B70077
:10260800B700B700B700B700B700B700B700B7000A
:10261800B700B700B700B700B700B700B700B700FA
:10262800B700B700B700B700B700B700B700B700EA
:10263800B700B700B700B700B700B700B700B700DA
:10264800B700B700B700B700B700B700E70194F8C4
:10265800B03F9B0700F15282B4F8B63FD4F8B12FCF
:10266800D4F8F01F5BBA9BB212BAD0188842C4F8EB
:10267800FC3FC4F8F82F03D950F0D0FD002854DBF4
:102688000020A4F8E80F0546284602B0BDE8F0810E
:1026980094F8F43F002B40F0018194F9AC3F002BF3
:1026A80031DAD4F8E43F08469B689847002840F0A0
:1026B8000982B4F8B66FD4F8B12FD4F8F03F76BADF
:1026C800B6B212BA90199842C4F8FC6FC4F8F82F41
:1026D80007D950F0A3FD002827DBD4F8F82FD4F849
:1026E800FC6FD4F8EC3FD4F8A85F06FB03F602FBB6
:1026F80003F20220AE42C4F8F82FC4F8FC6F84F845
:10270800F40F00F0D18094F8C03F5A1CD2B204EB09
:10271800C30305204FF40051042A84F8C02F83F81E
:10272800C40FC3F8C81F00F096814FF0FF35ABE720
:10273800D4F8A83F002BE6D1D4F8E43F08469B68BC
:1027480098470546002840F0BD81A4F8E80F9BE7AC
:102758003F4B002203F1120103F8012F8B42FBD1FA
:102768003C4994F8EA3F94F8C00F70250D709842E0
:102778004FF00C05CD7110D004EBC300013390F875
:10278800C45F8D70B0F8C80FDBB2042B40BA8881E3
:1027980014BF84F8EA3F84F8EA2F94F8B33F122272
:1027A8009342A4F8E82F0FD8A4F8E83F00256BE778
:1027B800B5F5805F28BF4FF48055D4F89C0F254AA3
:1027C800ABB2012150F062FE0025284602B0BDE8F8
:1027D800F08194F8B03FDA0700F12681D4F8E43F9D
:1027E80094F8B30FDA6901EBC10102EB81010A79B0
:1027F800531D834228BF0346A4F8E83F002BE3D0CB
:10280800013B14489BB201331944034411F8012DCC
:1028180003F8012D8342F9D1D6E70F480F4E014640
:1028280008230738C1F10705A4F8E83F002202E0B1
:1028380092F8702019460B46814203F8012905EBEE
:10284800030216FA82F2F3D1BEE700BFD8280020AF
:10285800436D0020446D00204B6D002010B4050826
:10286800D4F8E43FBC4A5B680846111D9847054602
:10287800002840F02781D4F8F03FB84AD4F8EC1F7C
:10288800013B180E1070180C09BAD37050701B0A4F
:10289800082093705160A4F8E80FF5E6D4F8FC5FBF
:1028A800D4F8F82FD4F8EC3FD4F8E46FB2FBF3F285
:1028B8004FF48057BD4228BF3D463669A749A4F862
:1028C800E87F4046B5FBF3F39BB2B0470028C0F25F
:1028D800B0802B46A14AD4F89C0F812150F012FDFC
:1028E8009F49D4F8F83F51F8F02CD4F8FC0F521B4C
:1028F8002B44451B41F8F02CC4F8F83FC4F8FC5FA2
:10290800002D7FF461AF032384F8F43FBCE6934FB6
:1029180000263B4607F10C0203F8016B9A42FBD1F3
:10292800D4F8E43F40465B686A4601A998470546E3
:10293800002840F0D180019BBDF80020013B190E12
:1029480052BAFB713971190C1B0A79710820BB71D5
:1029580002217A810C23BDF80220F87039727A724C
:10296800A4F8E83F90E67F487F4E014608230738E1
:10297800C1F10705A4F8E83F002202E092F87820A8
:1029880019460B46884203F8012905EB030216FA9B
:1029980082F2F3D118E794F8F43F002B61D194F94F
:1029A800AC3F002BFFF6AFAED4F8E43F08469B6877
:1029B8009847002840F08680D4F8E43F4046DB681A
:1029C80098470546002840F0AD80B4F8B63FD4F8E3
:1029D800B12FD4F8F00F5BBA99B212BA53188342E8
:1029E800C4F8FC1FC4F8F82F00F29280D4F8EC3F2A
:1029F800D4F8A80F03FB02F203FB01F38342C4F8E7
:102A0800F82FC4F8FC3F7FF47EAEB3F5805F28BF93
:102A18004FF480530121D4F89C0F504A84F8F41FD6
:102A28009BB250F033FD2FE607235049A4F8E83F46
:102A3800E6E694F8C03F5A1CD2B204EBC303042064
:102A48004FF48851824284F8C02F83F8C40FC3F82A
:102A5800C81F7FF46AAE002384F8C03F4FF0FF35EB
:102A680012E6D4F8FC5FD4F8E40FD4F8EC3FD4F8BD
:102A7800F82F4769B2FBF3F2B5F5805F28BF4FF432
:102A880080550846B5FBF3F334499BB2B847002894
:102A980057DB3349D4F8F83F51F8F02CD4F8FC0F41
:102AA800521B2B44451B41F8F02CC4F8F83FC4F8DE
:102AB800FC5F002D7FF47CAED4F89C0F294650F0C3
:102AC80039FDE1E594F8C03F5A1CD2B204EBC303C8
:102AD80002204FF468511FE694F8C03F04EBC3028C
:102AE8000133DBB202204FF46851042B82F8C40F83
:102AF800C2F8C81F20D084F8C03F16E694F8C03F3B
:102B08005A1CD2B204EBC30305204FF4105103E65C
:102B180050F084FB0028FFF608AED4F8F82FD4F85C
:102B2800FC1F63E794F8C03F5A1CD2B204EBC303FE
:102B380002204FF41C51EFE584F8C06F4FF0FF35C9
:102B4800A2E594F8C03F5A1CD2B204EBC303042098
:102B58004FF4407176E700BFC4380020446D002070
:102B6800D03900204B6D002010B4050878B4050852
:102B78002DE9F041804684B0084616464EF064F9C7
:102B88004FF47A72002304460D4652F035FAB6F92E
:102B980000C00746294620464FF47A723C24002399
:102BA8000CFB047752F028FA002594B24FF47A739C
:102BB800C3FB07452B46224601A84EF08FF8404B31
:102BC80013F8E63C012B2FD0022B10D19DF806708C
:102BD800FB1E082B0BD83B1F062B1BD9BDF8040086
:102BE80039464EF011F8032F36D00B2F41D022462C
:102BF8002B4640464EF072F804B0BDE8F081032F32
:102C080055D00A2FF3D19DF80870B7FA87F77F09D6
:102C1800002FECD033882B4A3C33A4184FF0000225
:102C2800338042EB0505E2E79DF80670FB1E072B93
:102C3800DDD83B1F052BEDD9BDF8040039464DF012
:102C4800E3FF9DF807309842D9D0033F18BF01270A
:102C5800002FDFD1CBE707380E28FCDC9DF80730C2
:102C6800834212D0CCBF01270027002FD2D1BEE764
:102C780007380728FCDC9DF8073083420ED0B4BF24
:102C880001270027002FC5D1B1E79DF80870012F53
:102C980094BF00270127002FBCD1A8E79DF8087032
:102CA800012F8CBF00270127002FB3D19FE79DF884
:102CB8000870003F18BF0127002FABD197E700BF6E
:102CC800D039002080EE3600804BB3FBF2F39942F6
:102CD8000DD300234FF07E5243608360C3600361CD
:102CE80002600023836143610362C361704707EE9A
:102CF800902A9FED777AF8EE676A07EE901A66EEEB
:102D0800876AF8EE677A66EEA76AFDEEE67A17EE4E
:102D1800903A2033402B00F2CA80DFED6E7AF4EE51
:102D2800E76AF1EE10FAF0EE667A0CDDDFED6A5A2A
:102D38009FED6A6AB0EE677AB4EEC67AF1EE10FAE1
:102D480077EEE57AF6DC9FED667AF4EEC77AF1EE77
:102D580010FA0CD5DFED605A9FED626AB0EE677A23
:102D6800B4EEC67AF1EE10FA77EEA57AF6D49FEDB6
:102D78005E7AF4EEC77AF1EE10FA00F390809FEDD8
:102D88005B7AF4EEC77AF1EE10FA44BF9FED547AFD
:102D980077EE677A27EEA76ADFED554A9FED557AF9
:102DA8009FED555ADFED555AA6EE247A67EE864A0E
:102DB800A6EE075AB6EE007AE6EE055AE4EEA57AD4
:102DC80027EE877A9FED486A76EE867AFDEEE75A17
:102DD80015EE903A2033402B66D8F4EEC66AF1EE31
:102DE80010FA0CDDDFED3C5A9FED3C6AF0EE676AA5
:102DF800F4EEC66AF1EE10FA77EEE57AF6DCDFED6E
:102E0800386AF4EEE67AF1EE10FA0CD5DFED325AB4
:102E18009FED346AF0EE676AF4EEC66AF1EE10FAD6
:102E280077EEA57AF6D4DFED306AF4EEE67AF1EEC5
:102E380010FA3FDDDFED276A76EEE77A67EEA76ADC
:102E4800DFED2B4A9FED2B5ADFED2B5A9FED2B6AB6
:102E5800A6EEA45A67EEA64AE6EE855AB8EE005AE0
:102E6800A6EEA56AE4EE867A67EE857AC7EE006A72
:102E7800B7EE006A76EE865A76EE666A86EE257AB0
:102E880067EE277A66EE876AC0ED017AC0ED037AAD
:102E980080ED007A80ED027AC0ED046A21E79FEDAB
:102EA8000D7A77EE677A75E7DFED157ADEE79FED45
:102EB800147A87E7DFED0D6AF4EEE67AF1EE10FAA0
:102EC80044BFDFED076A76EEE77AB7E720A107008F
:102ED80027D4D236DB0F4940DB0FC940E4CB16417B
:102EE800DB0F49C0E4CB16C1DB0FC93FDB0FC9BFFD
:102EF8009A7C2E36FAAF4FB93587083CA4AA2ABE69
:102F0800000000000023024A4260036083607047AB
:102F180083F9223E034A044B42600021016083602A
:102F2800704700BF5B128B3A6F12033B034B642858
:102F3800B8BF6420C3F85404704700BF00000020E5
:102F4800034B64281B68B8BF6420D860704700BF73
:102F5800000000102DE9F04790B0DDE9184A0E4650
:102F68000746904601A83C22002199461A9D58F030
:102F7800A2F92E4B8DF80460CDF834A00293002EF0
:102F880050D0B31E012B4FD9042E14BF00220322A8
:102F9800274B0394D3F87C388DF805201C44012373
:102FA800CDE9055704948DF83130B8F1000F06D0FB
:102FB8004A46414607A857F093FF8DF83090DFF84E
:102FC80074E01EF8A2AC0023BAF1010F0E931BD8CF
:102FD80001AC0FCC1EF8A3CCCCEB0C150EEB850581
:102FE800A03D0FC50FCC0FC50FCC0FC594E8070047
:102FF800BCFA8CFC0AF1010A4FEA5C1C85E8070060
:103008000EF8A2AC0EF8A3CC3B6843B14B4642463F
:103018003146384610B0BDE8F0472BF09BBE10B0E3
:10302800BDE8F0870522B3E70222B1E7EC380020BB
:10303800E0170020D039002030B403681A685379AB
:103048007BB159B2002920DB174C0120651803F029
:103058001F03490900FA03F3302085F8000344F8F8
:10306800213093797BB15AB2002A15DB0E48012131
:10307800841803F01F03520901FA03F3302184F87E
:10308800001340F8223030BC7047084903F00F03A2
:10309800194430230B76E4E7044A03F00F031A447B
:1030A8003023137630BC704700E100E0FCEC00E010
:1030B8002DE9F047041E0D4612DB092C26DC824A56
:1030C8000B468248A0FB0410C00800EB8000A4EB6C
:1030D80040000021125C1A7059702846BDE8F0873C
:1030E80064422D23092C01F8013B24D8764A774BFA
:1030F800A3FB0403DB0803EB8303A4EB43030020D7
:10310800D35C48700B702846BDE8F0876F4B632C82
:10311800A3FB04264FEAD60621DC6B4A0B466B4913
:10312800A1FB0601C90801EB8101A6EB4101515C35
:1031380003F8011BC5E7654A632CA2FB04364FEA76
:10314800D60637D8604A614BA3FB0603DB0803EBBE
:103158008303A6EB4303D35C01F8013BC7E7A3FB5A
:103168000627B4F57A7F4FEAD7070DD2564A0B46A1
:103178005649A1FB0701C90801EB8101A7EB4101F1
:10318800515C03F8011BCAE7A3FB072842F20F7240
:1031980094424FEAD80836D84B4A0B464B49A1FB14
:1031A8000801C90801EB8101A8EB4101515C03F852
:1031B800011BDDE7A2FB0637B4F57A7F4FEAD70794
:1031C8000CD2414A414BA3FB0703DB0803EB830303
:1031D800A7EB4303D35C01F8013BB4E7A2FB073834
:1031E80042F20F739C424FEAD80821D8364A374B2F
:1031F800A3FB0803DB0803EB8303A8EB4303D35CBF
:1032080001F8013BDEE7324AA3FB080994424FEA82
:10321800D90921D82C4A0B462C49A1FB0901C90818
:1032280001EB8101A9EB4101515C03F8011BB5E7F2
:10323800274BA2FB08099C424FEAD90921D8224A08
:10324800224BA3FB0903DB0803EB8303A9EB43032E
:10325800D35C01F8013BCAE71E4AA3FB0903944269
:103268004FEAD30A21D80B461849174AA1FB0A018D
:10327800C90801EB8101AAEB4101515C03F8011B6C
:10328800CAE7144BA2FB09029C424FEAD20A13D8A0
:103298000E4B0D4AA3FB0A03DB0803EB8303AAEBDF
:1032A8004303D35C01F8013BCAE70A22BAFBF2F0F8
:1032B8004DF0E8FB0346D7E70A22BAFBF2F04DF0DF
:1032C800E1FB0146E4E700BF78240608CDCCCCCC6E
:1032D8009F8601003F420F002DE9F04788B0541C3B
:1032E80003941478002C00F0408100250746884696
:1032F8001E46A9460BE0791C02D021463846C04735
:10330800039A0135531C03931478002C58D0252CAC
:10331800F1D1931CCDE9033950782D2800F0C880ED
:103328004FF0000A302800F0AB80A0F13003DBB288
:10333800092B4FF0000440F2AF806C284ED078285B
:1033480038D8572840D9A0F15803202B32D8DFE8C5
:1033580013F0F40031003100310031003100310048
:103368003100310031003100DA0000013100C100C4
:103378003100310031003100310031003100E3000B
:103388003100310031003100BB0031002100310033
:103398003100F40056F8040B05A9FCF7F1FE05AB63
:1033A800CDE90043049B42464FF0FF3138464DF0CB
:1033B800E9FE0544039A531C03931478002CA6D104
:1033C800284608B0BDE8F0870028F9D02528F1D1B3
:1033D8007B1C95D025213846C04791E7039B5A1C92
:1033E8000392197878298DD8572967D9A1F15803FC
:1033F800202B87D801A050F823F000BF2B350008F8
:103408000D3300080D3300080D3300080D33000894
:103418000D3300080D3300080D3300080D33000884
:103428000D3300080D3300080F3500086735000814
:103438000D330008DD3400080D3300080D33000893
:103448000D3300080D3300080D3300080D33000854
:103458000D330008233500080D3300080D3300082C
:103468000D3300080D330008D13400080D3300086F
:103478009D3300080D3300080D3300082B35000874
:10348800039B5A1C03921878A0F13003DBB2092B76
:103498004FF001043FF651AF04AA03A9FCF7B2FEAE
:1034A800BAF1000F3FF449AF049B5B42049344E731
:1034B800D31C039390784FF0010A33E700293FF4B7
:1034C8007FAF252984D01DE756F8042B049BCDE94E
:1034D800009268E7073626F00706F6E8020151F081
:1034E8000DFC00EE100A05A84DF062FA05ABCDE917
:1034F80000434246049B4FF0FF3138464DF042FEF0
:10350800039A0544FEE67A1C3FF4FAAE56F8041B0B
:103518003846C9B2C047F3E6039A56F8043B1D6023
:10352800F0E6A1F15802B2FA82F256F8040B5209F9
:1035380005AB10214DF002FB31E7A0F15802B2FAB9
:1035480082F256F8040B520905AB10214DF0F6FA39
:1035580025E756F8040B05A94DF0ACFA1FE756F815
:10356800040B05A94DF0A6FA19E7254628E700BF80
:1035780010B40C4C28212246002303E001330D2B04
:103588000BD01179884202F11402F7D103EB8303BF
:1035980004EB83005DF8044B704700205DF8044B92
:1035A800704700BF90B405082DE9F0478146684888
:1035B800D9F804C0BCF810300F46904690B04FEAD6
:1035C800D31E1A0900F5F56100256E0101358B5BE4
:1035D8008EEAD31482EA131304F0030403F00703FA
:1035E800234308D0102DF0D10023C9F80C30184619
:1035F80010B0BDE8F0878519881995F8C417DCF86C
:103608000020C9F80C000029F1D1B2F84430514C1F
:103618006FEA43436FEA53439BB2A2F844301388DE
:103628009BB243F0800313809CF80530118C23442F
:103638004FF0010A93F884310AFA03F39BB289B276
:1036480021EA03011184118C89B20B431384138876
:103658009BB243EA0A031380FEF73EFFD9F80C60D9
:103668000A23A5F8C4373046FEF736FF96F914301A
:10367800394AC6F81890002BF26060DB374903F02E
:103688001F02C8185B0930250AFA02F280F80053B5
:1036980041F82320D9F80C30986850F00BFDD9F880
:1036A8000C309868036823F00103036050F002FDB2
:1036B8000023CDE90C33CDE90E33D9F80420069365
:1036C8000A935379032B41D8DFE803F036333002ED
:1036D80013684033128A029302F00F0304EB830449
:1036E800D9F80C20D4F88831906801934FF48061A0
:1036F80040224FF4003307914FF480454FF4805433
:1037080001A904920B93CDE90845CDF814800397DD
:10371800FEF7FCFCD9F80C309A68136843F01003E4
:1037280013600123184610B0BDE8F08713683C33D6
:10373800D0E713683833CDE713683433CAE7084A4B
:1037480003F00F031A4430231376A3E70023C1E7DD
:103758000000002010B40508090D000800E100E091
:10376800FCEC00E000230360704700BFF0B52A4A74
:103778002A4C2B4BC2F8043912232A4882F8E8381D
:10378800A4F12401284B294DC2F8141985B002F67A
:10379800E801C2F8080942F6F82600274020C1E9E6
:1037A800026744E9093344E9073344E9053344E946
:1037B8000333C2F80C5944F8043C2DF053FA08B30B
:1037C800E379A17990F90400194A002B14BF082362
:1037D8000023002918BF43F0010303254FF4E1310A
:1037E800CDE901530091002340212DF047F8A06254
:1037F80028B194F82C303BB1002384F834300038D9
:1038080018BF012005B0F0BD0A4B2363022384F8DA
:103818002C300123F1E700BFE0170020D039002049
:1038280065780208F58A0208E003E0032D9502088E
:10383800B98F0208E97B0208F0B5224B224A234CD3
:10384800C3F80429112003F6E802214D83F8E8089B
:1038580041F60B260027C2E9026785B04FF478725B
:103868004FF47871C3F8085940204FF47873C4E9CD
:103878000E23C4E91023C4E91223C4E91423C4E9BC
:103888001623C4E91823C4E91A23C4E91C23A16731
:103898002DF0E8F998B1E3790E4A90F90400009206
:1038A800002B18BF08230322CDE9012340210A4A2F
:1038B80000232CF0E3FFE067003818BF012005B0B3
:1038C800F0BD00BFE0170020957C0208D039002029
:1038D800B57C0208A0680600519102080248034A14
:1038E800C11D0630FDF7E8BAD0390020400D0300AD
:1038F8000248034AC11D0630FDF7DEBAD039002060
:10390800A086010080F00101014846F01FBF00BFFA
:10391800782C0020054BD3F8A023B3F8A4335169C1
:103928000B4214BF53831383704700BFD82800206D
:1039380070B40D4B0D4CA34203D311E00C33A342DA
:103948000ED25A798242F9D1DA798A42F6D11A68C6
:103958001E791579AE42F1D115689D42EED100E08D
:103968000022104670BC70479C820608F88306083F
:10397800642828BF64201C4B00EB800070B545000C
:10398800A3FB05235E095B0918BF002422D001347C
:103998009F2020F043F9E3B29E42F8D80A2E00D1C6
:1039A80070BD1248A0FB05300009C6EB8613C6EBB4
:1039B800830366381844C0B220F030F9092E06F1A6
:1039C8000104EDD001349A20E4B220F027F90A2C42
:1039D800F8D170BD0548A0FB053000096638C0B2B3
:1039E80020F01CF90124EDE71F85EB51CDCCCCCCA0
:1039F80070B50020FFF786FF0D4B0E4D01244FF4E4
:103A08000676184601211BB1DE801C7246F0F4FBD5
:103A1800032C08D055F82430012101341846002B16
:103A2800F2D1032CF6D1BDE8704000206AE700BF50
:103A3800782C0020B8B50508F0B4194F97F88030F5
:103A4800042B2BD80C2202FB0372883252F8041C78
:103A58000133CC07DBB20ED501420CD092F90060DD
:103A6800104C002194F90050B54204F10C040BD01D
:103A780001310529F6D1052B02F10C02E6D187F8B0
:103A880080300020F0BC704701EB410107EB810159
:103A980087F88030D1F8C800F0BC70470020F1E703
:103AA800D0390020943A0020D0ED017AF5EE407A22
:103AB800F1EE10FA05D19FED0B7AF0EE477A80ED22
:103AC800017A30EEA77AD0ED007AC0ED020AC0EE96
:103AD800876A30EE670AE6EE807AB0EE670AC0EDD4
:103AE800007A704783F9223EBCEEC00A7F4AB2FBD7
:103AF800F1F210EE103A9BB2934208D300234FF034
:103B08007E5243608360C36003610260704707EEC2
:103B1800901A9FED777AF8EE676A07EE903A66EEAC
:103B2800876AF8EE677A66EEA76AFDEEE67A17EE20
:103B3800903A2033402B00F2CA80DFED6E7AF4EE23
:103B4800E76AF1EE10FAF0EE667A0CDDDFED6A5AFC
:103B58009FED6A6AB0EE677AB4EEC67AF1EE10FAB3
:103B680077EEE57AF6DC9FED667AF4EEC77AF1EE49
:103B780010FA0CD5DFED605A9FED626AB0EE677AF5
:103B8800B4EEC67AF1EE10FA77EEA57AF6D49FED88
:103B98005E7AF4EEC77AF1EE10FA00F390809FEDAA
:103BA8005B7AF4EEC77AF1EE10FA44BF9FED547ACF
:103BB80077EE677A27EEA76ADFED554A9FED557ACB
:103BC8009FED555ADFED555AA6EE247A67EE864AE0
:103BD800A6EE075AB6EE007AE6EE055AE4EEA57AA6
:103BE80027EE877A9FED486A76EE867AFDEEE75AE9
:103BF80015EE903A2033402B66D8F4EEC66AF1EE03
:103C080010FA0CDDDFED3C5A9FED3C6AF0EE676A76
:103C1800F4EEC66AF1EE10FA77EEE57AF6DCDFED3F
:103C2800386AF4EEE67AF1EE10FA0CD5DFED325A86
:103C38009FED346AF0EE676AF4EEC66AF1EE10FAA8
:103C480077EEA57AF6D4DFED306AF4EEE67AF1EE97
:103C580010FA3FDDDFED276A76EEE77A67EEA76AAE
:103C6800DFED2B4A9FED2B5ADFED2B5A9FED2B6A88
:103C7800A6EEA45A67EEA64AE6EE855AB8EE005AB2
:103C8800A6EEA56AE4EE867A67EE857AC7EE206A24
:103C9800B7EE006A76EE865A76EE666A86EE257A82
:103CA80067EE277A66EE876AC0ED017AC0ED037A7F
:103CB80080ED007A80ED027AC0ED046A70479FEDCE
:103CC8000D7A77EE677A75E7DFED157ADEE79FED17
:103CD800147A87E7DFED0D6AF4EEE67AF1EE10FA72
:103CE80044BFDFED076A76EEE77AB7E720A1070061
:103CF80027D4D236DB0F4940DB0FC940E4CB16414D
:103D0800DB0F49C0E4CB16C1DB0FC93FDB0FC9BFCE
:103D18009A7C2E36FAAF4FB93587083CA4AA2ABE3A
:103D28000000000070B4344890F80031A3F130016D
:103D3800092957D800F58074224600F20F1012F8AE
:103D4800015FA5F13001092904D88242F7D100208A
:103D580070BC7047141B022C4ADD2848002101E082
:103D680010F8013B01EB810103EB4103161A303BCC
:103D7800022E044603F0FF01F2DC214B03FB01F1A4
:103D8800A2424FF000030DD903EB830314F8016B33
:103D98005B00303B3344A24203F0FF03F4D11948DF
:103DA80000FB03F32E2D06D01748A0FB032301EBDD
:103DB800930070BC7047013204200024157804EB8E
:103DC8008404303D6400092D00F1FF30A4B202D80C
:103DD8002C44A4B2013210F0FF00EFD1642202FBA0
:103DE8000433E1E700211D4600F580720B46D9E750
:103DF800064C0021C4E700BFD0390020D13A00208A
:103E08008096980040420F00ABAAAAAAD03A002098
:103E1800064B93F8211103F57B7203F5757300299E
:103E280018BF134693ED050A704700BFD03900202C
:103E3800064B93F8211103F57B7203F5757300297E
:103E480018BF134693ED020A704700BFD03900200F
:103E58009B1A00FB03F090FBF1F01044704700BF81
:103E6800094BD3F8840AD3F8882AD3F88C3A8242CB
:103E780002DB114602460846984204DD9A42B8BF62
:103E88001A46104670477047D039002030B4124A9D
:103E980002F5296019C88342D2F89C1AD2F8A02AE0
:103EA80002DB1D46034628468A4202DB15460A46BF
:103EB80029468842A8BF08469342B8BF1346A04285
:103EC80002DC224604461046834203DAA342B8BF06
:103ED8002346184630BC7047D03900200B6810B410
:103EE80014681B1B036054684B681B1B43608B687A
:103EF80092685DF8044B9B1A8360704730B504687C
:103F0800E46985B02CB10DF10F050095A04705B007
:103F180030BD204605B030BD38B50A4C0A4D2321C6
:103F2800D5F8A40A47F086FE14F8011F0029F7D136
:103F380006484AF0FFFB95F8A83A13B1012385F823
:103F4800A93A38BDA0240608D0390020AC240608B8
:103F58002DE9F04F89B0CDE90621DFF8B08007469A
:103F680099460026069B002B07DBB34205D0013695
:103F7800042EF7D109B0BDE8F08FD82303FB06FB68
:103F8800079B03EB0B0A204B00249B44B9F1000F5D
:103F980033464246384601DBA14530D13BF8145040
:103FA8003AF81410009415F4006FA1EB050114BF42
:103FB8004FF0560E4FF0480E05F01F0CB1FA81F184
:103FC800C5F344154909CDE901C5CDF80CE00591C3
:103FD80048F000FF3AF814300599009413F4006F84
:103FE80003F01F0214BF56204820C3F34413CDE941
:103FF8000123039033464246384648F007FF013410
:104008006C2CC3D1B3E700BF7C440020BC24060855
:104018002DE9F04F3B4C3C4B94F8505A3B4ADFF8A3
:10402800F4808946002D08BF1A4694F9511A8BB0BE
:104038000746374848F056FB04F596644D46002677
:10404800B9F1000F3ED022782B789A426A683BD0AB
:10405800D5E902CE0021A87D0790B5F91400069095
:10406800B5F912000590B5F910000093CDE903E009
:10407800CDE9012C334642463846099148F0AAFE5C
:104088000999A37D6268B4F914B0B4F912A0B4F91F
:1040980010E0D4E9020C079314F8183B0093CDE91B
:1040A80001203346CDE905ABCDE903CE42460136C2
:1040B800384648F0ABFE3C2E05F11805C0D10BB0D0
:1040C800BDE8F08F4946DCE76168D5F808C0914241
:1040D80002D0D5F80CE0BDE7A168D5F80CE0614541
:1040E800B8D1E1687145B5D1206929698842B1D153
:1040F8006069696920F07F4021F07F418842A9D139
:104108000121A8E7D0390020D82406084829060844
:10411800DC240608EC24060870B51F4E96F83C34DB
:104128002DED028B04460D467BB3D6F84814D6F81D
:104138004C24D6F844340360C0E9011206F58863BC
:1041480093ED008ADFED158A95ED000A80EE280AC6
:1041580053F0A6FB23681844206028EE288A95EDC2
:10416800010A80EE080A53F09BFB636818446060FC
:1041780095ED020A53F094FBBDEC028BA36802464E
:10418800134496F83C04A36070BDC0E90033836013
:10419800B7EE008AD6E700BFD03900202C7D8E3FCD
:1041A800F0B4244B93F83C5482B03DB9002303602B
:1041B80043608360284602B0F0BC70474C68D3F86F
:1041C800447401940C68D3F848649FED1B6AE71B9C
:1041D800019CA41B07EE904A03F58864D4ED006A9D
:1041E80007EE107A66EE866AB8EEC77AF8EEE77AD6
:1041F80027EE067A67EEA67A012A80ED007AC0EDEE
:10420800017A0DD08A68D3F84C34D21A07EE902A76
:10421800F8EEE77AC0ED027A284602B0F0BC7047A3
:10422800D1ED027AF8EEE77AC0ED027A284602B0BC
:10423800F0BC7047D03900202C7D8E3F1D4A2DE9F7
:10424800700354681C4E002CD6F8483403600EDD09
:104258000832002306F5896501E09C4207D052F830
:10426800041BA94203F10103F7D1012200E0002257
:10427800D6F8543483600271104A96F85834437162
:104288001346F3E80289D3E90045D6F8783452F8A2
:10429800042CD6F8701481625B0943EAC2635209A0
:1042A800C0E90489C0E90645C0E90832BDE87003E1
:1042B800704700BF000000100000002080040020AC
:1042C8000C4608B505462CF0AFFA20462CF0ACFA9F
:1042D8000020FFF717FB284645F09EFEB0B92046A0
:1042E80045F09AFE0028F6D00120FFF70BFB204688
:1042F80045F08AFE0146284645F0B4FE0020FFF747
:1043080001FB284645F088FE0028E8D00120FFF789
:10431800F9FA284645F078FE0146204645F0A2FE07
:104328000020FFF7EFFADAE7F0B500230B604B60E7
:104338008B60CB600B610268DFF88CC089B004AD7C
:10434800C2F385572E4647FA03F0C007344604D512
:1043580013F80C0004F8010B26460133062BF2D1A2
:104368001748C2F303240444002394F8BC41337073
:104378008DF8184000F5E27CC2F305370DF11906F7
:1043880047FA03F0C007344604D513F80C0004F8C4
:10439800010B26460133062BF2D100233370C2F3FA
:1043A800834406ABCDE90134084602F00F03054902
:1043B8000095C2F303124CF035FE09B0F0BD00BF02
:1043C80010B405080C250608C4B50508014BD3F838
:1043D800C800704700000020014BD3F8580170470F
:1043E80000000020014BD3F81001704700000020A6
:1043F80010B4414A92F89130906F023BD2E91C14F4
:10440800062B74D8DFE803F05A5C605006550400A8
:1044180064424942404280EAE073A3EBE07306EE4F
:10442800903A84EAE473A3EBE47307EE103AF8EEEB
:10443800E66A9FED326AB8EEC77A26EE866A81EAA6
:10444800E173A3EBE17307EE903AB4EEC76AF1EEBD
:1044580010FAF8EEE77A04DDB4EEE76AF1EE10FA46
:1044680034DC9FED266A27EE066AB4EEE76AF1EEC1
:1044780010FA04DDF4EEC66AF1EE10FA2DD49FEDC1
:104488001F6A67EE867AB4EEE77AF1EE10FA2BD55A
:10449800F4EEE76AF1EE10FA26D50029CCBF042025
:1044A80005205DF8044B70474B42404221461C46AC
:1044B800B1E7634240420C461946ACE74942AAE7D5
:1044C8004B4261421C46A6E76442A4E70028CCBFE1
:1044D800002001205DF8044B7047002CCCBF02205F
:1044E80003205DF8044B70474FF0FF30D9E72346AF
:1044F8000C4619468FE700BF00000010ABAA2A3F00
:1045080070B5274CDFED276A237D94F8542ED4F834
:10451800785E07EE103A637D07EE903AB8EEC77AF8
:10452800F8EEE77A27EE267A67EEA67A04EB4206DB
:10453800BDEEC77A0132FDEEE77A02F00F01B6F858
:10454800583E84F8541E17EE102A17EE901AC31A14
:104558002B448A42C4F8783E82B0A6F8580E4FEA37
:10456800131312DC17EE101A17EE902A98B240F2C5
:10457800FF35002300954DF043FD2A4600214DF0FC
:1045880061FDA4F87C0E02B070BD9BB29942D4BF05
:10459800581A00208242A6BF101A80B20020E6E70F
:1045A800D039002014AE23412DE9F04F2DED108BAA
:1045B800034693B004331193DFEDC1AA1090022390
:1045C8000F928B460E938946109C4FEADB0504EB4D
:1045D800451202EB0511A5EB85034FEAC5084FEA22
:1045E800051E05EB850A009101EBC30308F10400E1
:1045F8000EF104012E46204405EB450521444FEAFF
:10460800CA040D9602942C01C6EBC60C0394EC0068
:104618000D9D04944FEACC0405946C010194119DFE
:10462800009C03EB46174FEACB0A02EBC6064FF095
:10463800000C55ED011A11ED012AD6ED005AD7EDFF
:10464800004A92ED003AD4ED003A10ED015A93ED8C
:10465800004A72EE238A34EE248A71EE836A35EEBC
:10466800257A36EEA86A77EE087A35EE655A76EE40
:10467800275A36EE676A45ED015A82ED006A90EDD9
:1046880000AAD6ED012A93ED016AD7ED019A94EDBF
:10469800010AD1ED005AD5ED007A92ED019A34EE77
:1046A800644A76EE690A7AEE624A35EEC01A31EE4D
:1046B800C33A72EE633A34EEA02A77EEC91A74EE62
:1046C800E04A75EE805A75EE440AB0EE410A35EEBE
:1046D800045AA2EE2A0ADC44E145A2EE6A1AB0EEB8
:1046E800434AB0EE432AA0EEAA2AA0EEEA4AB0EE68
:1046F800613AF0EE610AE4EEAA0AA4EEEA3AF0EEB4
:10470800634AE5EE6A3AE5EE2A4A7AEE222A36EE5E
:10471800296A77EE897A72EE861A37EE487A32EE8F
:10472800C66A76EEE86AB0EE635A77EEA53A77EE97
:10473800E57A73EEA18A36EE868A73EEE13A76EE72
:10474800C66A77EEC71A72EE002A77EE277A74EEF9
:10475800015A30EEE46A33EE457A32EE402A34EEFE
:10476800414A74EEA04A35EE035AC5ED008AC2EDFF
:10477800013A554401ED018A5244C4ED006AC1ED85
:10478800001AC4ED017A514440ED012A544487EDE2
:10479800002AC6ED005A83ED004A80ED006AC7ED95
:1047A800014A504486ED017A574483ED015A564434
:1047B80053443FF63EAF0D9B072B40F2A38101986F
:1047C800109D059B049A0399029C08302818083309
:1047D8000A902846C318083282180593034608F140
:1047E80008080EF10C0E0C33083408310692024604
:1047F800454472440419411804934B460995D1461F
:104808000894079103924FF001084FF0000E9A4662
:104818000E9B9E440F9B03EBCE0303EBCE0202EBF1
:10482800CE0000EBCE0404EBCE0505EBCE060C93D0
:1048380006EBCE07AEEB8E030B9207EB031202EBEF
:10484800CE0C0CEBCE03029203EBCE02019313467F
:10485800D3ED01DA019BD0ED007A93ED01DA029BEA
:10486800CDED027A93ED01CA0B9BDCED01CAD3EDC5
:10487800007A0C9BCDED017A02EBCE0202EBCE0161
:10488800009201EBCE02D3ED007A92ED01FA009A84
:10489800D1ED01EA92ED01EAD7ED00BA96ED00BA42
:1048A80095ED00AAD4ED009ACDED007ADDE9037606
:1048B800DDE90554DDE90701DDE90923C44601E026
:1048C800F304353F91ED006A56ED01FAD0ED002A68
:1048D800D4ED005AD5ED006A93ED007A57ED017AD0
:1048E80092ED002A96ED008A7FEE870A32EE061ACC
:1048F80037EEA24A75EEA64A70EE841A31EE245AB3
:1049080032EE462A31EE856A75EEE65A06ED016A00
:10491800D4ED018A92ED019A91ED013A95ED016A83
:1049280097ED000AD0ED016AD3ED013A3FEEC77A60
:1049380077EEE27A78EEC6FA79EE432A39EE033A50
:1049480030EE669A38EE866A70EE266A78EE638AEA
:1049580032EEEF0A72EEAF2A78EE233A30EEC44A0E
:1049680032EE258AF0EE490A72EE655AE2EEAA0A9C
:10497800DC44E245A2EEEA9AB0EE682AF0EE472A55
:10498800E5EEAA2AA5EEEA7AA0EE2A2A73EE065ADE
:10499800E0EE6A8AF0EE67FA33EEA60AE8EE6A7A83
:1049A80071EE644A31EEC55A33EE463A70EE651A36
:1049B80073EEE63A34EE036A72EEA06A34EE434AC6
:1049C80072EEE00A33EEE43AE8EE2AFA74EEA33A1D
:1049D80065EE6D2A77EE094A37EE499A38EEE77A9E
:1049E80077EEA88A6DEEA17A9DED018AE9EE857AC7
:1049F800E9EEA12A26EE6C5A6CEE831A32EE6F1A93
:104A0800A8EE035AE8EE061A2EEEA33A24EE6E6AD2
:104A18009DED008A3FEE822AABEE043AABEE236AA4
:104A28002CEE014A66EECC3AA8EE264AE8EE013AA8
:104A38006FEE026A20EECF1AEBEEA06AABEE821A96
:104A480064EECE0A2EEE072A9DED028AEAEE070AE8
:104A5800AAEE242A2DEE287A69EE4D4AA8EE097AA4
:104A6800E8EE284A70EE255AC6ED005AC3ED007AE2
:104A7800C3ED012A4E4447ED011A87ED005A4B4415
:104A880080ED003A80ED016A4F4482ED004AC2EDA4
:104A9800013A4844C5ED006A85ED011A4A4481EDA2
:104AA800002A4D44C1ED010A84ED007AC4ED014AA3
:104AB80049444C443FF606AF0A9B08330A93099BC6
:104AC80008330993089B08330893079B0833079317
:104AD800069B08330693059B08330593049B08330C
:104AE8000493039B083303930D9B08F10108434586
:104AF8007FF48EAE0E9BDDF834B0DB009BB2D1465E
:104B08000E9361E513B0BDEC108BBDE8F08F00BFCC
:104B180038B503782DED0A8BD0ED01AA30EE609AF6
:104B2800044669EE2AAAF0EE408AF0EE607A0D4655
:104B3800F0EE419AF0EE61BAB0EE42CA002B5DD1B8
:104B480090ED0B7A01F00103002B50D039EE477A33
:104B5800F0EE497A87EE290AD4ED090AC4ED0B7AFA
:104B6800F5EEC00AF1EE10FA53DC94ED03AA20EE3C
:104B78000AAA94ED0ABA94ED050A3AEE8B8A68EE11
:104B8800808A38EE0A8AB0EE4C1A38EE288AF0EE9F
:104B98006B0AB0EE480A4DF045FAD4ED027A94ED6E
:104BA800047AC4ED0F8A29EE279AF0EE4B7AE9EEE3
:104BB800897A6B0730EE488A84ED0CBA28EE078AAA
:104BC800C4ED0DAAE9EE887A84ED0EAA84ED100AE8
:104BD80008D5B0EECBBAB0EEE77AB4EECB7AF1EE08
:104BE80010FA01D5C4ED0A7ABDEC0A8B38BD37EE50
:104BF800C77AB1EE477A87EE290AADE711F00103CB
:104C08004FF000020CBFB0EE607AB0EE497A027045
:104C18009AE7B0EE691A04F1180094ED03AA4BF074
:104C280035F92AEE00AAA4E730B41C7884B1012C27
:104C38000CD1B3F902408AB1157B94FBF5F40470EA
:104C4800B3F90430527B93FBF2F30B7030BC70471E
:104C58009A780270DB780B7030BC7047054A82FB8B
:104C68000452E417C4EB62040470B3F9043012224E
:104C7800E9E700BFABAAAA2A30B41C784CB1012CD2
:104C880005D1B3F90220B3F9043002600B6030BCDF
:104C980070479C7852B1157BDB7815FB04F40460EF
:104CA800527B03FB02F330BC0B60704704EB4404F7
:104CB800A400DB7804601222F3E700BF2DE9F04F6F
:104CC8002DED028B87B00446324D039310460E46F5
:104CD800B0EE408A17464FF09DFBD5F880BE9DF890
:104CE80048A0DBF800308BF80B604FF00008204438
:104CF8008BF80A00CDF8008058463246D3F814B035
:104D08009DF84C903B462146D8479FED230A039BCC
:104D1800019328EE000A5346FDEEC07ACDF80080D4
:104D280017EE901A424604A816F0E0FCD5F8843E27
:104D380013B11B784B452AD0D5F8903E13B11B7898
:104D48004B4524D0D5F89C3E13B11B784B451ED05B
:104D5800D5F8A83ECBB11B78A3EB0909B9FA89F9B4
:104D68004FEA591938464FF055FB01340444E1B273
:104D7800D5F8800ECDF8009004AB324645F0A2FE7F
:104D880007B0BDEC028BBDE8F08F9946EAE74FF01B
:104D98000109E7E7D03900200000C84230B583B0E8
:104DA8000C460546019211F0A3FB019B22462946B9
:104DB80045F03EFF094A92F9B43E02EB4301013344
:104DC8005BB2352BC8BF0023012081F8B85E81F89B
:104DD800B94E82F8B43E03B030BD00BFD0390020D0
:104DE800F8B5214D1D260C46074685F8246F2AF094
:104DF80067FB00202AF0E6FA08202AF0E3FA0E20E2
:104E08002AF0E0FA30462AF0DDFA04202AF0DAFA2D
:104E180004202AF0D7FA00202AF0D4FA30202AF009
:104E2800D1FA00202AF0CEFA20462AF0CBFA002048
:104E38002AF0C8FA2AF022FB05F628702AF022FA8E
:104E480000B9F8BD95F8283F63B995F8293F302B8C
:104E580000D03BB995F82A3F23B995F82B3F3B7012
:104E68000120F8BD0120F8BDD0390020164991F87D
:104E7800002132B3F0B4064600200346074602E09C
:104E880092F80021DAB100EB80002E2A4FEA4000A8
:104E980004D10133CA18324482F80071CA18A0F14B
:104EA800300592F80021A2F13004092C98BF50195E
:104EB8000E2B03F1010301EB0302E1D90020F0BC42
:104EC80070470020704700BFD039002010B50A4C49
:104ED80004F654200DF042FED4F8603AC01A4DF0A2
:104EE800EBF80028B8BF404242F210739842D4BF92
:104EF8000020012010BD00BFD039002070B5164E2B
:104F0800D6F8383F1A791E3A012A054605D91846B7
:104F1800002145F0A7F8D6F8383F002D0ADD0F4CE0
:104F2800254414F8011B184645F09CF8A542D6F80C
:104F3800383FF6D11846002145F094F80849B6F8EC
:104F4800683FD1F87C18074AC6F8601F0133002172
:104F5800A6F8683F516070BDD03900200C49002088
:104F6800E01700203049002010B51C2045F0D6F885
:104F78001121044645F040F9204645F069F9C8205A
:104F880044F0D4FF2046BDE8104045F0D9BB00BF2F
:104F98002DE9F04FB34CD4F8B4395A69D2078BB025
:104FA80002D50BB0BDE8F08F5A699B6912EA030A73
:104FB800F7D0CAF307431AF4002F009340F0028198
:104FC800009B5D0743D41AF0020F5FFA8AF503D0FD
:104FD800D4F8B43902225A61BAF1000FC0F2118232
:104FE8001AF4006FCAF3072740F084812E0708D50A
:104FF8009D4B9E48D3F8B4399847D4F8B439082261
:105008005A61ED0600F1E981F80600F1A981B906B7
:1050180000F12E81009BDA0609D5934B9348D3F80B
:10502800C4399847D4F8B4394FF480125A61009BB8
:105038009B06B6D58C4B8D48D3F8C8399847D4F819
:10504800B4394FF400125A610BB0BDE8F08FD4F8B0
:10505800B8299369D26913401FFA83FBBBF1000F8B
:10506800B1D0DFF80882CDF80CA045464FF0000912
:1050780009E05FEA5B0B09F1010908F1040805F191
:10508800280500F0DA811BF0010FF2D0D4F8B81926
:105098005FFA89F708694A6B04EB8703FA40D3F88B
:1050A800C039D2019B68D2B202431A40D007D3B2AA
:1050B80016D54B6BD8F81820012000FA09F023EA1E
:1050C80000034B63684B6948D3F8AC390121916000
:1050D8003946984794F8AB69012E00F0FC8101230A
:1050E8001A0703D5D8F8182008239360DE0603D5DD
:1050F800D8F8182010239360580603D5D8F818203C
:1051080040239360990703D5D8F8182002239360A9
:105118001A06AED5D5E94C60D5F82431D8F818C0B0
:10512800311A8B42DCF8182028BF0B46033392B2A1
:10513800B2EB930F9DD9D4F8B829323704EB870323
:10514800CDE9019890469946B04238D2BEB3D5F819
:10515800241194F8AB39D5F82821371AB94228BF59
:10516800394601F1030E4FEA9E0E83B98FB2033719
:10517800BF10D9F8B0A90AD0013352F8040BCAF805
:1051880000009F42F8D1D5E94C60D5F82821DCF819
:10519800183008440A44B042C5F82821C5F834013B
:1051A8000AD195F81C11D8F83420012707FA01F123
:1051B80022EA0102C8F834209BB29E45C4D3DDE937
:1051C800019856E7D4F8B8399D69DB691D402D0C64
:1051D8003FF4F6AE04F6A816DFF88CB0B046B14638
:1051E800002708E06D0807F1010706F1040608F139
:1051F80028083FF4E5AEEB07F4D5F9B204EB8102D9
:10520800D4F8B839D2F8FC2992685B691A40D007FB
:10521800D3B218D594F8AB09726D01239842936004
:1052280007D11269D8F87C33C2F312029B1AC8F866
:105238008C33DBF8A8394846984794F8AB39012BEA
:1052480000F0578101239A0702D5726D02239360FB
:105258001B07C7D5DBF8B03948469847736D082255
:105268009A60BFE7D8280020000000208032002084
:10527800D4F8B839D4F8C0199A680868C2F341025A
:10528800022A08BF03224FF0000514BF65F30A0085
:1052980062F30A0008605A6842F480725A6006A8ED
:1052A8004EF0B0FFD4F8B429D4F8B809D368BF4990
:1052B800079D6FF38D23D3608068C0F341000144DC
:1052C80091F8CC11032900F0CF80B949B9480126DB
:1052D800294484F8AA6981424FF04006A4F8AC69D1
:1052E80000F215810E2161F38D234FF40051D36034
:1052F80051618FE6B04B94F8BA2AD3F8BC39AF485D
:1053080000218DF817108DF817209847D4F8B81990
:10531800D4F8B42994F8B23988684FF4006151611F
:10532800002B3FF463AEC3077FF560AE94F8BD3A37
:10533800012B7FF45BAE9DF81730032B7FF456AE3C
:10534800D4F8B43A9E491A6842F001021A601A6801
:1053580042F003021A600B6943F006030B6145E64D
:10536800D4F8B829954853684FF0000823F0010392
:10537800414653604EF076FD94F8A969414656B10E
:10538800904BFF2203EB860653F8045FD86BAA60A4
:105398009E428260F8D1D4F8B83988484FF0FF327D
:1053A8009A614FF00112DA610B2262F3070162F38E
:1053B8000708C3F8148019611A686FF30A121A6093
:1053C8004EF024FAD4F8B4297B4B7C48D3F8B8398A
:1053D8004FF480515161984719E6D4F8B4399A6965
:1053E80022F010029A611A6AC2F34340022802F0BE
:1053F8000F0144D0062823D09A6942F010029A611E
:1054080002E694F8B2393BB1D4F8B42A136823F011
:10541800030161F307031360D4F8B8296649536898
:10542800D1F8C019654823F0010353608847D4F8C0
:10543800B4394FF000425A61D2E5DDF80CA0C2E55C
:1054480001EB8101D4F8785A04EBC1012E68D1F838
:10545800340DC4F8746FC2F30A1202442868C4F801
:10546800780FC1F8342DC7E700214FF4007084F895
:10547800AA190921A4F8AC0961F38D2335E747F689
:10548800F0701042B8D001EB8100C2F30A1204EBAD
:10549800C00002F1030C5FEAAC0CD0F8285DD4F828
:1054A80078EA4FEA810818BF002006D00130DEF8FC
:1054B800006045F8046B8445F8D1414404EBC10110
:1054C800D1F8285DD1F8340D15440244C1F8285D9F
:1054D800C1F8342D90E7B9F1000F7FF400AE94F8CD
:1054E800B93A042B7FF4FBAD34484EF08FF93346BC
:1054F800F6E5002F7FF4A6AE94F8B92A052A7FF4C2
:10550800A1AE484601934EF081F9019B9BE62E48D7
:10551800A5F57401A1F51051814203D80D2161F35D
:105528008D23E2E629492A482944814203D20C21E5
:1055380061F38D23D9E62748A5F18C71A1F5434184
:10554800814203D80B2161F38D23CEE622492348FB
:105558002944814203D20A2161F38D23C5E62049FB
:1055680020482944814203D2092161F38D23BCE6F6
:105578001D48A5F1B771A1F55851814203D2082100
:1055880061F38D23B1E6194919482944814203D2B0
:10559800072161F38D23A8E616491748294481425B
:1055A80034BF0621052161F38D239EE610B405085A
:1055B800401E1BFF3F420F000000002080320020E9
:1055C80000ED00E094320020DFC810002013FBFE3D
:1055D80020D61300FF69180000D3CEFE40771B00C9
:1055E800C05BB3FEC091210040AC2700C01D6AFE1D
:1055F80040E13300803C36FEE09C4100704700BF2C
:10560800704700BF704700BF704700BF4FF0FF30C2
:10561800F8B5314A314D0446002304E00133082B24
:1056280002F1100215D0917A0429F7D103F581719E
:1056380005EB0111C979CF07F0D4661C116801D0B8
:105648008142EBD21C460133082B084602F11002B6
:10565800E9D1631C01D10120F8BD204D204F04F58C
:10566800817605EB06139988E1B91E49D7F8783F8A
:1056780001EB44210BB341F2180205EB0414DF6877
:10568800A058194A0023B847B8B1022821D141F2DD
:105698009C0205EB0616AB580121013BAB50B171DA
:1056A8000020F8BDD7F8782F3AB105EB041341F282
:1056B8001800926818589047D7E741F29C0205EB0A
:1056C8000616AB5809490320013BB071AB500120C5
:1056D80008700020F8BD00BF3C6B0020205B002054
:1056E800D0390020385B002011570008C06B00201B
:1056F800044B41F2B412995C09B901219954012271
:105708005A707047205B0020174B002010B503F833
:105718007A0904E00130082803F1100315D053F882
:105728000E4C8C42F6D11C78032CF3D172B10F4B7E
:1057380003EB40239A4201D0FFF7DAFF0C4B00F548
:10574800817003EB00100123837110BD084A41F2F8
:105758009C0400F58173115902EB031304200131F5
:105768009871115110BD00BFC06B0020385B00203C
:10577800205B002038B5134B00209C7B14B11D68BA
:105788008D4205D00130082803F11003F5D138BD4A
:1057980072B10D4B03EB40239A4210D0FFF7A8FFDC
:1057A8000A4B00F5817003EB00100123837138BDAB
:1057B800064B00F5817003EB0010827138BD022C96
:1057C800ECD1EDE7386B0020385B0020205B00202F
:1057D8002DE9F84F12F0020E9B4606D028B9FFF7C4
:1057E80087FF02252846BDE8F88F814C41F208253D
:1057F8006559002D5BD14FF0FF367E4FB146B0465C
:10580800B24600253B68984200F0C58097F80EC064
:10581800BCF1000F5BD0BCF1010F15D105F5817CFF
:1058280004EB0C1C9CF807C01CF0010F0CD11CF0F9
:105838007E0F09D15FEADC1340F09E80D7F808C0DC
:10584800D44501D2E246A9460135082D07F11007D3
:10585800D8D1751C04D1B8F1FF3F00F095804646B9
:1058680041F2980806F5817754F80850013544F854
:10587800085004EB061C41F21C094FEA07184CF8C3
:10588800095044F8085041F2180904EB07154FF085
:1058980000084CF80900C5F8048004EB0715AD7939
:1058A800042D9CD8DFE805F01A330F334D0041F280
:1058B800102741F20C26E759A65907FB0565A842AF
:1058C80099D3FFF715FF00252846BDE8F88F2E4627
:1058D8000135082D07F1100794D1BAE712F0010C31
:1058E80070D104EB0710D51090F80780BBF1030FB7
:1058F80065F3C71880F8078062D94FF6FF708345B3
:105908005B4628BF03469BB204EB07108380BEF1B9
:10591800000F16D004EB061303F580531833987B59
:1059280004280ED041F298054FF0040C605901305C
:10593800605141F29C05586083F80EC063590133E9
:105948006351500705D504EB0710C37943F00103F1
:10595800C371D30608D504EB0714E379C3F34502F2
:10596800013262F34603E371234B012503EB46261C
:105978000E602846BDE8F88FA8460135082D07F1C6
:1059880010077FF43FAF64E7B9F1FF3F18BF4E46F9
:105998007FF466AF97E705F5817704EB07164FEAC2
:1059A800071CB6790EB92E465AE741F298082E46DA
:1059B80054F80850013544F8085044F80C506CE786
:1059C8006346A1E70D4BD3F8783F002B3FF47BAF3C
:1059D8000949D3F804800A4A01EB46210023C0474D
:1059E80000283FF470AF04EB07140223A371F9E613
:1059F800205B0020386B0020385B0020D039002065
:105A08007D57000870B5114E3378022B104B0D46A8
:105A180007BFC4B2010AC0F3D41100F07F041868AC
:105A280082B008440023012201A9FFF7D1FE012812
:105A38000AD13378022B019B16BF53F8243033F870
:105A4800143023F070432B6002B070BD205B00203F
:105A5800206D002010B5144602070B4610D50B49DF
:105A680041F29412581C8B58834204D305D1002369
:105A78002360012010BDFFF73BFE2060012010BD10
:105A880021461846BDE81040BCE700BF205B002057
:105A98002DE9F0414268C2F308030B44B3F5007FD7
:105AA80082B004460D465ED390F91A30591C0AD0CC
:105AB800334A03F5817302EB0313FF21DA796FF39D
:105AC8000002DA71817694F91B305A1C16D02C49E1
