:020000040800F2
:1000000000200010B5C80208113F00087D7B0108E0
:100010000F3F00080D3F00080B3F000800000000E4
:10002000000000000000000000000000093F000880
:10003000073F000800000000053F0008AF3202083B
:1000400045C9020845C9020845C9020845C9020850
:1000500045C9020845C902080D3D0208213D0208B4
:100060001D3D0208193D0208153D0208354F0008E4
:10007000214F00080D4F0008F94E0008E54E00081A
:10008000D14E0008BD4E000845C9020845C9020806
:10009000D152000845C9020845C90208113D0208AD
:1000A000D945000841460008C545000869460008D2
:1000B0002D460008194600080546000845C90208F3
:1000C00045C9020845C9020845C9020845C90208D0
:1000D00045C90208394E00082D4E0008214E00087F
:1000E000093D020845C90208F53E000845C9020855
:1000F0000146000845C90208ED45000845C9020847
:1001000000000000000000000000000045C90208D7
:1001100045C9020845C9020845C9020845C902087F
:10012000A94E0008954E0008814E00086D4E00084B
:10013000594E000845C902080000000000000000F8
:1001400045C9020845C9020845C902080000000067
:10015000000000000000000000000000000000009F
:10016000000000000000000045C9020845C902085F
:1001700045C9020800000000000000000000000067
:080180000000000045C902085F
:100188001A4BF0B51A46044600261846012592F87F
:1001980006E0A4EB0E0CA71BBCF1000FB8BFCCF116
:1001A800000C002FB8BF7F42BC4502F1060205F1E2
:1001B8000105BCBF4FFA8EF61046102DE7D1002579
:1001C8001A78B2420CD144885A880C1B8A1A002C1F
:1001D800B8BF6442002AB8BF52429442C8BF18460A
:1001E8000135102D03F10603EAD1F0BD78F00208BD
:1001F800FF207047012380F849307047034B186887
:1002080018B11868431F584258417047F809002030
:10021800014B5868704700BFF8090020012070475B
:1002280070477047704720B9034B9B6808221A82B1
:1002380070470248704700BFF809002000000020FE
:10024800F1E721B9022828BF022108467047022198
:10025800FBE70A4B9968CA78042A10B50BD8084BF3
:100268004C8AD200134418B99B891B1B0B8210BD02
:1002780098682044FBE70020F9E700BFF809002050
:1002880000000020054B9968054B4A8A18B99B8DD8
:100298009B1A0B827047986A10447047F80900202F
:1002A80000000020054B9968054B4A8A18B99B8EB7
:1002B8009B1A0B827047186B10447047F80900208E
:1002C80000000020074B9B681B7803F07F03212B5D
:1002D80006D100F0DF00022814BF0220002070477A
:1002E80002207047F8090020212810B508D10F4BCB
:1002F8009B681B7803F07F03212B15D0022012E0A6
:100308002028FBD1094B9A681873127802F07F02F3
:10031800212AF3D1064B054A92680024936154823E
:1003280020469847204610BD024BF4E7F809002004
:10033800490200082F0200087047034B1A7B202A45
:1003480004BF00221A737047F8090020014B0422E9
:100358001A607047F8090020024B9A7E0AB10522FC
:100368001A607047F80900200D4B0E491A680E4BA9
:1003780092B222F0070213445B000C4A1B68C3F3D5
:1003880009034B604B689BB201335B102C3103B9F6
:10039800704752F8040B21F8020B013BF7E700BF46
:1003A800505C0040F80900201E3000202062004008
:1003B800014B0022DA667047F8090020002370B567
:1003C8004D1C1E46040FB0F1204F34BF3034373473
:1003D80001F8134005F813600133DCB2A2424FEA7A
:1003E8000010EFD870BD134B1868083310B51B68A0
:1003F800C0180AD0104B11491C680822FFF7DEFF0D
:100408000F4904222046FFF7D9FF0E498A680023C6
:1004180093720D4A012010600C4813604FF4E054A9
:100428000360146003604FF41640A1F87000106078
:100438000B6010BDACF7FF1FB0F7FF1F3A0000209C
:100448004A000020F8090020405C0040445C00405D
:1004580012B10B0E00F8013B0B0C03700B0A437032
:1004680081707047D0E90920131A584258417047E3
:100478004171704743799B070AD5436A8269D15411
:10048800436A01690133B3FBF1F201FB12334362A2
:100498007047437913F002031FBF0369D0E90920AD
:1004A80003F1FF33101A1DBF1840C0B2181A1846BE
:1004B8007047437913F001031FBFD0E90732C068C2
:1004C8009B1A00F1FF3014BF18401846704710B54A
:1004D800437913F0010301460DD0FFF7EAFF60B13D
:1004E8000A6A4B69CC689B5C0132B2FBF4F004FBEE
:1004F8001022DBB20A62184610BD0346FBE790F8EB
:100508005F3230B53BB990F85D1290F85E32012445
:10051800DAB2914200D830BDB0F8665204FA03F25C
:100528002A43A0F866220133F2E74378007840EACC
:100538000320094B10FB01F1994208DBB1F5000FCC
:1005480007DA0029B8BFFF31081200B27047034824
:10055800FBE747F6FF70F8E701FF7FFF0080FFFF2A
:100568002DE9F04FDFF8848185B0CDE90212B8F8A3
:100578008220D8F87440B8F87E601302B8F880205A
:10058800E41A4FF0000E6EEB0E0EA2FB040102FB04
:100598000E11C209B8F87C0042EA4162CD1101048B
:1005A8005218A6FB040106FB0E114FF00003B8F821
:1005B8007A6043EB0505030AB8F8840043EA01634F
:1005C800F6039B194FEA212CA0FB04674FF00001AA
:1005D80000FB0E774CEB010CF10D41EA472111F5B8
:1005E800FA604FEAE758009048F100000190DDE911
:1005F8000067B6F5FA6F77F1000055DAA1FB0167DD
:1006080001FB08F007EB40070520A6FB00AB00FB49
:1006180007BB4FEA5A0040EACB70121A4FEA9A0019
:100628004FEA6B0640EA8B70DDE9009A65EB060538
:100638001B1A4FEAAB066CEB060C2B4E4FF0FF373C
:10064800B1457AEB070023DA40F6AC5008184FF0B2
:10065800000148EB010800FB08F8A0FB000101EBD2
:100668004801CE00C700C71B46EA507661EB060674
:100678004FF00B08D21946EB0505A0FB086708FBED
:100688000177710841EAC77178105B1A6CEB000CAE
:1006980004FB0EFEA4FB040101EB4E01C40F44EA67
:1006A80041040099091B0091029999B10F49D1F8A9
:1006B8008840A4FB030104FB0C11430D43EAC1234A
:1006C8009A1A4FEA6154029B64EB0505D20B42EA81
:1006D80045421A60039B13B11A46009B1360012020
:1006E80005B0BDE8F08F00BF24FAFFFFF80900202D
:1006F8002DE9F74F704D9146D5F88C40B5F890200C
:10070800C2EB24135200C2EBE402B5F992405B43FA
:100718006243B5F994401B135C43A41304EBE22431
:10072800B4F5FA3E8846AEFB0E12CDE900124FEA48
:10073800E473019AC5F8A84043F1FF3C0EFB0CF3A3
:1007480002EB4303B5F99820019302FB0CF1D31790
:100758000EFB0311A2FB0E230B44190341EA1251AD
:10076800019E1003B5F99A2002FB06FA009ED317E2
:1007780006FB03AAA2FB062353444FEA122A4AEABD
:10078800036AB5F896204FEA232B1AEB00004BEBCF
:10079800010B00304BF5004BA0FB020102FB0B11D3
:1007A8004A10CB1752EA030100F08480B5F9A00083
:1007B800019E00FB06F7009EC11706FB0177A0FB10
:1007C8000601B5F99E60394406FB0CFCF7170EFBD1
:1007D80007CCA6FB0E6767444FEA474E4FEA464CE4
:1007E8001CEB000C4EEAD63E4EEB010ED5F8AC10D1
:1007F800B5F99C60C1F58011CF174FEAC77A4AEA6C
:10080800510AC807002111EB0C014FEAC60747EB54
:100818000E0E40F63546401A6AEB0E0AA0FB06019A
:1008280006FB0A112BF062FEB5F9A6204E13470B02
:1008380047EAC14702FB06FCD31707FB03CCA2FB20
:1008480007236344564307FB0366A2FB072333448D
:10085800560E46EAC316B5F9A42036184FEA636760
:1008680041EB0707D317514300FB0311A2FB0023F9
:100878000B44D10C41EA4331D814761840EB0707F2
:10088800B5F9A200320A42EA076203011344B8F13B
:10089800000F02D01B0AC8F80030B9F1000F05D0CC
:1008A80004EB840480342412C9F80040012003B00A
:1008B800BDE8F08F0023EAE7F8090020012070471F
:1008C800012070474FF40063838170474FF4006341
:1008D800838170474FF400638381704730B5446863
:1008E80002692368022101FA02F2134218D08369CF
:1008F80000211974D9688868016821F00101090488
:10090800090C016059684B7908680649C56801EB0C
:100918004301B1F86030DB439BB22B40C360626097
:1009280030BD00BF78F00208426B70B5D569A906E2
:10093800044605D5C36AD3B1908C216B80B2984721
:100948002A060ED5A26A616A636B8A421CD0511CC2
:10095800A069A162825C1A852369994201D30023A8
:10096800A3622B0742BF636B08221A6270BDE1695C
:10097800928C40694E1CD2B2E6614254E169E26849
:10098800914228BFE361DBE71A6822F080021A600F
:10099800E7E790F83420034602F0FF0012B1002286
:1009A80083F8342070470123037750F8043C0BB1D7
:1009B800183818477047481E83B2032B17D80C4BBA
:1009C80093F8B0209AB10B4A02EB8002D3F8C40026
:1009D800926E82420BD3D3F8C80082429FBFC3E90C
:1009E8003621D3F8B82042F00202C3F8B820704785
:1009F800F809002078F0020830B54C1EE3B2012B4C
:100A080020D8501EC3B2072B1CD80F4B93F8B050F8
:100A1800C5B100EBC4000D4C04EB4000D3F8BC405A
:100A2800B0F87800A0420DD3D3F8C040A04209D84E
:100A3800C3F8D400D3F8B800C3E9331240F001007A
:100A4800C3F8B80030BD00BFF809002078F00208EC
:100A580028B1044BD3F8100108B193F8B00000F0A6
:100A680001007047F809002070B5FFF7F1FF00B3E7
:100A7800104BD3F8D420D3F8CC40D3F8D0508A60A8
:100A8800D3F8DC20D3F8D8300B610B4B0C6003EBA8
:100A9800840603EB8503D6F898608E61074ED3F879
:100AA800A430A45DCA6030324D600C75CB6181F80A
:100AB800202070BDF809002078F0020810390308DA
:100AC80010B5FFF7C5FF30B1034BD3F8DC400C700D
:100AD800D3F8D830138010BDF809002008B5FFF707
:100AE800B7FF18B1024BD3F8D4300B8008BD00BF54
:100AF800F809002008B5FFF7ABFF08B100230B7019
:100B080008BD08B5FFF7A4FF18B1024BD3F8DC30D5
:100B18000B7008BDF809002010B5FFF799FF30B138
:100B2800034BD3F8CC400C70D3F8D030137010BD01
:100B3800F80900200520704731B9044AD2F8243159
:100B480043F00403C2F82431704700BFF8090020BD
:100B580048B1054BD3F8840128B193F81401022851
:100B680094BF002001207047F809002070B5FFF7F6
:100B7800EFFFF8B1104BD3F84021D3F83441D3F844
:100B880038518A60D3F83C21D3F844310B610B4BC0
:100B98000C6003EB840403EB8503D4F8C840CA60F7
:100BA8004D602678D3F8E0300E7530328C61CB6119
:100BB80081F8202070BD00BFF809002078F00208F5
:100BC80010B5FFF7C5FF30B1034BD3F83C410C70AB
:100BD800D3F84431138010BDF809002008B5FFF799
:100BE800B7FF18B1024BD3F840310B8008BD00BFE6
:100BF800F809002008B5FFF7ABFF18B1024B93F8CE
:100C080054310B7008BD00BFF809002008B5FFF784
:100C18009FFF18B1024BD3F83C310B7008BD00BFE1
:100C2800F809002010B5FFF793FF30B1034BD3F854
:100C380034410C70D3F83831137010BDF809002016
:100C480008B5FFF785FFE0B1D9B10E4BD3F85821AD
:100C5800914216DC01F10042013AD3F85C0130F808
:100C68001200D3F83021904294BFC3F84401C3F86E
:100C78004421D3F82421C3F83C1142F00202C3F8FE
:100C8800242108BDF809002010B5FFF761FF08B35B
:100C9800481EC3B2042B1ED8531EDCB2072C1AD828
:100CA80003EBC0030D4800EB4303B3F804010C4BFE
:100CB800D3F82841A0420DD3D3F82C41A04209D83B
:100CC800C3E94D12D3F82421C3F8400142F00102D0
:100CD800C3F8242110BD0020E9E700BF78F002081E
:100CE800F80900200420704710B52B4B93F87121A8
:100CF800722A1C4603D0762A3DD000202BE0B3F898
:100D08007201B3F87421B3F87611C3F82801C3F857
:100D18002C21C3F83011F0B19042EED2B1F5487FE2
:100D28001E4A0AD31E49C3F85C1105200C31C3F8CA
:100D38005801516682F85A000CE0B1F5167F0BD3C2
:100D4800184BC4F85C3105210C33C4F858115366AC
:100D580082F85A10012010BDB1F5C87F04D312499A
:100D6800C3F85C110420E1E7C729E9D90F49C3F8A2
:100D78005C110320DAE7B3F87221C3F84821B3F80D
:100D88007421C3F84C2193F87721003A18BF012247
:100D980083F854210220DEE7F80900200000002033
:100DA800CCF10208F0F1020814F2020838F2020845
:100DB800034BD3F88821C3F8182183F8140170472E
:100DC800F809002028B1034B93F96E00003818BFCA
:100DD800012070470000002010B5FFF7F3FF38B17D
:100DE800154B93F86F20D20703D5B3F870300B80FA
:100DF80010BD93F96D30002B1A46B8BFDA1DC2F347
:100E0800C702042A15D85C4204F0070403F007035C
:100E180058BF6342DBB2072B0BD801320133D2B281
:100E2800DBB203EBC203054A02EB4303B3F8F2302B
:100E3800DDE70023DBE700BF0000002078F00208B0
:100E480008B5FFF7BFFF50B1054B93F86C20012A96
:100E58009DBF93F86F30C3F340030B70002008BDAB
:100E68000000002038B5FFF7ADFF78B10D4A92F8C1
:100E78006C3092F96E40012B11D192F876307832AD
:100E8800013B5D1C03D10023DBB20B7038BD02EBC4
:100E9800C305B5F90450AC42F6DA013BF1E7E3B219
:100EA800F3E700BF0000002037B50D460DF107013C
:100EB8001446FFF7D7FF48B19DF807302B7023B1D0
:100EC800034A02EBC303B3F87030238003B030BD8C
:100ED8000000002010B5FFF775FFB8B10D4C94F96C
:100EE8006D3094F86F40E40711D4002B1C46B8BF4E
:100EF800DC1DE4100134E4B20C70594201F0070122
:100F080003F0070358BF4B420133137010BD002490
:100F1800F2E700BF0000002073B50C460DF1010296
:100F28000DF102010546FFF7D5FF10B9002002B008
:100F380070BD01A92846FFF74FFF0028F6D00DF134
:100F480006020DF103012846FFF7AEFF0028EDD099
:100F5800BDF806209DF8021022610D4A9DF8015047
:100F6800216002EB8101BDF80430D1F8C810A360FC
:100F780002EB85029DF80330E36065600E78D2F8D5
:100F8800E02026753033A161E26184F82030CEE795
:100F980078F002080320704770B50A4A92F88C313D
:100FA80006255E1CB6FBF5F405FB146492F88D511A
:100FB800AC421EBF02EBC30382F88C41C3E9640153
:100FC80070BD00BFF8090020002230B50446104665
:100FD800914200DC30BDA35C0825584010F0800F1A
:100FE8004FEA400318BF83F0D503013DD8B2F5D1CD
:100FF8000132EDE710B5FFF7E5FE50B349B3154CE4
:1010080094F876308B4224D394F86C300139022B53
:10101800C9B20AD0032B15D0012B08D104EBC101AA
:10102800B1F87C3084F8A43001E084F8A4100521DC
:101038000948FFF7C9FF062184F8A500BDE810405C
:101048000548A9E704EBC10191F87C3063F07F0300
:10105800E8E710BD00000020A00000200139C9B257
:10106800042910B515D8013AD2B2072A11D8094C6B
:1010780002EBC10204F1A600052184F8AA20FFF7BB
:10108800A3FF062184F8AB0004F1A600BDE81040D8
:1010980082E710BD0000002010B50D4C40F008029A
:1010A80084F8B02094F86C20022A06D9420704D5A7
:1010B80083071CBF012384F8743005210548FFF716
:1010C80083FF062184F8B100BDE81040014863E7BA
:1010D80000000020AC00002010B5FFF773FE0028C8
:1010E80033D01A4C94F86C307BB351B3022B2CD903
:1010F80094F8743093B969B180230521144884F8B1
:10110800B630FFF761FF062184F8B700BDE810404C
:101118000F4841E70420BDE81040BDE7002914BF8F
:101128000020042094F86F301A0748BF40F00200EE
:101138005B0703D40029EED00028ECD140F0010071
:10114800E9E7022BD4D80420ECE710BD000000200A
:10115800B200002007B532238DF800300368CDF8BF
:1011680001308388ADF80530034B6846D3F8C031A9
:10117800984703B05DF804FBF8090020094BD3F841
:10118800C40110F080000BD0D3F8C821920706D410
:10119800D3F8CC0180F00800C0F3C00070470120EC
:1011A800704700BFF809002007B510238DF80030FC
:1011B800054BADF80100D3F8C031CDF803106846EF
:1011C800984703B05DF804FBF80900200C4AD2F8F0
:1011D800E43110B5198100219981D2F8DC115960E8
:1011E80019684C1C1C600870D2F8E431D2F8DC2174
:1011F8004FF6F67199811968C3E9002110BD00BF47
:10120800F8090020064B93F8FB21012A03D1054A6F
:10121800C3F828227047022A0CBF034A034AF7E79B
:10122800F8090020B8000020C2000020CC000020EF
:1012380070B50028124D134EB8BF40423C22B0FB97
:10124800F6F305FB030002FB00F494FBF6F20E4EE6
:1012580096F8F2619BB290B27EB903EB830303EB7D
:10126800830300EB83031BB20B8005FB02424FF4A0
:101278007A7392FBF3F24A8070BDC3EB0313F0E775
:10128800806967FF80969800F809002030B5ADF5B1
:10129800815D81B00023CDE902330DF581531446F9
:1012A80004AD01930A46FD2301466846ADF80830AF
:1012B800009529F072FA009B022269462046CDE982
:1012C800005310F077FA0DF5815D01B030BD134A77
:1012D80090F9103070B50C46142101FB0323054624
:1012E800D3F8D86083689A0703D4406922F036FAA5
:1012F80000BFD4E901232168304622F0AFFDD4E9CC
:101308000423E168304622F0A9FDAB689B0703D4AB
:1013180000BF686922F072FC012070BD0000002047
:1013280038B504460D460C222521006822F0A0FE9F
:1013380020680A22262122F09BFE2A462068632183
:1013480022F096FE20688122272122F091FE0120BA
:1013580038BD10B5044600222121006822F088FE1D
:101368002068FC22202122F083FE206840222421CC
:1013780022F07EFE20680C22232122F079FE2068CC
:101388000022222122F074FE012010BD10B5012296
:1013980004460B21006822F06BFE20B120681D2254
:1013A800092122F065FE00F0010010BD006801224D
:1013B800482122F05DBE00680122582122F058BE63
:1013C80008B53122F421006822F052FE012008BD40
:1013D80010B5012204461021006822F049FE48B1E8
:1013E800142021F055FF2068A022BDE810401121EB
:1013F80022F03EBE10BD10B57822044600210068D8
:1014080022F036FE052021F043FF2022012120682A
:1014180022F02EFE052021F03BFF00220221206849
:1014280022F026FE642021F033FF012010BD13B501
:10143800044600680379022B0CBF432103210623CD
:101448006A4622F0E1FD18B9E086A06302B010BD3B
:101458009DF800209DF8013043EA0223E3869DF8B9
:1014680002209DF8033043EA022363879DF8042095
:101478009DF8053043EA02232387E7E707B50323EE
:1014880001AA002122F0C0FD9DF805309DF8040056
:101498001B0243EA00439DF80600184303B05DF8B9
:1014A80004FB08B50068FFF7E9FF024BC3F88800A2
:1014B800012008BDF809002008B50068FFF7DEFF25
:1014C800014B5867012008BDF809002013B5062311
:1014D80000686A46F72122F097FD144BE8B19DF8A1
:1014E80001109DF800209DF80340090141EA0231EE
:1014F8009DF8022041EA12119DF80420C3F8AC10AF
:10150800120142EA04329DF8054042EA1412C3E986
:101518008B12C3F88C2002B010BDD3F82C22C3F86C
:10152800AC20D3F83022C3F88C20F4E7F809002067
:101538002DE9F3470669C36805460C461E404FF07F
:10154800004901F14C0701F1340816B902B0BDE8B1
:10155800F087B6FA86F329FA03F2D2432A611640D5
:101568001B3B002C40D0042BEFD8DFE803F03934C4
:101578002E280300E368D5F82CA02BB19B681BB17B
:101588001FFA8AF1201D9847636A33B19B6823B11B
:101598001FFA8AF104F11C009847E36B2BB19B6892
:1015A8001BB11FFA8AF140469847636D002BCCD0D7
:1015B8009B68002BC9D01FFA8AF1384603E0E3681C
:1015C800696B5B68201D9847BFE7636AA96B5B6816
:1015D80004F11C00F7E7E36BE96B5B684046F2E750
:1015E800636D296C5B68E8E7042B06D8DFE803F035
:1015F8000D0B09070300EB6A0193019BA5E76B6BD1
:10160800FAE7AB6BF8E7EB6BF6E72B6CF4E7F8B5AA
:10161800134C0546D4F8340203791E3B012B02D93A
:10162800002121F0B4FE0F4F0026AE42D4F8340258
:101638000FDB002121F0ABFED4F88831C4F8583212
:101648000023C4F85C32B4F860320133A4F8603285
:10165800F8BD17F8011B21F09AFE0136E5E700BF37
:10166800F8090020300C002038B5144C94F88D315E
:1016780094F88C219A421AD004EBC303D3E964206E
:1016880004F50E710023984212DC9378C4F87002B6
:101698005B0884F87432FFF7BAFF94F88D3106219D
:1016A8000133B3FBF1F201FB123384F88D3138BDFD
:1016B800D55C01F8015B0133E5E700BFF8090020BC
:1016C800F8B500220D464FF6FF7302398A4210D34F
:1016D80046194354094F1B0A06F8013C044614F8FE
:1016E800011BD7F8780221F052FEA642F7D1E8B2E2
:1016F800F8BD845C1B1B9BB20132E7E7F8090020A8
:1017080007B50B1408228DF8043060F05F000B0E4B
:101718008DF80100ADF802108DF805301146002350
:1017280068468DF80020ADF80630FFF7C9FF03B012
:101738005DF804FB07B5062360F05F008DF8010033
:10174800ADF802100022194668468DF80030ADF851
:101758000420FFF7B5FF03B05DF804FB014610B5A0
:101768000A4C5E29D4F87C0209D15D2121F00FFED4
:101778003E21D4F87C02BDE8104021F008BE5D2966
:10178800F9D121F004FE3D21F3E700BFF80900205C
:10179800F8B5114D95F8813204460F461646CBB977
:1017A80085F8822225218C22006822F061FC3A46C5
:1017B8002621206822F05CFC46F080022721206860
:1017C80022F056FC21F020FAC5E9A201012085F893
:1017D8008102F8BD0020FCE7F809002010B5074C8D
:1017E80094F8810240B121F00FFAD4F88832C01A77
:1017F800C0F5FA5020EAE07010BD00BFF8090020DB
:101808002DE9F3411F4E204F3446736873BB75684A
:1018180094F8901200226018D3B29D4202F101029E
:1018280026D863685B1B6360D4F80480294484F875
:101838009012B8F1000F12D14021032029F0DEFCEC
:101848003B6823F4804323F070039BB283F4405336
:1018580043F4004343F080033B6084F89082002DFA
:10186800D3D09DF8040002B0BDE8F0810125CFE790
:101878000DF1080C9C44034493F82C300CF8043CFC
:10188800CAE700BFF80900200C5C00402DE9F84FBA
:10189800DFF888A1584EDAF80830584DDFF880B1E3
:1018A800DFF88081DFF880910027C0225A725F81BB
:1018B80037602B6803EA0B0343F400739BB22B6079
:1018C8002B6803EA08039BB248F2800483F01003F4
:1018D80023432B6031684A4B89B221F007010B443E
:1018E800590040230B60316889B221F0070101F1EA
:1018F800005101F54051490080200860296821F411
:10190800F8710905090D214329603E49384691F8C7
:10191800541129F073FC296801EA090189B281F49C
:101928004051214329603849086800EA0B0080B219
:10193800086035683548ADB225F0070528444000F1
:10194800C02202600A68324D02EA080292B282F0AE
:10195800200222430A600A6802EA0902224392B27C
:101968000A604A6802EA0B0242F4C06292B24A6014
:101978003068284A80B220F00700024452004FF431
:10198800807010604A6802EA0902224392B24A60F3
:101998004A6802EA080292B282F0200222434A60B0
:1019A8002A6802EA0B0B1FFA8BF22A6031681A4A7E
:1019B80089B221F007010A44520040234FF488718C
:1019C80011600320194629F019FC2B6803EA090362
:1019D8009BB283F4405323432B602B6803EA080827
:1019E80044EA0804A4B22C60384629F0EDFB012330
:1019F800CAF80030BDE8F88F505C0040005C004039
:101A08000430002000000020045C00400830002062
:101A18000C5C0040103000201C300020F809002029
:101A28008F89FFFFBF8FFFFF8FBFFFFF202938B5CA
:101A38000C4621D8F1B1631C104AA1B25B1030F8F2
:101A4800025B22F8045B013BF9D1012029F096FCE6
:101A58000B4AD36E2344D3660A4A136823F4E0433F
:101A680023F040039BB283F0300343F4004343F078
:101A780080031360204638BD2024DCE780610040E5
:101A8800F8090020045C0040F8B590F8486000238D
:101A980080F84830FEB1134D2A68F2B12A68052A49
:101AA8001DD1D5F8887100F13404EB6E8BB931463D
:101AB8002046FFF7BBFFD5F88831DB1B322BA6EB9E
:101AC8000006044401D8002EEFD1B6FA86F040098A
:101AD800F8BD0020EFE70120FAE71046F8E71846BE
:101AE800F6E700BFF8090020002280F84920CBE77C
:101AF80090F84820531C0244DBB280F8483082F842
:101B0800341090F849200AB1132B00D9BCE770476C
:101B1800F8B50D461446FEF771FB90B10A4ED6F89B
:101B28008871002C0DDDF36E63B921462846FFF756
:101B38007DFFD6F88831DB1B322BA4EB000405446B
:101B4800EFD9F8BD0020F4E7F80900201FB50446D6
:101B5800002300688DF807300DF10702272122F0D5
:101B680022FA68B19DF8070010F0080008D0206834
:101B7800062302AA282122F047FA18B9E086A063B2
:101B880004B010BD9DF809209DF8083043EA0223EF
:101B98001BB2002BB8BF03339B109DF80B20E386C4
:101BA8009DF80A3043EA02231BB2002BB8BF033367
:101BB8009B109DF80D2023879DF80C3043EA0223E3
:101BC8001BB2002BB8BF03339B106387D8E71FB540
:101BD80000210446C18681630DF10702006822F0E6
:101BE800E2F908B39DF8073013F008031ED0206807
:101BF800062302AA012122F007FAA8B19DF80820BD
:101C08009DF8093043EA0223E3869DF80A209DF8EF
:101C18000B3043EA022323879DF80C209DF80D30F2
:101C280043EA02235B42638704B010BD1846FBE712
:101C380030B5002585B00446C58685630DF10702D9
:101C48000068062122F0AFF900B39DF8073013F0C1
:101C580004031DD02068062302AA294622F0D4F9DD
:101C6800A0B19DF809209DF8083043EA0223E386D5
:101C78009DF80B209DF80A3043EA022323879DF83C
:101C88000D209DF80C3043EA0223638705B030BD70
:101C98001846FBE738B504460D46FFF79FFD0028B8
:101CA80002DDC11721F0E0FA064B2068002283F814
:101CB8008122492193F882322A4622F0A5F901208F
:101CC80038BD00BFF80900202DE9F743394CD4F896
:101CD8009232C0F83630B4F89632438794F880329E
:101CE800012B064600F1360704F29228A1460CD0D3
:101CF800022B28D0B3BB01220221FFF749FD0123A3
:101D080084F8803294F8985210E0FFF767FD94F851
:101D1800985258B969463046FFF7BCFF18B19DF88C
:101D280000309B0706D1002389F88032284603B08B
:101D3800BDE8F083072203213046FFF729FD02237F
:101D480084F88032F2E7FFF749FD0028DAD16946C6
:101D58003046FFF79FFF9DF80620054610B112F0A8
:101D6800080205D0002589F8805289F89852DDE7E5
:101D7800B4F99A126846FEF7D8FB4042B4F99C12AF
:101D8800F0860DF10200FEF7D0FBB4F99E12308701
:101D980001A8FEF7CAFB404270873B68C4F892323C
:101DA800BB88A8F80430012384F8802284F898328C
:101DB800BCE700BFF809002010B500680C4622F007
:101DC8008DF9837863B1827AC37A43EA02231BB21E
:101DD800222293FBF2F303F26D132380012010BD3E
:101DE8001846FCE710B50446006822F077F98378B6
:101DF80083B10279437943EA0223E3818279C37983
:101E080043EA02232382027A437A43EA0223638263
:101E1800012010BD1846FCE770B506680546304637
:101E280022F05CF90E230446021D3B21304622F0C5
:101E3800EBF8A07070B1227B637B43EA02232B840A
:101E4800A27BE37B43EA02236B84227C637C43EA24
:101E58000223AB8470BDF8B5284C2546D4F8100190
:101E680021F092FA002847D094F80C310BB10020E9
:101E780042E0D4F8100121F081FAD4F808313BB9D6
:101E88000F28EBD10123C4F8083184F8F800E5E7FE
:101E98000F2B9FBF5A1C1B19C4F8082183F8F800A0
:101EA800D5F80831102BD9D195F8F8300F2B15D16A
:101EB80095F8F93095F8E9209A420FD195F807215D
:101EC80062B90F4995F80661084611F8017B01329D
:101ED8003B440C2ADBB2F8D19E4205D0002385F89A
:101EE8000C31C5F80831B9E706492DF020F800286B
:101EF800F4D0012085F80C01F8BD00BFF8090020D6
:101F0800F20A0020E20A002070B5284C2546D4F8D1
:101F1800840121F039FA002847D0D4F8840121F04F
:101F28002DFAD4F880313BB90F28F0D10123C4F839
:101F3800803184F87001EAE7012B10D1A0F1720317
:101F4800DBB2012B01D9762805D10223C5F88031EF
:101F580085F87101DBE70023C5F88031D7E70F2B3F
:101F68009FBF5A1C1B19C4F8802183F87001D5F84B
:101F78008031102BCBD195F87E010D490D2200231D
:101F880011F8016B013A3344DBB2F9D19842E2D13E
:101F980095F87F31002BDED106481022A0F1100100
:101FA8002CF0C5FF0028D6D0012070BDF80900200C
:101FB800690B0020680B002038B5174C0F2384F8F4
:101FC800E83084F8E90004F1EA02F9B10B68C4F8D2
:101FD800EA304B6853608B689360104A002312F80C
:101FE800011B013308440C2BC0B2F8D1002584F83A
:101FF800F6000B49D4F8100184F8F750102221F0AC
:1020080001FA84F80C51C4F8085138BDC4F8EA1034
:1020180051609160E1E700BFF8090020E20A002062
:10202800E00A002030B58E4CD4F8A03240F20712F6
:10203800934285B073D0B3F5847F0BDAC3B3F52B25
:1020480048D0D4F8A032002BBCBF0023C4E9A83381
:1020580005B030BD40F20D12934200F0B28040F25C
:102068001B129342EDD194F80C31002B00F0D9806B
:102078000021B4F8FA30C4F8B410D4F8D410B4F885
:10208800FC20C4F8E0308B42C4F8E42040F0E18042
:10209800D4F8D8309A4205D0D4F8B83043F00203C7
:1020A800C4F8B83094F8B030002B00F09C8029E0D8
:1020B80084F8B03000217220FFF77EFFD4F8883111
:1020C800C4F8A8324FF0000CFA23C4E9ABC3F523D7
:1020D800C4F8A03294F80C31EBB3B4F8FA30C4F871
:1020E800BC30B4F8FC30C4F8C0300023C4F8C430A5
:1020F800B4F8FE30C4F8C830012384F8B0300023A7
:10210800C4E92D33D4F88831C4F8A83200254FF437
:102118007A73C4E9AB5340F20713C4F8A032D4F879
:10212800B85075BBD4F8A822D4F888319B1AD4F8D3
:10213800B022934285DD29467620FFF73DFFD4F88B
:102148008831C4E9AA35FA23C4F8B03240F21B1327
:10215800C4F8A03287E7FFF77EFE48B9D4F8A82272
:10216800D4F888319B1AD4F8B02293427FF769AF2C
:1021780094F80C31002BB0D194F8B030002BBED1BC
:1021880098E715F0010334D0B4F8D430002501A93C
:102198004620CDE901550395ADF80430FFF70CFF53
:1021A800D4F8B83023F00103C4F8B830D4F8883133
:1021B800C4E9AA35FA23C4F8B03240F20D13C4F8C2
:1021C800A032D4F8A822D4F888319B1AD4F8B022C7
:1021D80093427FF736AFD4F8B430022B7FF762AF63
:1021E800002384F8B0304FF0FF330022C4E9A8324E
:1021F80027E715F0020511D0B4F8D820039301A9F8
:102208005020CDE90133ADF80420FFF7D5FED4F80E
:10221800B83023F00203C4F8B830DCE7C4F8B8508B
:10222800D9E7FFF718FE48B9D4F8A822D4F88831BE
:102238009B1AD4F8B02293427FF703AF94F80C317D
:10224800002B7FF415AFD4F8B4300133C4F8B430A0
:10225800C1E7D4F8B83043F00103C4F8B83017E741
:10226800F809002038B5114B0022C3E959220F2480
:1022780083F86041A3F86211C3F86C2183F8610107
:102288000D2503F261111C4611F8013B013D1A446A
:10229800D2B2F9D184F86E210549D4F8840110220C
:1022A80021F0B0F8C4F8805138BD00BFF80900200B
:1022B800580B002010B5544CD4F88431002B58D05A
:1022C80094F81431062B54D8DFE803F0040C1228D4
:1022D800545C66000023C4E948330120BDE810407F
:1022E800FEF766BD72200021FFF7BCFF0220F5E76C
:1022F800FFF70AFE40B1FEF7F7FC01280CD10023D6
:10230800C4F820310520E9E7D4F88831D4F8182139
:102318009B1AB3F57A7F2CD90020DFE7D4F8243153
:10232800FBB1590709D523F00403C4F8243100216F
:102338007320FFF797FF0420D0E7DA0707D523F0CB
:102348000103B4F84011C4F824314620F1E7980796
:102358000FD523F00203B4F84411C4F824315020F7
:10236800E7E7D4F88831D4F81C219B1AB3F5FA6F43
:10237800C8D810BDD4F88831D4F818219B1AB3F501
:102388007A7FF5E776200021FFF76CFFD4F88831D3
:10239800C4F81C310620A1E7FFF7B6FD20B30023DF
:1023A800C4F82031FEF7A0FC0228ABD1D4F82431C0
:1023B800D90709D4D4F84811D4F8402191421CBF58
:1023C80043F00103C4F82431D4F824319A0709D41E
:1023D800D4F84C11D4F8442191421CBF43F00203B5
:1023E800C4F82431032079E7D4F88831D4F81821C7
:1023F8009B1AB3F57A7FBCD9D4F820310133032B6B
:10240800C4F8203188DC7DE7F80900202DE9F7437E
:102418004E4C94F8B83281468846002B59D1D4F8EE
:10242800BC62002E55D094F8C23284F8CA32B4F88F
:10243800C432A4F8CC32D4F8CC31B4F8C022A4F811
:10244800C82213F0040794F8C62294F8C05284F8FE
:10245800CE220BD194F8D41241B9012A03D0022A12
:1024680004D11A0702D4012384F8CA3294F8043339
:10247800012B31D0022B50D013B93368DB690BB96B
:1024880000250FE00DF10701304698470546002862
:10249800F6D094F8CA129DF807308B42F0D0304637
:1024A8000BF012FCD4F8CC315B0700D535B133689A
:1024B800196819B14A4643463046884794F80433A8
:1024C80003220133B3FBF2F202EB42029B1A84F8B7
:1024D800043303B0BDE8F083002DE3D0002FCFD143
:1024E80033689B69002BCBD00DF107020DF1060173
:1024F8003046984705460028C2D094F8C8129DF87F
:10250800063094F8C9228B4203D19DF807309342D4
:10251800B6D030460BF0E6FBC4E7002FB0D10DF182
:10252800070130460BF0AAFB0028A9D094F8055300
:10253800002DA5D09DF8073084F80573002B9FD097
:10254800394630460BF0A1FBACE700BFF809002084
:10255800022803D0431E584258417047054B93F850
:10256800F02112B1102014F02DBCD3F8CC01C0F327
:1025780080007047F8090020016821F01F0202F16D
:10258800804202F5823270B50123146801F01F0100
:1025980003FA01F124EA0101116002682A4C22F0D1
:1025A8001F0502F01F02295903FA02F221EA02026A
:1025B8002A510179026801F1804122F01F0401F5D6
:1025C800823102F01F02655803FA02F22A43625070
:1025D80002681E4D22F01F0402F01F02615903FA1F
:1025E80002F221EA020262510268194C22F01F0627
:1025F80002F01F02315903FA02F221EA02023251B3
:1026080041790268102912D122F01F0102F01F023D
:102618004E5903FA02F232434A51026822F01F016E
:1026280002F01F020859934003430B5170BD01F19A
:10263800804122F01F0001F5823102F01F02445848
:10264800934023434350F1E7040401400804014048
:102658000C04014010B528F00BFF4FF4302401287A
:1026680006D10CB9052010BD28F002FF013CF6E7A1
:10267800002C08BF0520F6E72DE9F04790B0DDE90A
:10268800184A0D460746904600213C2201A8994663
:102698001A9E2CF074FC344B02938DF80450CDF83C
:1026A80034A0002D55D0022D55D0032D55D0042D22
:1026B80055D103232D4A02EB430393F8E5318DF8F6
:1026C80005302B4B0394D3F8882106971444012234
:1026D800CDE904468DF831201E46B8F1000F06D02A
:1026E8004A46414607A82CF05FFA8DF8309096F8D4
:1026F8004AE30023BEF1010F0E931FD80DF1040A1F
:10270800BAE80F0096F849C33C2404FB0C6404F5AE
:1027180053740FC4BAE80F000FC4BAE80F000FC40F
:102728009AE80700BCFA8CFC0EF1010E4FEA5C1C1B
:1027380084E8070086F84AE386F849C33B6883B112
:102748004B4642462946384610B0BDE8F0470FF0E0
:1027580013B92B46AEE70123ACE70223AAE700230F
:10276800ADE710B0BDE8F087FE0C002078F0020855
:10277800F80900204209012300F01F00022A03FA89
:1027880000F008D0032A0BD09A420DD1074B5A69A2
:10279800104358617047054B9A6910439861704718
:1027A800024BDA691043D861704700BF001002403D
:1027B800031EB8BF2D2210B5B8BF58420C46AEBF95
:1027C8000A2201F8012B0A2226F034F800230370AC
:1027D800204610BD2DE9F04FC34C2DED048BD4F8E5
:1027E80034328BB0002B00F022829FEDBD8BBF4DA1
:1027F800D4F8340220F0C8FD18BBB4F86022092AC6
:102808000CD9B4F8621264234B43B3FBF2F3452BA3
:1028180040F38281A4F86002A4F8620294F8286464
:10282800012E00F0A581022E00F00682002E40F055
:10283800E681AF480521FEF7AFFB012384F8283471
:10284800DDE1D4F8340220F099FD94F8C8338046CD
:10285800052BCDD8DFE803F0030914182C39AA2872
:10286800C6D1012384F8C833C2E7552801D1022311
:10287800F8E7B4F864320133A4F864320023F1E7CE
:1028880084F8C9030323EDE7132884F8CA03C4F8BE
:10289800E40305DDB4F866320133A4F86632EDE7E7
:1028A80008B90523DEE70023C4F8E8330423D9E791
:1028B800D4F8E833E218013382F8CB03D4F8E423E0
:1028C800C4F8E833934293D1EBE7D4F8E47389482A
:1028D800023779B2FEF778FB804594F8C96340F077
:1028E800138194F87432B34219D1002384F87432F6
:1028F800731E102B00F20281DFE813F01D00800028
:102908008000DB0080000001000100011D000001C3
:102918000001000100010001000100011D00092E55
:1029280001D0112E01D1012BDFD0B4F86A32013366
:10293800A4F86A32DCE7062F60DD012E03D0092EE9
:102948000CBF0226032694F8CD2394F8CE1394F8EE
:10295800CF9394F9CB3394F9CDB3019349EA012984
:10296800900785F86D3085F86C6094F8CC3385F85D
:102978006FB0A5F8709006D512F00C0F14BF0122A5
:10298800002285F87420032E40F08F80092F35DD52
:1029980094F9D183B8F1050FA8BF4FF0050828EACC
:1029A800E8785FFA88F385F8763085F85E314FF07D
:1029B800000AB2EE049A4FFA8AF7474524DB00234F
:1029C80094F8D07385F86E3019461A464245104679
:1029D80060DB0BB185F86E1094F805340C2B0DD123
:1029E800642303FB06B6019BC4F80C3495F96E30DA
:1029F800C4F80864C4F81094C4F81434B4F8623203
:102A08000133A4F8623239E7E31905EBC70193F8FB
:102A1800D323A1F87C2007EE902AF8EEE77AFB0092
:102A2800C7EE897A0793069217EE900A29F0D8F82C
:102A3800B0EE480AF0EE680A41EC110B2AF020F9D2
:102A480051EC100B29F024FC069A079B0E2A80B241
:102A58000AD919303222B0FBF2F080B200EB8000C4
:102A680000EB8000400080B22B44052F98670EDCF5
:102A780008A9FFF79DFE204A07EB8703134408A91E
:102A880018462CF0A0FA05EB8707C7F874010AF17D
:102A9800010A90E705EBC0000132B0F97C0052B2A0
:102AA800874204BF1146012390E7013385F86E3051
:102AB80092E7042FA2DD94F8CB2394F8CC3343EAB1
:102AC800022359041AB204D5C3F30D03A5F87230D2
:102AD80094E7002AF8DBA5F870308FE7AFF30080A1
:102AE8000000000000002440F80900200000002039
:102AF8008E010020C10D0020E40D0020B4F86C32D6
:102B08000133A4F86C3279E7F2075EBFB4F8683293
:102B18000133A4F86832B1E65C4BD3F88821B3F8E6
:102B28008C11012A1DD141F25632914203D14FF046
:102B3800FF32C3F88821D3F88821D4F8340202EB95
:102B4800820202EB820201EB420189B2A3F88C11E6
:102B580003681B6998470023A4F86032A4F862321E
:102B68005CE60132E7D1B1F5965FE4D10122E0E7F6
:102B7800464D95F86C30002B41D0022B3AD105F226
:102B8800931800234FF040090621404685F89831F4
:102B980085F89791FEF718FA95F86F3085F899013E
:102BA800DB0719D4B5F87030B3F5804F14D1384F1E
:102BB800D5F89331C4F82934C3B2BB71062138461D
:102BC80084F82D9484F82E64FEF7FEF9072184F822
:102BD8002F043846FEF7E0F92E480721FEF7DCF906
:102BE800022384F8283495F86F30C3F3400385F83E
:102BF800743004E00322012B84F82824F3D894F8D5
:102C08007432D4F88851F3B1D4E99632EB1A0293AE
:102C180062EB42030393DDE90223002B08BF792A04
:102C280011D3D4F87002FEF7F2FCC4F830540BB09C
:102C3800BDEC048BBDE8F08F144BB3F87230002B59
:102C4800DDD00323FAE594F88C2194F88D319A426B
:102C580002D0FEF709FDE8E7D4F83034EB1AB3F5F3
:102C68007A7FE4D2D4E99632EB1A049362EB4203FA
:102C78000593DDE90434002C08BF962BD7D306480A
:102C88000521FEF789F9FEF7EFFCD0E700000020E8
:102C9800210E0020930100208E0100202DE9F04F25
:102CA80089B08046894614461D46002705AE21781E
:102CB80081B3252907D0B8F1FF3F01D04046C84766
:102CC80001340137F3E761782D2907BFA178033470
:102CD8000234002308BF0123302908BF14F8011B60
:102CE800A1F130020CBF4FF0010B4FF0000B092A85
:102CF8004FF0000A17D96C2940F08C8014F8012B8A
:102D0800642A00F09E8029D8252A00F08F8018D8E0
:102D1800002ACCD1384609B0BDE8F08F0A2214F851
:102D2800011B02FB0A0A08460393029125F096FD4F
:102D38000A28DDE90213F1D9002BDCD0CAF1000A18
:102D4800D9E7582A3AD0632AB1D1B8F1FF3FB8D0B1
:102D580055F8041BC9B24046C847B2E7662A4CD0AA
:102D6800A2F16E03D9B20A29A1D80A2B9FD801A1D2
:102D780051F823F0FB2D0008B72C0008B72C0008E9
:102D8800B72C0008B72C0008DF2D0008B72C000866
:102D9800A92D0008B72C0008B72C0008C52D00087D
:102DA800334600220A2155F8040B58E03346002226
:102DB8000A2155F8040B26F0BDFA52E0A2F158009A
:102DC8004242334642411021EDE758394A424A41CE
:102DD80033461021EDE755F8043B01930023009397
:102DE80053464A464FF0FF31404627F033FD07442B
:102DF8005DE755F8043B1F6059E7073525F00705DF
:102E0800F5E8020129F0F4F900EE100A304625F041
:102E18008DFA26E06629F0D026D85829D5D00BD8C7
:102E280000293FF477AF25297FF441AFB8F1FF3F80
:102E38003FF447AF25218EE7632986D064297FF4C4
:102E480036AF55F8040B0028BFBF2D238DF814307A
:102E580040420DF11503A8BF334600220A2126F08F
:102E680069FACDE900B6BBE7A1F16E03DAB20A2A26
:102E78003FF61DAF0A2B3FF61AAF01A252F823F016
:102E8800FB2D0008B72C0008B72C0008B72C000849
:102E9800B72C0008DF2D0008B72C0008B52D000856
:102EA800B72C0008B72C0008D32D00080CB430B597
:102EB800224CD4F83434A3B013B9D4F838346BB3F3
:102EC800D4F888114FF47A7302A8B1FBF3F203FB2C
:102ED80012131B4927F089FC02AB0344269A1949AF
:102EE8000093054627AB68460193FFF7D7FE009B82
:102EF8005A1C00920A221A70009B5A1C0092002247
:102F08001A700146D4F8340468B103681B6A03B127
:102F18009847D4F8340402A920F08FFA23B0BDE80A
:102F2800304002B07047D4F83824002AF6D029443B
:102F3800023102A8FEF7AAF9F0E700BFF80900205D
:102F480014390308D1A4020810B5084A0023114611
:102F58001479844203D1142000FB031010BD0133FF
:102F6800082B02F11402F3D10020F7E764F20208FB
:102F78002DE9F341044618079DF820700D461646C2
:102F880003F0010817D503F01103002B14BF4E21DD
:102F98003E211CB14FF4E163E380277207222046EB
:102FA80020F076FBB8F1000F25D1204602B0BDE82D
:102FB800F04120F0D3BBB8F1000F14BF4E212E21F1
:102FC800B2070AD51CB14FF4A163E3802772072228
:102FD8002046019120F05CFB0199F3070BD51DB148
:102FE8004FF4C163EB802F720722284602B0BDE878
:102FF800F04120F04DBB02B0BDE8F08180F0010146
:10300800014820F02BBE00BF5C100020054AB2F832
:103018006836D2F86426918A0B4218BF1B04936164
:10302800704700BFF8090020F8B504460F46164659
:1030380025218C2200681D4621F01AF83A4620689E
:10304800262121F015F845F080022721206821F07B
:103058000FF80A2020F01CF920682B463246492137
:1030680020F0D2FF0120F8BD13B504460021006806
:1030780021F03FF800212046FEF752F9142020F0F5
:1030880007F90F212046FEF74BF90A2020F000F936
:1030980001AA032310212046FFF7C6FF0A2020F0CB
:1030A800F7F89DF80420174B8032A3F89A229DF870
:1030B80005208032A3F89C229DF80620002180324A
:1030C8002046A3F89E22FEF72BF90A2020F0E0F80C
:1030D8000DF10302012302212046FFF7A5FF01237A
:1030E8000DF1030209212046FFF79EFF1221204619
:1030F800FEF716F92068032120F0FBFF012002B03B
:1031080010BD00BFF809002030B18388B3FA83F3FB
:10311800202BC3F11F0006D0034A0123116803FACC
:1031280000F008431060704700040140036810B5C0
:1031380004469869E0B120F0DAFD0346C0B9226878
:10314800906918B140F61502C2800372002120F080
:10315800DDFA2146074BA36151F8180B0823806953
:10316800042220F0DBFD2368BDE810409869CBE716
:1031780010BD00BFAF090008F8B5016B0468354FF2
:10318800B7FBF1F1054689B290F82D00FCF7F8FF7E
:103198004388B7FBF3F70646AF632846FFF7C6FF39
:1031A8002046002120F0A5FF80226B21204620F038
:1031B8005FFF642020F06CF807226821204620F089
:1031C80057FF642020F064F800226B21204620F08D
:1031D8004FFF642020F05CF801226B21204620F08C
:1031E80047FF0F2020F054F818221B21204620F01A
:1031F8003FFF0F2020F04CF818221C21204620F019
:1032080037FF0F2020F044F832791A21204620F0A9
:103218002FFF0F2020F03CF872791921204620F06A
:1032280027FF642020F034F812223721204620F0AE
:103238001FFF0F2020F02CF838210122204620F013
:1032480017FF0F2020F024F820460321BDE8F8409E
:1032580020F04FBF40420F008EE7F7B50568016BBD
:10326800514FB7FBF1F1044689B290F82D00FCF7F5
:1032780087FF4388B7FBF3F70646A7632046FFF7A7
:1032880055FF0021284620F034FF80226B21284674
:1032980020F0EEFE96201FF0FBFF0322682128464F
:1032A80020F0E6FE96201FF0F3FF03226B2128464C
:1032B80020F0DEFE0F2000211FF0D6FF10226A2129
:1032C800284620F0D5FE0F2000211FF0CDFF002258
:1032D8006C21284620F0CCFE0F2000211FF0C4FFEF
:1032E80072791921284620F0C3FE0F2000211FF013
:1032F800BBFF18221B21284620F0BAFE0F20002110
:103308001FF0B2FF18221C21284620F0B1FE0F2022
:1033180000211FF0A9FF10223721284620F0A8FE1F
:103328000F2000211FF0A0FF01223821284620F09D
:103338009FFE0F2000211FF097FF32791A2128469F
:1033480020F096FE012000211FF08EFF0321284661
:1033580020F0CFFE206806236A46432120F054FE61
:10336800A0B19DF800209DF8013043EA0223238490
:103378009DF802209DF8033043EA022363849DF8F8
:1033880004209DF8053043EA0223A38494F92230EF
:10339800013306D194F92030013302D1062020F000
:1033A80075FC03B0F0BD00BF40420F0070B50E4C75
:1033B80005460C2694F84837042B01D9002011E063
:1033C8005A1C06FB034384F84827D3F84C27D10737
:1033D800F0D51542EED093F950070FF011FC0028F4
:1033E800E8D0406870BD00BFF8090020024B0022F9
:1033F80083F84827DAE700BFF809002030B5264BE4
:1034080010201C78A4F13002092A194603F101039F
:1034180029D9214A00208B1A022B27DC002391424C
:103428002ED82E2C36D10131042400220D7802EB3F
:103438008202303D5200092D92B298BF521904F110
:10344800FF349CBF013192B214F0FF04EED1642125
:103458004A43124901FB03230622B3FBF2F3104A45
:1034680002FB003001E00138CBD130BD00EB800019
:1034780012F8013B40003038184400F0FF00CAE75A
:1034880003EB830312F8015B5B00303B2B4403F032
:10349800FF03C4E70022DAE78411002040420F004E
:1034A8008096980030B5002351F8234052F82350F5
:1034B800641B40F823400133032BF5D130BD2DE9BF
:1034C800F04180468CB00846154626F0DBF94FF4EB
:1034D8007A72002307460E4629F008F83C2405FBBB
:1034E8000404314638464FF47A72002328F0FEFF70
:1034F800002796B24FF47A73C3FB04673B46324603
:1035080009A825F0A5FF6A4B93F89E37012B65D0D3
:10351800022B00F0918032463B4609A825F098FF1F
:103528003C2195FBF1F31AB201FB13531BB2BDF812
:103538002410002BB8BF5B42B1F5FA6F9BB21BD3C6
:103548009DF8261001390B2916D89DF82710013946
:103558001E2911D89DF8281017290DD89DF8291073
:103568003B2909D89DF82A103B2905D8BDF82C100D
:10357800B1F57A7FC0F0998000204E490991ADF8E5
:1035880028008DF82A00ADF82C000446079382EA3B
:10359800E2739DF828009DF829609DF82A70BDF80F
:1035A8002CC09DF82710009115F13B0FA3EBE27397
:1035B800B4BF2D252B259BB2CDE90553CDE90106D6
:1035C800CDE9037C9DF82630BDF824203A494046D1
:1035D80027F00BF920460CB0BDE8F0819DF8264095
:1035E800E31E072B97D8231F052B0DD9BDF8240000
:1035F800214625F0DBFE9DF8273098420DD0E11ECC
:1036080018BF0121002986D02C4B3C35F6184FF005
:1036180000032DB243EB07077DE7032C03D19DF888
:1036280028100039ECE70A2C7FF475AF9DF82810B4
:10363800B1FA81F14909E5E79DF82640E31E082B18
:103648003FF669AF231F062BDED9BDF824002146BB
:1036580025F0ACFE032C12D10E280ADC9DF8273089
:10366800984208D19DF82810012994BF0021012112
:10367800C8E70738F0E7B4BF01210021C2E70B2CE7
:103688007FF449AF07280ADC9DF82730984208D113
:103698009DF8281001298CBF00210121B2E70738C5
:1036A800F0E7CCBF01210021ACE701246EE700BFA1
:1036B800F8090020000001012039030880EE3600D7
:1036C80008B5044820F01DFFBDE80840024821F075
:1036D80095BC00BF4E3903085A3903080C4608B593
:1036E80005460EF069FD20460EF066FD0020FFF746
:1036F80085FC28461FF048FE60B10120FFF77EFCDC
:1037080028461FF03BFE014620461FF040FE0020E1
:10371800FFF774FC20461FF037FE0028E9D001208F
:10372800FFF76CFC20461FF029FE014628461FF0D3
:103738002EFEDBE7F0B505460C4689B014220021C1
:1037480020462BF01CFC2A681D4E04A8C2F38551A4
:103758000023054641FA03F7FF0744BF9F5D00F8C1
:10376800017B0133062BF5D1164900230370C2F300
:1037780003200844C2F3053690F892028DF8180029
:1037880001F299210DF1190046FA03F7FF0744BF2A
:103798005F5C00F8017B0133062BF5D10023037031
:1037A800C2F38343029306ABCDE90053064902F006
:1037B8000F032046C2F3031227F017F809B0F0BD33
:1037C80004F3020878F002086739030870B51C4C46
:1037D80094F8CC5A75B3D4F8D46A0B68DFED196A3B
:1037E8009B1B07EE103AD4F8D86A4B68B8EEC77A34
:1037F8009B1B27EE267A07EE903A04F5F46380EDDA
:10380800007A93EDCC7A8B68012AF8EEE77A27EEF6
:10381800267A18BFD4F8DC2A67EE877A18BF9B1A75
:10382800C0ED017A07EE903AF8EEE77AC0ED027A39
:10383800284670BD0023036043608360F8E700BF3B
:10384800F80900202C7D8E3F1FB5314901A84A7D1B
:1038580058310DF080FB0398019A80EAE073A3EBDE
:10386800E07307EE903AF8EEE77AF7EE086AC7EEEB
:10387800A65A82EAE273A3EBE27307EE103AB8EEB7
:10388800C77A029BF4EEC75AF1EE10FA13DD83EA09
:10389800E371A1EBE37106EE101AB8EEC66AF4EE16
:1038A800C65AF1EE10FA06DD0028CCBF0020012030
:1038B80005B05DF804FBC7EE265A83EAE371A1EB75
:1038C800E37106EE101AB8EEC66AF4EEC65AF1EEC7
:1038D80010FA09DDF4EEE57AF1EE10FA04D5002AC3
:1038E800CCBF02200320E3E7C6EE265AB4EEE57A01
:1038F800F1EE10FA09D5F4EEE57AF1EE10FA04D5F6
:10390800002BCCBF04200520D2E74FF0FF30CFE7D3
:103918000000001070B51E4D95F8CC3A2DED028BC5
:1039280004460E4673B3D5F8D43A0360D5F8D83AAE
:103938004360D5F8DC3A836005F5F46393EDCC8AEF
:10394800DFED148A96ED000A80EE280A29F04CF97A
:1039580023681844206028EE288A96ED010A80EE34
:10396800080A29F041F963681844606096ED020A74
:1039780029F03AF9BDEC028BA3681844A06095F8C9
:10398800CC0A70BDC0E900338360B7EE008AD7E780
:10399800F80900202C7D8E3F30B52549DFED256ADA
:1039A8000A7F0D6C01EB4204013202F00F020A7724
:1039B80091F85C20E38BE08307EE102AB8EEC77A13
:1039C80091F85D2027EE267AC31AFDEEC77A2B44BC
:1039D80017EE900A07EE902AF8EEE77A0B6467EE86
:1039E800A67A1B09FDEEE77AA1F8443017EE902A73
:1039F80090420FDD9BB29A42D4BF9B1A0023984293
:103A0800A6BFC31A9BB20023A1F84430034617EEA1
:103A1800900A1A46B1F844301B1AC3EB8323121AD2
:103A280093FBF2F282F30A02A1F8442030BD00BFF2
:103A3800F01A002014AE234130B5194DD5ED1A7A8D
:103A480089B0F1EE677ACDED057AD5ED1B7A0023C2
:103A58000093F1EE677A0B680193CDED067A4B6817
:103A6800D5ED1C7A02938B68039304466B6E04931E
:103A7800F1EE677A6A4604A96846CDED077A12F036
:103A8800D9FA694605F16402084612F0D3FA019B97
:103A98002360029B6360039BA360204609B030BD8E
:103AA8000000001038B502782DED088B30EE609AD2
:103AB800D0ED01AA044669EE2AAAF0EE409AF0EE8B
:103AC800418AB0EE618AB0EE42BA0D4601F00103B8
:103AD8004AB1002B0CBFF0EE607AF0EE497A002272
:103AE800C0ED0B7A0270D4ED0B7A002B60D079EE22
:103AF800677AF0EE490A87EEA80AC4ED0B0AD4EDFE
:103B0800090A94ED03AAF5EEC00AF1EE10FA05DDF4
:103B1800B0EE681A04F1180026F041FDD4ED057ADC
:103B280094ED0A7A69EEA79A20EE0A0A7AEE877A65
:103B380077EE807A77EEA97AF4EEC87AF1EE10FA89
:103B480008D4F4EECB7AF1EE10FAD4BFB0EE678A5F
:103B5800B0EE4B8AD4ED026A94ED046AC4ED0DAA66
:103B680029EE269AF0EE476AE8EE896A6B0778EE46
:103B7800677A84ED0C7A67EE867A84ED0E0AE8EEB1
:103B8800A76AC4ED0F9A84ED108AF0EE667A08D51C
:103B9800F0EEE66AB0EEC77AF4EEC76AF1EE10FA14
:103BA80001D5C4ED0A7AB0EE480ABDEC088B38BDE1
:103BB80070EEE77AF1EE677A87EEA80A9DE710B50E
:103BC80088B0002300930B6801934B6802938B68BD
:103BD80014490393D1ED1A7A4B6E0493F1EE677A88
:103BE800CDED057AD1ED1B7AF1EE677ACDED067A47
:103BF800D1ED1C7A0446F1EE677A6A46643168466C
:103C0800CDED077A12F016FA694604AA084612F0B2
:103C180011FA019B2360029B6360039BA36020460B
:103C280008B010BD0000001010B51E4C94ED1A0A23
:103C3800D4ED197A20EE000AA7EEA70AD4ED1B7A74
:103C4800A7EEA70AD4ED1C7AA7EEA70A29F078FBFD
:103C5800DFED157AB4EEE70AF1EE10FA08D54FF069
:103C68007E5363660023A366E36623670F4810BD8F
:103C780094ED197AC7EE007A94ED1A7AC4ED197AA0
:103C8800C7EE007A94ED1B7AC4ED1A7AC7EE007A73
:103C980094ED1C7AC4ED1B7AC7EE007AC4ED1C7A49
:103CA800E4E700BF00000010BD378635640000104F
:103CB80030B5ADF5815D87B0D0F8D0100DF58153E2
:103CC80000F10A021833039306924FF6FF730A4471
:103CD800ADF8103007920023B0F8D6208DF81230D6
:103CE800ADF81430ADF82020ADF8243090F8D52088
:103CF800019306AB04460AAD8DF8222002A901AA59
:103D08001846029515F014FD40B1029B94F8D42092
:103D180002A92046CDE902530DF04CFD019800237D
:103D280063720DF5815D07B030BD054991F87320C8
:103D38000023042A036028BF042278312AF034BF04
:103D4800F01A002010B4064991F87320002404806A
:103D5800022A5DF8044B28BF022278312AF024BFDA
:103D6800F01A0020F8B5204C1D270E46054684F8A9
:103D780080710EF009F900200EF092F808200EF07C
:103D88008FF80E200EF08CF838460EF089F80420D3
:103D98000EF086F804200EF083F800200EF080F86C
:103DA80030200EF07DF800200EF07AF830460EF044
:103DB80077F800200EF074F80EF0C6F804F28110BF
:103DC8000DF0D6FF234670B194F8812152B994F8CA
:103DD8008221302A00D02AB993F8832112B993F8A6
:103DE80084312B700120F8BDF01A002010B502466E
:103DF800041D0020A24200D110BD12F8013B082189
:103E0800584010F0800F4FEA400318BF83F0310389
:103E18000139D8B2F5D1EDE70F4B062230B483F85B
:103E28009321242283F8942183F89521002283F892
:103E380096210A4A03F2971102F1240452F8045B0E
:103E480041F8045BA242F9D1032230BC83F89901FE
:103E580083F89A2108F044BEF01A002017F30208EC
:103E6800F0B5144C014600200246264607464FF09E
:103E78000A0CA31893F88C3703B9F0BD2E2B06D182
:103E880001320029F9D0A3180B4483F88C77B318B2
:103E98000CFB00F093F88C57A5F13003092B9CBF5D
:103EA800A0F13003E8180E2A01D80132E1E700201A
:103EB800E3E700BFF809002010B50B4C04F5875064
:103EC800043006F06FFB41F2F003E358C01A26F005
:103ED800B6FE0028B8BF404242F210739842D4BFE1
:103EE8000020012010BD00BFF8090020024B4FF44C
:103EF80080221A60704700BF140401407047704761
:103F08007047FEE7FEE7FEE770470B4B93F8D321B7
:103F18001044C2B2010648BF803A83F8D32193F80F
:103F2800D31193F8D421914202BF002283F8D421FF
:103F380083F8D321704700BFF01A002030B50B4A30
:103F480092F8D33102F2D514E518C0E9005492F87A
:103F5800D42193429BBFD31A0B60C3F18003002383
:103F68008CBFC1E900324B6030BD00BFF01A0020A1
:103F78001FB502A86946FFF7E1FF054B0098D3F883
:103F880058321844019B184405B05DF804FB00BF83
:103F9800F01A0020054B93F8D40193F8D3319842D6
:103FA80036BFC3F18003C01AC0187047F01A00204A
:103FB800054BD3F85C2250889388044A1B1AD2F820
:103FC800A00103FB00007047F01A00200000002049
:103FD80013B50C4C94F8600268B10523ADF80030B5
:103FE800D4F8640202236A4601A91FF0ABFF9DF8CA
:103FF800050000F0010084F8600280F0010002B0C2
:1040080010BD00BFF01A002070B5074DD5F88861C3
:104018000446FFF7DDFF30B9002CFAD0D5F8883117
:104028009B1BA342F5D970BDF809002070B5154D4A
:1040380088B01446032395F86822009300239A4217
:1040480014BF05260426CDE9046101460DF10100DF
:10405800CDE906348DF804300293CDF80CD0FCF786
:10406800F7F90620FFF7D0FF50B1D5F864020379BD
:10407800022B02D102A9FDF72AF9204608B070BD2B
:104088000446FAE7F01A002007B58DF8070006483D
:1040980001230DF107020021D0F864021FF052FF3E
:1040A80003B05DF804FB00BFF01A002070B5174E8E
:1040B80088B01546022396F86822009300239A4296
:1040C800044614BF05200420CDE90403CDE90615F4
:1040D8000DF1010021468DF804300293CDF80CD083
:1040E800FCF7B6F90620FFF78FFF0620FFF7CCFF95
:1040F800D6F86402012386F860320379022B02D1D4
:1041080002A9FDF7E4F8281908B070BDF01A0020DC
:104118002DE9F04F87B0CDE9011301EB820303933A
:1041280004900B464FF0000B53F8042B9344039A6A
:104138009A42F9D1029B002B57D1FFF749FF00287B
:1041480053D1029807B0BDE8F08F049EDDF80480D3
:10415800A146434658F8042B002A40D04A45316806
:104168002FD34A4628460593FFF7A0FF3268059BE0
:104178004A4432601A68A2EB09021A60DAF8583227
:104188003F1B1C44029BCAF85842BBB1B7B1194B3C
:10419800DAF85852B3F89E41B5FBF4F304FB135315
:1041A800DA19944234BFE41A3C46FFF701FF85420E
:1041B800CBD300238AF8D4318AF8D331ABEB07008C
:1041C800C0E72846FFF772FF58F8042C33681344F9
:1041D800336000230546A9EB020948F8043C039B19
:1041E800984506F10406B4D1C8E7DFF80CA05F468D
:1041F800CCE700BF00000020F01A00201FB50C4CCF
:1042080094F8D32194F8D4319A420ED002A9684682
:10421800FFF794FE0123022202A96846FFF778FF00
:10422800002384F8D43184F8D33104B010BD00BF22
:10423800F01A00201FB50F4C94F8D32194F8D4310C
:104248009A4214D002A96846FFF778FE002302229A
:1042580002A96846FFF75CFFFFF757FE94F8D30101
:1042680094F8D431C31A5842584104B010BD012003
:10427800FBE700BFF01A00202DE9F3471E4CDFF8DA
:104288007C80D4F85C727E884FF0D8094FF0000A21
:10429800BB889E4209D9002384F8D43184F8D331ED
:1042A800C4F8583202B0BDE8F08794F86852D8F8DC
:1042B800A011CDF8009071432A460DF101008DF848
:1042C80004A0FCF7C5F841F28830FFF79DFE0620F0
:1042D800FFF7DAFE0123002D84F860326A4614BF26
:1042E800052304230021D4F864021FF02BFE0020CC
:1042F800FFF78AFE0136CBE7F01A00200000002005
:10430800074B30B50022062404FB02F1CD5C854240
:1043180004D00132092AF7D1002030BD5818FCE733
:104328005A1D0020036C806B23B15B6801211A7A47
:104338001FF0AEB901211FF0E9B98379806BDB0763
:1043480048BF81F0010109B11FF058BC1FF006BA3F
:104358002DE9F04F974CD4F8A08298F8103003F06C
:10436800FF0C002B40F0238194F8A62294F8A712A2
:1043780094F8A802A4F8A4C204F2AA29E6463C25A7
:1043880099F8023099F80360C3F1FF039BB2002B40
:1043980000F00781C3F1FF037343B9F800704FF0D1
:1043A8003C0A1B12B7FBFAFBBBF1050F23D8DFE869
:1043B8001BF006001000BB00C900DA00E800F11A83
:1043C800D8B27943B1FBF5F151FA83F3D9B2324649
:1043D8000FE0B7FBF5F205FB1277BAB2C2F13C0762
:1043E800F21AD8B27A43B2FBF5F252FA83F3DAB290
:1043F80031464FF0010E170247EA014707430023F1
:104408004FF0010A0CEB0306C3F1170B0AFA0BFB7A
:10441800B6B21BEA070F04EB4606534414BF4FF02D
:10442800020BD346182BA6F82AB3E9D10CF1180CC5
:104438001FFA8CFCBCF5407F09F10409A0D1A4F84F
:104448007EC9BEF1000F05D084F8A62284F8A71211
:1044580084F8A8022023A4F8A43294F88039002B09
:1044680000F0A580EFF31182102383F31288D8F8A7
:104478000C108868036823F001031B041B0C0360FD
:10448800D8F80400056843794B48EE6800EB430010
:10449800B0F86030DB439BB23340EB600B694D688A
:1044A800022000FA03F36B60D3B283F31188D8F8C3
:1044B8000C30D4F8A0129B6840F22A325A601A686D
:1044C80042F001021A60012388F810300A68137D4F
:1044D800012B08BF107592F82C000CBF4FF4007325
:1044E8000023012804BF022082F82C0092F844001F
:1044F80008BF43F48063012804BF022082F8440007
:1045080092F85C0008BF43F4006301284DD10220F3
:1045180082F85C0043F480534A68126800215162B3
:10452800D1680B43D36042E0B7FBF5F005FB107090
:10453800F11A80B2DAB24843B0FBF5F050FA83F3CF
:10454800D8B255E7B7FBF5F105FB1177B9B2C1F160
:104558003C07F11ADAB27943B1FBF5F151FA83F36A
:10456800D9B2304645E7B7FBF5F205FB1272F01AEF
:1045780092B2D9B24243B2FBF5F252FA83F3DAB2FD
:10458800EFE7B7FBF5F205FB1277BFB2F01AC7F1F8
:104598003C07D9B27843B0FBF5F050FA83F3D8B2B0
:1045A80015E730463146324623E7002BB4D1BDE843
:1045B800F08F00BFF01A002078F00208024B034881
:1045C800D3F8C419FCF7B4BFF01A00200048014022
:1045D800024B0348D3F8BC19FCF7AABFF01A002015
:1045E80000400140024B0348D3F8A019FCF7A0BFD4
:1045F800F01A002000340140FFF7F4BF024B0348D3
:10460800D3F89019FCF794BFF01A00200008004076
:10461800024B0348D3F88C19FCF78ABFF01A002024
:1046280000040040034B4FF08040D3F88819FCF792
:104638007FBF00BFF01A002010B5064C0648D4F81A
:104648008419FCF775FFD4F8C0190448BDE8104078
:10465800FCF76EBFF01A0020002C01400044014016
:10466800024B0348D3F88419FCF762BFF01A002004
:10467800002C014010B5426813685079074A02447B
:10468800012092F8C3421A6AA04022EA00021A6284
:104698001A6AA1401143196210BD00BF78F00208E0
:1046A80010B5837913F0010F03F020020446C36BA1
:1046B80011D05B68002A1A7A14BF02214221606B6C
:1046C8001EF0E6FF0121E06B84F86012A4F85C128A
:1046D800BDE81040CEE75B68002A18BF02211A7AAD
:1046E80008BF2221EBE743685A79032A0FD8DFE88D
:1046F80002F00205080B1868343070471868383023
:10470800704718683C307047186840307047002080
:104718007047F0B54268947914F0040004F002037D
:104728000BD000241E46A6460425234650790328AC
:1047380042D8DFE800F0094273A39E464FF4807424
:10474800064605460123F1E71268106A20F00100C9
:104758001062106AD2F804C097694EEA030320F089
:1047680002001843584B27F4803727F073079A4202
:1047780047F060070FD003F500639A420BD003F5AA
:1047880040639A4207D003F580639A4203D003F549
:1047980080639A4207D120F00C0030432CF4407C0F
:1047A800284344EA0C0CC2F804C0976151631062B4
:1047B800936943F008039361F0BD1268106A20F012
:1047C80010001062106AD2F804C097694EEA030319
:1047D80020F0200040EA03103B4B27F0807727F4B5
:1047E800E6479A4247F4C04703D003F500639A426C
:1047F8000BD120F0800040EA061020F040002CF495
:10480800406C40EA05104CEA840CC2F804C0976179
:1048180091631062936943F40063CCE71268106AED
:1048280020F480701062106AD2F804C0D76920F4AE
:1048380000704EEA030340EA0323234827F0730776
:10484800824247F0600703D000F5006082420BD136
:1048580023F4006343EA062323F480632CF4405CCA
:1048680043EA05234CEA041CC2F804C0D761D163AB
:104878001362D36943F00803D3619DE71268106A95
:1048880020F480501062166A5568D06926F40056E4
:104898004EEA030346EA03330B4E20F4E640B242E5
:1048A80040F4C04003D006F50066B24203D125F4B7
:1048B800804545EA84155560D06111641362D36957
:1048C80043F40063D8E700BF002C0140F0B5476807
:1048D800494B78791844002990F8C3624FF00104D5
:1048E80014BF0020022003F5327353F824108A42C3
:1048F8001CD2651E3B68F6B91A6A22F001021A62D8
:104908009C691A6A24F0F30422F00A0244EA0514A6
:1049180040F00101114344F001049C6119629A6955
:1049280022F00C029A619A699A61F0BD0134102C48
:10493800DBD10F25DEE7042E1BD11A6A22F0100204
:104948001204120C1A629A69196A21F0A00109046A
:1049580022F47342090C42EA053241EA001142F49A
:10496800807241F010019A6119629A6922F44062DA
:10497800D8E7082E1A6AACB220D122F48072120449
:10498800120C1A62DA69196A92B289B222F0F30239
:1049980042EA041221F4206192B241EA002142F075
:1049A800010241F48071DA611962DA6922F00C02BD
:1049B8001204120CDA61DA69DA61B6E722F480527D
:1049C8001204120C1A62DA69196A22F4407212058A
:1049D80021F40051120D490442EA0432490C92B202
:1049E80041EA003142F4807241F48051DA6119627F
:1049F800DA6922F44062DBE778F0020837B58368A9
:104A08001C686379DB0725D5A57994F85C3205F035
:104A180001010D4603B3E06B43681A68D36AC3F318
:104A28004E03536294F86D32012B07D094F861322B
:104A380023B1B4F868320133A4F86832002285F053
:104A48000101FFF743FF0023A4F866324FF080739B
:104A5800C4F85C3203B030BD94F85F320191012B89
:104A680004BF94F85D3284F85E322046FBF747FDB8
:104A780094F85F2201994AB9012384F85F3285EAE4
:104A88000301E06B03B0BDE830401FE7002284F863
:104A98005F22F6E738B583681C6863799B0717D5EA
:104AA80094F86152002D57D1A36A626A94F8601293
:104AB8009A4227D161B9A3791D0709D5236CA06B48
:104AC800E3B15B681A7A1EF0E3FD2046FFF7E8FDC4
:104AD8006379D90740F1938094F85C32002B40F059
:104AE8008E8094F85D320133DBB2092B84F85D3295
:104AF80048D12046BDE83840FBF701BD19461EF0F5
:104B080005FEE2E75A1CA069A262C35C20695B004B
:104B180043F40073A4F864320A23824228BF2A4669
:104B280084F862320123A26284F861320029CFD06E
:104B3800A3791807CCD5E06B2946FFF79BFDE36BFB
:104B4800606B5B6829461A7A1EF0A2FD84F86052F1
:104B58002046FFF7E7FBBBE794F962327BB1B4F874
:104B680064124B08A4F8643201F001012046FFF7F3
:104B7800E4FB94F86232013B84F86232A8E784F8D7
:104B88006132A5E70A2B3AD194F85F322BB9B4F811
:104B9800663243F00103A4F86632B4F8660282056F
:104BA80001D4C30718D4B4F86A320133A4F86A32BE
:104BB80094F85F5201239D42A4F85C321FD1A17979
:104BC800E06B0022194084F85F22FFF77FFEE06B5C
:104BD8002946BDE838404DE5E36AC0F3470013B104
:104BE800216B9847E4E7E3696269D054E369E168B7
:104BF8000133B3FBF1F201FB1233E361D8E738BDAF
:104C080038B503681B681C68284B07EE902A93ED9B
:104C18006B7AF8EE677AB8EE477A013987EE270A99
:104C28008DB2DFED237A30EE270A27F0DDFF214A27
:104C380023880138944280B29BB20ED002F50062FC
:104C480094420AD0B4F1804F07D0A2F5983294422A
:104C580003D002F58062944202D123F070039BB224
:104C6800154A944206D002F5806294421CBF23F490
:104C780040739BB223800F4BE5629C4220850FD086
:104C880003F500639C420BD003F540639C4207D0B8
:104C980003F580639C4203D003F580639C4201D1F5
:104CA800002323860123636138BD00BF0000002074
:104CB8000AD7233C002C0140001000400028ACBF5C
:104CC80000F16040064B4FEA0111ACBF00F56140AE
:104CD80000F00F00C9B2B4BF195480F80013704730
:104CE80014ED00E008B503681B680246587990B1D6
:104CF800032140B2FFF7E2FF13681B68597993F963
:104D08000530002B07DB01F01F00012181405B0902
:104D18000D4840F8231013681B68987990B1032157
:104D280040B2FFF7CBFF13681B689A7993F90630F6
:104D3800002B07DB02F01F0101228A405B090249B0
:104D480041F8232008BD00BF00E100E00E4BD3F876
:104D5800AC2110B513460446B3FBF1F0B0F5803F23
:104D680003D3012BFAD95B08F6E781B22046FFF797
:104D780047FF2046FFF7B6FF63681A6813889BB29F
:104D880043F00103138010BD000000208160C06B58
:104D9800DCE700B5A9B0684626F04AFC14A826F05E
:104DA80047FC149B124AB3FBF2F3124AC2F8C83903
:104DB800114AD36843F08073D360104A136843F0F4
:104DC80001031360009B4FF47A72B3FBF2F3013BCB
:104DD800B3F1807F09D20A4A53600A4BF02183F865
:104DE8002310002393600723136029B05DF804FBA8
:104DF80040420F00F01A0020F0ED00E0001000E043
:104E080010E000E000ED00E0024BD3F8CC09C0F35D
:104E180000707047F01A00200148FBF785BD00BFFD
:104E2800C02400200148FBF77FBD00BFF824002004
:104E38000148FBF779BD00BF302500204268034BCD
:104E48009A420CBF20202120FDF794BC00000240AC
:104E58000348D0F81C3313B100F544701847704765
:104E6800000000200348D0F8FC3213B100F53C7074
:104E780018477047000000200348D0F8DC3213B10F
:104E880000F5347018477047000000200348D0F838
:104E9800BC3213B100F52C70184770470000002091
:104EA8000348D0F89C3213B100F5247018477047B6
:104EB800000000200348D0F87C3213B100F51C70C4
:104EC80018477047000000200348D0F85C3213B13F
:104ED80000F5147018477047000000200348D0F808
:104EE8003C3213B100F50C701847704700000020E1
:104EF8000348D0F81C3213B100F504701847704706
:104F0800000000200348D0F8FC3113B100F5F87018
:104F180018477047000000200348D0F8DC3113B16F
:104F280000F5E87018477047000000200348D0F8E3
:104F3800BC3113B100F5D870184770470000002045
:104F4800DFF8E4C2182358432DE9F0410CEB0003C5
:104F5800DFF8D8E267461C46DEF80C2042F0807283
:104F6800CEF80C200CEB0005AD4A95F9786A51682B
:104F7800AC4A95F87A5A02EBC602013DD2F83023C2
:104F8800102D00F2DD80DFE815F01B00210026005F
:104F980039004D0057005F0079009500B700F80010
:104FA800FE00060111012B0137011100B7F8C02AD4
:104FB800013292B2A7F8C02A002283F87A2ABFE009
:104FC8009569AD0679D52021D161F5E70325C4F8A7
:104FD8007C1A84F87A5A926916046ED493F8822A55
:104FE8000AB10A22E9E793F8832AFF2A04D193F841
:104FF800802A0AB10822E0E70422DEE7556893F820
:10500800816A25F07F7525F4593525F47F7525F0DB
:105018000305354345F490355560052583F87A5ADC
:10502800C3F87C1A9569AD0704D49269D60644D5AD
:105038001022C2E70622C0E794F8835A9562072532
:1050480084F87A5AC4F87C1A95696E06EDD5D3F8B7
:10505800841A0029CED1516893F8815A21F07F71C2
:1050680021F4593121F47F7121F00301294341F0E2
:10507800007141F48041516001229EE7556893F820
:10508800816A25F07F7525F4593525F47F7525F05B
:1050980003052E43D3F8845A2D0405F47F053543C0
:1050A80045F0007545F410555560092583F87A5A7E
:1050B800C3F87C1A95696D070CD4D3F87C2A891A31
:1050C800D7F8C829B1FBF2F142F20F72914237DDED
:1050D800112272E7D3F8885A526A6E1CC3F8886A9C
:1050E8002A70D3F8842A013AC3F8842A002A41D1C5
:1050F800012283F88C2A3BE094F8835A94F8818A39
:10510800FF2D24D194F8805A0DB35668D4F8845AE8
:1051180026F07F7626F4593626F47F762D0426F07D
:10512800030605F47F0546EA0806354345F0007591
:1051380045F4005555600F2284F87A2AC4F87C1A81
:1051480093F87A2A002A7FF407AFBDE8F081556802
:1051580025F07F7525F4593525F47F7525F003056D
:1051680045EA080545F0807545F4903555600B22F1
:1051780083F87A2AC3F87C1AE2E79569AE077FF5C7
:1051880054AF0C2219E794F8835A95620D2584F8D8
:105198007A5AC4F87C1A95692D067FF546AFD3F87C
:1051A800841A00293FF457AF0E2206E7556893F892
:1051B800816A25F07F7525F4593525F47F7525F02A
:1051C80003052E43D3F8845A2D0405F47F0535438F
:1051D80045F0007555600F2583F87A5AC3F87C1A94
:1051E8009569AD077FF569AFD3F8885A6E1CC3F887
:1051F800886A2D78956274E7516893F8815A21F08E
:105208007F7121F4593121F47F7121F00301294381
:1052180041F0007141F4804151601021D1612BE7C8
:10522800001000E000000020F01A0020F0ED00E07F
:105238001549D1F8883043F47003C1F88830134B0E
:105248001A6842F001021A605868114A02405A600E
:105258001A6822F0847222F480321A601A6822F4E2
:1052680080221A605A6822F4FE025A60DA6A22F032
:105278000F02DA62186B074A02401A6300229A602A
:105288004FF000638B60704700ED00E000100240B3
:105298000CC07FF8CCFC00FF10B5094C21684FF614
:1052A800FB720A402260074A917E39B105231360D8
:1052B800FFF7BEFF4FF41643236010BD0123F6E746
:1052C800405C0040F80900202DE9F347A44EA54CA6
:1052D8003368A54D9BB2A4F8C23AB4F8C23AB5F8FF
:1052E80070201340980508D54FF6FF53336094F8A3
:1052F800C43A0133DBB284F8C43AB4F8C23A1A406B
:10530800110440F117820023DFF86C82DFF86CA2E9
:10531800ADF8023048F60F7933689AB21904A4F848
:10532800C22A40F10782B4F8C27A07F00F0784F85E
:10533800C57A002F40F00A83DAF800309BB2A4F84F
:10534800C63AB4F8C63A03F03003A4F8C83AB4F839
:10535800C63A03F44053A4F8C63ADAF8003023F406
:10536800804323F040031B041B0C83F4005383F099
:10537800200343F4004343F08003CAF80030B4F834
:10538800C23A13F0100FDAF8003027D123F4E143C2
:1053980023F070031B041B0CCAF80030AB681A7AA0
:1053A800022A01D0042A05D125F0F8FFAB681B7A40
:1053B800AA6865E1062A76D15A78052A09D11A78A9
:1053C800520606D1D87825F0FFFED4F8CC3A1B6AED
:1053D8009847D4F8D03A9B68984764E09BB2ADF8F8
:1053E8000230BDF802301B0540F12482DAF80030A3
:1053F8005E4923F070031B051B0DCAF800300A68CC
:105408005B4B92B222F0070213445B0088461A688D
:10541800AB68187A092817D092B2520002F180427C
:1054280002F5C04211781970517859701179908835
:10543800090241EA10215980117A1089090241EACA
:10544800102199809289DA8001221A72DA8893F8F9
:105458000190002A40F0DB801A7812F07F025ED1BA
:10546800B9F1090F18D1DA78012A09D9D4F8D03A54
:1054780048465B699847032840F0C580092397E7A9
:1054880099780029F2D199880029EFD19A72D4F835
:10549800CC3A5B68984711E0B9F1050F1DD193F933
:1054A8000320002A01DA082382E79A78002AFAD131
:1054B8009A88002AF7D19B7A002BF4D1D8F80020DB
:1054C8002C4B92B222F0070213445B0000221A60B0
:1054D8003023A4F8C83A06236AE7B9F1030F0DD1BF
:1054E800DA78012AC2D19A88002ABFD15A7A42F0C2
:1054F80020025A72D4F8CC3ADB69CBE7B9F1010F34
:10550800B4D1DA78012AB1D19A88002AAED15B7A6F
:105518009F06ABD525F0B4FE0028CFD0A6E7012A18
:105528002ED1B9F10B0FA1D1D4F8D02AD97892692C
:1055380058799047AB689A7A002A97D0002895D175
:105548001A79002A92D19B78002B8FD1D4F8CC3AC3
:10555800DB689847AB685A79DA72DA781A73ADE77C
:10556800445C0040F01A0020F8090020505C00401C
:10557800043000200230002078F00208005C00406F
:10558800022A7FF473AFB9F1010FC3D0B9F1030F49
:105598007FF46CAF587920F08007BA0002F180429E
:1055A80002F5B84240B211680028B4BF01F03001DA
:1055B80001F44051032F3FF659AF5F88002F7FF465
:1055C80055AF00293FF452AF9B7A002B3FF44EAF02
:1055D80013680028B5BF23F4E04323F4804323F085
:1055E800400323F07003B5BF9BB29BB283F0100356
:1055F80083F4805343F4004343F080031360D4F8EA
:10560800CC3A9B6946E700283FF458AF4BE7B9F11D
:10561800060F13D11A78500655D19B78D4F8D02AA2
:10562800012B03D1D369002B4DD01CE0022B01D1F3
:10563800136AF8E7032B46D1536AF4E7B9F1000F70
:1056480040F0A180598800293DD15A6822F47F4250
:10565800B2F5003F37D11A7812F07F0212D19B8839
:10566800002B30D1B14BAA68002050829361984733
:10567800AA68138A4FF6FF718B4240F0AA8009236B
:1056880013722CE0012A0AD1D4F8D02A58799269E9
:105698009047C0B9AB689B7A002BE3D113E0022A8C
:1056A80011D15A7902F00F039B0003F1804303F5EF
:1056B800B84311061B684CBF03F0300303F4405392
:1056C80012F07C0FE8D0AA68D4F8D03A50781B6959
:1056D800984703280746CBD1AB6809221A7225F0F0
:1056E800AFFD934B1B68B4F8C62A23F4804323F01C
:1056F8004003D2044FEA0343B4F8C62A4FEA1343DF
:1057080048BF83F480539704B4F8C82A48BF83F489
:105718000053D006B4F8C82A48BF83F01003910696
:1057280048BF83F0200343F40043814A43F08003D9
:105738009BB21360B5F87020B4F8C23A13405A050A
:1057480006D54FF6FF3333607A4BD3F82C319847A0
:10575800B4F8C23AB5F870201340DB0440F1388140
:105768004EF6FF733360002384F8D53A94F8D53A9F
:10577800052B00F21F81DFE813F0180123012E0129
:1057880033013F014C01B9F1080F04D11B785806C9
:1057980099D1694B67E7B9F10A0F94D11A7802F0E9
:1057A8007F02012A8FD19A7A002A8CD05988002941
:1057B80089D15A6822F47F42B2F5803F83D1D4F868
:1057C800D02A58799269904700287FF47CAF5B4BC8
:1057D80049E7022F00D00BB9082351E792F90010CE
:1057E800002920DAD188D4F8D00A0191DDF804C064
:1057F80090F82C706345384605D9019B1382908236
:1058080025F0CCFD6BE78B42F9D2BB4203D20023D3
:1058180084F8D43AF3E7B3FBF7F107FB1133002B15
:10582800EDD10123F4E7032313724FF44053A4F896
:10583800C63A54E7BDF8023019047FF56DADDAF8C1
:105848000030AF6823F070031B051B0DCAF8003049
:105858003B7A022B3FF427AE042B3FF424AE032BF4
:1058680001D0052B5AD1BB695BB93B8A002B37D1D4
:10587800398ABB8AA8688B423ED803230372037A0D
:1058880096E53A8A002AF3D0B7F81480904528BFE5
:1058980090461FFA88F9484698473B8AA3EB0903C4
:1058A8003B827B8A4B447B82254B1A68254B92B2FC
:1058B80022F0070213445B0008F101081B689BB241
:1058C80003F1005303F540534FEA68085B000022D8
:1058D8004245CAD053F8221020F812100132F7E7D7
:1058E80000214FF440530846A4F8C63A25F046FD77
:1058F8003023A4F8C83ABBE709B10523BEE706235D
:1059080003720F4B1A68104B92B222F0070213442D
:105918005B0019603023A4F8C83AB0E7072B7FF47E
:10592800C2ADD4F8D03ADB6856E500BF21A602081C
:10593800005C004000000020CDA60208A9A60208CD
:10594800505C004004300020023000203BB29B0035
:1059580003F1804303F5B8431A6892B2ADF8022008
:10596800BDF8022012040AD51A6822F07002120546
:1059780008EB8707120D1A60D7F804339847BDF86B
:10598800023018067FF5C8AC94F8C52A930003F1D5
:10599800804303F5B843196801EA0901196008EB67
:1059A8008203D3F820339847B6E4D4F8D83A1BB921
:1059B800FFF772FC062300E0052384F8D53A07E0D8
:1059C800FFF76AFC042384F8D53A0123C4F8D83ACF
:1059D80002B0BDE8F087022384F8D63A0323ECE747
:1059E80094F8D63A013BDBB284F8D63A94F8D63A22
:1059F800002BEDD10423E0E7124A13689BB243F071
:105A080010031360052384F8D53A0A2384F8D63A9C
:105A1800DEE794F8D63A013BDBB284F8D63A94F83C
:105A2800D63A03F0FF01002BD2D1064A10684FF690
:105A3800EF7303401360062384F8D53AC4F8D81AE4
:105A4800C6E700BF405C0040036813F0400004D084
:105A580013F4057F14BF012000207047F0B5264CD1
:105A680004F5346104F61832C4F8101B2349C4F84D
:105A7800FC1A85B00546C4F80C2B00214FF4787346
:105A88000131122922F8023BFAD11D4E84F8E01A9E
:105A980042F6F8220023C6E902234020194BC4F835
:105AA800003B0CF00FFC024620B3FFF7CDFF94F843
:105AB8004E3094F84F100746002F92F904000095D5
:105AC80014BF03220122002B0CBF07230623002941
